:100000000C9495030C94DC030C94DC030C94DC033B
:100010000C94DC030C94DC030C94DC030C94DC03E4
:100020000C94DC030C94DC030C94DB160C94171674
:100030000C9420260C94DC030C94DC030C94DC035D
:100040000C94DC030C94DC030C94DC030C94DC03B4
:100050000C94DC030C94DF250C94DC030C94DC037F
:100060000C94DC030C94DC030C94DC030C94DC0394
:100070000C94DC030C94DC030C94DC030C94DC0384
:100080000C94DC030C94DC030C94DC030C94DC0374
:100090000C94DC030C94DC030C94DC030C94DC0364
:1000A0000C94DC030C94DC030C94DC032509250977
:1000B00054095409E709030A290B290B0E0A820A7D
:1000C000930A930A4B1165116B1115121512A311A6
:1000D000AF11BE111512C611151215121512CE113F
:1000E0001D144414F9154414F9159014B314F9159A
:1000F000B415C4150E220E222122212217222122FC
:10010000212221220E220E221C22212221221C2207
:1001100000047F3F1F643214643214783C1E1E14A6
:100120000A05FD377A585A000004E6D6B4460200A4
:10013000210116000000742FE5A3E0016200C75DF5
:10014000003D8889C65436C3174FE4E456AF424E8B
:100150005F70354F87F2C6D8CB1D3A79EDC595CD86
:10016000832D03F51C7F02C0104550DDEEBD7D419F
:10017000D123E49AD9C4C89E5D9F6C97A4C71DD2B1
:10018000B3306107ECF923F219085164F09764B4B5
:10019000A14E6DCF5DE8B366963CB6DB013A2DC843
:1001A0002DBD0CDF05C2BC951A2729D35A0EEF20AE
:1001B000D03B7F6E01B142750C28707CD91256A2DB
:1001C00019BB7CFA61F06D53A6534A047DC8CDBFBC
:1001D000C90100C4C014501E692F4EDE02BB8CFF43
:1001E0003890959F91E08C786326AD3C3CA4BA236F
:1001F00086FFB2F25543697AC83DBAB4CE26121CC6
:1002000046A4C1E688C4F94200007B426496B86CFB
:10021000FA680001E301E3020000F9AEABA9B1C442
:1002200067FB020000000004595A05010902A10100
:1002300085020901A10005091901290515002501FB
:10024000950575018102950175038101050109304C
:1002500009311581257F95027508810609381581B8
:10026000257F950175088106050C0A380215812540
:100270007F950175088106C0C005010980A101852F
:100280000319012AB700150126B7009501751081E1
:1002900000C0050C0901A101850419012AA002155D
:1002A0000126A002950175108100C005010906A173
:1002B000018506050719E029E71500250195087550
:1002C0000181020507190029EF1500250195F07538
:1002D000018102050819012905950575019102950D
:1002E0000175039101C00660FF0961A10109621552
:1002F0000026FF009520750881020963150026FF7E
:1003000000952075089102C005010906A1010507A5
:1003100019E029E71500250195087501810295016D
:10032000750881010507190029FF150026FF0095B2
:1003300006750881000508190129059505750191C3
:1003400002950175039101C009025B00030100A041
:10035000FA09040000010301010009211101000153
:100360002240000705810308000A09040100020376
:10037000000000092111010001222200070582036B
:100380002000010705030320000109040200010306
:1003900000000009211101000122BC0007058403AF
:1003A00020000A12010002000000086666306600A4
:1003B00000010203011C037600690061006C003A31
:1003C00000660036003400630032006200330063D0
:1003D0000000001A0350003300300020004B00657D
:1003E00000790062006F0061007200640000000E7E
:1003F0000350006100620069006C006500000004A9
:10040000030904FFAA7F5540000102030405060703
:100410000809131211100F0E0D0C0B0A14151617E4
:1004200018191A1B1C1D2223252628292A2C2D2F9A
:100430003032333536383A3B3D3E404243454749FA
:100440004A4C4E5051535557595A5C5E606264662F
:1004500068696B6D6F71737577797B7D7F8183853B
:1004600087898A8C8E90929496989A9C9E9FA1A33D
:10047000A5A7A8AAACAEAFB1B3B4B6B8B9BBBCBE61
:10048000BFC1C2C3C5C6C7C9CACBCCCDCED0D1D2DD
:10049000D2D3D4D5D6D7D7D8D9D9DADADBDBDBDCDF
:1004A000DCDCDCDCDDDDDDDDDCDCDCDCDCDBDBDB8B
:1004B000DADAD9D9D8D7D7D6D5D4D3D2D2D1D0CEEB
:1004C000CDCCCBCAC9C7C6C5C3C2C1BFBEBCBBB9F0
:1004D000B8B6B4B3B1AFAEACAAA8A7A5A3A19F9E6E
:1004E0009C9A98969492908E8C8A89878583817F36
:1004F0007D7B79777573716F6D6B69686664626017
:100500005E5C5A5957555351504E4C4A49474543E2
:1005100042403E3D3B3A3836353332302F2D2C2A7F
:1005200029282625232214001A0008001500170088
:100530001C00180004001600070009000A000B0048
:100540000D001D001B000600190005001100100021
:100550000C00120013000E000F002D433600370070
:10056000000000000000000000000000000000008B
:100570000000000000000000000000010101010176
:10058000010101010202020202020202020303034C
:10059000030303030304040404040404050505051C
:1005A00005060606060607070707070808080809DC
:1005B0000909090A0A0A0B0B0B0C0C0C0D0D0D0E88
:1005C0000E0E0F0F0F10101111111212131314141D
:1005D000151516161717181819191A1A1B1B1C1D92
:1005E0001D1E1E1F202021222223242425262627EB
:1005F0002829292A2B2C2D2D2E2F3031323233341D
:1006000035363738393A3B3C3D3E3F404142434422
:1006100045464748494A4C4D4E4F50515354555604
:1006200058595A5B5D5E5F616264656668696B6CB0
:100630006D6F7072737577787A7B7D7E808283852B
:1006400087888A8C8E8F91939596989A9C9EA0A26B
:10065000A3A5A7A9ABADAFB1B3B5B7BABCBEC0C275
:10066000C4C6C9CBCDCFD1D4D6D8DBDDDFE2E4E739
:10067000E9EBEEF0F3F5F8FAFDFF000000000000F2
:10068000000000000000000000000000000000006A
:1006900000000000000000000000000000007E0FCD
:1006A00000D4FFFFFFC7000000780000000000003A
:1006B00000002A2B280000000000000000000000BD
:1006C000000000000029000000002C1E3420212220
:1006D00024342627252E362D3738271E1F20212289
:1006E000232425263333362E37381F040506070802
:1006F000090A0B0C0D0E0F101112131415161718F2
:10070000191A1B1C1D2F3130232D3504050607082F
:10071000090A0B0C0D0E0F101112131415161718D1
:10072000191A1B1C1D2F3130354C11241FBECFEF61
:10073000DAE0DEBFCDBF04B603FE27C08091B70369
:100740009091B803A091B903B091BA038730904B50
:10075000A740B04BD1F41092B7031092B803109297
:10076000B9031092BA0314BE84B7877F84BF0FB653
:10077000F894A89580916000886180936000109241
:1007800060000FBEE0E0F8E3099511E0A0E0B1E001
:10079000ECE5FFE502C005900D92AA39B107D9F743
:1007A00023E0AAE9B1E001C01D92A73BB207E1F73F
:1007B0000E94C80B0C94AC2F0C9400008F929F9257
:1007C000AF92BF92CF92DF92EF92FF920F931F935F
:1007D000CF93DF93CDB7DEB729970FB6F894DEBF7E
:1007E0000FBECDBFFC018081918123813481232BF9
:1007F00031F09F3F31F491E08F3F19F403C091E055
:1008000001C090E090FDB1C77F0185E0DE01119647
:1008100001900D928A95E1F7D70112962C9189816A
:100820009A81222349F00E94BD21182F682F8981C7
:100830009A810E94F62303C00E94C623182F698163
:100840007A81812F0E9419298C01F70182818111FF
:1008500006C0D70112968C9181113EC02FC780919E
:100860000D0190910E010196A1F35AEEC52E52E0B2
:10087000D52EA12CB12C9924939480910D019091A7
:100880000E018A159B052CF3F60186818823E9F079
:10089000818592850817190739F48091E8029091B3
:1008A000E9020817190789F0D6011F969C921F9735
:1008B0001C961C930E931B97C6010E942527C60108
:1008C00006960E94DE261092E702BFEFAB1ABB0A23
:1008D000E6E1CE0ED11CD1CFC80182519F45409791
:1008E00008F07DC08FEF93E00E94992E8111D1C650
:1008F0004EEED42ED00E0BE112E0DD2071F001158A
:10090000F4E01F0709F4C5C6C8010E94992E8111A1
:1009100001C0DA940F5F1F4FF0CF1E821F8218862E
:100920001986AA24AA9468012FEFC21AD20AC80114
:100930000E94992E8E831F82882309F4AAC68130D3
:1009400009F048C0480182E0880E911CC6010E944F
:10095000992E8F83882309F49CC69FEF980F9330BC
:1009600060F4680193E0C90ED11CC4010E94992E65
:10097000888781112FC08601D6CF843011F06401A1
:10098000FACFC4010E94992EB82E6801A4E0CA0EC5
:10099000D11CC80103960E94992EBB2009F479C688
:1009A000882309F476C6282F30E021503109A29E11
:1009B000A001A39E500D11248B2D90E00197840F70
:1009C000951F0197C0F2EFE9FFE03197F1F700C002
:1009D0000000F7CFCE0106960E94F22DCCCF003159
:1009E0002FE5120731F001318FE5180789F482E015
:1009F00001C081E00E9433240E942A134AC6680184
:100A000097E5D91AAFEFCA16D10409F008F465C604
:100A1000C80197558F3F910511F008F053C0209100
:100A20000D0130910E012817390724F490930E011F
:100A300080930D01D70112962C91129736E1389FC1
:100A40005001399FB00C1124F501E651FD4F6F01A3
:100A5000208B12969C918681992351F112870187F0
:100A60008F5F86830E941426D6011E969C938E93D8
:100A70001D9780914C0217968C9317979091E702DF
:100A80008091E602892B18968C931897ED91FC9132
:100A90001197309741F054966D917C915597C5010F
:100AA00080519D4F09951093E9020093E8020AC016
:100AB000882341F08189882329F0C50180519D4F09
:100AC0000E94DE26D70112968C91882369F0C80116
:100AD000815E9C45059740F46FE1600F6093A00133
:100AE0008CE090E00E94AD2E17FFAEC0F70182812E
:100AF000882309F4A9C00E94D2268695817080932C
:100B00009E010E94D226817080939D018091A00158
:100B1000813039F480919E01882319F089E30E9485
:100B200023258091E60280939C011092E602809139
:100B3000A001813071F048F08230A1F0843029F5B5
:100B400086EE0E94232588E11EC082EE0E94AB241F
:100B50001CC088E193E00E94672E88E193E00E9428
:100B60004D2E13C080919D01811103C083E50E9429
:100B7000232582EE0E94AB248FE39CE90197F1F7D5
:100B800000C0000087E50E942325AFE3BCE9119770
:100B9000F1F700C000005801E894B7F82CE0C22E2D
:100BA000D12C3AE0832E912CC5010C2C02C09695D5
:100BB00087950A94E2F78F709091A001923069F4C2
:100BC0008A3038F490E00996B4010E940B2F875ABE
:100BD00001C086500E94232509C096EF980F9630D9
:100BE00010F0805D01C0895A0E948C2DB4E0CB1AB0
:100BF000D108ECEFCE16EFEFDE06B1F68091A00142
:100C0000813059F030F0823089F08430C9F488E2C4
:100C100015C082EE0E94792413C08CE20E94232525
:100C200080919E01882361F089E308C082EE0E94D2
:100C3000792480919D01811103C083E50E942325C1
:100C400080919C018093E602033FFCE51F0759F168
:100C500090F4083D8CE51807E9F0093D9CE519077B
:100C6000A1F1073DACE51A07B1F506E221EE41EE30
:100C700067ED7CE514C0053FBCE51B0701F1C8F03A
:100C8000063FFCE51F0739F507E225EE46EE66EF65
:100C90007CE505C007E225EE45EE68ED7CE5C70181
:100CA0000E944A27F6C406E221EE40EE63EF7CE59F
:100CB000F6CF07E225EE44EE64EF7CE5F0CF06E2E6
:100CC00021EE42EE65EF7CE5EACF08E221E045EE59
:100CD00069ED7CE5E4CFD70112968C91882309F465
:100CE0003EC11092E5020330BDE51B0758F40A3FF0
:100CF000ECE51E0760F4C80182509C45449708F05B
:100D000018C105C00136FDE51F0709F012C10E9498
:100D1000191B9093A6038093A50300312CE51207BD
:100D200009F4CAC008F041C008309CE5190709F46D
:100D3000A4C0F0F40430BCE51B0709F48CC068F4CF
:100D40000230FCE51F0709F482C003301C4509F09E
:100D5000E7C08091A5038260E1C006308CE51807EA
:100D600009F483C008F085C08091A5038860D6C0CF
:100D70000C30ACE51A0709F490C068F40A30ECE5D1
:100D80001E0709F47EC008F084C00E9442248091AE
:100D9000A5038068C3C00E302CE5120709F481C09A
:100DA00008F086C08091A50394C00C3F9CE519070C
:100DB00009F47BC038F50431BCE51B0709F49AC07F
:100DC00058F40231FCE51F0709F47AC008F07EC030
:100DD0008091A5038F7BA2C00A3F8CE51807F1F133
:100DE00008F03FC005311C4509F09AC08091A50369
:100DF00082FB222720F991E0922790FB82F990FB59
:100E000083F98CC00115BDE51B0709F467C050F4D8
:100E10008091A6030E3FFCE51F07C1F108F05BC0FF
:100E20008D7F65C002308DE5180709F471C008F4A4
:100E30006DC001361D4509F073C08091A50384FB88
:100E4000222720F991E0922790FB84F967C08091D6
:100E5000A503816063C08091A50316C08091A6039D
:100E600016C08091A603826042C08091A503806174
:100E700055C08091A503806251C08091A503806414
:100E80004DC08091A5038860846048C08260816005
:100E90002EC08091A5038E7F41C08091A5038D7FD8
:100EA0003DC08091A503877F39C08091A60314C0FF
:100EB0008091A5038F7E32C08091A5038F7D2EC0C7
:100EC0000E9442248091A5038F7728C08091A503BA
:100ED000877F8B7F23C08D7F8E7F09C08091A60383
:100EE000982F909591708E7F892B90FB81F980933C
:100EF000A60316C00E9442248091A50387FB2227E7
:100F000020F991E0922790FB87F908C061E001C0C9
:100F100060E08EE090E00E94AD2E02C08093A503B9
:100F20008091A5039091A6030E940C1B0E9442246D
:100F3000B0C38091E6020631BCE51B0709F58A7A49
:100F400091E009F490E090939F01882311F065E30C
:100F500001C069E28DEE91E00E9471260EC006315B
:100F60001C4509F026C180919F01882309F4FBC329
:100F700065E38DEE91E00E9449260E94B81B89C36B
:100F800082720C3CBCE51B0709F4C2C008F045C0E6
:100F9000063CFCE51F0709F4A7C0D8F4033C9CE518
:100FA000190709F497C030F4023CBCE51B0709F4AB
:100FB0006CC0CEC0043CECE51E0709F490C0053CB3
:100FC000FCE51F0709F0C4C04BEB59E264EC79E281
:100FD000A3C0093C2CE5120709F490C078F4073C43
:100FE000ACE51A0709F485C0083CBCE51B0709F00D
:100FF000AFC04FEA59E263EA79E28EC00A3CECE501
:101000001E0709F480C00B3CFCE51F0709F0A0C0D7
:1010100049EF59E26AE07AE27FC0013D2CE5120710
:1010200009F486C0A0F40E3C9CE5190709F47AC0C7
:1010300008F475C00F3CBCE51B0709F476C0003D01
:10104000ECE51E0709F084C06EE089E079C0043D3C
:10105000FCE51F0709F472C068F4023D8CE518072F
:1010600009F469C0033D9CE5190709F071C061E00E
:1010700088E16BC0053DACE51A0709F464C00D3585
:10108000BDE51B0709F405C363C08091B60280FF6C
:101090001BC08E7F8093B6026091B6027091B7023A
:1010A0008091B8029091B9020E94E72910925802EB
:1010B000EFEFF0E722E0E150F0402040E1F700C020
:1010C00000000E94881EE5C281608093B60261E044
:1010D00086953BC046E55AE26FE57AE21DC04FE5D2
:1010E0005AE266E57AE218C044EC59E26BEB79E229
:1010F00013C043EA59E26FEA79E20EC04BE859E2C5
:1011000067E979E209C047E959E26BE879E204C08E
:101110004AE05AE269EF79E20E946C1EBAC261E0CD
:1011200081E013C065E082E00BC068E086E008C0A3
:1011300064E18FE005C067E185E102C062E289E118
:101140000E945A1EA6C261E083E20E941B2AA1C22D
:101150000A358DE5180741F150F40115ACE51A0781
:10116000A9F00E3D1C4529F50E94351B92C20B3596
:10117000EDE51E07D9F00C351D45D9F48091A60385
:1011800082FB882780F991E0892711C00E944224C0
:101190002FEF84E39CE0215080409040E1F700C0B5
:1011A00000000E94CE2575C281E001C080E00E944F
:1011B000321CF701828100811181882349F0C80126
:1011C0000E94BD21D82E682FC8010E94F62304C0BA
:1011D000C8010E94C623D82EB8018D2D0E9419295E
:1011E0000E9472198C01A82EF701D280C580C2948A
:1011F0009FE0C922809148028770B9F0DD20A9F0F4
:10120000812F807F803421F080E2800F883068F069
:101210008091A60382FD09C082E00E94151C809186
:1012200048028770BB24B3948111B12C912E929403
:101230008FE09822892D90E08C30910508F009C24A
:10124000FC01EA5AFF4F0C94412F812F807F1F70C1
:10125000882311F01295107FDD20B9F0112309F4D5
:10126000E5C180E2800F883010F0A11006C08091A7
:10127000E602182B1093E60205C08091E702182BB6
:101280001093E7020E94B81BD1C1802F0E947924DD
:10129000112309F4DEC1005E812F083068F1AA2015
:1012A00059F10E94AA1B2AC0812F807F1F708032B3
:1012B00011F01295107FAA2029F0F1E0AF1609F481
:1012C0005EC069C08091A60382FF1BC0DD2069F06B
:1012D000112339F08091E602182B1093E6020E9448
:1012E000B81B80E00E94AB24B4C180E00E94792446
:1012F000112309F4AEC1812F0E94B11B0E94B81BBB
:10130000A8C1DD2031F1CC20F1F021E0C2120FC0E4
:1013100080914C02182B181709F49BC10E941426C7
:1013200090934B0280934A0210934C0292C185E045
:10133000C81209C00E949F1B809145021817C1F175
:101340001093450235C080914C02812B0E946F247E
:1013500080C1CC2051F091E0C9120DC08091E6020D
:10136000812309F476C10E945D1C0E949F1B812F7E
:101370000E9468246EC1A5E0CA12F7CF6AC1DD20C1
:1013800029F0B5E0BC1508F464C112C0E4E0EC1526
:1013900008F45FC1ECCFDD2069F0CC2049F0D70123
:1013A00015968C91159780FF41C18F7015968C937F
:1013B000812FCCCFCC20D9F2093309F047C1BFEF40
:1013C000E7EEF3E0B150E040F040E1F73DC1812F9E
:1013D00086958695837019F0813059F03AC1DD20E9
:1013E00019F0C801937002C080E090E00E94BC2612
:1013F00036C1DD2019F0C801937002C080E090E092
:101400000E94A6262CC1802FDD2019F00E941D2CE1
:1014100002C00E94562B0E942C2B21C1812F837069
:10142000A9F5D1101AC1402F429546954770440F37
:10143000440F802F8F7090E09C01042E01C0220F7A
:101440000A94EAF704FF08C08FE090E001C0880F1B
:101450004A95EAF7809501C080E0169516951370BD
:10146000123069F088F490914D02113019F0822BFE
:10147000892302C0922B892B0E943E24EEC0822B2E
:1014800090914D028927F8CF822BF6CFDD2019F0FD
:10149000812F817001C08695882309F4DEC0402F1A
:1014A000429546954770440F440F802F8F7090E00F
:1014B0009C01042E01C0220F0A94EAF704FF08C021
:1014C0008FE090E001C0880F4A95EAF7809501C04F
:1014D00080E0169516951370123059F078F49091BB
:1014E000EC01113019F0822B892309C0922B892B32
:1014F00006C0822B9091EC01892701C0822B0E94AB
:101500002324ABC01F70DD2039F0812F0E943324CB
:10151000802F0E946F24A1C0802F0E946824812FF9
:101520000E9427249AC0802F22EFA21689F12A1543
:1015300038F090EFA91659F0A1EFAA1611F171C079
:10154000B3EFAB1661F1E4EFAE16B9F06AC0DD207F
:1015500079F0F4E0FC1508F47CC01F7181E090E0A4
:1015600001C0880F1A95EAF79091EC01892721C0F4
:1015700025E02C1508F46DC0F0CF8091A60382FF02
:101580001BC0DD2039F0812F8F710E94332461C090
:10159000DD20C9F3812F8F710E9427245AC0DD20DE
:1015A00039F01F7181E001C0880F1A95EAF701C078
:1015B00080E00E9423244DC0DD20D9F080914502B7
:1015C0000E94B11B809148028770843039F40E94D8
:1015D0000E1C812F8F710E9427246EC084E08C1511
:1015E00008F46AC01F71812F0E94332463E0812FA9
:1015F00011C09091E60280914502892B8093E6020A
:1016000094E09C1550F40E940E1C0E945D1C64E046
:10161000812F8F710E94471C4FC081E00E94151CD2
:101620004BC0DD2029F0CC2009F4ADCF802F5ACE5D
:10163000CC2009F4AFCF893349F4AFEFB7EEE3E044
:10164000A150B040E040E1F700C00000802F0E94B0
:10165000792488EF890D843010F40E94D226BB20B3
:1016600009F483C08091480280FD7FC0D7011296A3
:101670001C928595859585950E943324C7010E940B
:10168000DE03809148028595859585950E942724E3
:101690006CC080914802877009F467C0D701129628
:1016A0008C91882309F461C08091A60382FD5DC0FE
:1016B00082E00E94151C59C0B12CCFCF0031FFE54C
:1016C0001F0721F481E00E94272496C901312FE5EC
:1016D000120709F094C982E0F6CF65ED72E08C2D17
:1016E0000E94CD27892B09F093C986E18C9DF001DA
:1016F0008D9DF00D1124E651FD4F86818130E1F47E
:101700008091D5029091D602892B09F481C98091EC
:10171000D7029091D802892B09F47AC98091D90215
:101720009091DA02892B09F073C98091DB029091C4
:10173000DC02892B59F06CC9823009F069C98091AB
:10174000D9029091DA02892B09F462C926E12C9D15
:10175000C0012D9D900D112486519D4FFC01108AD2
:101760000E94252755C969E204CC29960FB6F89442
:10177000DEBF0FBECDBFDF91CF911F910F91FF90C4
:10178000EF90DF90CF90BF90AF909F908F90089593
:10179000CF93DF93CDB7DEB7E4970FB6F894DEBFF3
:1017A0000FBECDBF84B7877F84BF0FB6F894A895CE
:1017B00080916000886180936000109260000FBE8D
:1017C00090E080E80FB6F8948093610090936100F8
:1017D0000FBE85B7806885BF85B7806885BF81E10A
:1017E00098E190939B0180939A010E9435290E9471
:1017F0005B160E947A168091E20084608093E2007A
:1018000078948091E2018823A1F01091E9001F7083
:101810009091EC00892F817090FD80E8182B109238
:10182000E9008091E80083FD0E9435131F7010933A
:10183000E90082E084BD93E095BD9AEF97BD809367
:101840006E000E94411E811102C00E94321E07E2FA
:1018500011E05DE2E52E51E0F52ED8018D918D016C
:101860008F3F11F00E945618E016F106B1F70DE215
:1018700011E044E3E42E41E0F42EF80181918F0160
:101880008F3F11F00E945618E016F106B1F786E07E
:10189000E7EBF1E0DF01282F1D922A95E9F7E4EA52
:1018A000F1E0DF011D928A95E9F70E942A1B811160
:1018B00002C00E94351B82E090E00E94992E809326
:1018C000AE010E94191B9093A6038093A5030E946A
:1018D0006D18BFEFE6E7F1E0B150E040F040E1F70E
:1018E00000C000000E946D188091B70180FF08C001
:1018F0006FEF7FEF80E090E00E94CB2E0E94CE251C
:1019000083E090E00E94992E0E943E248CE090E0BB
:101910000E94992E90E0A0E0B0E08093A001909307
:10192000A101A093A201B093A3018091AA0181110A
:1019300033C00E942A1B811104C00E94351B0E94E3
:10194000692A88E090E00E94A12E6093B60270930D
:10195000B7028093B8029093B9026E7F71F40E942F
:10196000692A88E090E00E94A12E6093B6027093ED
:10197000B7028093B8029093B9020E94CD291092C9
:1019800058028091B60280FF04C060E086950E94F4
:101990001B2A81E08093AA018091A503806880932F
:1019A000A5038091A5039091A6030E940C1B80E0E3
:1019B00091E090939D0380939C0328E1A22EB12C8B
:1019C00030E4532EDD24D394CC24C3948091E201DF
:1019D000853009F06FC000E112E18091E2018530AD
:1019E00009F053C08091E201843009F43DC01092A7
:1019F00058028091AC01811116C0C092AC01809157
:101A0000B602982F91709093AB018E7F8093B602AF
:101A10002FEF30E742E0215030404040E1F700C076
:101A200000000E94881E1092A0030FB6F894A8959B
:101A3000A09260000FBE5092600083B7817F8460E7
:101A400083BF83B7816083BF7894889583B78E7F87
:101A500083BF0FB6F894A895809160008861809349
:101A60006000109260000FBE8091E101882309F4AC
:101A7000B4CF0E946D18E7EBF1E081918111FDC4B4
:101A800081E0ED3BF807C9F7A8CF0E9442240E94ED
:101A9000D2261092AC018091AB01882349F080914D
:101AA000B60281608093B60260E086950E941B2A90
:101AB0000E94721E0E946D18882359F08FB7F89407
:101AC0004091A1035091A2036091A3037091A403DC
:101AD0008FBFE7EBF1E0AFEAB1E000E010E0302FBC
:101AE00021919D91922721F180E0FF24F394492FC9
:101AF0004F21D1F08BA73CA72F2181E009F480E092
:101B00008DA70E9414268160782F9FA78EA74BA5D2
:101B10005CA56DA58FA50E94B22CF801E155FE4F82
:101B20008081F826F08219C08F5FFF0C8730F9F6AC
:101B30000F5F1F4F0630110591F68FEF88AB89AB11
:101B40001AAA0E9414268160782F9CAB8BAB48A9FF
:101B500059A96AA98CA90E94B22C809158028823A5
:101B600009F493C080915702E091B602E695E81B14
:101B7000E0935302823059F4F0E0E25EFE4FE491CC
:101B80000E2F10E09BE1E92E9DE1F92E59C0863021
:101B900059F4F0E0E55EFE4FE4910E2F10E08BE08B
:101BA000E82E8DE1F82E4CC0893061F4E695F0E026
:101BB000E85EFE4FE4910E2F10E0B0E8EB2EB0E2AD
:101BC000FB2E3EC08F3061F4E695F0E0EB5EFE4FF9
:101BD000E4910E2F10E0A0E1EA2EA0E2FA2E30C030
:101BE000853159F4F0E0EE5EFE4FE4910E2F10E0E7
:101BF000FFEBEF2EFFE1FF2E23C08831A1F08332EF
:101C000049F4E0E1F1E005911491EEEBEE2EE0E213
:101C1000FE2E16C0843271F000ED17E079EDE72E4C
:101C20007CE1F72E0DC008E210E063E3E62E6FE1E1
:101C3000F62E06C004EF11E056EFE52E5EE1F52E1C
:101C400080915402882361F0109254020E9414265D
:101C500090935202809351021092560210925502B4
:101C60000E941426E0915102F09152028E1B9F0BAC
:101C70008F3F9F4750F40E0F1F1F10935202009387
:101C8000510281E592E0F701099586E0E1EBF3E08E
:101C90008E010F5F1F4FD80101900D928A95E1F7D9
:101CA0008090B3039090B403E090B503F090B60336
:101CB0001092B3031092B4031092B5031092B603BE
:101CC000811003C0992009F44FC08091AF03909117
:101CD000B0030E9405269C019091AB03992309F45F
:101CE000F4C32333310508F43FC09F3F19F09F5FD1
:101CF0009093AB03882061F00E94FD2B181414F41C
:101D000091E001C09FEF899F802D11248093B30340
:101D1000992061F00E94FD2B191414F491E001C088
:101D20009FEF899F802D11248093B4033091B303DA
:101D30003323D1F02091B4032223B1F045EB3403D7
:101D4000C0011124992319F09093B30302C0D092DB
:101D5000B30335EB2303C0011124992319F09093A9
:101D6000B40302C0D092B403E11003C0FF2009F411
:101D70004FC08091AD039091AE030E9405269C0157
:101D80009091AA03992309F4A5C32536310508F4D7
:101D90003FC09F3F19F09F5F9093AA03EE2061F030
:101DA0000E94DB2B1E1414F491E001C09FEF899F69
:101DB000802D11248093B503FF2061F00E94DB2B5E
:101DC0001F1414F491E001C09FEF899F802D11240E
:101DD0008093B6033091B5033323D1F02091B6033D
:101DE0002223B1F045EB3403C0011124992319F0EB
:101DF0009093B50302C0D092B50335EB2303C00125
:101E00001124992319F09093B60302C0D092B6031F
:101E10008091B30381110BC08091B403811107C07D
:101E20008091B503811103C08091B60381110E9496
:101E30002C2B8B829C82ED82FE8286E0F801A1EB46
:101E4000B3E001900D928A95E1F70E94D22690911D
:101E5000AD01891721F00E94D2268093AD018091B7
:101E6000E201843009F0B2CD83E08093E9008091F3
:101E7000E80082FFABCD8091E80085FF21C00E9481
:101E8000B21781111BC040E2E42EF12C480109C0B9
:101E90008091F100D4018D934D01B1E0EB1AF1086E
:101EA00069F08091E80085FDF3CF8091E8008B77A1
:101EB0008093E8000E94B217882399F391E001C053
:101EC00090E08091E8008B778093E800992309F4F3
:101ED0007DCDE090E102F090E2028981E114F1040D
:101EE00061F08E3F09F0A1C28A81833008F4C7C136
:101EF0008550833008F099C2C2C1893009F4F3C01B
:101F0000D0F4843009F477C050F48230A1F108F0A5
:101F100063C0813009F087C21A8289E035C28630F9
:101F200009F47BC008F46EC0873009F479C08830AA
:101F300009F4B8C078C2803109F43DC180F48D3015
:101F400009F4DCC028F48C3009F06DC280E137C19F
:101F50008E3009F4D6C08F3009F4FEC064C28231DD
:101F600009F42FC108F42AC1833109F454C18E3F0A
:101F700009F485C158C28A81823009F49DC2833038
:101F800089F0813009F04FC22FB7F8948091A103F6
:101F90009091A203A091A303B091A4032FBFBB8390
:101FA000AC832EC080911D0190911E01892B09F4F4
:101FB0003CC28091B7018B838091B8018C83809162
:101FC000B9018D838091BA018E838091BB018F838B
:101FD0008091BC01888729C28A81823009F023C29E
:101FE0006B817C818D819E810E94472F86E290E0EB
:101FF0000E94AD2E1AC24C816B818A810E94EB280F
:102000009D8361C22D813E813227232732274C8157
:102010006B818A810E94352808C20E946B2805C204
:102020008A818138B1F050F4803809F0FEC120E097
:102030004B816091B8028091B70231C0823859F16A
:10204000833809F0F2C120E04091B9026C818B81A4
:1020500026C060E08B810E941B2A9B818091B60282
:10206000911111C08E7F8093B60210925802EFEF4B
:10207000F0E722E0E150F0402040E1F700C000002E
:102080000E94881ED2C181608093B60260E086956E
:102090000E941B2ACAC18B818093BA02C6C10E94CA
:1020A000FE20C3C18A81813899F030F4803809F06C
:1020B000BCC18091B90268C1823891F0833809F0BF
:1020C000B4C18091B7028B838091B8028C83ADC17B
:1020D0008091B60280FF02C0869556C180E054C14F
:1020E0008091BA0251C16091B6027091B70280919D
:1020F000B8029091B9020E94E72997C1DA8285EE71
:1021000043C1EA80FB80FE24EF24FE246C80712C06
:102110003DE16316710408F088C14801C701855E7E
:102120009D4F9401201B310B2615370508F07DC10A
:1021300045EEE41641E0F40630F40E94992ED401F5
:1021400014968C9302C0F4011482FFEFEF1AFF0A79
:102150002FEF821A920AE2CF80911D0190911E0109
:10216000892B09F462C1EA80FB80FE24EF24FE245F
:102170008C80912C3DE18316910408F056C1380102
:10218000C701855E9D4F9301201B310B2815390532
:1021900008F04BC145EEE41641E0F40628F4D30103
:1021A00014966C910E94AD2EBFEFEB1AFB0AEFEF75
:1021B0006E1A7E0AE5CF0E94BD2737C185E08A836B
:1021C00034C1EA80FB80FE24EF24FE246C80712C55
:1021D000FDE16F16710408F028C14801C701879618
:1021E0009401201B310B2615370508F01EC124EA87
:1021F000E21621E0F20630F40E94992ED4011496E2
:102200008C9302C0F4011482FFEFEF1AFF0A2FEF44
:10221000821A920AE3CFEA80FB80FE24EF24FE2498
:102220008C80912C3DE18316910408F0FEC044EAB5
:10223000E41641E0F40608F0F8C084EA91E08E1953
:102240009F098815990508F4F0C03801C7018796E1
:102250009301201B310B2815390508F0E6C0A4EACC
:10226000EA16A1E0FA0620F4F30164810E94AD2E83
:10227000FFEFEF1AFF0A2FEF621A720AE7CFEA8127
:102280008E2F90E08E30910508F0CFC0FC01EE5902
:10229000FF4F0C94412F88E0EFE1F1E0DE019196D1
:1022A00001900D928A95E1F780E2D8011D928A95FE
:1022B000E9F784E0898388E0FE01B196DE01159696
:1022C00001900D928A95E1F7B0C088E08983DA82A7
:1022D0001B821C82AAC08C8190E0982F88272B81BA
:1022E000820F911D092E000CAA0BBB0B35E0880F45
:1022F000991FAA1FBB1F3A95D1F7AC01BD01405EE3
:102300005F4F6F4F7F4F481759076A077B0708F4E5
:102310008CC08830E1E09E07A105B10508F085C0BA
:102320004930F1E05F076105710520F048E051E0B8
:1023300060E070E0481B590BBC016E5D7E4FC80128
:102340000E94802E72C040E250E06FEF70E0C80142
:102350000E94A52F80911D018983EA8266C081E0D9
:1023600090E09093E2028093E10282E390E0909308
:10237000B6018093B5010E94142657C080911D01BB
:102380008983EA828091B5018B834FC040E250E09F
:102390006FEF70E0C8010E94A52F47C08B8181308C
:1023A00059F018F0823001F140C080E2D8011D924E
:1023B0008A95E9F788E038C08C819AE0F92E4E01C1
:1023C000B1E28B0E911CF4012F2D11922A95E9F7A1
:1023D000B4010E94CD278983F401DE011296019099
:1023E0000D92FA94E1F721C06C818AE0FE013596E6
:1023F000DE01919601900D928A95E1F7683070F4B4
:102400003AE0639FB001112465537E4F4AE050E0EB
:10241000CE0181960E94D12E80E001C08FEF89838A
:102420000E94352902C08FEF89838091E2018430B8
:1024300009F0CCCA8091E9008F702091EC00922FB6
:10244000917020FD90E8F92EF82A82E08093E9004F
:102450008091E80080FF0CC040E050E060E270E056
:10246000C8010E94E5178091E8008E778093E8000C
:102470008F2D8F708093E900A9CA09BD19BD09B4D9
:1024800000FEFDCF8091D8008F7D8093D800809191
:10249000E00082608093E0008091E00081FDFCCF4D
:1024A0000E9442249FEFA3ECB9E09150A040B040BD
:1024B000E1F700C0000091CA86E290E00E94992EE8
:1024C0001B821C821D828E83B0CF2D32314008F0DA
:1024D0000ECC4ACC2D32314008F05DCC99CC8091A5
:1024E000E40187FF11C08091E80082FD05C0809162
:1024F000E2018111F8CF11C08091E8008B770BC009
:102500008091E201882349F08091E80080FFF8CFB4
:102510008091E8008E778093E8000895982F973097
:1025200068F59093E900981739F07091EC002091CC
:10253000ED005091F00003C0242F762F50E021FDD4
:1025400002C09F5FECCF3091EB003E7F3093EB00F9
:102550003091ED003D7F3093ED003091EB00316024
:102560003093EB007093EC002093ED005093F0005B
:102570002091EE0027FDE5CF80E008958F708093D5
:10258000E90081E008952091EA013091EB012617DE
:10259000370748F06115710539F42091E8002E776E
:1025A0002093E80001C0B901FC0120E0611571052C
:1025B00079F18091E2018823F1F18530F1F1809188
:1025C000E80083FD3CC08091E80082FD2EC0809130
:1025D000E80080FFEBCF2091F3008091F20090E0C3
:1025E000922B6115710551F08830910538F42191D5
:1025F0002093F100615071090196F3CF21E0089713
:1026000009F020E08091E8008E778093E800CECF3B
:102610002111CFCF0AC08091E201882361F085307B
:1026200061F08091E80083FD0AC08091E80082FF9C
:10263000F2CF80E0089582E0089583E0089581E07C
:1026400008950895BC0184E00C94A425BC0183E0A6
:102650000C94A4258091EC01982F9670963011F47B
:10266000886001C0877F0C9423241F93CF93DF934E
:10267000CDB7DEB7AA970FB6F894DEBF0FBECDBFB9
:10268000E4EEF1E08CEE91E02091F10021938E17C1
:102690009F07D1F78091E501833009F463C030F4DE
:1026A000813071F0823009F49DC0B4C08A3009F4E1
:1026B00089C08B3009F46EC0893009F0ABC020C0EE
:1026C0008091E401813A09F0A5C08091E800877FFC
:1026D0008093E8008091E8019091E901892B21F431
:1026E00060E280EC91E003C060E080E090E070E0A8
:1026F0000E94C3128091E8008B778093E8008AC023
:102700008091E401813209F085C08091E8019091C7
:10271000E901009719F0029709F07CC08091E80068
:10272000877F8093E8008091E80082FD05C080915A
:10273000E2018111F8CF6EC02091F3008091F20088
:1027400090E0922B029731F48091F100813011F0EA
:10275000863021F48091F1008093BF018091E800E0
:102760008B7754C08091E401813A09F053C0809185
:10277000E8019091E901892B09F04CC08091E800B3
:10278000877F8093E8008091E80080FFFCCF8091F4
:102790000C0137C08091E4018132E1F58091E801BC
:1027A0009091E901892BB1F58091E800877F8093B2
:1027B000E8000E946F128091E60180930C010E9454
:1027C000422428C08091E401813221F58091E80003
:1027D000877F8093E8000E946F128091E7018093C9
:1027E000BE0118C08091E401813AA1F48091E80013
:1027F000877F8093E8008091E80080FFFCCF809184
:10280000BE018093F1008091E8008E778093E8000C
:102810000E946F128091E80083FFEBC18091E40178
:102820009091E501492F50E04A30510508F0E1C18F
:10283000FA01E059FF4F0C94412F803821F0823883
:1028400009F0D7C108C08091E0019091E10199237E
:1028500089F082600FC08091E8018F70873008F0A6
:10286000C8C18093E9008091EB0085FB882780F93F
:102870001092E9009091E800977F9093E800809390
:10288000F1001092F1007CC1282F2D7F09F0B1C119
:10289000882319F0823061F0ACC18091E60181306B
:1028A00009F0A7C1933009F080E08093E1012EC0C8
:1028B0008091E60181112AC08091E8018F702FEF8D
:1028C000280F263008F095C18093E9002091EB0095
:1028D00020FF1CC0933021F48091EB00806214C073
:1028E0009091EB0090619093EB0021E030E0A90122
:1028F00002C0440F551F8A95E2F74093EA001092F8
:10290000EA008091EB0088608093EB001092E90070
:102910008091E800877F8093E8000E946F1269C170
:10292000811167C11091E6011F778091E3008078E3
:10293000812B8093E3008091E800877F8093E800FB
:102940000E946F128091E80080FFFCCF8091E3002D
:1029500080688093E300111102C082E001C083E02F
:102960008093E20146C18058823008F042C1209134
:10297000E6013091E7012C3D53E0350779F583E01E
:102980008A838AE289834FB7F894DE01139620E0A8
:102990003EE051E2E32FF0E050935700E49120FF36
:1029A00003C0E295EF703F5FEF708E2F90E0EA304A
:1029B00010F0C79601C0C0968D939D932F5F243170
:1029C00049F74FBF8091E800877F8093E8006AE273
:1029D00070E0CE0101960E94C312C0C08091E80150
:1029E0009091E901432F552743305105B1F068F428
:1029F0004130510509F40CC14230510509F0F9C0CC
:102A00008BE590E0E8E4F3E057C04132510589F1ED
:102A10004232510509F43CC0ECC0C901992781300C
:102A20009105B9F070F082309105D9F0039709F063
:102A3000E0C0E5EBF3E0E4918E2F90E0E5EBF3E00E
:102A400038C0EFEFF3E0E4918E2F90E0EFEFF3E08A
:102A500030C0EFEEF3E0E4918E2F90E0EFEEF3E084
:102A600028C0E3EDF3E0E4918E2F90E0E3EDF3E096
:102A700020C08330910508F0BCC0880F991FFC016D
:102A8000E35CFE4F0190F081E02D89E090E014C0FE
:102A90008330910508F0ADC0FC01EE0FFF1FE95C2B
:102AA000FE4F0190F081E02DDC01AC5CBE4F8C91BB
:102AB00090E0009709F49DC02091E800277F2093C3
:102AC000E8002091EA013091EB012817390708F45A
:102AD000C90140E0009789F12091E201222309F425
:102AE0003DC02530D9F12091E80023FD37C0209169
:102AF000E80022FD2FC02091E80020FFEBCF40919D
:102B0000F3002091F20030E0342B009759F0283088
:102B1000310540F444914093F100319601972F5FC5
:102B20003F4FF3CF41E02830310509F040E02091DC
:102B3000E8002E772093E800CDCF4111CDCF0AC019
:102B40008091E201882351F0853041F08091E800C6
:102B500083FD04C08091E80082FFF2CF8091E800FD
:102B60008B778093E80045C0803809F042C080919F
:102B7000E800877F8093E8008091E3018093F10073
:102B80008091E8008E77C7CE811133C08091E60135
:102B90009091E7019927029764F58091E800877F7B
:102BA0008093E8001091E6011093E3010E946F12F8
:102BB000111106C08091E30087FD02C081E001C0D1
:102BC00084E08093E20142E061EC81E00E948E1299
:102BD00042E261EC84E00E948E1242E261EC82E00B
:102BE0000E948E1242E260EC83E00E948E1280917D
:102BF000E2018091E80083FF10C08091E800877FA8
:102C00008093E8008091EB0080628093EB0005C028
:102C100082E190E0E3EAF3E04FCFAA960FB6F89492
:102C2000DEBF0FBECDBFDF91CF911F9108951F92E0
:102C30000F920FB60F9211242F933F934F935F93F0
:102C40006F937F938F939F93AF93BF93CF93DF93B4
:102C5000EF93FF93C091E900CF708091EC00D82FE3
:102C6000D17080FDD0E81092E9008091F000877F5C
:102C70008093F00078940E9435131092E9008091BF
:102C8000F00088608093F000CD2BCF70C093E900F6
:102C9000FF91EF91DF91CF91BF91AF919F918F9174
:102CA0007F916F915F914F913F912F910F900FBE48
:102CB0000F901F901895E8EDF0E080818E7F808363
:102CC0001092E2001092DA001092E100A0EEB0E063
:102CD0008C9181608C9380818F77808319BCA7ED64
:102CE000B0E08C918E7F8C9380818F7E8083109258
:102CF000BD010895CF92DF92EF92FF920F931F9341
:102D0000CF93DF93C8EDD0E088818F7E8883E7ED95
:102D1000F0E080818160808384E082BF81E08093E5
:102D2000BD0188818E7F888302EE10E0F801108259
:102D30001092DA0081EEC82ED12CF6011082888123
:102D40008F77888388818068888388818F7D888356
:102D500019BC1092E2011092E3011092E10110926D
:102D6000E00190EEE92EF12CF70180818B7F8083CA
:102D700088818160888342E060E080E00E948E125A
:102D8000F60180818E7F8083F8018081816080835D
:102D9000808188608083F70180818E7F8083888135
:102DA00080618883DF91CF911F910F91FF90EF9009
:102DB000DF90CF9008951F920F920FB60F921124BB
:102DC0002F933F934F935F936F937F938F939F9333
:102DD000AF93BF93EF93FF938091E10082FF09C00F
:102DE0008091E20082FF05C08091E1008B7F80939B
:102DF000E1008091DA0080FF2AC08091D80080FF36
:102E000026C08091DA008E7F8093DA008091D9000D
:102E100080FF18C080E189BD82E189BD09B400FE50
:102E2000FDCF81E08093E2018091BD0181110FC04F
:102E30000E945B160E947A168091E2008460809363
:102E4000E20005C019BC1092E2011092BD01809110
:102E5000E10080FF17C08091E20080FF13C08091E5
:102E6000E2008E7F8093E2008091E2008061809397
:102E7000E2008091D80080628093D80019BC85E080
:102E80008093E2018091E10084FF30C08091E200F4
:102E900084FF2CC080E189BD82E189BD09B400FEB8
:102EA000FDCF8091D8008F7D8093D8008091E10084
:102EB0008F7E8093E1008091E2008F7E8093E2001C
:102EC0008091E20081608093E2008091E301882399
:102ED00011F084E007C08091E30087FD02C081E02B
:102EE00001C083E08093E2018091E2018091E100E2
:102EF00083FF27C08091E20083FF23C08091E1001F
:102F0000877F8093E10082E08093E2011092E301E9
:102F10008091E1008E7F8093E1008091E2008E7FBE
:102F20008093E2008091E20080618093E20042E0C1
:102F300060E080E00E948E128091F00088608093B3
:102F4000F000FF91EF91BF91AF919F918F917F9191
:102F50006F915F914F913F912F910F900FBE0F9006
:102F60001F9018952091E4003091E50095E640917E
:102F7000EC00842F817040FF23C08091E80080FD29
:102F80001DC08091E201882399F0853099F08091ED
:102F9000EB0085FD11C04091E4005091E50024173D
:102FA000350729F3915011F09A01E1CF84E008959B
:102FB00082E0089583E0089581E0089580E0089517
:102FC0004091E80042FFDDCF0895EF92FF920F930A
:102FD0001F93CF93DF937C018B010E94B217811165
:102FE00019C0E70101151105A1F08091E80085FDE8
:102FF0000AC08091E8008E778093E8000E94B217A3
:10300000882381F307C089918093F1000150110951
:10301000E9CF80E0DF91CF911F910F91FF90EF906A
:10302000089580E008959091A50392FF0DC0282F88
:103030002871283019F4877F846006C0282F2471F6
:10304000243011F48B7F886093FF0DC0282F2871E6
:10305000283119F4877E846106C0282F2471243119
:1030600011F48B7E88612091A60320FF0DC0382FBC
:103070003871383019F4877F816006C0382F31717C
:10308000313011F48E7F886021FF0DC0282F287108
:10309000283119F4877E816106C0282F21712131E2
:1030A00011F48E7E886194FD877E0895F894E82F50
:1030B000E295EF70F0E031A1282F2F7081E090E0D1
:1030C00001C0880F2A95EAF7982F9095932391A332
:1030D00092A1892B82A3789408955F926F927F9238
:1030E0008F929F92AF92BF92CF92DF92EF92FF9218
:1030F0000F931F93CF93DF9300D000D000D0CDB7B4
:10310000DEB7AE014F5F5F4F7A0186E0FA011192A0
:103110008A95E9F707E211E06A014DE2642E41E089
:10312000742EAA24A394B12C64E3862E61E0962E1B
:10313000F80180818F3F09F440C0F894E82FE295B0
:10314000EF70F0E021A18F70A50102C0440F551F60
:103150008A95E2F7CA01922F982B91A392A18095AC
:10316000892382A3789400C0EDE2F1E0512C31E094
:1031700021912F3F89F0A22FA295AF70B0E09096D9
:103180008C9190E02F7002C0959587952A95E2F773
:1031900080FD02C0832F01C080E0582A330F8E16B5
:1031A0009F0631F7F80180818F3F11F00E94561879
:1031B000F0EAFA95F1F7F60150820F5F1F4FFFEF2B
:1031C000CF1ADF0A6016710609F0B2CF46E050E070
:1031D000B70184EA91E00E94982F01E0009709F47A
:1031E00000E0892B89F086E0F701A4EAB1E00190C4
:1031F0000D928A95E1F781E0809350020E94142697
:1032000090934F0280934E02809150028823A1F048
:1032100080914E0290914F020E940526059760F022
:10322000E4EAF1E0A7EBB1E081918D9321E0EA3A85
:10323000F207D1F71092500280910D0190910E018A
:103240000196C9F110E036E1932E812F90E0209194
:103250000D0130910E01281739076CF1989EF0018D
:10326000999EF00D1124E651FD4FC288D388C114F8
:10327000D10419F428ECC22ED12C989E5001999EAD
:10328000B00C1124C50186519D4F7C01FC01868143
:10329000882379F0858596850E940526C816D9066B
:1032A00040F4C7010E942527C50180519D4F0E940F
:1032B000DE261F5FCACF802F26960FB6F894DEBF9A
:1032C0000FBECDBFDF91CF911F910F91FF90EF9077
:1032D000DF90CF90BF90AF909F908F907F906F9036
:1032E0005F900895CF93DF938238910569F1B0F430
:1032F0008133910509F46FC048F48932910509F4CE
:1033000065C08A32910509F46BC08AC08533910586
:1033100009F457C089339105B9F082C0833E910505
:1033200071F138F4803E9105B1F0823E910511F1C2
:1033300077C0863E9105B9F1873E9105C9F1843E7B
:10334000910509F06DC024C02091A50320FD53C054
:1033500021FD51C065C08091A50380FD46C08091CC
:10336000A60380FF48C08091A50384FD50C183EE71
:1033700090E04FC18091A50382FF3AC0F4CF8091C5
:10338000A50382FD35C08091A60380FD34C0EBCF3C
:103390008091A60381FF35C08091A50384FD37C1CC
:1033A00087EE90E036C18091A50383FF27C0F4CF5C
:1033B0008091A50383FD22C08091A60381FD21C0D9
:1033C000EBCF8091A50385FD1FC021C08091A5038F
:1033D00085FD1DC019C08091A50386FD1BC01DC0C1
:1033E0008091A50386FD19C015C089E390E011C145
:1033F00082EE90E00EC180EE90E00BC186EE90E090
:1034000008C184EE90E005C189E290E002C185E345
:1034100090E0FFC08AE290E0FCC081E390E0F9C058
:10342000811531E5930708F069C0811540E59407DF
:10343000F0F09C0174E0369527957A95E1F7922F8C
:103440009370482F437021E030E002C0220F331FF9
:103450004A95E2F73C68392B982F9F709695969580
:1034600040E2949FC0011124822B932BD2C0883E4E
:10347000910568F5803E910508F0CBC0883A91052A
:10348000B8F4853A910548F0855AE82FF0E0ED5BF5
:10349000FE4F808190E09064BCC08130910509F4BA
:1034A000B3C008F4B4C08430910508F4B0C0B1C012
:1034B0008F3B910508F0ABC0885AE82FF0E0EE0F83
:1034C000FF1FEA5BFE4F808191819464A2C0811549
:1034D00020E2920758F4811531E0930708F099C073
:1034E000803F910508F493C0906593C0811540E436
:1034F000940708F48CC09F70906A8BC0811525E5F5
:10350000920708F042C0811534E5930728F0982F00
:103510008827846F906A7DC0811543E59407B0F0D9
:103520009C012370332741E050E002C0440F551F37
:103530002A95E2F7282F2695269580E2289F90016C
:103540001124CA01822B932B9A6863C0811522E54E
:10355000920728F4982F8827816F906A5AC09C019F
:103560002370332741E050E002C0440F551F2A95D5
:10357000E2F7282F2695269580E2289F90011124B6
:10358000CA01822B932B9C6844C0EC01811539E55C
:103590009307A8F48115984528F09C2F8827806F01
:1035A000906A37C0C11586E5D80788F58C2F0E9430
:1035B00013188F7190E0982F882790622AC0811588
:1035C0002AE5920790F48C2F8F700E94131894E0D4
:1035D000D695C7959A95E1F7CF70D0E0DC2FCC2730
:1035E000D0699E01282BC90114C0905681159042C4
:1035F00070F48D2F8F710E941318282F2F71CE0118
:1036000099279062922B05C081E090E002C080E093
:1036100090E0DF91CF910895CF93C92F682F84E078
:1036200090E00E94AD2E6C2F82E290E0CF910C943E
:10363000AD2ECF9384E090E00E94992EC82F82E2B5
:1036400090E00E94992E2C2F30E0A901582BCA013E
:10365000CF91089580E090E00E94A72E8A3E9E4F71
:1036600011F40C94411E80E008956AEE7EEF80E034
:1036700090E00E94CB2E60E082E090E00E94AD2EB0
:1036800060E083E090E00E94AD2E10924D0260E079
:1036900084E090E00E94AD2E60E082E290E00E9423
:1036A000AD2E60E085E090E00E94AD2E60E086E007
:1036B00090E00E94AD2E6FEF87E090E00E94AD2E6B
:1036C00040E050E0BA0188E090E00E94BF2E60E048
:1036D0008DE090E00E94AD2E40E050E0BA0188E11C
:1036E00090E00E94BF2E60E087E190E00E94AD2E46
:1036F00040E050E0BA018CE190E00E94BF2E60E013
:1037000070E080E290E00E94CB2E40E050E0BA01F1
:1037100088E190E00E94BF2E80E00E94141E0E946B
:10372000321E40E050E0BA018FE090E00E94BF2ED0
:1037300040E050E0BA0183E190E00C94BF2E80910C
:103740004C02882331F010924C0210924B021092DE
:103750004A02089580959091E70289238093E702B9
:10376000089580959091E60289238093E60208955A
:103770009091E6028091E702892B90914902892B72
:103780008093ED0180914C02882361F10E94142600
:1037900020914A0230914B02821B930B883893414F
:1037A00010F00E949F1B9091ED0180914C02892B9B
:1037B0008093ED0180910C01882331F08091A50365
:1037C00087FF02C08EE101C086E0EFEEF1E090E0FD
:1037D000815028F021912223D9F39F5FF9CF9111D5
:1037E0000E949F1BE0919C03F0919D033097A9F0EC
:1037F00080910C01882359F08091A50387FF07C0B1
:103800008091ED018093EE0186E08093ED010280CE
:10381000F381E02D8DEE91E0099408951092480215
:103820001092470210924602089520914802809516
:10383000822380934802982F977099F430E0482FA4
:10384000082E000C550B2417350759F09091A6034C
:1038500092FD07C08595859585950E9427240C9437
:103860000E1C08959091A60392FB222720F9281799
:1038700069F080FB92F99093A6038091A503909143
:10388000A6030E940C1B82E00C94151C08959091D5
:10389000A60392FD10C098E0899F90011124262B69
:1038A000209348020E9433240E94142690934702DA
:1038B0008093460208950C9433248091450281112F
:1038C0001092450208958091440290911302891745
:1038D00019F08F5F8770FBCF08950F931F93CF93DD
:1038E000DF938091120282958F7009F05DC0809104
:1038F0000F02882309F458C08091440210911302EA
:1039000060910D0270910E02C0911002D0911102CF
:1039100091E06F3F09F090E0292F06E0811709F44C
:1039200043C0209721F07F3F21F030E003C031E019
:1039300001C0322F90E030FD34C0089FF001099F94
:10394000F00D1124DF01AC5EBD4F11963C91119733
:10395000371327C03C91361324C012963C9112971E
:1039600031111FC013964D915C9114974C1B5D0B48
:10397000483C5105B0F4809112028F7080618093B1
:103980001202E75EFD4F80818F70806180838DE041
:1039900092E00E94DE03DF91CF911F910F910C9472
:1039A000631C01968770BACFDF91CF911F910F9161
:1039B00008950895CF93DF9300D000D01F92CDB724
:1039C000DEB79093E0028093DF02811520E2920738
:1039D00048F40F900F900F900F900F90DF91CF91C0
:1039E0000C94672E8EEF89838A8381E08B830E94FB
:1039F00014268160782F9D838C8349815A816B8145
:103A00008D810E94B22C0F900F900F900F900F900D
:103A1000DF91CF910895CF93DF93EC01E6EBF2E0D5
:103A2000438162818C810E940F2B8C818F5F8C83FC
:103A3000DF91CF910895CF93DF93EC01EC81F0E01B
:103A4000EA5DFB4F4491E6EBF2E0628181810E94E6
:103A50000F2B8C818F5F8C83DF91CF910895CF9353
:103A6000DF9300D000D01F92CDB7DEB79093E00275
:103A70008093DF02811520E2920748F40F900F90A7
:103A80000F900F900F90DF91CF910C944D2E8EEFF1
:103A900089838A831B820E9414268160782F9D83EC
:103AA0008C8349815A816B818D810E94B22C0F9049
:103AB0000F900F900F900F90DF91CF910895CF93BB
:103AC000DF93EC010E94DA1CCE01DF91CF910C94C0
:103AD0002F1D0F931F93CF93DF938C01EB0165EDA7
:103AE00072E08C2F0E94CD27892B09F06DC0DD2755
:103AF000F8018081813041F49185911115C0928542
:103B0000992391F082E010C0823049F4F801818558
:103B1000811107C08285811106C083E005C086E05F
:103B200003C085E001C084E0C353DD4F8883833048
:103B3000B1F028F4813071F0823031F045C084302A
:103B4000A9F0853079F140C08091D7029091D802D8
:103B50000097A1F58091D5029091D60220C0809166
:103B6000D9029091DA020097E9F028C08091DB0237
:103B70009091DC02009711F58091D5029091D602C8
:103B8000009749F00E945F1D8091D7029091D80262
:103B9000009781F013C08091D7029091D8020097CE
:103BA00099F00CC08091D5029091D602009761F0F7
:103BB0000E945F1D8091D5029091D602DF91CF9136
:103BC0001F910F910C94DA1CDF91CF911F910F91EF
:103BD00008950F931F93CF93DF938C01862F65ED8C
:103BE00072E00E94CD27892BD1F4C091D502D091EB
:103BF000D6022097A1F0F8018081833039F4CE01FC
:103C00000E945F1DCE010E945F1D02C0843038F00B
:103C1000CE01DF91CF911F910F910C945F1DDF9129
:103C2000CF911F910F910895CF93C82F811102C09A
:103C30006FEF01C067E483E290E00E94AD2EC111F6
:103C400002C06FEF01C068E384E290E00E94AD2EF5
:103C5000C11102C06FEF01C06CE685E290E0CF9128
:103C60000C94AD2E80E00E94141E60E086E290E08D
:103C70000E94AD2E0E946B280E94BD2781E00C940B
:103C8000141E83E290E00E94992E873481F484E22E
:103C900090E00E94992E883351F485E290E00E94D2
:103CA000992E91E08C3609F090E0892F01C080E0D8
:103CB000817008959091B60290FF04C09695981770
:103CC00040F003C0811105C090E0961710F40C94E9
:103CD0005F2A61E00C941B2A882311F0FA0101C0CD
:103CE000FB0109946091B602669570E04BE050E0EC
:103CF0008FE091E00E948B2F892B19F481E0809353
:103D000058020E9414269093520280935102089503
:103D10000F931F93CF93DF93CDB7DEB7CA55D10969
:103D20000FB6F894DEBF0FBECDBF8091B60280FF04
:103D30000AC008E014E09E012F5F3F4FAE01455AD4
:103D40005F4FB9010BC0ECE5F2E0118210821282E4
:103D5000339682E0E63BF807C1F7EBCFF801849198
:103D600090E0DC01AA0FBB1F8A0F9B1FDC01A45A45
:103D7000BD4F8D919D91AC91FB0181939193A19346
:103D8000BF010F5F1F4FE417F50741F7269A85B172
:103D90008F7B95B190646FB7F8942417350799F02D
:103DA000F90171919F01E8E095B9000000C077FF2B
:103DB00085B9770F000000C000C000C085B900C001
:103DC000EA9591F7EACF6FBF8FE594E00197F1F79D
:103DD00000C00000C65ADF4F0FB6F894DEBF0FBE1A
:103DE000CDBFDF91CF911F910F910895EF92FF9278
:103DF0000F931F93CF93DF938C01CCE5D2E0E12C9E
:103E0000F12CF8018481FFE0EF16F1041CF4882303
:103E100051F002C0811107C04091B902413508F04C
:103E200040E59E0102C09E0140E06091B802809191
:103E3000B7020E94792A8FEFE81AF80A23969EE1CA
:103E4000E916F104F1F60E94881EF801848190E0E1
:103E50000196817099278483DF91CF911F910F91F3
:103E6000FF90EF9008958F929F92AF92BF92CF9262
:103E7000DF92EF92FF920F931F93CF93DF93EC01AA
:103E80004C81042F10E09801D8010E94562F9B010D
:103E9000AC010E946C2F6B017C01E0E2F0E0E01BC2
:103EA000F10BA5E5B0E09B01AC010E946C2F4B012A
:103EB0005C019F01DF010E944E2F9B01AC010E941B
:103EC000772F9B01AC012C0D3D1D4E1D5F1DC501C3
:103ED000B4010E941F2F822FF22E99E2921728F030
:103EE00093E0299F900111240DC025E530E0281BA7
:103EF0003109C901880F991F280F391F37FF02C0E8
:103F00002F5F3F4F35952795122F10959CE5C92EB1
:103F100092E0D92E00E085E5E82EEF1801FD02C001
:103F20008E2D01C08F2D412F113508F040E59601EF
:103F30006091B8020E94792A0F5F83E0C80ED11CFD
:103F40000E3161F70E94881E8C81811102C091E0C0
:103F500003C0803219F49FEF90931C0190911C01D3
:103F6000890F8C83DF91CF911F910F91FF90EF907C
:103F7000DF90CF90BF90AF909F908F9008950F9358
:103F80001F93CF93DF93CCE5D2E0FE011182108224
:103F90001282339682E0E63BF807C1F700E010E0BA
:103FA00080915A02082E000C990B08171907ACF0E3
:103FB00080911B01082E000C990B801791076CF063
:103FC0004091B902413508F040E59E016091B80288
:103FD0008091B7020E94792A03C0198218821A823E
:103FE0000F5F1F4F23960E311105D1F60E94881ED8
:103FF00080911A0190915A02980F90935A02209141
:104000001B01280F20931B01121614F49D311CF084
:10401000819580931A01DF91CF911F910F9108959F
:10402000BF92CF92DF92EF92FF920F931F93CF93A5
:10403000DF93FC01828180FF03C0DD24DA9402C09B
:10404000DD24D3940CE512E0C0E0D0E02EE1B22EE6
:10405000F80111821082128294E0E92EF12CC12C19
:10406000809159028C0D8F312CF06B2D0E94E92E1E
:10407000892F02C087FD825E082E000C990BC8179D
:10408000D907A9F48091B9028E9DA0018F9D500D92
:1040900011245595479555954795413508F040E5CC
:1040A00098016091B8028091B7020E94792ACD0CE4
:1040B000F1E0EF1AF108A1F621960D5F1F4FCE3106
:1040C000D10531F60E94881E8091590291E0D912E3
:1040D00006C0811102C08DE107C0815005C090E08B
:1040E0000196BE010E940B2F80935902DF91CF9160
:1040F0001F910F91FF90EF90DF90CF90BF900895A8
:10410000EF92FF921F93CF93DF93EC018CE5E82EA3
:1041100082E0F82E10E04091B902413508F040E508
:104120008C8197016091B802810F0E94792A185FF3
:1041300083E0E80EF11C103F71F70E94881E9A81FF
:104140008C8190FF02C08F5F01C081508C83DF9112
:10415000CF911F91FF90EF9008959091B60290FF3C
:104160000CC0ECE5F2E0818360834283339692E0F9
:10417000E63BF907C1F70C94881E08950F931F932F
:10418000CF93DF9300D01F92CDB7DEB78C01809123
:104190005B0281110AC09E012F5F3F4F40E56FEF28
:1041A0000E94792A8A8180935B02F80184818130A0
:1041B00051F028F0823061F440915B020AC0809196
:1041C0005B0240E007C060915B0240E080E003C01A
:1041D00040E080E060E00E94AD20F801848190E042
:1041E000019663E070E00E940B2F84830F900F9084
:1041F0000F90DF91CF911F910F9108955F926F9271
:104200007F928F929F92AF92BF92CF92DF92EF9266
:10421000FF920F931F93CF93DF9300D01F92CDB7E0
:10422000DEB7082F762E142F622E9091B60290FFE3
:1042300074C0E92FE695AE2FB0E0AC58BE4F8C911C
:10424000809357029E7F923081F4413508F040E51B
:104250009E012F5F3F4F672D802F0E94792A4B814F
:1042600069818A810E94AD2046C0823019F4109184
:10427000B90241C0863019F40091B7023CC08930C0
:10428000D9F38931C1F5E9518E2F8170582EE69509
:10429000F0E0ED5FFB4FA590B4908CE5C82E82E076
:1042A000D82EE12CF12CBB249EE1892E912CAE9CC2
:1042B000C001AF9C900DBE9C900D1124B4010E94D2
:1042C000F72E802F511002C0860F01C0861B412F90
:1042D000113508F040E59601672D0E94792A8FEF8D
:1042E000E81AF80A83E0C80ED11C8EE1E816F10442
:1042F000F1F60E94881E0093B7027092B8021093E4
:10430000B902662051F06091B6027091B7028091B7
:10431000B8029091B9020E94E7290F900F900F9078
:10432000DF91CF911F910F91FF90EF90DF90CF9091
:10433000BF90AF909F908F907F906F905F90089507
:1043400080E090E00E94BC2680E090E00E94A626DB
:104350001092E702109249020E94B81BE1EBF3E0D1
:1043600086E0DF011D928A95E9F71092AB03109267
:10437000AA031092AC030C942C2BCF92DF92FF92E5
:104380000F931F93CF93DF936C010091EC01809109
:104390004D02082BC7E0D0E010E0C8010C2E02C08F
:1043A000959587950A94E2F780FD04C02197A8F7B8
:1043B000F12C09C0FC2EB6018C2F0E9419290E94F5
:1043C0007219019799F38F2DDF91CF911F910F9162
:1043D000FF90DF90CF900895CF93DF93EC010E9480
:1043E000BD21BE010E9419290E947219DF91CF914F
:1043F0000895FC01808191810E94EC21292F2F706A
:10440000E92FE295EF704E2F50E0FA013297EE302F
:10441000F105B8F4E658FF4F0C94412F803F99F016
:1044200018F4883E70F40FC0843F59F40CC0883EE5
:1044300050F0813F31F407C0822F8695869586958E
:10444000089580E0089581E008959F92AF92BF9211
:10445000CF92DF92EF92FF920F931F93CF93DF9350
:10446000CDB7DEB761970FB6F894DEBF0FBECDBFF4
:104470008C0185E0F801DE011D9601900D928A9570
:10448000E1F7F801E28090910D0260910E024091F7
:104490001002509111024115510531F06F3F31F476
:1044A00081E09F3F19F403C081E001C080E0F82F54
:1044B000F1709F2E80FD1AC1F80130812181C380E7
:1044C000D4808DE0A82E82E0B82EF0900F02F60185
:1044D000E41BF50BFF2009F4C6C080911202E83CF2
:1044E000F10508F091C0482F407F09F050C06213D9
:1044F00011C093130FC0FE2CE1100CC08F708061AF
:1045000080931202C5010E94DE0380911202F8011D
:10451000858329C1CD2831F02F3F31F481E03F3F21
:1045200019F403C081E001C080E080FD03C081E098
:104530008E2502C080E090E0F82FF170FF2E80FF02
:104540001CC0809144024091130256E0841709F484
:10455000E8C090E0589FF001599FF00D1124EC5EE7
:10456000FD4F6181261306C06081631303C0628121
:10457000E61203C001968770E9CFFE2CEE2009F405
:10458000F2C08091120281608093120249C06213CE
:1045900006C0931304C0E11002C0F80186C0C80130
:1045A0000E94F921882351F1EE2041F1209112025D
:1045B000822F82958F7090E0029774F080910D02A7
:1045C00090910E0298878F831986DB86CA862C8786
:1045D000CE0107960E94DE0386E0F801ADE0B2E06E
:1045E00001900D928A95E1F70E946D1C0AC0621736
:1045F000C9F0C8010E94F92181111EC0C8010E94A2
:10460000DE03FF24F394AFC0482F407F81F78DE095
:1046100092E00E94DE0386E0F50111928A95E9F7A7
:10462000F12CA1C09313E5CFE110E3CFF80185830E
:10463000C8010E94DE0354C0EE2001F32091120253
:10464000822F82958F7090E0029734F280910D0254
:1046500090910E029A8389831B82DD82CC822E8305
:10466000CE010196B7CFE83CF105D0F5FE2CEE2047
:1046700029F2621327C0931325C02091120220FD56
:1046800018C0822F82958F70482F50E04115510538
:1046900081F0F80125834F30510541F08F5F982F4D
:1046A0009295907F822F8F70892B8583C8010E94FD
:1046B000DE0386E0F801ADE0B2E001900D928A954C
:1046C000E1F751C0C8010E94F921811185CF809185
:1046D0001202816080931202C8010E94DE0343C06F
:1046E00086E0F50111928A95E9F73DC0EE2009F4C4
:1046F00085CFC8010E94F921F82E882309F47ECFC6
:1047000086E0F801ADE0B2E001900D928A95E1F704
:1047100080910D0290910E020E94EC210E946D1C6E
:1047200022C03D872E878D859E850E94EC21292FF2
:1047300022952F70223028F49F7039F0811105C026
:104740000BC0243028F49F7049F4805E883020F03C
:10475000C8010E94DE039F2CF92C05C0F801958149
:10476000907F99F7F9CF8F2D61960FB6F894DEBF41
:104770000FBECDBFDF91CF911F910F91FF90EF90B2
:10478000DF90CF90BF90AF909F9008959E3F61F1D2
:1047900027E0929F800D1124682F66956695669597
:1047A000982F977083E0689FB001112440E050E09B
:1047B00080E0FB01E40FF51FE554FD4F208130E060
:1047C000092E02C0369527950A94E2F72170332707
:1047D000042E01C0220F0A94EAF7822B4F5F5F4F2D
:1047E0004330510531F7089580E008959E3F51F11F
:1047F00027E0929F800D1124E82FE695E695E69537
:10480000877051E001C0550F8A95EAF783E0E89F71
:10481000F0011124E554FD4F20E030E070E04081CC
:10482000CB01022E02C0969587950A94E2F781701B
:10483000819584278523842781932F5F3F4F2330E1
:10484000310569F708958093EC010C94A02121E0D3
:1048500030E001C0220F8A95EAF720958091EC01A3
:1048600082230C94232421E030E001C0220F8A959A
:10487000EAF78091EC01822B0C94232480934D0263
:104880000C94A0211092E60280910C01882331F053
:104890008091A50387FF02C08EE101C086E0EFEEA4
:1048A000F1E0DF011D928A95E9F70C94A02188239D
:1048B00021F00E94AA1B0C94B81B0895882339F09C
:1048C0009091E702892B8093E7020C94B81B08951E
:1048D000882321F00E94B11B0C94B81B08958823F3
:1048E00039F09091E602892B8093E6020C94B81B74
:1048F0000895882379F19CEF980F913A30F4682F4E
:104900008DEE91E00E9449260DC090E2980F9830FC
:1049100058F4877091E001C0990F8A95EAF7892FC2
:104920000E94B11B0C94B81B9BE5980F933020F4A8
:1049300080E090E00C94BC2698E5980F973120F425
:1049400080E090E00C94A626803F20F00E94562B39
:104950000C942C2B0895CF93882309F472C0C82F90
:104960008CEF8C0F813AC0F580910C018823E1F027
:104970008091A50387FF18C0EC2FE695E695E69594
:10498000F0E0E351FE4F8281282F30E04C2F47703A
:1049900081E090E002C0880F991F4A95E2F78223D8
:1049A0009323892B61F412C0EFEEF1E085EF91E0E3
:1049B0002191C21721F08E179F07D1F707C06C2FE6
:1049C0008DEE91E00E9449260E94B81B6C2F8DEE5F
:1049D00091E00E94712610C080E28C0F883078F43C
:1049E000C77081E090E001C0880FCA95EAF7909106
:1049F000E602892B8093E602CF910C94B81BEBE57D
:104A0000EC0FE33040F4F0E0ED5BFE4F808190E08E
:104A1000CF910C94BC26E8E5EC0FE73150F4F0E0C0
:104A2000EE0FFF1FEA5BFE4F80819181CF910C94C6
:104A3000A626C03F30F08C2F0E941D2CCF910C94E5
:104A40002C2BCF9108951F93CF93DF93182F893389
:104A500019F0C0E0D0E002C0C0E5D0E0812F0E9494
:104A6000AB24209741F08FE99FE00197F1F700C058
:104A700000002197F6CF812FDF91CF911F910C94E9
:104A800079248091BF01089524E02093E9002FEF5D
:104A90003091E800215035FD06C035ED3A95F1F72B
:104AA00000002111F5CF2091E80025FF0BC040E068
:104AB00050E066E070E00E94E5178091E8008E7794
:104AC0008093E8000895CF93DF9320910C01222377
:104AD00039F02091A50327FF03C060E224E002C063
:104AE00068E021E02093E9002FEF3091E8002150A9
:104AF00035FD06C035ED3A95F1F700002111F5CFEF
:104B00002091E80025FF1DC0EC0180910C0181116E
:104B100005C040E050E068E070E003C070E040E0B5
:104B200050E0CE010E94E5178091E8008E778093D7
:104B3000E80080E2FE01A0ECB1E001900D928A95C0
:104B4000E1F7DF91CF9108958093A7037093A903B4
:104B50006093A8038091E2018430F9F48093E90026
:104B60008FEF9091E800815095FD06C095ED9A95E4
:104B7000F1F700008111F5CF8091E80085FF0DC0AD
:104B800040E050E063E070E087EA93E00E94E517C0
:104B90008091E8008E778093E800089587E797E793
:104BA00090930108809300089AE088E10FB6F8948A
:104BB000A895809360000FBE90936000FFCF78941B
:104BC0001F920F920FB60F9211248F939F93AF9362
:104BD000BF938091A1039091A203A091A303B091F0
:104BE000A4030196A11DB11D8093A1039093A2037C
:104BF000A093A303B093A403BF91AF919F918F9112
:104C00000F900FBE0F901F9018959C014FB7F8940E
:104C10008091A1039091A203A091A303B091A4035A
:104C20004FBF821B930B08952FB7F8948091A10377
:104C30009091A203A091A303B091A4032FBF089564
:104C40001F920F920FB60F9211248F939F93AF93E1
:104C5000BF938091A003811113C08091A103909113
:104C6000A203A091A303B091A4034196A11DB11D7D
:104C70008093A1039093A203A093A303B093A403F2
:104C8000BF91AF919F918F910F900FBE0F901F908A
:104C9000189520910C012223C9F02091A50327FF2C
:104CA00015C0262F2695269526952E31C8F4FC0191
:104CB000E20FF11D677081E090E001C0880F6A95F6
:104CC000EAF780959281892382830895FC010696F4
:104CD0002281621301C012823196E817F907C1F7E9
:104CE000089520910C012223C1F02091A50327FFF4
:104CF00014C0262F2695269526952E3130F5FC01D9
:104D0000E20FF11D677081E090E001C0880F6A95A5
:104D1000EAF79281892B82830895FC0132962FEF66
:104D200030E04191641789F02F3F19F4411101C01F
:104D3000232F3F5F3630A9F72F3F39F0FC01E20FF8
:104D4000F11D27FDFA9562830895089520919E0331
:104D500030919F032817390771F090939F03809338
:104D60009E03E0919C03F0919D03309721F0008415
:104D7000F185E02D0994089520919A0330919B03C9
:104D80002817390771F090939B0380939A03E09161
:104D90009C03F0919D03309721F00680F781E02D70
:104DA00009940895E0919C03F0919D03309721F0C0
:104DB0000190F081E02D099480E00895EF92FF9238
:104DC0000F931F93CF93DF93FC012285211136C0EF
:104DD000EC01E380F480F7E5FF1A26E12E9DC00187
:104DE0002F9D900D1124DC01A651BD4F1496ED911D
:104DF000FC91159780519D4F309729F054966D91F5
:104E00007C915597099586E18E9D80018F9D100DAF
:104E1000112406511D4FF80187810E94B11BF80132
:104E200080850E94AA1B0E94B81B188219861B86C7
:104E30001E821D821092E9021092E802DF91CF914A
:104E40001F910F91FF90EF900895CF93DF93FC0196
:104E5000218921111CC0EC0181E0818B9091E60237
:104E60008781892B8093E6029091E7028085892BC8
:104E70008093E7020E94B81BEA81FB81CE0106966F
:104E8000309729F06C897D89DF91CF910994DF916A
:104E9000CF9108950F931F93CF93DF93C42FD22FF9
:104EA000FC0182818823C9F04093E5020E94142608
:104EB0009093E4028093E30280E28C0F883008F044
:104EC00057C0C77081E001C0880FCA95EAF7DF912B
:104ED000CF911F910F910C946F248091E50248139C
:104EE00030C08091E3029091E4020E940526883C44
:104EF000910538F510E21D0FCD17B9F080E28C0F47
:104F0000883040F4C77081E001C0880FCA95EAF785
:104F10000E946824183028F581E09D2F977001C009
:104F2000880F9A95EAF70E946F24802F0E9423250C
:104F30001830F0F4D77081E001C0880FDA95EAF7F5
:104F40000AC080E28C0F883098F4C77081E001C0FD
:104F5000880FCA95EAF7DF91CF911F910F910C94BA
:104F60006824802FDF91CF911F910F910C942325FE
:104F7000DF91CF911F910F910895CF93DF93CBE1F4
:104F8000D2E060E0CE010E94AD2E2196C11584E0F2
:104F9000D807B9F7DF91CF910895883080F49B014D
:104FA000982F8AE0989FB001112465537E4F4AE004
:104FB00050E0C9010E94892E80E090E008958FEFB3
:104FC0009FEF08950F931F93CF93DF938C01EB0115
:104FD00065ED72E08C2F0E94CD27892B09F040C02F
:104FE000DD27C353DD4F8881F8011082188283309A
:104FF00079F048F4813041F1823091F58091D70207
:105000009091D80209C0843051F08530E9F028C071
:105010008091D9029091DA020097B1F01BC0809183
:10502000DB029091DC020097A9F42091D502309127
:10503000D6028091D7029091D8022115310541F016
:10504000009741F4C90106C08091D5029091D60223
:10505000009731F0DF91CF911F910F910C942F1D8C
:10506000DF91CF911F910F9108950F931F93CF93CD
:10507000DF93853058F5663048F5473038F521150F
:105080009CE5390731F4E0911D01F0911E01EF2BF1
:10509000E9F08901C42FD0E0CC0FDD1F9EE0699FAD
:1050A000C00DD11D112494E5899FC00DD11D11247F
:1050B000612FCE0187960E94AD2E602FCE0188967B
:1050C000DF91CF911F910F910C94AD2EDF91CF9175
:1050D0001F910F9108956F927F928F929F92AF923E
:1050E000BF92CF92DF92EF92FF920F931F93CF93D5
:1050F000DF93CDB7DEB72A970FB6F894DEBF0FBEA9
:10510000CDBFA0901D01B0901E0181E090E0909372
:105110001E0180931D01612CC12CD12C712CE12C1E
:10512000F12C00E010E046018E0C9F1CF801EE0F00
:10513000FF1FE80DF91DEA5DFA4F25913491402FCC
:10514000672D862D0E9435280F5F1F4F07301105F0
:1051500069F78EE0E80EF11C739486E07812E1CFD7
:1051600084E5C80ED11C639485E06812D7CF1A82FB
:1051700019821C821B821E821D8218861F8288EC67
:1051800090E09A8789870BEC11E04AE050E0B80183
:10519000CE0101960E94D12E065F1F4F0B3182E097
:1051A000180799F7B0921E01A0921D012A960FB61A
:1051B000F894DEBF0FBECDBFDF91CF911F910F914D
:1051C000FF90EF90DF90CF90BF90AF909F908F9027
:1051D0007F906F9008950F931F93CF93DF93853047
:1051E00008F56630F8F44730E8F4C42FD0E0CC0F6F
:1051F000DD1F2EE0629FC00DD11D112434E5839F79
:10520000C00DD11D1124CE0187960E94992E90E0E9
:10521000182F0027CE0188960E94992E9801282BDE
:10522000C90102C080E090E0DF91CF911F910F9102
:105230000895462F2091E1023091E202232B91F450
:105240007E3F39F46E3F71F48091DF029091E0026D
:105250000895853038F4763028F4673018F4672FD5
:105260000C94EB2880E090E008958F929F92AF928B
:10527000BF92CF92DF92EF92FF920F931F93CF9343
:10528000DF93CDB7DEB72A970FB6F894DEBF0FBE17
:10529000CDBF0AEE12E0E12CF12C89EEC82E8DE193
:1052A000D82E99E6A92E9DE1B92E22EE822E27E274
:1052B000922EF801D182C082B382A282958284822A
:1052C000F58AE48ABE016F5F7F4F8E2D0E94CD2745
:1052D000892B29F489859A85F801938B828BFFEFBE
:1052E000EF1AFF0A0A5E1F4F88E0E816F10409F77B
:1052F0002A960FB6F894DEBF0FBECDBFDF91CF91D7
:105300001F910F91FF90EF90DF90CF90BF90AF90E3
:105310009F908F900895E6EBF2E0438128E0421BD6
:1053200008F440E021E0628181810C94FE20E6EBEC
:10533000F2E0438128E0420F08F44FEF21E0628160
:1053400081810C94FE20E6EBF2E0628128E0621B92
:1053500008F460E021E0438181810C94FE20E6EBBB
:10536000F2E0628128E0620F08F46FEF21E04381F0
:1053700081810C94FE20E6EBF2E0818121E0438103
:10538000628188500C94FE20E6EBF2E0818121E0FE
:1053900043816281885F0C94FE208091B602282FA1
:1053A000269530E02115310519F48170826005C021
:1053B0002532310524F0817088648093B602809193
:1053C000B902813518F080E58093B9020895CF9233
:1053D000DF92EF92FF926B017C010E94CD29B70111
:1053E000A60188E090E0FF90EF90DF90CF900C94C2
:1053F000BF2E8091BA02882319F081508093BA029F
:105400006091B6027091B7028091B8029091B90292
:105410000C94E7298091BA02833018F48F5F80934F
:10542000BA026091B6027091B7028091B802909171
:10543000B9020C94E7299091B60290FF36C09170A2
:10544000811102C0926006C0853210F0986402C0DB
:10545000880F982B9093B602662351F06091B602A4
:105460007091B7028091B8029091B9020E94E72929
:105470006091B602669570E04BE050E08FE091E0FD
:105480000E948B2F892B19F01092580202C00E94A3
:10549000721E81E08093540220E04091B902609135
:1054A000B8028091B7020C94FE2008958091B60254
:1054B0008695815009F484E261E00C941B2A809166
:1054C000B60286958F5F853208F081E061E00C942A
:1054D0001B2AE6EBF2E083E0808311828FEF828368
:1054E00080E58383148260817181828193810C9431
:1054F000E729AF92BF92CF92DF92EF92FF920F9384
:105500001F93CF93DF93E82EF62EE901E42FF0E00E
:10551000611106C0E658FA4FE4914E2F2E2F71C04C
:10552000062F10E0E658FA4F4491F42FC42ED12CE8
:1055300026E0829FC00111242FEF30E0B9010E94C4
:10554000F72E5BEA5603C001579F900D11248E0D74
:10555000911D8E0D911D582F550F580FD901A01B6D
:10556000B10BAC9DC001AD9D900DBC9D900D112463
:10557000E92FF59ED0011124AB2FBB277901EA1A40
:10558000FB0AEC9CD001ED9CB00DFC9CB00D1124ED
:105590005901A51AB108A09E7001A19EF00CB09E01
:1055A000F00C1124EF2CFF242E193F092C9D8001B3
:1055B0002D9D100D3C9D100D1124212F6230710581
:1055C00091F048F461157105E1F061307105B9F4AD
:1055D000242F4B2F16C06430710569F040F06630FF
:1055E000710579F00CC0242F492FE12F0AC0492FF3
:1055F000EF2F2B2F06C0292FE42F412F02C0292F78
:10560000EB2F49832883EA83DF91CF911F910F917C
:10561000FF90EF90DF90CF90BF90AF900895CF9321
:10562000DF9300D01F92CDB7DEB79091B60290FF06
:105630000DC0413508F040E59E012F5F3F4F0E94AD
:10564000792A4B8169818A810E94AD200F900F9049
:105650000F90DF91CF9108950E9414262091B303FB
:10566000211104C02091B403222321F09093B003B0
:105670008093AF032091B503211104C02091B6039C
:10568000222321F09093AE038093AD03E0919C031D
:10569000F0919D03309749F082E08093B10304803C
:1056A000F581E02D81EB93E009940895803F39F472
:1056B0008091B40387FF6AC01092B40367C0813F32
:1056C00029F48091B4031816BCF360C09091B30321
:1056D000823F29F497FF5AC01092B30357C0833F0B
:1056E00019F41916CCF352C09091B503893F31F4E7
:1056F00019160CF04BC01092B50348C08A3F19F43C
:1057000097FF44C0F8CF8B3F39F48091B60387FFF1
:105710003DC01092B6033AC08C3F29F48091B60385
:105720001816BCF333C0843F21F48091B2038E7FFE
:1057300017C0853F21F48091B2038D7F11C0863F51
:1057400021F48091B2038B7F0BC0873F21F48091BD
:10575000B203877F05C0883F31F48091B2038F7E0A
:105760008093B20313C08D3F21F48091AC038E7FF0
:105770000BC08E3F21F48091AC038D7F05C08F3F1D
:1057800029F48091AC038B7F8093AC038091B303A9
:10579000811106C08091B403811102C01092AB0345
:1057A0008091B503811106C08091B603811102C0BA
:1057B0001092AA0308958091AC0380FD16C081FD6C
:1057C00016C082FD18C08091AA03882391F0883208
:1057D00090F428E0829FC001112468E270E00E94EA
:1057E0000B2F862F672B29F007C082E0089584E0F5
:1057F000089581E0089588E008958091AC0380FDCC
:1058000014C081FD14C082FD16C08091AB038823B3
:1058100081F0843180F422E3829FC001112464E18D
:1058200070E00E940B2F862F08958CE0089589E187
:10583000089585E0089582E30895803F21F40E9451
:10584000FD2B819504C0813F29F40E94FD2B80939C
:10585000B4030895823F21F40E94FD2B819504C07A
:10586000833F29F40E94FD2B8093B3030895893F61
:1058700019F40E94DB2B05C08A3F31F40E94DB2B18
:1058800081958093B50308958B3F21F40E94DB2B13
:10589000819504C08C3F29F40E94DB2B8093B603D2
:1058A0000895843F21F48091B203816017C0853F41
:1058B00021F48091B203826011C0863F21F480916F
:1058C000B20384600BC0873F21F48091B2038860EB
:1058D00005C0883F31F48091B20380618093B203A8
:1058E00008958D3F21F48091AC0381600BC08E3F01
:1058F00021F48091AC03826005C08F3F29F4809130
:10590000AC0384608093AC0308959C013A95211503
:105910003F4130F5BC0166277270AC0144275470DA
:105920009C012227387094FF0FC090FF02C080E1D5
:1059300001C080E0672B09F08062452B09F080648C
:10594000232B79F080680895892F8170672B09F0E7
:105950008260452B09F08460232B19F0886008953C
:1059600080E00895DF92EF92FF920F931F93CF9301
:10597000DF93CDB7DEB767970FB6F894DEBF0FBEE3
:10598000CDBF4B8B5C8B162F6D8B7E8B8F8B6111FC
:105990001092E702DE011D9686E0FD0111928A95C4
:1059A000E9F785E0FE01739601900D928A95E1F783
:1059B000DB880C89EE88FF888091A60382FD26C0D3
:1059C0000E9414262091460230914702821B930BBD
:1059D0008838934140F08091480282FB992790F9E2
:1059E00081E0892701C080E080FF03C082E00E943F
:1059F000151C0E94142620914A0230914B02821BF2
:105A0000930B8838934110F00E949F1BDD860E8710
:105A10001F87F98AE88A86E0FE013D96DE01179627
:105A200001900D928A95E1F7CE0107960E942522FA
:105A300081113EC086E0FE013796DE01119601908D
:105A40000D928A95E1F7FF81E8856A857B8561156E
:105A5000710531F0EF3F31F481E0FF3F19F403C0ED
:105A600081E001C080E080FD23C02091130230E07E
:105A7000C9010196877099274091440250E084172C
:105A8000950779F1F983EA837D836C8396E0929F91
:105A9000D001939FB00D1124AC5EBD4FFE01319635
:105AA00001900D929A95E1F7809313020E94631C76
:105AB00016E080914402909113028917F9F0189F23
:105AC000C00111248C5E9D4F0E9425228823B1F0D5
:105AD0008091440290E00196877099278093440258
