:100000000C946E030C94B5030C94B5030C94B503D7
:100010000C94B5030C94B5030C94B5030C94B50380
:100020000C94B5030C94B5030C94DC160C941816C0
:100030000C94A72B0C94B5030C94B5030C94B50346
:100040000C94B5030C94B5030C94B5030C94B50350
:100050000C94B5030C945A2B0C94B5030C94B50373
:100060000C94B5030C94B5030C94B5030C94B50330
:100070000C94B5030C94B5030C94B5030C94B50320
:100080000C94B5030C94B5030C94B5030C94B50310
:100090000C94B5030C94B5030C94B5030C94B50300
:1000A0000C94B5030C94B5030C94B503DF09F50962
:1000B000FB09330A440A4F0A5B0A6A0A0C0B710AED
:1000C0000C0B0C0B0C0B790A0310031033103310BC
:1000D000B810D410F311F311DF105311641164112F
:1000E0001E144514FA154514FA159114B414FA1592
:1000F000B515C515901E901EA31EA31E991EA31E06
:10010000A31EA31E901E901E9E1EA31EA31E9E1E17
:1001100000047F3F1F643214643214783C1E1E14A6
:100120000A05FD377A585A000004E6D6B4460200A4
:10013000210116000000742FE5A3E001AB00D35DA0
:10014000003D8889C65436C3174FE4E4589A4A3FA5
:10015000C20A7AEE5757119CD3EA8DFDB88D7BFE0B
:10016000EEBAF7A3930BFF3D2612832FAF32C8E5FB
:10017000DB4F0A43A5F92C492153E47669E89D2B0E
:100180001695472E0013CCD1B53DAB00D3D6841CB9
:10019000CBA71EA9404418D6D48635D0E3DE837E93
:1001A000500351209E37279FA2CB17EED2C4D21501
:1001B000C7D681FBD10DF775B32CEF0387A79B7DC5
:1001C000DFA011A72D0A0CDBDD53825DEA070236A2
:1001D000850BA7360F59EEBEE8C5788B9D6237CEEA
:1001E000129D323AB3F0052274AF52FF43F8331533
:1001F000BFBD52297619C6F65871D5923CCD99AB40
:1002000090E0D189337E154157DF8A7A6F7CED8E7D
:100210004D6132F70000981B9B508BED1B090001CC
:10022000EF01AC030000DE4CDC1CB1C467FB020034
:1002300000000004595A05010902A10185020901C3
:10024000A10005091901290515002501950575016C
:10025000810295017503810105010930093115817C
:10026000257F95027508810609381581257F95013E
:1002700075088106050C0A38021581257F950175E0
:10028000088106C0C005010980A101850319012A62
:10029000B700150126B700950175108100C0050C47
:1002A0000901A101850419012AA002150126A00255
:1002B000950175108100C00660FF0961A101096206
:1002C000150026FF00952075088102096315002698
:1002D000FF00952075089102C005010906A10105DE
:1002E0000719E029E7150025019508750181029598
:1002F00001750881010507190029FF150026FF0077
:1003000095067508810005081901290595057501EF
:100310009102950175039101C009025B0003010080
:10032000A0FA0904000001030101000921110100E4
:10033000012240000705810308000A0904010002A8
:10034000030000000921110100012222000705829B
:100350000320000107050303200001090402000136
:10036000030000000921110100012281000705841A
:100370000320000A12010002000000086666716690
:100380000100010203011C037600690061006C009A
:100390003A00660036003400630032006200330029
:1003A000630000001E035000390076003100200079
:1003B0004D006100630072006F002000500061007A
:1003C000640000000E0350006100620069006C00D0
:1003D0006500000004030904000102030405222350
:1003E000252628292A2C2D2F3032333536383A3B12
:1003F0003D3E4042434547494A4C4E505153555764
:10040000595A5C5E6062646668696B6D6F71737582
:1004100077797B7D7F81838587898A8C8E90929482
:1004200096989A9C9E9FA1A3A5A7A8AAACAEAFB18F
:10043000B3B4B6B8B9BBBCBEBFC1C2C3C5C6C7C9D9
:10044000CACBCCCDCED0D1D2D2D3D4D5D6D7D7D893
:10045000D9D9DADADBDBDBDCDCDCDCDCDDDDDDDDE5
:10046000DCDCDCDCDCDBDBDBDADAD9D9D8D7D7D6ED
:10047000D5D4D3D2D2D1D0CECDCCCBCAC9C7C6C5A4
:10048000C3C2C1BFBEBCBBB9B8B6B4B3B1AFAEACEA
:10049000AAA8A7A5A3A19F9E9C9A98969492908E95
:1004A0008C8A89878583817F7D7B79777573716F6E
:1004B0006D6B6968666462605E5C5A59575553514A
:1004C000504E4C4A4947454342403E3D3B3A383600
:1004D000353332302F2D2C2A2928262523220001BE
:1004E00001010101010101010202020202020202F4
:1004F00002030303030303030304040404040404C6
:100500000505050505060606060607070707070889
:10051000080808090909090A0A0A0B0B0B0C0C0C3C
:100520000D0D0D0E0E0E0F0F0F10101111111212D6
:1005300013131414151516161717181819191A1A53
:100540001B1B1C1D1D1E1E1F2020212222232424B4
:10055000252626272829292A2B2C2D2D2E2F3031F0
:100560003232333435363738393A3B3C3D3E3F4002
:100570004142434445464748494A4C4D4E4F5051ED
:100580005354555658595A5B5D5E5F6162646566A7
:1005900068696B6C6D6F7072737577787A7B7D7E2E
:1005A0008082838587888A8C8E8F91939596989A7E
:1005B0009C9EA0A2A3A5A7A9ABADAFB1B3B5B7BA96
:1005C000BCBEC0C2C4C6C9CBCDCFD1D4D6D8DBDD6A
:1005D000DFE2E4E7E9EBEEF0F3F5F8FAFDFFFFAA5E
:1005E0007F55405F00600061005C005D005E005967
:1005F000005A005B0004000500060007000800091F
:10060000000A000B000C000D000E000F001000117E
:10061000001200130014001500160017001800192E
:10062000001A001B001C001D000400000000000058
:1006300000000000000000000000000000000000BA
:100640000000000000000000000000000000007E2C
:100650000F00D4FFFFFFC70000007800000000007B
:100660000000002A2B28000000000000000000000D
:1006700000000000000029000000002C1E34202192
:100680002224342627252E362D3738271E1F2021D9
:1006900022232425263333362E37381F0405060738
:1006A00008090A0B0C0D0E0F101112131415161752
:1006B00018191A1B1C1D2F3130232D350405060770
:1006C00008090A0B0C0D0E0F101112131415161732
:1006D00018191A1B1C1D2F3130354C0011241FBE58
:1006E000CFEFDAE0DEBFCDBF04B603FE27C08091B6
:1006F000AC039091AD03A091AE03B091AF038730EE
:10070000904BA740B04BD1F41092AC031092AD03C4
:100710001092AE031092AF0314BE84B7877F84BFDC
:100720000FB6F894A895809160008861809360006E
:10073000109260000FBEE0E0F8E3099511E0A0E040
:10074000B1E0E4EAF8E602C005900D92AA3AB107DA
:10075000D9F723E0AAEAB1E001C01D92AC3AB20792
:10076000E1F70E94B7030C9450340C940000CF932F
:10077000DF93CDB7DEB7E6970FB6F894DEBF0FBEB6
:10078000CDBF84B7877F84BF0FB6F894A8958091BA
:100790006000886180936000109260000FBE90E05E
:1007A00080E80FB6F89480936100909361000FBECB
:1007B00085B7806885BF85B7806885BF80E692E28F
:1007C0009093AB018093AA010E94DA1A0E94821AC8
:1007D0000E945C160E947B168091E20084608093E8
:1007E000E20078948091D5018823A1F01091E9006E
:1007F0001F709091EC00892F817090FD80E8182B7C
:100800001092E9008091E80083FD0E9436131F706A
:100810001093E90082E084BD93E095BD9AEF97BD07
:1008200080936E000E94B11B811102C00E94A21B26
:1008300086E60E94A52287E90E94A52286EC0E94F6
:10084000A52281E90E94A52280E90E94A52284E9CF
:100850000E94A52283E0E4ECF1E0DF01182F1D9255
:100860001A95E9F7EEEAF1E0DF011D928A95E9F7C2
:100870000E948925811102C00E94942582E090E0A7
:100880000E943D338093BE010E9478259093AD0174
:100890008093AC010E94BC22BFEFE6E7F1E0B150CB
:1008A000E040F040E1F700C000000E94BC228091CF
:1008B000C40180FF08C06FEF7FEF80E090E00E94EE
:1008C0006F330E94492B83E090E00E943D330E94E9
:1008D000F4208091B101811133C00E9489258111DA
:1008E00004C00E9494250E94832788E090E00E9423
:1008F00045336093FD017093FE018093FF01909357
:1009000000026E7F71F40E94832788E090E00E94CD
:1009100045336093FD017093FE018093FF01909336
:1009200000020E9435271092E7018091FD0180FFAF
:1009300004C060E086950E942A2981E08093B1017D
:100940006DEB862E61E0962E2EE331E041E451E01E
:100950007AEB672E71E0772E61E070E086149704E1
:1009600009F44EC0FA01A191AF018A2F82958F70D0
:1009700090E0FC01F1A0AF70EA2E8B0101C0000FE6
:10098000AA95EAF7F02FF095FF22DC019196FC92F0
:1009900091979296AC91A02BFC01A2A3D901FD9056
:1009A0009D01EF2DE295EF70F0E0B1A0BF2DBF707B
:1009B000FB2E6B0101C0CC0CBA95EAF7DC2CD0946D
:1009C000DB20D1A2D2A0CD28C2A2DC0190968C91CE
:1009D00090E002C095958795EA94E2F78170E0A1D6
:1009E000F0E002C0F595E795FA94E2F7E0FF02C067
:1009F00092E001C090E0892BF30181933F01AECFDB
:100A000080E091E09093A1038093A003332433947A
:100A10008091D501853009F077C000E112E1809125
:100A2000D501853009F05BC08091D501843009F48F
:100A300041C01092E7018091B301811117C0F1E02C
:100A4000F093B3018091FD01982F91709093B201C2
:100A50008E7F8093FD012FEF30E742E02150304040
:100A60004040E1F700C000000E94F81B1092A40370
:100A700088E190E0A0E40FB6F894A8958093600018
:100A80000FBEA093600083B7817F846083BF83B76C
:100A9000816083BF7894889583B78E7F83BF0FB6BC
:100AA000F894A8958091600088618093600010920E
:100AB00060000FBE8091D401882309F4B0CF0E945A
:100AC000BC228091C4018111CFC58091C5018111E3
:100AD000CBC58091C601882309F4A1CFC5C50E946A
:100AE000F8200E94162C1092B3018091B201882345
:100AF00049F08091FD0181608093FD0160E0869561
:100B00000E942A290E94E21B0E94BC2281110E949D
:100B10008F2BE4ECF1E0AFEBB1E000E010E0302F20
:100B200021919D91922721F180E0FF24F3944F2D94
:100B30004923D1F08BA73CA72F2181E009F480E065
:100B40008DA70E949B2B8160782F9FA78EA74BA516
:100B50005CA56DA58FA50E949D30F801E154FE4F64
:100B60008081F826F08219C08F5FFF0C8330F9F680
:100B70000F5F1F4F0330110591F68FEF88AB89ABE4
:100B80001AAA0E949B2B8160782F9CAB8BAB48A943
:100B900059A96AA98CA90E949D308091E7018823F8
:100BA00009F493C08091E601E091FD01E695E81B10
:100BB000E093E201823059F4F0E0E25EFE4FE4910E
:100BC0000E2F10E05AE0E52E5AE1F52E59C086307E
:100BD00059F4F0E0E55EFE4FE4910E2F10E04AEF8D
:100BE000E42E49E1F42E4CC0893061F4E695F0E042
:100BF000E85EFE4FE4910E2F10E03EEEE32E3DE165
:100C0000F32E3EC08F3061F4E695F0E0EB5EFE4FD0
:100C1000E4910E2F10E02EE7E22E2DE1F22E30C0EF
:100C2000853159F4F0E0EE5EFE4FE4910E2F10E0B6
:100C30009DE2E92E9DE1F92E23C08831A1F0833297
:100C400049F4E0E1F1E0059114918AEBE82E89E1A5
:100C5000F82E16C0843271F000ED17E0B2E1EB2EF1
:100C6000B8E1FB2E0DC008E210E0A1EAEA2EACE1EB
:100C7000FA2E06C004EF11E0F4E6EF2EFCE1FF2EA1
:100C80008091E301882361F01092E3010E949B2B85
:100C90009093E1018093E0011092E5011092E4014C
:100CA0000E949B2BE091E001F091E1018E1B9F0BD4
:100CB0008F3F9F4750F40E0F1F1F1093E1010093C9
:100CC000E00180EE91E0F701099557EBE52E51E048
:100CD000F52E04EB11E06AEB662E61E0762E2EE332
:100CE00031E03EAB2DAB71E4872E71E0972E5301BE
:100CF000D12C212CE4E04E2E512CD5018D915D019B
:100D0000E82FEE0FEE0FD4012D914D01A22FA295E9
:100D1000AF70B0E090968C9190E02F7002C09595E6
:100D200087952A95E2F79C0121703327ADA9BEA9CA
:100D30008D91BEABADABA82FA295AF70B0E09096F1
:100D40004C9150E08F7002C0559547958A95E2F717
:100D5000CA018170992740FF02C082E090E0822B97
:100D6000932B8E2BF30181933F018F70E82FF0E0DE
:100D7000E25DFE4F9081D7018C91890F8C93843076
:100D800054F0F80180818F5F808360E0822D0E94A3
:100D9000301B21E001C020E0D7018C918D3F4CF445
:100DA000F80180818150808361E0822D0E94301B98
:100DB00021E0D7018C91082E000C990BB2010E9402
:100DC000AF33F70181937F01D22A23940F5F1F4F26
:100DD000F3E02F1292CFD1100E948F2B86E0EAE928
:100DE000F2E08E010F5F1F4FD80101900D928A959E
:100DF000E1F7C0909C02D0909D02E0909E02F0909E
:100E00009F0210929C0210929D0210929E021092DC
:100E10009F02C11003C0DD2009F44FC080919802E9
:100E2000909199020E94802B9C01909194029923A9
:100E300009F442C42333310508F43FC09F3F19F041
:100E40009F5F90939402CC2061F00E94492A1C1469
:100E500014F491E001C09FEF899F802D11248093AD
:100E60009C02DD2061F00E94492A1D1414F491E0D7
:100E700001C09FEF899F802D112480939D023091A6
:100E80009C023323D1F020919D022223B1F045EB47
:100E90003403C0011124992319F090939C0202C0DD
:100EA00030929C0235EB2303C0011124992319F0E1
:100EB00090939D0202C030929D02E11003C0FF207A
:100EC00009F44FC080919602909197020E94802B66
:100ED0009C0190919302992309F4F3C325363105BF
:100EE00008F43FC09F3F19F09F5F90939302EE205C
:100EF00061F00E94272A1E1414F491E001C09FEFB4
:100F0000899F802D112480939E02FF2061F00E9412
:100F1000272A1F1414F491E001C09FEF899F802DB0
:100F2000112480939F0230919E023323D1F02091AF
:100F30009F022223B1F045EB3403C0011124992311
:100F400019F090939E0202C030929E0235EB23036B
:100F5000C0011124992319F090939F0202C030928E
:100F60009F0280919C0281110BC080919D02811192
:100F700007C080919E02811103C080919F02811160
:100F80000E947829CB82DC82ED82FE8286E0F80125
:100F9000AAE9B2E001900D928A95E1F70E94162C21
:100FA0009091BD01891721F00E94162C8093BD01FC
:100FB0008091D501843009F02BCD83E08093E90046
:100FC0008091E80082FF24CD8091E80085FF21C058
:100FD0000E94B31781111BC040E2E42EF12C68017E
:100FE00009C08091F100D6018D936D01B1E0EB1A3B
:100FF000F10869F08091E80085FDF3CF8091E80069
:101000008B778093E8000E94B317882399F391E0CF
:1010100001C090E08091E8008B778093E8009923ED
:1010200009F4F6CCE090A202F090A3028981E114C9
:10103000F10461F08E3F09F0EFC28A81833008F439
:10104000B2C18550833008F0E7C2ADC1893009F4E0
:10105000E3C0D0F4843009F467C050F48230A1F1C9
:1010600008F053C0813009F0D5C21A8289E0D2C09D
:10107000863009F46BC008F45EC0873009F469C09B
:10108000883009F4A8C0C6C2803109F42EC180F4AA
:101090008D3009F4CCC028F48C3009F0BBC28AE052
:1010A00057C28E3009F4C7C08F3009F4EFC0B2C206
:1010B000823109F41DC108F44AC2833109F441C1E7
:1010C0008E3F09F470C1A6C28A81823009F4EBC256
:1010D000833051F0813009F09DC20E948F2B9B8399
:1010E0008C837D836E8398C280911D0190911E0137
:1010F000892B09F491C28091C4018B838091C50131
:101100008C838091C6018D8387C28A81823009F0E9
:1011100081C26B817C818D819E810E94EB3386E24E
:1011200090E00E94513378C24C816B818A810E9489
:10113000541A9D83BFC22D813E8132272327322737
:101140004C816B818A810E941E1A66C20E94D52E34
:1011500063C28A818138B1F050F4803809F05CC2F2
:1011600020E04B816091FF018091FE0131C0823807
:1011700059F1833809F050C220E0409100026C819F
:101180008B8126C060E08B810E942A299B818091FF
:10119000FD01911111C08E7F8093FD011092E70136
:1011A000EFEFF0E722E0E150F0402040E1F700C02F
:1011B00000000E94F81B30C281608093FD0160E056
:1011C00086950E942A2928C28B818093010224C21D
:1011D0000E94462821C28A81813891F030F48038FB
:1011E00009F01AC28091000215C0823889F0833854
:1011F00009F012C28091FE018B838091FF0142C1F0
:101200008091FD0180FF02C0869504C080E002C08D
:10121000809101028B8300C26091FD017091FE01FB
:101220008091FF01909100020E944F27F5C183E059
:101230008A838FE2EFCFEA80FB80FE24EF24FE2436
:10124000AC80B12C3DE1A316B10408F0E5C1680102
:10125000C7018F529F4F9601201B310B2A153B056A
:1012600008F0DAC14FE2E41643E0F40630F40E94DD
:101270003D33D60114968C9302C0F6011482FFEF21
:10128000EF1AFF0A2FEFC21AD20AE2CF80911D0196
:1012900090911E01892B09F4BFC1EA80FB80FE24D6
:1012A000EF24FE24CC80D12C3DE1C316D10408F0FC
:1012B000B3C15801C7018F529F4F9501201B310BBD
:1012C0002C153D0508F0A8C14FE2E41643E0F406F2
:1012D00028F4D50114966C910E945133BFEFEB1A9C
:1012E000FB0AEFEFAE1ABE0AE5CF0E945C2E94C156
:1012F000EA80FB80FE24EF24FE24AC80B12CFDE1CB
:10130000AF16B10408F088C16801C701879696013D
:10131000201B310B2A153B0508F07EC126E3E2169F
:10132000F10430F40E943D33D60114968C9302C030
:10133000F6011482FFEFEF1AFF0A2FEFC21AD20A4A
:10134000E4CFEA80FB80FE24EF24FE24CC80D12C65
:101350003DE1C316D10408F05FC146E3E416F10491
:1013600008F05AC186E390E08E199F098C159D05FF
:1013700008F452C15801C70187969501201B310B13
:101380002C153D0508F048C1A6E3EA16F10420F447
:10139000F50164810E945133FFEFEF1AFF0A2FEF2E
:1013A000A21AB20AE8CFEA818E2F90E08E30910522
:1013B00008F032C1FC01EA5AFF4F0C94E53388E093
:1013C000E0E2F1E0DE01919601900D928A95E1F75D
:1013D00080E2D8011D928A95E9F784E0898388E04C
:1013E000FE01B196DE011596F1C084E189833A824F
:1013F0001B821C8211C18C8190E0982F88272B8141
:10140000820F911D092E000CAA0BBB0B35E0880F33
:10141000991FAA1FBB1F3A95D1F7AC01BD01405ED1
:101420005F4F6F4F7F4F481759076A077B0708F4D4
:10143000F3C08431E1E09E07A105B10508F0ECC0DE
:101440004531F1E05F076105710520F044E151E0AD
:1014500060E070E0481B590BBC016E5D7E4FC80117
:101460000E942433D9C0FB80EC8040E06E2D8F2D8C
:101470000E94832F99838A8341E06E2D8F2D0E94D5
:10148000832F9B838C83C8C02E813F8132272327E3
:1014900032274D816C818B810E949D2EBDC040E220
:1014A00050E06FEF70E0C8010E94493480911D0147
:1014B0008983EA82B1C081E090E09093A302809397
:1014C000A20282E390E09093C3018093C2010E9444
:1014D0009B2BA2C080911D018983EA828091C20169
:1014E00099CE40E250E06FEF70E0C8010E944934AD
:1014F00093C08B81823071F1E8F4882309F1813047
:1015000009F08AC08C819AE0F92E6E01B1E2CB0E0F
:10151000D11CF6012F2D11922A95E9F7B6010E94F0
:10152000882E8983F601DE01129601900D92FA94BD
:10153000E1F772C0833069F1843009F44CC06CC0AB
:1015400080E2D8011D928A95E9F785E0898383E0DE
:101550008A8362C06C818AE0FE013596DE01919635
:1015600001900D928A95E1F7653070F43AE0639F3F
:10157000B00111246F577F4F4AE050E0CE018196B1
:101580000E94753380E001C08FEF89830E94DA1AD0
:1015900043C06C81CE0181962AE0DC011D922A9520
:1015A000E9F7633060F4BAE06B9FB00111246D5429
:1015B0007F4F4AE050E00E942D3380E001C08FEF62
:1015C00089838AE0FE01B196DE01129601900D92A8
:1015D0008A95E1F721C06C818AE0FE013596DE0133
:1015E000919601900D928A95E1F7633070F4EAE0EC
:1015F0006E9FB00111246D547F4F4AE050E0CE0140
:1016000081960E94753380E001C08FEF89830E942C
:10161000821A02C08FEF89838091D501843009F04E
:10162000F7C98091E9008F702091EC00922F9170A2
:1016300020FD90E8F92EF82A82E08093E90080915D
:10164000E80080FF0CC040E050E060E270E0C801BC
:101650000E94E6178091E8008E778093E8008F2D36
:101660008F708093E900D4C909BD19BD09B400FE8B
:10167000FDCF8091D8008F7D8093D8008091E000CD
:1016800082608093E0008091E00081FDFCCF0E94A9
:10169000F820BFEFE3ECF9E0B150E040F040E1F7B3
:1016A00000C00000BCC986E290E00E943D331B826E
:1016B0001C821D828E83B0CF2D32314008F0C0CB0A
:1016C000FCCB2D32314008F00FCC4BCC8F929F9247
:1016D000AF92BF92CF92DF92EF92FF920F931F9340
:1016E000CF93DF9300D000D0CDB7DEB7FC0180816F
:1016F000918123813481232B31F09F3F31F491E09C
:101700008F3F19F403C091E001C090E090FDD7C66F
:101710007F0161E0CF010E9466308C01D7011296F3
:101720008C91811105C0F701828181113EC0C2C038
:1017300080911B0190911C010196A9F330E3C32E07
:1017400033E0D32EA12CB12C9924939480911B01CA
:1017500090911C018A159B0534F3D60116968C9145
:1017600016978823D9F019968D919C911A9708178E
:10177000190739F480912E0390912F030817190748
:1017800069F0F601978614870387C6010E94692CC9
:10179000C60106960E94222C10922D03FFEFAF1A6D
:1017A000BF0A26E1C20ED11CD1CFC80182519F458C
:1017B000409708F09BC02EEED22ED00E89E08D15FA
:1017C00008F482C08FEF93E00E943D3381117CC00A
:1017D00001ED10E0DD2071F0011594E0190709F426
:1017E00073C0C8010E943D33811101C0DA940F5FBC
:1017F0001F4FF0CF19821A821B821C82AA24AA943E
:101800006801AFEFCA1ADA0AC8010E943D33898322
:101810001A82882309F458C0813009F046C0480173
:10182000B2E08B0E911CC6010E943D338A8388234F
:1018300009F44AC09FEF980F933060F46801E3E029
:10184000CE0ED11CC4010E943D338B8381112DC06B
:101850008601D6CF843011F06401FACFC4010E9412
:101860003D33B82E6801F4E0CF0ED11CC8010396B9
:101870000E943D33BB2041F1882331F1282F30E015
:1018800021503109A29EA001A39E500D11248B2D41
:1018900090E00197840F951F0197D0F2AFE9BFE068
:1018A0001197F1F700C00000F7CFCE0101960E941A
:1018B000B32FCECF0031AFE51A0709F0B9C581E0EB
:1018C0000E94DD200E942B1380918B02877009F407
:1018D000F6C5F7018281882309F4F1C58091AD0135
:1018E00082FDEDC582E00E945B26E9C50031FFE57F
:1018F0001F0711F481E005C001312FE51207A1F4A3
:1019000082E00E94E920DECF680187E5D81A9FEFC8
:10191000C916D10409F040F468E072E08C2D0E94F1
:10192000882E892B09F48BC5C80197558F3F9105E7
:1019300011F008F053C020911B0130911C012817B1
:10194000390724F490931C0180931B01D701129650
:101950002C91129736E1389F5001399FB00C112419
:10196000F501E05DFC4F6F01208B12969C91868102
:10197000992351F1128701878F5F86830E949B2BE9
:10198000D6011E969C938E931D9780918F02179679
:101990008C93179790912D0380912C03892B189687
:1019A0008C931897ED91FC911197309741F05496D4
:1019B0006D917C915597C5018A5C9C4F0995109358
:1019C0002F0300932E030AC0882341F081898823C6
:1019D00029F0C5018A5C9C4F0E94222C033FFCE544
:1019E0001F0759F190F4083D8CE51807E9F0093D0F
:1019F0009CE51907A1F1073DACE51A07B1F506E230
:101A000021EE41EE67ED7CE514C0053FBCE51B0708
:101A100001F1C8F0063FFCE51F0739F507E225EEA6
:101A200046EE66EF7CE505C007E225EE45EE68ED83
:101A30007CE5C7010E948E2C47CF06E221EE40EEE6
:101A400063EF7CE5F6CF07E225EE44EE64EF7CE53C
:101A5000F0CF06E221EE42EE65EF7CE5EACF08E248
:101A600021E045EE69ED7CE5E4CFD70112968C913B
:101A7000882309F445C110922B030330BDE51B07F1
:101A800058F40A3FECE51E0760F4C80182509C45FB
:101A9000449708F01FC105C00136FDE51F0709F096
:101AA00019C10E9478259093AD018093AC0100315B
:101AB0002CE5120709F4CAC008F041C008309CE5C3
:101AC000190709F4A4C0F0F40430BCE51B0709F4BD
:101AD0008CC068F40230FCE51F0709F482C00330B3
:101AE0001C4509F0E7C08091AC018260E1C006307E
:101AF0008CE5180709F483C008F085C08091AC011B
:101B00008860D6C00C30ACE51A0709F490C068F4C0
:101B10000A30ECE51E0709F47EC008F084C00E947C
:101B2000F8208091AC018068C3C00E302CE512070C
:101B300009F481C008F086C08091AC0194C00C3FCC
:101B40009CE5190709F47BC038F50431BCE51B0797
:101B500009F49AC058F40231FCE51F0709F47AC071
:101B600008F07EC08091AC018F7BA2C00A3F8CE55B
:101B70001807F1F108F03FC005311C4509F09AC083
:101B80008091AC0182FB222720F991E0922790FB03
:101B900082F990FB83F98CC00115BDE51B0709F4A0
:101BA00067C050F48091AD010E3FFCE51F07C1F105
:101BB00008F05BC08D7F65C002308DE5180709F421
:101BC00071C008F46DC001361D4509F073C08091E5
:101BD000AC0184FB222720F991E0922790FB84F945
:101BE00067C08091AC01816063C08091AC0116C078
:101BF0008091AD0116C08091AD01826042C080919C
:101C0000AC01806155C08091AC01806251C080916F
:101C1000AC0180644DC08091AC018860846048C094
:101C2000826081602EC08091AC018E7F41C0809126
:101C3000AC018D7F3DC08091AC01877F39C0809120
:101C4000AD0114C08091AC018F7E32C08091AC0197
:101C50008F7D2EC00E94F8208091AC018F7728C024
:101C60008091AC01877F8B7F23C08D7F8E7F09C0E1
:101C70008091AD01982F909591708E7F892B90FB6C
:101C800081F98093AD0116C00E94F8208091AC01CB
:101C900087FB222720F991E0922790FB87F908C063
:101CA00061E001C060E08EE090E00E94513302C02C
:101CB0008093AC016091AC011091AD0184E090E0A3
:101CC0000E945133612F82E290E00E9451330E94C2
:101CD000F820FACD80912C030631BCE51B0741F5B5
:101CE0008A7A91E009F490E09093C701882311F07B
:101CF00065E301C069E286E392E00E94D02B15C043
:101D000006311C4509F02DC18091C701882309F4D3
:101D1000D4C385E3E6E3F2E09281891301C0128225
:101D20003196B2E0EC33FB07B9F70E941726CCCD11
:101D300082720C3CECE51E0709F4C2C008F045C0F5
:101D4000063C2CE5120709F4A7C0D8F4033CACE527
:101D50001A0709F497C030F4023CECE51E0709F4B9
:101D60006CC0CEC0043CFCE51F0709F490C0053CE4
:101D70002CE5120709F0C4C048E159E261E279E2BA
:101D8000A3C0093C9CE5190709F490C078F4073C0E
:101D9000BCE51B0709F485C0083CECE51E0709F00B
:101DA000AFC04CE059E260E079E28EC00A3CFCE54D
:101DB0001F0709F480C00B3C2CE5120709F0A0C0F6
:101DC00041E657E262E777E27FC0013D8CE5180704
:101DD00009F486C0A0F40E3CACE51A0709F47AC0F9
:101DE00008F475C00F3CECE51E0709F476C0003D11
:101DF000FCE51F0709F084C06EE089E079C0043D6E
:101E00002CE5120709F472C068F4023D9CE519073D
:101E100009F469C0033DACE51A0709F071C061E03F
:101E200088E16BC0053DBCE51B0709F464C00D35B6
:101E3000EDE51E0709F448CD63C08091FD0180FFE8
:101E40001BC08E7F8093FD016091FD017091FE01AA
:101E50008091FF01909100020E944F271092E701AC
:101E6000FFEF20E782E0F15020408040E1F700C022
:101E700000000E94F81B28CD81608093FD0161E085
:101E800086953BC045E659E26EE679E21DC04EE616
:101E900059E265E679E218C041E259E268E179E287
:101EA00013C040E059E26CE079E20EC048EE58E21F
:101EB00064EF78E209C044EF58E268EE78E204C0CB
:101EC00042E757E261E677E20E94DC1BFDCC61E06D
:101ED00081E013C065E082E00BC068E086E008C0E6
:101EE00064E18FE005C067E185E102C062E289E15B
:101EF0000E94CA1BE9CC61E083E20E942A29E4CC5B
:101F00000A359DE5190741F150F40115BCE51B07A1
:101F1000A9F00E3D1C4529F50E949425D5CC0B3522
:101F2000FDE51F07D9F00C351D45D9F48091AD01B1
:101F300082FB882780F991E0892711C00E94F82050
:101F40008FEF94E3ACE081509040A040E1F700C0F7
:101F500000000E94492BB8CC81E001C080E00E94C3
:101F60007826F701868197810097C9F4D7011296E8
:101F70008C9112970D911C91882349F0C8010E9401
:101F8000381ED82E682FC8010E94AC2004C0C8019A
:101F90000E947C20D82EB8018D2D0E946C2E0E94AC
:101FA000DE238C01F701D280C580C2949FE0C92254
:101FB00080918B028770B9F0DD20A9F0812F807F9E
:101FC000803421F080E2800F883068F08091AD018C
:101FD00082FD09C082E00E945B2680918B0287709F
:101FE000BB24B3948111B12CA12EA2948FE0A8221E
:101FF0008A2D90E08C30910508F0F5C1FC01EC5978
:10200000FF4F0C94E533812F807F1F70882311F0E0
:102010001295107FDD20B9F0112309F4D1C180E2BF
:10202000800F883010F0011106C090912C03192BFD
:1020300010932C0305C090912D03192B10932D03A1
:102040000E941726BDC1802F0E94AB21112309F4E5
:10205000CAC180E2800F883060F1002351F1812FE6
:102060000E94092629C0812F807F1F70803211F0C5
:102070001295107F002321F0013009F45EC069C081
:102080008091AD0182FF1BC0DD2069F0112339F082
:1020900090912C03192B10932C030E94172680E09B
:1020A0000E94E321A0C180E00E94AB21112309F42A
:1020B0009AC1812F0E9410260E94172694C1DD200C
:1020C00031F1CC20F1F0F1E0CF120FC080918F02FE
:1020D000182B181709F487C10E949B2B90938E022E
:1020E00080938D0210938F027EC125E0C21209C039
:1020F0000E94FE25809188021817A9F1109388028A
:1021000032C080918F02812B0E94A1216CC1CC2012
:1021100051F081E0C8120DC080912C03812309F495
:1021200062C10E94AB260E94FE25812F0E949A2147
:102130005AC195E0C912F7CF56C1DD2029F0A5E0BC
:10214000AC1508F450C10FC0B4E0BC1508F44BC185
:10215000ECCFDD2051F0CC2031F0F701858180FFFC
:102160002FC18F708583812FCFCFC1102EC1DDCFBE
:10217000812F86958695837019F0813059F033C18F
:10218000DD2019F0C801937002C080E090E00E9449
:10219000002C2FC1DD2019F0C801937002C080E02F
:1021A00090E00E94EA2B25C1802FDD2019F00E94CB
:1021B000692A02C00E94A2290E9478291AC1812F8F
:1021C0008370A9F5D11013C1402F429546954770F1
:1021D000440F440F802F8F7090E09C01042E01C0AB
:1021E000220F0A94EAF704FF08C08FE090E001C0D4
:1021F000880F4A95EAF7809501C080E016951695FC
:102200001370123069F088F490910202113019F0C5
:10221000822B892302C0922B892B0E94F420E7C0D5
:10222000822B909102028927F8CF822BF6CFDD20F6
:1022300019F0812F817001C08695882309F4D7C0D9
:10224000402F429546954770440F440F802F8F7062
:1022500090E09C01042E01C0220F0A94EAF704FFCB
:1022600008C08FE090E001C0880F4A95EAF780959A
:1022700001C080E0169516951370123059F078F46D
:102280009091DF01113019F0822B892309C0922B24
:10229000892B06C0822B9091DF01892701C0822BF8
:1022A0000E94D920A4C01F70DD2039F0812F0E9428
:1022B000E920802F0E94A1219AC0802F0E949A219C
:1022C000812F0E94DD2093C0023F61F128F4003F7E
:1022D00041F0013F01F16FC0033F59F1043FB9F0F4
:1022E0006AC0DD2079F094E09C1508F47CC01F7171
:1022F00081E090E001C0880F1A95EAF79091DF0124
:10230000892721C0A5E0AC1508F46DC0F0CF8091FD
:10231000AD0182FF1BC0DD2039F0812F8F710E943B
:10232000E92061C0DD20C9F3812F8F710E94DD207B
:102330005AC0DD2039F01F7181E001C0880F1A9565
:10234000EAF701C080E00E94D9204DC0DD20D9F01D
:10235000809188020E94102680918B0287708430C1
:1023600039F40E945426812F8F710E94DD205EC0B7
:10237000B4E0BC1508F45AC01F71812F0E94E920F7
:1023800063E0812F11C090912C0380918802892BEA
:1023900080932C03E4E0EC1550F40E9454260E9434
:1023A000AB2664E0812F8F710E9495263FC081E0AB
:1023B0000E945B263BC0DD2029F0CC2009F4ADCF84
:1023C000802F6ECECC2009F4AFCF093349F4FFEF54
:1023D00027EE83E0F15020408040E1F700C000008C
:1023E000802F0E94AB2188EF8A0D843010F40E9468
:1023F000162CBB20B1F080918B0280FD12C0D7015A
:1024000012961C928595859585950E94E920C701B5
:102410000E94660B80918B028595859585950E941B
:10242000DD2060E0C7010E94663049C0B12CDFCFDB
:102430000131BFE51B0709F067CA82E041CA86E1A6
:102440008C9DF0018D9DF00D1124E05DFC4F868187
:102450008130E1F48091080290910902892B09F4FE
:1024600063CA80910A0290910B02892B09F45CCA1D
:1024700080910C0290910D02892B09F055CA809130
:102480000E0290910F02892B59F04ECA823009F04A
:102490004BCA80910C0290910D02892B09F444CA19
:1024A00026E12C9DC0012D9D900D1124805D9C4F37
:1024B000FC01108A0E94692C37CA89E22BCC0F904C
:1024C0000F900F900F90DF91CF911F910F91FF9080
:1024D000EF90DF90CF90BF90AF909F908F90089536
:1024E0008091D70187FF11C08091E80082FD05C06F
:1024F0008091D5018111F8CF11C08091E8008B77D0
:102500000BC08091D501882349F08091E80080FFBD
:10251000F8CF8091E8008E778093E8000895982F97
:10252000973068F59093E900981739F07091EC00B6
:102530002091ED005091F00003C0242F762F50E041
:1025400021FD02C09F5FECCF3091EB003E7F3093C6
:10255000EB003091ED003D7F3093ED003091EB00CA
:1025600031603093EB007093EC002093ED005093BA
:10257000F0002091EE0027FDE5CF80E008958F70F8
:102580008093E90081E008952091DD013091DE0122
:102590002617370748F06115710539F42091E800D6
:1025A0002E772093E80001C0B901FC0120E06115FD
:1025B000710579F18091D5018823F1F18530F1F130
:1025C0008091E80083FD3CC08091E80082FD2EC030
:1025D0008091E80080FFEBCF2091F3008091F20022
:1025E00090E0922B6115710551F08830910538F417
:1025F00021912093F100615071090196F3CF21E000
:10260000089709F020E08091E8008E778093E80039
:10261000CECF2111CFCF0AC08091D501882361F0A0
:10262000853061F08091E80083FD0AC08091E80068
:1026300082FFF2CF80E0089582E0089583E008955C
:1026400081E008950895BC0184E00C941F2BBC0127
:1026500083E00C941F2B8091DF01982F96709630A9
:1026600011F4886001C0877F0C94D9201F93CF9309
:10267000DF93CDB7DEB7AA970FB6F894DEBF0FBED3
:10268000CDBFE7EDF1E08FED91E02091F1002193D6
:102690008E179F07D1F78091D801833009F463C06A
:1026A00030F4813071F0823009F49DC0B4C08A30BA
:1026B00009F489C08B3009F46EC0893009F0ABC0D1
:1026C00020C08091D701813A09F0A5C08091E8002F
:1026D000877F8093E8008091DB019091DC01892B5A
:1026E00021F468E08BEC91E003C060E080E090E0D2
:1026F00070E00E94C4128091E8008B778093E8001C
:102700008AC08091D701813209F085C08091DB01B8
:102710009091DC01009719F0029709F07CC080913C
:10272000E800877F8093E8008091E80082FD05C083
:102730008091D5018111F8CF6EC02091F300809176
:10274000F20090E0922B029731F48091F1008130F9
:1027500011F0863021F48091F1008093CA018091BC
:10276000E8008B7754C08091D701813A09F053C0BB
:102770008091DB019091DC01892B09F04CC08091A4
:10278000E800877F8093E8008091E80080FFFCCF1D
:1027900080910C0137C08091D7018132E1F58091A1
:1027A000DB019091DC01892BB1F58091E800877FF6
:1027B0008093E8000E9470128091D90180930C01EF
:1027C0000E94F82028C08091D701813221F58091A4
:1027D000E800877F8093E8000E9470128091DA0100
:1027E0008093C90118C08091D701813AA1F48091EA
:1027F000E800877F8093E8008091E80080FFFCCFAD
:102800008091C9018093F1008091E8008E778093D8
:10281000E8000E9470128091E80083FFEBC1809174
:10282000D7019091D801492F50E04A30510508F066
:10283000E1C1FA01E059FF4F0C94E533803821F0F3
:10284000823809F0D7C108C08091D3019091D4019A
:10285000992389F082600FC08091DB018F708730EF
:1028600008F0C8C18093E9008091EB0085FB8827C0
:1028700080F91092E9009091E800977F9093E8002A
:102880008093F1001092F1007CC1282F2D7F09F078
:10289000B1C1882319F0823061F0ACC18091D901B7
:1028A000813009F0A7C1933009F080E08093D40112
:1028B0002EC08091D90181112AC08091DB018F70D7
:1028C0002FEF280F263008F095C18093E900209162
:1028D000EB0020FF1CC0933021F48091EB0080625C
:1028E00014C09091EB0090619093EB0021E030E0F8
:1028F000A90102C0440F551F8A95E2F74093EA00F0
:102900001092EA008091EB0088608093EB001092B7
:10291000E9008091E800877F8093E8000E947012B0
:1029200069C1811167C11091D9011F778091E300BE
:102930008078812B8093E3008091E800877F8093EB
:10294000E8000E9470128091E80080FFFCCF809127
:10295000E30080688093E300111102C082E001C0AF
:1029600083E08093D50146C18058823008F042C18F
:102970002091D9013091DA012C3D53E0350779F5EA
:1029800083E08A838AE289834FB7F894DE01139645
:1029900020E03EE051E2E32FF0E050935700E49155
:1029A00020FF03C0E295EF703F5FEF708E2F90E045
:1029B000EA3010F0C79601C0C0968D939D932F5FAB
:1029C000243149F74FBF8091E800877F8093E8006A
:1029D0006AE270E0CE0101960E94C412C0C08091EC
:1029E000DB019091DC01432F552743305105B1F0B5
:1029F00068F44130510509F40CC14230510509F029
:102A0000F9C08BE590E0E9E1F3E057C041325105B0
:102A100089F14232510509F43CC0ECC0C901992743
:102A200081309105B9F070F082309105D9F00397AB
:102A300009F0E0C0E6E8F3E0E4918E2F90E0E6E8EC
:102A4000F3E038C0E4EDF3E0E4918E2F90E0E4EDA4
:102A5000F3E030C0E4ECF3E0E4918E2F90E0E4EC9E
:102A6000F3E028C0E4EAF3E0E4918E2F90E0E4EA9A
:102A7000F3E020C08330910508F0BCC0880F991F97
:102A8000FC01E35BFE4F0190F081E02D89E090E0D6
:102A900014C08330910508F0ADC0FC01EE0FFF1F9C
:102AA000E95BFE4F0190F081E02DDC01AC5BBE4F95
:102AB0008C9190E0009709F49DC02091E800277F59
:102AC0002093E8002091DD013091DE0128173907BD
:102AD00008F4C90140E0009789F12091D501222333
:102AE00009F43DC02530D9F12091E80023FD37C01D
:102AF0002091E80022FD2FC02091E80020FFEBCFBD
:102B00004091F3002091F20030E0342B009759F00F
:102B10002830310540F444914093F10031960197FB
:102B20002F5F3F4FF3CF41E02830310509F040E0FF
:102B30002091E8002E772093E800CDCF4111CDCF32
:102B40000AC08091D501882351F0853041F08091F1
:102B5000E80083FD04C08091E80082FFF2CF8091FD
:102B6000E8008B778093E80045C0803809F042C0C8
:102B70008091E800877F8093E8008091D601809360
:102B8000F1008091E8008E77C7CE811133C080912B
:102B9000D9019091DA019927029764F58091E800B4
:102BA000877F8093E8001091D9011093D6010E948D
:102BB0007012111106C08091E30087FD02C081E010
:102BC00001C084E08093D50142E061EC81E00E9485
:102BD0008F1242E261EC84E00E948F1242E261ECCB
:102BE00082E00E948F1242E260EC83E00E948F122A
:102BF0008091D5018091E80083FF10C08091E800AA
:102C0000877F8093E8008091EB0080628093EB00E7
:102C100005C082E190E0E4E7F3E04FCFAA960FB65B
:102C2000F894DEBF0FBECDBFDF91CF911F91089505
:102C30001F920F920FB60F9211242F933F934F9331
:102C40005F936F937F938F939F93AF93BF93CF9334
:102C5000DF93EF93FF93C091E900CF708091EC0078
:102C6000D82FD17080FDD0E81092E9008091F0005B
:102C7000877F8093F00078940E9436131092E900C9
:102C80008091F00088608093F000CD2BCF70C093CE
:102C9000E900FF91EF91DF91CF91BF91AF919F91AB
:102CA0008F917F916F915F914F913F912F910F90F5
:102CB0000FBE0F901F901895E8EDF0E080818E7F99
:102CC00080831092E2001092DA001092E100A0EEF0
:102CD000B0E08C9181608C9380818F77808319BC68
:102CE000A7EDB0E08C918E7F8C9380818F7E808366
:102CF0001092C8010895CF92DF92EF92FF920F9346
:102D00001F93CF93DF93C8EDD0E088818F7E8883B7
:102D1000E7EDF0E080818160808384E082BF81E024
:102D20008093C80188818E7F888302EE10E0F801CD
:102D300010821092DA0081EEC82ED12CF60110829A
:102D400088818F77888388818068888388818F7D58
:102D5000888319BC1092D5011092D6011092D4012B
:102D60001092D30190EEE92EF12CF70180818B7F38
:102D7000808388818160888342E060E080E00E94F7
:102D80008F12F60180818E7F8083F80180818160BF
:102D90008083808188608083F70180818E7F80833B
:102DA000888180618883DF91CF911F910F91FF907F
:102DB000EF90DF90CF9008951F920F920FB60F9271
:102DC00011242F933F934F935F936F937F938F9330
:102DD0009F93AF93BF93EF93FF938091E10082FFA6
:102DE00009C08091E20082FF05C08091E1008B7FE5
:102DF0008093E1008091DA0080FF2AC08091D800A2
:102E000080FF26C08091DA008E7F8093DA00809167
:102E1000D90080FF18C080E189BD82E189BD09B475
:102E200000FEFDCF81E08093D5018091C801811122
:102E30000FC00E945C160E947B168091E2008460A5
:102E40008093E20005C019BC1092D5011092C80110
:102E50008091E10080FF17C08091E20080FF13C0E5
:102E60008091E2008E7F8093E2008091E200806199
:102E70008093E2008091D80080628093D80019BCD2
:102E800085E08093D5018091E10084FF30C080917E
:102E9000E20084FF2CC080E189BD82E189BD09B4D4
:102EA00000FEFDCF8091D8008F7D8093D800809167
:102EB000E1008F7E8093E1008091E2008F7E80931D
:102EC000E2008091E20081608093E2008091D6016F
:102ED000882311F084E007C08091E30087FD02C0E1
:102EE00081E001C083E08093D5018091D50180917C
:102EF000E10083FF27C08091E20083FF23C080911F
:102F0000E100877F8093E10082E08093D5011092F9
:102F1000D6018091E1008E7F8093E1008091E200F4
:102F20008E7F8093E2008091E20080618093E200D6
:102F300042E060E080E00E948F128091F0008860A3
:102F40008093F000FF91EF91BF91AF919F918F918E
:102F50007F916F915F914F913F912F910F900FBE95
:102F60000F901F9018952091E4003091E50095E6B0
:102F70004091EC00842F817040FF23C08091E800D5
:102F800080FD1DC08091D501882399F0853099F08E
:102F90008091EB0085FD11C04091E4005091E50067
:102FA0002417350729F3915011F09A01E1CF84E0FD
:102FB000089582E0089583E0089581E0089580E017
:102FC00008954091E80042FFDDCF0895EF92FF920F
:102FD0000F931F93CF93DF937C018B010E94B31754
:102FE000811119C0E70101151105A1F08091E800D8
:102FF00085FD0AC08091E8008E778093E8000E94EA
:10300000B317882381F307C089918093F1000150A1
:103010001109E9CF80E0DF91CF911F910F91FF90CF
:10302000EF90089508950F931F93CF93DF9300D0EF
:1030300000D01F92CDB7DEB78C019093A102809390
:10304000A002011580E2180738F5802F0E94AB21FD
:10305000C801805E9109089718F00115110571F4F7
:10306000C8010E94F7320F900F900F900F900F90B1
:10307000DF91CF911F910F910C949A21C8010E946A
:10308000F7320F900F900F900F900F90DF91CF912C
:103090001F910F910C9489218EEF89838A831B8263
:1030A0000E949B2B8160782F9D838C8349815A815C
:1030B0006B818D810E949D300F900F900F900F902B
:1030C0000F90DF91CF911F910F9108950F931F9350
:1030D000CF93DF938C01EB0168E072E08C2F0E94AC
:1030E000882E892B09F040C0DD27CD5FDD4F888118
:1030F000F80110821882833079F048F4813041F170
:10310000823091F580910A0290910B0209C08430BF
:1031100051F08530E9F028C080910C0290910D02A9
:103120000097B1F01BC080910E0290910F020097A2
:10313000A9F4209108023091090280910A0290912D
:103140000B022115310541F0009741F4C90106C079
:103150008091080290910902009731F0DF91CF91A0
:103160001F910F910C941318DF91CF911F910F9124
:1031700008950F931F93CF93DF9300D000D01F9239
:10318000CDB7DEB78C019093A1028093A002011508
:1031900080E21807F8F4C801805E9109089718F0DA
:1031A0000115110531F4C8010E94F7320E94A121D6
:1031B00005C0C8010E94F7320E949021802F0F9015
:1031C0000F900F900F900F90DF91CF911F910F9163
:1031D0000C94E3218EEF89838A8381E08B830E94A4
:1031E0009B2B8160782F9D838C8349815A816B81D1
:1031F0008D810E949D300F900F900F900F900F9037
:10320000DF91CF911F910F910895CF93DF93EC0140
:103210000E94B918CE01DF91CF910C9413180F932F
:103220001F93CF93DF938C01862F68E072E00E949A
:10323000882E892BD1F4C0910802D09109022097E1
:10324000A1F0F8018081833039F4CE010E94051984
:10325000CE010E94051902C0843038F0CE01DF9102
:10326000CF911F910F910C940519DF91CF911F9170
:103270000F9108950F931F93CF93DF938C01EB0170
:1032800068E072E08C2F0E94882E892B09F06DC0B7
:10329000DD27F8018081813041F49185911115C0BD
:1032A0009285992391F082E010C0823049F4F801B0
:1032B0008185811107C08285811106C083E005C028
:1032C00086E003C085E001C084E0CD5FDD4F8883E8
:1032D0008330B1F028F4813071F0823031F045C094
:1032E0008430A9F0853079F140C080910A02909134
:1032F0000B020097A1F5809108029091090220C06D
:1033000080910C0290910D020097E9F028C0809105
:103310000E0290910F02009711F580910802909192
:103320000902009749F00E94051980910A029091C4
:103330000B02009781F013C080910A0290910B025A
:10334000009799F00CC080910802909109020097B3
:1033500061F00E9405198091080290910902DF91A5
:10336000CF911F910F910C94B918DF91CF911F91BC
:103370000F9108950F931F93CF93DF9300D01F9267
:10338000CDB7DEB78C018091EA0181110AC09E01A0
:103390002F5F3F4F4AEF6FEF0E9493278A81809300
:1033A000EA01F8018481813051F028F0823061F423
:1033B0004091EA010AC08091EA0140E007C06091B3
:1033C000EA0140E080E003C040E080E060E00E946D
:1033D0002427F801848190E0019663E070E00E9468
:1033E000AF3384830F900F900F90DF91CF911F9197
:1033F0000F910895CF93DF93EC01EDEFF1E043815E
:1034000062818C810E9429288C818F5F8C83DF915F
:10341000CF910895CF93DF93EC01EC81F0E0E2527D
:10342000FC4F4491EDEFF1E0628181810E942928F7
:103430008C818F5F8C83DF91CF9108950F931F93C1
:10344000CF93DF93833058F5633048F5433038F538
:1034500021159CE5390731F4E0911D01F0911E0121
:10346000EF2BE9F08901C42FD0E0CC0FDD1F96E0EF
:10347000699FC00DD11D112492E1899FC00DD11DFE
:103480001124612FCE0187960E945133602FCE0107
:103490008896DF91CF911F910F910C945133DF915A
:1034A000CF911F910F9108950F931F93CF93DF93A7
:1034B000833008F56330F8F44330E8F4C42FD0E0EB
:1034C000CC0FDD1F26E0629FC00DD11D112432E11B
:1034D000839FC00DD11D1124CE0187960E943D33DC
:1034E00090E0182F0027CE0188960E943D33980166
:1034F000282BC90102C080E090E0DF91CF911F919D
:103500000F910895CF92DF92EF92FF920F931F9346
:10351000CF93DF93CDB7DEB72A970FB6F894DEBF0F
:103520000FBECDBF8EE1E2E1F2E0DF011D928A9590
:10353000E9F785E1E8E0F3E0DF011D928A95E9F71C
:1035400082E1C82E82E0D82E7F0103EB10E0F70164
:10355000D182C0824AE050E0B801CE0101960E94BB
:103560002D3388E0FE013196D60101900D928A95A7
:10357000E1F789859A85D70113969C938E931297CC
:10358000BAE0CB0ED11CE7E0EE0EF11C065F1F4F38
:10359000013D1105E1F62A960FB6F894DEBF0FBE85
:1035A000CDBFDF91CF911F910F91FF90EF90DF90F2
:1035B000CF9008958F929F92AF92BF92CF92DF9259
:1035C000EF92FF920F931F93CF93DF93CDB7DEB7A8
:1035D0002A970FB6F894DEBF0FBECDBF00E313E00D
:1035E000E12CF12C8FE0C82E89E1D82E9AE3A92E88
:1035F00099E1B92E26E6822E28E1922EF801D18299
:10360000C082B382A28295828482F58AE48ABE0156
:103610006F5F7F4F8E2D0E94882E892B29F489851C
:103620009A85F801938B828BFFEFEF1AFF0A0A5EEF
:103630001F4F85E0E816F10409F72A960FB6F894B3
:10364000DEBF0FBECDBFDF91CF911F910F91FF90D5
:10365000EF90DF90CF90BF90AF909F908F900895A4
:10366000AF92BF92CF92DF92EF92FF920F931F9390
:10367000CF93DF93B82EA62EC090DF018091020277
:10368000C82AC7E0D0E0D12CE12CF12CD701C6012B
:103690000C2E04C0B695A795979587950A94D2F7F6
:1036A00080FF13C04A2D6B2D8C2F0E94832F8C011D
:1036B0008130910551F00E94B9188FE39CE9019780
:1036C000F1F700C00000C80111C02197F8F64A2D9B
:1036D0006B2D80E00E94832FEC010E94B9188FE3CC
:1036E0009CE90197F1F700C00000CE010E94131879
:1036F00081E0DF91CF911F910F91FF90EF90DF90CC
:10370000CF90BF90AF900895CF93C82F811102C082
:103710006FEF01C06AE183E290E00E945133C11172
:1037200002C06FEF01C06EE184E290E00E9451336D
:10373000C11102C06FEF01C064E585E290E0CF9156
:103740000C94513380E00E94841B60E086E290E09C
:103750000E9451330E94D52E0E945C2E81E00C9471
:10376000841B83E290E00E943D338A3181F484E23D
:1037700090E00E943D338E3151F485E290E00E944A
:103780003D3391E0843509F090E0892F01C080E05D
:10379000817008959091FD0190FF04C0969598174F
:1037A00040F003C0811105C090E0961710F40C940E
:1037B0006E2961E00C942A29882311F0FA0101C0D6
:1037C000FB0109946091FD01669570E04BE050E0CB
:1037D0008DE091E00E942F34892B19F481E08093D1
:1037E000E7010E949B2B9093E1018093E0010895F3
:1037F0000F931F93CF93DF93CDB7DEB762970FB6CA
:10380000F894DEBF0FBECDBF8091FD0180FF0AC0DE
:1038100008ED13E09E012F5F3F4FAE014D5E5F4FFD
:10382000B9010BC0EBEEF1E01182108212823396E7
:1038300081E0ED3FF807C1F7EBCFF801849190E00C
:10384000DC01AA0FBB1F8A0F9B1FDC01A551BE4FD5
:103850008D919D91AC91FB0181939193A193BF01B7
:103860000F5F1F4FE417F50741F7269A85B18F7B4D
:1038700095B190646FB7F8942417350799F0F90162
:1038800071919F01E8E095B9000000C077FF85B90C
:10389000770F000000C000C000C085B900C0EA95E5
:1038A00091F7EACF6FBF8FE594E00197F1F700C081
:1038B000000062960FB6F894DEBF0FBECDBFDF9159
:1038C000CF911F910F910895EF92FF920F931F9345
:1038D000CF93DF938C01CBEED1E0E12CF12CF801FA
:1038E0008481F3E0EF16F1041CF4882351F002C048
:1038F000811107C0409100024B3F08F04AEF9E0142
:1039000002C09E0140E06091FF018091FE010E9493
:1039100093278FEFE81AF80A239696E0E916F10448
:10392000F1F60E94F81BF801848190E00196817005
:1039300099278483DF91CF911F910F91FF90EF9092
:1039400008958F929F92AF92BF92CF92DF92EF92A3
:10395000FF920F931F93CF93DF93EC014C81042FC1
:1039600010E09801D8010E94FA339B01AC010E943B
:1039700010346B017C01E0E2F0E0E01BF10BA5E507
:10398000B0E09B01AC010E9410344B015C019F012F
:10399000DF010E94F2339B01AC010E941B349B01AA
:1039A000AC012C0D3D1D4E1D5F1DC501B4010E94D3
:1039B000C333822FF22E99E2921728F093E0299FC9
:1039C000900111240DC025E530E0281B3109C90103
:1039D000880F991F280F391F37FF02C02F5F3F4FF5
:1039E00035952795122F10959BEEC92E91E0D92E73
:1039F00000E085E5E82EEF1801FD02C08E2D01C024
:103A00008F2D412F1B3F08F04AEF96016091FF0177
:103A10000E9493270F5F83E0C80ED11C063061F728
:103A20000E94F81B8C81811102C091E003C080329A
:103A300019F49FEF90931A0190911A01890F8C83CA
:103A4000DF91CF911F910F91FF90EF90DF90CF907A
:103A5000BF90AF909F908F9008950F931F93CF9337
:103A6000DF93CBEED1E0FE011182108212823396F9
:103A700081E0ED3FF807C1F700E010E08091E90137
:103A8000082E000C990B08171907ACF0809119014A
:103A9000082E000C990B801791076CF040910002E2
:103AA0004B3F08F04AEF9E016091FF018091FE01BB
:103AB0000E94932703C0198218821A820F5F1F4F3A
:103AC000239606301105D1F60E94F81B809118014B
:103AD0009091E901980F9093E90120911901280F25
:103AE00020931901121614F495301CF081958093DF
:103AF0001801DF91CF911F910F910895BF92CF923E
:103B0000DF92EF92FF920F931F93CF93DF93FC010D
:103B1000828180FF03C0DD24DA9402C0DD24D394C7
:103B20000BEE11E0C0E0D0E026E0B22EF8011182E9
:103B30001082128294E0E92EF12CC12C8091E801D0
:103B40008C0D87302CF06B2D0E948D33892F02C095
:103B500087FD8A5F082E000C990BC817D907A9F4B6
:103B6000809100028E9DA0018F9D500D11245595CE
:103B70004795559547954B3F08F04AEF980160915E
:103B8000FF018091FE010E949327CD0CF1E0EF1A16
:103B9000F108A1F621960D5F1F4FC630D10531F611
:103BA0000E94F81B8091E80191E0D91206C08111B2
:103BB00002C085E007C0815005C090E00196BE01BB
:103BC0000E94AF338093E801DF91CF911F910F9155
:103BD000FF90EF90DF90CF90BF900895EF92FF920B
:103BE0001F93CF93DF93EC018BEEE82E81E0F82E4C
:103BF00010E0409100024B3F08F04AEF8C819701A2
:103C00006091FF01810F0E949327165D83E0E80E0B
:103C1000F11C1C3F71F70E94F81B9A818C8190FF68
:103C200002C08F5F01C081508C83DF91CF911F91C3
:103C3000FF90EF90089580E090E00E94002C80E0DB
:103C400090E00E94EA2B10922D0310928C020E94A9
:103C50001726EAE9F2E086E0DF011D928A95E9F78E
:103C60001092940210929302109295020C9478296B
:103C7000CF92DF92FF920F931F93CF93DF936C014C
:103C80000091DF0180910202082BC7E0D0E010E034
:103C9000C8010C2E02C0959587950A94E2F780FD25
:103CA00004C02197A8F7F12C09C0FC2EB6018C2F77
:103CB0000E946C2E0E94DE23019799F38F2DDF91D5
:103CC000CF911F910F91FF90DF90CF900895CF93E8
:103CD000DF93EC010E94381EBE010E946C2E0E94F0
:103CE000DE23DF91CF910895FC01868197810097B3
:103CF00019F00E94DE2304C0808191810E94671E1A
:103D0000292F2F70E92FE295EF704E2F50E0FA0126
:103D10003297EE30F105B8F4E658FF4F0C94E533D6
:103D2000803F99F018F4883E70F40FC0843F59F436
:103D30000CC0883E50F0813F31F407C0822F869539
:103D400086958695089580E0089581E008959F9274
:103D5000AF92BF92CF92DF92EF92FF920F931F9399
:103D6000CF93DF93CDB7DEB765970FB6F894DEBF7C
:103D70000FBECDBF8C0185E0F801DE0151960190A8
:103D80000D928A95E1F7F801E28090913E026091F0
:103D90003F0240914102509142024115510531F0DC
:103DA0006F3F31F481E09F3F19F403C081E001C00F
:103DB00080E0F82FF1709F2E80FD4EC1F801308118
:103DC0002181C380D4807EE3A72E72E0B72EF090CD
:103DD0004002F601E41BF50BFF2009F4EFC08091CF
:103DE0004302E83CF10508F0AAC0482F407F09F0E3
:103DF0005AC062131BC0931319C0609144027091A2
:103E00004502F801468157816417750779F4FE2C45
:103E1000E1100CC08F70806180934302C5010E9445
:103E2000660B80914302F801858353C1CD2831F0A0
:103E30002F3F31F481E03F3F19F403C081E001C01E
:103E400080E080FD03C081E08E2502C080E090E02C
:103E5000F82FF170FF2E80FF1CC0809187024091E7
:103E60004602841709F413C190E0FC0153E0EE0F01
:103E7000FF1F5A95E1F7E95BFD4F5181251306C0FD
:103E80005081531303C05281E51203C0019687701D
:103E9000E8CFFE2CEE2009F41CC180914302816022
:103EA0008093430258C062130FC093130DC040911A
:103EB000440250914502F801268137814217530789
:103EC00019F4EE2009F4A7C0C8010E94741E8823CB
:103ED00081F1EE2071F120914302822F82958F7043
:103EE00090E00297A4F080913E0290913F029A8761
:103EF00089871B86DD86CC862E878091440290912F
:103F00004502988B8F87CE0109960E94660B88E048
:103F1000F801AEE3B2E001900D928A95E1F70E94BC
:103F2000BB260AC06217C9F0C8010E94741E811125
:103F300027C0C8010E94660BFF24F394CAC0482F13
:103F4000407F81F78EE392E00E94660B88E0F501E6
:103F500011928A95E9F7F12CBCC09313E5CF4091FB
:103F6000440250914502F8012681378142175307D8
:103F7000D9F6E110D9CF8583C8010E94660B66C0CF
:103F8000EE20B9F220914302822F82958F7090E04B
:103F900002970CF4BCCF80913E0290913F029A832D
:103FA00089831B82DD82CC822E8380914402909192
:103FB000450298878F83CE010196A7CFE83CF10593
:103FC00008F044C0FE2CEE2009F4B3CF621330C0D9
:103FD00093132EC02091440230914502F80186814E
:103FE00097812817390721F59091430290FD17C05A
:103FF000892F82958F70282F30E02115310579F0B7
:1040000095832F30310541F08F5F982F9295907FE7
:1040100085818F70892B8583C8010E94660B88E09B
:10402000F801AEE3B2E001900D928A95E1F751C03C
:10403000C8010E94741E81116ACF80914302816081
:1040400080934302C8010E94660B43C088E0F501DB
:1040500011928A95E9F73DC0EE2009F46ACFC801B4
:104060000E94741EF82E882309F463CF88E0F801BB
:10407000AEE3B2E001900D928A95E1F780913E02A5
:1040800090913F020E94671E0E94BB2622C0398B7E
:104090002A8B89899A890E94671E292F22952F7061
:1040A000223028F49F7039F0811105C00BC02430F4
:1040B00028F49F7049F4805E883020F0C8010E9487
:1040C000660B9F2CF92C05C0F8019581907F99F71C
:1040D000F9CF8F2D65960FB6F894DEBF0FBECDBF1A
:1040E000DF91CF911F910F91FF90EF90DF90CF90D4
:1040F000BF90AF909F9008959E3F61F1292F220FAE
:10410000920F890F682F669566956695982F977020
:1041100083E0689FB001112440E050E080E0FB01A3
:10412000E40FF51FE05DFD4F208130E0092E02C055
:10413000369527950A94E2F721703327042E01C0A3
:10414000220F0A94EAF7822B4F5F5F4F43305105ED
:1041500031F7089580E008959E3F51F1292F220FF5
:10416000920F890FE82FE695E695E695877051E066
:1041700001C0550F8A95EAF783E0E89FF00111240A
:10418000E05DFD4F20E030E070E04081CB01022E89
:1041900002C0969587950A94E2F7817081958427ED
:1041A0008523842781932F5F3F4F2330310569F7A3
:1041B00008958093DF010C941B1E21E030E001C0C4
:1041C000220F8A95EAF720958091DF0182230C94D3
:1041D000D92021E030E001C0220F8A95EAF78091D2
:1041E000DF01822B0C94D920809302020C941B1EB9
:1041F00010922C0386E0E8E3F2E0DF011D928A953D
:10420000E9F70C941B1ECF93DF93CDB7DEB7609711
:104210000FB6F894DEBF0FBECDBF29873A874B8714
:104220005C876D877E878F87988BCE0109960E9469
:10423000A71E811151C088E0FE013996DE0111965A
:1042400001900D928A95E1F779856A854C855D85A7
:104250004115510531F06F3F31F481E07F3F19F492
:1042600003C081E001C080E080FD36C0A09146021D
:10427000B0E0CD010196877099272091870230E048
:104280008217930781F179836A835D834C8393E07E
:10429000AA0FBB1F9A95E1F7A95BBD4F98E0FE01FD
:1042A000319601900D929A95E1F7809346020E9413
:1042B000B12612C028E0829FC0011124895B9D4F66
:1042C0000E94A71E8823E1F08091870290E001966A
:1042D0008770992780938702809187029091460288
:1042E0008913E8CF0DC00E94F82010924602109268
:1042F0008702EEE3F2E088E0DF011D928A95E9F79C
:1043000060960FB6F894DEBF0FBECDBFDF91CF91A0
:104310000895882321F00E9409260C9417260895F9
:10432000882339F090912D03892B80932D030C94D1
:1043300017260895882321F00E9410260C94172632
:104340000895882339F090912C03892B80932C03B6
:104350000C94172608958823A9F19CEF980F913AA1
:1043600060F4E6E3F2E09281891301C01282319693
:1043700092E0EC33F907B9F70DC090E2980F98304E
:1043800058F4877091E001C0990F8A95EAF7892F58
:104390000E9410260C9417269BE5980F933020F46A
:1043A00080E090E00C94002C98E5980F973120F471
:1043B00080E090E00C94EA2B803F20F00E94A2293C
:1043C0000C9478290895CF93882309F459C0C82FF5
:1043D0008CEF8C0F813AF8F4E8E3F2E08EE392E0A0
:1043E0002191C21721F08E179F07D1F70EC0E6E387
:1043F000F2E08CE392E02281C21301C01282319676
:104400008E179F07C1F70E9417266C2F86E392E054
:104410000E94D02B10C080E28C0F883078F4C770D7
:1044200081E090E001C0880FCA95EAF790912C03D3
:10443000892B80932C03CF910C941726EBE5EC0F7E
:10444000E33040F4F0E0ED5AFE4F808190E0CF91F0
:104450000C94002CE8E5EC0FE73150F4F0E0EE0F9F
:10446000FF1FEA5AFE4F80819181CF910C94EA2B75
:10447000C03F30F08C2F0E94692ACF910C9478298C
:10448000CF9108951F93CF93DF93182F893319F09D
:10449000C0E0D0E002C0C0E5D0E0812F0E94E3215F
:1044A000209741F08FE99FE00197F1F700C00000ED
:1044B0002197F6CF812FDF91CF911F910C94AB21E3
:1044C00080E008959091AC0192FF0DC0282F2871D3
:1044D000283019F4877F846006C0282F2471243087
:1044E00011F48B7F886093FF0DC0282F287128312D
:1044F00019F4877E846106C0282F2471243111F4B9
:104500008B7E88612091AD0120FF0DC0382F38715E
:10451000383019F4877F816006C0382F317131300F
:1045200011F48E7F886021FF0DC0282F287128315B
:1045300019F4877E816106C0282F2171213111F481
:104540008E7E886194FD877E0895F894E82FE29529
:10455000EF70F0E031A1282F2F7081E090E001C0D2
:10456000880F2A95EAF7982F9095932391A392A10B
:10457000892B82A3789408959F92AF92BF92CF9295
:10458000DF92EF92FF920F931F93CF93DF9300D0B0
:104590001F92CDB7DEB719821A821B8208E211E0A2
:1045A000AE014F5F5F4F7A015A01CC24C394D12CE6
:1045B000F80180818F3F09F441C0F894E82FE2951B
:1045C000EF70F0E021A18F70A60102C0440F551FCB
:1045D0008A95E2F7CA01922F982B91A392A1809518
:1045E000892382A3789400C0EBE2F1E0912C31E0C2
:1045F00021912F3F89F0A22FA295AF70B0E0909645
:104600008C9190E02F7002C0959587952A95E2F7DE
:1046100080FD02C0832F01C080E0982A330F51E053
:10462000EE32F50729F7F80180818F3F11F00E94E3
:10463000A522F0EAFA95F1F7F70190820F5F1F4F7C
:10464000FFEFEF1AFF0A21E00B32120709F0B0CF9B
:1046500043E050E0B5018EEA91E00E943C3401E075
:10466000009709F400E0892B91F089819A81AB8150
:104670008093AE019093AF01A093B00181E080934D
:1046800092020E949B2B90939102809390028091C2
:1046900092028823B1F080919002909191020E9441
:1046A000802B059770F08091AE018093C4018091BA
:1046B000AF018093C5018091B0018093C601109233
:1046C000920280911B0190911C01019651F110E022
:1046D00036E1932E1DC0989EF001999EF00D112495
:1046E000E05DFC4FC288D388C114D10419F428ECD2
:1046F000C22ED12C989E5001999EB00C1124C50158
:10470000805D9C4F7C01FC01868181110FC01F5F81
:10471000812F90E020911B0130911C01281739074F
:10472000D4F680911F01811111C038C0858596850E
:104730000E94802BC816D90650F7C7010E94692C29
:10474000C5018A5C9C4F0E94222CE1CF80912703F7
:1047500090912803009711F10E94802B2091A402D0
:104760003091A50228173907C8F49091250380914C
:104770002603981759F00E94AD2D1092A5021092B1
:10478000A402109228031092270308C00E942F2D24
:1047900010922803109227030E948E2D802F0F90D5
:1047A0000F900F90DF91CF911F910F91FF90EF909D
:1047B000DF90CF90BF90AF909F900895CF93DF93FD
:1047C0008238910569F1B0F48133910509F46FC025
:1047D00048F48932910509F465C08A32910509F4DB
:1047E0006BC08AC08533910509F457C089339105A0
:1047F000B9F082C0833E910571F138F4803E910595
:10480000B1F0823E910511F177C0863E9105B9F174
:10481000873E9105C9F1843E910509F06DC024C021
:104820002091AC0120FD53C021FD51C065C0809195
:10483000AC0180FD46C08091AD0180FF48C08091F1
:10484000AC0184FD50C183EE90E04FC18091AC017A
:1048500082FF3AC0F4CF8091AC0182FD35C08091D7
:10486000AD0180FD34C0EBCF8091AD0181FF35C03B
:104870008091AC0184FD37C187EE90E036C1809114
:10488000AC0183FF27C0F4CF8091AC0183FD22C02F
:104890008091AD0181FD21C0EBCF8091AC0185FD00
:1048A0001FC021C08091AC0185FD1DC019C0809141
:1048B000AC0186FD1BC01DC08091AC0186FD19C0F6
:1048C00015C089E390E011C182EE90E00EC180EE48
:1048D00090E00BC186EE90E008C184EE90E005C147
:1048E00089E290E002C185E390E0FFC08AE290E0B7
:1048F000FCC081E390E0F9C0811531E5930708F031
:1049000069C0811540E59407F0F09C0174E036958C
:1049100027957A95E1F7922F9370482F437021E005
:1049200030E002C0220F331F4A95E2F73C68392B72
:10493000982F9F709695969540E2949FC001112400
:10494000822B932BD2C0883E910568F5803E91055D
:1049500008F0CBC0883A9105B8F4853A910548F043
:10496000855AE82FF0E0ED5AFE4F808190E0906488
:10497000BCC08130910509F4B3C008F4B4C08430E0
:10498000910508F4B0C0B1C08F3B910508F0ABC0F1
:10499000885AE82FF0E0EE0FFF1FEA5AFE4F8081A1
:1049A00091819464A2C0811520E2920758F4811588
:1049B00031E0930708F099C0803F910508F493C057
:1049C000906593C0811540E4940708F48CC09F70F3
:1049D000906A8BC0811525E5920708F042C08115C9
:1049E00034E5930728F0982F8827846F906A7DC05C
:1049F000811543E59407B0F09C012370332741E013
:104A000050E002C0440F551F2A95E2F7282F269543
:104A1000269580E2289F90011124CA01822B932BB6
:104A20009A6863C0811522E5920728F4982F882799
:104A3000816F906A5AC09C012370332741E050E097
:104A400002C0440F551F2A95E2F7282F2695269578
:104A500080E2289F90011124CA01822B932B9C682D
:104A600044C0EC01811539E59307A8F481159845F8
:104A700028F09C2F8827806F906A37C0C11586E583
:104A8000D80788F58C2F0E9462228F7190E0982FB2
:104A9000882790622AC081152AE5920790F48C2F0E
:104AA0008F700E94622294E0D695C7959A95E1F79F
:104AB000CF70D0E0DC2FCC27D0699E01282BC90114
:104AC00014C090568115904270F48D2F8F710E9402
:104AD0006222282F2F71CE0199279062922B05C058
:104AE00081E090E002C080E090E0DF91CF910895F6
:104AF000CF9384E090E00E943D33C82F82E290E0A3
:104B00000E943D332C2F30E0A901582BCA01CF91D0
:104B1000089580E090E00E944B338A3E9E4F11F44E
:104B20000C94B11B80E008956AEE7EEF80E090E087
:104B30000E946F3360E082E090E00E94513360E0B9
:104B400083E090E00E9451331092020260E084E022
:104B500090E00E94513360E082E290E00E94513385
:104B600060E085E090E00E94513360E086E090E0F4
:104B70000E9451336FEF87E090E00E94513340E094
:104B800050E0BA0188E090E00E94633360E08DE07D
:104B900090E00E94513340E050E0BA0188E190E09B
:104BA0000E94633360E087E190E00E94513340E06F
:104BB00050E0BA018CE190E00E94633360E070E065
:104BC00080E290E00E946F3340E050E0BA0188E15B
:104BD00090E00E94633380E00E94841B0E94A21B2D
:104BE00040E050E0BA018FE090E00E94633340E083
:104BF00050E0BA0183E190E00C94633380918F021E
:104C0000882331F010928F0210928E0210928D0242
:104C10000895809590912D03892380932D03089505
:104C2000809590912C03892380932C030895909173
:104C30002C0380912D03892B90918C02892B8093DA
:104C4000360280918F02882311F10E949B2B2091C4
:104C50008D0230918E02821B930B8838934110F0A5
:104C60000E94FE259091360280918F02892B8093BD
:104C70003602E8E3F2E097E080E0915029F02191DC
:104C80002223D9F38F5FF9CF81110E94FE25E09195
:104C9000A003F091A103309731F00280F381E02D61
:104CA00086E392E00994089510928B0210928A0292
:104CB00010928902089520918B028095822380931F
:104CC0008B02982F977099F430E0482F082E000C33
:104CD000550B2417350759F09091AD0192FD07C08F
:104CE0008595859585950E94DD200C945426089520
:104CF000CF93C091AD01C2FB992790F9981799F015
:104D000080FBC2F9C093AD016091AC0184E090E0FA
:104D10000E9451336C2F82E290E00E94513382E076
:104D2000CF910C945B26CF9108959091AD0192FDA7
:104D300010C098E0899F90011124262B20938B02AC
:104D40000E94E9200E949B2B90938A028093890203
:104D500008950C94E92080918802811110928802B4
:104D600008958091870290914602891719F08F5F0C
:104D70008770FBCF08951F93CF93DF9380914302F9
:104D800082958F7009F05CC080914002882309F4FD
:104D900057C0809187021091460260913E02709147
:104DA0003F02C0914102D091420291E06F3F09F071
:104DB00090E0292F811709F443C0209721F07F3F0D
:104DC00021F030E003C031E001C0322F90E030FD2F
:104DD00034C0FC0133E0EE0FFF1F3A95E1F7DF012D
:104DE000A95BBD4F11963C911197371326C03C919A
:104DF000361323C012963C91129731111EC01396A0
:104E00004D915C9114974C1B5D0B483C5105A8F4E7
:104E1000809143028F70806180934302E45BFD4F79
:104E200080818F70806180838EE392E00E94660BA8
:104E3000DF91CF911F910C94B12601968770BACF64
:104E4000DF91CF911F9108959091FD0190FF0CC0CB
:104E5000EBEEF1E0818360834283339691E0ED3F96
:104E6000F907C1F70C94F81B08958091FD01282FD4
:104E7000269530E02115310519F48170826005C056
:104E80002532310524F0817088648093FD01809182
:104E900000028B3F18F08AEF809300020895CF92B2
:104EA000DF92EF92FF926B017C010E943527B701E0
:104EB000A60188E090E0FF90EF90DF90CF900C94F7
:104EC000633380910102882319F08150809301029D
:104ED0006091FD017091FE018091FF0190910002AF
:104EE0000C944F2780910102833018F48F5F8093D8
:104EF00001026091FD017091FE018091FF0190918E
:104F000000020C944F27EDEFF1E083E080831182E3
:104F10008FEF82838AEF8383148260817181828123
:104F200093810C944F27AF92BF92CF92DF92EF9272
:104F3000FF920F931F93CF93DF93E82EF62EE90194
:104F4000E42FF0E0611106C0E252FB4FE4914E2FD6
:104F50002E2F71C0062F10E0E252FB4F4491F42F28
:104F6000C42ED12C26E0829FC00111242FEF30E007
:104F7000B9010E949B335BEA5603C001579F900D15
:104F800011248E0D911D8E0D911D582F550F580F08
:104F9000D901A01BB10BAC9DC001AD9D900DBC9D76
:104FA000900D1124E92FF59ED0011124AB2FBB27C2
:104FB0007901EA1AFB0AEC9CD001ED9CB00DFC9C37
:104FC000B00D11245901A51AB108A09E7001A19E2F
:104FD000F00CB09EF00C1124EF2CFF242E193F0989
:104FE0002C9D80012D9D100D3C9D100D1124212F15
:104FF0006230710591F048F461157105E1F061309E
:105000007105B9F4242F4B2F16C06430710569F077
:1050100040F06630710579F00CC0242F492FE12F44
:105020000AC0492FEF2F2B2F06C0292FE42F412F25
:1050300002C0292FEB2F49832883EA83DF91CF9188
:105040001F910F91FF90EF90DF90CF90BF90AF90A6
:105050000895CF93DF9300D01F92CDB7DEB7909124
:10506000FD0190FF0DC04B3F08F04AEF9E012F5FFE
:105070003F4F0E9493274B8169818A810E94242798
:105080000F900F900F90DF91CF9108955F926F92E4
:105090007F928F929F92AF92BF92CF92DF92EF92C8
:1050A000FF920F931F93CF93DF9300D01F92CDB742
:1050B000DEB7082F762E142F622E9091FD0190FFFF
:1050C00074C0E92FE695AE2FB0E0AC57BE4F8C917F
:1050D0008093E6019E7F923081F44B3F08F04AEFC7
:1050E0009E012F5F3F4F672D802F0E9493274B819A
:1050F00069818A810E94242746C0823019F4109168
:10510000000241C0863019F40091FE013CC0893094
:10511000D9F38931C1F5E9518E2F8170582EE6956A
:10512000F0E0E252FA4FA590B4908BEEC82E81E0E9
:10513000D82EE12CF12CBB2496E0892E912CAE9C2C
:10514000C001AF9C900DBE9C900D1124B4010E9433
:105150009B33802F511002C0860F01C0861B412F48
:105160001B3F08F04AEF9601672D0E9493278FEFAF
:10517000E81AF80A83E0C80ED11C86E0E816F104AC
:10518000F1F60E94F81B0093FE017092FF0110934C
:105190000002662051F06091FD017091FE01809146
:1051A000FF01909100020E944F270F900F900F90E7
:1051B000DF91CF911F910F91FF90EF90DF90CF90F3
:1051C000BF90AF909F908F907F906F905F90089569
:1051D000EDEFF1E0438128E0421B08F440E021E0DC
:1051E000628181810C944628EDEFF1E0438128E053
:1051F000420F08F44FEF21E0628181810C94462830
:10520000EDEFF1E0628128E0621B08F460E021E04C
:10521000438181810C944628EDEFF1E0628128E022
:10522000620F08F46FEF21E0438181810C944628DE
:10523000EDEFF1E0818121E04381628188500C949F
:105240004628EDEFF1E0818121E043816281885FB2
:105250000C9446289091FD0190FF36C09170811109
:1052600002C0926006C0853210F0986402C0880FB8
:10527000982B9093FD01662351F06091FD01709190
:10528000FE018091FF01909100020E944F276091E2
:10529000FD01669570E04BE050E08DE091E00E94EA
:1052A0002F34892B19F01092E70102C00E94E21BF3
:1052B00081E08093E30120E0409100026091FF01D2
:1052C0008091FE010C94462808958091FD018695F9
:1052D000815009F484E261E00C942A298091FD0157
:1052E00086958F5F853208F081E061E00C942A2971
:1052F0000E949B2B20919C02211104C020919D02B1
:10530000222321F0909399028093980220919E028B
:10531000211104C020919F02222321F09093970233
:1053200080939602E091A003F091A103309749F099
:1053300082E080939A020480F581E02D8AE992E070
:1053400009940895803F39F480919D0287FF6AC0D7
:1053500010929D0267C0813F29F480919D0218162A
:10536000BCF360C090919C02823F29F497FF5AC021
:1053700010929C0257C0833F19F41916CCF352C007
:1053800090919E02893F31F419160CF04BC0109297
:105390009E0248C08A3F19F497FF44C0F8CF8B3F64
:1053A00039F480919F0287FF3DC010929F023AC05E
:1053B0008C3F29F480919F021816BCF333C0843FC0
:1053C00021F480919B028E7F17C0853F21F480914C
:1053D0009B028D7F11C0863F21F480919B028B7FC1
:1053E0000BC0873F21F480919B02877F05C0883FD7
:1053F00031F480919B028F7E80939B0213C08D3F7E
:1054000021F4809195028E7F0BC08E3F21F4809114
:1054100095028D7F05C08F3F29F4809195028B7F87
:105420008093950280919C02811106C080919D021B
:10543000811102C01092940280919E02811106C0D7
:1054400080919F02811102C0109293020895809171
:10545000950280FD16C081FD16C082FD18C08091A6
:105460009302882391F0883290F428E0829FC00153
:10547000112468E270E00E94AF33862F672B29F079
:1054800007C082E0089584E0089581E0089588E0EF
:1054900008958091950280FD14C081FD14C082FDA5
:1054A00016C080919402882381F0843180F422E335
:1054B000829FC001112464E170E00E94AF33862F07
:1054C00008958CE0089589E1089585E0089582E3C8
:1054D0000895803F21F40E94492A819504C0813FAC
:1054E00029F40E94492A80939D020895823F21F465
:1054F0000E94492A819504C0833F29F40E94492AC9
:1055000080939C020895893F19F40E94272A05C0C0
:105510008A3F31F40E94272A819580939E02089544
:105520008B3F21F40E94272A819504C08C3F29F4E7
:105530000E94272A80939F020895843F21F480913E
:105540009B02816017C0853F21F480919B0282609D
:1055500011C0863F21F480919B0284600BC0873F7D
:1055600021F480919B02886005C0883F31F48091CE
:105570009B02806180939B0208958D3F21F480916E
:10558000950281600BC08E3F21F48091950282606C
:1055900005C08F3F29F48091950284608093950225
:1055A00008958091CA01089524E02093E9002FEF27
:1055B0003091E800215035FD06C035ED3A95F1F700
:1055C00000002111F5CF2091E80025FF0BC040E03D
:1055D00050E066E070E00E94E6178091E8008E7768
:1055E0008093E8000895CF93DF9321E02093E900B2
:1055F0002FEF3091E800215035FD06C035ED3A958A
:10560000F1F700002111F5CF2091E80025FF14C02B
:10561000EC0140E050E068E070E00E94E617809105
:10562000E8008E778093E80088E0FE01ABECB1E003
:1056300001900D928A95E1F7DF91CF9108958093C3
:10564000A9037093AB036093AA038091D5018430C2
:10565000F9F48093E9008FEF9091E800815095FD77
:1056600006C095ED9A95F1F700008111F5CF809174
:10567000E80085FF0DC040E050E063E070E089EA9B
:1056800093E00E94E6178091E8008E778093E8000F
:10569000089587E797E790930108809300089AE0C0
:1056A00088E10FB6F894A895809360000FBE9093A0
:1056B0006000FFCF78941F920F920FB60F921124C3
:1056C0008F939F93AF93BF938091A5039091A6036F
:1056D000A091A703B091A8030196A11DB11D8093CD
:1056E000A5039093A603A093A703B093A803BF912B
:1056F000AF919F918F910F900FBE0F901F901895B3
:105700009C014FB7F8948091A5039091A603A091B6
:10571000A703B091A8034FBF821B930B08952FB727
:10572000F8946091A5037091A6038091A7039091CE
:10573000A8032FBF08952FB7F8948091A5039091E7
:10574000A603A091A703B091A8032FBF08951F92AD
:105750000F920FB60F9211248F939F93AF93BF9325
:105760008091A403811113C08091A5039091A60399
:10577000A091A703B091A8034196A11DB11D8093EC
:10578000A5039093A603A093A703B093A803BF918A
:10579000AF919F918F910F900FBE0F901F90189512
:1057A0009C01FC0132969FEF80E04191461789F001
:1057B0009F3F19F4411101C0982F8F5F8630A9F7E0
:1057C0009F3F39F0F901E90FF11D97FDFA956283CA
:1057D000089508952091A2033091A3032817390753
:1057E00071F09093A3038093A203E091A003F09142
:1057F000A103309721F00084F185E02D09940895EC
:1058000020919E0330919F032817390771F09093E0
:105810009F0380939E03E091A003F091A103309732
:1058200021F00680F781E02D09940895E091A0030E
:10583000F091A103309721F00190F081E02D0994BF
:1058400080E00895EF92FF920F931F93CF93DF9321
:10585000FC012285211136C0EC01E380F480F7E5DC
:10586000FF1A26E12E9DC0012F9D900D1124DC0111
:10587000A05DBC4F1496ED91FC9115978A5C9C4FEE
:10588000309729F054966D917C915597099586E152
:105890008E9D80018F9D100D1124005D1C4FF8011D
:1058A00087810E941026F80180850E9409260E94A7
:1058B0001726188219861B861E821D8210922F03BE
:1058C00010922E03DF91CF911F910F91FF90EF90D7
:1058D0000895CF93DF93FC01218921111CC0EC01B5
:1058E00081E0818B90912C038781892B80932C03FD
:1058F00090912D038085892B80932D030E9417267C
:10590000EA81FB81CE010696309729F06C897D896A
:10591000DF91CF910994DF91CF9108950F931F9359
:10592000CF93DF93C42FD22FFC0182818823C9F04B
:1059300040932B030E949B2B90932A03809329036F
:1059400080E28C0F883008F057C0C77081E001C03A
:10595000880FCA95EAF7DF91CF911F910F910C94B0
:10596000A12180912B03481330C08091290390918D
:105970002A030E94802B883C910538F510E21D0F08
:10598000CD17B9F080E28C0F883040F4C77081E009
:1059900001C0880FCA95EAF70E949A21183028F5AD
:1059A00081E09D2F977001C0880F9A95EAF70E94B9
:1059B000A121802F0E9442221830F0F4D77081E09C
:1059C00001C0880FDA95EAF70AC080E28C0F8830B0
:1059D00098F4C77081E001C0880FCA95EAF7DF919B
:1059E000CF911F910F910C949A21802FDF91CF912D
:1059F0001F910F910C944222DF91CF911F910F9133
:105A00000895BC014091250380912603942F981797
:105A100029F1292F30E0F901EE0FFF1FE35EFC4F63
:105A20000190F081E02DE617F70799F487E0869F53
:105A3000F001879FF00D1124E85FFC4F81E0848323
:105A400094130CC02F5F3F4F2370332720932503FF
:105A500008952F5F3F4F922F9370D9CF08950F93E2
:105A60001F93CF93DF938091A702882309F451C03D
:105A7000C091A6021CE08091A702C81708F045C09B
:105A800001E00C0F0093A602D0E01C9FF0011D9FC7
:105A9000F00D1124E855FD4F9081818123813481DF
:105AA000232B31F08F3F31F481E09F3F19F403C085
:105AB00081E001C080E080FD26C01C9FD0011D9FB9
:105AC000B00D1124A855BD4F16968D919C91179736
:105AD000892B31F418968D919C911997019651F468
