:100000000C94A0030C94E7030C94E7030C94E7030F
:100010000C94E7030C94E7030C94E7030C94E703B8
:100020000C94E7030C94E7030C940A230C94BF216F
:100030000C94B8250C94E7030C94E7030C94E703A5
:100040000C94E7030C94E7030C94E7030C94E70388
:100050000C94E7030C946B250C94E7030C94E703D2
:100060000C94E7030C94E7030C94E7030C94E70368
:100070000C94E7030C94E7030C94E7030C94E70358
:100080000C94E7030C94E7030C94E7030C94E70348
:100090000C94E7030C94E7030C94E7030C94E70338
:1000A0000C94E7030C94E7030C94E703B50BCF0B18
:1000B000D50B0D0C1E0C290C350C440C5F0C4C0C94
:1000C0005F0C5F0C5F0C540C471347137A137A13C1
:1000D0000B1429144F154F153414A814B914B9145E
:1000E000B428DB289B2ADB289B2A27294A299B2A1C
:1000F0004C2A5C2A502F502F632F632F592F632FC8
:10010000632F632F502F502F5E2F632F632F5E2F8F
:1001100000047F3F1F643214643214783C1E1E14A6
:100120000A05FD377A585A000004E6D6B4460200A4
:10013000210116000000742FE5A3E001AB00D35DA0
:10014000003D8889C65436C3174FE4E4589A4A3FA5
:10015000C20A7AEE5757119CD3EA8DFDB88D7BFE0B
:10016000EEBAF7A3930BFF3D2612832FAF32C8E5FB
:10017000DB4F0A43A5F92C492153E47669E89D2B0E
:100180001695472E0013CCD1B53DAB00D3D6841CB9
:10019000CBA71EA9404418D6D48635D0E3DE837E93
:1001A000500351209E37279FA2CB17EED2C4D21501
:1001B000C7D681FBD10DF775B32CEF0387A79B7DC5
:1001C000DFA011A72D0A0CDBDD53825DEA070236A2
:1001D000850BA7360F59EEBEE8C5788B9D6237CEEA
:1001E000129D323AB3F0052274AF52FF43F8331533
:1001F000BFBD52297619C6F65871D5923CCD99AB40
:1002000090E0D189337E154157DF8A7A6F7CED8E7D
:100210004D6132F70000981B9B508BED1B090001CC
:10022000EF01AC030000DE4CDC1CB1C467FB020034
:1002300000000004595A0001020304052223252668
:1002400028292A2C2D2F3032333536383A3B3D3E83
:100250004042434547494A4C4E5051535557595ACD
:100260005C5E6062646668696B6D6F7173757779E7
:100270007B7D7F81838587898A8C8E9092949698E6
:100280009A9C9E9FA1A3A5A7A8AAACAEAFB1B3B4F8
:10029000B6B8B9BBBCBEBFC1C2C3C5C6C7C9CACB4D
:1002A000CCCDCED0D1D2D2D3D4D5D6D7D7D8D9D918
:1002B000DADADBDBDBDCDCDCDCDCDDDDDDDDDCDC81
:1002C000DCDCDCDBDBDBDADAD9D9D8D7D7D6D5D49E
:1002D000D3D2D2D1D0CECDCCCBCAC9C7C6C5C3C26A
:1002E000C1BFBEBCBBB9B8B6B4B3B1AFAEACAAA8BF
:1002F000A7A5A3A19F9E9C9A98969492908E8C8A73
:1003000089878583817F7D7B79777573716F6D6B4D
:100310006968666462605E5C5A5957555351504E25
:100320004C4A4947454342403E3D3B3A38363533D7
:1003300032302F2D2C2A2928262523225F00600009
:1003400061005C005D005E0059005A005B00040023
:10035000050006000700080009000A000B000C0059
:100360000D000E000F001000110012001300140009
:10037000150016001700180019001A001B001C00B9
:100380001D00040005010902A10185020901A10067
:100390000509190129051500250195057501810239
:1003A0009501750381010501093009311581257F0A
:1003B00095027508810609381581257F9501750814
:1003C0008106050C0A38021581257F950175088183
:1003D00006C0C005010980A101850319012AB700E3
:1003E000150126B700950175108100C0050C0901A3
:1003F000A101850419012AA002150126A002950178
:1004000075108100C00660FF0961A1010962150035
:1004100026FF009520750881020963150026FF005C
:10042000952075089102C005010906A1010507196B
:10043000E029E715002501950875018102950175F0
:100440000881010507190029FF150026FF00950600
:1004500075088100050819012905950575019102A6
:10046000950175039101C00902BF00050100A0FAC2
:10047000090400000103010100092111010001220A
:1004800040000705810308000A0904010002030077
:10049000000009211101000122220007058203202A
:1004A0000001070503032000010904020001030005
:1004B00000000921110100012281000705840320A9
:1004C000000A080B030201010000090403000001F7
:1004D00001000009240100010900010409040400CD
:1004E000020103000007240100014100062402016B
:1004F0000100062402020200092403010301020193
:10050000000924030204010101000905060240005C
:1005100005000005250101010905850240000500CF
:1005200000052501010312010002000000086666B3
:1005300071660100010203011C037600690061007D
:100540006C003A006600360034006300320062003E
:100550003300630000001E035000390076003100B4
:1005600020004D006100630072006F002000500009
:100570006100640000000E03500061006200690029
:100580006C00650000000403090400010101010181
:10059000010101010202020202020202020303033C
:1005A000030303030304040404040404050505050C
:1005B00005060606060607070707070808080809CC
:1005C0000909090A0A0A0B0B0B0C0C0C0D0D0D0E78
:1005D0000E0E0F0F0F10101111111212131314140D
:1005E000151516161717181819191A1A1B1B1C1D82
:1005F0001D1E1E1F202021222223242425262627DB
:100600002829292A2B2C2D2D2E2F3031323233340C
:1006100035363738393A3B3C3D3E3F404142434412
:1006200045464748494A4C4D4E4F505153545556F4
:1006300058595A5B5D5E5F616264656668696B6CA0
:100640006D6F7072737577787A7B7D7E808283851B
:1006500087888A8C8E8F91939596989A9C9EA0A25B
:10066000A3A5A7A9ABADAFB1B3B5B7BABCBEC0C265
:10067000C4C6C9CBCDCFD1D4D6D8DBDDDFE2E4E729
:10068000E9EBEEF0F3F5F8FAFDFFFFAA7F55400025
:10069000000000000000000000000000000000005A
:1006A000000000000000000000000000000000004A
:1006B0000000007E0F00D4FFFFFFC700000078009D
:1006C000000000000000002A2B28000000000000AD
:1006D0000000000000000000000029000000002CC5
:1006E0001E3420212224342627252E362D37382764
:1006F0001E1F202122232425263333362E37381F70
:100700000405060708090A0B0C0D0E0F1011121331
:100710001415161718191A1B1C1D2F3130232D35CF
:100720000405060708090A0B0C0D0E0F1011121311
:100730001415161718191A1B1C1D2F3130354C00B3
:1007400011241FBECFEFDAE0DEBFCDBF04B603FE3B
:1007500027C08091150490911604A0911704B091C0
:1007600018048730904BA740B04BD1F41092150479
:1007700010921604109217041092180414BE84B735
:10078000877F84BF0FB6F894A89580916000886138
:1007900080936000109260000FBEE0E0F8E30995DE
:1007A00011E0A0E0B1E0EAE3F6E602C005900D92A8
:1007B000A23CB107D9F724E0A2ECB1E001C01D9240
:1007C000A531B207E1F70E94E9030C941B330C94A6
:1007D0000000CF93DF93CDB7DEB7E4970FB6F89460
:1007E000DEBF0FBECDBF84E0809367028FE78093AA
:1007F0006802809169028078806480936902E4ECE9
:10080000F1E08FEF8193DF01A95BBF4F1C9212E0F3
:10081000EC30F107B9F7109265021092660210925F
:100820006C0210926B021092390310923B031092EB
:100830003A0380EC8093FE038CE393E090930004F2
:100840008093FF031092FD031092FC031092190392
:100850001092180310921B0310921A0310921D039A
:1008600010921C0310921F0310921E03109221037A
:10087000109220031092230310922203109225035A
:10088000109224031092270310922603109229033A
:100890001092280310922B0310922A0310922D031A
:1008A00010922C0310922F0310922E0310923303F8
:1008B000109232038DEF94E290931503809314030A
:1008C00085E694E2909335038093340381E491E2CA
:1008D000909331038093300380E491E29093170367
:1008E0008093160384B7877F84BF0FB6F894A895CA
:1008F00080916000886180936000109260000FBE5C
:1009000090E080E80FB6F8948093610090936100C6
:100910000FBE85B7806885BF85B7806885BF8BE8C7
:1009200095E19093C3018093C2010E9403220E942B
:10093000A9228091E20084608093E2007894809103
:100940000A038823A1F01091E9001F709091EC0038
:10095000892F817090FD80E8182B1092E90080911A
:10096000E80083FD0E94CD271F701093E90082E00C
:1009700084BD93E095BD9AEF97BD80936E000E9471
:10098000D21E811102C00E94C31E86E60E94D015AD
:1009900087E90E94D01586EC0E94D01581E90E945B
:1009A000D01580E90E94D01584E90E94D01583E01B
:1009B000E4E7F2E0DF01182F1D921A95E9F7E6E56A
:1009C000F2E0DF011D928A95E9F70E944718811134
:1009D00002C00E94521882E090E00E941032809380
:1009E0006E020E94361890935502809354020E9422
:1009F000E715BFEFE6E7F1E0B150E040F040E1F786
:100A000000C000000E94E7158091740280FF08C0BA
:100A10006FEF7FEF80E090E00E9442320E945A2503
:100A200083E090E00E9410320E94372F809159029B
:100A3000811133C00E944718811104C00E945218CE
:100A40000E94182B88E090E00E9418326093E20226
:100A50007093E3028093E4029093E5026E7F71F459
:100A60000E94182B88E090E00E9418326093E20206
:100A70007093E3028093E4029093E5020E94CA2AF5
:100A80001092CC028091E20280FF04C060E0869563
:100A90000E94BF2C81E080935902E5E68E2EE2E0B1
:100AA0009E2E27E431E04AE451E0F2E66F2EF2E0B8
:100AB0007F2E61E070E08614970409F44EC0FA01BD
:100AC000A191AF018A2F82958F7090E0FC01F1A077
:100AD000AF70EA2E8B0101C0000FAA95EAF7F02F44
:100AE000F095FF22DC019196FC9291979296AC9141
:100AF000A02BFC01A2A3D901FD909D01EF2DE29551
:100B0000EF70F0E0B1A0BF2DBF70FB2E6B0101C0F4
:100B1000CC0CBA95EAF7DC2CD094DB20D1A2D2A081
:100B2000CD28C2A2DC0190968C9190E002C09595F0
:100B30008795EA94E2F78170E0A1F0E002C0F595B4
:100B4000E795FA94E2F7E0FF02C092E001C090E07E
:100B5000892BF30181933F01AECF80E091E0909328
:100B6000F2028093F1023324339480910A0385309A
:100B700009F077C000E112E180910A03853009F0A5
:100B80005BC080910A03843009F441C01092CC020A
:100B900080915B02811117C0F1E0F0935B028091BC
:100BA000E202982F917090935A028E7F8093E20216
:100BB0002FEF30E742E0215030404040E1F700C0E5
:100BC00000000E94191F1092F50268E170E080E4B5
:100BD0000FB6F894A895609360000FBE80936000F4
:100BE00083B7817F846083BF83B7816083BF78943C
:100BF000889583B78E7F83BF0FB6F894A8958091B0
:100C00006000886180936000109260000FBE809148
:100C10000903882309F4B0CF0E94E715809174027C
:100C2000811175C680917502811171C6809176021D
:100C3000882309F4A1CF6BC60E94672F0E94272644
:100C400010925B0280915A02882349F08091E2025F
:100C500081608093E20260E086950E94BF2C0E9432
:100C6000031F0E94E71581110E94A025E4E7F2E02E
:100C7000AFE6B2E000E010E0302F21919D91922785
:100C800021F180E0FF24F394492F4F21D1F089A76F
:100C90003AA72F2181E009F480E08BA70E94AC25C0
:100CA0008160782F9DA78CA749A55AA56BA58DA516
:100CB0000E944D30F801E159FD4F8081F826F08205
:100CC00019C08F5FFF0C8330F9F60F5F1F4F0330A1
:100CD000110591F68FEF8EA78FA718AA0E94AC2559
:100CE0008160782F9AAB89AB4EA55FA568A98AA9C8
:100CF0000E944D308091CC02882309F493C08091EA
:100D0000CB02E091E202E695E81BE093C702823055
:100D100059F4F0E0E25EFE4FE4910E2F10E07FE622
:100D2000E72E7CE1F72E59C0863059F4F0E0E55EFD
:100D3000FE4FE4910E2F10E06FE5E62E6CE1F62EEB
:100D40004CC0893061F4E695F0E0E85EFE4FE49136
:100D50000E2F10E05FE0E52E51E2F52E3EC08F3001
:100D600061F4E695F0E0EB5EFE4FE4910E2F10E0AB
:100D70004FE9E42E40E2F42E30C0853159F4F0E022
:100D8000EE5EFE4FE4910E2F10E03EE4E32E30E2E3
:100D9000F32E23C08831A1F0833249F4E0E1F1E081
:100DA000059114912FE1E22E2CE1F22E16C084322F
:100DB00071F000ED17E09FE7E92E9BE1F92E0DC0E1
:100DC00008E210E082ECE82E8FE1F82E06C004EF76
:100DD00011E0B5E8EB2EBFE1FB2E8091C80288231D
:100DE00061F01092C8020E94AC259093C6028093D5
:100DF000C5021092CA021092C9020E94AC25E0916D
:100E0000C502F091C6028E1B9F0B8F3F9F4750F487
:100E10000E0F1F1F1093C6020093C50285EC92E0CF
:100E2000F70109957FE5E72E72E0F72E0CE512E059
:100E300022E632E03CAB2BABE7E46E2EE1E07E2E07
:100E4000FAE48F2EF1E09F2E5901D12C212CA4E041
:100E50004A2E512CD5018D915D01E82FEE0FEE0F3A
:100E6000D4012D914D01A22FA295AF70B0E09096C4
:100E70008C9190E02F7002C0959587952A95E2F7A6
:100E80009C0121703327D3018D913D01A82FA2959C
:100E9000AF70B0E090964C9150E08F7002C05595C5
:100EA00047958A95E2F7CA018170992740FF02C0F1
:100EB00082E090E0822B932B8E2BEBA9FCA98193EF
:100EC000FCABEBAB8F70E82FF0E0E95CFE4F90815C
:100ED000D7018C91890F8C93843054F0F801808174
:100EE0008F5F808360E0822D0E94511E21E001C04F
:100EF00020E0D7018C918D3F4CF4F8018081815026
:100F0000808361E0822D0E94511E21E0D7018C91E7
:100F1000082E000C990BB2010E947A32F7018193DE
:100F20007F01D22A23940F5F1F4FF3E02F1292CF3D
:100F3000D1100E94A02586E0E9E0F4E08E010F5F69
:100F40001F4FD80101900D928A95E1F7C0900B04D4
:100F5000D0900C04E0900D04F0900E0410920B045D
:100F600010920C0410920D0410920E04C11003C0D4
:100F7000DD2009F44FC080910704909108040E947D
:100F800091259C0190910304992309F4DFC4233334
:100F9000310508F43FC09F3F19F09F5F9093030411
:100FA000CC2061F00E94DE2D1C1414F491E001C0ED
:100FB0009FEF899F802D112480930B04DD2061F029
:100FC0000E94DE2D1D1414F491E001C09FEF899F53
:100FD000802D112480930C0430910B043323D1F025
:100FE00020910C042223B1F045EB3403C0011124FD
:100FF000992319F090930B0402C030920B0465EB17
:101000002603C0011124992319F090930C0402C007
:1010100030920C04E11003C0FF2009F44FC080910E
:101020000504909106040E9491259C019091020470
:10103000992309F490C42536310508F43FC09F3F39
:1010400019F09F5F90930204EE2061F00E94BC2D86
:101050001E1414F491E001C09FEF899F802D11248C
:1010600080930D04FF2061F00E94BC2D1F1414F426
:1010700091E001C09FEF899F802D112480930E0481
:1010800030910D043323D1F020910E042223B1F0CE
:1010900075EB3703C0011124992319F090930D04C7
:1010A00002C030920D0435EB2303C00111249923B3
:1010B00019F090930E0402C030920E0480910B043C
:1010C00081110BC080910C04811107C080910D0427
:1010D000811103C080910E0481110E940D2DCB82DD
:1010E000DC82ED82FE8286E0F801A9E0B4E00190A6
:1010F0000D928A95E1F7E0913403F0913503309732
:1011000019F084E193E009952FB7F894E090FD037E
:101110009091FC03E91618F48091FE03E80EE91A99
:101120002FBFC12CD12CF12C43E0842E912CAA246A
:10113000A394B12C64E0562ECE14DF0408F0B4C0A2
:101140008091FC0390E06091FE0370E00E947A328F
:10115000E091FF03F0910004E80FF91F70806090A8
:10116000390347EF471560F43092390320E040E03F
:10117000672D81E090E00E9479266092390382C059
:1011800077FE4FC064E0661631F070923603B0927D
:101190003B03A0923A03872D0E943F24813031F017
:1011A00080F0823059F0833049F034C080933903A5
:1011B00020E040E0672D81E090E027C08093390374
:1011C00061C070EF7716E1F087EF781223C02091AD
:1011D0003A0330913B03C901B4010E946632FC011D
:1011E000EC5EFC4F72A2C901019690933B03809381
:1011F0003A0320913803409137036091360305C0CC
:10120000509239037092360333C00E9479261092AF
:10121000390338C01092390310923B0310923A03FD
:1012200031C0662079F120913A0330913B03C90126
:10123000B4010E946632AC01FC01EC5EFC4F72A26C
:10124000C901019690933B0380933A0341305105C5
:10125000A1F042305105B1F4209138034091370399
:10126000609136030E94792680913903843051F0D1
:10127000B0923B03A0923A0305C0A2E06A1202C0FA
:1012800020E0ECCF2FB7F8948091FC0390E001961A
:101290006091FE0370E00E947A328093FC032FBFBE
:1012A000BFEFCB1ADB0A48CF80916B0290916C02A2
:1012B0000E949125209169022695269526952F70EA
:1012C00030E08217930798F10E94AC2590936C024E
:1012D00080936B0280916602882349F190916802A5
:1012E000991F9927991F809169028770880F4091F3
:1012F000650261E0892B0E946626909166028091CA
:10130000650297FF0FC0282F30E0E92FFF27E195F6
:101310000CF4F0952E173F072CF4109265021092F2
:10132000660205C0890F87FD8FE7809365020E94E2
:10133000272690916D02891721F00E94272680931D
:101340006D0280910A038430F1F480911D018F7049
:101350008093E9009091E80090FF15C090910A03F6
:10136000943089F48093E9002091F3008091F20099
:1013700090E0922B892B39F08091E8008E77809352
:10138000E8000E94222280910A03843009F0EDCB0C
:1013900083E08093E9008091E80082FFE6CB8091B2
:1013A000E80085FF09C040E050E060E270E0C8015D
:1013B0000E94A12791E001C090E08091E8008B7726
:1013C0008093E800992309F4D0CBE090EA02F090F2
:1013D000EB028981E114F10461F08E3F09F06FC2E4
:1013E0008A81833008F4B5C18550833008F067C224
:1013F000B0C1893009F4E2C0D0F4843009F467C088
:1014000050F48230A1F108F053C0813009F055C288
:101410001A8289E03FC2863009F46BC008F45EC0CE
:10142000873009F469C0883009F4A8C046C2803109
:1014300009F42DC180F48D3009F4CBC028F48C3030
:1014400009F03BC280E127C18E3009F4C6C08F305D
:1014500009F4EEC032C2823109F41FC108F41AC186
:10146000833109F443C18E3F09F473C126C28A81D6
:10147000823009F462C2833051F0813009F01DC21C
:101480000E94A0259B838C837D836E8318C28091EC
:101490001A0190911B01892B09F411C280917402E9
:1014A0008B83809175028C83809176028D8307C235
:1014B0008A81823009F001C26B817C818D819E819D
:1014C0000E94B63286E290E00E942432F8C14C813C
:1014D0006B818A810E94071E9D8336C22D813E81C9
:1014E0003227232732274C816B818A810E946E1D0F
:1014F000E6C10E94A41DE3C18A818138B1F050F495
:10150000803809F0DCC120E04B816091E4028091D9
:10151000E30231C0823859F1833809F0D0C120E0AC
:101520004091E5026C818B8126C060E08B810E9436
:10153000BF2C9B818091E202911111C08E7F80931C
:10154000E2021092CC02FFEF20E732E0F15020409F
:101550003040E1F700C000000E94191FB0C1816057
:101560008093E20260E086950E94BF2CA8C18B8127
:101570008093E602A4C10E94DB2BA1C18A8181383D
:1015800091F030F4803809F09AC18091E50282C16F
:10159000823889F0833809F092C18091E3028B830D
:1015A0008091E40249C18091E20280FF02C08695E9
:1015B00071C180E06FC18091E6026CC16091E2026E
:1015C0007091E3028091E4029091E5020E94E42A86
:1015D00076C183E08A8381E65DC1EA80FB80FE24D8
:1015E000EF24FE24AC80B12C4DE1A416B10408F028
:1015F00066C16801C70181569F4F9601201B310BC0
:101600002A153B0508F05BC161E6E61663E0F606C5
:1016100030F40E941032D60114968C9302C0F60169
:101620001482FFEFEF1AFF0A2FEFC21AD20AE2CF9D
:1016300080911A0190911B01892B09F440C1EA8025
:10164000FB80FE24EF24FE24CC80D12C3DE1C31688
:10165000D10408F034C15801C70181569F4F95014C
:10166000201B310B2C153D0508F029C141E6E4167D
:1016700043E0F40628F4D50114966C910E942432BC
:10168000BFEFEB1AFB0AEFEFAE1ABE0AE5CF0E94DE
:10169000F61C15C184E08A8312C1EA80FB80FE2417
:1016A000EF24FE24AC80B12CFDE1AF16B10408F0AC
:1016B00006C16801C70187969601201B310B2A15C8
:1016C0003B0508F0FCC028E4E216F10430F40E9467
:1016D0001032D60114968C9302C0F6011482FFEFEB
:1016E000EF1AFF0A2FEFC21AD20AE4CFEA80FB807A
:1016F000FE24EF24FE24CC80D12C3DE1C316D1047E
:1017000008F0DDC048E4E416F10408F0D8C088E42D
:1017100090E08E199F098C159D0508F4D0C05801E2
:10172000C70187969501201B310B2C153D0508F04C
:10173000C6C068E4E616F10428F4D50114966C914D
:101740000E942432BFEFEB1AFB0AEFEFAE1ABE0A7B
:10175000E7CFEA818E2F90E08E30910508F0AFC080
:10176000FC01EA5AFF4F0C94B03288E0E9E2F1E064
:10177000DE01919601900D928A95E1F780E2D80101
:101780001D928A95E9F784E0898388E0FE01B1968D
:10179000DE01159601900D928A95E1F790C084E1E3
:1017A00089833A821B821C828AC08C8190E0982FA8
:1017B00088272B81820F911D092E000CAA0BBB0BD1
:1017C00035E0880F991FAA1FBB1F3A95D1F7AC01CE
:1017D000BD01405E5F4F6F4F7F4F481759076A0743
:1017E0007B0708F46CC08431E1E09E07A105B105D8
:1017F00008F065C04531F1E05F076105710520F033
:1018000044E151E060E070E0481B590BBC016E5DA3
:101810007E4FC8010E94073252C0FB80EC8040E03E
:101820006E2D8F2D0E943E1D99838A8341E06E2D7F
:101830008F2D0E943E1D9B838C8341C02E813F8152
:101840003227232732274D816C818B810E94061D10
:1018500036C040E250E06FEF70E0C8010E941433E0
:1018600080911A018983EA822AC081E090E09093F6
:10187000EB028093EA0282E390E0909373028093FC
:1018800072020E94AC251BC080911A018983EA82F2
:10189000809172028B8313C040E250E06FEF70E0E2
:1018A000C8010E9414330BC08B81811108C080E2F3
:1018B000D8011D928A95E9F702C08FEF8983809144
:1018C0000A03843009F051C98091E9008F7020919A
:1018D000EC00922F917020FD90E8F92EF82A82E01A
:1018E0008093E9008091E80080FF0CC040E050E068
:1018F00060E270E0C8010E9475278091E8008E7751
:101900008093E8008F2D8F708093E9002EC909BD68
:1019100019BD09B400FEFDCF8091D8008F7D809362
:10192000D8008091E00082608093E0008091E00028
:1019300081FDFCCF0E94672F1FC986E290E00E94C4
:1019400010321B821C821D828E83B9CF2D32314012
:1019500008F023CB5FCB2D32314008F072CBAECBF9
:101960008F929F92AF92BF92CF92DF92EF92FF92AF
:101970000F931F93CF93DF93CDB7DEB729970FB6A1
:10198000F894DEBF0FBECDBFFC0180819181238121
:101990003481232B31F09F3F31F491E08F3F19F4D4
:1019A00003C091E001C090E090FF02C00C94781554
:1019B0007F0185E0DE01119601900D928A95E1F795
:1019C000F701228189819A81222349F00E94832E86
:1019D000182F682F89819A810E94EF2E03C00E94E0
:1019E000BF2E182F69817A81812F0E94351E8C01AC
:1019F000F7019281992309F482C0980122513F4551
:101A00002031310508F097C08FEF93E00E9410322B
:101A100081117FC03EEED32ED00E0FE910E0DD2005
:101A200071F00115F4E01F0709F473C0C8010E94AA
:101A30001032811101C0DA940F5F1F4FF0CF1E8268
:101A40001F8218861986AA24AA9468012FEFC21A49
:101A5000D20AC8010E9410328E831F82882309F4A3
:101A600058C0813009F046C0480132E0830E911C15
:101A7000C6010E9410328F83882309F44AC09FEF69
:101A8000980F933060F4680183E0C80ED11CC40144
:101A90000E941032888781112DC08601D6CF8430F4
:101AA00011F06401FACFC4010E941032B82E68010F
:101AB00094E0C90ED11CC80103960E941032BB20CD
:101AC00041F1882331F1282F30E021503109A29EC5
:101AD000A001A39E500D11248B2D90E00197840F3F
:101AE000951F0197D0F2EFE9FFE03197F1F700C0C1
:101AF0000000F7CFCE0106960E942731CECF0031ED
:101B00003FE5130709F0EBC781E00E94202F0E94F8
:101B100033268091BB02877009F4EAC7F7018281FE
:101B2000882309F4E5C78091550282FDE1C782E070
:101B30000E941219DDC70031FFE51F0711F481E093
:101B400005C001312FE5120721F482E00E942C2FFD
:101B5000DECF0E3AFCE51F0708F067C10E392CE511
:101B6000120790F09923A9F20E598091680200FBA8
:101B700087F9809368020695077080916902887FD3
:101B8000082B00936902C5CF00393CE5130708F024
:101B9000ADC003388CE5180770F0992309F4B9CF6C
:101BA0000958802F8295807F009167020F70082B63
:101BB00000936702AECF0138ECE51E0708F06CC059
:101BC0000737FCE51F0750F0992309F4A2CF075708
:101BD000802F8F7000916702007FE9CF0F322CE5D4
:101BE000120708F43EC220916802822F881F8827BE
:101BF000881F409169024770440F482B822F8F77CE
:101C000021EDC22EC00ED12C992351F19091670283
:101C1000192F15951595159515951F529F702CE048
:101C2000929F100D1124100F212F2F774069E09102
:101C30001403F0911503082F63E070E084E193E052
:101C40000995F601EC53FE4FDF01A85BBF4F8C9165
:101C50008F5F8C9380818F3F09F05BCF108359CFCA
:101C6000F601EC53FE4F6F012081E85BFF4F90813E
:101C70009150908391114DCF2F774068E0911403DC
:101C8000F0911503082F63E070E084E193E009957B
:101C90008FEFF60180833DCF01383CE5130759F4FF
:101CA000992309F436CF20916702822F8F7009F4AF
:101CB00030CF815F13C002388CE5180709F0D1C11D
:101CC000992309F426CF20916702822F8F70482F25
:101CD00050E0493051050CF01CCF8F5F982F9F705A
:101CE000822F807F892B8093670213CF0C39ECE51C
:101CF0001E0708F058C00239FCE51F0788F0992339
:101D000009F407CF02598EE0089F002D1124802F7F
:101D10008F77009168020078082B00936802F9CE53
:101D200000392CE51207A1F4992309F4F2CE209191
:101D30006702822F85958595859585958B3F0CF457
:101D4000E8CE815F982F9295907F822F8F70CACFB7
:101D500001393CE5130709F084C1992309F4D9CE70
:101D600020916702822F859585958595859586308A
:101D70000CF0CFCE91E0980F9295907F9595959528
:101D800095959595392F3295307F2F70232B209381
:101D9000670218160CF0BDCE97FFBBCE8295807FF0
:101DA000922F9F709FCF0C398CE51807F9F4992377
:101DB00009F4AFCE90916802892F8F77282F30E0F9
:101DC0002115310509F4A5CE90788F3719F4892FA4
:101DD000856706C02D30310534F08D508F77892B03
:101DE0008093680296CE9093680293CE0D39ECE50D
:101DF0001E0709F036C1992309F48BCE20916802A1
:101E0000822F8F77482F50E04F37510509F481CE4C
:101E10004337510534F4835F982F9F77822F807862
:101E2000DECF2F672093680274CE043BFCE51F07CA
:101E300099F4992311F04FE701C040E090916802B6
:101E4000991F9927991F809169028770880F63E411
:101E5000892B0E9466265DCE053B2CE5120708F013
:101E60004CC0003B3CE5130779F4992309F451CEAB
:101E700090916802991F9927991F80916902877034
:101E8000880F40E06BE7E4CF013B8CE5180708F0D2
:101E90005AC00E3AECE51E0789F4992309F439CEAD
:101EA00030916802932F991F9927991F20916902F9
:101EB000822F8770880F892B815F15C00F3AFCE550
:101EC0001F0709F0CEC0992309F423CE3091680290
:101ED000932F991F9927991F20916902822F87704C
:101EE000880F892B8F5F982F9F7080FB37F9309375
:101EF00068029695822F887F22C0073BFCE51F076A
:101F000009F451C008F46DC0093BECE51E0709F463
:101F100079C008F091C0992309F4FBCD20916902A2
:101F2000822F8695869586958F7009F4F2CD815F14
:101F30008F70982F990F990F990F822F8778892B7F
:101F400080936902E6CD8091680220916902023B8C
:101F50003CE5130769F4992311F04FE701C040E015
:101F6000881F8827881F2770220F61E4822B71CF7A
:101F7000033B1C4560F4992311F04FE701C040E09A
:101F8000881F8827881F2770220F60E4EFCF9923CE
:101F900011F04FE701C040E0881F8827881F277095
:101FA000220F62E4E3CF992309F4B3CD8091690253
:101FB000282F2695269526952F7091E0920F9F70D9
:101FC000990F990F990F8778892B80936902982F21
:101FD000987709F09ECD220F220F220F8778822B4F
:101FE000AFCF053B3CE5130709F423CF063B8CE557
:101FF0001807B9F5992311F081E001C08FEF8093A4
:10200000660287CD992361F090916802991F992704
:10201000991F809169028770880F60E070EE1DC083
:1020200090916802991F9927991F80916902877082
:10203000880F60E070E011C00A3B2CE5120789F4BC
:10204000992371F390916802991F9927991F8091A4
:1020500069028770880F6FEF7FE1892B0E943E260F
:1020600058CD033F3CE5130799F406E221EE40EE1C
:1020700063EF7CE509C0073D2CE5120711F506E288
:1020800021EE41EE67ED7CE5C7010E94831C41CD46
:10209000043F8CE5180708F046C1083DECE51E0733
:1020A00031F407E225EE45EE68ED7CE5EDCF093D24
:1020B000FCE51F0701F708E221E045EE69ED7CE54C
:1020C000E3CF992309F464C11092EE020330FDE5D9
:1020D0001F0758F40A3F2CE5120760F4C80182502C
:1020E0009C45449708F03EC105C001363DE5130705
:1020F00009F038C10E94361890935502809354021B
:1021000000318CE5180709F4CAC008F041C0083056
:10211000ECE51E0709F4A4C0F0F404302CE5120726
:1021200009F48CC068F402308CE5180709F482C009
:1021300003301C4509F0E7C0809154028260E1C081
:102140000630ECE51E0709F483C008F085C08091D5
:1021500054028860D6C00C302CE5120709F490C0F8
:1021600068F40A308CE5180709F47EC008F084C0D2
:102170000E94672F809154028068C3C00E30ECE546
:102180001E0709F481C008F086C08091540294C0F3
:102190000C3F2CE5120709F47BC038F504318CE5BF
:1021A000180709F49AC058F40231ECE51E0709F447
:1021B0007AC008F07EC0809154028F7BA2C00A3F93
:1021C0002CE51207F1F108F03FC005311C4509F07C
:1021D0009AC08091540282FB222720F991E0922735
:1021E00090FB82F990FB83F98CC001159DE51907DE
:1021F00009F467C050F4809155020E3FFCE51F07BB
:10220000C1F108F05BC08D7F65C002303DE513076A
:1022100009F471C008F46DC001361D4509F073C0A2
:102220008091540284FB222720F991E0922790FBB1
:1022300084F967C080915402816063C08091540228
:1022400016C08091550216C080915502826042C02E
:1022500080915402806155C080915402806251C0C7
:102260008091540280644DC08091540288608460E3
:1022700048C0826081602EC0809154028E7F41C030
:10228000809154028D7F3DC080915402877F39C078
:102290008091550214C0809154028F7E32C080918B
:1022A00054028F7D2EC00E94672F809154028F7739
:1022B00028C080915402877F8B7F23C08D7F8E7FC3
:1022C00009C080915502982F909591708E7F892B2F
:1022D00090FB81F98093550216C00E94672F809170
:1022E000540287FB222720F991E0922790FB87F97F
:1022F00008C061E001C060E08EE090E00E942432FE
:1023000002C080935402609154021091550284E0FF
:1023100090E00E942432612F82E290E00E942432F9
:102320000E94672FF6CB053F3CE5130731F406E228
:1023300021EE42EE65EF7CE5A7CE053F8CE5180760
:1023400030F407E225EE44EE64EF7CE59DCE063FD7
:10235000ECE51E0709F0B5CE07E225EE46EE66EF86
:102360007CE592CE8091BE020631FCE51F0749F55F
:102370008A7A91E009F490E090937702882311F033
:1023800065E301C069E288E792E00E94E12516C09A
:1023900006311C4509F02EC180917702882309F48B
:1023A000A5C385E3E8E7F2E02EE732E092818913E6
:1023B00001C0128231962E173F07C1F70E94CE1836
:1023C000A8CB82720C3CECE51E0709F4C2C008F0F1
:1023D00045C0063C2CE5120709F4A7C0D8F4033C1D
:1023E0009CE5190709F497C030F4023CFCE51F078F
:1023F00009F46CC0CEC0043C2CE5120709F490C06F
:10240000053C3CE5130709F0C4C04DEA5CE266EB0D
:102410007CE2A3C0093C9CE5190709F490C078F45C
:10242000073CFCE51F0709F485C0083C2CE51207B2
:1024300009F0AFC041EA5CE265E97CE28EC00A3C8B
:102440003CE5130709F480C00B3C9CE5190709F033
:10245000A0C046EF5AE267E07BE27FC0013DECE5B9
:102460001E0709F486C0A0F40E3C2CE5120709F4FF
:102470007AC008F475C00F3C8CE5180709F476C0E3
:10248000003D9CE5190709F084C06EE089E079C041
:10249000043DECE51E0709F472C068F4023D2CE52A
:1024A000120709F469C0033D3CE5130709F071C048
:1024B00061E088E16BC0053D8CE5180709F464C054
:1024C0000D359DE5190709F424CB63C08091E20224
:1024D00080FF1BC08E7F8093E2026091E2027091C8
:1024E000E3028091E4029091E5020E94E42A1092B6
:1024F000CC02EFEFF0E722E0E150F0402040E1F7BE
:1025000000C000000E94191F04CB81608093E2028A
:1025100061E086953BC04AEF5CE263E07DE21DC06E
:1025200043E05DE26AEF7CE218C046EB5CE26DEAF4
:102530007CE213C045E95CE261EA7CE20EC04DE753
:102540005CE269E87CE209C049E85CE26DE77CE2B4
:1025500004C047E05BE266EF7AE20E94FD1ED9CA42
:1025600061E081E013C065E082E00BC068E086E0D6
:1025700008C064E18FE005C067E185E102C062E266
:1025800089E10E94EB1EC5CA61E083E20E94BF2C74
:10259000C0CA0A353DE5130741F150F401159CE529
:1025A0001907A9F00E3D1C4529F50E945218B1CA21
:1025B0000B35FDE51F07D9F00C351D45D9F4809189
:1025C000550282FB882780F991E0892711C00E947B
:1025D000672F3FEF84E39CE0315080409040E1F76B
:1025E00000C000000E945A2594CA81E001C080E02A
:1025F0000E942F19F701828100811181882349F0FF
:10260000C8010E94832ED82E682FC8010E94EF2E89
:1026100004C0C8010E94BF2ED82EB8018D2D0E9483
:10262000351E0E949C16C82E192FA82EF701028174
:10263000D580D2949FE0D9228091BB028770B9F0F7
:102640000023A9F0812F807F803421F080E28C0D5F
:10265000883068F08091550282FD09C082E00E94B6
:1026600012198091BB028770BB24B3948111B12CE5
:10267000912E92948FE09822892D90E08C309105D4
:1026800008F00DC2FC01EC59FF4F0C94B032812FC1
:10269000807F1F70882311F01295107F0023B9F0FE
:1026A000112309F4E9C180E28C0D883010F0A110EB
:1026B00006C08091BE02182B1093BE0205C0809107
:1026C000BD02182B1093BD020E94CE18D5C18C2DCF
:1026D0000E94982F112309F4E2C180E28C0D88300A
:1026E00088F1AA2079F110958091BD0218231093EA
:1026F000BD022BC0812F807F1F70803211F0129598
:10270000107F8C2DAA2029F0F1E0AF1609F45EC0ED
:1027100069C08091550282FF1BC0002369F011231C
:1027200039F08091BE02182B1093BE020E94CE1881
:1027300080E00E94D02FB3C180E00E94982F112327
:1027400009F4ADC1812F0E94C7180E94CE18A7C1FD
:10275000002331F1DD20F1F021E0D2120FC0809191
:10276000C102182B181709F49AC10E94AC25909346
:10277000C0028093BF021093C10291C135E0D31211
:1027800009C00E94BC188091B8021817A9F11093D3
:10279000B80232C08091C102812B0E948E2F7FC16E
:1027A000DD2051F081E0D8120DC08091BE0281235E
:1027B00009F475C10E9462190E94BC18812F0E9401
:1027C000872F6DC195E0D912F7CF69C1002329F099
:1027D000E5E0ED1508F463C10FC0F4E0FD1508F461
:1027E0005EC1ECCF002351F0DD2031F0F70185818F
:1027F00080FF42C18F708583812FCFCFDD20F1F222
:10280000893309F049C1FFEF27EE33E0F150204052
:102810003040E1F73FC1812F86958695837019F08E
:10282000813061F03CC1002321F08C2D912F9370F9
:1028300002C080E090E00E94112637C1002321F001
:102840008C2D912F937002C080E090E00E94FB25B8
:102850002CC18C2D002319F00E94FE2D02C00E9475
:10286000372D0E940D2D21C1812F8370A9F50111F3
:102870001AC14C2D429546954770440F440F8C2D3C
:102880008F7090E09C01042E01C0220F0A94EAF799
:10289000C4FE08C08FE090E001C0880F4A95EAF7B7
:1028A000809501C080E0169516951370123069F07E
:1028B00088F49091E702113019F0822B892302C02D
:1028C000922B892B0E94372FEEC0822B9091E7022A
:1028D0008927F8CF822BF6CF002319F0812F817042
:1028E00001C08695882309F4DEC04C2D429546959B
:1028F0004770440F440F8C2D8F7090E09C01042E84
:1029000001C0220F0A94EAF7C4FE08C08FE090E0ED
:1029100001C0880F4A95EAF7809501C080E01695BE
:1029200016951370123059F078F49091010411301B
:1029300019F0822B892309C0922B892B06C0822B88
:1029400090910104892701C0822B0E941C2FABC0EB
:102950001F70002339F0812F0E942C2F8C2D0E9494
:102960008E2FA1C08C2D0E94872F812F0E94202F97
:102970009AC08C2D92EFA91689F19A1538F0E0EFE4
:10298000AE1659F0F1EFAF1611F171C023EFA21698
:1029900061F134EFA316B9F06AC0002379F084E046
:1029A0008D1508F47CC01F7181E090E001C0880F94
:1029B0001A95EAF790910104892721C095E09D15A9
:1029C00008F46DC0F0CF8091550282FF1BC0002338
:1029D00039F0812F8F710E942C2F61C00023C9F321
:1029E000812F8F710E94202F5AC0002339F01F7150
:1029F00081E001C0880F1A95EAF701C080E00E94CB
:102A00001C2F4DC00023D9F08091B8020E94C71836
:102A10008091BB028770843039F40E940B19812F9A
:102A20008F710E94202F59C0E4E0ED1508F455C0C5
:102A30001F71812F0E942C2F63E0812F11C0909174
:102A4000BE028091B802892B8093BE02F4E0FD158E
:102A500050F40E940B190E94621964E0812F8F715B
:102A60000E944C193AC081E00E94121936C000231E
:102A700029F0DD2009F4ADCF8C2D5BCEDD2009F4EB
:102A8000AFCF893349F42FEF37EE83E02150304048
:102A90008040E1F700C000008C2D0E94982F88EF45
:102AA000890D843010F40E942726BB2009F1809103
:102AB000BB0280FD1DC0F701128285958595859525
:102AC0000E942C2FC7010E94B00C8091BB028595FB
:102AD000859585950E94202F0BC0B12CE4CF013144
:102AE0008FE5180709F035C882E00FC889E25ACC93
:102AF00029960FB6F894DEBF0FBECDBFDF91CF9100
:102B00001F910F91FF90EF90DF90CF90BF90AF900B
:102B10009F908F90089580E008959091540292FFC5
:102B20000DC0282F2871283019F4877F846006C0D3
:102B3000282F2471243011F48B7F886093FF0DC0FF
:102B4000282F2871283119F4877E846106C0282F28
:102B50002471243111F48B7E88612091550220FF6D
:102B60000DC0382F3871383019F4877F816006C066
:102B7000382F3171313011F48E7F886021FF0DC004
:102B8000282F2871283119F4877E816106C0282FEB
:102B90002171213111F48E7E886194FD877E089524
:102BA000F894E82FE295EF70F0E031A1282F2F7014
:102BB00081E090E001C0880F2A95EAF7982F909560
:102BC000932391A392A1892B82A3789408959F9235
:102BD000AF92BF92CF92DF92EF92FF920F931F932B
:102BE000CF93DF9300D01F92CDB7DEB719821A8240
:102BF0001B8201E311E0AE014F5F5F4F7A015A0182
:102C0000CC24C394D12CF80180818F3F09F441C0BA
:102C1000F894E82FE295EF70F0E021A18F70A60103
:102C200002C0440F551F8A95E2F7CA01922F982BD4
:102C300091A392A18095892382A3789400C0E4E3B4
:102C4000F1E0912C31E021912F3F89F0A22FA29544
:102C5000AF70B0E090968C9190E02F7002C0959587
:102C600087952A95E2F780FD02C0832F01C080E09E
:102C7000982A330F51E0E733F50729F7F8018081EF
:102C80008F3F11F00E94D015F0EAFA95F1F7F701A5
:102C900090820F5F1F4FFFEFEF1AFF0A41E00433EE
:102CA000140709F0B0CF43E050E0B50186E592E0AB
:102CB0000E94073311E0009709F410E0892B91F08E
:102CC00089819A81AB818093560290935702A09399
:102CD000580281E08093C4020E94AC259093C30205
:102CE0008093C2028091C4028823B1F08091C20215
:102CF0009091C3020E949125059770F08091560231
:102D000080937402809157028093750280915802DB
:102D1000809376021092C402812F0F900F900F9033
:102D2000DF91CF911F910F91FF90EF90DF90CF90A7
:102D3000BF90AF909F900895CF93DF938238910515
:102D400069F1B0F48133910509F46FC048F4893218
:102D5000910509F465C08A32910509F46BC08AC0F7
:102D60008533910509F457C089339105B9F082C0C4
:102D7000833E910571F138F4803E9105B1F0823EB9
:102D8000910511F177C0863E9105B9F1873E910515
:102D9000C9F1843E910509F06DC024C02091540210
:102DA00020FD53C021FD51C065C08091540280FDBB
:102DB00046C08091550280FF48C08091540284FD36
:102DC00050C183EE90E04FC18091540282FF3AC01F
:102DD000F4CF8091540282FD35C08091550280FD70
:102DE00034C0EBCF8091550281FF35C080915402F1
:102DF00084FD37C187EE90E036C18091540283FF95
:102E000027C0F4CF8091540283FD22C080915502E7
:102E100081FD21C0EBCF8091540285FD1FC021C0F0
:102E20008091540285FD1DC019C08091540286FD19
:102E30001BC01DC08091540286FD19C015C089E3D6
:102E400090E011C182EE90E00EC180EE90E00BC1E7
:102E500086EE90E008C184EE90E005C189E290E042
:102E600002C185E390E0FFC08AE290E0FCC081E30C
:102E700090E0F9C0811531E5930708F069C081152C
:102E800040E59407F0F09C0174E0369527957A951B
:102E9000E1F7922F9370482F437021E030E002C099
:102EA000220F331F4A95E2F73C68392B982F9F7009
:102EB0009695969540E2949FC0011124822B932B06
:102EC000D2C0883E910568F5803E910508F0CBC0E0
:102ED000883A9105B8F4853A910548F0855AE82F6B
:102EE000F0E0E35BFE4F808190E09064BCC08130F5
:102EF000910509F4B3C008F4B4C08430910508F416
:102F0000B0C0B1C08F3B910508F0ABC0885AE82F24
:102F1000F0E0EE0FFF1FE05BFE4F80819181946433
:102F2000A2C0811520E2920758F4811531E0930781
:102F300008F099C0803F910508F493C0906593C054
:102F4000811540E4940708F48CC09F70906A8BC090
:102F5000811525E5920708F042C0811534E59307F5
:102F600028F0982F8827846F906A7DC0811543E5EB
:102F70009407B0F09C012370332741E050E002C079
:102F8000440F551F2A95E2F7282F2695269580E2B3
:102F9000289F90011124CA01822B932B9A6863C049
:102FA000811522E5920728F4982F8827816F906A6F
:102FB0005AC09C012370332741E050E002C0440F07
:102FC000551F2A95E2F7282F2695269580E2289FFF
:102FD00090011124CA01822B932B9C6844C0EC0100
:102FE000811539E59307A8F48115984528F09C2FA1
:102FF0008827806F906A37C0C11586E5D80788F5A5
:103000008C2F0E948D158F7190E0982F88279062E9
:103010002AC081152AE5920790F48C2F8F700E94A8
:103020008D1594E0D695C7959A95E1F7CF70D0E0CD
:10303000DC2FCC27D0699E01282BC90114C09056E3
:103040008115904270F48D2F8F710E948D15282F5D
:103050002F71CE0199279062922B05C081E090E0FC
:1030600002C080E090E0DF91CF910895CF9384E09B
:1030700090E00E941032C82F82E290E00E9410324D
:103080002C2F30E0A901582BCA01CF91089580E080
:1030900090E00E941E328A3E9E4F11F40C94D21E84
:1030A00080E008956AEE7EEF80E090E00E94423278
:1030B00060E082E090E00E94243260E083E090E0F3
:1030C0000E9424321092E70260E084E090E00E94C7
:1030D000243260E082E290E00E94243260E085E0E9
:1030E00090E00E94243260E086E090E00E9424326A
:1030F0006FEF87E090E00E94243240E050E0BA0198
:1031000088E090E00E94363260E08DE090E00E941E
:10311000243240E050E0BA0188E190E00E9436326B
:1031200060E087E190E00E94243240E050E0BA0184
:103130008CE190E00E94363260E070E080E290E046
:103140000E94423240E050E0BA0188E190E00E94E3
:10315000363280E00E94A51E0E94C31E40E050E06F
:10316000BA018FE090E00E94363240E050E0BA01B0
:1031700083E190E00C9436328091C102882331F0D3
:103180001092C1021092C0021092BF020895809561
:103190009091BE0289238093BE0208959091BE0251
:1031A0008091BD02892B9091BC02892B809378027B
:1031B0008091C102882311F10E94AC252091BF02A9
:1031C0003091C002821B930B8838934110F00E940B
:1031D000BC18909178028091C102892B809378026B
:1031E000EAE7F2E097E080E0915029F02191222374
:1031F000D9F38F5FF9CF81110E94BC18E091F102E1
:10320000F091F202309731F00280F381E02D88E7EF
:1032100092E0099408951092BB021092BA021092A3
:10322000B90208952091BB02809582238093BB024E
:10323000982F977099F430E0482F082E000C550B0A
:103240002417350759F09091550292FD07C08595D6
:10325000859585950E94202F0C940B190895CF9386
:10326000C0915502C2FB992790F9981799F080FBFD
:10327000C2F9C09355026091540284E090E00E942C
:1032800024326C2F82E290E00E94243282E0CF91BF
:103290000C941219CF9108959091550292FD10C08F
:1032A00098E0899F90011124262B2093BB020E9455
:1032B0002C2F0E94AC259093BA028093B9020895F6
:1032C0000C942C2F8091B80281111092B8020895AD
:1032D0008091B70290918602891719F08F5F8770ED
:1032E000FBCF08950F931F93CF93DF9380918502B7
:1032F00082958F7009F05DC080918202882309F465
:1033000058C08091B702109186026091800270913E
:103310008102C0918302D091840291E06F3F09F055
:1033200090E0292F06E0811709F443C0209721F08F
:103330007F3F21F030E003C031E001C0322F90E048
:1033400030FD34C0089FF001099FF00D1124DF010A
:10335000A957BD4F11963C911197371327C03C9147
:10336000361324C012963C91129731111FC0139648
:103370004D915C9114974C1B5D0B483C5105B0F48A
:10338000809185028F70806180938502E457FD4FA4
:1033900080818F708061808380E892E00E94B00C11
:1033A000DF91CF911F910F910C946819019687704E
:1033B000BACFDF91CF911F910F9108959F92AF9255
:1033C000BF92CF92DF92EF92FF920F931F93CF9312
:1033D000DF93CDB7DEB761970FB6F894DEBF0FBEAF
:1033E000CDBF8C0185E0F801DE011D9601900D92A4
:1033F0008A95E1F7F801E280909180026091810264
:1034000040918302509184024115510531F06F3F84
:1034100031F481E09F3F19F403C081E001C080E0F6
:10342000F82FF1709F2E80FD1AC1F80130812181A3
:10343000C380D48080E8A82E82E0B82EF09082026B
:10344000F601E41BF50BFF2009F4C6C0809185024C
:10345000E83CF10508F091C0482F407F09F050C0CA
:10346000621311C093130FC0FE2CE1100CC08F70BB
:10347000806180938502C5010E94B00C8091850215
:10348000F801858329C1CD2831F02F3F31F481E047
:103490003F3F19F403C081E001C080E080FD03C01C
:1034A00081E08E2502C080E090E0F82FF170FF2EC1
:1034B00080FF1CC08091B7024091860256E08417BD
:1034C00009F4E8C090E0589FF001599FF00D1124D5
:1034D000E957FD4F6181261306C06081631303C065
:1034E0006281E61203C001968770E9CFFE2CEE20C0
:1034F00009F4F2C08091850281608093850249C001
:10350000621306C0931304C0E11002C0F80186C024
:10351000C8010E943B2F882351F1EE2041F12091F8
:103520008502822F82958F7090E0029774F08091CF
:1035300080029091810298878F831986DB86CA86E4
:103540002C87CE0107960E94B00C86E0F801A0E817
:10355000B2E001900D928A95E1F70E9472190AC0BB
:103560006217C9F0C8010E943B2F81111EC0C8011B
:103570000E94B00CFF24F394AFC0482F407F81F726
:1035800080E892E00E94B00C86E0F50111928A95E5
:10359000E9F7F12CA1C09313E5CFE110E3CFF801D7
:1035A0008583C8010E94B00C54C0EE2001F3209125
:1035B0008502822F82958F7090E0029734F280917D
:1035C0008002909181029A8389831B82DD82CC8262
:1035D0002E83CE010196B7CFE83CF105D0F5FE2C45
:1035E000EE2029F2621327C0931325C02091850293
:1035F00020FD18C0822F82958F70482F50E0411512
:10360000510581F0F80125834F30510541F08F5F5E
:10361000982F9295907F822F8F70892B8583C80178
:103620000E94B00C86E0F801A0E8B2E001900D9293
:103630008A95E1F751C0C8010E943B2F811185CFC7
:1036400080918502816080938502C8010E94B00C40
:1036500043C086E0F50111928A95E9F73DC0EE205E
:1036600009F485CFC8010E943B2FF82E882309F466
:103670007ECF86E0F801A0E8B2E001900D928A9535
:10368000E1F780918002909181020E94B22E0E9407
:10369000721922C03D872E878D859E850E94B22E8D
:1036A000292F22952F70223028F49F7039F0811134
:1036B00005C00BC0243028F49F7049F4805E883028
:1036C00020F0C8010E94B00C9F2CF92C05C0F80115
:1036D0009581907F99F7F9CF8F2D61960FB6F89469
:1036E000DEBF0FBECDBFDF91CF911F910F91FF9035
:1036F000EF90DF90CF90BF90AF909F900895089586
:103700000F931F93CF93DF9300D000D01F92CDB7BC
:10371000DEB78C019093E9028093E802011580E204
:10372000180738F5802F0E94982FC801805E9109F4
:10373000089718F00115110571F4C8010E94DA31DB
:103740000F900F900F900F900F90DF91CF911F91DE
:103750000F910C94872FC8010E94DA310F900F90BF
:103760000F900F900F90DF91CF911F910F910C94BC
:10377000722F8EEF89838A831B820E94AC25816021
:10378000782F9D838C8349815A816B818D810E9422
:103790004D300F900F900F900F900F90DF91CF91C1
:1037A0001F910F9108950F931F93CF93DF9300D034
:1037B00000D01F92CDB7DEB78C019093E9028093C1
:1037C000E802011580E21807F8F4C801805E91094B
:1037D000089718F00115110531F4C8010E94DA317B
:1037E0000E948E2F05C0C8010E94DA310E947D2FF1
:1037F000802F0F900F900F900F900F90DF91CF912F
:103800001F910F910C94D02F8EEF89838A8381E0D2
:103810008B830E94AC258160782F9D838C834981A6
:103820005A816B818D810E944D300F900F900F90C7
:103830000F900F90DF91CF911F910F9108950F93EB
:103840001F93CF93DF9300D01F92CDB7DEB78C01CB
:103850008091CF0281110AC09E012F5F3F4F4AEF36
:103860006FEF0E94282B8A818093CF02F801848118
:10387000813051F028F0823061F44091CF020AC0CB
:103880008091CF0240E007C06091CF0240E080E02D
:1038900003C040E080E060E00E94B92AF801848122
:1038A00090E0019663E070E00E947A3284830F908A
:1038B0000F900F90DF91CF911F910F910895CF93AB
:1038C000DF93EC01E2EEF2E0438162818C810E94A1
:1038D000BE2B8C818F5F8C83DF91CF910895CF9326
:1038E000DF93EC01EC81F0E0E45CFD4F4491E2EE0B
:1038F000F2E0628181810E94BE2B8C818F5F8C837C
:10390000DF91CF9108950F931F93CF93DF93C42F2F
:10391000D22FFC0182818823C9F04093EE020E94DD
:10392000AC259093ED028093EC0280E28C0F8830FE
:1039300008F057C0C77081E001C0880FCA95EAF748
:10394000DF91CF911F910F910C948E2F8091EE02F9
:10395000481330C08091EC029091ED020E949125B5
:10396000883C910538F510E21D0FCD17B9F080E2C3
:103970008C0F883040F4C77081E001C0880FCA9571
:10398000EAF70E94872F183028F581E09D2F977065
:1039900001C0880F9A95EAF70E948E2F802F0E940F
:1039A0002F301830F0F4D77081E001C0880FDA951D
:1039B000EAF70AC080E28C0F883098F4C77081E083
:1039C00001C0880FCA95EAF7DF91CF911F910F913F
:1039D0000C94872F802FDF91CF911F910F910C9422
:1039E0002F30DF91CF911F910F910895CF93DF93E7
:1039F000CFE9D0E060E0CE010E9424322196C115CB
:103A000084E0D807B9F7DF91CF9108950F931F9302
:103A1000CF93DF93843068F5633058F5423048F532
:103A200021159CE5390731F4E0911A01F0911B0151
:103A3000EF2BF9F08901282F34E0639FC001112496
:103A40003CE0239F800D911D1124840F911D840F54
:103A5000911DEC01C159DF4F612FCE010E9424322C
:103A6000602FCE010196DF91CF911F910F910C94A1
:103A70002432DF91CF911F910F9108950F931F93DF
:103A8000CF93DF93843018F5633008F54230F8F4B3
:103A9000282F34E0639FC00111243CE0239F800D58
:103AA000911D1124840F911D840F911DEC01C159AA
:103AB000DF4FCE010E94103290E0182F0027CE0178
:103AC00001960E9410329801282BC90102C080E0A3
:103AD00090E0DF91CF911F910F9108950F931F9365
:103AE000CF93DF93843058F5633048F5433038F591
:103AF00021159CE5390731F4E0911A01F0911B0181
:103B0000EF2BE9F08901C42FD0E0CC0FDD1F96E048
:103B1000699FC00DD11D112492E1899FC00DD11D57
:103B20001124612FCE0187960E942432602FCE018E
:103B30008896DF91CF911F910F910C942432DF91E1
:103B4000CF911F910F9108958F929F92AF92BF9244
:103B5000CF92DF92EF92FF920F931F93CF93DF9359
:103B6000C0901A01D0901B0181E090E090931B015E
:103B700080931A01E12CF12C912C812C00E010E0B3
:103B8000C0E0D0E05701A00EB11EFE01EE0FFF1FF6
:103B9000EA0DFB1DE45CFC4F259134914C2F682D00
:103BA000892D0E946E1D2196C330D10571F70A5FE1
:103BB0001F4F839483E08812E3CFC0E021E030E020
:103BC00040E06C2F892D0E94061D21E030E041E08D
:103BD0006C2F892D0E94061DCF5FC33079F7939417
:103BE00082E1E80EF11C84E09812C7CFD0921B014D
:103BF000C0921A01DF91CF911F910F91FF90EF902A
:103C0000DF90CF90BF90AF909F908F9008950F93CB
:103C10001F93CF93DF93843008F56330F8F443307B
:103C2000E8F4C42FD0E0CC0FDD1F26E0629FC00D6A
:103C3000D11D112432E1839FC00DD11D1124CE016D
:103C400087960E94103290E0182F0027CE018896A8
:103C50000E9410329801282BC90102C080E090E038
:103C6000DF91CF911F910F910895462F2091EA0285
:103C70003091EB02232B91F47E3F39F46E3F71F4C7
:103C80008091E8029091E9020895843038F473300D
:103C900028F4633018F4672F0C94071E80E090E03E
:103CA0000895AF92BF92CF92DF92EF92FF920F935F
:103CB0001F93CF93DF93B82EA62EC090010480915E
:103CC000E702C82AC7E0D0E0D12CE12CF12CD701C3
:103CD000C6010C2E04C0B695A795979587950A94B2
:103CE000D2F780FF13C04A2D6B2D8C2F0E943E1DF2
:103CF0008C018130910551F00E94D31B8FE39CE928
:103D00000197F1F700C00000C80111C02197F8F633
:103D10004A2D6B2D80E00E943E1DEC010E94D31BBA
:103D20008FE39CE90197F1F700C00000CE010E94EB
:103D3000801B81E0DF91CF911F910F91FF90EF9059
:103D4000DF90CF90BF90AF900895CF93C82F81118F
:103D500002C06FEF01C062E683E290E00E9424326D
:103D6000C11102C06FEF01C068EB84E290E00E94D5
:103D70002432C11102C06FEF01C063EF85E290E011
:103D8000CF910C94243280E00E94A51E60E086E270
:103D900090E00E9424320E94A41D0E94F61C81E043
:103DA0000C94A51E83E290E00E941032823681F4CA
:103DB00084E290E00E941032883B51F485E290E06A
:103DC0000E94103291E0833F09F090E0892F01C0FA
:103DD00080E0817008959091E20290FF04C0969572
:103DE000981740F003C0811105C090E0961710F4B9
:103DF0000C94032D61E00C94BF2C882311F0FA0180
:103E000001C0FB0109946091E202669570E04BE00D
:103E100050E08CE091E00E94FA32892B19F481E0A5
:103E20008093CC020E94AC259093C6028093C50279
:103E300008950F931F93CF93DF93CDB7DEB76297AB
:103E40000FB6F894DEBF0FBECDBF8091E20280FFB7
:103E50000AC006E312E09E012F5F3F4FAE014D5EA8
:103E60005F4FB9010BC0E0EDF2E0118210821282C7
:103E7000339682E0E23EF807C1F7EBCFF801849178
:103E800090E0DC01AA0FBB1F8A0F9B1FDC01A0532F
:103E9000BD4F8D919D91AC91FB0181939193A19325
:103EA000BF010F5F1F4FE417F50741F7269A85B151
:103EB0008F7B95B190646FB7F8942417350799F00C
:103EC000F90171919F01E8E095B9000000C077FF0A
:103ED00085B9770F000000C000C000C085B900C0E0
:103EE000EA9591F7EACF6FBF8FE594E00197F1F77C
:103EF00000C0000062960FB6F894DEBF0FBECDBFC3
:103F0000DF91CF911F910F910895EF92FF920F9340
:103F10001F93CF93DF938C01C0EDD2E0E12CF12C05
:103F2000F8018481F3E0EF16F1041CF4882351F0CA
:103F300002C0811107C04091E5024B3F08F04AEFF3
:103F40009E0102C09E0140E06091E4028091E30284
:103F50000E94282B8FEFE81AF80A239696E0E916BC
:103F6000F104F1F60E94191FF801848190E0019696
:103F7000817099278483DF91CF911F910F91FF90DA
:103F8000EF9008958F929F92AF92BF92CF92DF925F
:103F9000EF92FF920F931F93CF93DF93EC014C812D
:103FA000042F10E09801D8010E94C5329B01AC019A
:103FB0000E94DB326B017C01E0E2F0E0E01BF10BE0
:103FC000A5E5B0E09B01AC010E94DB324B015C0136
:103FD0009F01DF010E94BD329B01AC010E94E632CD
:103FE0009B01AC012C0D3D1D4E1D5F1DC501B40193
:103FF0000E948E32822FF22E99E2921728F093E0DF
:10400000299F900111240DC025E530E0281B3109BE
:10401000C901880F991F280F391F37FF02C02F5F72
:104020003F4F35952795122F109590EDC92E92E0B0
:10403000D92E00E085E5E82EEF1801FD02C08E2D97
:1040400001C08F2D412F1B3F08F04AEF9601609170
:10405000E4020E94282B0F5F83E0C80ED11C0630BB
:1040600061F70E94191F8C81811102C091E003C089
:10407000803219F49FEF9093190190911901890FE3
:104080008C83DF91CF911F910F91FF90EF90DF9084
:10409000CF90BF90AF909F908F9008950F931F93F4
:1040A000CF93DF93C0EDD2E0FE0111821082128225
:1040B000339682E0E23EF807C1F700E010E080911D
:1040C000CE02082E000C990B08171907ACF080914E
:1040D0001801082E000C990B801791076CF0409185
:1040E000E5024B3F08F04AEF9E016091E4028091A7
:1040F000E3020E94282B03C0198218821A820F5FE4
:104100001F4F239606301105D1F60E94191F80918A
:1041100017019091CE02980F9093CE022091180132
:10412000280F20931801121614F495301CF0819575
:1041300080931701DF91CF911F910F910895BF9246
:10414000CF92DF92EF92FF920F931F93CF93DF9363
:10415000FC01828180FF03C0DD24DA9402C0DD24EB
:10416000D39400ED12E0C0E0D0E026E0B22EF801DA
:1041700011821082128294E0E92EF12CC12C8091E0
:10418000CD028C0D87302CF06B2D0E945832892F78
:1041900002C087FD8A5F082E000C990BC817D9074B
:1041A000A9F48091E5028E9DA0018F9D500D1124F0
:1041B00055954795559547954B3F08F04AEF98011F
:1041C0006091E4028091E3020E94282BCD0CF1E083
:1041D000EF1AF108A1F621960D5F1F4FC630D105E9
:1041E00031F60E94191F8091CD0291E0D91206C0CC
:1041F000811102C085E007C0815005C090E00196A2
:10420000BE010E947A328093CD02DF91CF911F913F
:104210000F91FF90EF90DF90CF90BF900895EF92B5
:10422000FF921F93CF93DF93EC0180EDE82E82E0A5
:10423000F82E10E04091E5024B3F08F04AEF8C81E8
:1042400097016091E402810F0E94282B165D83E0A4
:10425000E80EF11C1C3F71F70E94191F9A818C8196
:1042600090FF02C08F5F01C081508C83DF91CF919E
:104270001F91FF90EF90089508958091FF02089597
:10428000089508958093FA027093FC026093FB02F4
:1042900080910A038430F9F48093E9008FEF9091C4
:1042A000E800815095FD06C095ED9A95F1F7000064
:1042B0008111F5CF8091E80085FF0DC040E050E00E
:1042C00063E070E08AEF92E00E9475278091E80039
:1042D0008E778093E8000895BC0184E00C9442211D
:1042E000BC0183E00C94422124E02093E9002FEFED
:1042F0003091E800215035FD06C035ED3A95F1F7D3
:1043000000002111F5CF2091E80025FF0BC040E00F
:1043100050E066E070E00E9475278091E8008E779B
:104320008093E8000895CF93DF9321E02093E90084
:104330002FEF3091E800215035FD06C035ED3A955C
:10434000F1F700002111F5CF2091E80025FF14C0FE
:10435000EC0140E050E068E070E00E947527809139
:10436000E8008E778093E80088E0FE01A0E0B3E0EB
:1043700001900D928A95E1F7DF91CF9108951F92F8
:104380000F920FB60F9211242F933F934F935F9389
:104390006F937F938F939F93AF93BF93CF93DF934D
:1043A000EF93FF93C091E900CF708091EC00D82F7C
:1043B000D17080FDD0E81092E9008091F000877FF5
:1043C0008093F00078940E94CD271092E9008091AC
:1043D000F00088608093F000CD2BCF70C093E9008F
:1043E000FF91EF91DF91CF91BF91AF919F918F910D
:1043F0007F916F915F914F913F912F910F900FBEE1
:104400000F901F901895E8EDF0E080818E7F8083FB
:104410001092E2001092DA001092E100A0EEB0E0FB
:104420008C9181608C9380818F77808319BCA7EDFC
:10443000B0E08C918E7F8C9380818F7E80831092F0
:10444000FD0208952091E4003091E50095E6409149
:10445000EC00842F817040FF23C08091E80080FD34
:104460001DC080910A03882399F0853099F08091CE
:10447000EB0085FD11C04091E4005091E500241748
:10448000350729F3915011F09A01E1CF84E00895A6
:1044900082E0089583E0089581E0089580E0089522
:1044A0004091E80042FFDDCF089580910C0387FF23
:1044B00011C08091E80082FD05C080910A0381113E
:1044C000F8CF11C08091E8008B770BC080910A0370
:1044D000882349F08091E80080FFF8CF8091E800C0
:1044E0008E778093E8000895982F973068F5909321
:1044F000E900981739F07091EC002091ED0050918F
:10450000F00003C0242F762F50E021FD02C09F5FF2
:10451000ECCF3091EB003E7F3093EB003091ED001B
:104520003D7F3093ED003091EB0031603093EB0034
:104530007093EC002093ED005093F0002091EE007A
:1045400027FDE5CF80E008958F708093E90081E03A
:104550000895CF92DF92EF92FF920F931F93CF9324
:10456000DF93C8EDD0E088818F7E8883E7EDF0E0AF
:1045700080818160808384E082BF81E08093FD023E
:1045800088818E7F888302EE10E0F80110821092FD
:10459000DA0081EEC82ED12CF601108288818F7747
:1045A000888388818068888388818F7D888319BC0F
:1045B00010920A0310920B03109209031092080341
:1045C00090EEE92EF12CF70180818B7F808388812A
:1045D0008160888342E060E080E00E947422F601FE
:1045E00080818E7F8083F8018081816080838081DB
:1045F00088608083F70180818E7F808388818061DD
:104600008883DF91CF911F910F91FF90EF90DF9002
:10461000CF9008951F920F920FB60F9211242F93EF
:104620003F934F935F936F937F938F939F93AF933A
:10463000BF93EF93FF938091E10082FF09C08091C7
:10464000E20082FF05C08091E1008B7F8093E10052
:104650008091DA0080FF2AC08091D80080FF26C0B8
:104660008091DA008E7F8093DA008091D90080FFFC
:1046700018C080E189BD82E189BD09B400FEFDCF8B
:1046800081E080930A038091FD0281110FC00E9496
:1046900003220E94A9228091E20084608093E200BC
:1046A00005C019BC10920A031092FD028091E1002E
:1046B00080FF17C08091E20080FF13C08091E2006C
:1046C0008E7F8093E2008091E20080618093E2001F
:1046D0008091D80080628093D80019BC85E08093D7
:1046E0000A038091E10084FF30C08091E20084FFE2
:1046F0002CC080E189BD82E189BD09B400FEFDCFF7
:104700008091D8008F7D8093D8008091E1008F7ECA
:104710008093E1008091E2008F7E8093E20080919F
:10472000E20081608093E20080910B03882311F006
:1047300084E007C08091E30087FD02C081E001C0F2
:1047400083E080930A0380910A038091E10083FF54
:1047500027C08091E20083FF23C08091E100877F22
:104760008093E10082E080930A0310920B03809112
:10477000E1008E7F8093E1008091E2008E7F809344
:10478000E2008091E20080618093E20042E060E01C
:1047900080E00E9474228091F00088608093F00095
:1047A000FF91EF91BF91AF919F918F917F916F9109
:1047B0005F914F913F912F910F900FBE0F901F90DF
:1047C000189520911203309113032617370748F0EC
:1047D0006115710539F42091E8002E772093E800E7
:1047E00001C0B901FC0120E06115710579F18091EA
:1047F0000A038823F1F18530F1F18091E80083FD0F
:104800003CC08091E80082FD2EC08091E80080FFCE
:10481000EBCF2091F3008091F20090E0922B611594
:10482000710551F08830910538F421912093F10001
:10483000615071090196F3CF21E0089709F020E05B
:104840008091E8008E778093E800CECF2111CFCF02
:104850000AC080910A03882361F0853061F080915D
:10486000E80083FD0AC08091E80082FFF2CF80E07B
:10487000089582E0089583E0089581E00895982FD7
:10488000907F903BF1F038F49039D9F0903AC9F02C
:104890009038C9F416C0903D49F018F4903C31F0BE
:1048A00012C0903E71F0903F19F00DC082E0089563
:1048B000815F8F3040F4E82FF0E0E258FE4F8081B6
:1048C000089583E0089580E00895BF92CF92DF922B
:1048D000EF92FF920F931F93CF93DF93CDB7DEB785
:1048E00027970FB6F894DEBF0FBECDBF7E0125E03F
:1048F000E20EF11C8C0108511F4F80910A03843095
:1049000009F06BC0809122018F708093E900809143
:10491000E80082FF62C08091E80085FF5EC040E051
:1049200050E064E070E0CE0101960E94A1278091E2
:10493000E80085FD05C08091E8008B778093E80052
:10494000DA808D2D0E943F24282FDD828B818E837B
:104950008C818F8321110EC08981843041F0873092
:1049600031F0863031F0853041F621E003C023E09C
:1049700001C022E067018C2D8E19821708F0BDCF8F
:10498000D601BD906D013FB7F894D8011196EC9116
:104990001197F0E0CF01019612966C9170E00E94A1
:1049A0007A32D8014C9150E084179507A1F0D801D4
:1049B00013968D919C911497E80FF91FB082119670
:1049C0008C91119790E0019612966C9170E00E9484
:1049D0007A32F80181833FBFCECF27960FB6F89485
:1049E000DEBF0FBECDBFDF91CF911F910F91FF9022
:1049F000EF90DF90CF90BF900895DF92EF92FF92FB
:104A00000F931F93CF93DF9300D000D0CDB7DEB7C5
:104A10007B01142FD22E4A832B830C83842F0E9478
:104A20003F2481111CC082E0E816F10471F083E09C
:104A3000E816F10421F0EA94EF2881F50BC0073F56
:104A400011F487E00AC084E008C087EFD812FBCFDA
:104A500086E003C0173FB9F785E0898303C012954C
:104A60001F70198380910A038430C1F480911D0165
:104A70008F708093E90040E050E064E070E0CE0188
:104A800001960E947527811109C08091E80085FD7B
:104A900005C08091E8008E778093E8000F900F901A
:104AA0000F900F90DF91CF911F910F91FF90EF909A
:104AB000DF90089587E797E79093010880930008B7
:104AC0009AE088E10FB6F894A895809360000FBE35
:104AD00090936000FFCF78941F920F920FB60F92C1
:104AE00011248F939F93AF93BF938091F60290917F
:104AF000F702A091F802B091F9020196A11DB11D33
:104B00008093F6029093F702A093F802B093F90213
:104B1000BF91AF919F918F910F900FBE0F901F90FB
:104B200018959C014FB7F8948091F6029091F70286
:104B3000A091F802B091F9024FBF821B930B089528
:104B40002FB7F8946091F6027091F7028091F80205
:104B50009091F9022FBF08952FB7F8948091F60233
:104B60009091F702A091F802B091F9022FBF089539
:104B70001F920F920FB60F9211248F939F93AF93B2
:104B8000BF938091F502811113C08091F60290913C
:104B9000F702A091F802B091F9024196A11DB11D52
:104BA0008093F6029093F702A093F802B093F90273
:104BB000BF91AF919F918F910F900FBE0F901F905B
:104BC00018959C01FC0132969FEF80E041914617B9
:104BD00089F09F3F19F4411101C0982F8F5F8630F3
:104BE000A9F79F3F39F0F901E90FF11D97FDFA95FB
:104BF0006283089508952091F3023091F4022817FA
:104C0000390771F09093F4028093F302E091F1027E
:104C1000F091F202309721F00084F185E02D0994A3
:104C200008952091EF023091F0022817390771F0B2
:104C30009093F0028093EF02E091F102F091F20282
:104C4000309721F00680F781E02D09940895E091D6
:104C5000F102F091F202309721F00190F081E02D05
:104C6000099480E0089580910104982F9670963001
:104C700011F4886001C0877F0C941C2F0F931F9341
:104C8000611590E279073CF4611590EE790734F0F4
:104C90009B01305E05C02FEF3FE302C020E030E013
:104CA0008901000F012F001F110B11952F77482F3D
:104CB0004F70406EE0911403F091150363E070E0D3
:104CC00084E193E009951F910F9108950F93042FAC
:104CD0000F77262F2F778F70482F406BE0911403AA
:104CE000F091150363E070E084E193E009950F9182
:104CF0000895CF92DF92EF92FF920F931F93CF937D
:104D0000DF9300D01F92CDB7DEB77C01162FD42ED3
:104D1000C22E809139038430F9F4E0912E03F09192
:104D20002F03309709F4B7C0C701019763E070E023
:104D30000E946632CB01880F991F860F971F198337
:104D40004A83CB824E2D481B9E012F5F3F4FBC01F3
:104D500084E193E00995ACC082E0E816F10409F41F
:104D60004FC083E0E816F10431F081E0E816F10469
:104D700009F08DC078C0862F807F803AE1F050F432
:104D80008038A1F0803909F086C0E0911803F091D5
:104D9000190325C0803EA1F0803FB9F0803B09F0A7
:104DA0007AC0E0911603F091170319C0E0911A033D
:104DB000F0911B0314C0E0911C03F0911D030FC080
:104DC000E0911E03F0911F030AC0623F09F063C027
:104DD000E0912003F0912103309731F45CC03097CB
:104DE00009F459C0123F21F42C2D4D2D62EF04C05F
:104DF0002C2D4D2D612F6F7084E193E0099558C0E3
:104E0000862F807F803D51F0803F69F0803C09F023
:104E100042C0E0912203F091230315C0E0912403E6
:104E2000F091250310C0633F29F4E0912603F0912F
:104E3000270306C0613F79F5E0912803F09129032B
:104E4000309739F428C0309731F1812F8D7F813F21
:104E500019F44D2D612F03C04D2D612F6F7084E12A
:104E600093E0099525C0683F28F0E0912A03F0916E
:104E70002B0306C0663F79F4E0912C03F0912D03DB
:104E8000309749F0612F84E193E0099511C084E0E7
:104E9000E816F104D8F4E0913003F0913103309733
:104EA00039F00C2D2D2D412FB70184E193E00995A8
:104EB000E0913203F0913303309759F00C2D2D2DF2
:104EC000412FB70184E193E0099503C0E12CF12C57
:104ED000E2CF0F900F900F90DF91CF911F910F9124
:104EE000FF90EF90DF90CF900895EF92FF920F9395
:104EF0001F93CF93DF937C018B010E9422228111AB
:104F000019C0E70101151105A1F08091E80085FDA8
:104F10000AC08091E8008E778093E8000E942222E8
:104F2000882381F307C089918093F1000150110912
:104F3000E9CF80E0DF91CF911F910F91FF90EF902B
:104F40000895EF92FF920F931F93CF93DF937C010D
:104F50008B010E942222811119C0E7010115110560
:104F6000A1F08091E80085FD0AC08091E8008B7770
:104F70008093E8000E942222882381F307C0809159
:104F8000F100899301501109E9CF80E0DF91CF91C1
:104F90001F910F91FF90EF9008951F93CF93DF9390
:104FA000CDB7DEB7AA970FB6F894DEBF0FBECDBF60
:104FB000ECE0F3E08091F100819343E0E431F40709
:104FC000C9F780910D03833009F463C030F4813058
:104FD00071F0823009F49DC0B4C08A3009F489C0F0
:104FE0008B3009F46EC0893009F0ABC020C08091CD
:104FF0000C03813A09F0A5C08091E800877F809377
:10500000E8008091100390911103892B21F468E04E
:1050100080E093E003C060E080E090E070E00E94F8
:10502000E1238091E8008B778093E8008AC080912B
:105030000C03813209F085C0809110039091110317
:10504000009719F0029709F07CC08091E800877FF3
:105050008093E8008091E80082FD05C080910A03FA
:105060008111F8CF6EC02091F3008091F20090E0A2
:10507000922B029731F48091F100813011F086304B
:1050800021F48091F1008093FF028091E8008B77FA
:1050900054C080910C03813A09F053C080911003F1
:1050A00090911103892B09F04CC08091E800877F13
:1050B0008093E8008091E80080FFFCCF8091280178
:1050C00037C080910C038132E1F5809110039091FB
:1050D0001103892BB1F58091E800877F8093E80068
:1050E0000E94552280910E03809328010E94672F11
:1050F00028C080910C03813221F58091E800877FE0
:105100008093E8000E94552280910F038093FE0255
:1051100018C080910C03813AA1F48091E800877F48
:105120008093E8008091E80080FFFCCF8091FE0230
:105130008093F1008091E8008E778093E8000E94D0
:1051400055228091E80083FFF6C180910C03909175
:105150000D03492F50E04A30510508F0ECC1FA0127
:10516000E059FF4F0C94B032803821F0823809F0BA
:10517000E2C108C08091080390910903992389F046
:1051800082600FC0809110038F70873008F0D3C108
:105190008093E9008091EB0085FB882780F91092CD
:1051A000E9009091E800977F9093E8008093F100E8
:1051B0001092F1007DC1282F2D7F09F0BCC18823FA
:1051C00019F0823061F0B7C180910E03813009F08F
:1051D000B2C1933009F080E0809309032EC0809122
:1051E0000E0381112AC0809110038F702FEF280FBA
:1051F000263008F0A0C18093E9002091EB0020FF49
:105200001CC0933021F48091EB00806214C0909117
:10521000EB0090619093EB0021E030E0A90102C027
:10522000440F551F8A95E2F74093EA001092EA0076
:105230008091EB0088608093EB001092E9008091F0
:10524000E800877F8093E8000E94552274C1811195
:1052500072C110910E031F778091E3008078812B3B
:105260008093E3008091E800877F8093E8000E94AC
:1052700055228091E80080FFFCCF8091E300806898
:105280008093E300111102C082E001C083E08093AB
:105290000A0351C18058823008F04DC120910E039D
:1052A00030910F032C3D53E0350779F583E08A8375
:1052B0008AE289834FB7F894DE01139620E03EE03E
:1052C00051E2E32FF0E050935700E49120FF03C038
:1052D000E295EF703F5FEF708E2F90E0EA3010F0B4
:1052E000C79601C0C0968D939D932F5F243149F7D7
:1052F0004FBF8091E800877F8093E8006AE270E00A
:10530000CE0101960E94E123C1C0809110039091CB
:105310001103432F552743305105B1F068F4413054
:10532000510509F417C14230510509F004C18FEB52
:1053300090E0E7E6F4E057C04132510589F142328E
:10534000510509F43CC0F7C0C90199278130910586
:10535000B9F070F082309105D9F0039709F0EBC0F5
:10536000E8E3F5E0E4918E2F90E0E8E3F5E038C063
:10537000E6E8F5E0E4918E2F90E0E6E8F5E030C055
:10538000E6E7F5E0E4918E2F90E0E6E7F5E028C04F
:10539000E6E5F5E0E4918E2F90E0E6E5F5E020C04B
:1053A0008330910508F0C7C0880F991FFC01EA56A9
:1053B000FE4F0190F081E02D89E090E014C0833031
:1053C000910508F0B8C0FC01EE0FFF1FE057FE4F3B
:1053D0000190F081E02DDC01A357BE4F8C9190E04D
:1053E000009709F4A8C02091E800277F2093E800E7
:1053F00020911203309113038217930708F49C0144
:1054000040E02115310589F180910A03882309F4D0
:105410003DC08530D9F18091E80083FD37C080918F
:10542000E80082FD2FC08091E80080FFEACF409124
:10543000F3008091F20090E0942B2115310559F092
:105440008830910540F444914093F1003196215009
:1054500031090196F2CF41E0089709F040E08091D0
:10546000E8008E778093E800CCCF4111CDCF0AC001
:1054700080910A03882351F0853041F08091E80043
:1054800083FD04C08091E80082FFF2CF8091E800A4
:105490008B778093E8004FC0803809F04CC0809132
:1054A000E800877F8093E80080910B038093F100F0
:1054B0008091E8008E77C6CE81113DC080910E03A9
:1054C00090910F0399270297B4F58091E800877FA8
:1054D0008093E80010910E0310930B030E94552255
:1054E000111106C08091E30087FD02C081E001C078
:1054F00084E080930A0342E061EC81E00E94742220
:1055000042E261EC84E00E94742242E261EC82E0BB
:105510000E94742242E260EC83E00E94742242E323
:1055200061E885E00E94742242E361E886E00E941F
:10553000742280910A038091E80083FF10C080915B
:10554000E800877F8093E8008091EB008062809381
:10555000EB0005C082E190E0E6E2F5E044CFAA96D8
:105560000FB6F894DEBF0FBECDBFDF91CF911F9174
:1055700008959091E20290FF0CC0E0EDF2E081838B
:1055800060834283339692E0E23EF907C1F70C94C0
:10559000191F08958091E202282F269530E02115E9
:1055A000310519F48170826005C02532310524F07F
:1055B000817088648093E2028091E5028B3F18F04D
:1055C0008AEF8093E5020895CF92DF92EF92FF92E7
:1055D0006B017C010E94CA2AB701A60188E090E015
:1055E000FF90EF90DF90CF900C9436328091E602DE
:1055F000882319F081508093E6026091E202709155
:10560000E3028091E4029091E5020C94E42A8091F7
:10561000E602833018F48F5F8093E6026091E20225
:105620007091E3028091E4029091E5020C94E42AE7
:10563000E2EEF2E083E0808311828FEF82838AEFD3
:105640008383148260817181828193810C94E42A26
:10565000AF92BF92CF92DF92EF92FF920F931F9380
:10566000CF93DF93E82EF62EE901E42FF0E06111ED
:1056700006C0E657FA4FE4914E2F2E2F71C0062F29
:1056800010E0E657FA4F4491F42FC42ED12C26E0B7
:10569000829FC00111242FEF30E0B9010E946632D1
:1056A0005BEA5603C001579F900D11248E0D911D8A
:1056B0008E0D911D582F550F580FD901A01BB10BFE
:1056C000AC9DC001AD9D900DBC9D900D1124E92FA6
:1056D000F59ED0011124AB2FBB277901EA1AFB0AF2
:1056E000EC9CD001ED9CB00DFC9CB00D1124590137
:1056F000A51AB108A09E7001A19EF00CB09EF00CFE
:105700001124EF2CFF242E193F092C9D80012D9D83
:10571000100D3C9D100D1124212F6230710591F068
:1057200048F461157105E1F061307105B9F4242F79
:105730004B2F16C06430710569F040F0663071057A
:1057400079F00CC0242F492FE12F0AC0492FEF2FE9
:105750002B2F06C0292FE42F412F02C0292FEB2F1A
:1057600049832883EA83DF91CF911F910F91FF90A6
:10577000EF90DF90CF90BF90AF900895CF93DF93DD
:1057800000D01F92CDB7DEB79091E20290FF0DC01E
:105790004B3F08F04AEF9E012F5F3F4F0E94282B9E
:1057A0004B8169818A810E94B92A0F900F900F90D6
:1057B000DF91CF9108955F926F927F928F929F9227
:1057C000AF92BF92CF92DF92EF92FF920F931F930F
:1057D000CF93DF9300D01F92CDB7DEB7082F762E80
:1057E000142F622E9091E20290FF74C0E92FE6958B
:1057F000AE2FB0E0A456BE4F8C918093CB029E7F1B
:10580000923081F44B3F08F04AEF9E012F5F3F4FEB
:10581000672D802F0E94282B4B8169818A810E94ED
:10582000B92A46C0823019F41091E50241C0863091
:1058300019F40091E3023CC08930D9F38931C1F5F4
:10584000E9518E2F8170582EE695F0E0E657F94F1A
:10585000A590B49080EDC82E82E0D82EE12CF12CDA
:10586000BB2496E0892E912CAE9CC001AF9C900D7C
:10587000BE9C900D1124B4010E946632802F5110FD
:1058800002C0860F01C0861B412F1B3F08F04AEF64
:105890009601672D0E94282B8FEFE81AF80A83E003
:1058A000C80ED11C86E0E816F104F1F60E94191F1B
:1058B0000093E3027092E4021093E502662051F037
:1058C0006091E2027091E3028091E4029091E5021E
:1058D0000E94E42A0F900F900F90DF91CF911F91BB
:1058E0000F91FF90EF90DF90CF90BF90AF909F907F
:1058F0008F907F906F905F900895E2EEF2E0438189
:1059000028E0421B08F440E021E0628181810C9490
:10591000DB2BE2EEF2E0438128E0420F08F44FEF88
:1059200021E0628181810C94DB2BE2EEF2E0628166
:1059300028E0621B08F460E021E0438181810C943F
:10594000DB2BE2EEF2E0628128E0620F08F46FEFF9
:1059500021E0438181810C94DB2BE2EEF2E0818136
:1059600021E04381628188500C94DB2BE2EEF2E06F
:10597000818121E043816281885F0C94DB2B9091CF
:10598000E20290FF36C09170811102C0926006C0A1
:10599000853210F0986402C0880F982B9093E20231
:1059A000662351F06091E2027091E3028091E4027B
:1059B0009091E5020E94E42A6091E202669570E00F
:1059C0004BE050E08CE091E00E94FA32892B19F014
:1059D0001092CC0202C00E94031F81E08093C80293
:1059E00020E04091E5026091E4028091E3020C9492
:1059F000DB2B08958091E2028695815009F484E2C0
:105A000061E00C94BF2C8091E20286958F5F853215
:105A100008F081E061E00C94BF2C0E94AC2520913D
:105A20000B04211104C020910C04222321F0909337
:105A300008048093070420910D04211104C02091D3
:105A40000E04222321F09093060480930504E09134
:105A5000F102F091F202309749F082E0809309045C
:105A60000480F581E02D89E094E009940895803F59
:105A700039F480910C0487FF6AC010920C0467C04F
:105A8000813F29F480910C041816BCF360C09091FA
:105A90000B04823F29F497FF5AC010920B0457C0A1
:105AA000833F19F41916CCF352C090910D04893F2D
:105AB00031F419160CF04BC010920D0448C08A3F07
:105AC00019F497FF44C0F8CF8B3F39F480910E044E
:105AD00087FF3DC010920E043AC08C3F29F480919C
