:100000000C94C3020C94E0020C94E0020C94E00205
:100010000C94E0020C94E0020C94E0020C94E002D8
:100020000C94E0020C94E0020C94922C0C94562C4C
:100030000C94902D0C94E0020C94E0020C94E002DD
:100040000C94E0020C94E0020C94E0020C94E002A8
:100050000C94E0020C946A2D0C94E0020C94E002E3
:100060000C94E0020C94E0020C94E0020C94E00288
:100070000C94E0020C94E0020C94E0020C94E00278
:100080000C94E0020C94E0020C94E0020C94E00268
:100090000C94E0020C94E0020C94E0020C94E00258
:1000A0000C94E0020C94E0020C94E00205010902B9
:1000B000A10185020901A1000509190129081500FE
:1000C0002501950875018102050109300931158165
:1000D000257F95027508810609381581257F9501D0
:1000E00075088106050C0A38021581257F95017572
:1000F000088106C0C005010980A101850319012AF4
:10010000B700150126B700950175108100C0050CD8
:100110000901A101850419012AA002150126A002E6
:10012000950175108100C005010906A1018506052C
:100130000719E029E71500250195087501810205D9
:1001400007190029EF1500250195F07501810205B9
:10015000081901290595057501910295017503910D
:1001600001C00660FF0961A1010962150026FF00B8
:100170009520750881020963150026FF00952075FA
:10018000089102C005010906A101050719E029E748
:1001900015002501950875018102950175088101F9
:1001A0000507190029FF150026FF0095067508812F
:1001B000000508190129051500250195057501910E
:1001C00002950175039101C0FD377A585A00000469
:1001D000E6D6B4460200210116000000742FE5A304
:1001E000E0018B00C95D003D8889C65436C3174FB6
:1001F000E4E456FEF0CE12AF50F9EC0F0B213907B4
:10020000866EE43AE8B7A5F88D4E4601CCD9D1C345
:100210007CBADBF4681464AABDC9B7960E2EF0262A
:10022000524BA13127E87A8A7D9FE979DE8A7B8F5C
:1002300058FD43B62580C5B5736B5D5F6957A30E46
:100240000F861CA14C44050861D922C580C5D65132
:100250003C826AD9EFADBC1B8AB491C96B4072DA9B
:100260007E7EEBF51B161C30E6126A88A9A125CB11
:10027000032C4B0C84EF4FB633AFB54CB1403D5619
:10028000C84FED3F9B51BC139C94EEFE2F1230FDE6
:10029000C078F9C4B4FC6D38D99E8BA278F09C6C00
:1002A0008F32719E112D45B703C116BAC1D86F00A8
:1002B00000000000878E267E68DBEEC60001E501A7
:1002C0008C03000086C0751DB1C467FB02000000EE
:1002D0000004595A010001009404C20FA70F000046
:1002E000020002009004C20FA70F000003000100EB
:1002F0009504C20FA70F0000040002007A04C20F89
:10030000A70F6F07050001009604C20FA70F00009A
:10031000060002007C04C20FA70F000007000200C5
:100320009204C20FA70F0000080001009704C20F3B
:10033000A70F0000090002007E04C20FA70F4A07A2
:100340000A0002008004C20FA70F4A070B00020038
:100350008204C20FA70F4A070C0002008404C20FD8
:10036000A70F4A070D0002008604C20FA70F4A0715
:100370000E0002008804C20FA70F4A070F000200F8
:100380008A04C20FA70F4A07100002008C04C20F94
:10039000A70F4A07110002008E04C20FA70F4A07D9
:1003A000120002009804C20FA70F00001300020001
:1003B0009A04C20FA70F0000140001009C04C20F92
:1003C000A70F0000150000000000D006081600006E
:1003D00014001A000800150017001C0018000C007B
:1003E0001200130004001600070009000A000B00A9
:1003F0000D000E000F002D431D001B00060019000C
:10040000050011001000360037003844E000E3001A
:10041000E200E1002A422C41280065004C0029003E
:1004200009025B00030100A0FA09040000010301B6
:100430000100092111010001224400070581030880
:10044000000109040100020300000009211101005C
:100450000122220007058203200001070503032073
:10046000000109040200010300000009211101003C
:100470000122B600070584032000011201000200DA
:10048000000008858040800100010203011C037602
:1004900000690061006C003A0066003600340063B9
:1004A0000032006200330063000000140350003487
:1004B00000300020004F007200740068006F0000E0
:1004C000000E0350006100620069006C00650000CE
:1004D0000004030904000000000000000000000008
:1004E000000000000000000000000000000000000C
:1004F0000000000000000000007E0F00D4FFFFFF9E
:10050000C70000007800000000000000002A2B282F
:1005100000000000000000000000000000000000DB
:1005200029000000002C1E342021222434262725F7
:100530002E362D3738271E1F20212223242526332F
:1005400033362E37381F0405060708090A0B0C0D31
:100550000E0F101112131415161718191A1B1C1D43
:100560002F3130232D350405060708090A0B0C0D21
:100570000E0F101112131415161718191A1B1C1D23
:100580002F3130354C0011241FBECFEFDAE0DEBF33
:10059000CDBF11E0A0E0B1E0E0E9FDE602C00590CA
:1005A0000D92A837B107D9F725E0A8E7B1E001C05F
:1005B0001D92AE31B207E1F70E94B92D0C94C636F8
:1005C0000C940000482F20911C059091D30459E011
:1005D000291302C080E0089530E0529FF001539F3C
:1005E000F00D1124EC52FB4F8181681306C080810D
:1005F000481303C085818111EECF2F5F3F4F2770D5
:10060000E7CFE8EDF0E080818E7F80831092E200FA
:100610001092DA001092E100A0EEB0E08C918160BF
:100620008C9380818F77808319BCA7EDB0E08C918B
:100630008E7F8C9380818F7E80831092BC0408957E
:100640002091E4003091E50085E69091EC0090FF68
:1006500006C09091E80090FF06C080E00895909158
:10066000E80092FDFACF9091C904992391F095305A
:1006700091F09091EB0095FD10C04091E4005091F5
:10068000E5002417350709F381509A01F1F684E05B
:10069000089582E0089583E0089581E008958091AF
:1006A000CB0487FF13C08091E80082FF06C08091D1
:1006B000E8008B778093E80004C08091C904811121
:1006C000F2CF08958091C9048823D9F38091E8007E
:1006D00080FFF8CF8091E8008E77ECCF982F909331
:1006E000E900242F762F50E0891731F07091EC004B
:1006F0002091ED005091F00021FD07C09F5F9730E1
:1007000071F78093E90081E008953091EB003E7F1E
:100710003093EB003091ED003D7F3093ED00309150
:10072000EB0031603093EB007093EC002093ED0010
:100730005093F0002091EE0027FDE0CF80E0089577
:10074000B0E0A0E0E6EAF3E00C947C36C8EDD0E03F
:1007500088818F7E8883E7EDF0E0808181608083EF
:1007600084E082BF81E08093BC0488818E7F88838F
:1007700002EE10E0F80110821092DA0081EEC82E2D
:10078000D12CF601108288818F77888388818068D8
:10079000888388818F7D888319BC1092C904109248
:1007A000CA041092C8041092C70490EEE92EF12CEE
:1007B000F70180818B7F808388818160888342E01C
:1007C00060E080E00E946E03F60180818E7F80836E
:1007D000F801808181608083808188608083F70157
:1007E00080818E7F8083888180618883CDB7DEB7EA
:1007F000E8E00C949836FC018091D1049091D204E9
:1008000086179707A0F06115710529F49091E8000B
:100810009E779093E80090E06115710551F4911175
:1008200008C08091E80082FF35C080E00895BC01D7
:10083000F2CF8091C9048823C9F18530C9F1809134
:10084000E80083FD31C08091E80082FDEACF80910D
:10085000E80080FFE1CF2091F3008091F200322F79
:10086000282F6115710519F02830310558F091E0F5
:100870002830310509F090E02091E8002E77209390
:10088000E800CACF81918093F100615071092F5F18
:100890003F4FE7CF8091C904882341F0853041F074
:1008A0008091E80083FFBDCF81E0089582E0089544
:1008B00083E008958091BE04089587E797E79093B9
:1008C00001088093000888E19AE00FB6F894A89593
:1008D000809360000FBE90936000FFCF9C014FB7E4
:1008E000F8948091B8049091B904A091BA04B091A1
:1008F000BB044FBF821B930B08952FB7F8946091F0
:10090000B8047091B9048091BA049091BB042FBFD0
:1009100008952FB7F8948091B8049091B904A091EC
:10092000BA04B091BB042FBF089590911901992387
:10093000D1F09091B50497FF16C0E82FE695E695A3
:10094000E695EE31D8F4F0E0EE57FE4F282F2770F1
:1009500081E090E001C0880F2A95EAF780959281A6
:10096000892382830895EAE7F1E09281891301C027
:100970001282319691E0E038F907B9F70895909125
:1009800019019923C1F09091B50497FF14C0E82F85
:10099000E695E695E695EE31F8F4F0E0EE57FE4F79
:1009A000877021E030E001C0220F8A95EAF782814A
:1009B000822B82830895ACE7B1E0EFEF90E02D91B8
:1009C000821751F0EF3F19F4211101C0E92F9F5F09
:1009D0009630A9F7EF3F09F408950E2E000CFF0B97
:1009E000E658FE4FE6CFA3E0B0E0E9EFF4E00C9468
:1009F00082362091B3043091B40428173907A1F04E
:100A00009093B4048093B304E091B104F091B204E4
:100A1000309751F024E029839B838A830084F185F9
:100A2000E02DCE01019609952396E2E00C949E36C6
:100A3000A3E0B0E0EEE1F5E00C9482362091AF0443
:100A40003091B00428173907A1F09093B004809337
:100A5000AF04E091B104F091B204309751F023E07B
:100A600029839B838A830084F185E02DCE01019642
:100A700009952396E2E00C949E36E091B104F09142
:100A8000B204309729F00190F081E02D0995089586
:100A900080E008954115510511F0FA010995089576
:100AA0000E9489042091A604211104C02091A7046A
:100AB000222321F09093A3048093A2042091A80400
:100AC000211104C02091A904222321F09093A104B4
:100AD0008093A004E091B104F091B204309749F002
:100AE00082E08093A4040680F781E02D84EA94E0FC
:100AF0000995089580919F0480FF0CC060911801B2
:100B000070E075956795759567956115710549F163
:100B1000862F089581FF06C06091180170E07595D9
:100B20006795F3CF6091180182FD0BC090919E04F0
:100B30009923A1F06091170180911801961738F060
:100B4000682F70E06038710500F38FE70895899F82
:100B5000C001112470E00E941536F4CF61E070E00E
:100B6000D7CF81E0089580919F04609182047091B5
:100B7000830480FF16C020911601269FC001279F85
:100B8000900D1124BC017695679576956795603830
:100B9000710508F043C06115710509F441C0862F45
:100BA000089581FF0BC020911601269FC001279F49
:100BB000900D1124BC0176956795E9CF82FF09C09D
:100BC000809116019B01829FB001839F700D1124BB
:100BD000DECF209179042223D1F2909115018091EA
:100BE0001601482F50E0291748F0CB01849FB0012F
:100BF000859F700D949F700D1124C9CF289F90017F
:100C00001124269FA001279F500D369F500D1124BF
:100C1000692F70E0CA010E940136B9CF8FE70895AD
:100C200081E00895282F35EB2303C001112497FF9D
:100C300004C080589109892F089580589F4FFBCF99
:100C4000CF93DF93EC0140916E0450916F0460915B
:100C50007004709171042FB7F8948091B80490914A
:100C6000B904A091BA04B091BB042FBF841B950BAB
:100C7000A60BB70B843F9140A105B10518F58091F3
:100C80006E0490916F04A0917004B09171048093F0
:100C90006A0490936B04A0936C04B0936D0484EF8A
:100CA00091E0A0E0B0E08093660490936704A09385
:100CB0006804B0936904D0937604C0937504DF91FF
:100CC000CF9108950E947D0460936A0470936B0431
:100CD00080936C0490936D0482E390E0A0E0B0E018
:100CE000E2CFFC018481862351F492819923B9F0EB
:100CF0006923808583FF05C081E061110FC080E01A
:100D00000895892F8F7092959F70982B862F8F70E2
:100D100062956F70682B81E09613F1CF089581E0A2
:100D2000FDCFBC014091620480916304942F89132C
:100D300001C00895292F30E0F901EE0FFF1FE65A98
:100D4000FB4F0190F081E02DE617F70799F487E05B
:100D5000869FF001879FF00D1124E754FC4F81E03E
:100D600084839413E6CF2F5F3F4F23703327209364
:100D7000620408952F5F3F4F922F9370D8CF109247
:100D8000B7031092B603E9EBF3E08581811102C04D
:100D900014821682379683E0E13FF807B1F7089591
:100DA000B0E0A0E0E6EDF6E00C947A368FEF9FEF2E
:100DB0004430510508F469C04091B50441FB8827CF
:100DC00080F990E0880F991F42FB002700F910E09E
:100DD000000F111F000F111F802B912B40FBCC2403
:100DE000C0F8D12C8C299D2943FB222720F9C22F42
:100DF000E0E0DE2F53E0CC0FDD1F5A95E1F78C2B9E
:100E00009D2B44FBAA27A0F9B0E0E4E0AA0FBB1F8A
:100E1000EA95E1F78A2B9B2B45FBEE27E0F9F0E002
:100E2000A5E0EE0FFF1FAA95E1F78E2B9F2B46FB47
:100E3000222720F930E0B6E0220F331FBA95E1F700
:100E4000822B932B47FB222720F930E03695322F57
:100E5000222737952795822B932B2091B604322F8A
:100E60003170F32EE82EF92A26952170B22EBB0C94
:100E7000A82EBF28C501BB0CAA0BBB0BFB018083AE
:100E80009183A283B38390E080E0CDB7DEB7EAE040
:100E90000C949636EAE7F4E0848195812AE030E00C
:100EA000B9010E94013660930E01868180930D0185
:100EB00082858093160184858093150186859785A8
:100EC000B9010E94013660930C01808980930B0167
:100ED00082898093180184898093170108958091F5
:100EE0007A0490917B049093100180930F010895F0
:100EF000E5E3F2E090E080E067E97BE24EEB5BE265
:100F00002DE03BE2778366835187408733872287D2
:100F100097878687019670968830910599F708958E
:100F200081152CE7920741F42091130130911401AF
:100F3000232B11F490E080E008958F929F92AF925E
:100F4000BF92EF92FF920F931F93CF93DF93843062
:100F5000B0F5811135C0909180009F77909380000B
:100F6000A0918600B0918700282F30E00E9458366B
:100F700023E030E040E050E00E94293689019A01E8
:100F800080918600909187006CE070E00E940136AD
:100F900060177107C8F0C80169E070E00E9401366F
:100FA0007093890060938800DF91CF911F910F911A
:100FB000FF90EF90BF90AF909F908F90089583E047
:100FC000909180009068CACF8091860090918700B0
:100FD000E0908600F0908700E0918600F091870015
:100FE000C6E0D0E0BE010E940136060F171F211D8A
:100FF000311D4801590185E0880C991CAA1CBB1CB5
:101000008A95D1F7C701BE010E9401369F0150E0C9
:1010100040E0260F371F411D511DC501B4010E943C
:10102000293649015A01E0918600F0918700CA01F2
:10103000B9010E94F1359B01AC01DF010E946736C6
:101040009B01AC01C501B4010E94F1352FE09695DA
:101050008795779567952A95D1F70091860010912D
:10106000870030E020E0061717072807390708F047
:1010700097CF609186007091870092CF282F220F22
:10108000220F220F909120029770922B90932002B2
:10109000987F21E009F420E09091200220FB90F954
:1010A000909320020E949D07089580E00895F8948F
:1010B000E82FE295EF70F0E031A1282F2F7081E04A
:1010C00090E001C0880F2A95EAF7982F9095932316
:1010D00091A392A1892B82A3789408959091B5044D
:1010E00092FF10C041E0282F2471243009F040E025
:1010F00031E0282F2871283009F030E0431711F033
:101100002CE0822793FF10C041E0282F2471243166
:1011100009F040E031E0282F2871283109F030E053
:10112000431711F02CE082273091B60430FF10C035
:1011300051E0282F2171213009F050E041E0282FA3
:101140002871283009F040E0541711F029E0822777
:1011500031FF10C041E0282F2171213109F040E01A
:1011600031E0282F2871283109F030E0431711F0C1
:1011700029E0822794FD877E089582389105B9F190
:10118000B0F48133910509F47DC048F489329105AA
:1011900009F46DC08A32910509F479C00895853348
:1011A000910509F45FC08933910509F10895833EE3
:1011B0009105D9F138F4803E910529F1823E9105DF
:1011C00079F10895863E9105D9F1873E910509F49C
:1011D0003EC0843E910541F52091B60421FF24C014
:1011E0008091B50484FD19C087EE90E008952091A8
:1011F000B504237009F056C02091B60423FF14C033
:1012000089E290E008952091B50420FD38C0309126
:10121000B60430FF09C024FF3FC090E080E008958D
:101220002091B50422FDF7CF08952091B50422FD49
:1012300036C03091B60430FD35C024FDEECFF4CF7A
:101240002091B50423FFF0CF24FDE7CFCDCF20912F
:10125000B50423FD2AC03091B60431FFEECF84EEF1
:1012600090E008952091B50425FDCACF08952091FE
:10127000B50425FD1DC02091B60423FFD5CF89E319
:1012800090E008952091B50426FD15C008952091A1
:10129000B50426FD13C0089583EE90E0089582EE14
:1012A00090E0089580EE90E0089586EE90E0089535
:1012B00085E390E008958AE290E0089581E390E06C
:1012C000B3CF1F93CF93DF930E94BD08EC01C115EC
:1012D00080E5D807E8F5C11580E4D80708F09BC081
:1012E000C03ED10518F5CD3CD10508F081C0C83A03
:1012F000D10570F4C53AD10508F072C0C130D105EE
:1013000011F118F0C430D105F0F4D0E0C0E01BC0FA
:10131000C33CD105D0F7C85AD0E0CC0FDD1FCB5D60
:10132000DE4F0990D881C02DD4640DC0C11580E274
:10133000D80708F0CBC0C11581E0D80708F05AC023
:10134000C83ED10510F7CE01DF91CF911F910895CE
:10135000C03682E5D80718F5C03482E5D80708F012
:1013600069C0C03282E5D80708F05DC0C11582E5CA
:10137000D80708F493C02C2F2695269580E2289F45
:10138000900111248C2F8370C1E0D0E002C0CC0FFB
:10139000DD1F8A95E2F7C22BD32BDD68D4CFC03A8C
:1013A00082E5D80760F4C03882E5D80708F457C052
:1013B000CF71D0E0DC2FCC27C46FD06AC4CFC03C43
:1013C00082E5D80708F45EC0C03E82E5D80708F081
:1013D0009CCFDC2FCC27CC27DF71C06FD06AB3CF76
:1013E000C55AD0E0CE5DDE4FC881D0E0D064ABCF2F
:1013F000D065A9CF8D2F0E946E08182FCE01992796
:101400000E94BD08C12FD0E0DC2FCC27CC27DF7194
:10141000C82BD92B98CFCE0199270E94BD08CC2785
:10142000DF70D06AF5CFCF71D0E0DC2FCC27C16F51
:10143000D06A89CF2C2F26952695277080E2289F89
:10144000900111248C2F8370C1E0D0E002C0CC0F3A
:10145000DD1F8A95E2F7DC68C22BD32B74CF2C2FCB
:1014600026952695277080E2289F900111248C2FC5
:101470008370C1E0D0E002C0CC0FDD1F8A95E2F797
:10148000DA68EACF8C2F8F710E946E08C82FD0E0E7
:10149000DC2FCC27CC27DF71D06255CF8C2F8F71FA
:1014A0000E946E0855E0D695C7955A95E1F7CF7022
:1014B000D0E0DC2FCC27282F30E084FF05C044E0AB
:1014C000220F331F4A95E1F7D069C6CF8D2F8F7158
:1014D0000E946E08182FCE0199270E94BD08C12FC7
:1014E000D0E0DC2FCC27CC27DF71906291CF8091A8
:1014F000EF01882331F01092EF011092EE0110926B
:10150000ED010895CF939091B60492FF0DC0909194
:10151000EF01981749F0C82F0E9489049093EE01BB
:101520008093ED01C093EF01CF9108959091EF0169
:10153000292F282361F0809589238093EF01882348
:1015400039F00E9489049093EE018093ED01089593
:1015500090E080E0F8CF982F909580911D05892329
:1015600080931D050895982F90958091910389236C
:1015700080939103089590919103892B8093910317
:1015800008951092C4011092C3011092C2010895EF
:1015900080917C0490917D04892B89F00E948904BC
:1015A0002091ED013091EE01AC01421B530B81E023
:1015B00020917C0430917D044217530708F480E0A9
:1015C00081700895CF9380919103C0911D05C82B20
:1015D0008091EF018823F9F080917C0490917D0443
:1015E000892B29F00E94C80A81110E94770A8091F4
:1015F000EF01C82B809119018823B1F08091B504C7
:1016000087FF12C08EE1E4E8F1E090E0815080F4C1
:1016100091110E94770A8091720480958C23909199
:101620007304892BCF91089586E0ECE7F1E0EDCFCC
:101630002191222359F39F5FE9CF9091C101292F76
:10164000282321F0809589238093C10108958091FA
:101650001C059091D304981301C008958F5F877083
:10166000FACF292F943078F58A3068F590E03AE087
:10167000239F800D911D1124682F677023E096959C
:1016800087952A95E1F7FC01EE0FFF1FE80FF91F80
:10169000E755FE4F50E040E080E0219130E0062E1B
:1016A00002C0369527950A94E2F721703327042E5D
:1016B00001C0220F0A94EAF7822B4F5F5F4F43303D
:1016C000510559F7089580E00895292F943098F531
:1016D0008A3088F590E03AE0239F800D911D112417
:1016E000282F277041E001C0440F2A95EAF723E034
:1016F000969587952A95E1F7FC01EE0FFF1FE80FFD
:10170000F91FE755FE4F30E020E070E05191DF0116
:101710001197CB01022E02C0969587950A94E2F7A5
:10172000817081958527842385278C932F5F3F4F78
:101730002330310559F708958093FE010895909163
:10174000FE0121E030E0F90101C0EE0F8A95EAF7D1
:10175000D90102C0AA0FBB1F6A95E2F7EA2B01C0AC
:10176000220F4A95EAF7892F8E23E81305C0292B0B
:10177000822F0E949C0B089520952923F9CF21E008
:1017800030E001C0220F8A95EAF720958091FE0192
:1017900082230E949C0B08959091C4018095892317
:1017A0008093C401282F277069F4891759F090910C
:1017B000B60492FF07C08695869586950E94BF0B5A
:1017C0000E94C10A089521E030E001C0220F8A95ED
:1017D000EAF78091FE01822B0E949C0B0895909164
:1017E000B60492FF10C098E0899F90011124622BEB
:1017F0006093C4010E94E30B0E9489049093C3018B
:101800008093C20108950E94E30B08958093FD0127
:10181000089592959F70963089F050F492509230CE
:1018200058F4803F19F030F4883E30F481E0089598
:101830009A50F5CF843FD1F380E00895883EB0F30D
:10184000813FD1F7F3CF9091A604662309F471C0CC
:1018500091110CC09091A704911108C09091A90416
:10186000911104C09091A804992331F098E09093CD
:10187000790491E090939E048D3C41F40E94B3055D
:1018800081958093A7040E94500508958E3C19F419
:101890000E94B305F6CF8F3C31F40E94B3058195C9
:1018A0008093A604F0CF803D19F40E94B305F8CFD1
:1018B000893D29F40E947A058093A804E4CF8A3DEB
:1018C00021F40E947A058195F7CF8B3D31F40E9477
:1018D0007A0581958093A904D6CF8C3D19F40E9496
:1018E0007A05F8CF9FE2980F983070F4815D990BDC
:1018F00021E030E001C0220F8A95EAF78091A5042B
:10190000822B8093A504BFCF8D3D31F480919F043D
:10191000816080939F04B7CF8E3D21F480919F0416
:101920008260F7CF8F3D09F0AECF80919F04846035
:10193000F0CF8D3CD9F49091A70497FF1DC0109271
:10194000A7048091A604811106C08091A70481118B
:1019500002C0109279048091A804811194CF8091E3
:10196000A904811190CF10929E048DCF8E3CD9F4A2
:101970009091A70419161CF39FE2980F983008F075
:101980003CC0815D990B21E030E0A90102C0440F09
:10199000551F8A95E2F7CA0180959091A504892385
:1019A0008093A504CECF8F3C29F497FFE5CF10920A
:1019B000A604C7CF803D19F41916CCF3DDCF909162
:1019C000A804893D29F41916BCF61092A804B9CFD1
:1019D0008A3D19F497FFD0CFF8CF8B3D39F4909121
:1019E000A90497FFC9CF1092A904ABCF8C3D21F673
:1019F0009091A9041916BCF3BFCF8D3D31F48091AD
:101A00009F048E7F80939F049CCF8E3D21F4809114
:101A10009F048D7FF7CF8F3D09F093CF80919F0476
:101A20008B7FF0CF9C013A9521153F4150F5FC0189
:101A3000EE27F170BC0166277270AC014427547028
:101A40009C012227387094FF0EC080E0EF2B09F034
:101A500080E1672B09F08062452B09F08064232B1D
:101A600089F08068089581E0EF2B09F480E0672B0E
:101A700009F08260452B09F08460232B19F08860FF
:101A8000089580E008950F931F93CF93DF938B0108
:101A9000EA019091C904943061F58093E9008FEFD9
:101AA0009091E800815095FD06C095ED9A95F1F76B
:101AB00000008111F5CF8091E80085FF1AC00E94D7
:101AC0002003811111C08091E80085FD06C080913E
:101AD000E8008E778093E800F2CFF80181918F01C2
:101AE0008093F100219779F78091E8008E778093B9
:101AF000E800DF91CF911F910F91089543E050E0EE
:101B0000BC0184E00E94430D089546E050E0BC0112
:101B100084E00E94430D089540E250E0BC0184E05F
:101B20000E94430D0895CF93DF93EC0148E050E00D
:101B3000BC0181E00E94430D88E0FE01AFEBB4E000
:101B400001900D928A95E1F7DF91CF910895019769
:101B500008F40895EFE9FFE03197F1F700C00000C5
:101B6000F6CFCF93C82F6FEF81116AE684E290E041
:101B70000E94B5356FEFC11164EF85E290E00E94DD
:101B8000B5356FEFC11161E586E290E00E94B53591
:101B9000CF910895CF93DF93CCE7D2E060E0CE0100
:101BA0000E94B5352196C11584E0D807B9F7DF91B9
:101BB000CF9108951F93CF93DF93962F8430E8F44D
:101BC0006430D8F44A30C8F4632F122FC42FD0E009
:101BD000CC0FDD1F24E1929FC00DD11D112490E593
:101BE000899FC00DD11D1124CE0188960E94B53564
:101BF000612FCE0189960E94B535DF91CF911F915B
:101C0000089580939003682F8CE090E00E94B53592
:101C10000895682F86E090E00E94B535089584E22B
:101C200090E00E9497358A3689F485E290E00E9420
:101C30009735843F59F486E290E00E94973591E011
:101C4000813509F090E0892F8170089580E0FCCF04
:101C50000F931F93CF93DF93843030F5643020F5DA
:101C60004A3010F5C42FD0E0CC0FDD1F24E1629F75
:101C7000C00DD11D112430E5839FC00DD11D11244D
:101C8000CE0188960E949735082F10E0102F00276C
:101C9000CE0189960E9497359801282BC901DF91C2
:101CA000CF911F910F91089590E080E0F8CF20919F
:101CB0001E0230911F02232BA1F4703F39F4603FC4
:101CC00081F480912102909122020895743048F4A9
:101CD0006A3038F4843028F4462F672F0E94280E8B
:101CE000089590E080E00895CF92DF92FF920F93E5
:101CF0001F93CF93DF936C010091FE018091FD0152
:101D0000082BC3E0D0E010E0FC2EC8010C2E02C06E
:101D1000959587950A94E2F780FD0CC02197A0F76E
:101D2000F12C8F2DDF91CF911F910F91FF90DF90BC
:101D3000CF900895B6018C2F0E94570E0E94610922
:101D4000019761F3EECFCF93DF93EC010E94740E05
:101D5000BE010E94570E0E946109DF91CF91089544
:101D6000FC012481222371F087819085009729F05E
:101D70000E9461090E94090C0895808191810E944E
:101D8000A30EF8CF80E00895A6E0B0E0EAECFEE014
:101D90000C94813649835A8349815A819923A1F051
:101DA000222391F0CA010E94740E182F682F898196
:101DB0009A810E94650B69817A81812F0E94570E5A
:101DC0002696E3E00C949D36CA010E94310B182F31
:101DD000F2CFFC0187819085009749F4262F40813E
:101DE000518162817381848195810E94C40E08951E
:101DF0000F931F93CF93DF930AE714E0C8E6D1E077
:101E0000CE010E949735F80161918F01681719F092
:101E1000CE010E94B5352196CC38F1E0DF0781F77D
:101E2000DF91CF911F910F9108950F931F93CF933F
:101E3000DF930AE714E0C8E6D1E0CE010E949735AF
:101E4000F80181938F012196CC38F1E0DF07A9F7E3
:101E5000D0E0C0E0FE01E252FD4F859194910097E1
:101E600011F0FC0109952C96CC3FD10599F7DF9133
:101E7000CF911F910F91089586E090E00E949735D1
:101E80008093200282FD05C08DE1809320020E9494
:101E9000090E80912002803220F087708861809343
:101EA00020028091200280FF06C086958695869547
:101EB0000E949D07089580E0FBCF883080F49B014D
:101EC000982F8AE0989FB001112464577E4F4AE012
:101ED00050E0C9010E94873590E080E008958FEFBF
:101EE0009FEF0895AAE0B0E0E8E7FFE00C948236A7
:101EF0009C0137552F3F310509F068F4BE016F5F33
:101F00007F4F0E945D0F892B31F489859A852A962F
:101F1000E2E00C949E368091920490919304F7CF66
:101F20009091B60492FB222720F9281779F080FBC4
:101F300092F99093B6046091B5047091B60484E070
:101F400090E00E94D33582E00E94CC0B0895DA0124
:101F50009C012E5F3F4FF90145915491F901259164
:101F60003491A217B30758F0FC01349685919491EF
:101F70000E94B6360E94F80E90E080E008958FEF40
:101F80009FEF08959C01CA01F90132964591549141
:101F90008417950750F0CB01F9013496659174913F
:101FA0000E94B63690E080E008958FEF9FEF08958D
:101FB000AAE0B0E0EEEDFFE00C94783608E113E023
:101FC00086E0C82E83E0D82E9CE2E92E92E0F92E1E
:101FD00027E0922E35E0A32E33E0B32E882483949D
:101FE000D6010D931D936D014AE050E0B701CE017B
:101FF00001960E948735F8013896DF01892D1D92E0
:102000008A95E9F789819A81D80111969C938E93DC
:102010008F8112968C9312978D8113968C931397C0
:10202000888514968C931497898515968C931597AB
:102030008B819C8117969C938E93169718961C9271
:1020400018978A8587FF3CC01E961C921E921D978A
:1020500080FF03C0D80118968C9281FF04C0F8015C
:1020600090859260908782FF07C0D80118969C9156
:102070001897946018969C9383FF04C0F80190858C
:102080009860908784FF07C0D80118969C91189794
:10209000906118969C9385FF04C0F801808580624A
:1020A0008087015F1F4FFAE0EF0EF11C8CE7E81606
:1020B00082E0F80609F094CF2A96ECE00C9494366E
:1020C000F801B686A586C4CFAAE0B0E0EAE6F0E162
:1020D0000C947C36E5EBF2E080E5DF011D928A95F9
:1020E000E9F7E9EBF3E088E3DF011D928A95E9F770
:1020F00085EBC82E82E0D82E7F010CED11E0F701B0
:10210000D182C0824AE050E0B801CE0101960E941F
:10211000873588E0FE013196D60101900D928A95AF
:10212000E1F789859A85D70113969C938E93129730
:10213000BAE0CB0ED11CE7E0EE0EF11C065F1F4F9C
:102140000C32F2E01F07D9F62A96E8E00C94983694
:10215000A8E0B0E0EEEAF0E10C9474368E010F5F77
:102160001F4F88E0F80111928A95E9F79BE5E92E67
:1021700091E0F92E68012FE5422E21E0522E6624CF
:102180006394712C49E6842E41E0942EF7018191ED
:102190007F018F3F09F445C0F894E82FE295EF7076
:1021A000F0E021A18F70A30102C0440F551F8A9552
:1021B000E2F7CA01922F982B91A392A180958923CF
:1021C00082A3789400C0EFE5F1E021E030E0B12C8B
:1021D000A12C41914F3F09F44BC0A42FA295AF70A1
:1021E000B0E090968C9190E04F7002C095958795E5
:1021F0004A95E2F780FD3CC0C901A82AB92A220FFE
:10220000331F8E169F0629F7F701319780818F3F84
:1022100011F00E94570850EA5A95F1F7F601B18281
:10222000A082F2E0CF0ED11C4E145F0409F0AECFB5
:1022300048E050E0B80185EF91E00E94A936892B73
:10224000E1F088E0F801A5EFB1E001900D928A95E8
:10225000E1F781E08093F4010E9489049093F301F7
:102260008093F20110E0812F2896E0E10C949036E3
:1022700090E080E0C2CF10E01FC01091F401112364
:1022800089F38091F2019091F3010E946E04059709
:1022900048F348E050E065EF71E086E192E00E948B
:1022A000A936892B41F388E0E5EFF1E0A6E1B2E041
:1022B00001900D928A95E1F71092F401D4CF8091AC
:1022C0001901882359F18091B50487FF27C00E9426
:1022D000E20A8093830140E250E065EC71E082E81D
:1022E00091E00E94A936892BC1F080E2E2E8F1E09A
:1022F000A5ECB1E001900D928A95E1F7E091B1046F
:10230000F091B204309749F086E080938201048016
:10231000F581E02D82E891E0099508950E94E20A96
:1023200080937A0148E050E065EE71E08AE791E041
:102330000E94A936892B89F388E0EAE7F1E0A5EE4F
:10234000B1E001900D928A95E1F7E091B104F0912E
:10235000B204309711F30280F381E02D8AE791E017
:10236000DBCFCF93DF93EC014A855B856E857F855C
:102370000E944A058B810E94AB0A8C810E94B30A9D
:102380000E945F1186E0FE0111928A95E9F7DF91C4
:10239000CF910895CF93DF93EC018D8181FD14C01F
:1023A00082608D8380911D059B81892B80931D0503
:1023B0008C810E94BB0A0E945F11488559856E85F9
:1023C0007F85CE010E944A051092AE041092AD04A2
:1023D0008D8180FD03C0CE010E94B111DF91CF91AC
:1023E000089580911101877F8093110182E00E94FE
:1023F000AB0A8091110184FF06C08F7E809311018A
:1024000082E00E94BB0A8091110185FF06C08F7D8A
:102410008093110180E20E94BB0A0E945F1108951F
:102420001092910380911901882339F18091B504AC
:1024300087FF23C0E4E8F1E08EE1DF011D928A9579
:10244000E9F790E080E00E94180590E080E00E94AB
:10245000F30410921D050E945F1186E0E4EAF4E0A7
:10246000DF011D928A95E9F71092790410929E047B
:1024700010929F040E9450050895ECE7F1E086E079
:10248000DCCFAAE2B0E0E7E4F2E10C948136EBECB9
:10249000F4E08091F100819384E0E33DF807C9F70F
:1024A0008091CC04833009F47FC008F5813009F4B1
:1024B00056C0823009F4C0C08091E80083FFFAC0A2
:1024C0008091CB049091CC049A3008F0F3C0E92FAE
:1024D000F0E0E359FD4E0C944B362D1353135A1371
:1024E00053135A13AB13CD135A13D714E4148A3071
:1024F00009F491C08B3009F474C08930E9F68091F9
:10250000CB048132C9F68091CF049091D00400971A
:1025100011F0029789F68091E800877F8093E800A8
:102520008091E80082FF3BC08091F3009091F2001F
:10253000892798278927029731F48091F10081300B
:1025400011F0863021F48091F1008093BE048091D7
:10255000E8008B778093E8000E944F03ADCF809115
:10256000CB04813A09F0A8CF8091E800877F80935F
:10257000E8008091CF049091D004892B61F060E055
:1025800090E080E070E00E94FB038091E8008B7790
:102590008093E80091CF68E08FEB94E0F3CF8091D7
:1025A000C9048111BDCF88CF8091CB04813A09F055
:1025B00083CF8091CF049091D004892B09F07CCFF8
:1025C0008091E800877F8093E8008091E80080FF99
:1025D000FCCF809119018093F1008091E8008E7703
:1025E000B9CF8091CB04813209F066CF8091CF04BE
:1025F0009091D004892B09F05FCF8091E800877F0C
:102600008093E8000E944F038091CD0480931901CC
:102610000E94101251CF8091CB04813209F04CCF2F
:102620008091E800877F8093E8000E944F038091AB
:10263000CE048093BD0440CF8091CB04813A09F051
:102640003BCF8091E800877F8093E8008091E8008D
:1026500080FFFCCF8091BD04BECF803889F08238E6
:1026600049F58091CF048F70873020F58093E90081
:102670008091EB0085FB882780F91092E90006C065
:102680008091C7049091C804911182609091E800F4
:10269000977F9093E8008093F1001092F100809171
:1026A000E8008E7727C0282F2D7F21F48823A1F002
:1026B000823029F18091E80083FF0AC08091E80010
:1026C000877F8093E8008091EB0080628093EB002D
:1026D000AA96E3E00C949D368091CD04813051F7A9
:1026E000933009F080E08093C8041092E900809153
:1026F000E800877F8093E8000E944F03DBCF809142
:10270000CD048111F2CF8091CF048F702FEF280F6D
:10271000263080F68093E9002091EB0020FFE5CF82
:10272000933031F48091EB0080628093EB00DDCF39
:102730009091EB0090619093EB0021E030E001C0BC
:10274000220F8A95EAF72093EA001092EA0080911E
:10275000EB008860EACF8111ADCF1091CD041F77D7
:102760008091E3008078812B8093E3008091E800E2
:10277000877F8093E8000E944F038091E80080FFEC
:10278000FCCF8091E30080688093E30083E0111127
:1027900001C082E08093C9048DCF8058823008F058
:1027A00089CF2091CD043091CE042C3DA3E03A078F
:1027B000A1F583E08A838AE289834FB7F894DE012A
:1027C000139620E03EE051E2E32FF0E050935700F3
:1027D000E49120FF03C0E295EF703F5FEF708E2F12
:1027E00090E0EA30C0F0C7968D939D932F5F24311F
:1027F00059F74FBF8091E800877F8093E8006AE235
:1028000070E0CE0101960E94FB038091E8008B7777
:102810008093E8004FCFC096E7CF8091CF0490918E
:10282000D004432F55274330510509F44FC078F5A4
:102830004130510509F445C08BE590E0E0E2F4E059
:102840004230510509F036CF2091E800277F2093D0
:10285000E8002091D1043091D2048217930708F444
:102860009C0140E02115310509F06EC041116CC09A
:102870008091E80082FDC9CF8091C904882329F2A4
:10288000853019F28091E80083FFF2CFBECF41324C
:10289000510509F44AC04232510509F00BCF83308B
:1028A000910508F007CFFC01EE0FFF1FE459FE4F22
:1028B0000190F081E02D87599E4FDC018C9190E0D2
:1028C00020C082E190E0EBE7F4E0BECF3327213077
:1028D0003105D9F078F022303105F9F02330310597
:1028E00009F0E8CEEDE8F4E0E4918E2F90E0EDE819
:1028F000F4E007C0E1EDF4E0E4918E2F90E0E1ED2B
:10290000F4E0009709F4D6CE9FCFE1ECF4E0E49137
:102910008E2F90E0E1ECF4E0F4CFEBEAF4E0E49108
:102920008E2F90E0EBEAF4E0ECCF8330910508F0D5
:10293000C1CE880F991FFC01EE58FE4F0190F08127
:10294000E02D89E090E080CF8091C904882309F4CC
:102950005CCF853009F459CF8091E80083FD55CFD5
:102960008091E80082FD84CF8091E80080FF7ACFDB
:102970008091F3009091F2008927982789272115EB
:10298000310519F08830910550F041E0089709F0C1
:1029900040E08091E8008E778093E80063CF449117
:1029A0004093F1003196215031090196E8CF8038EB
:1029B00009F080CE8091E800877F8093E8008091C5
:1029C000CA048093F1006BCE811174CE1091CD04B6
:1029D000123008F06FCE8091E800877F8093E80086
:1029E0001093CA040E944F031123D1F084E0809316
:1029F000C90442E061EC81E00E946E0342E261ECB6
:102A000084E00E946E0342E261EC82E00E946E0369
:102A100042E260EC83E00E946E038091C9044ACEDA
:102A20008091E30087FDE2CF81E0E1CFEAE7F4E0C7
:102A3000128E138E8FEA90E09183808325E0248F9D
:102A400088E893E1938382838AE090E0958384838E
:102A500044E150E05783468348E050E05187408787
:102A6000938782876EE170E0758764879787868792
:102A700080E590E0918B808B538B428B48E250E055
:102A8000558B448B42E350E0578B468B48EC50E02B
:102A9000518F408F158E178E168E91A380A322A37F
:102AA0000E94F80E0E9410121092B6041092B50403
:102AB000E6EBF4E08081846080836091B5047091DE
:102AC000B60484E090E00E94D3350E94150F08956B
:102AD000AEE1B0E0EEE6F5E10C947A36E090130159
:102AE000F090140181E090E0909314018093130121
:102AF000B12CD12CC12CA12C1FC0402F21E030E0E3
:102B0000B1100AC0F801EC0DFD1DEE0FFF1FE053E0
:102B1000FC4F859194919C016A2D8B2D0E94DA0DBA
:102B20000F5F1F4F0A30110541F7A3948AE0C80ECA
:102B3000D11CE4E0AE1619F010E000E0DECFB39453
:102B4000F4E0BF12D6CF0E9416151A8219821C8299
:102B50001B821E821D8218861F8288EC90E09A8755
:102B600089870CE811E04AE050E0B801CE010196F7
:102B70000E94D935065F1F4F0C3D81E0180799F779
:102B80006E01EBE0CE0ED11C8AE0F60111928A951F
:102B9000E9F74AE050E0B801C6010E94D935065F66
:102BA0001F4F0C32F2E01F07A1F76E0185E1C80E3E
:102BB000D11C8AE0F60111928A95E9F78FEF9FEF19
:102BC0009A8F898F87E08E8F4AE050E0B801C60166
:102BD0000E94D935065F1F4F0C37F2E01F07A1F79F
:102BE000F0921401E09213016E96EAE00C9496368E
:102BF00080E00E94B10D60E087E290E00E94B53570
:102C00000E9468150E94CA0D81E00E94B10D0895CE
:102C1000CF92DF92EF92FF928FEF9FEF44305105FA
:102C200008F46CC0FB01C080D180E280F3800E9478
:102C300010128091B504C0FA80F9B701A60176950B
:102C400067955795479540FB81F9B701A60122E0AA
:102C500076956795579547952A95D1F740FB82F968
:102C6000B701A60133E076956795579547953A9554
:102C7000D1F740FB83F9B701A601E4E076956795AB
:102C800057954795EA95D1F740FB84F9B701A6011E
:102C9000F5E07695679557954795FA95D1F740FBFE
:102CA00085F9B701A601A6E07695679557954795F2
:102CB000AA95D1F740FB86F9B701A601B7E0769552
:102CC000679557954795BA95D1F740FB87F980935B
:102CD000B5048091B604D0FA80F9D1FACC24C0F8BA
:102CE000C0FA81F98093B6046091B5047091B6047E
:102CF00084E090E00E94D33590E080E0FF90EF9078
:102D0000DF90CF9008950E9410122FEF84E39CE093
:102D1000215080409040E1F700C0000088E19AE037
:102D20000FB6F894A895809360000FBE9093600052
:102D3000FFCF882321F00E94AB0A0E945F11089503
:102D4000882339F090911D05892B80931D050E94E1
:102D50005F110895882321F00E94B30A0E945F1139
:102D60000895882321F00E94BB0A0E945F110895F4
:102D7000882381F19CEF980F913A28F40E949504E2
:102D80000E945F11089590E2980F983050F4877078
:102D900091E001C0990F8A95EAF7892F0E94B30A42
:102DA000EFCF9BE5980F933028F490E080E00E94ED
:102DB0001805089598E5980F9B3128F490E080E07D
:102DC0000E94F304089593E3980F933118F460E0A0
:102DD0000E94230C0895FF920F931F93CF93DF93CC
:102DE00000917704109178040115110509F451C080
:102DF000109276041092750410927204109273046B
:102E0000D8011696CD91DC91AE015A9541155F41DE
:102E100008F4D07ED1E0C11101C0D0E0F82ED80175
:102E20001996ED91FC911A97309731F01B966D91A0
:102E30007C9180E00995D823DD2339F08CEF8C0F4D
:102E4000813A68F58C2F0E949504E0917704F09107
:102E5000780440815181FF2071F0808584FD0BC092
:102E600080917404882339F091E09A01215031094E
:102E70002F333E4708F090E090FF03C0CA010E9444
:102E800020060E945F11109278041092770410922D
:102E90007404C801CDB7DEB7E5E00C949B360E9400
:102EA0005F118C2F0E94B816D0CFCF93DF93EC0127
:102EB0000E94B816CE010E94120D9E01205E3109BB
:102EC0002830310510F0CD2B29F40E94AA16DF918D
:102ED000CF9108950E949916FACFCF938823B9F124
:102EE000C82F8CEF8C0F813AA0F5809119018823AF
:102EF00001F18091B50487FF1CC0EC2FE695E695A3
:102F0000E695F0E0EE57FE4F828190E04C2F47703F
:102F100021E030E002C0220F331F4A95E2F78223FE
:102F20009323892B79F08C2F0E9495040E945F11C6
:102F300009C0ECE7F1E08191C817A9F381E0E2381C
:102F4000F807C9F78C2F0E94BF040E945F11CF9130
:102F5000089580E28C0F883048F4C77081E001C08A
:102F6000880FCA95EAF70E94BB0AEFCFEBE5EC0F9A
:102F7000E33040F4F0E0EE5DFE4F808190E00E948F
:102F80001805E5CFE8E5EC0FEB3150F4F0E0EE0F7B
:102F9000FF1FEB5DFE4F808191810E94F304D7CF2C
:102FA00083E38C0F833198F661E08C2F0E94230C11
:102FB000CECF1F93CF93DF93182FEB010E946D1795
:102FC000209739F4812F0E94B816DF91CF911F917D
:102FD00008958FE99FE00197F1F700C00000219765
:102FE000EFCF60919A0470919B04893321F0609136
:102FF0009804709199040E94D9170895B0E0A0E058
:10300000E4E0F8E10C947D36E82FF0E0EB5FFA4F56
:10301000D490282F26952695269530E0F901EB507F
:10302000FB4F0491877010E0082E02C0159507959C
:103030000A94E2F701701127F901EB51FB4FE4907C
:10304000F12C082E02C0F594E7940A94E2F791E07F
:10305000E922FF24F901EB52FB4FC491D0E002C0FA
:10306000D595C7958A95E2F7C170DD270115110541
:1030700019F081EE0E946D17E114F10419F086EE4B
:103080000E946D1770E060E08D2D0E94D917E11449
:10309000F10419F086EE0E94B8160115110519F019
:1030A00081EE0E94B816CD2B19F08CE20E94F11728
:1030B000CDB7DEB7E7E00C949936EF92FF921F93FD
:1030C000CF93DF93EC011AE08881882309F44CC088
:1030D000813009F046C08981813051F47E0182E05F
:1030E000E80EF11C8A810E94F117E7012196ECCFCE
:1030F000823041F47E01E2E0EE0EF11C8A810E94F2
:103100006D17F3CF833041F47E01F2E0EF0EF11C36
:103110008A810E94B816E9CF843011F02196E6CF5B
:103120002A81229690E080E0AE014F5F5F4F2053EE
:10313000330B2A30310550F00097C1F2EFE9FFE080
:103140003197F1F700C000000197F6CF189FB0014A
:10315000199F700D1124C901860F971F2981EA015B
:10316000E3CF0E94FE17C2CFDF91CF911F91FF9056
:10317000EF900895B0E0A0E0E0ECF8E10C947A362E
:103180007C015B01C42FD22FFC0185818823A9F02B
:103190004093AC040E9489049093AB048093AA04EA
:1031A000C77081E001C0880FCA95EAF70E94B11686
:1031B000CDB7DEB7EAE00C9496361091AC04141348
:1031C00038C08091AA049091AB040E946E046C01F7
:1031D000B701C5010E94720FC816D90650F5C0E2AA
:1031E000CD0F1D17C1F080E2810F883048F41770B1
:1031F00081E0012E01C0880F0A94EAF70E94AA1606
:10320000C830F0F481E09D2F977001C0880F9A9527
:10321000EAF70E94B116802F0E94F117C83040F6DD
:10322000D77081E001C0880FDA95EAF70E94AA16EC
:10323000BFCFC77081E001C0880FCA95EAF7F6CF0B
:10324000802F0E94F117B4CF90919003923071F4C7
:103250008A3050F490E009966AE070E00E941536DA
:10326000875A0E94F11708958650FBCF96EF980F6A
:10327000963020F0805D0E94FE170895895AFBCF9A
:103280008F929F92AF92BF92EF92FF920F931F93F4
:10329000CF93DF934B015C01D09190038CE1E82E3A
:1032A000F12C07E010E021E0D501C4010E2C04C090
:1032B000B695A795979587950A94D2F7C82FCF70A2
:1032C000222339F0D43051F4CA3040F080E00E941B
:1032D00024198C2F0E94241920E005C0C111F9CFB8
:1032E00004301105B4F30150110984E0E81AF10823
:1032F0000F3F1007C9F6DF91CF911F910F91FF90FB
:10330000EF90BF90AF909F908F900895CF93DF93F1
:10331000EC010E94120D9E01205E3109283031051A
:1033200010F0209741F40E94B1168C2F0E946D1767
:10333000DF91CF9108950E94A016F7CF662329F060
:1033400020911D05226020931D059C0130522115FE
:10335000304308F499270E9486190895B0E0A0E050
:10336000E4EBF9E10C947C366C018B01E42E809146
:10337000110182FF87C0C091B403D091B503CC1571
:10338000DD0521F0C114D10409F07CC08091110148
:103390008B7F8093110181FD6EC08091B20390916B
:1033A000B303A801481B590B81E020910F01309114
:1033B00010014217530708F480E08170F82E8091C5
:1033C0001101F0FA81F980931101FE0183E0F69575
:1033D000E7958A95E1F7EE71FF27EE56FC4F2081C5
:1033E0003181AE014F70552781E090E002C0880F17
:1033F000991F4A95E2F7FF2009F43FC0822B932BD7
:10340000918380838091910381FF08C08091110195
:1034100080618093110182E00E94B30A8091910340
:1034200085FF08C08091110180628093110180E2C4
:103430000E94B30A6F2DCE010E949E19EE2031F03A
:103440008091950485FF02C086FF30C0809198046A
:10345000909199040E94A70D8091B4039091B503B7
:103460009C0130522115304308F499270E945517CA
:103470000E94F11117C081E0A0CF80959095822322
:103480009323BECFC601905281159043A0F4C6018C
:1034900099270E9455178091B4039091B5038C151C
:1034A0009D0531F31093B3030093B203CDB7DEB79C
:1034B000E8E00C949836C601ECCF0F931F93CF939E
:1034C000DF938C01EB010E948619209741F4C8011B
:1034D0000E945517DF91CF911F910F9108958FE9A9
:1034E0009FE00197F1F700C000002197EECFA8E020
:1034F000B0E0EDE7FAE10C947236DC0114962C9101
:10350000222309F496C17C0161E00E94E90E8C013E
:10351000F7018581882319F18091AD049091AE0463
:103520000097E9F008171907D1F09927A4E0880F50
:10353000991FAA95E1F7FC01E65CFD4F208124600C
:1035400020838B5C9D4FDC010D931C930E94CA115C
:1035500010921D0561E0C7010E94E90E8C01F70180
:103560008581882309F4B8C0C80197578038910530
:1035700008F0E6C0D02EFFE0F01708F44AC18FEF44
:1035800093E00E949735811144C10CE712E0D110FD
:1035900038C0F4E04F2EAE014F5F5F4F3A01332445
:1035A0003A94D301E42D1D92EA95E9F76801FFEF03
:1035B000CF1ADF0AC8010E9497358983882309F44E
:1035C00028C18130D1F4580122E0A20EB11CC601FD
:1035D0000E949735582E8A83882309F41AC18FEFE9
:1035E000850D8330E0F4680133E0C30ED11CC501C2
:1035F0000E9497358B838823D9F1C3010E945D18FF
:1036000037C0011524E0120709F403C1C8010E9464
:103610009735811101C0DA940F5F1F4FB8CF8BEF40
:10362000850D833068F5480143E0840E911CC50187
:103630000E9497358B8364018823D1F0680154E0A0
:10364000C50ED11CC4010E9497358C83882381F05C
:103650008B819C818130AFEF9A0710F0982F8827DB
:10366000B6E05B1639F0E7E05E1639F00E94862B73
:10367000860197CF0E94612BFBCF0E94E82AF8CFEA
:10368000F4E065015F12F4CFC5010E949735B82EB2
:10369000680124E0C20ED11CC80103960E94973530
:1036A000BB2009F4B6C0882309F4B3C0482F4150A9
:1036B000550B349EC001359E900D1124AB2DA150A9
:1036C000BB0B8A0F9B1F019798F2EFE9FFE0319740
:1036D000F1F700C00000F7CF680127E5D21A3FEFED
:1036E000C316D10409F060F56BE272E08C2D0E94E4
:1036F0005D0F892B29F5C60174E0880F991F7A9513
:10370000E1F7FC01EB5CFD4F2281213009F048C05C
:1037100020912B0230912C02232B91F020912D022D
:1037200030912E02232B61F020912F023091300234
:10373000232B31F42091310230913202232BC1F13D
:10374000D70115963C90332009F4C6C00230B8E783
:103750001B0709F4A2C0B8F50115F8E71F0709F423
:1037600051C080E0013028E7120709F44CC00E3543
:103770008CE7180709F4ACC00F359CE7190751F026
:103780000D35ACE71A0709F0A7C080910001882326
:1037900009F49EC01092000180E00E94EB1639C02F
:1037A000223071F620912F0230913002232B41F20A
:1037B000FC01E65CFD4F20812E7F20838B5C9D4FBA
:1037C0000E94CA11BDCF043038E7130709F451C075
:1037D000A0F1053058E7150751F690912002892F86
:1037E0008695869586958F5F8F719770843008F0E7
:1037F0006CC0880F880F880F892B809320028091DE
:10380000200223C083E00E943E08809120020E9493
:10381000090E8091C401877061F0D70115968C91D3
:10382000882339F08091B60482FF03C082E00E94B1
:10383000CC0B2896E2E10C948E3680912002982FD2
:10384000987F79F0885080932002887F91E009F476
:1038500090E08091200290FB80F9809320020E94EA
:10386000090E809120028695869586950E949D0777
:10387000D0CF80912002982F96959695969593306B
:1038800040F49F5F990F990F990F8770892B809350
:103890002002809120028160E0CF8091200280FF91
:1038A00007C08E7F809320020E94090E80E0DECF49
:1038B00080FDAFCF816080932002813019F489E0D0
:1038C0008093200280912002CACF9093200297CF4C
:1038D00081E0809300019DCF80910001882311F445
:1038E0000C94B3244801B0EE8B1A91085090EF016C
:1038F0008091C101582A80919103582AE8E08E16E0
:10390000910408F0DDC098012770332781E090E032
:1039100001C0880F2A95EAF7332009F4CEC0582A4F
:10392000D7018D919C910E94310B21E030E0F9018B
:1039300002C0EE0FFF1F8A95E2F7FE83ED83209110
:1039400077043091780438872F836090A2017090BB
:10395000A301212CE22DF0E0EE0FFF1FEA5FFC4FE8
:10396000C080D180C114D10411F40C948124511071
:1039700005C0D60112968C918111DFC0F6018381BA
:1039800090E02D813E8182239323892B09F4D5C0B9
:103990008085982F977009F487E038E083169104AA
:1039A00008F0A8C0332009F4A1C08695817088234F
:1039B00009F4C3C0D601AD90BC900A151B0519F4DB
:1039C000332009F4BAC0EF81F885CE16DF0609F47A
:1039D000B4C0D6011D96ED91FC91309721F0808105
:1039E000882309F4AAC0652DC6010E9471068823A8
:1039F00009F4A3C00A151B0511F00C940625011546
:103A0000110509F47BC0311079C0412C81E0A61466
:103A1000B70409F080E080FF90C080E00E94EB16C0
:103A2000D0927804C092770481E080937404F60108
:103A300085818093720441100DC0AB2859F08081BC
:103A400091819C0124503109213A310508F059C077
:103A50000E949504D6011696AD90BC90C5019A952A
:103A600081159F4110F4E0EEBE2277247394C501C6
:103A700001978F339E4708F0712CD6011996ED916E
:103A8000FC911A97309731F01B966D917C9181E0F3
:103A900009957822772071F0F601868197810E943E
:103AA000120D80937304C501F8E08F16910460F540
:103AB0000E9420060E945F112EC08095582230CFB0
:103AC000332009F407C71093A3010093A2010E94B9
:103AD0007D0460936E0470936F04809370049093E0
:103AE000710410927604109275041ACF82FB882715
:103AF00080F95DCF332009F1817059CF432C81E0EB
:103B00008ACF0E94B816A6CF0497813A910548F44F
:103B10008A2D0E94BF04442009F425C70E945F112A
:103B200078CE0E945F118FE39CE90197F1F700C006
:103B300000008A2D0E946D17EECF23940BCFFC015D
:103B4000208131810217130709F006C7311006C71B
:103B50001092740480E00E94EB1605C790E080E0AC
:103B600042C7F9014485558566857785C9010E945C
:103B70004A05D60115968C9181FFD6C6C6010E94D2
:103B8000B1118091AD049091AE040817190709F0A6
:103B9000CBC61092AE041092AD04C6C606335CE7E5
:103BA000150709F4D0C008F4CCC007339CE7190707
:103BB00029F485E001C080E00E94010ED70115962E
:103BC0008C91882309F444C017FF42C04801E8944F
:103BD00097F8B12CA12C0E943D058093A5019091EE
:103BE0009003913029F481FF03C089E30E94F1170B
:103BF000809191038093A4011092910310921D056E
:103C000080919003823009F4C9C008F09EC08823D7
:103C100009F4B7C0813009F4B8C08FE39CE901977B
:103C2000F1F700C00000C501B4010E944019809165
:103C30009003823009F4E8C008F0C9C0882309F471
:103C4000D4C0813009F4D5C08091A4018093910340
:103C50008091950480FF2EC10E9489046C01D701D8
:103C600015968C91882309F4E9C08091110182FF97
:103C700008C02AE032E040E0B60190E080E00E9417
:103C8000AE190431BCE71B0709F4D4C00531ECE7D9
:103C90001E0709F4C4C00331FCE71F0729F4809113
:103CA0001101816080931101C801905281159043E8
:103CB00008F0D2C01092B5031092B403F7018581C9
:103CC000882309F4B1C21092AC04C80190578397BD
:103CD00008F0A9C284E090E00E949F359093B6045A
:103CE0008093B504F801E150F047E232F10508F0A5
:103CF000DDC1E358F14E0C944B36902005219820FD
:103D0000622066209C206A20A020AC207620FE2025
:103D10007A20B0207E20B420DC208220B820E3204E
:103D20008820BE20C6206E20A4207220A8208C20CF
:103D3000C220D220EC20FC205C2094200C2182E0C8
:103D40003BCF83E039CF84E037CF8430D9F1853061
:103D500009F063CF60919804709199048BE191E030
:103D60000E945D1A609198047091990485E290E038
:103D70000E945D1A609198047091990488E290E025
:103D80000AC082EE0E946D1748CF6091980470912E
:103D9000990488E193E00E945D1A3FCF8091A501CC
:103DA00080FD03C083E50E94F11782EE0E946D172B
:103DB000EFE3FCE93197F1F700C0000087E50E94CE
:103DC000F1172BCF86EE0E94F11788E1F8CF8430EF
:103DD00021F1853009F038CF6091980470919904F1
:103DE00088E290E00E945D1A2FCF82EE0E94B81602
:103DF0002BCF8CE20E94F1178091A50181FF24CF87
:103E000089E30E94F11720CF82EE0E94B8168091BC
:103E1000A50180FD19CF83E5F4CF88E2F2CF909120
:103E20001101892F8E7F90FF8160809311010E9484
:103E3000F1113ACF809111018E7FF7CF809111015E
:103E40008F7E013E110531F0053E110571F580911F
:103E500011018F7D809311018091110180FF2AC093
:103E6000D70115968C910832110560F50E311105B8
:103E700008F079C004301105B8F58823D9F0109204
:103E8000B5031092B403F801E851FC47E730F1059F
:103E900008F019CFE25BF04E0C944B3638203E20F0
:103EA0002920322044204A205020C80190528115F8
:103EB000904390F6F801E851FC47E730F10508F02F
:103EC000FDCEE8CF0933110558F40D32110518F471
:103ED0000B32110591F69091950492FDCECF08C05A
:103EE00004361105C1F3C9CF9091950494FDC5CF57
:103EF000882309F4A7C08091EF0190919103892B49
:103F00008D7FB1F11092B5031092B40380919504A6
:103F100081FD2EC0F80143E0F695E7954A95E1F75B
:103F2000EE71FF27EE56FC4F98012F70332781E08A
:103F300090E002C0880F991F2A95E2F7809590952E
:103F400020813181822393239183808360E0C801A3
:103F50000E949E198091EF018D7F0E94820A82E06B
:103F60000E94CC0B56CC9091950493FD86CFC0CF88
:103F700089E0F701AAE0B2E001900D928A95E1F79D
:103F800010920D0210920C028091B4039091B5032F
:103F900008171907D9F58091950485FF37C09091CE
:103FA000110191FF02C086FF31C08091B203909150
:103FB000B3035601A81AB90AB701C8010E94720FCB
:103FC000A816B90618F58091910381FF08C0809169
:103FD000110180618093110182E00E94B30A8091F7
:103FE000910385FF08C080911101806280931101C7
:103FF00080E20E94B30A6091110166956170809120
:10400000B4039091B5030E949E1903CC8091EF01F7
:1040100090919103982B2091110191FB21F920930C
:1040200011018D7F0E94820A1093B5030093B4039F
:10403000D092B303C092B203809111018460809347
:1040400011018DCF970140E0B601C8010E94AE1961
:10405000E0CB06E221EE41EE6AE17CE7C7010E9477
:10406000BA18D7CB07E225EE45EE6BE17CE7F6CF39
:1040700006E221EE40EE68E17CE7F0CF07E225EEB4
:1040800044EE69E17CE7EACF06E221EE42EE6CE124
:104090007CE7E4CF07E225EE46EE6DE17CE7DECF7C
:1040A00008E221E045EE6EE17CE7D8CF8091B504CF
:1040B00081608093B50495C08091B6048860809338
:1040C000B6048FC08091B5048260F3CF8091B504AF
:1040D0008460EFCF8091B5048860EBCF8091B60407
:1040E0008160EDCF8091B6048260E9CF8091B50404
:1040F0008061DFCF8091B5048062DBCF8091B50411
:104100008064D7CF0E9410128091B5048068D1CF0F
:104110008091B5048860DCCF8091B6048260E0CFE6
:104120008091B5048E7FC5CF8091B604877FC7CFBD
:104130008091B5048D7FBDCF8091B5048B7FB9CFC1
:104140008091B504877FB5CF8091B6048E7FB7CFBD
:104150008091B6048D7FB3CF8091B5048F7EA9CFB7
:104160008091B5048F7DA5CF8091B5048F7BA1CFC1
:104170000E9410128091B5048F779BCF8091B50477
:10418000877FDCCF8091B6048D7FE0CF8091B5042E
:1041900082FB992790F921E0922790FB82F990FB0E
:1041A00083F987CF8091B604982F909591708E7F78
:1041B000892B90FB81F983CF9091B504892F8F7B58
:1041C00096FF806476CF0E9410129091B504892FDB
:1041D00097FB87F980586DCF61E08EE090E00E94F8
:1041E000B5356091B5047091B60484E090E00E940A
:1041F000D3350E9410120DCB60E0EFCF9091B50443
:10420000892F8F7E94FF806154CF9091B504892FC0
:104210008E7F90FF81604DCF9091B604892F877F6C
:1042200093FF88604CCF81E00631FCE71F0779F5EA
:1042300090919103292F2A7A3091940430FF04C081
:10424000492F447409F020E031FF04C0492F417127
:1042500009F020E032FF04C0492F487809F020E03F
:1042600033FF03C0927209F0C6C3882309F4C5C3A3
:1042700081E0211101C080E08093A60185E3211136
:1042800001C089E20E94BF0449CC89E2BCC3073760
:104290002CE7120709F466C008373CE7130709F456
:1042A00070C0882381F003304CE7140709F48AC0FA
:1042B00008F06DC001158CE7180709F476C00130CD
:1042C0001C4709F485C0F70187819085009709F4A0
:1042D0008DC00E946109182F092FF701C580B68093
:1042E000B2943FE0B3228091C401877001F1AC2CFD
:1042F000CC20F1F0892F807F803461F080E2810F43
:104300008830A8F0892F807E803221F4123078F036
:10431000BB2069F08091B60482FF09C082E00E9450
:10432000CC0B8091C4018770AA24A3948111A12C85
:10433000D02ED2942FE0D222FBE0FD1508F469C103
:10434000ED2DF0E0EA55FE4D0C944B360D220D227A
:1043500042224222022323230923092328239423D0
:10436000A623A623882349F081E00E94E30B43E0C3
:1043700062E081E00E949F0B4CCA81E00E94BF0B6B
:10438000F6CF882311F082E0F0CF82E0F7CF0B3533
:10439000ACE71A0749F10C35BCE71B07D9F00A3521
:1043A0001C4709F090CF81E01CC00E941012FFEF63
:1043B00024E33CE0F15020403040E1F700C0000031
:1043C0000E945D046FEF7FEF90E080E00E94D335A4
:1043D0000E9483168091B60482FB882780F991E0C1
:1043E00089270E94900F6FCF80E0FBCF85810081ED
:1043F0001181882369F0C8010E94740ED82E682F9D
:10440000C8010E94650BB8018D2D0E94570E61CF27
:10441000C8010E94310BD82EF6CF202F2F70D22E3C
:10442000802F807F19F0D29490EFD922CC20A9F070
:10443000DD2059F080E2810F883010F0111107C0A3
:104440008D2D0E94BB0A0E945F11812F3FC0809179
:104450001D05D82AD0921D05F6CF812F0E94B816CF
:10446000DD20B1F180E2810F883010F0111104C01D
:104470008D2D0E94B30A03C08D2D0E94AB0A0E94AD
:104480005F1126C0302F3F70D32E802F807F803267
:1044900019F0D29480EFD822112351F0113009F491
:1044A00090C0CC2009F49CC0BB2009F441C0CDCF02
:1044B0008091B60482FD38C0CC2081F1DD2029F046
:1044C0008D2D0E94BB0A0E945F1180E00E946D1733
:1044D000812F902F0E94090C8111D3C11092A80145
:1044E0001092A701AA20A9F08091C40180FD11C0FB
:1044F000F70115828695869586950E94E30BC70184
:104500000E94771A8091C4018695869586950E94AF
:10451000BF0B60E0C7010E94E90E8BC980E00E94DA
:10452000B816DD20A9F2A4CFCC2089F1B11004C0C7
:104530008D2D0E94B116CCCF41E0B41210C09090E6
:10454000EF018D2D8921D81619F20E9489049093CC
:10455000EE018093ED01D928D092EF01B9CF80917F
:104560009604823008F4B4CFB812B2CF8D2D0E94D9
:10457000B1168D2D0E94960A8091C1019D2D982320
:10458000D91609F4A5CFD82AD092C101A1CFB11074
:104590000AC08D2D0E94AA168D2D0E94960A8D2D7F
:1045A0000E941D0B95CF80919604823008F490CF25
:1045B00051E0B5128DCF809191038D2109F488CF00
:1045C000E8CF80919C04CC2021F08B1508F480CF9B
:1045D000AFCFB81608F07CCF8D2D0E94AA1678CFE9
:1045E000BB20D1F380919A0490919B04193321F060
:1045F00080919804909199040E94A70D812F0E94A8
:10460000B81666CF802F86958695837041F08130ED
:1046100081F088EF8D0D843008F05ACF44C0812F8F
:10462000902F9370C11002C080E090E00E941805A6
:104630004FCF812F902F9370C11002C080E090E087
:104640000E94F30445CF6C2D812F0E94230C40CF94
:10465000802F837099F5C11026C0412F4295469551
:104660004770440F440F812F8F70042E01C0880FB4
:104670000A94EAF720E014FF07C02FE030E001C001
:10468000220F4A95EAF72095302F369536953370EC
:10469000323079F060F44091FD01313039F0822BF5
:1046A00084230E94060C0E943D0512CF842B822B8E
:1046B000F8CF282B8091FD018227F3CF8695CC205F
:1046C00011F0802F8170882371F3412F4295469518
:1046D0004770440F440F812F8F70042E01C0880F44
:1046E0000A94EAF720E014FF07C02FE030E001C091
:1046F000220F4A95EAF72095302F3695369533707C
:10470000323069F050F44091FE01313029F0822BB3
:1047100084230E949C0BC7CF842B822BFACF282B9B
:104720008091FE018227F5CF802F8F70D82ECC206C
:1047300031F00E94E30B812F0E94B116B4CF812F7C
:104740000E94AA168D2D0E94BF0BADCF123FB9F16A
:1047500070F4103FD9F0113F91F0CC2009F47CC0E7
:10476000BB2009F476C0812F0E946D1752CF133FF2
:1047700069F1143F91F78091B60482FD32C0802F19
:104780008F71CC2001F10E94E30B43CF80919C04F8
:10479000CC2089F0B81608F03CCF202F2F7181E093
:1047A00090E001C0880F2A95EAF79091FE018927D1
:1047B0000E949C0B2ECF8B1508F42BCFEECF802FB1
:1047C0008F71CC2001F30E94BF0B23CF80E0CC205F
:1047D00079F381E0902F9F7101C0880F9A95EAF7D5
:1047E000E7CF80919604823008F1CC20A9F0909117
:1047F000C4019770943041F40E94C10A802F8F71D8
:104800000E94BF0BA12C05CF63E0B816D8F7802F0C
:104810008F710E94EF0BF6CFB81620F00E94C10AEC
:1048200064E0F5CF81E00E94CC0BECCFCC2031F0DE
:1048300063E0802F8F710E94EF0BEBCE81E00E942E
:10484000CC0B91E09B1508F0E4CE82E00E94CC0BEB
:10485000E0CE802F8F7197CFBB2081F080919A049A
:1048600090919B04193321F08091980490919904C0
:104870000E94A70D812F0E94B816CBCE802F8F717A
:10488000A2CFCC2019F0B11029CE2CCEB11026CE5B
:1048900020E0D7014C9111965C91119712966C9182
:1048A000129713967C91139714968C9114971596E2
:1048B0009C910E94C40E8091970483FF0FCE80913B
:1048C000A7019091A801029709F008CE812F0E94BC
:1048D000F11704CE8091A2019091A3010817190746
:1048E00081F41092A3011092A20110926E04109212
:1048F0006F0410927004109271041092760410925A
:1049000075048091770490917804009761F1A8E094
:104910008A16910408F013C9652D0E947106811151
:1049200022C081E00E94EB16F7018581882309F4FB
:1049300045C90433FCE71F0709F401CA08F02EC972
:1049400002333CE7130709F436C903334CE7140775
:1049500009F034C981E030C9332029F0DC01189610
:104960008C9185FFF7C8C80197558F3F910509F0D5
:10497000D8F6F7019581F801FF2754E0EE0FFF1FED
:104980005A95E1F79F012B5C3D4F6901E65CFD4FB5
:10499000808190FB80F98083D70115968C918823C4
:1049A00009F4DFC80E9489049093090280930802E9
:1049B000F60182818F5F828380911D059091910322
:1049C000892B83838091EF0184834681578166859B
:1049D0007785C6010E944A05D60115968C9181FD06
:1049E000BDC8902F812F9093AD048093AE049CCFCF
:1049F0001092A60146CC8111FBCF8091A60188239D
:104A000009F443CC85E30E94950488C8412CA11485
:104A1000B10409F474C80C94051DB0E0A0E0E3E112
:104A2000F5E20C947D368091BE01807F09F054C080
:104A30008091BD01882309F44FC0E0911C0589E0F5
:104A4000D82E8091D3048E1709F446C00E2F10E0A3
:104A5000ED9DF0011124EC52FB4F8481882309F471
:104A600040C0D09EE001D19ED00D1124FE01EC5239
:104A7000FB4F91818091B901981333C0908180914F
:104A8000B80198132EC0858181112BC0E280F3807C
:104A90008091BA019091BB01E81AF90A60E088EBB5
:104AA00091E00E94E90E68EB71E00E94720FE81637
:104AB000F906B8F48091BE018F7080618093BE01C9
:104AC000C652DB4F88818F708061888388EB91E0CC
:104AD0000E94771A0E94270BCDB7DEB7E7E00C944F
:104AE0009936F8013196E770ACCFA8E1B0E0EBE77A
:104AF000F5E20C9475368C0186E0F801DE015396E0
:104B000001900D928A95E1F7D80114967C90149744
:104B10001596EC9088EBA82E81E0B82E8091BC0110
:104B200081112AC0711003C0FF24F3941CC0EE2031
:104B3000F9F0C8010E94B00EF82E8823C9F089E070
:104B4000F801A8EBB1E001900D928A95E1F7809110
:104B5000BC01813031F48091B8019091B9010E947B
:104B6000A30E0E940D258F2D6896EFE00C949136D0
:104B7000C8010E94771AD8CFF80150806180C280A6
:104B8000D38060E088EB91E00E94E90EF090BD01D7
:104B90008091BA019091BB014601881A990A60E0A0
:104BA00088EB91E0FF2009F427C10E94E90E68EB31
:104BB00071E00E94720F8816990608F0D0C0772025
:104BC00009F4B2CF8091BE01382F307F2091B90116
:104BD000D80111969C911197311170C029131FC0F3
:104BE0002091B8019C9129131AC04091BF015091A6
:104BF000C00117962D913C914217530781F4E110A3
:104C000053C08F7080618093BE0188EB91E00E9459
:104C1000771A8091BE01F8018683F12CA4CFE110B0
:104C200043C0662D852D0E94E202E82E882381F084
:104C30008091970480FFF1CF88EB91E00E94771A72
:104C400089E0E8EBF1E0DF011D928A95E9F7E5CF15
:104C50005B8A6C8A8B899C890E94A30E292F2295DE
:104C60002F70243058F49F70223080F0992391F0F7
:104C7000F8019681907F71F4FE2C75CF2A50223076
:104C800068F0C8010E94771AEF2CF6CF992311F033
:104C9000882391F3805E8830A0F7EECF803F60F3E9
:104CA000815F833070F7E8CF8091BE01816080938F
:104CB000BE018091970481FDB0CFBECF291320C0E3
:104CC0002091B8019C9129131BC04091BF015091C4
:104CD000C00117962D913C9118974217530781F404
:104CE000E1100EC016968C93C8010E94771A89E0D5
:104CF000F801A8EBB1E001900D928A95E1F733CF6E
:104D0000C8010E94B00E882309F432CFEE2009F4C6
:104D10002FCF8091BE018032B8F02091B801309140
:104D2000B9013B872A87DD86CC869091BC019E879E
:104D30001F86888B8091BF019091C0019A8B898BCF
:104D4000CE010A960E94771A89E0F801A8EBB1E03B
:104D500001900D928A95E1F70E940D25E5CE809194
:104D6000BE01982F907F09F467CF772009F4DCCE3D
:104D70002091B901F801918129131AC02091B8013D
:104D80009081291315C04091BF015091C001278126
:104D900030854217530761F4E1100AC08683C801C9
:104DA0000E94771A89E0D5011D928A95E9F7DBCE3A
:104DB000C8010E94B00E882309F4DACEEE2009F46F
:104DC000D7CE8091BE01803208F4BECF2091B801C9
:104DD0003091B9013A832983DC82CB829091BC0166
:104DE0009D831E828F838091BF019091C00199871E
:104DF0008887CE010196A6CF0E94E90E68EB71E08C
:104E00000E94720F8816990608F04AC0772009F4AC
:104E10008BCEFE2CEE2009F4ABCE9091B901F801B7
:104E2000818198132FC09091B801808198132AC076
:104E30002091BF013091C0018781908528173907E3
:104E400009F58091BA019091BB01C81AD90AF8EC12
:104E5000CF16D10408F04BCF9091BE0190FD47CF03
:104E6000907F09F444CF8091BE01D80116968C93AF
:104E70001697903F09F438CF982F907F905F8F70EE
:104E8000892B30CFC8010E94B00E81115DCF809177
:104E9000BE0181608093BE01C8010E94771A63CE73
:104EA00089E0F50111928A95E9F75DCEA2E1B0E0C3
:104EB000ECE5F7E20C9480360A871B872C873D8748
:104EC0004E875F87688B798B8A8BCE010A960E940A
:104ED000752581112AC089E0FE013A96DE011196FE
:104EE00001900D928A95E1F78E858823F1F020914B
:104EF000D30430E0C90101968770992740911C05C1
:104F00004817190659F199E0929FD001939FB00D6F
:104F10001124AC52BB4FFE01319601900D929A952F
:104F2000E1F78093D3040E94270B19E080911C05C0
:104F30009091D3048917F9F0819FC00111248C52FC
:104F40009B4F0E9475258823B1F080911C0590E04D
:104F500001968770992780931C05E8CF0E94101254
:104F60001092D30410921C0589E0E8EBF1E0DF0118
:104F70001D928A95E9F76296E4E00C949C36EF92D4
:104F8000FF920F931F93CF93DF938091F1038823B8
:104F900061F0E091B8038DE0F82E8091F103E817FD
:104FA00048F01092F1031092B803CDB7DEB7E6E0F7
:104FB0000C949A36EE24E394EE0EE092B803CE2FD2
:104FC000D0E0EF9DF0011124EE50FC4F8481882346
:104FD000E9F087819085892B21F48185928501965E
:104FE00059F4008111812281338144815581668188
:104FF000778180850E945627FC9EF001FD9EF00D72
:105000001124EE50FC4F148210921D05EE2DC5CFD9
:10501000109265041092640410921201809163044E
:10502000809362040E94BF060E94BF270895B0E0EB
:10503000A0E0EDE1F8E20C947336C091620497E0D1
:10504000992E01E010E02DE0322E34E0432E55245D
:105050005394809163048C1309C00E94BF270E945F
:10506000BF06CDB7DEB7E1E10C948F36D0E0FE018C
:10507000EE0FFF1FE65AFB4F80819181989ED00171
:10508000999EB00D1124A754BC4F14962C911497DF
:10509000211159C06090F103E2EFF3E030E020E02D
:1050A000812C5D01261508F04CC0E384F484D50101
:1050B000CD90DC906FEF7FEF712C472D50E0DA013F
:1050C000AA0FBB1FAC0DBD1D0D90BC91A02D10975C
:1050D00031F0EA16FB0609F4BA017394EECF6F3F84
:1050E0007607A9F1D80102C0AA0FBB1F6A95E2F7A3
:1050F0008A2AB801072C02C0660F771F0A94E2F7CC
:10510000AB01415051098416150601F5329EF0019C
:10511000339EF00D1124EE50FC4F989ED001999EC5
:10512000B00D1124A754BC4F12962D913C911397AA
:105130003087278344821082118292878187159657
:105140005C920E9491062196C37083CF14822F5FD8
:105150003F4F3D96A7CFAEE1B0E0E1EBF8E20C9413
:1051600072364B8B5C8B6D8B7E8B8F8B988F8823ED
:1051700049F08091A7019091A80101969093A80110
:105180008093A701888D811110921D05188A198AB4
:105190001A8A86E0FE017396DE011A9601900D923E
:1051A0008A95E1F78091B60482FF26C080917C0445
:1051B00090917D04892B01F10E9489042091C20104
:1051C0003091C301821B930B20917C0430917D04AC
:1051D0008217930718F18091C40182FB882780F918
:1051E00091E0892780FF03C082E00E94CC0B0E94DF
:1051F000C80A81110E94770A8E85811111C00A8523
:105200001B852C853D854E855F85688979898A89CE
:105210000E9456276E96E2E10C948E3680E0E2CF33
:1052200061E0CE010A960E94E90E6C018F8520E5AF
:10523000C2162CE7D20651F48823F1F081E0809366
:10524000120181E090E080FDDACFE4CF31E5C316B2
:105250003CE7D30629F4882379F00E940828F1CF8F
:1052600042E5C4164CE7D40639F4882329F080912E
:105270001201882319F3F1CF99EBE92E93E0F92E6F
:10528000412CB12CA12C88248394912CBE016F5FFA
:105290007F4F7A8F698F22242394F70140815181B7
:1052A00066246A94762C20E0822F90E0FC01EE0FB9
:1052B000FF1FE40FF51F608171816115710539F0E1
:1052C000C616D70609F0C3012F5F3C01EDCF312C84
:1052D000FFEF6F167F0609F448C0F7014481309054
:1052E0001201832D411180E0F82FF1703F2EF7015C
:1052F000558086819F85992309F4F8C0332009F4ED
:10530000F5C00091900410919104511013C0A401B4
:10531000062C01C0440F0A94EAF7842B86838091FF
:10532000B6039091B7038017910720F41093B70349
:105330000093B603C40102C0880F991F2A95E2F7B3
:105340000197F70126812817190679F480916404E2
:1053500090916504009709F44BC00E946E040817F1
:10536000190708F045C0F70124824328FFEFAF1A60
:10537000BF0A27E0E20EF11C38E0A316B10409F0E1
:105380008CCF8F85882309F411C1442009F40EC104
:105390000E94890490936504809364048091F103D2
:1053A000883010F591E0980F9093F10399E0FE0199
:1053B0003A96DE01119601900D929A95E1F74DE033
:1053C000849FC00111248E509C4F29E0FE0131962C
:1053D000DC0101900D922A95E1F72FEF3FEFFC01E0
:1053E00032872187D486C38681E04826842D2BCF3F
:1053F0008091620450916304982FF0E0E0E08513FF
:1054000014C090936204EE15FF0509F4AECF90E04E
:10541000FC01EE0FFF1FE65AFB4FB182A0820196FE
:105420008370992780936304A0CF082F10E0F801C0
:10543000EE0FFF1FE65AFB4F20813181F7E0F29F0C
:10544000D001F39FB00D1124A754BC4F2D913C9176
:1054500011973E8F2D8F40E020E030E0E32FF0E009
:10546000EE0FFF1F6D8D7E8DE60FF71F6080718040
:1054700061147104E1F0F7010190F081E02DFC8FDF
:10548000EB8F20E005C06616770609F4432D2F5FE9
:10549000E22FF0E0EE0FFF1F6B8D7C8DE60FF71F04
:1054A000608171816115710571F73F5FD7CF44232A
:1054B000D1F0FD01231708F4F7012482EE15FF0552
:1054C00021F490936204342E50CF891307C0EA1759
:1054D000FB0721F4C8010196982F93700F5F1F4FAF
:1054E000802F83708CCFF0E0E0E0F8CF90E0511097
:1054F00020C0B40102C0660F771F2A95E2F79B0116
:10550000215031098217930731F4442309F44CC028
:10551000C5010E949106C401062C01C0880F0A949F
:10552000EAF7982F9095F701868189238683352C99
:105530001CCFAC01062C02C0559547950A94E2F7A2
:10554000BA01617077279C0121503109822393238E
:10555000892B31F5672B21F1F70182819381892B0A
:10556000E1F0E98DFA8D27E011922A95E9F70E9482
:105570008904282F8B839C8334E03D83F70182814B
:105580009381782F8887998709811A813C8144E02B
:105590005E816F81892F0E945627F7011582BBCF4C
:1055A000F42FF1705F2EB7CF532CB5CF90916204DA
:1055B00080916304981719F00E94172815CF0E9454
:1055C000BF2710926504109264040E94BF060CCF9E
:1055D000A6E0B0E0EEEEFAE20C948236909322025E
:1055E00080932102811520E2920730F40E94551722
:1055F0002696E2E00C949E3680EF89838A830E948F
:1056000089048160682F9C838B8349815A817C81C6
:1056100081E090E00E94AB28EBCF0F931F93CF93D4
:10562000DF938C01EB016BE272E08C2F0E945D0F27
:10563000892BA1F480919804909199040E94A70D60
:10564000DD27CD5DDD4F8881F8011282188283301D
:10565000F1F048F4813059F0823081F0DF91CF9140
:105660001F910F9108958430B9F08530B9F780917A
:105670002B0290912C02009789F306C080912D0295
:1056800090912E02009799F30E94E82AE7CF80912B
:105690002F0290913002F6CF809131029091320228
:1056A000009791F720912B0230912C0280912D02CE
:1056B00090912E0221153105F1F2009729F7C901C9
:1056C000E3CFA6E0B0E0E7E6FBE20C9482369093ED
:1056D000220280932102811520E2920730F40E9479
:1056E00086192696E2E00C949E3680EF89838A83A1
:1056F0000E9489048160682F9C838B8349815A8131
:105700007C8181E091E00E94AB28EBCFCF93DF93C7
:10571000EC010E94612B80919804909199040E9461
:10572000A70DCE010E94E82ADF91CF9108950F9333
:105730001F93CF93DF938C01862F6BE272E00E9460
:105740005D0F892BB1F4C0912B02D0912C022097D0
:1057500081F0F8018281833051F4CE010E94862BC2
:10576000CE010E94862BCE010E94862B02C084307F
:10577000D0F7DF91CF911F910F9108950F931F9351
:10578000CF93DF938C01EB016BE272E08C2F0E94D0
:105790005D0F892B09F05CC0FE01FF27D80112962E
:1057A0008C911297ED5DFD4F8130B9F415969C9167
:1057B00092FF02C080830AC090FFFCCF82E080830A
:1057C00080912D0290912E020097B9F480912B02C6
:1057D00090912C020097E1F110C08230B9F5159636
:1057E0008C9182FD28C080FD0BC083E08083809176
:1057F0002F0290913002009701F10E94612B28C086
:1058000084E0808380913102909132020097A9F761
:1058100080912B0290912C020097F9F00E94862B28
:1058200080912D0290912E02009739F780912B02E2
:1058300090912C02E2CF85E0808380912B029091A1
:105840002C02009729F00E94862BF0CF86E08083FF
:10585000DF91CF911F910F91089580912D0290912A
:105860002E02B8CFA6E0B0E0E8E3FCE20C9480366C
:105870000E9489048C018091F0019091F1018017C0
:10588000910781F019821A820E948904682F498148
:105890005A81792F80E090E00E94AB281093F101AB
:1058A0000093F0012696E4E00C949C361F920F9230
:1058B0000FB60F9211242F933F934F935F936F93E3
:1058C0007F938F939F93AF93BF93CF93EF93FF9368
:1058D000C091E900CF708091EC001092E9008091B6
:1058E000F000877F8093F00078940E94411210921C
:1058F000E9008091F00088608093F000C093E90097
:10590000FF91EF91CF91BF91AF919F918F917F9137
:105910006F915F914F913F912F910F900FBE0F901C
:105920001F9018951F920F920FB60F9211242F936C
:105930003F934F935F936F937F938F939F93AF9317
:10594000BF93EF93FF938091E10082FF09C08091A4
:10595000E20082FF05C08091E1008B7F8093E1002F
:105960008091DA0080FF24C08091D80080FF20C0A1
:105970008091DA008E7F8093DA008091D90080FFD9
:105980009BC080E189BD82E189BD09B400FEFDCFE5
:1059900081E08093C9048091BC04811109C00E94F8
:1059A00001030E94A0038091E20084608093E200E2
:1059B0008091E10080FF17C08091E20080FF13C05A
:1059C0008091E2008E7F8093E2008091E20080610E
:1059D0008093E2008091D80080628093D80019BC47
:1059E00085E08093C9048091E10084FF29C0809103
:1059F000E20084FF25C080E189BD82E189BD09B450
:105A000000FEFDCF8091D8008F7D8093D8008091DB
:105A1000E1008F7E8093E1008091E2008F7E809391
:105A2000E2008091E20081608093E2008091CA04EC
:105A3000882309F447C084E08093C9048091C90495
:105A40008091E10083FF27C08091E20083FF23C0A3
:105A50008091E100877F8093E10082E08093C90418
:105A60001092CA048091E1008E7F8093E1008091C2
:105A7000E2008E7F8093E2008091E200806180935B
:105A8000E20042E060E080E00E946E038091F0005E
:105A900088608093F000FF91EF91BF91AF919F914B
:105AA0008F917F916F915F914F913F912F910F90C7
:105AB0000FBE0F901F90189519BC1092C904109238
:105AC000BC0476CF8091E30087FD02C081E0B4CFB3
:105AD00083E0B2CF78941F920F920FB60F921124E9
