:100000000C944D040C9494040C9494040C94940457
:100010000C9494040C9494040C9494040C94940400
:100020000C9494040C9494040C9468170C94A416E7
:100030000C942F280C9494040C9494040C94940421
:100040000C9494040C9494040C9494040C949404D0
:100050000C9494040C94EE270C9494040C94940443
:100060000C9494040C9494040C9494040C949404B0
:100070000C9494040C9494040C9494040C949404A0
:100080000C9494040C9494040C9494040C94940490
:100090000C9494040C9494040C9494040C94940480
:1000A0000C9494040C9494040C9494040F0A250A60
:1000B0002B0A200B200B630A6F0A7E0A200B860A8C
:1000C000200B200B200B8E0A6810681098109810D7
:1000D00020113C115B125B124711BB11CC11CC11EA
:1000E000AA14D1148616D11486161D15401586162D
:1000F0004116511613191319261926191C192619F8
:100100002619261913191319211926192619211927
:1001100000047F3F1F643214643214783C1E1E14A6
:100120000A05FD377A585A000004E6D6B4460200A4
:10013000210116000000742FE5A3E001A300D55DA6
:10014000003D8889C65436C3174FE4E456FEECBC24
:100150003EDB0BBE3484A0BEAB746D52628B38C5DF
:10016000FA1AC0AC8783F916D2D67B7D0D69FF2FB2
:1001700016F6346605678857265065509F0B4FA1C9
:100180005385AFAC9A9283C9BFB379CD4968896D65
:100190003E77A799A8A4B9DB5305B7DC0D5F164AD3
:1001A00048FB4120ADEAB355CAC1CE887DF5211088
:1001B00002AE23AE3E83B7A0C21DFDE4AC7ECAA44E
:1001C0008225EC1D2CE93181072151D4866047CA74
:1001D00071C18CB03049D98B8D9ED6966B7F1EA491
:1001E00016F2CDF5D09540A3B6C3986D2356D23BF9
:1001F000210BB912C456D789906CBE931E94E02E81
:10020000EE5B0E769E698E7A14D58DFAC9C2709C0B
:10021000DD05A659C60000000000D3415CFB0CAD13
:100220009B070001F101A4030000DA07B4E0B1C4A8
:1002300067FB020000000004595A05010902A101F0
:1002400085020901A10005091901290515002501EB
:10025000950575018102950175038101050109303C
:1002600009311581257F95027508810609381581A8
:10027000257F950175088106050C0A380215812530
:100280007F950175088106C0C005010980A101851F
:100290000319012AB700150126B7009501751081D1
:1002A00000C0050C0901A101850419012AA002154D
:1002B0000126A002950175108100C005010906A163
:1002C000018506050719E029E71500250195087540
:1002D0000181020507190029EF1500250195F07528
:1002E00001810205081901290595057501910295FD
:1002F0000175039101C00660FF0961A10109621542
:100300000026FF009520750881020963150026FF6D
:1003100000952075089102C005010906A101050795
:1003200019E029E71500250195087501810295015D
:10033000750881010507190029FF150026FF0095A2
:1003400006750881000508190129059505750191B3
:1003500002950175039101C009025B00030100A031
:10036000FA09040000010301010009211101000143
:100370002240000705810308000A09040100020366
:10038000000000092111010001222200070582035B
:1003900020000107050303200001090402000103F6
:1003A00000000009211101000122BC00070584039F
:1003B00020000A120100020000000866666666025C
:1003C00000010203011C037600690061006C003A21
:1003D00000660036003400630032006200330063C0
:1003E000000000200350003400300053005600325B
:1003F0000020004B006500790062006F0061007210
:1004000000640000000E0350006100620069006C8F
:10041000006500000004030904FFAA7F55400001A5
:100420000203040506070809131211100F0E0D0C24
:100430000B0A1415161718191A1B1C1D272625241C
:10044000232221201F1E2223252628292A2C2D2F56
:100450003032333536383A3B3D3E404243454749DA
:100460004A4C4E5051535557595A5C5E606264660F
:1004700068696B6D6F71737577797B7D7F8183851B
:1004800087898A8C8E90929496989A9C9E9FA1A31D
:10049000A5A7A8AAACAEAFB1B3B4B6B8B9BBBCBE41
:1004A000BFC1C2C3C5C6C7C9CACBCCCDCED0D1D2BD
:1004B000D2D3D4D5D6D7D7D8D9D9DADADBDBDBDCBF
:1004C000DCDCDCDCDDDDDDDDDCDCDCDCDCDBDBDB6B
:1004D000DADAD9D9D8D7D7D6D5D4D3D2D2D1D0CECB
:1004E000CDCCCBCAC9C7C6C5C3C2C1BFBEBCBBB9D0
:1004F000B8B6B4B3B1AFAEACAAA8A7A5A3A19F9E4E
:100500009C9A98969492908E8C8A89878583817F15
:100510007D7B79777573716F6D6B696866646260F6
:100520005E5C5A5957555351504E4C4A49474543C2
:1005300042403E3D3B3A3836353332302F2D2C2A5F
:1005400029282625232214001A0008001500170068
:100550001C00180004001600070009000A000B0028
:100560000D001D001B000600190005001100100001
:10057000E000E300E200E1002A422C4128440C00A4
:10058000120013000E000F002D4336003700380014
:100590004C00E4002900000000001E001F002000A5
:1005A00021002200230024002B0000000000350061
:1005B0002F003000310000000000000000002E007D
:1005C0002D000000010001000100010001000000F9
:1005D0000100250026002700330034002D00010013
:1005E00001000100010001000100000000003A00CC
:1005F0003B003C003D003E003F0040002B0044001B
:1006000045000000000000000000390046004700DF
:10061000480000005300000001000100010001003B
:100620000100010000004100420043000000000002
:100630000000AA00A900A8000000000000000000BF
:1006400000002900000000000000000049004B00ED
:100650002B0000000000000000004A0050000000D5
:1006600000000000000000004D000000010001003B
:10067000010001002A000000000052004E004C0062
:1006800051004F00000000000000000000000000CA
:100690000000000000002900000000000000000031
:1006A0000000F4002B000000000000000000F90032
:1006B000F20000000000000000000000FA0000004E
:1006C00001000100010001002A0000000000F0000C
:1006D000F5004C00F100F3000000000000000000F5
:1006E0000000000000000000000000010101010105
:1006F00001010101020202020202020202030303DB
:1007000003030303030404040404040405050505AA
:10071000050606060606070707070708080808096A
:100720000909090A0A0A0B0B0B0C0C0C0D0D0D0E16
:100730000E0E0F0F0F1010111111121213131414AB
:10074000151516161717181819191A1A1B1B1C1D20
:100750001D1E1E1F20202122222324242526262779
:100760002829292A2B2C2D2D2E2F303132323334AB
:1007700035363738393A3B3C3D3E3F4041424344B1
:1007800045464748494A4C4D4E4F50515354555693
:1007900058595A5B5D5E5F616264656668696B6C3F
:1007A0006D6F7072737577787A7B7D7E80828385BA
:1007B00087888A8C8E8F91939596989A9C9EA0A2FA
:1007C000A3A5A7A9ABADAFB1B3B5B7BABCBEC0C204
:1007D000C4C6C9CBCDCFD1D4D6D8DBDDDFE2E4E7C8
:1007E000E9EBEEF0F3F5F8FAFDFF00000000000081
:1007F00000000000000000000000000000000000F9
:1008000000000000000000000000000000007E0F5B
:1008100000D4FFFFFFC700000078000000000000C8
:1008200000002A2B2800000000000000000000004B
:10083000000000000029000000002C1E34202122AE
:1008400024342627252E362D3738271E1F20212217
:10085000232425263333362E37381F040506070890
:10086000090A0B0C0D0E0F10111213141516171880
:10087000191A1B1C1D2F3130232D350405060708BE
:10088000090A0B0C0D0E0F10111213141516171860
:10089000191A1B1C1D2F3130354C11241FBECFEFF0
:1008A000DAE0DEBFCDBF04B603FE27C08091DC04D2
:1008B0009091DD04A091DE04B091DF048730904B6D
:1008C000A740B04BD1F41092DC041092DD041092DA
:1008D000DE041092DF0414BE84B7877F84BF0FB696
:1008E000F894A895809160008861809360001092D0
:1008F00060000FBEE0E0F8E3099511E0A0E0B1E090
:10090000E2E4F8E602C005900D92AA39B107D9F7E2
:1009100024E0AAE9B1E001C01D92AC3DB207E1F7C5
:100920000E9496040C941F340C940000CF93DF9324
:10093000CDB7DEB7E4970FB6F894DEBF0FBECDBFDC
:1009400084B7877F84BF0FB6F894A8958091600024
:10095000886180936000109260000FBE90E080E894
:100960000FB6F89480936100909361000FBE85B735
:10097000806885BF85B7806885BF80E792E29093E5
:100980009B0180939A010E948E1E0E94EE2B0E9472
:10099000E8160E9407178091E20084608093E200CD
:1009A00078948091E2018823A1F01091E9001F70F2
:1009B0009091EC00892F817090FD80E8182B1092A7
:1009C000E9008091E80083FD0E94C2131F7010931C
:1009D000E90082E084BD93E095BD9AEF97BD8093D6
:1009E0006E000E94111F811102C00E94021F08E2C6
:1009F00011E05EE2E52E51E0F52ED8018D918D01DA
:100A00008F3F11F00E94B522E016F106B1F70EE219
:100A100011E045E3E42E41E0F42EF80181918F01CD
:100A20008F3F11F00E94B522E016F106B1F786E083
:100A3000E3EBF1E0DF01282F1D922A95E9F7E0EAC8
:100A4000F1E0DF011D928A95E9F70E949C25811152
:100A500002C00E94A72582E090E00E940C338093A0
:100A6000AA010E948B259093CB048093CA040E9414
:100A7000CC22BFEFE6E7F1E0B150E040F040E1F713
:100A800000C000000E94CC228091B30180FF08C00A
:100A90006FEF7FEF80E090E00E943E330E94DD2701
:100AA00083E090E00E940C330E94771B8CE090E082
:100AB0000E940C3390E0A0E0B0E080939C01909302
:100AC0009D01A0939E01B0939F018091A601811189
:100AD00033C00E949C25811104C00E94A7250E945A
:100AE000252D88E090E00E94143360938202709379
:100AF000830280938402909385026E7F71F40E943A
:100B0000252D88E090E00E94143360938202709358
:100B1000830280938402909385020E94892C109214
:100B200006028091820280FF04C060E086950E94E8
:100B3000D72C81E08093A60180E091E09093C204DD
:100B40008093C10428E1A22EB12C30E4532EDD2481
:100B5000D394CC24C3948091E201853009F06FC016
:100B600000E112E18091E201853009F053C08091EB
:100B7000E201843009F43DC0109206028091A80180
:100B8000811116C0C092A80180918202982F9170A5
:100B90009093A7018E7F809382022FEF30E742E08F
:100BA000215030404040E1F700C000000E94581F33
:100BB0001092C5040FB6F894A895A09260000FBEDD
:100BC0005092600083B7817F846083BF83B7816068
:100BD00083BF7894889583B78E7F83BF0FB6F894D0
:100BE000A8958091600088618093600010926000F9
:100BF0000FBE8091E101882309F4B4CF0E94CC227A
:100C0000E3EBF1E08191811143C581E0E93BF80715
:100C1000C9F7A8CF0E947B1B0E94E1281092A8016F
:100C20008091A701882349F080918202816080939E
:100C3000820260E086950E94D72C0E94421F0E948B
:100C4000CC22882359F08FB7F8944091C604509174
:100C5000C7046091C8047091C9048FBFE3EBF1E051
:100C6000ABEAB1E000E010E0302F21919D91922796
:100C700021F180E0FF24F394492F4F21D1F08BA77D
:100C80003CA72F2181E009F480E08DA70E94232852
:100C90008160782F9FA78EA74BA55CA56DA58FA51A
:100CA0000E946630F801E555FE4F8081F826F082FB
:100CB00019C08F5FFF0C8730F9F60F5F1F4F0630AA
:100CC000110591F68FEF88AB89AB1AAA0E942328F1
:100CD0008160782F9CAB8BAB48A959A96AA98CA9D4
:100CE0000E94663080910602882309F493C08091A7
:100CF0000502E0918202E695E81BE0930102823052
:100D000059F4F0E0E25EFE4FE4910E2F10E09AE716
:100D1000E92E9EE1F92E59C0863059F4F0E0E55EE7
:100D2000FE4FE4910E2F10E08AE6E82E8EE1F82EB9
:100D30004CC0893061F4E695F0E0E85EFE4FE49146
:100D40000E2F10E0B0E5EB2EB1E2FB2E3EC08F304F
:100D500061F4E695F0E0EB5EFE4FE4910E2F10E0BB
:100D6000A0EEEA2EA0E2FA2E30C0853159F4F0E070
:100D7000EE5EFE4FE4910E2F10E0FFE8EF2EF0E262
:100D8000FF2E23C08831A1F0833249F4E0E1F1E085
:100D900005911491EEE8EE2EE1E2FE2E16C08432AB
:100DA00071F000ED17E070E0E72E7DE1F72E0DC049
:100DB00008E210E063E0E62E60E2F62E06C004EFE3
:100DC00011E056ECE52E5FE1F52E809102028823BA
:100DD00061F0109202020E942328909300028093F7
:100DE000FF0110920402109203020E942328E09156
:100DF000FF01F09100028E1B9F0B8F3F9F4750F425
:100E00000E0F1F1F109300020093FF018FEF91E060
:100E1000F701099586E0E6EDF4E08E010F5F1F4FC4
:100E2000D80101900D928A95E1F78090D8049090B6
:100E3000D904E090DA04F090DB041092D804109208
:100E4000D9041092DA041092DB04811003C09920B7
:100E500009F44FC08091D4049091D5040E941428C5
:100E60009C019091D004992309F43AC423333105AD
:100E700008F43FC09F3F19F09F5F9093D0048820F3
:100E800061F00E94B92E181414F491E001C09FEF94
:100E9000899F802D11248093D804992061F00E94AD
:100EA000B92E191414F491E001C09FEF899F802D91
:100EB00011248093D9043091D8043323D1F02091A8
:100EC000D9042223B1F045EB3403C0011124992346
:100ED00019F09093D80402C0D092D80435EB2303C4
:100EE000C0011124992319F09093D90402C0D09223
:100EF000D904E11003C0FF2009F44FC08091D2044F
:100F00009091D3040E9414289C019091CF049923BE
:100F100009F4EBC32536310508F43FC09F3F19F0B3
:100F20009F5F9093CF04EE2061F00E94972E1E14D5
:100F300014F491E001C09FEF899F802D11248093CC
:100F4000DA04FF2061F00E94972E1F1414F491E040
:100F500001C09FEF899F802D11248093DB04309185
:100F6000DA043323D1F02091DB042223B1F045EBE6
:100F70003403C0011124992319F09093DA0402C0BC
:100F8000D092DA0435EB2303C0011124992319F020
:100F90009093DB0402C0D092DB048091D8048111CD
:100FA0000BC08091D904811107C08091DA048111AE
:100FB00003C08091DB0481110E94E82D8B829C820A
:100FC000ED82FE8286E0F801A6EDB4E001900D927C
:100FD0008A95E1F70E94E1289091A901891721F0F3
:100FE0000E94E1288093A9018091E201843009F0F8
:100FF000B2CD83E08093E9008091E80082FFABCD21
:101000008091E80085FF21C00E943F1881111BC01C
:1010100040E2E42EF12C480109C08091F100D40196
:101020008D934D01B1E0EB1AF10869F08091E80071
:1010300085FDF3CF8091E8008B778093E8000E94D4
:101040003F18882399F391E001C090E08091E80077
:101050008B778093E800992309F47DCDE0906103BC
:10106000F09062038981E114F10461F08E3F09F090
:10107000E7C28A81833008F4C6C18550833008F006
:10108000DFC2C1C1893009F4F3C0D0F4843009F45F
:1010900077C050F48230A1F108F063C0813009F0CC
:1010A000CDC21A8289E030C2863009F47BC008F4D0
:1010B0006EC0873009F479C0883009F4B8C0BEC268
:1010C000803109F43DC180F48D3009F4DCC028F48E
:1010D0008C3009F0B3C280E14FC28E3009F4D6C023
:1010E0008F3009F4FEC0AAC2823109F42EC108F47F
:1010F0002AC1833109F453C18E3F09F484C19EC2D1
:101100008A81823009F4E3C2833089F0813009F0AA
:1011100095C22FB7F8948091C6049091C704A0910E
:10112000C804B091C9042FBFBB83AC832EC080918B
:101130001D0190911E01892B09F482C28091B30197
:101140008B838091B4018C838091B5018D838091D4
:10115000B6018E838091B7018F838091B801888713
:101160006FC28A81823009F069C26B817C818D8176
:101170009E810E94BA3386E290E00E94203360C2D2
:101180004C816B818A810E94A42B9D83A7C22D81F3
:101190003E813227232732274C816B818A810E942E
:1011A000D92A4EC20E940F2B4BC28A818138B1F0DE
:1011B00050F4803809F044C220E04B8160918402F1
:1011C0008091830231C0823859F1833809F038C2E6
:1011D00020E0409185026C818B8126C060E08B818C
:1011E0000E94D72C9B8180918202911111C08E7F29
:1011F0008093820210920602EFEFF0E722E0E150C6
:10120000F0402040E1F700C000000E94581F18C2C3
:1012100081608093820260E086950E94D72C10C284
:101220008B81809386020CC20E94CE2109C28A81E2
:10123000813899F030F4803809F002C2809185023B
:1012400063C1823891F0833809F0FAC1809183023A
:101250008B83809184028C83F3C18091820280FF12
:1012600002C0869551C180E04FC1809186024CC179
:101270006091820270918302809184029091850234
:101280000E94A32CDDC1DA8285E93EC1EA80FB80A1
:10129000FE24EF24FE246C80712C3DE16316710462
:1012A00008F0CEC14801C70185599D4F9401201B0C
:1012B000310B2615370508F0C3C145E9E41641E0B6
:1012C000F40630F40E940C33D40114968C9302C0BF
:1012D000F4011482FFEFEF1AFF0A2FEF821A920A2D
:1012E000E2CF80911D0190911E01892B09F4A8C1C4
:1012F000EA80FB80FE24EF24FE248C80912C3DE1CB
:101300008316910408F09CC13801C70185599D4F8F
:101310009301201B310B2815390508F091C145E9CF
:10132000E41641E0F40628F4D30114966C910E946F
:101330002033BFEFEB1AFB0AEFEF6E1A7E0AE5CF00
:101340000E94B42A7DC185E017C1EA80FB80FE249B
:10135000EF24FE246C80712CFDE16F16710408F0FF
:101360006FC14801C70187969401201B310B2615D8
:10137000370508F065C124EAE21621E0F20630F4F0
:101380000E940C33D40114968C9302C0F401148291
:10139000FFEFEF1AFF0A2FEF821A920AE3CFEA80DB
:1013A000FB80FE24EF24FE248C80912C3DE18316EB
:1013B000910408F045C144EAE41641E0F40608F05F
:1013C0003FC184EA91E08E199F098815990508F4B8
:1013D00037C13801C70187969301201B310B2815AF
:1013E000390508F02DC1A4EAEA16A1E0FA0620F4B6
:1013F000F30164810E942033FFEFEF1AFF0A2FEF01
:10140000621A720AE7CFEA818E2F90E08E30910542
:1014100008F016C1FC01EA5AFF4F0C94B43388E07F
:10142000E0E2F1E0DE01919601900D928A95E1F7FC
:1014300080E2D8011D928A95E9F784E0898388E0EB
:10144000FE01B196DE011596D5C088E18983DA8266
:101450001B821C82F5C08C8190E0982F88272B81FD
:10146000820F911D092E000CAA0BBB0B35E0880FD3
:10147000991FAA1FBB1F3A95D1F7AC01BD01405E71
:101480005F4F6F4F7F4F481759076A077B0708F474
:10149000D7C08831E1E09E07A105B10508F0D0C0B2
:1014A0004931F1E05F076105710520F048E151E045
:1014B00060E070E0481B590BBC016E5D7E4FC801B7
:1014C0000E94F332BDC040E250E06FEF70E0C8010F
:1014D0000E94183480911D018983EA82B1C081E0A5
:1014E00090E0909362038093610382E390E0909395
:1014F000B2018093B1010E942328A2C080911D01F6
:101500008983EA828091B1018B839AC040E250E0E6
:101510006FEF70E0C8010E94183492C08B81823056
:1015200069F1E8F4882309F1813009F089C08C81E0
:101530009AE0F92E4E01B1E28B0E911CF4012F2D91
:1015400011922A95E9F7B4010E94C42A8983F40113
:10155000DE01129601900D92FA94E1F771C083308A
:1015600061F1843009F44BC06BC080E2D8011D9258
:101570008A95E9F788E089838A8362C06C818AE072
:10158000FE013596DE01919601900D928A95E1F764
:10159000683070F43AE0639FB001112465537E4FC8
:1015A0004AE050E0CE0181960E94443380E001C0C1
:1015B0008FEF89830E948E1E43C06C81CE0181967D
:1015C0002AE0DC011D922A95E9F7683060F4BAE060
:1015D0006B9FB0011124655E7D4F4AE050E00E9490
:1015E000FC3280E001C08FEF89838AE0FE01B19672
:1015F000DE01129601900D928A95E1F721C06C816F
:101600008AE0FE013596DE01919601900D928A9551
:10161000E1F7683070F4EAE06E9FB0011124655E76
:101620007D4F4AE050E0CE0181960E94443380E035
:1016300001C08FEF89830E94EE2B02C08FEF898358
:101640008091E201843009F086CA8091E9008F70B0
:101650002091EC00922F917020FD90E8F92EF82A4D
:1016600082E08093E9008091E80080FF0CC040E0B8
:1016700050E060E270E0C8010E9472188091E800BA
:101680008E778093E8008F2D8F708093E90063CA76
:1016900009BD19BD09B400FEFDCF8091D8008F7D32
:1016A0008093D8008091E00082608093E000809178
:1016B000E00081FDFCCF0E947B1B9FEFA3ECB9E013
:1016C0009150A040B040E1F700C000004BCA86E254
:1016D00090E00E940C331B821C821D828E83B0CF4F
:1016E0002D32314008F0C8CB04CC2D32314008F007
:1016F00017CC53CC8F929F92AF92BF92CF92DF9232
:10170000EF92FF920F931F93CF93DF9300D000D0FF
:10171000CDB7DEB7FC018081918123813481232BF9
:1017200031F09F3F31F491E08F3F19F403C091E015
:1017300001C090E090FD4FC77F0161E0CF010E94A2
:101740002F308C01D70112968C91811105C0F701C1
:10175000828181113EC0E7C680911B0190911C01DE
:101760000196A9F35FE0C52E54E0D52EA12CB12C33
:101770009924939480911B0190911C018A159B05DB
:1017800034F3D60116968C9116978823D9F01996C2
:101790008D919C911A970817190739F480910D04BF
:1017A00090910E040817190769F0F60197861487BF
:1017B0000387C6010E943429C60106960E94ED28BF
:1017C00010920C04FFEFAF1ABF0A26E1C20ED11C23
:1017D000D1CFC80182519F45409708F07DC08FEF5F
:1017E00093E00E940C33811189C64EEED42ED00EA8
:1017F0000BE612E0DD2071F0011584E0180709F412
:101800007DC6C8010E940C33811101C0DA940F5FBC
:101810001F4FF0CF19821A821B821C82AA24AA941D
:1018200068019FEFC91AD90AC8010E940C33898345
:101830001A82882309F462C6813009F048C0480141
:10184000A2E08A0E911CC6010E940C338A83882371
:1018500009F454C69FEF980F933060F46801B3E029
:10186000CB0ED11CC4010E940C338B8381112FC07D
:101870008601D6CF843011F06401FACFC4010E94F2
:101880000C33B82E6801E4E0CE0ED11CC8010396DB
:101890000E940C33BB2009F431C6882309F42EC6FC
:1018A000282F30E021503109A29EA001A39E500DA7
:1018B00011248B2D90E00197840F951F0197C0F2A2
:1018C000AFE9BFE01197F1F700C00000F7CFCE01FC
:1018D00001960E94D42FCCCF0031EFE51E0731F0E6
:1018E0000131FFE51F0789F482E001C081E00E9419
:1018F0006C1B0E94B71302C6680127E5D21A8FEF4E
:10190000C816D10409F008F41DC6C80197558F3FC9
:10191000910511F008F054C020911B0130911C0179
:101920002817390724F490931C0180931B01F701B9
:10193000228136E1389F5001399FB00C1124C50136
:10194000815F9B4F6C01DC0150962C9350979281E4
:1019500016968C911697992341F11A961C930E9323
:1019600019978F5F16968C930E942328F60196870D
:10197000858780910A03878390910C0480910B04E2
:10198000892B80870190F081E02D309749F0D601B6
:1019900054966D917C915597C5018B5E9B4F09952F
:1019A00010930E0400930D040BC0882349F0F60138
:1019B0008189882329F0C5018B5E9B4F0E94ED2809
:1019C000D70112968C91882369F0C801815E9C45ED
:1019D000059740F46FE1600F60939C018CE090E00C
:1019E0000E94203317FFAEC0F7018281882309F4DB
:1019F000A9C00E94E128869581708093BB010E9456
:101A0000E12881708093BA0180919C01813039F482
:101A10008091BB01882319F089E30E94E21C809128
:101A20000B048093B90110920B0480919C018130CA
:101A300071F048F08230A1F0843029F586EE0E94E2
:101A4000E21C88E11EC082EE0E946A1C1CC088E174
:101A500093E00E94DA3288E193E00E94C03213C022
:101A60008091BA01811103C083E50E94E21C82EEDD
:101A70000E946A1C8FE39CE90197F1F700C0000007
:101A800087E50E94E21CAFE3BCE91197F1F700C0C3
:101A900000005801E894B7F82CE0C22ED12C3AE0AF
:101AA000832E912CC5010C2C02C0969587950A9423
:101AB000E2F78F7090919C01923069F48A3038F48B
:101AC00090E00996B4010E947E33875A01C0865087
:101AD0000E94E21C09C096EF980F963010F0805DCE
:101AE00001C0895A0E946E2FB4E0CB1AD108ECEFE6
:101AF000CE16EFEFDE06B1F680919C01813059F0F1
:101B000030F0823089F08430C9F488E215C082EE6A
:101B10000E94381C13C08CE20E94E21C8091BB0121
:101B2000882361F089E308C082EE0E94381C80910E
:101B3000BA01811103C083E50E94E21C8091B901C2
:101B400080930B04D70112968C91882309F443C12A
:101B50000330BDE51B0758F40A3FECE51E0760F4AF
:101B6000C80182509C45449708F01FC105C001364A
:101B7000FDE51F0709F019C10E948B259093CB0446
:101B80008093CA0400312CE5120709F4CAC008F09A
:101B900041C008309CE5190709F4A4C0F0F40430F2
:101BA000BCE51B0709F48CC068F40230FCE51F0794
:101BB00009F482C003301C4509F0E7C08091CA04D3
:101BC0008260E1C006308CE5180709F483C008F094
:101BD00085C08091CA048860D6C00C30ACE51A0775
:101BE00009F490C068F40A30ECE51E0709F47EC0E1
:101BF00008F084C00E947B1B8091CA048068C3C027
:101C00000E302CE5120709F481C008F086C08091DF
:101C1000CA0494C00C3F9CE5190709F47BC038F551
:101C20000431BCE51B0709F49AC058F40231FCE505
:101C30001F0709F47AC008F07EC08091CA048F7B28
:101C4000A2C00A3F8CE51807F1F108F03FC005314A
:101C50001C4509F09AC08091CA0482FB222720F912
:101C600091E0922790FB82F990FB83F98CC00115DB
:101C7000BDE51B0709F467C050F48091CB040E3F0B
:101C8000FCE51F07C1F108F05BC08D7F65C0023025
:101C90008DE5180709F471C008F46DC001361D45C3
:101CA00009F073C08091CA0484FB222720F991E0D7
:101CB000922790FB84F967C08091CA04816063C059
:101CC0008091CA0416C08091CB0416C08091CB04C9
:101CD000826042C08091CA04806155C08091CA046C
:101CE000806251C08091CA0480644DC08091CA0452
:101CF0008860846048C0826081602EC08091CA0480
:101D00008E7F41C08091CA048D7F3DC08091CA04FE
:101D1000877F39C08091CB0414C08091CA048F7E24
:101D200032C08091CA048F7D2EC00E947B1B80919F
:101D3000CA048F7728C08091CA04877F8B7F23C015
:101D40008D7F8E7F09C08091CB04982F90959170E4
:101D50008E7F892B90FB81F98093CB0416C00E9463
:101D60007B1B8091CA0487FB222720F991E09227F0
:101D700090FB87F908C061E001C060E08EE090E070
:101D80000E94203302C08093CA046091CA0410915B
:101D9000CB0484E090E00E942033612F82E290E047
:101DA0000E9420330E947B1BA9C380910B04063143
:101DB000BCE51B0709F58A7A91E009F490E090935D
:101DC000BC01882311F065E301C069E289E992E072
:101DD0000E9480280EC006311C4509F026C1809162
:101DE000BC01882309F4F5C365E389E992E00E9408
:101DF00058280E942A2682C382720C3CBCE51B072D
:101E000009F4C2C008F045C0063CFCE51F0709F410
:101E1000A7C0D8F4033C9CE5190709F497C030F437
:101E2000023CBCE51B0709F46CC0CEC0043CECE5E9
:101E30001E0709F490C0053CFCE51F0709F0C4C06B
:101E400047E75CE260E87CE2A3C0093C2CE51207AE
:101E500009F490C078F4073CACE51A0709F485C092
:101E6000083CBCE51B0709F0AFC04BE65CE26FE540
:101E70007CE28EC00A3CECE51E0709F480C00B3CF6
:101E8000FCE51F0709F0A0C045EB5CE266EC7CE2D4
:101E90007FC0013D2CE5120709F486C0A0F40E3C7A
:101EA0009CE5190709F47AC008F475C00F3CBCE53D
:101EB0001B0709F476C0003DECE51E0709F084C05D
:101EC0006EE089E079C0043DFCE51F0709F472C0AB
:101ED00068F4023D8CE5180709F469C0033D9CE5F0
:101EE000190709F071C061E088E16BC0053DACE500
:101EF0001A0709F464C00D35BDE51B0709F4FEC2DD
:101F000063C08091820280FF1BC08E7F809382021B
:101F10006091820270918302809184029091850287
:101F20000E94A32C10920602EFEFF0E722E0E150AE
:101F3000F0402040E1F700C000000E94581FDEC2C0
:101F400081608093820261E086953BC042E15DE260
:101F50006BE17DE21DC04BE15DE262E17DE218C014
:101F600040E85CE267E77CE213C04FE55CE26BE6C9
:101F70007CE20EC047E45CE263E57CE209C043E535
:101F80005CE267E47CE204C046EC5CE265EB7CE288
:101F90000E943C1FB3C261E081E013C065E082E0B3
:101FA0000BC068E086E008C064E18FE005C067E12F
:101FB00085E102C062E289E10E942A1F9FC261E0BE
:101FC00083E20E94D72C9AC20A358DE5180741F1A9
:101FD00050F40115ACE51A07A9F00E3D1C4529F592
:101FE0000E94A7258BC20B35EDE51E07D9F00C35F5
:101FF0001D45D9F48091CB0482FB882780F991E0BC
:10200000892711C00E947B1B2FEF84E39CE02150A5
:1020100080409040E1F700C000000E94DD276EC2C2
:1020200081E001C080E00E94A426F70186819781AB
:102030000097B9F4F701828100811181882349F06A
:10204000C8010E94BB18D82E682FC8010E942F1B00
:1020500004C0C8010E94FF1AD82EB8018D2D0E941D
:10206000D22B0E94F1238C01D7011296DC9012979B
:102070001596CC90C2949FE0C92280910603877088
:10208000B9F0DD20A9F0812F807F803421F080E23B
:10209000800F883068F08091CB0482FD09C082E017
:1020A0000E948726809106038770BB24B394811118
:1020B000B12CA12EA2948FE0A8228A2D90E08C3022
:1020C000910508F0F8C1FC01EC59FF4F0C94B433B2
:1020D000812F807F1F70882311F01295107FDD20E3
:1020E000B9F0112309F4D4C180E2800F883010F0D8
:1020F000011106C090910B04192B10930B0405C01D
:1021000090910C04192B10930C040E942A26C0C134
:10211000802F0E94381C112309F4CDC180E2800F6A
:10212000883060F1002351F1812F0E941C2629C0C4
:10213000812F807F1F70803211F01295107F002355
:1021400021F0013009F45EC069C08091CB0482FFA8
:102150001BC0DD2069F0112339F090910B04192B7D
:1021600010930B040E942A2680E00E946A1CA3C1DF
:1021700080E00E94381C112309F49DC1812F0E9428
:1021800023260E942A2697C1DD2031F1CC20F1F0D0
:10219000B1E0CB120FC080910A03182B181709F475
:1021A0008AC10E9423289093090380930803109307
:1021B0000A0381C1E5E0CE1209C00E941126809178
:1021C00003031817C1F11093030335C080910A036C
:1021D000812B0E942E1C6FC1CC2051F0F1E0CF1258
:1021E0000DC080910B04812309F465C10E94D7269C
:1021F0000E941126812F0E94271C5DC125E0C2127A
:10220000F7CF59C1DD2029F085E08C1508F453C1C2
:1022100012C094E09C1508F44EC1ECCFDD2069F0AB
:10222000CC2049F0D70115968C91159780FF30C1CD
:102230008F7015968C93812FCCCFC1102EC1DACF21
:10224000812F86958695837019F0813059F033C1BE
:10225000DD2019F0C801937002C080E090E00E9478
:10226000CB282FC1DD2019F0C801937002C080E097
:1022700090E00E94B52825C1802FDD2019F00E9432
:10228000D92E02C00E94122E0E94E82D1AC1812F61
:102290008370A9F5D11013C1402F42954695477020
:1022A000440F440F802F8F7090E09C01042E01C0DA
:1022B000220F0A94EAF704FF08C08FE090E001C003
:1022C000880F4A95EAF7809501C080E0169516952B
:1022D0001370123069F088F490910B03113019F0EB
:1022E000822B892302C0922B892B0E94771BE7C087
:1022F000822B90910B038927F8CF822BF6CFDD201C
:1023000019F0812F817001C08695882309F4D7C008
:10231000402F429546954770440F440F802F8F7091
:1023200090E09C01042E01C0220F0A94EAF704FFFA
:1023300008C08FE090E001C0880F4A95EAF78095C9
:1023400001C080E0169516951370123059F078F49C
:102350009091EC01113019F0822B892309C0922B46
:10236000892B06C0822B9091EC01892701C0822B1A
:102370000E945C1BA4C01F70DD2039F0812F0E94D9
:102380006C1B802F0E942E1C9AC0802F0E94271C3D
:10239000812F0E94601B93C0023F61F128F4003F2F
:1023A00041F0013F01F16FC0033F59F1043FB9F023
:1023B0006AC0DD2079F024E02C1508F47CC01F7180
:1023C00081E090E001C0880F1A95EAF79091EC0146
:1023D000892721C085E08C1508F46DC0F0CF80916D
:1023E000CB0482FF1BC0DD2039F0812F8F710E944A
:1023F0006C1B61C0DD20C9F3812F8F710E94601BAF
:102400005AC0DD2039F01F7181E001C0880F1A9594
:10241000EAF701C080E00E945C1B4DC0DD20D9F0CE
:10242000809103030E9423268091060387708430E5
:1024300039F40E948026812F8F710E94601B71C029
:1024400094E09C1508F46DC01F71812F0E946C1BD5
:1024500063E0812F11C090910B0480910303892BBD
:1024600080930B04A4E0AC1550F40E9480260E94D7
:10247000D72664E0812F8F710E94C12652C081E06F
:102480000E9487264EC0DD2029F0CC2009F4ADCF74
:10249000802F6BCECC2009F4AFCF093349F4BFEFC6
:1024A000E7EEF3E0B150E040F040E1F700C000009B
:1024B000802F0E94381C88EF8A0D843010F40E940F
:1024C000E128BB20B1F08091060380FD12C0D70146
:1024D00012961C928595859585950E946C1BC70167
:1024E0000E947A0B809106038595859585950E94BB
:1024F000601B60E0C7010E942F306DC08091060311
:10250000877009F468C0D70112968C91882309F46A
:1025100062C08091CB0482FD5EC082E00E9487266B
:102520005AC0B12CCCCF0031FFE51F0721F481E068
:102530000E94601BDEC901312FE5120709F0DCC9DA
:1025400082E0F6CF6FE872E08C2D0E94C42A892BBE
:1025500009F0DBC986E18C9DF0018D9DF00D112401
:10256000E15FFB4F86818130E1F480918F02909191
:102570009002892B09F4C9C980919102909192022D
:10258000892B09F4C2C98091930290919402892BFE
:1025900009F0BBC98091950290919602892B59F060
:1025A000B4C9823009F0B1C980919302909194022C
:1025B000892B09F4AAC926E12C9DC0012D9D900DFF
:1025C0001124815F9B4FDC0150961C920E9434299C
:1025D0009CC969E20ACC0F900F900F900F90DF9189
:1025E000CF911F910F91FF90EF90DF90CF90BF9010
:1025F000AF909F908F9008958091E40187FF11C064
:102600008091E80082FD05C08091E2018111F8CF40
:1026100011C08091E8008B770BC08091E201882384
:1026200049F08091E80080FFF8CF8091E8008E7734
:102630008093E8000895982F973068F59093E9000B
:10264000981739F07091EC002091ED005091F00056
:1026500003C0242F762F50E021FD02C09F5FECCFF6
:102660003091EB003E7F3093EB003091ED003D7FE9
:102670003093ED003091EB0031603093EB007093BC
:10268000EC002093ED005093F0002091EE0027FD28
:10269000E5CF80E008958F708093E90081E0089590
:1026A0002091EA013091EB012617370748F06115B8
:1026B000710539F42091E8002E772093E80001C0DD
:1026C000B901FC0120E06115710579F18091E20109
:1026D0008823F1F18530F1F18091E80083FD3CC061
:1026E0008091E80082FD2EC08091E80080FFEBCF52
:1026F0002091F3008091F20090E0922B611571051A
:1027000051F08830910538F421912093F100615007
:1027100071090196F3CF21E0089709F020E080913C
:10272000E8008E778093E800CECF2111CFCF0AC08A
:102730008091E201882361F0853061F08091E800AA
:1027400083FD0AC08091E80082FFF2CF80E0089507
:1027500082E0089583E0089581E008950895BC0122
:1027600084E00C94B327BC0183E00C94B3278091E0
:10277000EC01982F9670963011F4886001C0877F25
:102780000C945C1B1F93CF93DF93CDB7DEB7AA9752
:102790000FB6F894DEBF0FBECDBFE4EEF1E08CEED5
:1027A00091E02091F10021938E179F07D1F780913E
:1027B000E501833009F463C030F4813071F0823078
:1027C00009F49DC0B4C08A3009F489C08B3009F483
:1027D0006EC0893009F0ABC020C08091E401813A1D
:1027E00009F0A5C08091E800877F8093E800809180
:1027F000E8019091E901892B21F460E280EC91E0FD
:1028000003C060E080E090E070E00E94501380918F
:10281000E8008B778093E8008AC08091E4018132E0
:1028200009F085C08091E8019091E901009719F0C5
:10283000029709F07CC08091E800877F8093E800D0
:102840008091E80082FD05C08091E2018111F8CFFE
:102850006EC02091F3008091F20090E0922B0297DD
:1028600031F48091F100813011F0863021F48091B3
:10287000F1008093BF018091E8008B7754C0809174
:10288000E401813A09F053C08091E8019091E90197
:10289000892B09F04CC08091E800877F8093E80085
:1028A0008091E80080FFFCCF80910C0137C08091BF
:1028B000E4018132E1F58091E8019091E901892BF1
:1028C000B1F58091E800877F8093E8000E94FC12B8
:1028D0008091E60180930C010E947B1B28C08091AF
:1028E000E401813221F58091E800877F8093E80040
:1028F0000E94FC128091E7018093BE0118C0809174
:10290000E401813AA1F48091E800877F8093E80098
:102910008091E80080FFFCCF8091BE018093F100A0
:102920008091E8008E778093E8000E94FC128091ED
:10293000E80083FFEBC18091E4019091E501492F0C
:1029400050E04A30510508F0E1C1FA01E059FF4F6B
:102950000C94B433803821F0823809F0D7C108C014
:102960008091E0019091E101992389F082600FC08C
:102970008091E8018F70873008F0C8C18093E9002A
:102980008091EB0085FB882780F91092E9009091F7
:10299000E800977F9093E8008093F1001092F10097
:1029A0007CC1282F2D7F09F0B1C1882319F0823016
:1029B00061F0ACC18091E601813009F0A7C193308C
:1029C00009F080E08093E1012EC08091E601811141
:1029D0002AC08091E8018F702FEF280F263008F071
:1029E00095C18093E9002091EB0020FF1CC093303B
:1029F00021F48091EB00806214C09091EB00906113
:102A00009093EB0021E030E0A90102C0440F551F74
:102A10008A95E2F74093EA001092EA008091EB0079
:102A200088608093EB001092E9008091E800877F36
:102A30008093E8000E94FC1269C1811167C1109166
:102A4000E6011F778091E3008078812B8093E3007B
:102A50008091E800877F8093E8000E94FC128091BB
:102A6000E80080FFFCCF8091E30080688093E30062
:102A7000111102C082E001C083E08093E20146C1EF
:102A80008058823008F042C12091E6013091E70180
:102A90002C3D53E0350779F583E08A838AE2898308
:102AA0004FB7F894DE01139620E03EE051E2E32FA9
:102AB000F0E050935700E49120FF03C0E295EF70DF
:102AC0003F5FEF708E2F90E0EA3010F0C79601C0A4
:102AD000C0968D939D932F5F243149F74FBF80910E
:102AE000E800877F8093E8006AE270E0CE010196FB
:102AF0000E945013C0C08091E8019091E901432FDA
:102B0000552743305105B1F068F44130510509F4BF
:102B10000CC14230510509F0F9C08BE590E0E8E5C1
:102B2000F3E057C04132510589F14232510509F4B1
:102B30003CC0ECC0C901992781309105B9F070F013
:102B400082309105D9F0039709F0E0C0E5ECF3E09D
:102B5000E4918E2F90E0E5ECF3E038C0E5E1F4E09D
:102B6000E4918E2F90E0E5E1F4E030C0E5E0F4E0A0
:102B7000E4918E2F90E0E5E0F4E028C0E3EEF3E08E
:102B8000E4918E2F90E0E3EEF3E020C083309105D6
:102B900008F0BCC0880F991FFC01E25CFE4F019059
:102BA000F081E02D89E090E014C08330910508F0B9
:102BB000ADC0FC01EE0FFF1FE85CFE4F0190F081FD
:102BC000E02DDC01AB5CBE4F8C9190E0009709F4E6
:102BD0009DC02091E800277F2093E8002091EA0122
:102BE0003091EB012817390708F4C90140E000973C
:102BF00089F12091E201222309F43DC02530D9F169
:102C00002091E80023FD37C02091E80022FD2FC06D
:102C10002091E80020FFEBCF4091F3002091F200DB
:102C200030E0342B009759F02830310540F44491BE
:102C30004093F100319601972F5F3F4FF3CF41E072
:102C40002830310509F040E02091E8002E772093EC
:102C5000E800CDCF4111CDCF0AC08091E201882399
:102C600051F0853041F08091E80083FD04C08091EF
:102C7000E80082FFF2CF8091E8008B778093E80034
:102C800045C0803809F042C08091E800877F80937A
:102C9000E8008091E3018093F1008091E8008E7755
:102CA000C7CE811133C08091E6019091E701992749
:102CB000029764F58091E800877F8093E800109187
:102CC000E6011093E3010E94FC12111106C08091ED
:102CD000E30087FD02C081E001C084E08093E2014F
:102CE00042E061EC81E00E941B1342E261EC84E06F
:102CF0000E941B1342E261EC82E00E941B1342E23D
:102D000060EC83E00E941B138091E2018091E80057
:102D100083FF10C08091E800877F8093E800809156
:102D2000EB0080628093EB0005C082E190E0E3EB72
:102D3000F3E04FCFAA960FB6F894DEBF0FBECDBF1B
:102D4000DF91CF911F9108951F920F920FB60F92AE
:102D500011242F933F934F935F936F937F938F93A0
:102D60009F93AF93BF93CF93DF93EF93FF93C09164
:102D7000E900CF708091EC00D82FD17080FDD0E8B1
:102D80001092E9008091F000877F8093F0007894A2
:102D90000E94C2131092E9008091F0008860809335
:102DA000F000CD2BCF70C093E900FF91EF91DF9140
:102DB000CF91BF91AF919F918F917F916F915F91D3
:102DC0004F913F912F910F900FBE0F901F9018952C
:102DD000E8EDF0E080818E7F80831092E200109217
:102DE000DA001092E100A0EEB0E08C9181608C934B
:102DF00080818F77808319BCA7EDB0E08C918E7FA6
:102E00008C9380818F7E80831092BD010895CF9234
:102E1000DF92EF92FF920F931F93CF93DF93C8ED52
:102E2000D0E088818F7E8883E7EDF0E0808181604B
:102E3000808384E082BF81E08093BD0188818E7FA2
:102E4000888302EE10E0F80110821092DA0081EE21
:102E5000C82ED12CF601108288818F7788838881D3
:102E60008068888388818F7D888319BC1092E201F5
:102E70001092E3011092E1011092E00190EEE92E30
:102E8000F12CF70180818B7F80838881816088832A
:102E900042E060E080E00E941B13F60180818E7F9B
:102EA0008083F80180818160808380818860808355
:102EB000F70180818E7F8083888180618883DF91A4
:102EC000CF911F910F91FF90EF90DF90CF900895D9
:102ED0001F920F920FB60F9211242F933F934F938F
:102EE0005F936F937F938F939F93AF93BF93EF9372
:102EF000FF938091E10082FF09C08091E20082FF90
:102F000005C08091E1008B7F8093E1008091DA0021
:102F100080FF2AC08091D80080FF26C08091DA000F
:102F20008E7F8093DA008091D90080FF18C080E105
:102F300089BD82E189BD09B400FEFDCF81E08093A7
:102F4000E2018091BD0181110FC00E94E8160E942C
:102F500007178091E20084608093E20005C019BCED
:102F60001092E2011092BD018091E10080FF17C034
:102F70008091E20080FF13C08091E2008E7F8093F9
:102F8000E2008091E20080618093E2008091D800AD
:102F900080628093D80019BC85E08093E201809123
:102FA000E10084FF30C08091E20084FF2CC080E10A
:102FB00089BD82E189BD09B400FEFDCF8091D800B2
:102FC0008F7D8093D8008091E1008F7E8093E10017
:102FD0008091E2008F7E8093E2008091E200816028
:102FE0008093E2008091E301882311F084E007C020
:102FF0008091E30087FD02C081E001C083E08093FF
:10300000E2018091E2018091E10083FF27C080917D
:10301000E20083FF23C08091E100877F8093E1007D
:1030200082E08093E2011092E3018091E1008E7FC3
:103030008093E1008091E2008E7F8093E200809196
:10304000E20080618093E20042E060E080E00E9464
:103050001B138091F00088608093F000FF91EF9146
:10306000BF91AF919F918F917F916F915F914F91A0
:103070003F912F910F900FBE0F901F9018952091A8
:10308000E4003091E50095E64091EC00842F8170DA
:1030900040FF23C08091E80080FD1DC08091E201C7
:1030A000882399F0853099F08091EB0085FD11C05F
:1030B0004091E4005091E5002417350729F3915021
:1030C00011F09A01E1CF84E0089582E0089583E051
:1030D000089581E0089580E008954091E80042FF5E
:1030E000DDCF0895EF92FF920F931F93CF93DF935D
:1030F0007C018B010E943F18811119C0E701011565
:103100001105A1F08091E80085FD0AC08091E800DA
:103110008E778093E8000E943F18882381F307C0D0
:1031200089918093F10001501109E9CF80E0DF918E
:10313000CF911F910F91FF90EF90089580E090E064
:103140000E94CB2880E090E00E94B52810920C04E9
:10315000109207030E942A26E6EDF4E086E0DF01E4
:103160001D928A95E9F71092D0041092CF04109224
:10317000D1040C94E82DCF92DF92FF920F931F930E
:10318000CF93DF936C010091EC0180910B03082B2E
:10319000C7E0D0E010E0C8010C2E02C095958795DD
:1031A0000A94E2F780FD04C02197A8F7F12C09C02A
:1031B000FC2EB6018C2F0E94D22B0E94F123019786
:1031C00099F38F2DDF91CF911F910F91FF90DF9099
:1031D000CF900895CF93DF93EC010E94BB18BE01FE
:1031E0000E94D22B0E94F123DF91CF910895FC0120
:1031F00086819781009719F00E94F12304C0808195
:1032000091810E94EA18292F2F70E92FE295EF7023
:103210004E2F50E0FA013297EE30F105B8F4E6583F
:10322000FF4F0C94B433803F99F018F4883E70F44B
:103230000FC0843F59F40CC0883E50F0813F31F4F8
:1032400007C0822F869586958695089580E008951B
:1032500081E008959F92AF92BF92CF92DF92EF925A
:10326000FF920F931F93CF93DF93CDB7DEB7659790
:103270000FB6F894DEBF0FBECDBF8C0185E0F8011C
:10328000DE01519601900D928A95E1F7F801E280F6
:103290009091B9026091BA024091BC025091BD0276
:1032A0004115510531F06F3F31F481E09F3F19F432
:1032B00003C081E001C080E0F82FF1709F2E80FDF7
:1032C0004EC1F80130812181C380D48079EBA72ED3
:1032D00072E0B72EF090BB02F601E41BF50BFF2065
:1032E00009F4EFC08091BE02E83CF10508F0AAC0E5
:1032F000482F407F09F05AC062131BC0931319C0B6
:103300006091BF027091C002F80146815781641735
:10331000750779F4FE2CE1100CC08F7080618093EA
:10332000BE02C5010E947A0B8091BE02F80185831E
:1033300053C1CD2831F02F3F31F481E03F3F19F4E4
:1033400003C081E001C080E080FD03C081E08E25E4
:1033500002C080E090E0F82FF170FF2E80FF1CC0CB
:10336000809102034091C102841709F413C190E0D7
:10337000FC0153E0EE0FFF1F5A95E1F7EE53FD4FAE
:103380005181251306C05081531303C05281E512A9
:1033900003C001968770E8CFFE2CEE2009F41CC113
:1033A0008091BE0281608093BE0258C062130FC03C
:1033B00093130DC04091BF025091C002F8012681C5
:1033C00037814217530719F4EE2009F4A7C0C8014A
:1033D0000E94F718882381F1EE2071F12091BE023E
:1033E000822F82958F7090E00297A4F08091B902AD
:1033F0009091BA029A8789871B86DD86CC862E87B4
:103400008091BF029091C002988B8F87CE01099660
:103410000E947A0B88E0F801A9EBB2E001900D92CE
:103420008A95E1F70E94E7260AC06217C9F0C80131
:103430000E94F718811127C0C8010E947A0BFF244F
:10344000F394CAC0482F407F81F789EB92E00E9435
:103450007A0B88E0F50111928A95E9F7F12CBCC04E
:103460009313E5CF4091BF025091C002F80126812D
:10347000378142175307D9F6E110D9CF8583C801A8
:103480000E947A0B66C0EE20B9F22091BE02822F14
:1034900082958F7090E002970CF4BCCF8091B902B6
:1034A0009091BA029A8389831B82DD82CC822E831B
:1034B0008091BF029091C00298878F83CE010196C0
:1034C000A7CFE83CF10508F044C0FE2CEE2009F43B
:1034D000B3CF621330C093132EC02091BF0230913E
:1034E000C002F801868197812817390721F590914C
:1034F000BE0290FD17C0892F82958F70282F30E073
:103500002115310579F095832F30310541F08F5F1A
:10351000982F9295907F85818F70892B8583C80124
:103520000E947A0B88E0F801A9EBB2E001900D92BD
:103530008A95E1F751C0C8010E94F71881116ACF3E
:103540008091BE0281608093BE02C8010E947A0B06
:1035500043C088E0F50111928A95E9F73DC0EE205D
:1035600009F46ACFC8010E94F718F82E882309F4DD
:1035700063CF88E0F801A9EBB2E001900D928A9543
:10358000E1F78091B9029091BA020E94EA180E9474
:10359000E72622C0398B2A8B89899A890E94EA18EA
:1035A000292F22952F70223028F49F7039F0811135
:1035B00005C00BC0243028F49F7049F4805E883029
:1035C00020F0C8010E947A0B9F2CF92C05C0F8014D
:1035D0009581907F99F7F9CF8F2D65960FB6F89466
:1035E000DEBF0FBECDBFDF91CF911F910F91FF9036
:1035F000EF90DF90CF90BF90AF909F9008959E3F47
:1036000061F127E0929F800D1124682F66956695E1
:103610006695982F977083E0689FB001112440E071
:1036200050E080E0FB01E40FF51FE351FE4F2081E5
:1036300030E0092E02C0369527950A94E2F72170F2
:103640003327042E01C0220F0A94EAF7822B4F5F22
:103650005F4F4330510531F7089580E008959E3F54
:1036600051F127E0929F800D1124E82FE695E69511
:10367000E695877051E001C0550F8A95EAF783E01F
:10368000E89FF0011124E351FE4F20E030E070E0AC
:103690004081CB01022E02C0969587950A94E2F7ED
:1036A0008170819584278523842781932F5F3F4FE5
:1036B0002330310569F708958093EC010C949E182E
:1036C00021E030E001C0220F8A95EAF72095809131
:1036D000EC0182230C945C1B21E030E001C0220F3E
:1036E0008A95EAF78091EC01822B0C945C1B809305
:1036F0000B030C949E1810920B0480910C018823EC
:1037000031F08091CA0487FF02C08EE101C086E0DB
:10371000EBE9F2E0DF011D928A95E9F70C949E181F
:10372000CF93DF93CDB7DEB760970FB6F894DEBFC7
:103730000FBECDBF29873A874B875C876D877E8711
:103740008F87988BCE0109960E942A19811151C04A
:1037500088E0FE013996DE01119601900D928A955E
:10376000E1F779856A854C855D854115510531F014
:103770006F3F31F481E07F3F19F403C081E001C065
:1037800080E080FD36C0A091C102B0E0CD0101967D
:10379000877099272091020330E08217930781F107
:1037A00079836A835D834C8393E0AA0FBB1F9A954C
:1037B000E1F7AE53BD4F98E0FE01319601900D92B6
:1037C0009A95E1F78093C1020E94DD2612C028E09D
:1037D000829FC00111248E539D4F0E942A19882375
:1037E000E1F08091020390E0019687709927809321
:1037F0000203809102039091C1028913E8CF0DC0AA
:103800000E947B1B1092C10210920203E9EBF2E0CE
:1038100088E0DF011D928A95E9F760960FB6F8946B
:10382000DEBF0FBECDBFDF91CF910895882321F079
:103830000E941C260C942A260895882339F0909122
:103840000C04892B80930C040C942A260895882359
:1038500021F00E9423260C942A260895882339F00B
:1038600090910B04892B80930B040C942A260895C5
:10387000882379F19CEF980F913A30F4682F89E909
:1038800092E00E9458280DC090E2980F983058F4AA
:10389000877091E001C0990F8A95EAF7892F0E94FD
:1038A00023260C942A269BE5980F933020F480E081
:1038B00090E00C94CB2898E5980F973120F480E0A5
:1038C00090E00C94B528803F20F00E94122E0C94BA
:1038D000E82D0895CF93882309F472C0C82F8CEF88
:1038E0008C0F813AC0F580910C018823E1F0809122
:1038F000CA0487FF18C0EC2FE695E695E695F0E040
:10390000E756FD4F8281282F30E04C2F477081E031
:1039100090E002C0880F991F4A95E2F78223932313
:10392000892B61F412C0EBE9F2E081EA92E0219187
:10393000C21721F08E179F07D1F707C06C2F89E9B6
:1039400092E00E9458280E942A266C2F89E992E072
:103950000E94802810C080E28C0F883078F4C770F5
:1039600081E090E001C0880FCA95EAF790910B04BE
:10397000892B80930B04CF910C942A26EBE5EC0F56
:10398000E33040F4F0E0E759FE4F808190E0CF91C2
:103990000C94CB28E8E5EC0FE73150F4F0E0EE0FA3
:1039A000FF1FE459FE4F80819181CF910C94B5287F
:1039B000C03F30F08C2F0E94D92ECF910C94E82D6F
:1039C000CF9108951F93CF93DF93182F893319F068
:1039D000C0E0D0E002C0C0E5D0E0812F0E946A1CA8
:1039E000209741F08FE99FE00197F1F700C00000B8
:1039F0002197F6CF812FDF91CF911F910C94381C26
:103A00000895CF93DF9300D000D01F92CDB7DEB7DB
:103A10009093600380935F03811520E2920748F43E
:103A20000F900F900F900F900F90DF91CF910C940B
:103A3000C0328EEF89838A831B820E942328816093
:103A4000782F9D838C8349815A816B818D810E945F
:103A500066300F900F900F900F900F90DF91CF91E5
:103A600008950F931F93CF93DF938C01EB016FE8C1
:103A700072E08C2F0E94C42A892B09F040C0DD27F8
:103A8000C957DD4F8881F80110821882833079F0A0
:103A900048F4813041F1823091F58091910290910A
:103AA000920209C0843051F08530E9F028C080913D
:103AB0009302909194020097B1F01BC080919502FF
:103AC000909196020097A9F420918F023091900274
:103AD00080919102909192022115310541F0009759
:103AE00041F4C90106C080918F0290919002009725
:103AF00031F0DF91CF911F910F910C94011DDF9157
:103B0000CF911F910F910895CF93DF9300D000D0F4
:103B10001F92CDB7DEB79093600380935F0381154A
:103B200020E2920748F40F900F900F900F900F90A3
:103B3000DF91CF910C94DA328EEF89838A8381E012
:103B40008B830E9423288160782F9D838C834981F9
:103B50005A816B818D810E9466300F900F900F907B
:103B60000F900F90DF91CF910895CF93DF93EC01E9
:103B70000E94841DCE01DF91CF910C94011D0F9303
:103B80001F93CF93DF938C01862F6FE872E00E9422
:103B9000C42A892BD1F4C0918F02D0919002209732
:103BA000A1F0F8018081833039F4CE010E94B51D67
:103BB000CE010E94B51D02C0843038F0CE01DF91E5
:103BC000CF911F910F910C94B51DDF91CF911F9153
:103BD0000F9108950F931F93CF93DF938C01EB0107
:103BE0006FE872E08C2F0E94C42A892B09F06DC007
:103BF000DD27F8018081813041F49185911115C054
:103C00009285992391F082E010C0823049F4F80146
:103C10008185811107C08285811106C083E005C0BE
:103C200086E003C085E001C084E0C957DD4F88838A
:103C30008330B1F028F4813071F0823031F045C02A
:103C40008430A9F0853079F140C080919102909143
:103C500092020097A1F580918F029091900220C06E
:103C600080919302909194020097E9F028C080918E
:103C7000950290919602009711F580918F02909194
:103C80009002009749F00E94B51D80919102909199
:103C90009202009781F013C080919102909192025C
:103CA000009799F00CC080918F029091900200973C
:103CB00061F00E94B51D80918F0290919002DF917A
:103CC000CF911F910F910C94841DDF91CF911F9183
:103CD0000F910895CF93DF93EC01E2E8F2E0438186
:103CE00062818C810E94CB2D8C818F5F8C83DF91D0
:103CF000CF910895CF93DF93EC01EC81F0E0EA5B84
:103D0000FB4F4491E2E8F2E0628181810E94CB2D79
:103D10008C818F5F8C83DF91CF9108958F929F92DA
:103D2000AF92BF92CF92DF92EF92FF920F931F93C9
:103D3000CF93DF93CDB7DEB72A970FB6F894DEBFE7
:103D40000FBECDBF0FE014E0E12CF12C8FEBC82E9D
:103D50008DE1D82E9AEEA92E9DE1B92E21E3822E77
:103D60002DE1922EF801D182C082B382A282958287
:103D70008482F58AE48ABE016F5F7F4F8E2D0E9498
:103D8000C42A892B29F489859A85F801938B828B23
:103D9000FFEFEF1AFF0A0A5E1F4F88E0E816F104F2
:103DA00009F72A960FB6F894DEBF0FBECDBFDF919C
:103DB000CF911F910F91FF90EF90DF90CF90BF9028
:103DC000AF909F908F900895CF93C82F811102C01C
:103DD0006FEF01C06EEB83E290E00E942033C111CF
:103DE00002C06FEF01C064EF84E290E00E942033D4
:103DF000C11102C06FEF01C067EA85E290E0CF9188
:103E00000C94203380E00E94E41E60E086E290E0A3
:103E10000E9420330E940F2B0E94B42A81E00C9450
:103E2000E41E83E290E00E940C338E3B81F484E236
:103E300090E00E940C33843F51F485E290E00E94B0
:103E40000C3391E0873A09F090E0892F01C080E0BF
:103E5000817008959091820290FF04C09695981702
:103E600040F003C0811105C090E0961710F40C9447
:103E70001B2D61E00C94D72C882311F0FA0101C0AE
:103E8000FB01099460918202669570E04BE050E07E
:103E90008DE091E00E94FE33892B19F481E080933C
:103EA00006020E942328909300028093FF01089548
:103EB0000F931F93CF93DF93CDB7DEB7C857D109C8
:103EC0000FB6F894DEBF0FBECDBF8091820280FF97
:103ED0000AC00EE114E09E012F5F3F4FAE0147582C
:103EE0005F4FB9010BC0EAE0F2E01182108212824A
:103EF000339682E0E238F807C1F7EBCFF8018491FE
:103F000090E0DC01AA0FBB1F8A0F9B1FDC01A65F9C
:103F1000BD4F8D919D91AC91FB0181939193A193A4
:103F2000BF010F5F1F4FE417F50741F7269A85B1D0
:103F30008F7B95B190646FB7F8942417350799F08B
:103F4000F90171919F01E8E095B9000000C077FF89
:103F500085B9770F000000C000C000C085B900C05F
:103F6000EA9591F7EACF6FBF8FE594E00197F1F7FB
:103F700000C00000C858DF4F0FB6F894DEBF0FBE78
:103F8000CDBFDF91CF911F910F910895EF92FF92D6
:103F90000F931F93CF93DF938C01CAE0D2E0E12C03
:103FA000F12CF8018481F4E1EF16F1041CF488236C
:103FB00051F002C0811107C040918502413508F0DF
:103FC00040E59E0102C09E0140E060918402809124
:103FD00083020E94352D8FEFE81AF80A239698E2A3
:103FE000E916F104F1F60E94581FF801848190E06F
:103FF0000196817099278483DF91CF911F910F9152
:10400000FF90EF9008958F929F92AF92BF92CF92C0
:10401000DF92EF92FF920F931F93CF93DF93EC0108
:104020004C81042F10E09801D8010E94C9339B01F4
:10403000AC010E94DF336B017C01E0E2F0E0E01BA9
:10404000F10BA5E5B0E09B01AC010E94DF334B0111
:104050005C019F01DF010E94C1339B01AC010E9402
:10406000EA339B01AC012C0D3D1D4E1D5F1DC501AA
:10407000B4010E949233822FF22E99E2921728F017
:1040800093E0299F900111240DC025E530E0281B05
:104090003109C901880F991F280F391F37FF02C046
:1040A0002F5F3F4F35952795122F10959AE0C92E17
:1040B00092E0D92E00E085E5E82EEF1801FD02C060
:1040C0008E2D01C08F2D412F113508F040E596014E
:1040D000609184020E94352D0F5F83E0C80ED11CD1
:1040E000083261F70E94581F8C81811102C091E053
:1040F00003C0803219F49FEF90931A0190911A0136
:10410000890F8C83DF91CF911F910F91FF90EF90DA
:10411000DF90CF90BF90AF909F908F9008950F93B6
:104120001F93CF93DF93CAE0D2E0FE011182108289
:104130001282339682E0E238F807C1F700E010E01F
:1041400080910802082E000C990B08171907ACF093
:1041500080911901082E000C990B801791076CF0C3
:1041600040918502413508F040E59E01609184024E
:10417000809183020E94352D03C0198218821A8211
:104180000F5F1F4F239608321105D1F60E94581F6A
:104190008091180190910802980F90930802209145
:1041A0001901280F20931901121614F497321CF0EC
:1041B000819580931801DF91CF911F910F91089500
:1041C000BF92CF92DF92EF92FF920F931F93CF9304
:1041D000DF93FC01828180FF03C0DD24DA9402C0FA
:1041E000DD24D3940AE012E0C0E0D0E028E2B22E51
:1041F000F80111821082128294E0E92EF12CC12C78
:10420000809107028C0D89322CF06B2D0E945C335B
:10421000892F02C087FD885D082E000C990BC817F6
:10422000D907A9F4809185028E9DA0018F9D500D24
:1042300011245595479555954795413508F040E52A
:10424000980160918402809183020E94352DCD0CEB
:10425000F1E0EF1AF108A1F621960D5F1F4FC83269
:10426000D10531F60E94581F8091070291E0D912C2
:1042700006C0811102C087E207C0815005C090E0EE
:104280000196BE010E947E3380930702DF91CF9199
:104290001F910F91FF90EF90DF90CF90BF90089506
:1042A000EF92FF921F93CF93DF93EC018AE0E82E09
:1042B00082E0F82E10E040918502413508F040E59B
:1042C0008C81970160918402810F0E94352D1A5FC5
:1042D00083E0E80EF11C103F71F70E94581F9A818D
:1042E0008C8190FF02C08F5F01C081508C83DF9171
:1042F000CF911F91FF90EF9008959091820290FFCF
:104300000CC0EAE0F2E0818360834283339692E05E
:10431000E238F907C1F70C94581F08950F931F93C3
:10432000CF93DF9300D01F92CDB7DEB78C01809181
:10433000090281110AC09E012F5F3F4F40E56FEFD8
:104340000E94352D8A8180930902F8018481813091
:1043500051F028F0823061F4409109020AC0809146
:10436000090240E007C06091090240E080E003C01C
:1043700040E080E060E00E947D21F801848190E0CF
:10438000019663E070E00E947E3384830F900F906B
:104390000F90DF91CF911F910F9108955F926F92CF
:1043A0007F928F929F92AF92BF92CF92DF92EF92C5
:1043B000FF920F931F93CF93DF9300D01F92CDB73F
:1043C000DEB7082F762E142F622E9091820290FF76
:1043D00074C0E92FE695AE2FB0E0AC5BBE4F8C9178
:1043E000809305029E7F923081F4413508F040E5CC
:1043F0009E012F5F3F4F672D802F0E94352D4B81EF
:1044000069818A810E947D2146C0823019F4109111
:10441000850241C0863019F4009183023CC0893086
:10442000D9F38931C1F5E9518E2F8170582EE69567
:10443000F0E0E75EFB4FA590B4908AE0C82E82E0E2
:10444000D82EE12CF12CBB2498E2892E912CAE9C25
:10445000C001AF9C900DBE9C900D1124B4010E9430
:104460006A33802F511002C0860F01C0861B412F76
:10447000113508F040E59601672D0E94352D8FEF2C
:10448000E81AF80A83E0C80ED11C88E2E816F104A5
:10449000F1F60E94581F00938302709284021093D9
:1044A0008502662051F060918202709183028091B2
:1044B0008402909185020E94A32C0F900F900F9080
:1044C000DF91CF911F910F91FF90EF90DF90CF90F0
:1044D000BF90AF909F908F907F906F905F90089566
:1044E00080E008959091CA0492FF0DC0282F287192
:1044F000283019F4877F846006C0282F2471243067
:1045000011F48B7F886093FF0DC0282F287128310C
:1045100019F4877E846106C0282F2471243111F498
:104520008B7E88612091CB0420FF0DC0382F38711D
:10453000383019F4877F816006C0382F31713130EF
:1045400011F48E7F886021FF0DC0282F287128313B
:1045500019F4877E816106C0282F2171213111F461
:104560008E7E886194FD877E0895F894E82FE29509
:10457000EF70F0E031A1282F2F7081E090E001C0B2
:10458000880F2A95EAF7982F9095932391A392A1EB
:10459000892B82A3789408959F92AF92BF92CF9275
:1045A000DF92EF92FF920F931F93CF93DF9300D090
:1045B00000D000D0CDB7DEB7AE014F5F5F4F7A01BC
:1045C00086E0FA0111928A95E9F708E211E06A01A2
:1045D000AA24A394B12CF80180818F3F09F441C033
:1045E000F894E82FE295EF70F0E021A18F70A5011B
:1045F00002C0440F551F8A95E2F7CA01922F982BEB
:1046000091A392A18095892382A3789400C0EEE2C1
:10461000F1E0912C31E021912F3F89F0A22FA2955A
:10462000AF70B0E090968C9190E02F7002C095959D
:1046300087952A95E2F780FD02C0832F01C080E0B4
:10464000982A330F51E0E533F50729F7F801808107
:104650008F3F11F00E94B522F0EAFA95F1F7F601CA
:1046600090820F5F1F4FFFEFCF1ADF0A21E00E325B
:10467000120709F0B0CF46E050E0B70180EA91E0C0
:104680000E940B3401E0009709F400E0892B89F0C7
:1046900086E0F701A0EAB1E001900D928A95E1F77A
:1046A00081E080930E030E94232890930D03809352
:1046B0000C0380910E038823A1F080910C0390914C
:1046C0000D030E941428059760F0E0EAF1E0A3EBE7
:1046D000B1E081918D9341E0E63AF407D1F7109271
:1046E0000E0380911B0190911C01019651F110E085
:1046F00036E1932E1DC0989EF001999EF00D112475
:10470000E15FFB4FC288D388C114D10419F428ECAF
:10471000C22ED12C989E5001999EB00C1124C50137
:10472000815F9B4F7C01FC01868181110FC01F5F5F
:10473000812F90E020911B0130911C01281739072F
:10474000D4F680911F01811111C038C085859685EE
:104750000E941428C816D90650F7C7010E943429B0
:10476000C5018B5E9B4F0E94ED28E1CF809109042B
:1047700090910A04009711F10E941428209163037C
:104780003091640328173907C8F490910704809189
:104790000804981759F00E94052A10926403109299
:1047A000630310920A041092090408C00E9487292A
:1047B00010920A04109209040E94E629802F26967E
:1047C0000FB6F894DEBF0FBECDBFDF91CF911F9122
:1047D0000F91FF90EF90DF90CF90BF90AF909F90A0
:1047E0000895CF93DF938238910569F1B0F4813356
:1047F000910509F46FC048F48932910509F465C048
:104800008A32910509F46BC08AC08533910509F499
:1048100057C089339105B9F082C0833E910571F18B
:1048200038F4803E9105B1F0823E910511F177C0D8
:10483000863E9105B9F1873E9105C9F1843E910507
:1048400009F06DC024C02091CA0420FD53C021FD91
:1048500051C065C08091CA0480FD46C08091CB04E0
:1048600080FF48C08091CA0484FD50C183EE90E06F
:104870004FC18091CA0482FF3AC0F4CF8091CA042C
:1048800082FD35C08091CB0480FD34C0EBCF809198
:10489000CB0481FF35C08091CA0484FD37C187EE07
:1048A00090E036C18091CA0483FF27C0F4CF809185
:1048B000CA0483FD22C08091CB0481FD21C0EBCFCF
:1048C0008091CA0485FD1FC021C08091CA0485FD66
:1048D0001DC019C08091CA0486FD1BC01DC08091F7
:1048E000CA0486FD19C015C089E390E011C182EEAB
:1048F00090E00EC180EE90E00BC186EE90E008C122
:1049000084EE90E005C189E290E002C185E390E089
:10491000FFC08AE290E0FCC081E390E0F9C081151D
:1049200031E5930708F069C0811540E59407F0F080
:104930009C0174E0369527957A95E1F7922F937054
:10494000482F437021E030E002C0220F331F4A9508
:10495000E2F73C68392B982F9F709695969540E228
:10496000949FC0011124822B932BD2C0883E9105C5
:1049700068F5803E910508F0CBC0883A9105B8F4FF
:10498000853A910548F0855AE82FF0E0E759FE4F47
:10499000808190E09064BCC08130910509F4B3C07F
:1049A00008F4B4C08430910508F4B0C0B1C08F3BA6
:1049B000910508F0ABC0885AE82FF0E0EE0FFF1F1A
:1049C000E459FE4F808191819464A2C0811520E258
:1049D000920758F4811531E0930708F099C0803FA1
:1049E000910508F493C0906593C0811540E4940745
:1049F00008F48CC09F70906A8BC0811525E59207E2
:104A000008F042C0811534E5930728F0982F8827D5
:104A1000846F906A7DC0811543E59407B0F09C01D6
:104A20002370332741E050E002C0440F551F2A9500
:104A3000E2F7282F2695269580E2289F90011124E1
:104A4000CA01822B932B9A6863C0811522E59207D5
:104A500028F4982F8827816F906A5AC09C01237090
:104A6000332741E050E002C0440F551F2A95E2F77A
:104A7000282F2695269580E2289F90011124CA01AF
:104A8000822B932B9C6844C0EC01811539E5930778
:104A9000A8F48115984528F09C2F8827806F906A8C
:104AA00037C0C11586E5D80788F58C2F0E94722281
:104AB0008F7190E0982F882790622AC081152AE58F
:104AC000920790F48C2F8F700E94722294E0D695FA
:104AD000C7959A95E1F7CF70D0E0DC2FCC27D0694D
:104AE0009E01282BC90114C090568115904270F484
:104AF0008D2F8F710E947222282F2F71CE0199273E
:104B00009062922B05C081E090E002C080E090E0CE
:104B1000DF91CF910895CF9384E090E00E940C3311
:104B2000C82F82E290E00E940C332C2F30E0A901C4
:104B3000582BCA01CF91089580E090E00E941A336B
:104B40008A3E9E4F11F40C94111F80E008956AEE86
:104B50007EEF80E090E00E943E3360E082E090E0F3
:104B60000E94203360E083E090E00E9420331092A6
:104B70000B0360E084E090E00E94203360E082E27A
:104B800090E00E94203360E085E090E00E942033B6
:104B900060E086E090E00E9420336FEF87E090E0D5
:104BA0000E94203340E050E0BA0188E090E00E948B
:104BB000323360E08DE090E00E94203340E050E02E
:104BC000BA0188E190E00E94323360E087E190E032
:104BD0000E94203340E050E0BA018CE190E00E9456
:104BE000323360E070E080E290E00E943E3340E0CB
:104BF00050E0BA0188E190E00E94323380E00E94E8
:104C0000E41E0E94021F40E050E0BA018FE090E0F5
:104C10000E94323340E050E0BA0183E190E00C940E
:104C2000323380910A03882331F010920A031092E4
:104C30000903109208030895809590910C0489232C
:104C400080930C040895809590910B0489238093A0
:104C50000B04089590910B0480910C04892B909182
:104C60000703892B8093990280910A03882361F1BD
:104C70000E9423282091080330910903821B930B83
:104C80008838934110F00E941126909199028091EA
:104C90000A03892B8093990280910C01882331F0BB
:104CA0008091CA0487FF02C08EE101C086E0EBE973
:104CB000F2E090E0815028F021912223D9F39F5F08
:104CC000F9CF91110E941126E091C104F091C20424
:104CD0003097A9F080910C01882359F08091CA0483
:104CE00087FF07C08091990280939A0286E08093A3
:104CF00099020280F381E02D89E992E009940895F8
:104D00001092060310920503109204030895209157
:104D100006038095822380930603982F977099F459
:104D200030E0482F082E000C550B2417350759F09A
:104D30009091CB0492FD07C08595859585950E943D
:104D4000601B0C9480260895CF93C091CB04C2FBC6
:104D5000992790F9981799F080FBC2F9C093CB047A
:104D60006091CA0484E090E00E9420336C2F82E2BC
:104D700090E00E94203382E0CF910C948726CF915F
:104D800008959091CB0492FD10C098E0899F900106
:104D90001124262B209306030E946C1B0E942328BB
:104DA000909305038093040308950C946C1B8091E9
:104DB00003038111109203030895809102039091DF
:104DC000C102891719F08F5F8770FBCF08951F9379
:104DD000CF93DF938091BE0282958F7009F05CC003
:104DE0008091BB02882309F457C08091020310917F
:104DF000C1026091B9027091BA02C091BC02D09117
:104E0000BD0291E06F3F09F090E0292F811709F46E
:104E100043C0209721F07F3F21F030E003C031E014
:104E200001C0322F90E030FD34C0FC0133E0EE0FC2
:104E3000FF1F3A95E1F7DF01AE53BD4F11963C914C
:104E40001197371326C03C91361323C012963C911C
:104E5000129731111EC013964D915C9114974C1B03
:104E60005D0B483C5105A8F48091BE028F708061B3
:104E70008093BE02E953FD4F80818F7080618083F3
:104E800089EB92E00E947A0BDF91CF911F910C94F5
:104E9000DD2601968770BACFDF91CF911F910895DB
:104EA0008091BF01089524E02093E9002FEF309115
:104EB000E800215035FD06C035ED3A95F1F70000C8
:104EC0002111F5CF2091E80025FF0BC040E050E014
:104ED00066E070E00E9472188091E8008E778093FF
:104EE000E8000895CF93DF9320910C01222339F03D
:104EF0002091CA0427FF03C060E224E002C068E0FA
:104F000021E02093E9002FEF3091E800215035FD9A
:104F100006C035ED3A95F1F700002111F5CF20914B
:104F2000E80025FF1DC0EC0180910C01811105C036
:104F300040E050E068E070E003C070E040E050E026
:104F4000CE010E9472188091E8008E778093E8006D
:104F500080E2FE01A0ECB1E001900D928A95E1F7AC
:104F6000DF91CF9108958093CC047093CE04609329
:104F7000CD048091E2018430F9F48093E9008FEF51
:104F80009091E800815095FD06C095ED9A95F1F756
:104F900000008111F5CF8091E80085FF0DC040E051
:104FA00050E063E070E08CEC94E00E947218809115
:104FB000E8008E778093E800089587E797E790935D
:104FC0000108809300089AE088E10FB6F894A8954C
:104FD000809360000FBE90936000FFCF78941F9283
:104FE0000F920FB60F9211248F939F93AF93BF939D
:104FF0008091C6049091C704A091C804B091C904DF
:105000000196A11DB11D8093C6049093C704A0937F
:10501000C804B093C904BF91AF919F918F910F9035
:105020000FBE0F901F9018959C014FB7F894809178
:10503000C6049091C704A091C804B091C9044FBFA1
:10504000821B930B08952FB7F8948091C60490911A
:10505000C704A091C804B091C9042FBF08951F923E
:105060000F920FB60F9211248F939F93AF93BF931C
:105070008091C504811113C08091C6049091C7042A
:10508000A091C804B091C9044196A11DB11D80939F
:10509000C6049093C704A093C804B093C904BF91F9
:1050A000AF919F918F910F900FBE0F901F90189509
:1050B00020910C012223C9F02091CA0427FF15C0BA
:1050C000262F2695269526952E31C8F4FC01E20F51
:1050D000F11D677081E090E001C0880F6A95EAF7E2
:1050E00080959281892382830895FC01069622810E
:1050F000621301C012823196E817F907C1F70895CB
:1051000020910C012223C1F02091CA0427FF14C072
:10511000262F2695269526952E3130F5FC01E20F97
:10512000F11D677081E090E001C0880F6A95EAF791
:105130009281892B82830895FC0132962FEF30E013
:105140004191641789F02F3F19F4411101C0232FB9
:105150003F5F3630A9F72F3F39F0FC01E20FF11D18
:1051600027FDFA956283089508952091C304309134
:10517000C4042817390771F09093C4048093C304C2
:10518000E091C104F091C204309721F00084F185D0
:10519000E02D099408952091BF043091C004281790
:1051A000390771F09093C0048093BF04E091C1046B
:1051B000F091C204309721F00680F781E02D099428
:1051C0000895E091C104F091C204309721F001905C
:1051D000F081E02D099480E00895EF92FF920F9303
:1051E0001F93CF93DF93FC012285211136C0EC0180
:1051F000E380F480F7E5FF1A26E12E9DC0012F9D84
:10520000900D1124DC01A15FBB4F1496ED91FC9130
:1052100015978B5E9B4F309729F054966D917C913A
:105220005597099586E18E9D80018F9D100D112463
:10523000015F1B4FF80187810E942326F8018085BA
:105240000E941C260E942A26188219861B861E820E
:105250001D8210920E0410920D04DF91CF911F91C8
:105260000F91FF90EF900895CF93DF93FC01218978
:1052700021111CC0EC0181E0818B90910B0487818E
:10528000892B80930B0490910C048085892B80934B
:105290000C040E942A26EA81FB81CE0106963097F3
:1052A00029F06C897D89DF91CF910994DF91CF91AD
:1052B0000895BC014091070480910804942F981729
:1052C00029F1292F30E0F901EE0FFF1FE150FC4FCB
:1052D0000190F081E02DE617F70799F487E0869FAB
:1052E000F001879FF00D1124E953FC4F81E0848386
:1052F00094130CC02F5F3F4F237033272093070474
:1053000008952F5F3F4F922F9370D9CF08950F9339
:105310001F93CF93DF9380916603882309F451C0D4
:10532000C09165031CE080916603C81708F045C072
:1053300001E00C0F00936503D0E01C9FF0011D9F5E
:10534000F00D1124E959FC4F908181812381348132
:10535000232B31F08F3F31F481E09F3F19F403C0DC
:1053600081E001C080E080FD26C01C9FD0011D9F10
:10537000B00D1124A959BC4F16968D919C91179789
:10538000892B31F418968D919C911997019651F4BF
:105390002081318142815381648175818681978129
:1053A0000E94901B1C9FF0011D9FF00D1124E959D4
:1053B000FC4F14821382C02FB6CF10926603109256
:1053C0006503DF91CF911F910F91089510926403AF
:1053D00010926303E7ECF3E08581811102C014822F
:1053E0001682379683E0EF3FF807B1F708951092E1
:1053F0000A041092090410921F01809108048093FE
:1054000007040E94E6290C9487293F924F925F92ED
:105410006F927F928F929F92AF92BF92CF92DF92C4
:10542000EF92FF920F931F93CF93DF93C0910704E6
:1054300097E0892E01E010E02CE0322E3EEF932E13
:105440004424439480910804C81709F478C0D0E03C
:10545000FE01EE0FFF1FE150FC4F80819181889E7D
:10546000D001899EB00D1124A953BC4F14962C91E4
:105470001497211161C050906603E7E6F3E020E045
:1054800030E0712C5D01251508F054C0E284F384EE
:10549000D501CD90DC906FEF7FEF612C462D50E071
:1054A000DA01AA0FBB1FAC0DBD1D0D90BC91A02D44
:1054B000109731F0EA16FB0609F4BA016394EECFB7
:1054C0006F3FBFEF7B0791F1D80102C0AA0FBB1F4E
:1054D0006A95E2F77A2AB80102C0660F771F6A94CC
:1054E000E2F7AB0141505109672D70E046175707AD
:1054F000D9F4329EF001339EF00D1124E959FC4F8E
:10550000889ED001899EB00D1124A953BC4F1296DC
:105510002D913C91139737832683908291829187B6
:10552000808715964C9206C0148213822F5F3F4FDE
:105530003C96A9CF0E9459292196C37083CF0E941F
:105540008729DF91CF911F910F91FF90EF90DF900E
:10555000CF90BF90AF909F908F907F906F905F9013
:105560004F903F900C94E629CF93DF93CBE6D2E0A7
:1055700060E0CE010E9420332196C11584E0D80757
:10558000B9F7DF91CF910895883080F49B01982F6F
:105590008AE0989FB001112465537E4F4AE050E0A5
:1055A000C9010E94FC3280E090E008958FEF9FEFE8
:1055B00008950F931F93CF93DF93853058F566308E
:1055C00048F5473038F521159CE5390731F4E0916D
:1055D0001D01F0911E01EF2BE9F08901C42FD0E0ED
:1055E000CC0FDD1F9EE0699FC00DD11D112494E5F5
:1055F000899FC00DD11D1124612FCE0187960E9475
:105600002033602FCE018896DF91CF911F910F91AB
:105610000C942033DF91CF911F910F9108956F92D9
:105620007F928F929F92AF92BF92CF92DF92EF9232
:10563000FF920F931F93CF93DF93CDB7DEB764979D
:105640000FB6F894DEBF0FBECDBFA0901D01B09085
:105650001E0181E090E090931E0180931D01612C5A
:10566000C12CD12C712CE12CF12C00E010E0460172
:105670008E0C9F1CF801EE0FFF1FE80DF91DEA5B71
:10568000FA4F25913491402F672D862D0E94D92AFB
:105690000F5F1F4F0730110569F78EE0E80EF11C10
:1056A0007394E6E07E12E1CFF4E5CF0ED11C639453
:1056B00085E06812D7CF1A8219821C821B821E8253
:1056C0001D8218861F8288EC90E09A8789870BECF0
:1056D00011E04AE050E0B801CE0101960E94443347
:1056E000065F1F4F0B31E2E01E0799F77E01FBE0DA
:1056F000EF0EF11C8AE0F70111928A95E9F74AE072
:1057000050E0B801C7010E944433065F1F4F0B36BB
:10571000F2E01F07A1F7B0921E01A0921D0164964E
:105720000FB6F894DEBF0FBECDBFDF91CF911F91B2
:105730000F91FF90EF90DF90CF90BF90AF909F9030
:105740008F907F906F9008950F931F93CF93DF9367
:10575000853008F56630F8F44730E8F4C42FD0E01F
:10576000CC0FDD1F2EE0629FC00DD11D112434E54A
:10577000839FC00DD11D1124CE0187960E940C334A
:1057800090E0182F0027CE0188960E940C339801D4
:10579000282BC90102C080E090E0DF91CF911F91DA
:1057A0000F910895462F2091610330916203232BBE
:1057B00091F47E3F39F46E3F71F480915F039091D4
:1057C00060030895853038F4763028F4673018F493
:1057D000672F0C94A42B80E090E00895CF92DF9285
:1057E000EF92FF920F931F93CF93DF93CDB7DEB766
:1057F0002A970FB6F894DEBF0FBECDBF80E5EFE06D
:10580000F3E0DF011D928A95E9F788E3E7ECF3E026
:10581000DF011D928A95E9F78FE0C82E83E0D82E2C
:105820007F010BE112E0F701D182C0824AE050E033
:10583000B801CE0101960E94FC3288E0FE0131964B
:10584000D60101900D928A95E1F789859A85D70155
:1058500013969C938E931297BAE0CB0ED11CE7E07F
:10586000EE0EF11C065F1F4F0B36F2E01F07D9F654
:105870002A960FB6F894DEBF0FBECDBFDF91CF9151
:105880001F910F91FF90EF90DF90CF900895E2E885
:10589000F2E0438128E0421B08F440E021E062810D
:1058A00081810C94CE21E2E8F2E0438128E0420FAE
:1058B00008F44FEF21E0628181810C94CE21E2E86F
:1058C000F2E0628128E0621B08F460E021E043819D
:1058D00081810C94CE21E2E8F2E0628128E0620F3F
:1058E00008F46FEF21E0438181810C94CE21E2E83E
:1058F000F2E0818121E04381628188500C94CE21C5
:10590000E2E8F2E0818121E043816281885F0C94CA
:10591000CE2180918202282F269530E02115310575
:1059200019F48170826005C02532310524F0817040
:1059300088648093820280918502813518F080E529
:10594000809385020895CF92DF92EF92FF926B01D0
:105950007C010E94892CB701A60188E090E0FF90AD
:10596000EF90DF90CF900C943233809186028823A1
:1059700019F08150809386026091820270918302B7
:1059800080918402909185020C94A32C80918602D0
:10599000833018F48F5F8093860260918202709149
:1059A000830280918402909185020C94A32C9091A3
:1059B000820290FF36C09170811102C0926006C0D1
:1059C000853210F0986402C0880F982B9093820261
:1059D000662351F06091820270918302809184026B
:1059E000909185020E94A32C60918202669570E0DE
:1059F0004BE050E08DE091E00E94FE33892B19F0DE
:105A00001092060202C00E94421F81E080930202AF
:105A100020E04091850260918402809183020C9481
:105A2000CE210895809182028695815009F484E206
:105A300061E00C94D72C8091820286958F5F85322D
:105A400008F081E061E00C94D72CE2E8F2E083E01A
:105A5000808311828FEF828380E58383148260814B
:105A60007181828193810C94A32CAF92BF92CF92CB
:105A7000DF92EF92FF920F931F93CF93DF93E82E65
:105A8000F62EE901E42FF0E0611106C0E651F94F6E
:105A9000E4914E2F2E2F71C0062F10E0E651F94FE2
:105AA0004491F42FC42ED12C26E0829FC0011124F2
:105AB0002FEF30E0B9010E946A335BEA5603C00160
:105AC000579F900D11248E0D911D8E0D911D582FF5
:105AD000550F580FD901A01BB10BAC9DC001AD9D56
