:100000000C947F040C94C6040C94C6040C94C6048F
:100010000C94C6040C94C6040C94C6040C94C60438
:100020000C94C6040C94C6040C9437180C94EC166B
:100030000C94D91A0C94C6040C94C6040C94C604EF
:100040000C94C6040C94C6040C94C6040C94C60408
:100050000C94C6040C94981A0C94C6040C94C60410
:100060000C94C6040C94C6040C94C6040C94C604E8
:100070000C94C6040C94C6040C94C6040C94C604D8
:100080000C94C6040C94C6040C94C6040C94C604C8
:100090000C94C6040C94C6040C94C6040C94C604B8
:1000A0000C94C6040C94C6040C94C6041A0C1A0CC6
:1000B0004D0C4D0CDE0CFC0C220E220E070D7B0DA0
:1000C0008C0D8C0D75158F15951503160316CD1512
:1000D000D915E8150316F015031603160316F815BF
:1000E000FF1E261FE620261FE620721F951FE62012
:1000F0009720A720E825E825FB25FB25F125FB25F2
:10010000FB25FB25E825E825F625FB25FB25F6251F
:1001100000047F3F1F643214643214783C1E1E14A6
:100120000A05FD377A585A000004E6D6B4460200A4
:10013000210116000000742FE5A3E001A300D55DA6
:10014000003D8889C65436C3174FE4E456FEECBC24
:100150003EDB0BBE3484A0BEAB746D52628B38C5DF
:10016000FA1AC0AC8783F916D2D67B7D0D69FF2FB2
:1001700016F6346605678857265065509F0B4FA1C9
:100180005385AFAC9A9283C9BFB379CD4968896D65
:100190003E77A799A8A4B9DB5305B7DC0D5F164AD3
:1001A00048FB4120ADEAB355CAC1CE887DF5211088
:1001B00002AE23AE3E83B7A0C21DFDE4AC7ECAA44E
:1001C0008225EC1D2CE93181072151D4866047CA74
:1001D00071C18CB03049D98B8D9ED6966B7F1EA491
:1001E00016F2CDF5D09540A3B6C3986D2356D23BF9
:1001F000210BB912C456D789906CBE931E94E02E81
:10020000EE5B0E769E698E7A14D58DFAC9C2709C0B
:10021000DD05A659C60000000000D3415CFB0CAD13
:100220009B070001F101A4030000DA07B4E0B1C4A8
:1002300067FB020000000004595A14001A0008006D
:10024000150017001C001800040016000700090024
:100250000A000B000D001D001B0006001900050020
:1002600011001000E000E300E200E1002A422C410E
:1002700028440C00120013000E000F002D4336001E
:10028000370038004C00E4002900000000001E0088
:100290001F00200021002200230024002B0000006A
:1002A000000035002F003000310000000000000089
:1002B00000002E002D0000000100010001000100DF
:1002C0000100000001002500260027003300340053
:1002D0002D000100010001000100010001000000EB
:1002E00000003A003B003C003D003E003F00400063
:1002F0002B00440045000000000000000000390011
:1003000046004700480000005300000001000100C3
:100310000100010001000100000041004200430013
:10032000000000000000AA00A900A80000000000D2
:100330000000000000002900000000000000000094
:1003400049004B002B0000000000000000004A00A4
:100350005000000000000000000000004D00000000
:1003600001000100010001002A000000000052000D
:100370004E004C0051004F00000000000000000043
:100380000000000000000000000029000000000044
:10039000000000000000F4002B000000000000003E
:1003A0000000F900F2000000000000000000000062
:1003B000FA00000001000100010001002A00000015
:1003C0000000F000F5004C00F100F3000000000018
:1003D0000000000000000000000000000000050117
:1003E0000902A10185020901A100050919012905D8
:1003F000150025019505750181029501750381019F
:100400000501093009311581257F9502750881069E
:1004100009381581257F950175088106050C0A3874
:10042000021581257F950175088106C0C005010967
:1004300080A101850319012AB700150126B700958F
:100440000175108100C0050C0901A1018504190185
:100450002AA002150126A002950175108100C00591
:10046000010906A1018506050719E029E715002500
:10047000019508750181020507190029EF1500256E
:100480000195F07501810205081901290595057589
:10049000019102950175039101C00660FF0961A1F8
:1004A000010962150026FF00952075088102096385
:1004B000150026FF00952075089102C00501090668
:1004C000A101050719E029E7150025019508750127
:1004D00081029501750881010507190029FF1500A2
:1004E00026FF009506750881000508190129059564
:1004F0000575019102950175039101C00902BF00C4
:10050000050100A0FA09040000010301010009210E
:10051000110100012240000705810308000A0904B7
:100520000100020300000009211101000122220044
:1005300007058203200001070503032000010904C9
:100540000200010300000009211101000122BC008A
:100550000705840320000A080B03020101000009BB
:100560000403000001010000092401000109000149
:1005700004090404000201030000072401000141F2
:1005800000062402010100062402020200092403DD
:100590000103010201000924030204010101000911
:1005A0000506024000050000052501010109058539
:1005B00002400005000005250101031201000200B0
:1005C000000008666666660200010203011C0376ED
:1005D00000690061006C003A006600360034006378
:1005E000003200620033006300000020035000343A
:1005F00000300053005600320020004B00650079A7
:100600000062006F0061007200640000000E035081
:10061000006100620069006C0065000000040309CD
:1006200004FFAA7F554000010203040506070809DC
:10063000131211100F0E0D0C0B0A141516171819A2
:100640001A1B1C1D27262524232221201F1E22239E
:10065000252628292A2C2D2F3032333536383A3B9F
:100660003D3E4042434547494A4C4E5051535557F1
:10067000595A5C5E6062646668696B6D6F71737510
:1006800077797B7D7F81838587898A8C8E90929410
:1006900096989A9C9E9FA1A3A5A7A8AAACAEAFB11D
:1006A000B3B4B6B8B9BBBCBEBFC1C2C3C5C6C7C967
:1006B000CACBCCCDCED0D1D2D2D3D4D5D6D7D7D821
:1006C000D9D9DADADBDBDBDCDCDCDCDCDDDDDDDD73
:1006D000DCDCDCDCDCDBDBDBDADAD9D9D8D7D7D67B
:1006E000D5D4D3D2D2D1D0CECDCCCBCAC9C7C6C532
:1006F000C3C2C1BFBEBCBBB9B8B6B4B3B1AFAEAC78
:10070000AAA8A7A5A3A19F9E9C9A98969492908E22
:100710008C8A89878583817F7D7B79777573716FFB
:100720006D6B6968666462605E5C5A5957555351D7
:10073000504E4C4A4947454342403E3D3B3A38368D
:10074000353332302F2D2C2A29282625232200014B
:100750000101010101010101020202020202020281
:100760000203030303030303030404040404040453
:100770000505050505060606060607070707070817
:10078000080808090909090A0A0A0B0B0B0C0C0CCA
:100790000D0D0D0E0E0E0F0F0F1010111111121264
:1007A00013131414151516161717181819191A1AE1
:1007B0001B1B1C1D1D1E1E1F202021222223242442
:1007C000252626272829292A2B2C2D2D2E2F30317E
:1007D0003232333435363738393A3B3C3D3E3F4090
:1007E0004142434445464748494A4C4D4E4F50517B
:1007F0005354555658595A5B5D5E5F616264656635
:1008000068696B6C6D6F7072737577787A7B7D7EBB
:100810008082838587888A8C8E8F91939596989A0B
:100820009C9EA0A2A3A5A7A9ABADAFB1B3B5B7BA23
:10083000BCBEC0C2C4C6C9CBCDCFD1D4D6D8DBDDF7
:10084000DFE2E4E7E9EBEEF0F3F5F8FAFDFF000094
:100850000000000000000000000000000000000098
:100860000000000000000000000000000000000088
:1008700000007E0F00D4FFFFFFC7000000780000DB
:100880000000000000002A2B2800000000000000EB
:1008900000000000000000000029000000002C1EE5
:1008A0003420212224342627252E362D3738271EA2
:1008B0001F202122232425263333362E37381F04C8
:1008C00005060708090A0B0C0D0E0F101112131460
:1008D00015161718191A1B1C1D2F3130232D35041E
:1008E00005060708090A0B0C0D0E0F101112131440
:1008F00015161718191A1B1C1D2F3130354C1124D1
:100900001FBECFEFDAE0DEBFCDBF04B603FE27C0C7
:100910008091AC049091AD04A091AE04B091AF046D
:100920008730904BA740B04BD1F41092AC0410929A
:10093000AD041092AE041092AF0414BE84B7877F4A
:1009400084BF0FB6F894A895809160008861809369
:100950006000109260000FBEE0E0F8E3099511E03E
:10096000A0E0B1E0EEEBF5E602C005900D92A23BEF
:10097000B107D9F724E0A2EBB1E001C01D92AC3A77
:10098000B207E1F70E94600E0C94DD320C94000077
:100990008F929F92AF92BF92CF92DF92EF92FF928F
:1009A0000F931F93CF93DF93CDB7DEB729970FB681
:1009B000F894DEBF0FBECDBFFC0180819181238101
:1009C0003481232B31F09F3F31F491E08F3F19F4B4
:1009D00003C091E001C090E090FF02C00C944D0E66
:1009E0007F0185E0DE01119601900D928A95E1F775
:1009F000F701228189819A81222349F00E9497255B
:100A0000182F682F89819A810E94D02703C00E94E5
:100A1000A027182F69817A81812F0E941A1C8C01CE
:100A2000F7019281992309F482C0980122513F4530
:100A30002031310508F09DC08FEF93E00E94D23144
:100A4000811180C06EEED62ED00E0BEC11E0DD20B1
:100A500071F00115F4E01F0709F474C0C8010E9489
:100A6000D231811101C0DA940F5F1F4FF0CF1E8287
:100A70001F8218861986AA24AA9468012FEFC21A29
:100A8000D20AC8010E94D2318E831F82882309F4C2
:100A900059C0813009F046C0480132E0830E911CF4
:100AA000C6010E94D2318F83882309F44BC09FEF87
:100AB000980F933060F4680183E0C80ED11CC40124
:100AC0000E94D231888781112DC08601D6CF843013
:100AD00011F06401FACFC4010E94D231B82E68012E
:100AE00094E0C90ED11CC80103960E94D231BB20EC
:100AF00049F1882339F1282F30E021503109A29E95
:100B0000A001A39E500D11248B2D90E00197840F1E
:100B1000951F0197D0F2EFE9FFE03197F1F700C0A0
:100B20000000F7CFCE0106960E946E31CECF003185
:100B30003FE5130711F00C94420E81E00E9401285A
:100B40000E947E1C8091FA03877011F40C944D0E64
:100B5000F7018281882311F40C944D0E80917E025E
:100B600082FF02C00C944D0E82E00E94AE240C94D1
:100B70004D0E0031FFE51F0711F481E005C0013182
:100B80002FE5120721F482E00E940D28D9CF0E3AFA
:100B9000FCE51F0708F067C10E392CE5120790F03D
:100BA000992381F20E598091580200FB87F98093B6
:100BB00058020695077080915902887F082B009390
:100BC0005902C0CF00393CE5130708F0ADC0033827
:100BD0008CE5180770F0992309F4B4CF0958802FD9
:100BE0008295807F009157020F70082B0093570267
:100BF000A9CF0138ECE51E0708F06CC00737FCE50B
:100C00001F0750F0992309F49DCF0757802F8F704D
:100C100000915702007FE9CF0F322CE5120708F44C
:100C20003EC220915802822F881F8827881F40913A
:100C300059024770440F482B822F8F7751EDC52EF4
:100C4000C00ED12C992351F190915702192F15956F
:100C50001595159515951F529F702CE0929F100DBC
:100C60001124100F212F2F774069E091B102F091EC
:100C7000B202082F63E070E081EB92E00995F60183
:100C8000E854FE4FDF01A85BBF4F8C918F5F8C93C0
:100C900080818F3F09F056CF108354CFF601E8547E
:100CA000FE4F6F012081E85BFF4F90819150908350
:100CB000911148CF2F774068E091B102F091B202D4
:100CC000082F63E070E081EB92E009958FEFF60169
:100CD000808338CF01383CE5130759F4992309F490
:100CE00031CF20915702822F8F7009F42BCF815F73
:100CF00013C002388CE5180709F0D1C1992309F413
:100D000021CF20915702822F8F70482F50E0493019
:100D100051050CF017CF8F5F982F9F70822F807F27
:100D2000892B809357020ECF0C39ECE51E0708F093
:100D300058C00239FCE51F0788F0992309F402CF57
:100D400002598EE0089F002D1124802F8F7700918B
:100D500058020078082B00935802F4CE00392CE595
:100D60001207A1F4992309F4EDCE20915702822FA6
:100D700085958595859585958B3F0CF4E3CE815FB0
:100D8000982F9295907F822F8F70CACF01393CE5C2
:100D9000130709F084C1992309F4D4CE2091570296
:100DA000822F859585958595859586300CF0CACEE0
:100DB00091E0980F9295907F95959595959595953D
:100DC000392F3295307F2F70232B2093570218161E
:100DD0000CF0B8CE97FFB6CE8295807F922F9F7091
:100DE0009FCF0C398CE51807F9F4992309F4AACEA2
:100DF00090915802892F8F77282F30E021153105E7
:100E000009F4A0CE90788F3719F4892F856706C032
:100E10002D30310534F08D508F77892B8093580217
:100E200091CE909358028ECE0D39ECE51E0709F055
:100E300036C1992309F486CE20915802822F8F77EC
:100E4000482F50E04F37510509F47CCE4337510508
:100E500034F4835F982F9F77822F8078DECF2F67BF
:100E6000209358026FCE043BFCE51F0799F49923A9
:100E700011F04FE701C040E090915802991F992767
:100E8000991F809159028770880F63E4892B0E9413
:100E9000B11C58CE053B2CE5120708F04CC0003BB6
:100EA0003CE5130779F4992309F44CCE909158024C
:100EB000991F9927991F809159028770880F40E0E8
:100EC0006BE7E4CF013B8CE5180708F05AC00E3AF7
:100ED000ECE51E0789F4992309F434CE30915802C9
:100EE000932F991F9927991F20915902822F87705C
:100EF000880F892B815F15C00F3AFCE51F0709F0A9
:100F0000CEC0992309F41ECE30915802932F991F19
:100F10009927991F20915902822F8770880F892B5A
:100F20008F5F982F9F7080FB37F93093580296950A
:100F3000822F887F22C0073BFCE51F0709F451C0C0
:100F400008F46DC0093BECE51E0709F479C008F010
:100F500091C0992309F4F6CD20915902822F8695EC
:100F6000869586958F7009F4EDCD815F8F70982FEF
:100F7000990F990F990F822F8778892B80935902A7
:100F8000E1CD8091580220915902023B3CE51307C4
:100F900069F4992311F04FE701C040E0881F8827CA
:100FA000881F2770220F61E4822B71CF033B1C4501
:100FB00060F4992311F04FE701C040E0881F8827B3
:100FC000881F2770220F60E4EFCF992311F04FE7BD
:100FD00001C040E0881F8827881F2770220F62E425
:100FE000E3CF992309F4AECD80915902282F26959D
:100FF000269526952F7091E0920F9F70990F990F6B
:10100000990F8778892B80935902982F987709F048
:1010100099CD220F220F220F8778822BAFCF053B6D
:101020003CE5130709F423CF063B8CE51807B9F517
:10103000992311F081E001C08FEF8093560282CD99
:10104000992361F090915802991F9927991F8091D7
:1010500059028770880F60E070EE1DC090915802B1
:10106000991F9927991F809159028770880F60E016
:1010700070E011C00A3B2CE5120789F4992371F343
:1010800090915802991F9927991F80915902877052
:10109000880F6FEF7FE1892B0E94891C53CD992324
:1010A00069F0C801815E9C45059740F46FE1600FCF
:1010B000609348028CE090E00E94E63117FFB2C0D6
:1010C000F7018281882309F4ADC00E948B1B8695AD
:1010D00081708093B6010E948B1B81708093B50153
:1010E00080914802813039F48091B601882319F04B
:1010F00089E30E9401298091FD038093B40110923D
:10110000FD0380914802813071F048F08230C1F0D7
:10111000843049F586EE0E94012988E122C082EEE2
:101120000E94892820C083E00E943C2888E10E9418
:10113000892888E10E94572883E00E94312813C043
:101140008091B501811103C083E50E94012982EEDF
:101150000E9489288FE39CE90197F1F700C0000005
:1011600087E50E940129EFE3FCE93197F1F700C020
:1011700000005801E894B7F82CE0C22ED12C3AE0D8
:10118000832E912CC5010C2C02C0969587950A944C
:10119000E2F78F7090914802923069F48A3038F407
:1011A00090E00996B4010E943C32875A01C08650F3
:1011B0000E94012909C096EF980F963010F0805DCB
:1011C00001C0895A0E940831F4E0CF1AD1082CEFEF
:1011D000C2162FEFD206B1F680914802813059F045
:1011E00030F0823089F08430C9F488E215C082EE94
:1011F0000E94572813C08CE20E9401298091B601F9
:10120000882361F089E308C082EE0E94572880910C
:10121000B501811103C083E50E9401298091B401C9
:101220008093FD03033F3CE5130741F190F4083D33
:101230009CE51907E9F0093DECE51E0789F1073D3A
:10124000FCE51F07B1F506E221EE41EE67ED7CE516
:101250002CC0053F2CE51207E9F0B0F0063F8CE505
:10126000180739F507E225EE46EE66EF7CE51DC06E
:1012700007E225EE45EE68ED7CE517C006E221EEBB
:1012800040EE63EF7CE511C007E225EE44EE64EF2B
:101290007CE50BC006E221EE42EE65EF7CE505C081
:1012A00008E221E045EE69ED7CE5C7010E94971B4D
:1012B00049CCF7018281882309F445C1109271025B
:1012C0000330FDE51F0758F40A3F2CE5120760F4D0
:1012D000C80182509C45449708F01FC105C00136E3
:1012E0003DE5130709F019C10E94B92390937E02CE
:1012F00080937D0200318CE5180709F4CAC008F01C
:1013000041C00830ECE51E0709F4A4C0F0F4043035
:101310002CE5120709F48CC068F402308CE518073C
:1013200009F482C003301C4509F0E7C080917D02BA
:101330008260E1C00630ECE51E0709F483C008F0C6
:1013400085C080917D028860D6C00C302CE51207E4
:1013500009F490C068F40A308CE5180709F47EC0DF
:1013600008F084C00E941C2880917D028068C3C060
:101370000E30ECE51E0709F481C008F086C08091AC
:101380007D0294C00C3F2CE5120709F47BC038F5B0
:1013900004318CE5180709F49AC058F40231ECE5E1
:1013A0001E0709F47AC008F07EC080917D028F7B11
:1013B000A2C00A3F2CE51207F1F108F03FC0053149
:1013C0001C4509F09AC080917D0282FB222720F9FA
:1013D00091E0922790FB82F990FB83F98CC0011574
:1013E0009DE5190709F467C050F480917E020E3F15
:1013F000FCE51F07C1F108F05BC08D7F65C00230BE
:101400003DE5130709F471C008F46DC001361D45B0
:1014100009F073C080917D0284FB222720F991E0BE
:10142000922790FB84F967C080917D02816063C040
:1014300080917D0216C080917E0216C080917E024E
:10144000826042C080917D02806155C080917D02A2
:10145000806251C080917D0280644DC080917D0288
:101460008860846048C0826081602EC080917D0267
:101470008E7F41C080917D028D7F3DC080917D0235
:10148000877F39C080917E0214C080917D028F7E5B
:1014900032C080917D028F7D2EC00E941C288091D9
:1014A0007D028F7728C080917D02877F8B7F23C04C
:1014B0008D7F8E7F09C080917E02982F90959170CC
:1014C0008E7F892B90FB81F980937E0216C00E944B
:1014D0001C2880917D0287FB222720F991E092272A
:1014E00090FB87F908C061E001C060E08EE090E009
:1014F0000E94E63102C080937D0260917D021091CE
:101500007E0284E090E00E94E631612F82E290E06A
:101510000E94E6310E941C2815CB8091FD03063104
:101520003CE5130709F58A7A91E009F490E090937D
:10153000B701882311F065E301C069E28FE993E008
:101540000E942A1B0EC006311C4509F026C180915D
:10155000B701882309F49FC365E38FE993E00E94F4
:10156000021B0E945124EECA82720C3CECE51E075D
:1015700009F4C2C008F045C0063C2CE5120709F486
:10158000A7C0D8F4033C9CE5190709F497C030F4D0
:10159000023CFCE51F0709F46CC0CEC0043C2CE5FE
:1015A000120709F490C0053C3CE5130709F0C4C0DC
:1015B00044E65DE26DE67DE2A3C0093C9CE51907C7
:1015C00009F490C078F4073CFCE51F0709F485C0D6
:1015D000083C2CE5120709F0AFC048E55DE26CE479
:1015E0007DE28EC00A3C3CE5130709F480C00B3C49
:1015F0009CE5190709F0A0C042EA5DE263EB7DE2D9
:101600007FC0013DECE51E0709F486C0A0F40E3C46
:101610002CE5120709F47AC008F475C00F3C8CE57C
:10162000180709F476C0003D9CE5190709F084C04D
:101630006EE089E079C0043DECE51E0709F472C054
:1016400068F4023D2CE5120709F469C0033D3CE54E
:10165000130709F071C061E088E16BC0053D8CE5BE
:10166000180709F464C00D359DE5190709F46ACA25
:1016700063C080919A0480FF1BC08E7F80939A0480
:1016800060919A0470919B0480919C0490919D04B8
:101690000E94902D10921E04EFEFF0E722E0E1503F
:1016A000F0402040E1F700C000000E941C2A4ACA16
:1016B000816080939A0461E086953BC04FEF5DE2C4
:1016C00068E07EE21DC048E05EE26FEF7DE218C098
:1016D0004DE65DE264E67DE213C04CE45DE268E560
:1016E0007DE20EC044E35DE260E47DE209C040E4D7
:1016F0005DE264E37DE204C043EB5DE262EA7DE229
:101700000E94002A1FCA61E081E013C065E082E008
:101710000BC068E086E008C064E18FE005C067E1C7
:1017200085E102C062E289E10E94EE290BCA61E014
:1017300083E20E94C42D06CA0A353DE5130741F134
:1017400050F401159CE51907A9F00E3D1C4529F53B
:101750000E94D523F7C90B35FDE51F07D9F00C35DD
:101760001D45D9F480917E0282FB882780F991E0A3
:10177000892711C00E941C283FEF84E39CE0315070
:1017800080409040E1F700C000000E94871ADAC94B
:1017900081E001C080E00E94CB24F70182810081BA
:1017A0001181882349F0C8010E949725D82E682FFF
:1017B000C8010E94D02704C0C8010E94A027D82ECB
:1017C000B8018D2D0E941A1C0E941F22C82E192FAD
:1017D000A82EF7010281D580D2949FE0D922809172
:1017E000FA038770B9F00023A9F0812F807F80343D
:1017F00021F080E28C0D883068F080917E0282FDBD
:1018000009C082E00E94AE248091FA038770BB2455
:10181000B3948111B12C912E92948FE09822892D4E
:1018200090E08C30910508F00DC2FC01EA5AFF4FA0
:101830000C947232812F807F1F70882311F01295D3
:10184000107F0023B9F0112309F4E9C180E28C0D67
:10185000883010F0A11006C08091FD03182B109362
:10186000FD0305C08091FC03182B1093FC030E941C
:101870005124D5C18C2D0E945728112309F4E2C1AF
:1018800080E28C0D883088F1AA2079F11095809142
:10189000FC0318231093FC032BC0812F807F1F7043
:1018A000803211F01295107F8C2DAA2029F0F1E0E2
:1018B000AF1609F45EC069C080917E0282FF1BC032
:1018C000002369F0112339F08091FD03182B109348
:1018D000FD030E94512480E00E948928B3C180E06A
:1018E0000E945728112309F4ADC1812F0E944A2478
:1018F0000E945124A7C1002331F1DD20F1F021E045
:10190000D2120FC080910004182B181709F49AC145
:101910000E94CD1A9093FF038093FE03109300045E
:1019200091C135E0D31209C00E943F248091F70392
:101930001817A9F11093F70332C080910004812B8E
:101940000E944D287FC1DD2051F081E0D8120DC0EA
:101950008091FD03812309F475C10E94FE240E9439
:101960003F24812F0E9446286DC195E0D912F7CF00
:1019700069C1002329F0E5E0ED1508F463C10FC04B
:10198000F4E0FD1508F45EC1ECCF002351F0DD203A
:1019900031F0F701858180FF42C18F708583812FEF
:1019A000CFCFDD20F1F2893309F049C1FFEF27EEF7
:1019B00033E0F15020403040E1F73FC1812F869560
:1019C0008695837019F0813061F03CC1002321F0CD
:1019D0008C2D912F937002C080E090E00E94751BC7
:1019E00037C1002321F08C2D912F937002C080E02D
:1019F00090E00E945F1B2CC18C2D002319F00E94E7
:101A0000C62F02C00E94FF2E0E94D52E21C1812F19
:101A10008370A9F501111AC14C2D42954695477066
:101A2000440F440F8C2D8F7090E09C01042E01C058
:101A3000220F0A94EAF7C4FE08C08FE090E001C0CC
:101A4000880F4A95EAF7809501C080E016951695B3
:101A50001370123069F088F490910104113019F07C
:101A6000822B892302C0922B892B0E941828EEC05A
:101A7000822B909101048927F8CF822BF6CF002387
:101A800019F0812F817001C08695882309F4DEC08A
:101A90004C2D429546954770440F440F8C2D8F7006
:101AA00090E09C01042E01C0220F0A94EAF7C4FEC4
:101AB00008C08FE090E001C0880F4A95EAF7809552
:101AC00001C080E0169516951370123059F078F425
:101AD00090919E03113019F0822B892309C0922B1B
:101AE000892B06C0822B90919E03892701C0822BEF
:101AF0000E94FD27ABC01F70002339F0812F0E9488
:101B00000D288C2D0E944D28A1C08C2D0E944628A6
:101B1000812F0E9401289AC08C2D92EFA91689F17D
:101B20009A1538F0E0EFAE1659F0F1EFAF1611F15B
:101B300071C023EFA21661F134EFA316B9F06AC0A9
:101B4000002379F084E08D1508F47CC01F7181E0DA
:101B500090E001C0880F1A95EAF790919E038927BB
:101B600021C095E09D1508F46DC0F0CF80917E02F4
:101B700082FF1BC0002339F0812F8F710E940D2836
:101B800061C00023C9F3812F8F710E9401285AC0C0
:101B9000002339F01F7181E001C0880F1A95EAF720
:101BA00001C080E00E94FD274DC00023D9F0809144
:101BB000F7030E944A248091FA038770843039F435
:101BC0000E94A724812F8F710E94012859C0E4E050
:101BD000ED1508F455C01F71812F0E940D2863E098
:101BE000812F11C09091FD038091F703892B809381
:101BF000FD03F4E0FD1550F40E94A7240E94FE248A
:101C000064E0812F8F710E94E8243AC081E00E9435
:101C1000AE2436C0002329F0DD2009F4ADCF8C2D91
:101C20005BCEDD2009F4AFCF893349F42FEF37EED7
:101C300083E0215030408040E1F700C000008C2D4F
:101C40000E94572888EF890D843010F40E948B1B66
:101C5000BB2019F18091FA0380FD1FC0F7011282A9
:101C60008595859585950E940D28C7010E94C80419
:101C70008091FA038595859585950E9401280DC070
:101C8000B12CE4CF01318FE5180711F00C94C70592
:101C900082E00C949E0569E260CC29960FB6F89418
:101CA000DEBF0FBECDBFDF91CF911F910F91FF908F
:101CB000EF90DF90CF90BF90AF909F908F9008955E
:101CC000CF93DF93CDB7DEB7E2970FB6F894DEBFC0
:101CD0000FBECDBF84E0809357028FE780935802F8
:101CE000809159028078806480935902E8EBF1E09A
:101CF0008FEF8193DF01A95BBF4F1C9222E0E030A0
:101D0000F207B9F7109255021092560210925C0237
:101D100010925B021092D6021092D8021092D70253
:101D200080EC80939B0389ED92E090939D038093D8
:101D30009C0310929A03109299031092B60210928B
:101D4000B5021092B8021092B7021092BA02109225
:101D5000B9021092BC021092BB021092BE02109205
:101D6000BD021092C0021092BF021092C2021092E5
:101D7000C1021092C4021092C3021092C6021092C5
:101D8000C5021092C8021092C7021092CA021092A5
:101D9000C9021092CC021092CB021092D002109283
:101DA000CF028AE29AE19093B2028093B10282E973
:101DB00099E19093D2028093D10289E596E19093C4
:101DC000CE028093CD0288E596E19093B402809391
:101DD000B30284B7877F84BF0FB6F894A89580912B
:101DE0006000886180936000109260000FBE90E0F8
:101DF00080E80FB6F89480936100909361000FBE65
:101E000085B7806885BF85B7806885BF84E091E22B
:101E10009093B3018093B2010E9430170E94D617AD
:101E20008091E20084608093E20078948091A70220
:101E30008823A1F01091E9001F709091EC00892F88
:101E4000817090FD80E8182B1092E9008091E800E5
:101E500083FD0E94181E1F701093E90082E084BD6C
:101E600093E095BD9AEF97BD80936E000E94D529AF
:101E7000811102C00E94C62901E311E0D8018D91B1
:101E80008D018F3F11F00E944921B1E007331B07FC
:101E9000A9F707E311E0F80181918F018F3F11F05D
:101EA0000E944921F1E00E331F07A9F786E0E7E61B
:101EB000F2E0DF01282F1D922A95E9F7ECE4F2E029
:101EC000DF011D928A95E9F70E94CA23811102C0A1
:101ED0000E94D52382E090E00E94D23180935E027E
:101EE0000E94B92390937E0280937D020E9460211C
:101EF000BFEFE6E7F1E0B150E040F040E1F700C0AD
:101F000000000E9460218091670280FF08C06FEF8F
:101F10007FEF80E090E00E9404320E94871A83E005
:101F200090E00E94D2310E9418288CE090E00E943C
:101F3000D23190E0A0E0B0E0809348029093490253
:101F4000A0934A02B0934B0280915202811133C098
:101F50000E94CA23811104C00E94D5230E94122E20
:101F600088E090E00E94DA3160939A0470939B04B9
:101F700080939C0490939D046E7F71F40E94122EB6
:101F800088E090E00E94DA3160939A0470939B0499
:101F900080939C0490939D040E94762D10921E04C1
:101FA00080919A0480FF04C060E086950E94C42D51
:101FB00081E08093520280E091E0909375028093DB
:101FC000740248E1642E712C442443948091A7024A
:101FD000853009F071C000E112E18091A7028530DF
:101FE00009F055C08091A702843009F43FC01092D7
:101FF0001E0480915402811117C021E020935402E5
:1020000080919A04982F9170909353028E7F8093C1
:102010009A043FEF40E762E0315040406040E1F712
:1020200000C000000E941C2A1092780270E40FB6D3
:10203000F894A895609260000FBE7093600083B71B
:10204000817F846083BF83B7816083BF78948895E4
:1020500083B78E7F83BF0FB6F894A89580916000F8
:10206000886180936000109260000FBE8091A6028C
:10207000882309F4B2CF0E946021E7E6F2E0819163
:102080008111E9C582E0ED36F807C9F7A6CF0E94B5
:102090001C280E948B1B10925402809153028823AB
:1020A00049F080919A04816080939A0460E086955B
:1020B0000E94C42D0E94062A0E946021882359F0A4
:1020C0008FB7F8944091790250917A0260917B0227
:1020D00070917C028FBFE7E6F2E0AFE5B2E000E08E
:1020E00010E0302F21919D91922721F180E0FF2473
:1020F000F3944F2D4923D1F089A73AA72F2181E0EE
:1021000009F480E08BA70E94CD1A8160782F9DA7EB
:102110008CA749A55AA56BA58DA50E942E30F80164
:10212000E15AFD4F8081F826F08219C08F5FFF0CC5
:102130008730F9F60F5F1F4F0630110591F68FEFCC
:102140008EA78FA718AA0E94CD1A8160782F9AAB0C
:1021500089AB4EA55FA568A98AA90E942E308091FF
:102160001E04882309F493C080911D04E0919A0411
:10217000E695E81BE0931904823059F4F0E0E25E42
:10218000FE4FE4910E2F10E030E3E32E39E2F32E00
:1021900059C0863059F4F0E0E55EFE4FE4910E2F11
:1021A00010E020E2E22E29E2F22E4CC0893061F4E8
:1021B000E695F0E0E85EFE4FE4910E2F10E094E12A
:1021C000E92E9CE2F92E3EC08F3061F4E695F0E0F6
:1021D000EB5EFE4FE4910E2F10E084EAE82E8BE2D6
:1021E000F82E30C0853159F4F0E0EE5EFE4FE491F8
:1021F0000E2F10E0B3E5EB2EBBE2FB2E23C088319F
:10220000A1F0833249F4E0E1F1E005911491A2E5F7
:10221000EA2EACE2FA2E16C0843271F000ED17E01F
:10222000FFE1EF2EF9E2FF2E0DC008E210E0E7EC2F
:10223000EE2EEAE2FE2E06C004EF11E07AE8E72E69
:102240007AE2F72E80911A04882361F010921A0422
:102250000E94CD1A909318048093170410921C04C6
:1022600010921B040E94CD1AE0911704F0911804FB
:102270008E1B9F0B8F3F9F4750F40E0F1F1F109315
:1022800018040093170487E194E0F701099586E0AC
:10229000E6EAF4E08E010F5F1F4FD80101900D9226
:1022A0008A95E1F7C090A804D090A904E090AA0410
:1022B000F090AB041092A8041092A9041092AA0402
:1022C0001092AB04C11003C0DD2009F44FC080910F
:1022D000A4049091A5040E94BE1A9C019091A004B0
:1022E000992309F4D7C42333310508F43FC09F3F35
:1022F00019F09F5F9093A004CC2061F00E94A62F5C
:102300001C1414F491E001C09FEF899F802D1124CB
:102310008093A804DD2061F00E94A62F1D1414F400
:1023200091E001C09FEF899F802D11248093A90423
:102330003091A8043323D1F02091A9042223B1F0D5
:1023400045EB3403C0011124992319F09093A8049C
:1023500002C04092A80465EB2603C0011124992312
:1023600019F09093A90402C04092A904E11003C09F
:10237000FF2009F44FC08091A2049091A3040E9411
:10238000BE1A9C0190919F04992309F488C42536B4
:10239000310508F43FC09F3F19F09F5F90939F0461
:1023A000EE2061F00E94842F1E1414F491E001C00D
:1023B0009FEF899F802D11248093AA04FF2061F054
:1023C0000E94842F1F1414F491E001C09FEF899F95
:1023D000802D11248093AB043091AA043323D1F0D3
:1023E0002091AB042223B1F075EB3703C001112417
:1023F000992319F09093AA0402C04092AA0435EBE5
:102400002303C0011124992319F09093AB0402C057
:102410004092AB048091A80481110BC08091A90463
:10242000811107C08091AA04811103C08091AB047F
:1024300081110E94D52ECB82DC82ED82FE8286E065
:10244000F801A6EAB4E001900D928A95E1F7E091D7
:10245000D102F091D202309719F081EB92E0099508
:102460002FB7F894E0909A0390919903E91618F425
:1024700080919B03E80EE91A2FBFC12CD12CF12CBF
:1024800043E0842E912CAA24A394B12C64E0262E40
:10249000CE14DF0408F0B4C08091990390E06091FD
:1024A0009B0370E00E943C32E0919C03F0919D03FD
:1024B000E80FF91F50803090D60247EF451560F4C1
:1024C0004092D60220E040E0652D81E090E00E943D
:1024D000C41C3092D60282C057FE4FC064E036164C
:1024E00031F05092D302B092D802A092D702852D3B
:1024F0000E946C19813031F080F0823059F08330C5
:1025000049F034C08093D60220E040E0652D81E0A0
:1025100090E027C08093D60261C070EF5716E1F0BB
:1025200087EF581223C02091D7023091D802C901F9
:10253000B4010E942832FC01EF54FD4F52A2C901A0
:1025400001969093D8028093D7022091D5024091B2
:10255000D4026091D30205C02092D6025092D302D9
:1025600033C00E94C41C1092D60238C01092D6020A
:102570001092D8021092D70231C0332079F1209105
:10258000D7023091D802C901B4010E942832AC01AF
:10259000FC01EF54FD4F52A2C90101969093D8025D
:1025A0008093D70241305105A1F042305105B1F47A
:1025B0002091D5024091D4026091D3020E94C41CA4
:1025C0008091D602843051F0B092D802A092D70206
:1025D00005C0A2E03A1202C020E0ECCF2FB7F89479
:1025E0008091990390E0019660919B0370E00E94B6
:1025F0003C32809399032FBFBFEFCB1ADB0A48CF41
:1026000080915B0290915C020E94BE1A2091590257
:102610002695269526952F7030E08217930798F11E
:102620000E94CD1A90935C0280935B0280915602C7
:10263000882349F190915802991F9927991F8091F9
:1026400059028770880F4091550261E0892B0E94E2
:10265000B11C909156028091550297FF0FC0282F10
:1026600030E0E92FFF27E1950CF4F0952E173F0796
:102670002CF4109255021092560205C0890F87FD66
:102680008FE7809355020E948B1B90915D02891702
:1026900021F00E948B1B80935D028091A702843001
:1026A000F1F480910F018F708093E9009091E80020
:1026B00090FF15C09091A702943089F48093E900AF
:1026C0002091F3008091F20090E0922B892B39F059
:1026D0008091E8008E778093E8000E944F178091E8
:1026E000A702843009F072CC83E08093E9008091E6
:1026F000E80082FF6BCC8091E80085FF09C040E0D4
:1027000050E060E270E0C8010E94EC1D91E001C061
:1027100090E08091E8008B778093E800992309F49A
:1027200055CCE0906D02F0906E028981E114F104C5
:1027300061F08E3F09F067C28A81833008F4C9C115
:102740008550833008F05FC2C4C1893009F4F3C0FA
:10275000D0F4843009F477C050F48230A1F108F04D
:1027600063C0813009F04DC21A8289E037C28630D9
:1027700009F47BC008F46EC0873009F479C0883052
:1027800009F4B8C03EC2803109F43EC180F48D30F6
:1027900009F4DCC028F48C3009F033C280E138C180
:1027A0008E3009F4D7C08F3009F4FFC02AC28231BD
:1027B00009F430C108F42BC1833109F455C18E3FAF
:1027C00009F487C11EC28A81823009F45AC283305B
:1027D00089F0813009F015C22FB7F8948091790201
:1027E00090917A02A0917B02B0917C022FBFBB83B3
:1027F000AC832EC080910C0190910D01892B09F4BE
:1028000002C2809167028B83809168028C838091E1
:1028100069028D8380916A028E8380916B028F831F
:1028200080916C028887EFC18A81823009F0E9C10A
:102830006B817C818D819E810E94783286E290E05E
:102840000E94E631E0C14C816B818A810E947A2925
:102850009D831EC22D813E813227232732274C8142
:102860006B818A810E944429CEC10E942D1CCBC15C
:102870008A818138B1F050F4803809F0C4C120E079
:102880004B8160919C0480919B0431C0823859F146
:10289000833809F0B8C120E040919D046C818B81A0
:1028A00026C060E08B810E94C42D9B8180919A0498
:1028B000911111C08E7F80939A0410921E04FFEF35
:1028C00020E732E0F15020403040E1F700C0000046
:1028D0000E941C2A98C1816080939A0460E08695CA
:1028E0000E94C42D90C18B8180939E048CC10E9454
:1028F000922C89C18A81813899F030F4803809F0AE
:1029000082C180919D046AC1823891F0833809F0B8
:102910007AC180919B048B8380919C048C8373C1CA
:1029200080919A0480FF02C0869558C180E056C10C
:1029300080919E0453C160919A0470919B04809190
:102940009C0490919D040E94902D5DC182E08A8339
:1029500085E344C1EA80FB80FE24EF24FE24AC80A2
:10296000B12C4DE1A416B10408F04DC16801C701B6
:1029700085539E4F9601201B310B2A153B0508F00D
:1029800042C165E3E61662E0F60630F40E94D231F9
:10299000D60114968C9302C0F6011482FFEFEF1A51
:1029A000FF0A2FEFC21AD20AE2CF80910C01909158
:1029B0000D01892B09F427C1EA80FB80FE24EF2456
:1029C000FE24CC80D12C3DE1C316D10408F01BC1FC
:1029D0005801C70185539E4F9501201B310B2C15C3
:1029E0003D0508F010C145E3E41642E0F40628F482
:1029F000D50114966C910E94E631BFEFEB1AFB0AE9
:102A0000EFEFAE1ABE0AE5CF0E940A1CFCC085E0BB
:102A10008A83F9C0EA80FB80FE24EF24FE24AC8088
:102A2000B12CFDE1AF16B10408F0EDC06801C7019B
:102A300087969601201B310B2A153B0508F0E3C051
:102A400024EAE21621E0F20630F40E94D231D601E7
:102A500014968C9302C0F6011482FFEFEF1AFF0A5E
:102A60002FEFC21AD20AE3CFEA80FB80FE24EF24C4
:102A7000FE24CC80D12C3DE1C316D10408F0C3C0A4
:102A800044EAE41641E0F40608F0BDC084EA91E0AF
:102A90008E199F098C159D0508F4B5C05801C70112
:102AA00087969501201B310B2C153D0508F0ABC016
:102AB00064EAE61661E0F60628F4D50114966C91F6
:102AC0000E94E631BFEFEB1AFB0AEFEFAE1ABE0A27
:102AD000E6CFEA818E2F90E08E30910508F093C00A
:102AE000FC01EE59FF4F0C94723288E0E9E2F1E00C
:102AF000DE01919601900D928A95E1F780E2D8016E
:102B00001D928A95E9F784E0898388E0FE01B196F9
:102B1000DE01159601900D928A95E1F774C088E167
:102B200089834A821B821C826EC08C8190E0982F20
:102B300088272B81820F911D092E000CAA0BBB0B3D
:102B400035E0880F991FAA1FBB1F3A95D1F7AC013A
:102B5000BD01405E5F4F6F4F7F4F481759076A07AF
:102B60007B0708F450C08831E1E09E07A105B1055C
:102B700008F049C04931F1E05F076105710520F0B7
:102B800048E151E060E070E0481B590BBC016E5D0C
:102B90007E4FC8010E94C93136C040E250E06FEF5D
:102BA00070E0C8010E94D63280910C018983EA82CC
:102BB0002AC081E090E090936E0280936D0282E3E0
:102BC00090E090936602809365020E94CD1A1BC02C
:102BD00080910C018983EA82809165028B8313C006
:102BE00040E250E06FEF70E0C8010E94D6320BC0A7
:102BF0008B81811108C080E2D8011D928A95E9F786
:102C000002C08FEF89838091A702843009F0DEC96A
:102C10008091E9008F702091EC00922F917020FD3F
:102C200090E8F92EF82A82E08093E9008091E8008C
:102C300080FF0CC040E050E060E270E0C8010E94FC
:102C4000C01D8091E8008E778093E8008F2D8F70F3
:102C50008093E900BBC909BD19BD09B400FEFDCFD1
:102C60008091D8008F7D8093D8008091E0008260B1
:102C70008093E0008091E00081FDFCCF0E941C2841
:102C8000ACC986E290E00E94D2311B821C821D8278
:102C90008E83B9CF2D32314008F02BCB67CB2D324C
:102CA000314008F07ACBB6CB089580918402089524
:102CB0000895089580937F0270938102609380024B
:102CC0008091A7028430F9F48093E9008FEF90910E
:102CD000E800815095FD06C095ED9A95F1F700004A
:102CE0008111F5CF8091E80085FF0DC040E050E0F4
:102CF00063E070E08FE792E00E94C01D8091E800E1
:102D00008E778093E8000895BC0184E00C945A16F5
:102D1000BC0183E00C945A1624E02093E9002FEFC5
:102D20003091E800215035FD06C035ED3A95F1F7B8
:102D300000002111F5CF2091E80025FF0BC040E0F5
:102D400050E066E070E00E94C01D8091E8008E7740
:102D50008093E8000895CF93DF9320911A012223F6
:102D600039F020917D0227FF03C060E224E002C019
:102D700068E021E02093E9002FEF3091E800215036
:102D800035FD06C035ED3A95F1F700002111F5CF7C
:102D90002091E80025FF1DC0EC0180911A018111EE
:102DA00005C040E050E068E070E003C070E040E043
:102DB00050E0CE010E94C01D8091E8008E77809384
:102DC000E80080E2FE01A5E8B2E001900D928A954C
:102DD000E1F7DF91CF9108951F920F920FB60F92F6
:102DE00011242F933F934F935F936F937F938F9310
:102DF0009F93AF93BF93CF93DF93EF93FF93C091D4
:102E0000E900CF708091EC00D82FD17080FDD0E820
:102E10001092E9008091F000877F8093F000789411
:102E20000E94181E1092E9008091F0008860809343
:102E3000F000CD2BCF70C093E900FF91EF91DF91AF
:102E4000CF91BF91AF919F918F917F916F915F9142
:102E50004F913F912F910F900FBE0F901F9018959B
:102E6000E8EDF0E080818E7F80831092E200109286
:102E7000DA001092E100A0EEB0E08C9181608C93BA
:102E800080818F77808319BCA7EDB0E08C918E7F15
:102E90008C9380818F7E808310928202089520918E
:102EA000E4003091E50095E64091EC00842F8170BC
:102EB00040FF23C08091E80080FD1DC08091A702E3
:102EC000882399F0853099F08091EB0085FD11C041
:102ED0004091E4005091E5002417350729F3915003
:102EE00011F09A01E1CF84E0089582E0089583E033
:102EF000089581E0089580E008954091E80042FF40
:102F0000DDCF08958091A90287FF11C08091E8006C
:102F100082FD05C08091A7028111F8CF11C0809178
:102F2000E8008B770BC08091A702882349F080913D
:102F3000E80080FFF8CF8091E8008E778093E8006A
:102F40000895982F973068F59093E900981739F015
:102F50007091EC002091ED005091F00003C0242FFF
:102F6000762F50E021FD02C09F5FECCF3091EB0047
:102F70003E7F3093EB003091ED003D7F3093ED00CC
:102F80003091EB0031603093EB007093EC002093B4
:102F9000ED005093F0002091EE0027FDE5CF80E09A
:102FA00008958F708093E90081E00895CF92DF92B9
:102FB000EF92FF920F931F93CF93DF93C8EDD0E072
:102FC00088818F7E8883E7EDF0E080818160808357
:102FD00084E082BF81E08093820288818E7F888333
:102FE00002EE10E0F80110821092DA0081EEC82E95
:102FF000D12CF601108288818F7788838881806840
:10300000888388818F7D888319BC1092A7021092D3
:10301000A8021092A6021092A50290EEE92EF12CC1
:10302000F70180818B7F808388818160888342E083
:1030300060E080E00E94A117F60180818E7F80838E
:10304000F801808181608083808188608083F701BE
:1030500080818E7F8083888180618883DF91CF919A
:103060001F910F91FF90EF90DF90CF9008951F92E6
:103070000F920FB60F9211242F933F934F935F93AC
:103080006F937F938F939F93AF93BF93EF93FF9330
:103090008091E10082FF09C08091E20082FF05C0BB
:1030A0008091E1008B7F8093E1008091DA0080FFC6
:1030B0002AC08091D80080FF26C08091DA008E7FE0
:1030C0008093DA008091D90080FF18C080E189BD2B
:1030D00082E189BD09B400FEFDCF81E08093A702A3
:1030E0008091820281110FC00E9430170E94D61772
:1030F0008091E20084608093E20005C019BC1092C8
:10310000A702109282028091E10080FF17C0809197
:10311000E20080FF13C08091E2008E7F8093E20086
:103120008091E20080618093E2008091D80080620B
:103130008093D80019BC85E08093A7028091E100BC
:1031400084FF30C08091E20084FF2CC080E189BD03
:1031500082E189BD09B400FEFDCF8091D8008F7D4A
:103160008093D8008091E1008F7E8093E100809170
:10317000E2008F7E8093E2008091E2008160809384
:10318000E2008091A802882311F084E007C08091BA
:10319000E30087FD02C081E001C083E08093A702C5
:1031A0008091A7028091E10083FF27C08091E20017
:1031B00083FF23C08091E100877F8093E10082E05C
:1031C0008093A7021092A8028091E1008E7F8093E5
:1031D000E1008091E2008E7F8093E2008091E20026
:1031E00080618093E20042E060E080E00E94A117ED
:1031F0008091F00088608093F000FF91EF91BF9183
:10320000AF919F918F917F916F915F914F913F917E
:103210002F910F900FBE0F901F9018952091AF0225
:103220003091B0022617370748F06115710539F45F
:103230002091E8002E772093E80001C0B901FC013D
:1032400020E06115710579F18091A7028823F1F1E1
:103250008530F1F18091E80083FD3CC08091E80069
:1032600082FD2EC08091E80080FFEBCF2091F3001B
:103270008091F20090E0922B6115710551F0883039
:10328000910538F421912093F10061507109019664
:10329000F3CF21E0089709F020E08091E8008E77D5
:1032A0008093E800CECF2111CFCF0AC08091A70232
:1032B000882361F0853061F08091E80083FD0AC0C9
:1032C0008091E80082FFF2CF80E0089582E00895C7
:1032D00083E0089581E00895982F907F903BF1F06E
:1032E00038F49039D9F0903AC9F09038C9F416C042
:1032F000903D49F018F4903C31F012C0903E71F0CE
:10330000903F19F00DC082E00895815F8F3040F446
:10331000E82FF0E0E25CFE4F8081089583E008959D
:1033200080E00895BF92CF92DF92EF92FF920F93C9
:103330001F93CF93DF93CDB7DEB727970FB6F894DF
:10334000DEBF0FBECDBF7E0125E0E20EF11C8C0179
:1033500008511F4F8091A702843009F06BC0809103
:1033600014018F708093E9008091E80082FF62C0B1
:103370008091E80085FF5EC040E050E064E070E0CE
:10338000CE0101960E94EC1D8091E80085FD05C0EC
:103390008091E8008B778093E800DA808D2D0E9481
:1033A0006C19282FDD828B818E838C818F83211174
:1033B0000EC08981843041F0873031F0863031F0A1
:1033C000853041F621E003C023E001C022E067011F
:1033D0008C2D8E19821708F0BDCFD601BD906D01DE
:1033E0003FB7F894D8011196EC911197F0E0CF0116
:1033F000019612966C9170E00E943C32D8014C917B
:1034000050E084179507A1F0D80113968D919C91F7
:103410001497E80FF91FB08211968C91119790E0E4
:10342000019612966C9170E00E943C32F801818303
:103430003FBFCECF27960FB6F894DEBF0FBECDBFED
:10344000DF91CF911F910F91FF90EF90DF90CF9080
:10345000BF900895DF92EF92FF920F931F93CF9347
:10346000DF9300D000D0CDB7DEB77B01142FD22E72
:103470004A832B830C83842F0E946C1981111CC0FA
:1034800082E0E816F10471F083E0E816F10421F01F
:10349000EA94EF2881F50BC0073F11F487E00AC0DA
:1034A00084E008C087EFD812FBCF86E003C0173F47
:1034B000B9F785E0898303C012951F701983809145
:1034C000A7028430C1F480910F018F708093E900CE
:1034D00040E050E064E070E0CE0101960E94C01D23
:1034E000811109C08091E80085FD05C08091E80048
:1034F0008E778093E8000F900F900F900F90DF91E0
:10350000CF911F910F91FF90EF90DF90089587E783
:1035100097E790930108809300089AE088E10FB63E
:10352000F894A895809360000FBE90936000FFCF41
:1035300078941F920F920FB60F9211248F939F933E
:10354000AF93BF938091790290917A02A0917B0210
:10355000B0917C020196A11DB11D809379029093D8
:103560007A02A0937B02B0937C02BF91AF919F91AE
:103570008F910F900FBE0F901F9018959C014FB721
:10358000F8948091790290917A02A0917B02B09197
:103590007C024FBF821B930B08952FB7F894809144
:1035A000790290917A02A0917B02B0917C022FBFA8
:1035B00008951F920F920FB60F9211248F939F932D
:1035C000AF93BF9380917802811113C080917902EB
:1035D00090917A02A0917B02B0917C024196A11D4C
:1035E000B11D8093790290937A02A0937B02B093ED
:1035F0007C02BF91AF919F918F910F900FBE0F9062
:103600001F90189520911A012223C9F020917D0264
:1036100027FF15C0262F2695269526952E31C8F40E
:10362000FC01E20FF11D677081E090E001C0880F9E
:103630006A95EAF780959281892382830895FC0137
:1036400006962281621301C012823196E817F907AB
:10365000C1F7089520911A012223C1F020917D0223
:1036600027FF14C0262F2695269526952E3130F556
:10367000FC01E20FF11D677081E090E001C0880F4E
:103680006A95EAF79281892B82830895FC0132962C
:103690002FEF30E04191641789F02F3F19F4411169
:1036A00001C0232F3F5F3630A9F72F3F39F0FC01CF
:1036B000E20FF11D27FDFA95628308950895209188
:1036C0007602309177022817390771F090937702CC
:1036D00080937602E0917402F0917502309721F0A8
:1036E0000084F185E02D09940895209172023091B3
:1036F00073022817390771F0909373028093720256
:10370000E0917402F0917502309721F00680F78104
:10371000E02D09940895E0917402F09175023097BC
:1037200021F00190F081E02D099480E008950F933D
:103730001F93CF93DF93C42FD22FFC018281882364
:10374000C9F0409371020E94CD1A90937002809349
:103750006F0280E28C0F883008F057C0C77081E09C
:1037600001C0880FCA95EAF7DF91CF911F910F91A1
:103770000C944D2880917102481330C080916F02E3
:10378000909170020E94BE1A883C910538F510E2B3
:103790001D0FCD17B9F080E28C0F883040F4C77050
:1037A00081E001C0880FCA95EAF70E9446281830C8
:1037B00028F581E09D2F977001C0880F9A95EAF750
:1037C0000E944D28802F0E9401291830F0F4D770F4
:1037D00081E001C0880FDA95EAF70AC080E28C0F19
:1037E000883098F4C77081E001C0880FCA95EAF765
:1037F000DF91CF911F910F910C944628802FDF917C
:10380000CF911F910F910C940129DF91CF911F91BE
:103810000F910895CF93DF93CBECD1E060E0CE0120
:103820000E94E6312196C11584E0D807B9F7DF91EF
:10383000CF910895462F20916D0230916E02232B77
:1038400049F4853038F4763028F4673018F4672F5F
:103850000C947A2980E090E008958F929F92AF9225
:10386000BF92CF92DF92EF92FF920F931F93CF936D
:10387000DF93C0900C01D0900D0181E090E0909317
:103880000D0180930C01812CE12CF12C912C00E096
:1038900010E0C0E0D0E05701A00EB11EFE01EE0F17
:1038A000FF1FEA0DFB1DE65CFD4F259134914C2F67
:1038B000692D882D0E9444292196C730D10571F7C2
:1038C000025F1F4F939486E09812E3CF84E5E80EE1
:1038D000F11C839485E08812D9CFD0920D01C0925B
:1038E0000C01DF91CF911F910F91FF90EF90DF902E
:1038F000CF90BF90AF909F908F90089580919E033E
:10390000982F9670963011F4886001C0877F0C94D0
:10391000FD270F931F93611590E279073CF4611521
:1039200090EE790734F09B01305E05C02FEF3FE346
:1039300002C020E030E08901000F012F001F110BB1
:1039400011952F77482F4F70406EE091B102F091A2
:10395000B20263E070E081EB92E009951F910F9154
:1039600008950F93042F0F77262F2F778F70482FEE
:10397000406BE091B102F091B20263E070E081EB44
:1039800092E009950F910895CF92DF92EF92FF9206
:103990000F931F93CF93DF9300D01F92CDB7DEB765
:1039A0007C01162FD42EC22E8091D6028430F9F4D9
:1039B000E091CB02F091CC02309709F4B7C0C70177
:1039C000019763E070E00E942832CB01880F991FB5
:1039D000860F971F19834A83CB824E2D481B9E0169
:1039E0002F5F3F4FBC0181EB92E00995ACC082E0B4
:1039F000E816F10409F44FC083E0E816F10431F051
:103A000081E0E816F10409F08DC078C0862F807F30
:103A1000803AE1F050F48038A1F0803909F086C096
:103A2000E091B502F091B60225C0803EA1F0803F42
:103A3000B9F0803B09F07AC0E091B302F091B40292
:103A400019C0E091B702F091B80214C0E091B90238
:103A5000F091BA020FC0E091BB02F091BC020AC023
:103A6000623F09F063C0E091BD02F091BE02309761
:103A700031F45CC0309709F459C0123F21F42C2D69
:103A80004D2D62EF04C02C2D4D2D612F6F7081EBF9
:103A900092E0099558C0862F807F803D51F0803F8D
:103AA00069F0803C09F042C0E091BF02F091C00291
:103AB00015C0E091C102F091C20210C0633F29F429
:103AC000E091C302F091C40206C0613F79F5E09134
:103AD000C502F091C602309739F428C0309731F111
:103AE000812F8D7F813F19F44D2D612F03C04D2D06
:103AF000612F6F7081EB92E0099525C0683F28F037
:103B0000E091C702F091C80206C0663F79F4E091E7
:103B1000C902F091CA02309749F0612F81EB92E01F
:103B2000099511C084E0E816F104D8F4E091CD02C3
:103B3000F091CE02309739F00C2D2D2D412FB70189
:103B400081EB92E00995E091CF02F091D00230979D
:103B500059F00C2D2D2D412FB70181EB92E00995E5
:103B600003C0E12CF12CE2CF0F900F900F90DF916A
:103B7000CF911F910F91FF90EF90DF90CF9008951C
:103B8000EF92FF920F931F93CF93DF937C018B01F2
:103B90000E944F17811119C0E70101151105A1F00D
:103BA0008091E80085FD0AC08091E8008E778093BF
:103BB000E8000E944F17882381F307C08991809302
:103BC000F10001501109E9CF80E0DF91CF911F9101
:103BD0000F91FF90EF900895EF92FF920F931F9334
:103BE000CF93DF937C018B010E944F17811119C085
:103BF000E70101151105A1F08091E80085FD0AC0DB
:103C00008091E8008B778093E8000E944F1788230B
:103C100081F307C08091F100899301501109E9CF28
:103C200080E0DF91CF911F910F91FF90EF90089569
:103C30001F93CF93DF93CDB7DEB7AA970FB6F89453
:103C4000DEBF0FBECDBFE9EAF2E08091F1008193C3
:103C500042E0E13BF407C9F78091AA02833009F4FE
:103C600063C030F4813071F0823009F49DC0B4C07B
:103C70008A3009F489C08B3009F46EC0893009F0AC
:103C8000ABC020C08091A902813A09F0A5C0809103
:103C9000E800877F8093E8008091AD029091AE02AA
:103CA000892B21F460E285E892E003C060E080E0C7
:103CB00090E070E00E940E198091E8008B7780936D
:103CC000E8008AC08091A902813209F085C0809104
:103CD000AD029091AE02009719F0029709F07CC0F6
:103CE0008091E800877F8093E8008091E80082FD62
:103CF00005C08091A7028111F8CF6EC02091F3001A
:103D00008091F20090E0922B029731F48091F100C3
:103D1000813011F0863021F48091F100809384028B
:103D20008091E8008B7754C08091A902813A09F014
:103D300053C08091AD029091AE02892B09F04CC026
:103D40008091E800877F8093E8008091E80080FF01
:103D5000FCCF80911A0137C08091A9028132E1F530
:103D60008091AD029091AE02892BB1F58091E8006F
:103D7000877F8093E8000E9482178091AB02809336
:103D80001A010E941C2828C08091A902813221F5C5
:103D90008091E800877F8093E8000E9482178091DD
:103DA000AC028093830218C08091A902813AA1F4E9
:103DB0008091E800877F8093E8008091E80080FF91
:103DC000FCCF809183028093F1008091E8008E7790
:103DD0008093E8000E9482178091E80083FFF6C17B
:103DE0008091A9029091AA02492F50E04A305105D2
:103DF00008F0ECC1FA01E059FF4F0C9472328038A0
:103E000021F0823809F0E2C108C08091A5029091AA
:103E1000A602992389F082600FC08091AD028F7055
:103E2000873008F0D3C18093E9008091EB0085FBD7
:103E3000882780F91092E9009091E800977F90938D
:103E4000E8008093F1001092F1007DC1282F2D7FB2
:103E500009F0BCC1882319F0823061F0B7C18091AC
:103E6000AB02813009F0B2C1933009F080E0809359
:103E7000A6022EC08091AB0281112AC08091AD02B2
:103E80008F702FEF280F263008F0A0C18093E90033
:103E90002091EB0020FF1CC0933021F48091EB00B7
:103EA000806214C09091EB0090619093EB0021E050
:103EB00030E0A90102C0440F551F8A95E2F74093F4
:103EC000EA001092EA008091EB0088608093EB009A
:103ED0001092E9008091E800877F8093E8000E94BB
:103EE000821774C1811172C11091AB021F7780914A
:103EF000E3008078812B8093E3008091E800877F46
:103F00008093E8000E9482178091E80080FFFCCF38
:103F10008091E30080688093E300111102C082E089
:103F200001C083E08093A70251C18058823008F01D
:103F30004DC12091AB023091AC022C3D53E03507CE
:103F400079F583E08A838AE289834FB7F894DE01AA
:103F5000139620E03EE051E2E32FF0E0509357004B
:103F6000E49120FF03C0E295EF703F5FEF708E2F6A
:103F700090E0EA3010F0C79601C0C0968D939D93F3
:103F80002F5F243149F74FBF8091E800877F8093EE
:103F9000E8006AE270E0CE0101960E940E19C1C0ED
:103FA0008091AD029091AE02432F552743305105C9
:103FB000B1F068F44130510509F417C142305105A0
:103FC00009F004C18FEB90E0ECEFF4E057C0413210
:103FD000510589F14232510509F43CC0F7C0C901CD
:103FE000992781309105B9F070F082309105D9F0B0
:103FF000039709F0EBC0EDECF5E0E4918E2F90E033
:10400000EDECF5E038C0EDE1F6E0E4918E2F90E0C4
:10401000EDE1F6E030C0EDE0F6E0E4918E2F90E0C7
:10402000EDE0F6E028C0EBEEF5E0E4918E2F90E0B5
:10403000EBEEF5E020C08330910508F0C7C0880F93
:10404000991FFC01EA5AFE4F0190F081E02D89E0B2
:1040500090E014C08330910508F0B8C0FC01EE0F69
:10406000FF1FE05BFE4F0190F081E02DDC01A35BC0
:10407000BE4F8C9190E0009709F4A8C02091E80011
:10408000277F2093E8002091AF023091B002821781
:10409000930708F49C0140E02115310589F18091D6
:1040A000A702882309F43DC08530D9F18091E8004A
:1040B00083FD37C08091E80082FD2FC08091E80029
:1040C00080FFEACF4091F3008091F20090E0942BC2
:1040D0002115310559F08830910540F44491409301
:1040E000F1003196215031090196F2CF41E0089755
:1040F00009F040E08091E8008E778093E800CCCF13
:104100004111CDCF0AC08091A702882351F085309C
:1041100041F08091E80083FD04C08091E80082FFB7
:10412000F2CF8091E8008B778093E8004FC0803811
:1041300009F04CC08091E800877F8093E80080916F
:10414000A8028093F1008091E8008E77C6CE81119D
:104150003DC08091AB029091AC0299270297B4F5D3
:104160008091E800877F8093E8001091AB02109364
:10417000A8020E948217111106C08091E30087FDFA
:1041800002C081E001C084E08093A70242E061ECBC
:1041900081E00E94A11742E261EC84E00E94A11735
:1041A00042E261EC82E00E94A11742E260EC83E00F
:1041B0000E94A11742E361E885E00E94A11742E353
:1041C00061E886E00E94A1178091A7028091E80033
:1041D00083FF10C08091E800877F8093E800809182
:1041E000EB0080628093EB0005C082E190E0EBEB96
:1041F000F5E044CFAA960FB6F894DEBF0FBECDBF50
:10420000DF91CF911F91089580E0089590917D02F4
:1042100092FF0DC0282F2871283019F4877F846001
:1042200006C0282F2471243011F48B7F886093FFFF
:104230000DC0282F2871283119F4877E846106C0AB
:10424000282F2471243111F48B7E886120917E0205
:1042500020FF0DC0382F3871383019F4877F816006
:1042600006C0382F3171313011F48E7F886021FF04
:104270000DC0282F2871283119F4877E816106C06E
:10428000282F2171213111F48E7E886194FD877E63
:104290000895F894E82FE295EF70F0E031A1282F0F
:1042A0002F7081E090E001C0880F2A95EAF7982FDF
:1042B0009095932391A392A1892B82A3789408953A
:1042C0007F928F929F92AF92BF92CF92DF92EF92A6
:1042D000FF920F931F93CF93DF9300D000D000D0B5
:1042E000CDB7DEB7AE014F5F5F4F7A0186E0FA01CE
:1042F00011928A95E9F701E311E06A0187E3A82E9C
:1043000081E0B82E88248394912CF80180818F3F1E
:1043100009F441C0F894E82FE295EF70F0E021A194
:104320008F70A40102C0440F551F8A95E2F7CA019D
:10433000922F982B91A392A18095892382A37894A0
:1043400000C0E7E3F1E0712C31E021912F3F89F0CB
:10435000A22FA295AF70B0E090968C9190E02F7054
:1043600002C0959587952A95E2F780FD02C0832FBC
:1043700001C080E0782A330F51E0EE33F50729F7CA
:10438000F80180818F3F11F00E944921F0EAFA95EF
:10439000F1F7F60170820F5F1F4FFFEFCF1ADF0AB0
:1043A000A016B10609F0B1CF46E050E0B7018CE4A9
:1043B00092E00E94C93211E0009709F410E0892BC5
:1043C00089F086E0F701ACE4B2E001900D928A95A5
:1043D000E1F781E0809304040E94CD1A90930304D6
:1043E00080930204809104048823A1F08091020448
:1043F000909103040E94BE1A059760F0ECE4F2E08D
:10440000A7E6B2E081918D9342E0E235F407D1F75F
:1044100010920404812F26960FB6F894DEBF0FBECB
:10442000CDBFDF91CF911F910F91FF90EF90DF9063
:10443000CF90BF90AF909F908F907F900895CF9333
:10444000DF938238910569F1B0F48133910509F465
:104450006FC048F48932910509F465C08A3291052C
:1044600009F46BC08AC08533910509F457C08933BC
:104470009105B9F082C0833E910571F138F4803E18
:104480009105B1F0823E910511F177C0863E91050C
:10449000B9F1873E9105C9F1843E910509F06DC0DF
:1044A00024C020917D0220FD53C021FD51C065C074
:1044B00080917D0280FD46C080917E0280FF48C0D1
:1044C00080917D0284FD50C183EE90E04FC18091C8
:1044D0007D0282FF3AC0F4CF80917D0282FD35C01B
:1044E00080917E0280FD34C0EBCF80917E0281FFFF
:1044F00035C080917D0284FD37C187EE90E036C1E2
:1045000080917D0283FF27C0F4CF80917D0283FDDF
:1045100022C080917E0281FD21C0EBCF80917D027F
:1045200085FD1FC021C080917D0285FD1DC019C081
:1045300080917D0286FD1BC01DC080917D0286FD9D
:1045400019C015C089E390E011C182EE90E00EC160
:1045500080EE90E00BC186EE90E008C184EE90E022
:1045600005C189E290E002C185E390E0FFC08AE2E4
:1045700090E0FCC081E390E0F9C0811531E593073C
:1045800008F069C0811540E59407F0F09C0174E0E3
:10459000369527957A95E1F7922F9370482F4370BF
:1045A00021E030E002C0220F331F4A95E2F73C6859
:1045B000392B982F9F709695969540E2949FC00155
:1045C0001124822B932BD2C0883E910568F5803E42
:1045D000910508F0CBC0883A9105B8F4853A910569
:1045E00048F0855AE82FF0E0E45AFE4F808190E0D1
:1045F0009064BCC08130910509F4B3C008F4B4C024
:104600008430910508F4B0C0B1C08F3B910508F02B
:10461000ABC0885AE82FF0E0EE0FFF1FE15AFE4FC3
:10462000808191819464A2C0811520E2920758F4A0
:10463000811531E0930708F099C0803F910508F497
:1046400093C0906593C0811540E4940708F48CC032
:104650009F70906A8BC0811525E5920708F042C0D3
:10466000811534E5930728F0982F8827846F906A86
:104670007DC0811543E59407B0F09C01237033277A
:1046800041E050E002C0440F551F2A95E2F7282F61
:104690002695269580E2289F90011124CA01822B3D
:1046A000932B9A6863C0811522E5920728F4982F0E
:1046B0008827816F906A5AC09C012370332741E09C
:1046C00050E002C0440F551F2A95E2F7282F269587
:1046D000269580E2289F90011124CA01822B932BFA
:1046E0009C6844C0EC01811539E59307A8F4811555
:1046F000984528F09C2F8827806F906A37C0C11595
:1047000086E5D80788F58C2F0E9406218F7190E0EE
:10471000982F882790622AC081152AE5920790F485
:104720008C2F8F700E94062194E0D695C7959A959C
:10473000E1F7CF70D0E0DC2FCC27D0699E01282B89
:10474000C90114C090568115904270F48D2F8F715D
:104750000E940621282F2F71CE0199279062922B5B
:1047600005C081E090E002C080E090E0DF91CF9151
:104770000895CF9384E090E00E94D231C82F82E266
:1047800090E00E94D2312C2F30E0A901582BCA01B1
:10479000CF91089580E090E00E94E0318A3E9E4FE4
:1047A00011F40C94D52980E008956AEE7EEF80E044
:1047B00090E00E94043260E082E090E00E94E631E6
:1047C00060E083E090E00E94E6311092010460E036
:1047D00084E090E00E94E63160E082E290E00E9496
:1047E000E63160E085E090E00E94E63160E086E03E
:1047F00090E00E94E6316FEF87E090E00E94E631A2
:1048000040E050E0BA0188E090E00E94F83160E0BA
:104810008DE090E00E94E63140E050E0BA0188E18E
:1048200090E00E94F83160E087E190E00E94E6317C
:1048300040E050E0BA018CE190E00E94F83160E085
:1048400070E080E290E00E94043240E050E0BA0163
:1048500088E190E00E94F83180E00E94A8290E943F
:10486000C62940E050E0BA018FE090E00E94F831A4
:1048700040E050E0BA0183E190E00C94F83180917F
:104880000004882331F0109200041092FF0310926C
:10489000FE03089580959091FD0389238093FD0385
:1048A00008959091FD038091FC03892B9091FB0367
:1048B000892B80939F0380910004882361F10E94DB
:1048C000CD1A2091FE033091FF03821B930B883891
:1048D000934110F00E943F2490919F038091000427
:1048E000892B80939F0380911A01882331F0809156
:1048F0007D0287FF02C08EE101C086E0E1EAF3E0BD
:1049000090E0815028F021912223D9F39F5FF9CFC5
:1049100091110E943F24E0917402F091750230974A
:10492000A9F080911A01882359F080917D0287FFB8
:1049300007C080919F038093A00386E080939F032C
:104940000280F381E02D8FE993E00994089510929D
:10495000FA031092F9031092F80308952091FA03D4
:10496000809582238093FA03982F977099F430E012
:10497000482F082E000C550B2417350759F090913D
:104980007E0292FD07C08595859585950E94012838
:104990000C94A7240895CF93C0917E02C2FB99275F
:1049A00090F9981799F080FBC2F9C0937E0260914C
:1049B0007D0284E090E00E94E6316C2F82E290E07C
:1049C0000E94E63182E0CF910C94AE24CF910895FD
:1049D00090917E0292FD10C098E0899F9001112471
:1049E000262B2093FA030E940D280E94CD1A909343
:1049F000F9038093F80308950C940D288091F70330
:104A000081111092F70308958091F6039091C503E8
:104A1000891719F08F5F8770FBCF08950F931F934D
:104A2000CF93DF938091C40382958F7009F05DC0AE
:104A30008091C103882309F458C08091F603109136
:104A4000C5036091BF037091C003C091C203D091B0
:104A5000C30391E06F3F09F090E0292F06E0811732
:104A600009F443C0209721F07F3F21F030E003C0DC
:104A700031E001C0322F90E030FD34C0089FF001DA
:104A8000099FF00D1124DF01AA53BC4F11963C91F0
:104A90001197371327C03C91361324C012963C91CE
:104AA000129731111FC013964D915C9114974C1BB6
:104AB0005D0B483C5105B0F48091C4038F70806158
:104AC0008093C403E553FC4F80818F7080618083A5
:104AD0008FEB93E00E94C804DF91CF911F910F915B
:104AE0000C94042501968770BACFDF91CF911F9166
:104AF0000F91089580E090E00E94751B80E090E0A7
:104B00000E945F1B1092FC031092FB030E94512431
:104B1000E6EAF4E086E0DF011D928A95E9F710925B
:104B2000A00410929F041092A1040C94D52ECF9251
:104B3000DF92FF920F931F93CF93DF936C0100914D
:104B40009E0380910104082BC7E0D0E010E0C8016B
:104B50000C2E02C0959587950A94E2F780FD04C05B
:104B60002197A8F7F12C09C0FC2EB6018C2F0E94CA
:104B70001A1C0E941F22019799F38F2DDF91CF916C
:104B80001F910F91FF90DF90CF900895CF93DF9307
:104B9000EC010E949725BE010E941A1C0E941F2250
:104BA000DF91CF910895FC01808191810E94C625FB
:104BB000292F2F70E92FE295EF704E2F50E0FA0168
:104BC0003297EE30F105B8F4E658FF4F0C9472328C
:104BD000803F99F018F4883E70F40FC0843F59F478
:104BE0000CC0883E50F0813F31F407C0822F86957B
:104BF00086958695089580E0089581E008959F92B6
:104C0000AF92BF92CF92DF92EF92FF920F931F93DA
:104C1000CF93DF93CDB7DEB761970FB6F894DEBFC1
:104C20000FBECDBF8C0185E0F801DE011D9601901D
:104C30000D928A95E1F7F801E2809091BF036091AF
:104C4000C0034091C2035091C3034115510531F097
:104C50006F3F31F481E09F3F19F403C081E001C050
:104C600080E0F82FF1709F2E80FD1AC1F80130818D
:104C70002181C380D4808FEBA82E83E0B82EF090E2
:104C8000C103F601E41BF50BFF2009F4C6C08091B7
:104C9000C403E83CF10508F091C0482F407F09F0BB
:104CA00050C0621311C093130FC0FE2CE1100CC052
:104CB0008F7080618093C403C5010E94C8048091F5
:104CC000C403F801858329C1CD2831F02F3F31F489
:104CD00081E03F3F19F403C081E001C080E080FD26
:104CE00003C081E08E2502C080E090E0F82FF170D3
:104CF000FF2E80FF1CC08091F6034091C50356E053
:104D0000841709F4E8C090E0589FF001599FF00D16
:104D10001124EA53FC4F6181261306C0608163139E
:104D200003C06281E61203C001968770E9CFFE2CB2
:104D3000EE2009F4F2C08091C40381608093C40323
:104D400049C0621306C0931304C0E11002C0F80109
:104D500086C0C8010E94D325882351F1EE2041F17D
:104D60002091C403822F82958F7090E0029774F097
:104D70008091BF039091C00398878F831986DB864B
:104D8000CA862C87CE0107960E94C80486E0F801E7
:104D9000AFEBB3E001900D928A95E1F70E940E25EA
:104DA0000AC06217C9F0C8010E94D32581111EC034
:104DB000C8010E94C804FF24F394AFC0482F407F6D
:104DC00081F78FEB93E00E94C80486E0F501119211
:104DD0008A95E9F7F12CA1C09313E5CFE110E3CF59
:104DE000F8018583C8010E94C80454C0EE2001F375
:104DF0002091C403822F82958F7090E0029734F245
:104E00008091BF039091C0039A8389831B82DD82C6
:104E1000CC822E83CE010196B7CFE83CF105D0F5C8
:104E2000FE2CEE2029F2621327C0931325C0209197
:104E3000C40320FD18C0822F82958F70482F50E048
:104E40004115510581F0F80125834F30510541F09E
:104E50008F5F982F9295907F822F8F70892B8583FB
:104E6000C8010E94C80486E0F801AFEBB3E00190EE
:104E70000D928A95E1F751C0C8010E94D325811196
:104E800085CF8091C40381608093C403C8010E94D0
:104E9000C80443C086E0F50111928A95E9F73DC048
:104EA000EE2009F485CFC8010E94D325F82E88236F
:104EB00009F47ECF86E0F801AFEBB3E001900D92EC
:104EC0008A95E1F78091BF039091C0030E94C625A7
:104ED0000E940E2522C03D872E878D859E850E94CB
:104EE000C625292F22952F70223028F49F7039F083
:104EF000811105C00BC0243028F49F7049F4805EF6
:104F0000883020F0C8010E94C8049F2CF92C05C0ED
:104F1000F8019581907F99F7F9CF8F2D61960FB6A3
:104F2000F894DEBF0FBECDBFDF91CF911F910F91DF
:104F3000FF90EF90DF90CF90BF90AF909F9008953B
:104F40009E3F61F127E0929F800D1124682F6695A6
:104F500066956695982F977083E0689FB00111243D
:104F600040E050E080E0FB01E40FF51FEB5FFB4FFA
:104F7000208130E0092E02C0369527950A94E2F789
:104F800021703327042E01C0220F0A94EAF7822BE6
:104F90004F5F5F4F4330510531F7089580E008952A
:104FA0009E3F51F127E0929F800D1124E82FE69556
:104FB000E695E695877051E001C0550F8A95EAF7AE
:104FC00083E0E89FF0011124EB5FFB4F20E030E02D
:104FD00070E04081CB01022E02C0969587950A941D
:104FE000E2F78170819584278523842781932F5F41
:104FF0003F4F2330310569F7089580939E030C9449
:105000007A2521E030E001C0220F8A95EAF7209549
:1050100080919E0382230C94FD2721E030E001C0A3
:10502000220F8A95EAF780919E03822B0C94FD272C
:10503000809301040C947A251092FD0380911A014B
:10504000882331F080917D0287FF02C08EE101C08C
:1050500086E0E1EAF3E0DF011D928A95E9F70C941E
:105060007A25882341F080959091FC0389238093D1
:10507000FC030C9451240895882339F09091FC038B
:10508000892B8093FC030C9451240895882321F0EC
:105090000E944A240C9451240895882339F0909159
:1050A000FD03892B8093FD030C94512408958823DC
:1050B00079F19CEF980F913A30F4682F8FE993E0E3
:1050C0000E94021B0DC090E2980F983058F4877030
:1050D00091E001C0990F8A95EAF7892F0E944A242E
:1050E0000C9451249BE5980F933020F480E090E0DD
:1050F0000C94751B98E5980F973120F480E090E0B0
:105100000C945F1B803F20F00E94FF2E0C94D52E44
:105110000895CF93882309F472C0C82F8CEF8C0FA9
:10512000813AC0F580911A018823E1F080917D02D7
:1051300087FF18C0EC2FE695E695E695F0E0E1567E
:10514000FC4F8281282F30E04C2F477081E090E0A7
:1051500002C0880F991F4A95E2F782239323892B77
:1051600061F412C0E1EAF3E087EA93E02191C2170B
:1051700021F08E179F07D1F707C06C2F8FE993E0BE
:105180000E94021B0E9451246C2F8FE993E00E9421
:105190002A1B10C080E28C0F883078F4C77081E041
:1051A00090E001C0880FCA95EAF79091FD03892B22
:1051B0008093FD03CF910C945124EBE5EC0FE33089
:1051C00040F4F0E0E45AFE4F808190E0CF910C94DF
:1051D000751BE8E5EC0FE73150F4F0E0EE0FFF1F30
:1051E000E15AFE4F80819181CF910C945F1BC03FAB
:1051F00030F08C2F0E94C62FCF910C94D52ECF91DA
:1052000008951F93CF93DF93182F893319F0C0E0CF
:10521000D0E002C0C0E5D0E0812F0E94892820970D
:1052200041F08FE99FE00197F1F700C0000021975E
:10523000F6CF812FDF91CF911F910C9457280895BD
:10524000CF93DF93EC01EAE9F4E0438162818C8142
:105250000E94B82E8C818F5F8C83DF91CF9108954F
:10526000CF93DF93EC01EC81F0E0E25BF94F4491E6
:10527000EAE9F4E0628181810E94B82E8C818F5F1F
:105280008C83DF91CF9108950F931F93CF93DF937A
:10529000853058F5663048F5473038F521159CE5DE
:1052A000390731F4E0910C01F0910D01EF2BE9F099
:1052B0008901C42FD0E0CC0FDD1F9EE0699FC00D97
:1052C000D11D112494E5899FC00DD11D1124612F9A
:1052D000CE0187960E94E631602FCE018896DF913D
:1052E000CF911F910F910C94E631DF91CF911F91D7
:1052F0000F9108950F931F93CF93DF93853008F597
:105300006630F8F44730E8F4C42FD0E0CC0FDD1F4E
:105310002EE0629FC00DD11D112434E5839FC00D86
:10532000D11D1124CE0187960E94D23190E0182F12
:105330000027CE0188960E94D2319801282BC901FE
:1053400002C080E090E0DF91CF911F910F9108950E
:10535000CF93C82F811102C06FEF01C069E183E2D2
:1053600090E00E94E631C11102C06FEF01C067E218
:1053700084E290E00E94E631C11102C06FEF01C0EB
:1053800061E785E290E0CF910C94E63180E00E94E5
:10539000A82960E086E290E00E94E6310E942D1C80
:1053A0000E940A1C81E00C94A82983E290E00E94EC
:1053B000D231893181F484E290E00E94D231873287
:1053C00051F485E290E00E94D23191E0813709F0FA
:1053D00090E0892F01C080E08170089590919A0437
:1053E00090FF04C09695981740F003C0811105C046
:1053F00090E0961710F40C94082E61E00C94C42DE4
:10540000882311F0FA0101C0FB01099460919A040C
:10541000669570E04BE050E08BE191E00E94BC3279
:10542000892B19F481E080931E040E94CD1A909379
:1054300018048093170408950F931F93CF93DF935D
:10544000CDB7DEB7C857D1090FB6F894DEBF0FBE8F
:10545000CDBF80919A0480FF0AC006E216E09E014B
:105460002F5F3F4FAE0147585F4FB9010BC0E2E2DB
:10547000F4E0118210821282339684E0EA39F80750
:10548000C1F7EBCFF801849190E0DC01AA0FBB1FBC
:105490008A0F9B1FDC01AE5DBB4F8D919D91AC913E
:1054A000FB0181939193A193BF010F5F1F4FE417FD
:1054B000F50741F7269A85B18F7B95B190646FB758
:1054C000F8942417350799F0F90171919F01E8E0EC
:1054D00095B9000000C077FF85B9770F000000C0C4
:1054E00000C000C085B900C0EA9591F7EACF6FBF50
:1054F0008FE594E00197F1F700C00000C858DF4F36
:105500000FB6F894DEBF0FBECDBFDF91CF911F91D4
:105510000F910895EF92FF920F931F93CF93DF9314
:105520008C01C2E2D4E0E12CF12CF8018481F4E199
:10553000EF16F1041CF4882351F002C0811107C05A
:1055400040919D04413508F040E59E0102C09E0156
:1055500040E060919C0480919B040E94222E8FEF7A
:10556000E81AF80A239698E2E916F104F1F60E9487
:105570001C2AF801848190E0019681709927848328
:10558000DF91CF911F910F91FF90EF9008958F922F
:105590009F92AF92BF92CF92DF92EF92FF920F93C2
:1055A0001F93CF93DF93EC014C81042F10E09801FF
:1055B000D8010E9487329B01AC010E949D326B0191
:1055C0007C01E0E2F0E0E01BF10BA5E5B0E09B011F
:1055D000AC010E949D324B015C019F01DF010E94E2
:1055E0007F329B01AC010E94A8329B01AC012C0DC3
:1055F0003D1D4E1D5F1DC501B4010E945032822F1A
:10560000F22E99E2921728F093E0299F900111243D
:105610000DC025E530E0281B3109C901880F991F0D
:10562000280F391F37FF02C02F5F3F4F3595279551
:10563000122F109592E2C92E94E0D92E00E085E554
:10564000E82EEF1801FD02C08E2D01C08F2D412FD5
:10565000113508F040E5960160919C040E94222ECD
:105660000F5F83E0C80ED11C083261F70E941C2A2C
:105670008C81811102C091E003C0803219F49FEF48
:105680009093280190912801890F8C83DF91CF910D
:105690001F910F91FF90EF90DF90CF90BF90AF9050
:1056A0009F908F9008950F931F93CF93DF93C2E243
:1056B000D4E0FE01118210821282339684E0EA392E
:1056C000F807C1F700E010E080912004082E000CDC
:1056D000990B08171907ACF080912701082E000CD0
:1056E000990B801791076CF040919D04413508F0AB
:1056F00040E59E0160919C0480919B040E94222EB3
:1057000003C0198218821A820F5F1F4F2396083236
:105710001105D1F60E941C2A809126019091200447
:10572000980F9093200420912701280F20932701A0
:10573000121614F497321CF0819580932601DF91A4
:10574000CF911F910F910895BF92CF92DF92EF9268
:10575000FF920F931F93CF93DF93FC01828180FF11
:1057600003C0DD24DA9402C0DD24D39402E214E005
:10577000C0E0D0E028E2B22EF8011182108212823D
:1057800094E0E92EF12CC12C80911F048C0D8932FC
:105790002CF06B2D0E941A32892F02C087FD885D84
:1057A000082E000C990BC817D907A9F480919D0405
:1057B0008E9DA0018F9D500D1124559547955595AF
:1057C0004795413508F040E5980160919C0480912F
:1057D0009B040E94222ECD0CF1E0EF1AF108A1F6F5
:1057E00021960D5F1F4FC832D10531F60E941C2A49
:1057F00080911F0491E0D91206C0811102C087E296
:1058000007C0815005C090E00196BE010E943C3265
:1058100080931F04DF91CF911F910F91FF90EF9024
:10582000DF90CF90BF900895EF92FF921F93CF9398
:10583000DF93EC0182E2E82E84E0F82E10E0409144
:105840009D04413508F040E58C81970160919C04EE
:10585000810F0E94222E1A5F83E0E80EF11C103F98
:1058600071F70E941C2A9A818C8190FF02C08F5F81
:1058700001C081508C83DF91CF911F91FF90EF90F9
:10588000089590919A0490FF0CC0E2E2F4E08183C5
:1058900060834283339694E0EA39F907C1F70C94A8
:1058A0001C2A08950F931F93CF93DF9300D01F926C
:1058B000CDB7DEB78C018091210481110AC09E0111
:1058C0002F5F3F4F40E56FEF0E94222E8A81809329
:1058D0002104F8018481813051F028F0823061F494
:1058E000409121040AC08091210440E007C06091EA
:1058F000210440E080E003C040E080E060E00E94DE
:10590000412CF801848190E0019663E070E00E94F0
:105910003C3284830F900F900F90DF91CF911F91B5
:105920000F9108955F926F927F928F929F92AF92A4
:10593000BF92CF92DF92EF92FF920F931F93CF937C
:10594000DF9300D01F92CDB7DEB7082F762E142F2D
:10595000622E90919A0490FF74C0E92FE695AE2FC5
:10596000B0E0A357BE4F8C9180931D049E7F923070
:1059700081F4413508F040E59E012F5F3F4F672DD0
:10598000802F0E94222E4B8169818A810E94412CA6
:1059900046C0823019F410919D0441C0863019F43C
:1059A00000919B043CC08930D9F38931C1F5E9519C
:1059B0008E2F8170582EE695F0E0EF5DF94FA5909F
:1059C000B49082E2C82E84E0D82EE12CF12CBB24C6
:1059D00098E2892E912CAE9CC001AF9C900DBE9C8C
:1059E000900D1124B4010E942832802F511002C062
:1059F000860F01C0861B412F113508F040E5960146
:105A0000672D0E94222E8FEFE81AF80A83E0C80E55
:105A1000D11C88E2E816F104F1F60E941C2A0093DA
:105A20009B0470929C0410939D04662051F0609139
:105A30009A0470919B0480919C0490919D040E9413
:105A4000902D0F900F900F90DF91CF911F910F919C
:105A5000FF90EF90DF90CF90BF90AF909F908F908E
:105A60007F906F905F900895EAE9F4E0438128E029
:105A7000421B08F440E021E0628181810C94922C69
:105A8000EAE9F4E0438128E0420F08F44FEF21E017
:105A9000628181810C94922CEAE9F4E0628128E031
:105AA000621B08F460E021E0438181810C94922C18
:105AB000EAE9F4E0628128E0620F08F46FEF21E088
:105AC000438181810C94922CEAE9F4E0818121E008
:105AD0004381628188500C94922CEAE9F4E0818140
