:100000000C9466030C94AD030C94AD030C94AD03F7
:100010000C94AD030C94AD030C94AD030C94AD03A0
:100020000C94AD030C94AD030C94D0160C940C16E8
:100030000C949C2B0C94AD030C94AD030C94AD0369
:100040000C94AD030C94AD030C94AD030C94AD0370
:100050000C94AD030C944F2B0C94AD030C94AD0396
:100060000C94AD030C94AD030C94AD030C94AD0350
:100070000C94AD030C94AD030C94AD030C94AD0340
:100080000C94AD030C94AD030C94AD030C94AD0330
:100090000C94AD030C94AD030C94AD030C94AD0320
:1000A0000C94AD030C94AD030C94AD03D909EF0986
:1000B000F4092C0A3D0A480A540A630A040B6A0A26
:1000C000040B040B040B720AF70FF70F271027100D
:1000D000AC10C810E711E711D3104711581158118F
:1000E00012143914EE153914EE158514A814EE15F2
:1000F000A915B915851E851E981E981E8E1E981E60
:10010000981E981E851E851E931E981E981E931E6F
:1001100000047F3F1F643214643214783C1E1E14A6
:100120000A05FD377A585A000004E6D6B4460200A4
:10013000210116000000742FE5A3E0019000BF5DCF
:10014000003D8889C65436C3174FE4E4589A4A5B89
:10015000780A7AEE5757119CD3EA8DFDB88D7BFE55
:10016000EEBAF7A3930BFF3D2612832FAF32C8E5FB
:10017000DB4F0A43A5F92C492153E47669E89D2B0E
:100180001695472E0013CCD1B53DAB00D3D6841CB9
:10019000CBA71EA9404418D6D48635D0E3DE837E93
:1001A000500351209E37279FA2CB17EED2C4D21501
:1001B000C7D681FBD10DF775B32CEF0387A79B7DC5
:1001C000DFA011A72D0A0CDBDD53825DEA070236A2
:1001D000850BA7360F59EEBEE8C5788B9D6237CEEA
:1001E000129D323AB3F0052274AF52FF43F8331533
:1001F000BFBD52297619C6F65871D42B404EC14363
:100200000000B5194DBF5E7410E70001DB019103DA
:10021000000019297681B1C467FB020000000004C8
:10022000595A05010902A10185020901A100050928
:100230001901290515002501950575018102950112
:10024000750381010501093009311581257F95026A
:100250007508810609381581257F95017508810685
:10026000050C0A38021581257F950175088106C0A5
:10027000C005010980A101850319012AB7001501F4
:1002800026B700950175108100C0050C0901A10178
:10029000850419012AA002150126A00295017510F6
:1002A0008100C00660FF0961A1010962150026FFF7
:1002B000009520750881020963150026FF0095202E
:1002C00075089102C005010906A101050719E02979
:1002D000E7150025019508750181029501750881D2
:1002E000010507190029FF150026FF00950675086E
:1002F00081000508190129059505750191029501EF
:1003000075039101C009025B00030100A0FA090412
:100310000000010301010009211101000122400038
:100320000705810308000A09040100020300000018
:10033000092111010001222200070582032000018A
:100340000705030320000109040200010300000067
:100350000921110100012281000705840320000A00
:1003600012010002000000086666716602000102C8
:1003700003011C037600690061006C003A0066000E
:100380003600340063003200620033006300000076
:100390001E03500039007600320020004D0061003D
:1003A000630072006F0020005000610064000000D4
:1003B0000E0350006100620069006C0065000000DF
:1003C00004030904000102030405060708092223A7
:1003D000252628292A2C2D2F3032333536383A3B22
:1003E0003D3E4042434547494A4C4E505153555774
:1003F000595A5C5E6062646668696B6D6F71737593
:1004000077797B7D7F81838587898A8C8E90929492
:1004100096989A9C9E9FA1A3A5A7A8AAACAEAFB19F
:10042000B3B4B6B8B9BBBCBEBFC1C2C3C5C6C7C9E9
:10043000CACBCCCDCED0D1D2D2D3D4D5D6D7D7D8A3
:10044000D9D9DADADBDBDBDCDCDCDCDCDDDDDDDDF5
:10045000DCDCDCDCDCDBDBDBDADAD9D9D8D7D7D6FD
:10046000D5D4D3D2D2D1D0CECDCCCBCAC9C7C6C5B4
:10047000C3C2C1BFBEBCBBB9B8B6B4B3B1AFAEACFA
:10048000AAA8A7A5A3A19F9E9C9A98969492908EA5
:100490008C8A89878583817F7D7B79777573716F7E
:1004A0006D6B6968666462605E5C5A59575553515A
:1004B000504E4C4A4947454342403E3D3B3A383610
:1004C000353332302F2D2C2A2928262523220001CE
:1004D0000101010101010101020202020202020204
:1004E00002030303030303030304040404040404D6
:1004F000050505050506060606060707070707089A
:10050000080808090909090A0A0A0B0B0B0C0C0C4C
:100510000D0D0D0E0E0E0F0F0F10101111111212E6
:1005200013131414151516161717181819191A1A63
:100530001B1B1C1D1D1E1E1F2020212222232424C4
:10054000252626272829292A2B2C2D2D2E2F303100
:100550003232333435363738393A3B3C3D3E3F4012
:100560004142434445464748494A4C4D4E4F5051FD
:100570005354555658595A5B5D5E5F6162646566B7
:1005800068696B6C6D6F7072737577787A7B7D7E3E
:100590008082838587888A8C8E8F91939596989A8E
:1005A0009C9EA0A2A3A5A7A9ABADAFB1B3B5B7BAA6
:1005B000BCBEC0C2C4C6C9CBCDCFD1D4D6D8DBDD7A
:1005C000DFE2E4E7E9EBEEF0F3F5F8FAFDFFFFAA6E
:1005D0007F55405F00600061005C005D005E005977
:1005E000005A005B0004000500060007000800092F
:1005F000000A000B000C000D000E000F001000118F
:10060000001200130014001500160017001800193E
:10061000001A001B001C001D000400000000000068
:1006200000000000000000000000000000000000CA
:100630000000000000000000000000000000007E3C
:100640000F00D4FFFFFFC70000007800000000008B
:100650000000002A2B28000000000000000000001D
:1006600000000000000029000000002C1E342021A2
:100670002224342627252E362D3738271E1F2021E9
:1006800022232425263333362E37381F0405060748
:1006900008090A0B0C0D0E0F101112131415161762
:1006A00018191A1B1C1D2F3130232D350405060780
:1006B00008090A0B0C0D0E0F101112131415161742
:1006C00018191A1B1C1D2F3130354C0011241FBE68
:1006D000CFEFDAE0DEBFCDBF04B603FE27C08091C6
:1006E0004F0490915004A0915104B091520487306E
:1006F000904BA740B04BD1F410924F04109250048D
:10070000109251041092520414BE84B7877F84BFA4
:100710000FB6F894A895809160008861809360007E
:10072000109260000FBEE0E0F8E3099511E0A0E050
:10073000B1E0EEE7F8E602C005900D92AA3AB107E3
:10074000D9F724E0AAEAB1E001C01D92AF34B207A4
:10075000E1F70E94AF030C943D340C940000CF935A
:10076000DF93CDB7DEB7E6970FB6F894DEBF0FBEC6
:10077000CDBF84B7877F84BF0FB6F894A8958091CA
:100780006000886180936000109260000FBE90E06E
:1007900080E80FB6F89480936100909361000FBEDB
:1007A00085B7806885BF85B7806885BF85E592E29B
:1007B0009093AB018093AA010E94CF1A0E94761AEF
:1007C0000E9450160E946F168091E2008460809310
:1007D000E20078948091D5018823A1F01091E9007E
:1007E0001F709091EC00892F817090FD80E8182B8C
:1007F0001092E9008091E80083FD0E942A131F7087
:100800001093E90082E084BD93E095BD9AEF97BD17
:1008100080936E000E94A61B811102C00E94971B4C
:1008200086E60E949A2283E90E949A2287E90E9422
:100830009A2282E30E949A2280E90E949A2284E905
:100840000E949A2283E0E4ECF1E0DF01182F1D9270
:100850001A95E9F7EEEAF1E0DF011D928A95E9F7D2
:100860000E947E25811102C00E94892582E090E0CD
:100870000E942A338093BE010E946D259093AD01A2
:100880008093AC010E94B122BFEFE6E7F1E0B150E6
:10089000E040F040E1F700C000000E94B1228091EA
:1008A000C40180FF08C06FEF7FEF80E090E00E94FE
:1008B0005C330E943E2B83E090E00E942A330E942A
:1008C000E9208091B101811133C00E947E25811100
:1008D00004C00E9489250E94782788E090E00E9449
:1008E000323360930602709307028093080290935C
:1008F00009026E7F71F40E94782788E090E00E94E0
:10090000323360930602709307028093080290933B
:1009100009020E942A271092E7018091060280FFB7
:1009200004C060E086950E941F2981E08093B10198
:100930006DEB862E61E0962E2EE331E041E451E02E
:100940007AEB672E71E0772E61E070E086149704F1
:1009500009F44EC0FA01A191AF018A2F82958F70E0
:1009600090E0FC01F1A0AF70EA2E8B0101C0000FF6
:10097000AA95EAF7F02FF095FF22DC019196FC9200
:1009800091979296AC91A02BFC01A2A3D901FD9066
:100990009D01EF2DE295EF70F0E0B1A0BF2DBF708B
:1009A000FB2E6B0101C0CC0CBA95EAF7DC2CD0947D
:1009B000DB20D1A2D2A0CD28C2A2DC0190968C91DE
:1009C00090E002C095958795EA94E2F78170E0A1E6
:1009D000F0E002C0F595E795FA94E2F7E0FF02C077
:1009E00092E001C090E0892BF30181933F01AECFEB
:1009F00080E091E090934404809343043324339443
:100A00008091D501853009F077C000E112E1809135
:100A1000D501853009F05BC08091D501843009F49F
:100A200041C01092E7018091B301811117C0F1E03C
:100A3000F093B30180910602982F91709093B201C8
:100A40008E7F809306022FEF30E742E02150304046
:100A50004040E1F700C000000E94ED1B10924704E7
:100A600088E190E0A0E40FB6F894A8958093600028
:100A70000FBEA093600083B7817F846083BF83B77C
:100A8000816083BF7894889583B78E7F83BF0FB6CC
:100A9000F894A8958091600088618093600010921E
:100AA00060000FBE8091D401882309F4B0CF0E946A
:100AB000B1228091C4018111CFC58091C5018111FE
:100AC000CBC58091C601882309F4A1CFC5C50E947A
:100AD000ED200E940B2C1092B3018091B20188236B
:100AE00049F08091060281608093060260E086955D
:100AF0000E941F290E94D71B0E94B12281110E94CF
:100B0000842BE4ECF1E0AFEBB1E000E010E0302F3B
:100B100021919D91922721F180E0FF24F3944F2DA4
:100B20004923D1F08BA73CA72F2181E009F480E075
:100B30008DA70E94902B8160782F9FA78EA74BA531
:100B40005CA56DA58FA50E948A30F801E154FE4F87
:100B50008081F826F08219C08F5FFF0C8330F9F690
:100B60000F5F1F4F0330110591F68FEF88AB89ABF4
:100B70001AAA0E94902B8160782F9CAB8BAB48A95E
:100B800059A96AA98CA90E948A308091E70188231B
:100B900009F493C08091E601E0910602E695E81B16
:100BA000E093E201823059F4F0E0E25EFE4FE4911E
:100BB0000E2F10E05EEFE52E59E1F52E59C086307C
:100BC00059F4F0E0E55EFE4FE4910E2F10E04EEE9A
:100BD000E42E49E1F42E4CC0893061F4E695F0E052
:100BE000E85EFE4FE4910E2F10E033EEE32E3DE180
:100BF000F32E3EC08F3061F4E695F0E0EB5EFE4FE1
:100C0000E4910E2F10E023E7E22E2DE1F22E30C00A
:100C1000853159F4F0E0EE5EFE4FE4910E2F10E0C6
:100C200092E2E92E9DE1F92E23C08831A1F08332B2
:100C300049F4E0E1F1E0059114918EEAE82E89E1B2
:100C4000F82E16C0843271F000ED17E0B6E0EB2EFE
:100C5000B8E1FB2E0DC008E210E0A6E9EA2EACE1F7
:100C6000FA2E06C004EF11E0F9E5EF2EFCE1FF2EAD
:100C70008091E301882361F01092E3010E94902BA0
:100C80009093E1018093E0011092E5011092E4015C
:100C90000E94902BE091E001F091E1018E1B9F0BEF
:100CA0008F3F9F4750F40E0F1F1F1093E1010093D9
:100CB000E00180EE91E0F701099557EBE52E51E058
:100CC000F52E04EB11E06AEB662E61E0762E2EE342
:100CD00031E03EAB2DAB71E4872E71E0972E5301CE
:100CE000D12C212CE4E04E2E512CD5018D915D01AB
:100CF000E82FEE0FEE0FD4012D914D01A22FA295FA
:100D0000AF70B0E090968C9190E02F7002C09595F6
:100D100087952A95E2F79C0121703327ADA9BEA9DA
:100D20008D91BEABADABA82FA295AF70B0E0909601
:100D30004C9150E08F7002C0559547958A95E2F727
:100D4000CA018170992740FF02C082E090E0822BA7
:100D5000932B8E2BF30181933F018F70E82FF0E0EE
:100D6000E25DFE4F9081D7018C91890F8C93843086
:100D700054F0F80180818F5F808360E0822D0E94B3
:100D8000251B21E001C020E0D7018C918D3F4CF460
:100D9000F80180818150808361E0822D0E94251BB3
:100DA00021E0D7018C91082E000C990BB2010E9412
:100DB0009C33F70181937F01D22A23940F5F1F4F49
:100DC000F3E02F1292CFD1100E94842B86E0E8ED41
:100DD000F2E08E010F5F1F4FD80101900D928A95AE
:100DE000E1F7C090DA02D090DB02E090DC02F090F4
:100DF000DD021092DA021092DB021092DC021092F5
:100E0000DD02C11003C0DD2009F44FC08091D6027D
:100E10009091D7020E94752B9C019091D202992348
:100E200009F442C42333310508F43FC09F3F19F051
:100E30009F5F9093D202CC2061F00E943E2A1C1446
:100E400014F491E001C09FEF899F802D11248093BD
:100E5000DA02DD2061F00E943E2A1D1414F491E0B4
:100E600001C09FEF899F802D11248093DB02309178
:100E7000DA023323D1F02091DB022223B1F045EBDB
:100E80003403C0011124992319F09093DA0202C0AF
:100E90003092DA0235EB2303C0011124992319F0B3
:100EA0009093DB0202C03092DB02E11003C0FF200E
:100EB00009F44FC08091D4029091D5020E94752B05
:100EC0009C019091D102992309F4F3C32536310591
:100ED00008F43FC09F3F19F09F5F9093D102EE202E
:100EE00061F00E941C2A1E1414F491E001C09FEFCF
:100EF000899F802D11248093DC02FF2061F00E94E5
:100F00001C2A1F1414F491E001C09FEF899F802DCB
:100F100011248093DD023091DC023323D1F0209143
:100F2000DD022223B1F045EB3403C00111249923E3
:100F300019F09093DC0202C03092DC0235EB2303FF
:100F4000C0011124992319F09093DD0202C0309260
:100F5000DD028091DA0281110BC08091DB028111E8
:100F600007C08091DC02811103C08091DD028111F4
:100F70000E946D29CB82DC82ED82FE8286E0F80140
:100F8000A8EDB2E001900D928A95E1F70E940B2C3A
:100F90009091BD01891721F00E940B2C8093BD0117
:100FA0008091D501843009F02BCD83E08093E90056
:100FB0008091E80082FF24CD8091E80085FF21C068
:100FC0000E94A71781111BC040E2E42EF12C68019A
:100FD00009C08091F100D6018D936D01B1E0EB1A4B
:100FE000F10869F08091E80085FDF3CF8091E80079
:100FF0008B778093E8000E94A717882399F391E0EC
:1010000001C090E08091E8008B778093E8009923FD
:1010100009F4F6CCE090E002F090E1028981E1145D
:10102000F10461F08E3F09F0EFC28A81833008F449
:10103000B4C18550833008F0E7C2AFC1893009F4EC
:10104000E3C0D0F4843009F467C050F48230A1F1D9
:1010500008F053C0813009F0D5C21A8289E0D2C0AD
:10106000863009F46BC008F45EC0873009F469C0AB
:10107000883009F4A8C0C6C2803109F42EC180F4BA
:101080008D3009F4CCC028F48C3009F0BBC280E16B
:1010900057C28E3009F4C7C08F3009F4EFC0B2C216
:1010A000823109F41FC108F41BC1833109F443C123
:1010B0008E3F09F472C1A6C28A81823009F4EBC264
:1010C000833051F0813009F09DC20E94842B9B83B4
:1010D0008C837D836E8398C280911D0190911E0147
:1010E000892B09F491C28091C4018B838091C50141
:1010F0008C838091C6018D8387C28A81823009F0FA
:1011000081C26B817C818D819E810E94D83386E271
:1011100090E00E943E3378C24C816B818A810E94AC
:10112000481A9D83BFC22D813E8132272327322753
:101130004C816B818A810E94121A66C20E94CA2E5B
:1011400063C28A818138B1F050F4803809F05CC202
:1011500020E04B81609108028091070231C0823803
:1011600059F1833809F050C220E0409109026C81A6
:101170008B8126C060E08B810E941F299B8180911A
:101180000602911111C08E7F809306021092E70132
:10119000EFEFF0E722E0E150F0402040E1F700C03F
:1011A00000000E94ED1B30C281608093060260E067
:1011B00086950E941F2928C28B8180930A0224C22F
:1011C0000E943B2821C28A81813891F030F4803816
:1011D00009F01AC28091090215C0823889F083385B
:1011E00009F012C2809107028B838091080243C1EB
:1011F0008091060280FF02C0869504C080E002C094
:1012000080910A028B8300C26091060270910702EE
:1012100080910802909109020E944427F5C182E062
:101220008A838FEDEFCFEA80FB80FE24EF24FE243B
:10123000AC80B12C3DE1A316B10408F0E5C1680112
:10124000C7018F5D9E4F9601201B310B2A153B0570
:1012500008F0DAC14FEDE41642E0F40630F40E94E3
:101260002A33D60114968C9302C0F6011482FFEF44
:10127000EF1AFF0A2FEFC21AD20AE2CF80911D01A6
:1012800090911E01892B09F4BFC1EA80FB80FE24E6
:10129000EF24FE24CC80D12C3DE1C316D10408F00C
:1012A000B3C15801C7018F5D9E4F9501201B310BC3
:1012B0002C153D0508F0A8C14FEDE41642E0F406F8
:1012C00028F4D50114966C910E943E33BFEFEB1ABF
:1012D000FB0AEFEFAE1ABE0AE5CF0E94512E94C171
:1012E00083E02EC1EA80FB80FE24EF24FE24AC8044
:1012F000B12CFDE1AF16B10408F086C16801C70149
:1013000087969601201B310B2A153B0508F07CC1FE
:1013100026E3E216F10430F40E942A33D601149633
:101320008C9302C0F6011482FFEFEF1AFF0A2FEF31
:10133000C21AD20AE4CFEA80FB80FE24EF24FE2406
:10134000CC80D12C3DE1C316D10408F05DC146E349
:10135000E416F10408F058C186E390E08E199F0965
:101360008C159D0508F450C15801C7018796950159
:10137000201B310B2C153D0508F046C1A6E3EA16EB
:10138000F10420F4F50164810E943E33FFEFEF1A6F
:10139000FF0A2FEFA21AB20AE8CFEA818E2F90E05F
:1013A0008E30910508F030C1FC01EA5AFF4F0C94D1
:1013B000D23388E0E0E2F1E0DE01919601900D92F7
:1013C0008A95E1F780E2D8011D928A95E9F784E0D9
:1013D000898388E0FE01B196DE011596EFC019827F
:1013E0003A821B821C8210C18C8190E0982F882742
:1013F0002B81820F911D092E000CAA0BBB0B35E02F
:10140000880F991FAA1FBB1F3A95D1F7AC01BD01E8
:10141000405E5F4F6F4F7F4F481759076A077B0742
:1014200008F4F2C08F3F9105A105B10511F008F055
:10143000EBC04130E1E05E076105710520F040E05E
:1014400051E060E070E0481B590BBC016E5D7E4FBF
:10145000C8010E941133D8C0FB80EC8040E06E2DA3
:101460008F2D0E94702F99838A8341E06E2D8F2DDE
:101470000E94702F9B838C83C7C02E813F813227AF
:10148000232732274D816C818B810E94922EBCC014
:1014900040E250E06FEF70E0C8010E943634809166
:1014A0001D018983EA82B0C081E090E09093E1025F
:1014B0008093E00282E390E09093C3018093C201A5
:1014C0000E94902BA1C080911D018983EA828091A6
:1014D000C20198CE40E250E06FEF70E0C8010E9478
:1014E000363492C08B81823069F1E8F4882309F1A7
:1014F000813009F089C08C819AE0F92E6E01B1E249
:10150000CB0ED11CF6012F2D11922A95E9F7B601C9
:101510000E947D2E8983F601DE01129601900D92C4
:10152000FA94E1F771C0833061F1843009F44BC063
:101530006BC080E2D8011D928A95E9F788E0898323
:101540008A8362C06C818AE0FE013596DE01919645
:1015500001900D928A95E1F7683070F43AE0639F4C
:10156000B00111246F577F4F4AE050E0CE018196C1
:101570000E94623380E001C08FEF89830E94CF1AFE
:1015800043C06C81CE0181962AE0DC011D922A9530
:10159000E9F7683060F4BAE06B9FB00111246F5234
:1015A0007F4F4AE050E00E941A3380E001C08FEF85
:1015B00089838AE0FE01B196DE01129601900D92B8
:1015C0008A95E1F721C06C818AE0FE013596DE0143
:1015D000919601900D928A95E1F7683070F4EAE0F7
:1015E0006E9FB00111246F527F4F4AE050E0CE0150
:1015F00081960E94623380E001C08FEF89830E9450
:10160000761A02C08FEF89838091D501843009F06A
:10161000F7C98091E9008F702091EC00922F9170B2
:1016200020FD90E8F92EF82A82E08093E90080916D
:10163000E80080FF0CC040E050E060E270E0C801CC
:101640000E94DA178091E8008E778093E8008F2D52
:101650008F708093E900D4C909BD19BD09B400FE9B
:10166000FDCF8091D8008F7D8093D8008091E000DD
:1016700082608093E0008091E00081FDFCCF0E94B9
:10168000ED20BFEFE3ECF9E0B150E040F040E1F7CE
:1016900000C00000BCC986E290E00E942A331B8291
:1016A0001C821D828E83B0CF2D32314008F0C0CB1A
:1016B000FCCB2D32314008F00FCC4BCC8F929F9257
:1016C000AF92BF92CF92DF92EF92FF920F931F9350
:1016D000CF93DF9300D000D0CDB7DEB7FC0180817F
:1016E000918123813481232B31F09F3F31F491E0AC
:1016F0008F3F19F403C091E001C090E090FDD3C684
:101700007F0161E0CF010E9453308C01D701129616
:101710008C91811105C0F701828181113EC0BEC04C
:1017200080911B0190911C010196A9F331E9C32E10
:1017300033E0D32EA12CB12C9924939480911B01DA
:1017400090911C018A159B0534F3D60116968C9155
:1017500016978823D9F019968D919C911A9708179E
:10176000190739F480918F03909190030817190796
:1017700069F0F601978614870387C6010E945E2CE4
:10178000C60106960E94172C10928E03FFEFAF1A27
:10179000BF0A26E1C20ED11CD1CFC80182519F459C
:1017A000409708F097C08FEF93E00E942A33811191
:1017B0007FC02EEED22ED00E01E211E0DD2071F0BE
:1017C000011584E0180709F473C0C8010E942A3388
:1017D000811101C0DA940F5F1F4FF0CF19821A8276
:1017E0001B821C82AA24AA9468019FEFC91AD90AF5
:1017F000C8010E942A3389831A82882309F458C0B9
:10180000813009F046C04801A2E08A0E911CC60151
:101810000E942A338A83882309F44AC09FEF980FD5
:10182000933060F46801B3E0CB0ED11CC4010E9478
:101830002A338B8381112DC08601D6CF843011F0DD
:101840006401FACFC4010E942A33B82E6801E4E093
:10185000CE0ED11CC80103960E942A33BB2041F151
:10186000882331F1282F30E021503109A29EA001B8
:10187000A39E500D11248B2D90E00197840F951F8E
:101880000197D0F2AFE9BFE01197F1F700C0000077
:10189000F7CFCE0101960E94A02FCECF0031AFE549
:1018A0001A0709F0B9C581E00E94D2200E941F13D7
:1018B0008091C902877009F4F6C5F70182818823F7
:1018C00009F4F1C58091AD0182FDEDC582E00E9471
:1018D0005026E9C50031FFE51F0711F481E005C07E
:1018E00001312FE51207A1F482E00E94DE20DECF55
:1018F000680187E5D81A9FEFC916D10409F040F4B2
:1019000064E172E08C2D0E947D2E892B09F48BC539
:10191000C80197558F3F910511F008F053C02091F1
:101920001B0130911C012817390724F490931C01E6
:1019300080931B01D70112962C91129736E1389FA4
:101940005001399FB00C1124F501EF56FC4F6F0187
:10195000208B12969C918681992351F112870187E1
:101960008F5F86830E94902BD6011E969C938E9348
:101970001D978091CD0217968C93179790918E03A7
:1019800080918D03892B18968C931897ED91FC917B
:101990001197309741F054966D917C915597C50100
:1019A00089569C4F09951093900300938F030AC0AA
:1019B000882341F08189882329F0C50189569C4FED
:1019C0000E94172C033FFCE51F0759F190F4083DD6
:1019D0008CE51807E9F0093D9CE51907A1F1073DE1
:1019E000ACE51A07B1F506E221EE41EE67ED7CE5C4
:1019F00014C0053FBCE51B0701F1C8F0063FFCE53C
:101A00001F0739F507E225EE46EE66EF7CE505C0D7
:101A100007E225EE45EE68ED7CE5C7010E94832CC8
:101A200047CF06E221EE40EE63EF7CE5F6CF07E21A
:101A300025EE44EE64EF7CE5F0CF06E221EE42EEC7
:101A400065EF7CE5EACF08E221E045EE69ED7CE553
:101A5000E4CFD70112968C91882309F445C11092E6
:101A60008C030330BDE51B0758F40A3FECE51E0765
:101A700060F4C80182509C45449708F01FC105C01E
:101A80000136FDE51F0709F019C10E946D259093ED
:101A9000AD018093AC0100312CE5120709F4CAC0F6
:101AA00008F041C008309CE5190709F4A4C0F0F41F
:101AB0000430BCE51B0709F48CC068F40230FCE577
:101AC0001F0709F482C003301C4509F0E7C080916C
:101AD000AC018260E1C006308CE5180709F483C0D0
:101AE00008F085C08091AC018860D6C00C30ACE5B0
:101AF0001A0709F490C068F40A30ECE51E0709F4EF
:101B00007EC008F084C00E94ED208091AC01806806
:101B1000C3C00E302CE5120709F481C008F086C05E
:101B20008091AC0194C00C3F9CE5190709F47BC07F
:101B300038F50431BCE51B0709F49AC058F40231AA
:101B4000FCE51F0709F47AC008F07EC08091AC0163
:101B50008F7BA2C00A3F8CE51807F1F108F03FC067
:101B600005311C4509F09AC08091AC0182FB222707
:101B700020F991E0922790FB82F990FB83F98CC0C9
:101B80000115BDE51B0709F467C050F48091AD0154
:101B90000E3FFCE51F07C1F108F05BC08D7F65C0FB
:101BA00002308DE5180709F471C008F46DC00136E4
:101BB0001D4509F073C08091AC0184FB222720F9F8
:101BC00091E0922790FB84F967C08091AC0181601D
:101BD00063C08091AC0116C08091AD0116C08091A8
:101BE000AD01826042C08091AC01806155C080919E
:101BF000AC01806251C08091AC0180644DC0809185
:101C0000AC018860846048C0826081602EC0809191
:101C1000AC018E7F41C08091AC018D7F3DC0809131
:101C2000AC01877F39C08091AD0114C08091AC01B7
:101C30008F7E32C08091AC018F7D2EC00E94ED203E
:101C40008091AC018F7728C08091AC01877F8B7F1A
:101C500023C08D7F8E7F09C08091AD01982F909514
:101C600091708E7F892B90FB81F98093AD0116C016
:101C70000E94ED208091AC0187FB222720F991E0A2
:101C8000922790FB87F908C061E001C060E08EE018
:101C900090E00E943E3302C08093AC016091AC01A1
:101CA0001091AD0184E090E00E943E33612F82E20A
:101CB00090E00E943E330E94ED20FACD80918D038A
:101CC0000631BCE51B0741F58A7A91E009F490E002
:101CD0009093C701882311F065E301C069E284E7AE
:101CE00092E00E94C52B15C006311C4509F02DC19C
:101CF0008091C701882309F4D4C385E3E4E7F2E0C7
:101D00009281891301C012823196B2E0EA37FB0753
:101D1000B9F70E940C26CCCD82720C3CECE51E0774
:101D200009F4C2C008F045C0063C2CE5120709F4CE
:101D3000A7C0D8F4033CACE51A0709F497C030F407
:101D4000023CECE51E0709F46CC0CEC0043CFCE587
:101D50001F0709F490C0053C2CE5120709F0C4C028
:101D60004DE059E266E179E2A3C0093C9CE5190720
:101D700009F490C078F4073CBCE51B0709F485C062
:101D8000083CECE51E0709F0AFC041E059E265EF01
:101D900078E28EC00A3CFCE51F0709F480C00B3CCA
:101DA0002CE5120709F0A0C046E557E267E677E2A6
:101DB0007FC0013D8CE5180709F486C0A0F40E3CF5
:101DC000ACE51A0709F47AC008F475C00F3CECE5DD
:101DD0001E0709F476C0003DFCE51F0709F084C02A
:101DE0006EE089E079C0043D2CE5120709F472C069
:101DF00068F4023D9CE5190709F469C0033DACE5B0
:101E00001A0709F071C061E088E16BC0053DBCE5CF
:101E10001B0709F464C00D35EDE51E0709F448CD34
:101E200063C08091060280FF1BC08E7F80930602F4
:101E30006091060270910702809108029091090258
:101E40000E9444271092E701FFEF20E782E0F15063
:101E500020408040E1F700C000000E94ED1B28CD2B
:101E600081608093060261E086953BC04AE559E2B5
:101E700063E679E21DC043E659E26AE579E218C0FB
:101E800046E159E26DE079E213C045EF58E261E0C6
:101E900079E20EC04DED58E269EE78E209C049EEF4
:101EA00058E26DED78E204C047E657E266E577E276
:101EB0000E94D11BFDCC61E081E013C065E082E0AF
:101EC0000BC068E086E008C064E18FE005C067E110
:101ED00085E102C062E289E10E94BF1BE9CC61E0BA
:101EE00083E20E941F29E4CC0A359DE5190741F1E0
:101EF00050F40115BCE51B07A9F00E3D1C4529F562
:101F00000E948925D5CC0B35FDE51F07D9F00C358E
:101F10001D45D9F48091AD0182FB882780F991E0BD
:101F2000892711C00E94ED208FEF94E3ACE081502F
:101F30009040A040E1F700C000000E943E2BB8CCCA
:101F400081E001C080E00E946D26F70186819781C3
:101F50000097C9F4D70112968C9112970D911C919C
:101F6000882349F0C8010E942D1ED82E682FC80171
:101F70000E94A12004C0C8010E947120D82EB8017F
:101F80008D2D0E94612E0E94D3238C01F701D280F7
:101F9000C580C2949FE0C9228091C9028770B9F0C0
:101FA000DD20A9F0812F807F803421F080E2800F36
:101FB000883068F08091AD0182FD09C082E00E9406
:101FC00050268091C9028770BB24B3948111B12C33
:101FD000A12EA2948FE0A8228A2D90E08C3091054A
:101FE00008F0F5C1FC01EC59FF4F0C94D233812F5E
:101FF000807F1F70882311F01295107FDD20B9F0CB
:10200000112309F4D1C180E2800F883010F0011152
:1020100006C090918D03192B10938D0305C09091EC
:102020008E03192B10938E030E940C26BDC1802FA6
:102030000E94A021112309F4CAC180E2800F8830D8
:1020400060F1002351F1812F0E94FE2529C0812FCC
:10205000807F1F70803211F01295107F002321F0D5
:10206000013009F45EC069C08091AD0182FF1BC0E0
:10207000DD2069F0112339F090918D03192B109315
:102080008D030E940C2680E00E94D821A0C180E030
:102090000E94A021112309F49AC1812F0E940526D4
:1020A0000E940C2694C1DD2031F1CC20F1F0F1E04A
:1020B000CF120FC08091CD02182B181709F487C1D9
:1020C0000E94902B9093CC028093CB021093CD0270
:1020D0007EC125E0C21209C00E94F3258091C6028C
:1020E0001817A9F11093C60232C08091CD02812B3E
:1020F0000E9496216CC1CC2051F081E0C8120DC025
:1021000080918D03812309F462C10E94A0260E9460
:10211000F325812F0E948F215AC195E0C912F7CF74
:1021200056C1DD2029F0A5E0AC1508F450C10FC060
:10213000B4E0BC1508F44BC1ECCFDD2051F0CC204D
:1021400031F0F701858180FF2FC18F708583812F4A
:10215000CFCFC1102EC1DDCF812F8695869583709C
:1021600019F0813059F033C1DD2019F0C8019370A6
:1021700002C080E090E00E94F52B2FC1DD2019F015
:10218000C801937002C080E090E00E94DF2B25C15F
:10219000802FDD2019F00E945E2A02C00E9497293C
:1021A0000E946D291AC1812F8370A9F5D11013C126
:1021B000402F429546954770440F440F802F8F70F3
:1021C00090E09C01042E01C0220F0A94EAF704FF5C
:1021D00008C08FE090E001C0880F4A95EAF780952B
:1021E00001C080E0169516951370123069F088F4DE
:1021F00090910B02113019F0822B892302C0922B8F
:10220000892B0E94E920E7C0822B90910B0289273D
:10221000F8CF822BF6CFDD2019F0812F817001C01D
:102220008695882309F4D7C0402F4295469547707C
:10223000440F440F802F8F7090E09C01042E01C04A
:10224000220F0A94EAF704FF08C08FE090E001C073
:10225000880F4A95EAF7809501C080E0169516959B
:102260001370123059F078F49091DF01113019F0A9
:10227000822B892309C0922B892B06C0822B909137
:10228000DF01892701C0822B0E94CE20A4C01F70CD
:10229000DD2039F0812F0E94DE20802F0E949621C0
:1022A0009AC0802F0E948F21812F0E94D22093C03C
:1022B000023F61F128F4003F41F0013F01F16FC09E
:1022C000033F59F1043FB9F06AC0DD2079F094E092
:1022D0009C1508F47CC01F7181E090E001C0880F5C
:1022E0001A95EAF79091DF01892721C0A5E0AC1586
:1022F00008F46DC0F0CF8091AD0182FF1BC0DD20DE
:1023000039F0812F8F710E94DE2061C0DD20C9F37A
:10231000812F8F710E94D2205AC0DD2039F01F71A9
:1023200081E001C0880F1A95EAF701C080E00E94A1
:10233000CE204DC0DD20D9F08091C6020E94052636
:102340008091C9028770843039F40E944926812F18
:102350008F710E94D2205EC0B4E0BC1508F45AC050
:102360001F71812F0E94DE2063E0812F11C09091A8
:102370008D038091C602892B80938D03E4E0EC15D8
:1023800050F40E9449260E94A02664E0812F8F719C
:102390000E948A263FC081E00E9450263BC0DD207B
:1023A00029F0CC2009F4ADCF802F6ECECC2009F4DB
:1023B000AFCF093349F4FFEF27EE83E0F15020401F
:1023C0008040E1F700C00000802F0E94A02188EF2C
:1023D0008A0D843010F40E940B2CBB20B1F0809148
:1023E000C90280FD12C0D70112961C928595859571
:1023F00085950E94DE20C7010E945E0B8091C90274
:102400008595859585950E94D22060E0C7010E9440
:10241000533049C0B12CDFCF0131BFE51B0709F0B4
:1024200067CA82E041CA86E18C9DF0018D9DF00D66
:102430001124EF56FC4F86818130E1F48091140223
:1024400090911502892B09F463CA8091160290912C
:102450001702892B09F45CCA809118029091190225
:10246000892B09F055CA80911A0290911B02892B81
:1024700059F04ECA823009F04BCA809118029091EF
:102480001902892B09F444CA26E12C9DC0012D9D17
:10249000900D11248F569C4FFC01108A0E945E2CD7
:1024A00037CA89E22BCC0F900F900F900F90DF91DD
:1024B000CF911F910F91FF90EF90DF90CF90BF9041
:1024C000AF909F908F9008958091D70187FF11C0A2
:1024D0008091E80082FD05C08091D5018111F8CF7F
:1024E00011C08091E8008B770BC08091D5018823C3
:1024F00049F08091E80080FFF8CF8091E8008E7766
:102500008093E8000895982F973068F59093E9003C
:10251000981739F07091EC002091ED005091F00087
:1025200003C0242F762F50E021FD02C09F5FECCF27
:102530003091EB003E7F3093EB003091ED003D7F1A
:102540003093ED003091EB0031603093EB007093ED
:10255000EC002093ED005093F0002091EE0027FD59
:10256000E5CF80E008958F708093E90081E00895C1
:102570002091DD013091DE012617370748F0611503
:10258000710539F42091E8002E772093E80001C00E
:10259000B901FC0120E06115710579F18091D50147
:1025A0008823F1F18530F1F18091E80083FD3CC092
:1025B0008091E80082FD2EC08091E80080FFEBCF83
:1025C0002091F3008091F20090E0922B611571054B
:1025D00051F08830910538F421912093F100615039
:1025E00071090196F3CF21E0089709F020E080916E
:1025F000E8008E778093E800CECF2111CFCF0AC0BC
:102600008091D501882361F0853061F08091E800E8
:1026100083FD0AC08091E80082FFF2CF80E0089538
:1026200082E0089583E0089581E008950895BC0153
:1026300084E00C94142BBC0183E00C94142B809147
:10264000DF01982F9670963011F4886001C0877F63
:102650000C94CE201F93CF93DF93CDB7DEB7AA970C
:102660000FB6F894DEBF0FBECDBFE7EDF1E08FED02
:1026700091E02091F10021938E179F07D1F780916F
:10268000D801833009F463C030F4813071F08230B6
:1026900009F49DC0B4C08A3009F489C08B3009F4B4
:1026A0006EC0893009F0ABC020C08091D701813A5B
:1026B00009F0A5C08091E800877F8093E8008091B1
:1026C000DB019091DC01892B21F468E08BEC91E037
:1026D00003C060E080E090E070E00E94B81280915A
:1026E000E8008B778093E8008AC08091D70181321F
:1026F00009F085C08091DB019091DC01009719F011
:10270000029709F07CC08091E800877F8093E80001
:102710008091E80082FD05C08091D5018111F8CF3C
:102720006EC02091F3008091F20090E0922B02970E
:1027300031F48091F100813011F0863021F48091E4
:10274000F1008093CA018091E8008B7754C080919A
:10275000D701813A09F053C08091DB019091DC01EF
:10276000892B09F04CC08091E800877F8093E800B6
:102770008091E80080FFFCCF80910C0137C08091F0
:10278000D7018132E1F58091DB019091DC01892B49
:10279000B1F58091E800877F8093E8000E94641281
:1027A0008091D90180930C010E94ED2028C0809176
:1027B000D701813221F58091E800877F8093E8007E
:1027C0000E9464128091DA018093C90118C080913F
:1027D000D701813AA1F48091E800877F8093E800D7
:1027E0008091E80080FFFCCF8091C9018093F100C7
:1027F0008091E8008E778093E8000E9464128091B7
:10280000E80083FFEBC18091D7019091D801492F57
:1028100050E04A30510508F0E1C1FA01E059FF4F9C
:102820000C94D233803821F0823809F0D7C108C027
:102830008091D3019091D401992389F082600FC0D7
:102840008091DB018F70873008F0C8C18093E90068
:102850008091EB0085FB882780F91092E900909128
:10286000E800977F9093E8008093F1001092F100C8
:102870007CC1282F2D7F09F0B1C1882319F0823047
:1028800061F0ACC18091D901813009F0A7C19330CA
:1028900009F080E08093D4012EC08091D90181118C
:1028A0002AC08091DB018F702FEF280F263008F0AF
:1028B00095C18093E9002091EB0020FF1CC093306C
:1028C00021F48091EB00806214C09091EB00906144
:1028D0009093EB0021E030E0A90102C0440F551FA6
:1028E0008A95E2F74093EA001092EA008091EB00AB
:1028F00088608093EB001092E9008091E800877F68
:102900008093E8000E94641269C1811167C110912F
:10291000D9011F778091E3008078812B8093E300B9
:102920008091E800877F8093E8000E946412809184
:10293000E80080FFFCCF8091E30080688093E30093
:10294000111102C082E001C083E08093D50146C12D
:102950008058823008F042C12091D9013091DA01CB
:102960002C3D53E0350779F583E08A838AE2898339
:102970004FB7F894DE01139620E03EE051E2E32FDA
:10298000F0E050935700E49120FF03C0E295EF7010
:102990003F5FEF708E2F90E0EA3010F0C79601C0D5
:1029A000C0968D939D932F5F243149F74FBF80913F
:1029B000E800877F8093E8006AE270E0CE0101962C
:1029C0000E94B812C0C08091DB019091DC01432FBE
:1029D000552743305105B1F068F44130510509F4F1
:1029E0000CC14230510509F0F9C08BE590E0E5E0FB
:1029F000F3E057C04132510589F14232510509F4E3
:102A00003CC0ECC0C901992781309105B9F070F044
:102A100082309105D9F0039709F0E0C0E2E7F3E0D6
:102A2000E4918E2F90E0E2E7F3E038C0E0ECF3E0D1
:102A3000E4918E2F90E0E0ECF3E030C0E0EBF3E0C7
:102A4000E4918E2F90E0E0EBF3E028C0E0E9F3E0C2
:102A5000E4918E2F90E0E0E9F3E020C0833091050F
:102A600008F0BCC0880F991FFC01E35BFE4F01908A
:102A7000F081E02D89E090E014C08330910508F0EA
:102A8000ADC0FC01EE0FFF1FE95BFE4F0190F0812E
:102A9000E02DDC01AC5BBE4F8C9190E0009709F417
:102AA0009DC02091E800277F2093E8002091DD0160
:102AB0003091DE012817390708F4C90140E000977A
:102AC00089F12091D501222309F43DC02530D9F1A7
:102AD0002091E80023FD37C02091E80022FD2FC09F
:102AE0002091E80020FFEBCF4091F3002091F2000D
:102AF00030E0342B009759F02830310540F44491F0
:102B00004093F100319601972F5F3F4FF3CF41E0A3
:102B10002830310509F040E02091E8002E7720931D
:102B2000E800CDCF4111CDCF0AC08091D5018823D7
:102B300051F0853041F08091E80083FD04C0809120
:102B4000E80082FFF2CF8091E8008B778093E80065
:102B500045C0803809F042C08091E800877F8093AB
:102B6000E8008091D6018093F1008091E8008E7793
:102B7000C7CE811133C08091D9019091DA01992794
:102B8000029764F58091E800877F8093E8001091B8
:102B9000D9011093D6010E946412111106C08091D0
:102BA000E30087FD02C081E001C084E08093D5018D
:102BB00042E061EC81E00E94831242E261EC84E039
:102BC0000E94831242E261EC82E00E94831242E2A0
:102BD00060EC83E00E9483128091D5018091E8002F
:102BE00083FF10C08091E800877F8093E800809188
:102BF000EB0080628093EB0005C082E190E0E0E6AC
:102C0000F3E04FCFAA960FB6F894DEBF0FBECDBF4C
:102C1000DF91CF911F9108951F920F920FB60F92DF
:102C200011242F933F934F935F936F937F938F93D1
:102C30009F93AF93BF93CF93DF93EF93FF93C09195
:102C4000E900CF708091EC00D82FD17080FDD0E8E2
:102C50001092E9008091F000877F8093F0007894D3
:102C60000E942A131092E9008091F00088608093FE
:102C7000F000CD2BCF70C093E900FF91EF91DF9171
:102C8000CF91BF91AF919F918F917F916F915F9104
:102C90004F913F912F910F900FBE0F901F9018955D
:102CA000E8EDF0E080818E7F80831092E200109248
:102CB000DA001092E100A0EEB0E08C9181608C937C
:102CC00080818F77808319BCA7EDB0E08C918E7FD7
:102CD0008C9380818F7E80831092C8010895CF925B
:102CE000DF92EF92FF920F931F93CF93DF93C8ED84
:102CF000D0E088818F7E8883E7EDF0E0808181607D
:102D0000808384E082BF81E08093C80188818E7FC8
:102D1000888302EE10E0F80110821092DA0081EE52
:102D2000C82ED12CF601108288818F778883888104
:102D30008068888388818F7D888319BC1092D50133
:102D40001092D6011092D4011092D30190EEE92E88
:102D5000F12CF70180818B7F80838881816088835B
:102D600042E060E080E00E948312F60180818E7F65
:102D70008083F80180818160808380818860808386
:102D8000F70180818E7F8083888180618883DF91D5
:102D9000CF911F910F91FF90EF90DF90CF9008950A
:102DA0001F920F920FB60F9211242F933F934F93C0
:102DB0005F936F937F938F939F93AF93BF93EF93A3
:102DC000FF938091E10082FF09C08091E20082FFC1
:102DD00005C08091E1008B7F8093E1008091DA0053
:102DE00080FF2AC08091D80080FF26C08091DA0041
:102DF0008E7F8093DA008091D90080FF18C080E137
:102E000089BD82E189BD09B400FEFDCF81E08093D8
:102E1000D5018091C80181110FC00E9450160E94F7
:102E20006F168091E20084608093E20005C019BCB7
:102E30001092D5011092C8018091E10080FF17C067
:102E40008091E20080FF13C08091E2008E7F80932A
:102E5000E2008091E20080618093E2008091D800DE
:102E600080628093D80019BC85E08093D501809161
:102E7000E10084FF30C08091E20084FF2CC080E13B
:102E800089BD82E189BD09B400FEFDCF8091D800E3
:102E90008F7D8093D8008091E1008F7E8093E10048
:102EA0008091E2008F7E8093E2008091E200816059
:102EB0008093E2008091D601882311F084E007C05E
:102EC0008091E30087FD02C081E001C083E0809330
:102ED000D5018091D5018091E10083FF27C08091C9
:102EE000E20083FF23C08091E100877F8093E100AF
:102EF00082E08093D5011092D6018091E1008E7F0F
:102F00008093E1008091E2008E7F8093E2008091C7
:102F1000E20080618093E20042E060E080E00E9495
:102F200083128091F00088608093F000FF91EF9110
:102F3000BF91AF919F918F917F916F915F914F91D1
:102F40003F912F910F900FBE0F901F9018952091D9
:102F5000E4003091E50095E64091EC00842F81700B
:102F600040FF23C08091E80080FD1DC08091D50105
:102F7000882399F0853099F08091EB0085FD11C090
:102F80004091E4005091E5002417350729F3915052
:102F900011F09A01E1CF84E0089582E0089583E082
:102FA000089581E0089580E008954091E80042FF8F
:102FB000DDCF0895EF92FF920F931F93CF93DF938E
:102FC0007C018B010E94A717811119C0E70101152F
:102FD0001105A1F08091E80085FD0AC08091E8000C
:102FE0008E778093E8000E94A717882381F307C09B
:102FF00089918093F10001501109E9CF80E0DF91C0
:10300000CF911F910F91FF90EF90089508950F9326
:103010001F93CF93DF9300D000D01F92CDB7DEB7C0
:103020008C019093DF028093DE02011580E2180785
:1030300038F5802F0E94A021C801805E9109089771
:1030400018F00115110571F4C8010E94E4320F90C7
:103050000F900F900F900F90DF91CF911F910F91D4
:103060000C948F21C8010E94E4320F900F900F90B2
:103070000F900F90DF91CF911F910F910C947E21B3
:103080008EEF89838A831B820E94902B8160782F28
:103090009D838C8349815A816B818D810E948A3006
:1030A0000F900F900F900F900F90DF91CF911F9185
:1030B0000F9108950F931F93CF93DF938C01EB0132
:1030C00064E172E08C2F0E947D2E892B09F040C0B4
:1030D000DD27C45FDD4F8881F801108218828330BC
:1030E00079F048F4813041F1823091F580911602F7
:1030F0009091170209C0843051F08530E9F028C062
:1031000080911802909119020097B1F01BC0809134
:103110001A0290911B020097A9F420911402309199
:10312000150280911602909117022115310541F088
:10313000009741F4C90106C08091140290911502D4
:10314000009731F0DF91CF911F910F910C940718E8
:10315000DF91CF911F910F9108950F931F93CF93FC
:10316000DF9300D000D01F92CDB7DEB78C019093D3
:10317000DF028093DE02011580E21807F8F4C8012F
:10318000805E9109089718F00115110531F4C80106
:103190000E94E4320E94962105C0C8010E94E432D8
:1031A0000E948521802F0F900F900F900F900F900D
:1031B000DF91CF911F910F910C94D8218EEF8983CD
:1031C0008A8381E08B830E94902B8160782F9D837E
:1031D0008C8349815A816B818D810E948A300F9046
:1031E0000F900F900F900F90DF91CF911F910F9143
:1031F0000895CF93DF93EC010E94AD18CE01DF91CB
:10320000CF910C9407180F931F93CF93DF938C01EA
:10321000862F64E172E00E947D2E892BD1F4C0914B
:103220001402D09115022097A1F0F801808183301B
:1032300039F4CE010E94F918CE010E94F91802C09B
:10324000843038F0CE01DF91CF911F910F910C9413
:10325000F918DF91CF911F910F9108950F931F934C
:10326000CF93DF938C01EB0164E172E08C2F0E941D
:103270007D2E892B09F06DC0DD27F801808181301A
:1032800041F49185911115C09285992391F082E0C6
:1032900010C0823049F4F8018185811107C0828510
:1032A000811106C083E005C086E003C085E001C04F
:1032B00084E0C45FDD4F88838330B1F028F481302F
:1032C00071F0823031F045C08430A9F0853079F159
:1032D00040C080911602909117020097A1F580914D
:1032E00014029091150220C0809118029091190249
:1032F0000097E9F028C080911A0290911B02009774
:1033000011F58091140290911502009749F00E94E6
:10331000F9188091160290911702009781F013C05E
:103320008091160290911702009799F00CC080913D
:10333000140290911502009761F00E94F918809193
:10334000140290911502DF91CF911F910F910C946F
:10335000AD18DF91CF911F910F9108950F931F9397
:10336000CF93DF9300D01F92CDB7DEB78C01809151
:10337000EA0181110AC09E012F5F3F4F4AEF6FEFB4
:103380000E9488278A818093EA01F8018481813034
:1033900051F028F0823061F44091EA010AC0809136
:1033A000EA0140E007C06091EA0140E080E003C02C
:1033B00040E080E060E00E941927F801848190E0FD
:1033C000019663E070E00E949C3384830F900F901D
:1033D0000F90DF91CF911F910F910895CF93DF93BD
:1033E000EC01E6E0F2E0438162818C810E941E28BC
:1033F0008C818F5F8C83DF91CF910895CF93DF9382
:10340000EC01EC81F0E0E253FC4F4491E6E0F2E0A5
:10341000628181810E941E288C818F5F8C83DF9165
:10342000CF9108950F931F93CF93DF93833058F577
:10343000633048F5433038F521159CE5390731F400
:10344000E0911D01F0911E01EF2BE9F08901C42FDD
:10345000D0E0CC0FDD1F96E0699FC00DD11D112477
:1034600092E1899FC00DD11D1124612FCE01879655
:103470000E943E33602FCE018896DF91CF911F913D
:103480000F910C943E33DF91CF911F910F910895CE
:103490000F931F93CF93DF93833008F56330F8F4D5
:1034A0004330E8F4C42FD0E0CC0FDD1F26E0629F4C
:1034B000C00DD11D112432E1839FC00DD11D1124F7
:1034C000CE0187960E942A3390E0182F0027CE0164
:1034D00088960E942A339801282BC90102C080E0F7
:1034E00090E0DF91CF911F910F910895CF92DF92DD
:1034F000EF92FF920F931F93CF93DF93CDB7DEB779
:103500002A970FB6F894DEBF0FBECDBF80E5EEE17F
:10351000F2E0DF011D928A95E9F788E3E6E4F3E043
:10352000DF011D928A95E9F78EE1C82E82E0D82E40
:103530007F0101ED10E0F701D182C0824AE050E046
:10354000B801CE0101960E941A3388E0FE0131963F
:10355000D60101900D928A95E1F789859A85D70168
:1035600013969C938E931297BAE0CB0ED11CE7E092
:10357000EE0EF11C065F1F4F0132F1E01F07D9F676
:103580002A960FB6F894DEBF0FBECDBFDF91CF9164
:103590001F910F91FF90EF90DF90CF9008958F9241
:1035A0009F92AF92BF92CF92DF92EF92FF920F93D2
:1035B0001F93CF93DF93CDB7DEB72A970FB6F8945A
:1035C000DEBF0FBECDBF01E913E0E12CF12C83E09B
:1035D000C82E89E1D82E9EE2A92E99E1B92E2AE5BE
:1035E000822E28E1922EF801D182C082B382A2827B
:1035F00095828482F58AE48ABE016F5F7F4F8E2DAB
:103600000E947D2E892B29F489859A85F801938B58
:10361000828BFFEFEF1AFF0A0A5E1F4F88E0E81661
:10362000F10409F72A960FB6F894DEBF0FBECDBF9E
:10363000DF91CF911F910F91FF90EF90DF90CF908E
:10364000BF90AF909F908F900895AF92BF92CF920E
:10365000DF92EF92FF920F931F93CF93DF93B82ED9
:10366000A62EC090DF0180910B02C82AC7E0D0E0EF
:10367000D12CE12CF12CD701C6010C2E04C0B6953B
:10368000A795979587950A94D2F780FF13C04A2D86
:103690006B2D8C2F0E94702F8C018130910551F081
:1036A0000E94AD188FE39CE90197F1F700C000007C
:1036B000C80111C02197F8F64A2D6B2D80E00E94B9
:1036C000702FEC010E94AD188FE39CE90197F1F790
:1036D00000C00000CE010E94071881E0DF91CF9169
:1036E0001F910F91FF90EF90DF90CF90BF90AF9020
:1036F0000895CF93C82F811102C06FEF01C065E418
:1037000083E290E00E943E33C11102C06FEF01C01E
:103710006EE384E290E00E943E33C11102C06FEF7D
:1037200001C061E585E290E0CF910C943E3380E0EA
:103730000E94791B60E086E290E00E943E330E9486
:10374000CA2E0E94512E81E00C94791B83E290E0F6
:103750000E942A33853481F484E290E00E942A3367
:103760008E3351F485E290E00E942A3391E0813556
:1037700009F090E0892F01C080E081700895909158
:10378000060290FF04C09695981740F003C081117F
:1037900005C090E0961710F40C94632961E00C9436
:1037A0001F29882311F0FA0101C0FB0109946091DF
:1037B0000602669570E04BE050E08DE091E00E94DB
:1037C0001C34892B19F481E08093E7010E94902B2F
:1037D0009093E1018093E00108950F931F93CF939D
:1037E000DF93CDB7DEB76B970FB6F894DEBF0FBE91
:1037F000CDBF8091060280FF0AC004EC13E09E0159
:103800002F5F3F4FAE01445E5F4FB9010BC0EBEE3F
:10381000F1E0118210821282339682E0E630F807DE
:10382000C1F7EBCFF801849190E0DC01AA0FBB1F38
:103830008A0F9B1FDC01A551BE4F8D919D91AC91CC
:10384000FB0181939193A193BF010F5F1F4FE41779
:10385000F50741F7269A85B18F7B95B190646FB7D4
:10386000F8942417350799F0F90171919F01E8E068
:1038700095B9000000C077FF85B9770F000000C040
:1038800000C000C085B900C0EA9591F7EACF6FBFCC
:103890008FE594E00197F1F700C000006B960FB63A
:1038A000F894DEBF0FBECDBFDF91CF911F910F9176
:1038B0000895EF92FF920F931F93CF93DF938C01A4
:1038C000CBEED1E0E12CF12CF8018481F4E0EF168D
:1038D000F1041CF4882351F002C0811107C040910B
:1038E00009024B3F08F04AEF9E0102C09E0140E0F2
:1038F00060910802809107020E9488278FEFE81AE2
:10390000F80A239699E0E916F104F1F60E94ED1BFE
:10391000F801848190E00196817099278483DF917A
:10392000CF911F910F91FF90EF9008958F929F92EA
:10393000AF92BF92CF92DF92EF92FF920F931F93BD
:10394000CF93DF93EC014C81042F10E09801D80154
:103950000E94E7339B01AC010E94FD336B017C01A7
:10396000E0E2F0E0E01BF10BA5E5B0E09B01AC016B
:103970000E94FD334B015C019F01DF010E94DF3398
:103980009B01AC010E9408349B01AC012C0D3D1D34
:103990004E1D5F1DC501B4010E94B033822FF22E6F
:1039A00099E2921728F093E0299F900111240DC00D
:1039B00025E530E0281B3109C901880F991F280F20
:1039C000391F37FF02C02F5F3F4F35952795122FC4
:1039D00010959BEEC92E91E0D92E00E085E5E82EEA
:1039E000EF1801FD02C08E2D01C08F2D412F1B3F0E
:1039F00008F04AEF9601609108020E9488270F5F45
:103A000083E0C80ED11C093061F70E94ED1B8C8148
:103A1000811102C091E003C0803219F49FEF9093AE
:103A20001A0190911A01890F8C83DF91CF911F9118
:103A30000F91FF90EF90DF90CF90BF90AF909F904D
:103A40008F9008950F931F93CF93DF93CBEED1E028
:103A5000FE01118210821282339682E0E630F8076E
:103A6000C1F700E010E08091E901082E000C990BED
:103A700008171907ACF080911901082E000C990B5A
:103A8000801791076CF0409109024B3F08F04AEF14
:103A90009E0160910802809107020E94882703C05E
:103AA000198218821A820F5F1F4F23960930110561
:103AB000D1F60E94ED1B809118019091E901980FB9
:103AC0009093E90120911901280F209319011216F2
:103AD00014F498301CF0819580931801DF91CF91F8
:103AE0001F910F910895BF92CF92DF92EF92FF92B4
:103AF0000F931F93CF93DF93FC01828180FF03C05C
:103B0000DD24DA9402C0DD24D3940BEE11E0C0E092
:103B1000D0E029E0B22EF80111821082128294E0E6
:103B2000E92EF12CC12C8091E8018C0D8A302CF00B
:103B30006B2D0E947A33892F02C087FD875F082E84
:103B4000000C990BC817D907A9F4809109028E9D22
:103B5000A0018F9D500D112455954795559547957A
:103B60004B3F08F04AEF98016091080280910702EC
:103B70000E948827CD0CF1E0EF1AF108A1F62196FA
:103B80000D5F1F4FC930D10531F60E94ED1B8091AA
:103B9000E80191E0D91206C0811102C088E007C097
:103BA000815005C090E00196BE010E949C33809335
:103BB000E801DF91CF911F910F91FF90EF90DF907F
:103BC000CF90BF900895EF92FF921F93CF93DF9312
:103BD000EC018BEEE82E81E0F82E10E04091090216
:103BE0004B3F08F04AEF8C81970160910802810FEA
:103BF0000E948827145E83E0E80EF11C1C3F71F7D9
:103C00000E94ED1B9A818C8190FF02C08F5F01C0E2
:103C100081508C83DF91CF911F91FF90EF90089599
:103C200080E090E00E94F52B80E090E00E94DF2B86
:103C300010928E031092CA020E940C26E8EDF2E068
:103C400086E0DF011D928A95E9F71092D202109268
:103C5000D1021092D3020C946D29CF92DF92FF9281
:103C60000F931F93CF93DF936C010091DF0180913D
:103C70000B02082BC7E0D0E010E0C8010C2E02C0F8
:103C8000959587950A94E2F780FD04C02197A8F7DF
:103C9000F12C09C0FC2EB6018C2F0E94612E0E94CF
:103CA000D323019799F38F2DDF91CF911F910F911E
:103CB000FF90DF90CF900895CF93DF93EC010E94A7
:103CC0002D1EBE010E94612E0E94D323DF91CF9151
:103CD0000895FC0186819781009719F00E94D323F3
:103CE00004C0808191810E945C1E292F2F70E92FD2
:103CF000E295EF704E2F50E0FA013297EE30F10569
:103D0000B8F4E658FF4F0C94D233803F99F018F482
:103D1000883E70F40FC0843F59F40CC0883E50F0C8
:103D2000813F31F407C0822F869586958695089548
:103D300080E0089581E008959F92AF92BF92CF9264
:103D4000DF92EF92FF920F931F93CF93DF93CDB744
:103D5000DEB765970FB6F894DEBF0FBECDBF8C01FE
:103D600085E0F801DE01519601900D928A95E1F708
:103D7000F801E28090917C0260917D0240917F0287
:103D8000509180024115510531F06F3F31F481E0CF
:103D90009F3F19F403C081E001C080E0F82FF1706B
:103DA0009F2E80FD4EC1F80130812181C380D480D7
:103DB0007CE7A72E72E0B72EF0907E02F601E41B9E
:103DC000F50BFF2009F4EFC080918102E83CF1057A
:103DD00008F0AAC0482F407F09F05AC062131BC0E8
:103DE000931319C06091820270918302F801468199
:103DF00057816417750779F4FE2CE1100CC08F70A1
:103E0000806180938102C5010E945E0B80918102D6
:103E1000F801858353C1CD2831F02F3F31F481E083
:103E20003F3F19F403C081E001C080E080FD03C082
:103E300081E08E2502C080E090E0F82FF170FF2E27
:103E400080FF1CC08091C50240918402841709F450
:103E500013C190E0FC0153E0EE0FFF1F5A95E1F70C
:103E6000EB57FD4F5181251306C05081531303C0FA
:103E70005281E51203C001968770E8CFFE2CEE2038
:103E800009F41CC18091810281608093810258C035
:103E900062130FC093130DC04091820250918302B0
:103EA000F801268137814217530719F4EE2009F4EF
:103EB000A7C0C8010E94691E882381F1EE2071F11C
:103EC00020918102822F82958F7090E00297A4F05A
:103ED00080917C0290917D029A8789871B86DD867E
:103EE000CC862E878091820290918302988B8F8757
:103EF000CE0109960E945E0B88E0F801ACE7B2E0C3
:103F000001900D928A95E1F70E94B0260AC06217CF
:103F1000C9F0C8010E94691E811127C0C8010E9412
:103F20005E0BFF24F394CAC0482F407F81F78CE7D3
:103F300092E00E945E0B88E0F50111928A95E9F704
:103F4000F12CBCC09313E5CF4091820250918302C3
:103F5000F8012681378142175307D9F6E110D9CFEE
:103F60008583C8010E945E0B66C0EE20B9F22091E5
:103F70008102822F82958F7090E002970CF4BCCF63
:103F800080917C0290917D029A8389831B82DD82DD
:103F9000CC822E83809182029091830298878F83B6
:103FA000CE010196A7CFE83CF10508F044C0FE2CF5
:103FB000EE2009F4B3CF621330C093132EC02091CA
:103FC000820230918302F801868197812817390790
:103FD00021F59091810290FD17C0892F82958F70F5
:103FE000282F30E02115310579F095832F303105E8
:103FF00041F08F5F982F9295907F85818F70892BEC
:104000008583C8010E945E0B88E0F801ACE7B2E04E
:1040100001900D928A95E1F751C0C8010E94691E76
:1040200081116ACF80918102816080938102C801F1
:104030000E945E0B43C088E0F50111928A95E9F772
:104040003DC0EE2009F46ACFC8010E94691EF82E17
:10405000882309F463CF88E0F801ACE7B2E001906F
:104060000D928A95E1F780917C0290917D020E94E9
:104070005C1E0E94B02622C0398B2A8B89899A89BE
:104080000E945C1E292F22952F70223028F49F70E9
:1040900039F0811105C00BC0243028F49F7049F419
:1040A000805E883020F0C8010E945E0B9F2CF92CA6
:1040B00005C0F8019581907F99F7F9CF8F2D65960E
:1040C0000FB6F894DEBF0FBECDBFDF91CF911F9129
:1040D0000F91FF90EF90DF90CF90BF90AF909F90A7
:1040E00008959E3F61F1292F220F920F890F682FAB
:1040F000669566956695982F977083E0689FB001E6
:10410000112440E050E080E0FB01E40FF51FE2598C
:10411000FD4F208130E0092E02C0369527950A9484
:10412000E2F721703327042E01C0220F0A94EAF728
:10413000822B4F5F5F4F4330510531F7089580E088
:1041400008959E3F51F1292F220F920F890FE82FDA
:10415000E695E695E695877051E001C0550F8A9582
:10416000EAF783E0E89FF0011124E259FD4F20E0D7
:1041700030E070E04081CB01022E02C09695879519
:104180000A94E2F78170819584278523842781939F
:104190002F5F3F4F2330310569F708958093DF018A
:1041A0000C94101E21E030E001C0220F8A95EAF73E
:1041B00020958091DF0182230C94CE2021E030E015
:1041C00001C0220F8A95EAF78091DF01822B0C94BF
:1041D000CE2080930B020C94101E10928D0386E06B
:1041E000E6E7F2E0DF011D928A95E9F70C94101ED4
:1041F000CF93DF93CDB7DEB760970FB6F894DEBFED
:104200000FBECDBF29873A874B875C876D877E8736
:104210008F87988BCE0109960E949C1E811151C0F8
:1042200088E0FE013996DE01119601900D928A9583
:10423000E1F779856A854C855D854115510531F039
:104240006F3F31F481E07F3F19F403C081E001C08A
:1042500080E080FD36C0A0918402B0E0CD010196DF
:10426000877099272091C50230E08217930781F16A
:1042700079836A835D834C8393E0AA0FBB1F9A9571
:10428000E1F7AB57BD4F98E0FE01319601900D92DA
:104290009A95E1F7809384020E94A62612C028E036
:1042A000829FC00111248B579D4F0E949C1E882322
:1042B000E1F08091C50290E0019687709927809384
:1042C000C5028091C502909184028913E8CF0DC088
:1042D0000E94ED20109284021092C502ECE7F2E0F9
:1042E00088E0DF011D928A95E9F760960FB6F89491
:1042F000DEBF0FBECDBFDF91CF910895882321F09F
:104300000E94FE250C940C260895882339F0909184
:104310008E03892B80938E030C940C26089588239A
:1043200021F00E9405260C940C260895882339F06C
:1043300090918D03892B80938D030C940C26089506
:104340008823A9F19CEF980F913A60F4E4E7F2E03A
:104350009281891301C01282319692E0EA37F907FF
:10436000B9F70DC090E2980F983058F4877091E03B
:1043700001C0990F8A95EAF7892F0E9405260C94AF
:104380000C269BE5980F933020F480E090E00C948D
:10439000F52B98E5980F973120F480E090E00C948D
:1043A000DF2B803F20F00E9497290C946D290895FF
:1043B000CF93882309F459C0C82F8CEF8C0F813A12
:1043C000F8F4E6E7F2E08CE792E02191C21721F0E1
:1043D0008E179F07D1F70EC0E4E7F2E08AE792E07C
:1043E0002281C21301C0128231968E179F07C1F736
:1043F0000E940C266C2F84E792E00E94C52B10C00F
:1044000080E28C0F883078F4C77081E090E001C0C2
:10441000880FCA95EAF790918D03892B80938D03BD
:10442000CF910C940C26EBE5EC0FE33040F4F0E078
:10443000ED5AFE4F808190E0CF910C94F52BE8E58A
:10444000EC0FE73150F4F0E0EE0FFF1FEA5AFE4F99
:1044500080819181CF910C94DF2BC03F30F08C2F65
:104460000E945E2ACF910C946D29CF9108951F93DD
:10447000CF93DF93182F893319F0C0E0D0E002C04A
:10448000C0E5D0E0812F0E94D821209741F08FE92C
:104490009FE00197F1F700C000002197F6CF812F30
:1044A000DF91CF911F910C94A02180E0089590910D
:1044B000AC0192FF0DC0282F2871283019F4877F96
:1044C000846006C0282F2471243011F48B7F88600B
:1044D00093FF0DC0282F2871283119F4877E84613D
:1044E00006C0282F2471243111F48B7E886120911D
:1044F000AD0120FF0DC0382F3871383019F4877F97
:10450000816006C0382F3171313011F48E7F8860A0
:1045100021FF0DC0282F2871283119F4877E816171
:1045200006C0282F2171213111F48E7E886194FDFF
:10453000877E0895F894E82FE295EF70F0E031A1BE
:10454000282F2F7081E090E001C0880F2A95EAF7AC
:10455000982F9095932391A392A1892B82A378946D
:1045600008959F92AF92BF92CF92DF92EF92FF9207
:104570000F931F93CF93DF9300D01F92CDB7DEB779
:1045800019821A821B8208E211E0AE014F5F5F4F71
:104590007A015A01CC24C394D12CF80180818F3F39
:1045A00009F441C0F894E82FE295EF70F0E021A102
:1045B0008F70A60102C0440F551F8A95E2F7CA0109
:1045C000922F982B91A392A18095892382A378940E
:1045D00000C0EBE2F1E0912C31E021912F3F89F016
:1045E000A22FA295AF70B0E090968C9190E02F70C2
:1045F00002C0959587952A95E2F780FD02C0832F2A
:1046000001C080E0982A330F51E0EE32F50729F718
:10461000F80180818F3F11F00E949A22F0EAFA950A
:10462000F1F7F70190820F5F1F4FFFEFEF1AFF0ABC
:1046300021E00B32120709F0B0CF43E050E0B501A2
:104640008EEA91E00E94293401E0009709F400E02D
:10465000892B91F089819A81AB818093AE019093EF
:10466000AF01A093B00181E08093D0020E94902B13
:104670009093CF028093CE028091D0028823B1F034
:104680008091CE029091CF020E94752B059770F019
:104690008091AE018093C4018091AF018093C501E8
:1046A0008091B0018093C6011092D00280911B01CD
:1046B00090911C01019651F110E036E1932E1DC03E
:1046C000989EF001999EF00D1124EF56FC4FC28880
:1046D000D388C114D10419F428ECC22ED12C989E91
:1046E0005001999EB00C1124C5018F569C4F7C013E
:1046F000FC01868181110FC01F5F812F90E0209106
:104700001B0130911C0128173907D4F680911F0135
:10471000811111C038C0858596850E94752BC816F9
:10472000D90650F7C7010E945E2CC50189569C4FDF
:104730000E94172CE1CF8091880390918903009704
:1047400011F10E94752B2091E2023091E3022817AB
:104750003907C8F49091860380918703981759F020
:104760000E94A22D1092E3021092E202109289039D
:104770001092880308C00E94242D10928903109281
:1047800088030E94832D802F0F900F900F90DF9150
:10479000CF911F910F91FF90EF90DF90CF90BF903E
:1047A000AF909F900895CF93DF938238910569F180
:1047B000B0F48133910509F46FC048F48932910552
:1047C00009F465C08A32910509F46BC08AC085334B
:1047D000910509F457C089339105B9F082C0833E31
:1047E000910571F138F4803E9105B1F0823E91055A
:1047F00011F177C0863E9105B9F1873E9105C9F167
:10480000843E910509F06DC024C02091AC0120FDCB
:1048100053C021FD51C065C08091AC0180FD46C0F0
:104820008091AD0180FF48C08091AC0184FD50C1F2
:1048300083EE90E04FC18091AC0182FF3AC0F4CF8B
:104840008091AC0182FD35C08091AD0180FD34C006
:10485000EBCF8091AD0181FF35C08091AC0184FD2B
:1048600037C187EE90E036C18091AC0183FF27C04D
:10487000F4CF8091AC0183FD22C08091AD0181FD18
:1048800021C0EBCF8091AC0185FD1FC021C080917C
:10489000AC0185FD1DC019C08091AC0186FD1BC017
:1048A0001DC08091AC0186FD19C015C089E390E060
:1048B00011C182EE90E00EC180EE90E00BC186EE59
:1048C00090E008C184EE90E005C189E290E002C169
:1048D00085E390E0FFC08AE290E0FCC081E390E0D5
:1048E000F9C0811531E5930708F069C0811540E5ED
:1048F0009407F0F09C0174E0369527957A95E1F7DE
:10490000922F9370482F437021E030E002C0220FB5
:10491000331F4A95E2F73C68392B982F9F70969584
:10492000969540E2949FC0011124822B932BD2C014
:10493000883E910568F5803E910508F0CBC0883A25
:104940009105B8F4853A910548F0855AE82FF0E0D2
:10495000ED5AFE4F808190E09064BCC0813091059B
:1049600009F4B3C008F4B4C08430910508F4B0C0B1
:10497000B1C08F3B910508F0ABC0885AE82FF0E03A
:10498000EE0FFF1FEA5AFE4F808191819464A2C00E
:10499000811520E2920758F4811531E0930708F061
:1049A00099C0803F910508F493C0906593C081152C
:1049B00040E4940708F48CC09F70906A8BC0811506
:1049C00025E5920708F042C0811534E5930728F0E9
:1049D000982F8827846F906A7DC0811543E59407DE
:1049E000B0F09C012370332741E050E002C0440F37
:1049F000551F2A95E2F7282F2695269580E2289FB5
:104A000090011124CA01822B932B9A6863C08115EF
:104A100022E5920728F4982F8827816F906A5AC060
:104A20009C012370332741E050E002C0440F551F22
:104A30002A95E2F7282F2695269580E2289F900157
:104A40001124CA01822B932B9C6844C0EC01811570
:104A500039E59307A8F48115984528F09C2F8827FD
:104A6000806F906A37C0C11586E5D80788F58C2F0E
:104A70000E9457228F7190E0982F882790622AC059
:104A800081152AE5920790F48C2F8F700E9457228F
:104A900094E0D695C7959A95E1F7CF70D0E0DC2FDA
:104AA000CC27D0699E01282BC90114C090568115CE
:104AB000904270F48D2F8F710E945722282F2F71F2
:104AC000CE0199279062922B05C081E090E002C050
:104AD00080E090E0DF91CF910895CF9384E090E063
:104AE0000E942A33C82F82E290E00E942A332C2FA2
:104AF00030E0A901582BCA01CF91089580E090E0E1
:104B00000E9438338A3E9E4F11F40C94A61B80E01D
:104B100008956AEE7EEF80E090E00E945C3360E0F2
:104B200082E090E00E943E3360E083E090E00E94EB
:104B30003E3310920B0260E084E090E00E943E332E
:104B400060E082E290E00E943E3360E085E090E029
:104B50000E943E3360E086E090E00E943E336FEFBB
:104B600087E090E00E943E3340E050E0BA0188E0E8
:104B700090E00E94503360E08DE090E00E943E3370
:104B800040E050E0BA0188E190E00E94503360E0DC
:104B900087E190E00E943E3340E050E0BA018CE1B2
:104BA00090E00E94503360E070E080E290E00E946C
:104BB0005C3340E050E0BA0188E190E00E9450335D
:104BC00080E00E94791B0E94971B40E050E0BA01F0
:104BD0008FE090E00E94503340E050E0BA0183E162
:104BE00090E00C9450338091CD02882331F01092E4
:104BF000CD021092CC021092CB0208958095909134
:104C00008E03892380938E030895809590918D0360
:104C1000892380938D03089590918D0380918E0355
:104C2000892B9091CA02892B809374028091CD02C6
:104C3000882311F10E94902B2091CB023091CC025D
:104C4000821B930B8838934110F00E94F3259091BA
:104C500074028091CD02892B80937402E6E7F2E022
:104C600097E080E0915029F021912223D9F38F5FC2
:104C7000F9CF81110E94F325E0914304F09144049F
:104C8000309731F00280F381E02D84E792E00994BF
:104C900008951092C9021092C8021092C702089596
:104CA0002091C902809582238093C902982F977022
:104CB00099F430E0482F082E000C550B24173507C7
:104CC00059F09091AD0192FD07C085958595859528
:104CD0000E94D2200C9449260895CF93C091AD0133
:104CE000C2FB992790F9981799F080FBC2F9C093FD
:104CF000AD016091AC0184E090E00E943E336C2FE6
:104D000082E290E00E943E3382E0CF910C945026E4
:104D1000CF9108959091AD0192FD10C098E0899FC8
:104D200090011124262B2093C9020E94DE200E94AC
:104D3000902B9093C8028093C70208950C94DE20B4
:104D40008091C60281111092C60208958091C50219
:104D500090918402891719F08F5F8770FBCF0895B7
:104D60001F93CF93DF938091810282958F7009F01A
:104D70005CC080917E02882309F457C08091C502EF
:104D80001091840260917C0270917D02C0917F023B
:104D9000D091800291E06F3F09F090E0292F8117B8
:104DA00009F443C0209721F07F3F21F030E003C099
:104DB00031E001C0322F90E030FD34C0FC0133E01F
:104DC000EE0FFF1F3A95E1F7DF01AB57BD4F11968C
:104DD0003C911197371326C03C91361323C012968D
:104DE0003C91129731111EC013964D915C9114970E
:104DF0004C1B5D0B483C5105A8F4809181028F70DB
:104E0000806180938102E657FD4F80818F708061C1
:104E100080838CE792E00E945E0BDF91CF911F911F
:104E20000C94A62601968770BACFDF91CF911F917F
:104E300008959091060290FF0CC0EBEEF1E08183A3
:104E400060834283339692E0E630F907C1F70C9411
:104E5000ED1B089580910602282F269530E021153C
:104E6000310519F48170826005C02532310524F0C6
:104E70008170886480930602809109028B3F18F04C
:104E80008AEF809309020895CF92DF92EF92FF920A
:104E90006B017C010E942A27B701A60188E090E0FF
:104EA000FF90EF90DF90CF900C94503380910A02E6
:104EB000882319F0815080930A0260910602709154
:104EC000070280910802909109020C944427809176
:104ED0000A02833018F48F5F80930A026091060201
:104EE0007091070280910802909109020C94442766
:104EF000E6E0F2E083E0808311828FEF82838AEF25
:104F00008383148260817181828193810C94442710
:104F1000AF92BF92CF92DF92EF92FF920F931F93C7
:104F2000CF93DF93E82EF62EE901E42FF0E0611134
:104F300006C0E253FB4FE4914E2F2E2F71C0062F77
:104F400010E0E253FB4F4491F42FC42ED12C26E005
:104F5000829FC00111242FEF30E0B9010E948833F5
:104F60005BEA5603C001579F900D11248E0D911DD1
:104F70008E0D911D582F550F580FD901A01BB10B45
:104F8000AC9DC001AD9D900DBC9D900D1124E92FED
:104F9000F59ED0011124AB2FBB277901EA1AFB0A39
:104FA000EC9CD001ED9CB00DFC9CB00D112459017E
:104FB000A51AB108A09E7001A19EF00CB09EF00C45
:104FC0001124EF2CFF242E193F092C9D80012D9DCB
:104FD000100D3C9D100D1124212F6230710591F0B0
:104FE00048F461157105E1F061307105B9F4242FC1
:104FF0004B2F16C06430710569F040F066307105C2
:1050000079F00CC0242F492FE12F0AC0492FEF2F30
:105010002B2F06C0292FE42F412F02C0292FEB2F61
:1050200049832883EA83DF91CF911F910F91FF90ED
:10503000EF90DF90CF90BF90AF900895CF93DF9324
:1050400000D01F92CDB7DEB79091060290FF0DC041
:105050004B3F08F04AEF9E012F5F3F4F0E94882789
:105060004B8169818A810E9419270F900F900F90C0
:10507000DF91CF9108955F926F927F928F929F926E
:10508000AF92BF92CF92DF92EF92FF920F931F9356
:10509000CF93DF9300D01F92CDB7DEB7082F762EC7
:1050A000142F622E9091060290FF74C0E92FE695AE
:1050B000AE2FB0E0AC57BE4F8C918093E6019E7F3F
:1050C000923081F44B3F08F04AEF9E012F5F3F4F33
:1050D000672D802F0E9488274B8169818A810E94D9
:1050E000192746C0823019F41091090241C0863058
:1050F00019F4009107023CC08930D9F38931C1F518
:10510000E9518E2F8170582EE695F0E0E253FA4F68
:10511000A590B4908BEEC82E81E0D82EE12CF12C16
:10512000BB2499E0892E912CAE9CC001AF9C900DC0
:10513000BE9C900D1124B4010E948833802F511021
:1051400002C0860F01C0861B412F1B3F08F04AEFAB
:105150009601672D0E9488278FEFE81AF80A83E0EE
:10516000C80ED11C89E0E816F104F1F60E94ED1B8F
:10517000009307027092080210930902662051F012
:1051800060910602709107028091080290910902D5
:105190000E9444270F900F900F90DF91CF911F91A5
:1051A0000F91FF90EF90DF90CF90BF90AF909F90C6
:1051B0008F907F906F905F900895E6E0F2E04381DA
:1051C00028E0421B08F440E021E0628181810C94D8
:1051D0003B28E6E0F2E0438128E0420F08F44FEF7D
:1051E00021E0628181810C943B28E6E0F2E062815B
:1051F00028E0621B08F460E021E0438181810C9487
:105200003B28E6E0F2E0628128E0620F08F46FEFED
:1052100021E0438181810C943B28E6E0F2E081812A
:1052200021E04381628188500C943B28E6E0F2E063
:10523000818121E043816281885F0C943B289091B9
:10524000060290FF36C09170811102C0926006C0C4
:10525000853210F0986402C0880F982B9093060254
:10526000662351F060910602709107028091080256
:10527000909109020E94442760910602669570E0B1
:105280004BE050E08DE091E00E941C34892B19F036
:105290001092E70102C00E94D71B81E08093E301D6
:1052A00020E04091090260910802809107020C946D
:1052B0003B280895809106028695815009F484E286
:1052C00061E00C941F298091060286958F5F8532DC
:1052D00008F081E061E00C941F290E94902B20913E
:1052E000DA02211104C02091DB02222321F09093E5
:1052F000D7028093D6022091DC02211104C02091B4
:10530000DD02222321F09093D5028093D402E09114
:105310004304F0914404309749F082E08093D8022E
:105320000480F581E02D88ED92E009940895803F96
:1053300039F48091DB0287FF6AC01092DB0267C0FC
:10534000813F29F48091DB021816BCF360C0909174
:10535000DA02823F29F497FF5AC01092DA0257C04E
:10536000833F19F41916CCF352C09091DC02893FA7
:1053700031F419160CF04BC01092DC0248C08A3F81
:1053800019F497FF44C0F8CF8B3F39F48091DD02C8
:1053900087FF3DC01092DD023AC08C3F29F4809116
:1053A000DD021816BCF333C0843F21F48091D9028A
:1053B0008E7F17C0853F21F48091D9028D7F11C067
:1053C000863F21F48091D9028B7F0BC0873F21F467
:1053D0008091D902877F05C0883F31F48091D9023E
:1053E0008F7E8093D90213C08D3F21F48091D30228
:1053F0008E7F0BC08E3F21F48091D3028D7F05C03C
:105400008F3F29F48091D3028B7F8093D3028091C8
:10541000DA02811106C08091DB02811102C0109274
:10542000D2028091DC02811106C08091DD028111DF
:1054300002C01092D10208958091D30280FD16C05F
:1054400081FD16C082FD18C08091D102882391F0A1
:10545000883290F428E0829FC001112468E270E055
:105460000E949C33862F672B29F007C082E00895A5
:1054700084E0089581E0089588E008958091D30242
:1054800080FD14C081FD14C082FD16C08091D2023F
:10549000882381F0843180F422E3829FC0011124AB
:1054A00064E170E00E949C33862F08958CE008959B
:1054B00089E1089585E0089582E30895803F21F40D
:1054C0000E943E2A819504C0813F29F40E943E2A11
:1054D0008093DB020895823F21F40E943E2A819549
:1054E00004C0833F29F40E943E2A8093DA02089583
:1054F000893F19F40E941C2A05C08A3F31F40E949A
:105500001C2A81958093DC0208958B3F21F40E9430
:105510001C2A819504C08C3F29F40E941C2A809388
:10552000DD020895843F21F48091D902816017C083
:10553000853F21F48091D902826011C0863F21F419
:105540008091D90284600BC0873F21F48091D902F9
:10555000886005C0883F31F48091D90280618093D2
:10556000D90208958D3F21F48091D30281600BC050
:105570008E3F21F48091D302826005C08F3F29F4D1
:105580008091D30284608093D30208958091CA01F0
:10559000089524E02093E9002FEF3091E800215096
:1055A00035FD06C035ED3A95F1F700002111F5CF34
:1055B0002091E80025FF0BC040E050E066E070E07D
:1055C0000E94DA178091E8008E778093E8000895B2
:1055D000CF93DF9321E02093E9002FEF3091E80093
:1055E000215035FD06C035ED3A95F1F70000211147
:1055F000F5CF2091E80025FF14C0EC0140E050E019
:1056000068E070E00E94DA178091E8008E7780935E
:10561000E80088E0FE01ABECB1E001900D928A95C4
:10562000E1F7DF91CF91089580934C0470934E047D
:1056300060934D048091D5018430F9F48093E900A2
:105640008FEF9091E800815095FD06C095ED9A95F9
:10565000F1F700008111F5CF8091E80085FF0DC0C2
:1056600040E050E063E070E08CE494E00E94DA17E0
:105670008091E8008E778093E800089587E797E7A8
:1056800090930108809300089AE088E10FB6F8949F
:10569000A895809360000FBE90936000FFCF789430
:1056A0001F920F920FB60F9211248F939F93AF9377
:1056B000BF938091480490914904A0914A04B0910D
:1056C0004B040196A11DB11D809348049093490499
:1056D000A0934A04B0934B04BF91AF919F918F91D7
:1056E0000F900FBE0F901F9018959C014FB7F89424
:1056F0008091480490914904A0914A04B0914B04D0
:105700004FBF821B930B08952FB7F8946091480404
:105710007091490480914A0490914B042FBF0895E1
:105720002FB7F8948091480490914904A0914A04BD
:10573000B0914B042FBF08951F920F920FB60F9296
:1057400011248F939F93AF93BF938091470481114E
:1057500013C08091480490914904A0914A04B091EB
:105760004B044196A11DB11D8093480490934904B8
:10577000A0934A04B0934B04BF91AF919F918F9136
:105780000F900FBE0F901F9018959C01FC01329650
:105790009FEF80E04191461789F09F3F19F4411136
:1057A00001C0982F8F5F8630A9F79F3F39F0F9012C
:1057B000E90FF11D97FDFA956283089508952091F0
:1057C0004504309146042817390771F09093460438
:1057D00080934504E0914304F0914404309721F014
:1057E0000084F185E02D09940895209141043091C1
:1057F00042042817390771F09093420480934104C2
:10580000E0914304F0914404309721F00680F78141
:10581000E02D09940895E0914304F09144043097F9
:1058200021F00190F081E02D099480E00895EF923D
:10583000FF920F931F93CF93DF93FC0122852111D9
:1058400036C0EC01E380F480F7E5FF1A26E12E9DD7
:10585000C0012F9D900D1124DC01AF56BC4F149652
:10586000ED91FC91159789569C4F309729F05496ED
:105870006D917C915597099586E18E9D80018F9D54
:10588000100D11240F561C4FF80187810E94052628
:10589000F80180850E94FE250E940C261882198638
:1058A0001B861E821D821092900310928F03DF913F
:1058B000CF911F910F91FF90EF900895CF93DF93B9
:1058C000FC01218921111CC0EC0181E0818B9091A8
:1058D0008D038781892B80938D0390918E03808522
:1058E000892B80938E030E940C26EA81FB81CE01D6
:1058F0000696309729F06C897D89DF91CF910994C4
:10590000DF91CF9108950F931F93CF93DF93C42F0F
:10591000D22FFC0182818823C9F040938C030E941E
:10592000902B90938B0380938A0380E28C0F8830B6
:1059300008F057C0C77081E001C0880FCA95EAF728
:10594000DF91CF911F910F910C94962180918C0340
:10595000481330C080918A0390918B030E94752B6D
:10596000883C910538F510E21D0FCD17B9F080E2A3
:105970008C0F883040F4C77081E001C0880FCA9551
:10598000EAF70E948F21183028F581E09D2F97704B
:1059900001C0880F9A95EAF70E949621802F0E94F5
:1059A00037221830F0F4D77081E001C0880FDA9503
:1059B000EAF70AC080E28C0F883098F4C77081E063
:1059C00001C0880FCA95EAF7DF91CF911F910F911F
:1059D0000C948F21802FDF91CF911F910F910C9408
:1059E0003722DF91CF911F910F910895BC01409113
:1059F000860380918703942F981729F1292F30E08F
:105A0000F901EE0FFF1FE258FC4F0190F081E02DED
:105A1000E617F70799F487E0869FF001879FF00D5E
:105A20001124EA5BFC4F81E0848394130CC02F5F48
:105A30003F4F237033272093860308952F5F3F4FF6
:105A4000922F9370D9CF08950F931F93CF93DF9325
:105A50008091E502882309F451C0C091E4021CE062
:105A60008091E502C81708F045C001E00C0F0093D3
:105A7000E402D0E01C9FF0011D9FF00D1124EA51BB
:105A8000FD4F9081818123813481232B31F08F3F21
:105A900031F481E09F3F19F403C081E001C080E050
:105AA00080FD26C01C9FD0011D9FB00D1124AA515E
:105AB000BD4F16968D919C911797892B31F41896AE
:105AC0008D919C911997019651F4208131814281E9
:105AD000538164817581868197810E94F8201C9F83
