:100000000C94E0020C9427030C9427030C94270310
:100010000C9427030C9427030C9427030C942703B8
:100020000C9427030C9427030C94CB1D0C94071DF0
:100030000C945C210C9427030C9427030C94270345
:100040000C9427030C9427030C9427030C94270388
:100050000C9427030C94F1200C9427030C94270391
:100060000C9427030C9427030C9427030C94270368
:100070000C9427030C9427030C9427030C94270358
:100080000C9427030C9427030C9427030C94270348
:100090000C9427030C9427030C9427030C94270338
:1000A0000C9427030C9427030C942703D511D81123
:1000B000F91106120D122D12301272129412381309
:1000C00042139F12A112A512CB12EE12F112F412DA
:1000D0001813A816CD16D216D716DC16E116E6169A
:1000E000EB16F016F516FA160117041707170A177C
:1000F0000D171017131716171B177F177F17B91730
:10010000B9170C182818BA19BA1933181119221965
:1001100022190F1B361BE91C361BE91C821BA51B71
:10012000E91CA61CB61CEA23EA23FD23FD23F323C6
:10013000FD23FD23FD23EA23EA23F823FD23FD23EA
:10014000F823000101010101010101010202020283
:100150000202020202030303030303030304040471
:10016000040404040505050505060606060607073A
:1001700007070708080808090909090A0A0A0B0BF2
:100180000B0C0C0C0D0D0D0E0E0E0F0F0F10101191
:100190001111121213131414151516161717181817
:1001A00019191A1A1B1B1C1D1D1E1E1F202021227F
:1001B00022232424252626272829292A2B2C2D2DC5
:1001C0002E2F30313232333435363738393A3B3CE2
:1001D0003D3E3F404142434445464748494A4C4DD5
:1001E0004E4F50515354555658595A5B5D5E5F619E
:1001F0006264656668696B6C6D6F70727375777831
:100200007A7B7D7E8082838587888A8C8E8F91938E
:100210009596989A9C9EA0A2A3A5A7A9ABADAFB1B5
:10022000B3B5B7BABCBEC0C2C4C6C9CBCDCFD1D49A
:10023000D6D8DBDDDFE2E4E7E9EBEEF0F3F5F8FA40
:10024000FDFFFFAA7F5540000102030405060708D1
:10025000090A0B0C0D0E0F2223252628292A2C2DE6
:100260002F3032333536383A3B3D3E4042434547E6
:10027000494A4C4E5051535557595A5C5E6062641E
:100280006668696B6D6F71737577797B7D7F81832C
:100290008587898A8C8E90929496989A9C9E9FA12D
:1002A000A3A5A7A8AAACAEAFB1B3B4B6B8B9BBBC4E
:1002B000BEBFC1C2C3C5C6C7C9CACBCCCDCED0D1C3
:1002C000D2D2D3D4D5D6D7D7D8D9D9DADADBDBDBBB
:1002D000DCDCDCDCDCDDDDDDDDDCDCDCDCDCDBDB5C
:1002E000DBDADAD9D9D8D7D7D6D5D4D3D2D2D1D0B0
:1002F000CECDCCCBCAC9C7C6C5C3C2C1BFBEBCBBAD
:10030000B9B8B6B4B3B1AFAEACAAA8A7A5A3A19F24
:100310009E9C9A98969492908E8C8A8987858381E8
:100320007F7D7B79777573716F6D6B6968666462C9
:10033000605E5C5A5957555351504E4C4A49474597
:100340004342403E3D3B3A3836353332302F2D2C38
:100350002A292826252322A900AA004B004E005056
:10036000004F00F900FA00C35C5400550056005FCE
:1003700000600061002B005C005D005E00570059CA
:10038000005A005B004C0062008500630058003298
:10039000190A00047F3F1F643214643214783C1E33
:1003A0001E140A050000000000000000000000000C
:1003B00000000000000000007E0F00D4FFFFFFC718
:1003C0000000007800000000000000002A2B280038
:1003D00000000000000000000000000000000029F4
:1003E000000000002C1E3420212224342627252E34
:1003F000362D3738271E1F2021222324252633336C
:10040000362E37381F0405060708090A0B0C0D0E97
:100410000F101112131415161718191A1B1C1D2F63
:100420003130232D350405060708090A0B0C0D0E83
:100430000F101112131415161718191A1B1C1D2F43
:100440003130354C05010902A10185020901A100E5
:100450000509190129051500250195057501810278
:100460009501750381010501093009311581257F49
:1004700095027508810609381581257F9501750853
:100480008106050C0A38021581257F9501750881C2
:1004900006C0C005010980A101850319012AB70022
:1004A000150126B700950175108100C0050C0901E2
:1004B000A101850419012AA002150126A0029501B7
:1004C00075108100C00660FF0961A1010962150075
:1004D00026FF009520750881020963150026FF009C
:1004E000952075089102C005010906A101050719AB
:1004F000E029E71500250195087501810295017530
:100500000881010507190029FF150026FF0095063F
:1005100075088100050819012905950575019102E5
:10052000950175039101C009025B00030100A0FA67
:100530000904000001030101000921110100012249
:1005400040000705810308000A09040100020300B6
:100550000000092111010001222200070582032069
:100560000001070503032000010904020001030044
:1005700000000921110100012281000705840320E8
:10058000000A120110010000000866666766060096
:100590000102030104033000000010035000320088
:1005A0003000200052004700420000000E035000BF
:1005B0006100620069006C0065000000040309042A
:1005C00011241FBECFEFDAE0DEBFCDBF04B603FEBD
:1005D00027C080910D0390910E03A0910F03B0915D
:1005E00010038730904BA740B04BD1F410920D030D
:1005F00010920E0310920F031092100314BE84B7D2
:10060000877F84BF0FB6F894A895809160008861B9
:1006100080936000109260000FBEE0E0F8E309955F
:1006200011E0A0E0B1E0ECE6F1E502C005900D922A
:10063000AC3BB107D9F723E0ACEBB1E001C01D92B0
:10064000AD30B207E1F70E94310D0C94B4280C9440
:1006500000000895AF92BF92CF92DF92EF92FF9287
:100660000F931F93CF93DF93E82EF62EE9014739BE
:1006700008F046E9E42FF0E0F11006C0EE5BFE4F13
:10068000E4914E2F2E2F71C00F2D10E0EE5BFE4F28
:100690004491F42FC42ED12C26E0E29EC0011124F7
:1006A0002FEF30E0B9010E9463285BEA5603C001D6
:1006B000579F900D11248E0D911D8E0D911D582F59
:1006C000550F580FD901A01BB10BAC9DC001AD9DBA
:1006D000900DBC9D900D1124E92FF59ED0011124A1
:1006E000AB2FBB277901EA1AFB0AEC9CD001ED9CE9
:1006F000B00DFC9CB00D11245901A51AB108A09EA3
:100700007001A19EF00CB09EF00C1124EF2CFF2480
:100710002E193F092C9D80012D9D100D3C9D100D23
:100720001124212F6230710591F048F46115710593
:10073000E1F061307105B9F4242F4B2F16C06430FD
:10074000710569F040F06630710579F00CC0242F16
:10075000492FE12F0AC0492FEF2F2B2F06C0292F39
:10076000E42F412F02C0292FEB2F49832883EA83EE
:10077000DF91CF911F910F91FF90EF90DF90CF907D
:10078000BF90AF90089590914F0292FF0DC0282F17
:100790002871283019F4877F846006C0282F2471BF
:1007A000243011F48B7F886093FF0DC0282F2871AF
:1007B000283119F4877E846106C0282F24712431E2
:1007C00011F48B7E88612091500220FF0DC0382FDC
:1007D0003871383019F4877F816006C0382F317145
:1007E000313011F48E7F886021FF0DC0282F2871D1
:1007F000283119F4877E816106C0282F21712131AB
:1008000011F48E7E886194FD877E08951F93CF93A7
:10081000DF93CDB7DEB767970FB6F894DEBF0FBE94
:10082000CDBF4B8B5C8B6D8B7E8B8F8B86E09E015F
:10083000235F3F4FD901E82F1D92EA95E9F795E034
:10084000FE017396D90101900D929A95E1F7F90195
:10085000DE01179601900D928A95E1F7CE01079679
:100860000E94012481113EC086E0FE013796DE0120
:10087000119601900D928A95E1F7FF81E8856A85CE
:100880007B856115710531F0EF3F31F481E0FF3F69
:1008900019F403C081E001C080E080FD23C02091F5
:1008A000BD0230E0C9010196877099274091EE02A0
:1008B00050E08417950779F1F983EA837D836C838F
:1008C00096E0929FD001939FB00D1124A254BD4F8A
:1008D000FE01319601900D929A95E1F78093BD0249
:1008E0000E94622316E08091EE029091BD0289176A
:1008F000F9F0189FC001112482549D4F0E940124D9
:100900008823B1F08091EE0290E0019687709927DC
:100910008093EE02E8CF0E94CD251092BD02109286
:10092000EE02E7EBF2E086E0DF011D928A95E9F73F
:1009300067960FB6F894DEBF0FBECDBFDF91CF91A3
:100940001F910895209146023091470228173907D8
:1009500071F09093470280934602E0915202F09129
:100960005302309721F00084F185E02D0994089519
:1009700020914402309145022817390771F0909375
:10098000450280934402E0915202F0915302309765
:1009900021F00680F781E02D09940895E09152023C
:1009A000F0915302309721F00190F081E02D0994ED
:1009B00080E008950F931F93CF93DF93C42FD22F1E
:1009C000FC0182818823C9F0409392020E94262173
:1009D000909343028093420280E28C0F883008F0AB
:1009E00057C0C77081E001C0880FCA95EAF7DF9150
:1009F000CF911F910F910C94E3258091920248139F
:100A000030C080914202909143020E941721883C9D
:100A1000910538F510E21D0FCD17B9F080E28C0F6B
:100A2000883040F4C77081E001C0880FCA95EAF7AA
:100A30000E94D825183028F581E09D2F977001C0BD
:100A4000880F9A95EAF70E94E325802F0E948B2653
:100A50001830F0F4D77081E001C0880FDA95EAF71A
:100A60000AC080E28C0F883098F4C77081E001C022
:100A7000880FCA95EAF7DF91CF911F910F910C94DF
:100A8000D825802FDF91CF911F910F910C948B2649
:100A9000DF91CF911F910F910895CF93DF93C6E01F
:100AA000D1E060E0CE010E94C0272196C11584E00C
:100AB000D807B9F7DF91CF910895CF92DF92EF92E7
:100AC000FF920F931F93CF93DF93C0E0D0E08E018E
:100AD000085C1F4F6E0188E0C80ED11CFE01E95A68
:100AE000FC4FE590F4906F2DCE0186960E94C027B2
:100AF0006E2DCE0187960E94C0272296CC15DD056B
:100B000069F70C171D0731F7E801003E1105F9F6EA
:100B1000DF91CF911F910F91FF90EF90DF90CF90D9
:100B200008950F931F93CF93DF93C42FD0E0CC0F82
:100B3000DD1F28E0629FC00DD11D112438E3839F83
:100B4000C00DD11D1124CE0186960E94AC27082F1E
:100B500010E0102F0027CE0187960E94AC27980145
:100B6000282BC901DF91CF911F910F910895462F36
:100B7000843038F4773028F4643018F4672F0C94FC
:100B8000910580E090E00895CF93C82F811102C0B5
:100B90006FEF01C061E282E290E00E94C027C111C4
:100BA00002C06FEF01C067E083E290E00E94C027BF
:100BB000C11102C06FEF01C063E284E290E0CF9107
:100BC0000C94C027882311F0FA0101C0FB0109949D
:100BD0000F931F93CF93DF93CDB7DEB7E0970FB698
:100BE000F894DEBF0FBECDBF8091820280FF0AC0A5
:100BF00007E412E09E012F5F3F4FAE014F5C5F4F55
:100C0000B9010BC0E2ECF1E011821082128233963E
:100C100081E0E23FF807C1F7EBCFF801849190E063
:100C2000DC01AA0FBB1F8A0F9B1FDC01AE53BE4F16
:100C30008D919D91AC91FB0181939193A193BF0103
:100C40000F5F1F4FE417F50741F7269A85B18F7B99
:100C500095B190646FB7F8942417350799F0F901AE
:100C600071919F01E8E095B9000000C077FF85B958
:100C7000770F000000C000C000C085B900C0EA9531
:100C800091F7EACF6FBF8FE594E00197F1F700C0CD
:100C90000000E0960FB6F894DEBF0FBECDBFDF9127
:100CA000CF911F910F9108958F929F92AF92BF9213
:100CB000CF92DF92EF92FF920F931F93CF93DF9328
:100CC000FC01B280948081E08483C2EFD1E002EC29
:100CD00011E08BE4A82E88248394EE24EA94F12C6E
:100CE0002BE4C22ED12C911003C01B821A824AC061
:100CF0002B81222311F121502B833C81332319F0C6
:100D00009A2D921B01C0922F80918502899FC0016C
:100D10001124B6010E9463286A83211104C0332381
:100D200011F01C82AB8222E02B1560F180918302CE
:100D3000888380918402898325C00E949C27823009
:100D4000914004F582E08B1530F40E949C27B70196
:100D50000E94772802C080918302888322E02B15AD
:100D600058F40E949C27209184022695622F70E0FF
:100D70000E947728820F02C08091840289831A82A0
:100D8000AB828C8298014A81698188810E942A0302
:100D900025960D5F1F4F82E0C234D80709F0A3CF1C
:100DA000DF91CF911F910F91FF90EF90DF90CF9047
:100DB000BF90AF909F908F900C94E805EF92FF92B8
:100DC0000F931F93CF93DF938C01C2ECD1E0E12C02
:100DD000F12CF8018481F8E0EF16F1041CF488236B
:100DE00039F002C0811104C09E014091850202C009
:100DF0009E0140E060918402809183020E942A0358
:100E00008FEFE81AF80A239690E1E916F10409F742
:100E10000E94E805F801848190E00196817099278D
:100E20008483DF91CF911F910F91FF90EF900895F0
:100E30008F929F92AF92BF92CF92DF92EF92FF92EA
:100E40000F931F93CF93DF93EC014C81042F10E09D
:100E50009801D8010E9448289B01AC010E941328E8
:100E60006B017C01E0E2F0E0E01BF10BA5E5B0E0F6
:100E70009B01AC010E9413284B015C019F01DF0123
:100E80000E9498289B01AC010E941E289B01AC0186
:100E90002C0D3D1D4E1D5F1DC501B4010E9426286D
:100EA000822FF22E99E2921728F093E0299F900169
:100EB00011240DC025E530E0281B3109C901880F38
:100EC000991F280F391F37FF02C02F5F3F4F3595FD
:100ED0002795122F109592ECC92E91E0D92E00E0A3
:100EE00085E5E82EEF1801FD02C08E2D01C08F2D83
:100EF0009601412F609184020E942A030F5F83E0D4
:100F0000C80ED11C003179F70E94E8058C8181114F
:100F100002C091E003C0803219F49FEF9093110159
:100F200090911101890F8C83DF91CF911F910F91C7
:100F3000FF90EF90DF90CF90BF90AF909F908F90F9
:100F400008950F931F93CF93DF93C2ECD1E0FE017E
:100F5000118210821282339681E0E23FF807C1F7D6
:100F600000E010E08091C001082E000C990B0817DA
:100F7000190794F080911001082E000C990B80172E
:100F8000910754F09E014091850260918402809106
:100F900083020E942A0303C0198218821A820F5FFB
:100FA0001F4F239600311105E9F60E94E805809154
:100FB0000F019091C001980F9093C00120911001F2
:100FC000280F20931001121614F49F301CF0819505
:100FD00080930F01DF91CF911F910F910895CF92D0
:100FE000DF92EF92FF920F931F93CF93DF93FC0159
:100FF000828180FF03C0DD24DA9402C0DD24D39413
:10100000C2ECD1E000E010E0198218821A8294E06C
:10101000E92EF12CC12C8091BF018C0D813114F08F
:101020008F7002C087FD805F082E000C990B081797
:10103000190791F4809185028E9DA0018F9D500D1E
:10104000112455954795559547959E0160918402C9
:10105000809183020E942A03CD0CF1E0EF1AF1087F
:10106000D1F60F5F1F4F23960031110569F60E94DC
:10107000E8058091BF0191E0D91206C0811102C03C
:101080008FE006C0815004C090E001968F709927D0
:101090008093BF01DF91CF911F910F91FF90EF904F
:1010A000DF90CF900895EF92FF921F93CF93DF933D
:1010B000EC0182ECE82E81E0F82E10E08C819701A3
:1010C0004091850260918402810F0E942A03115F82
:1010D00083E0E80EF11C103F89F70E94E8059A8131
:1010E0008C8190FF02C08F5F01C081508C83DF91A3
:1010F000CF911F91FF90EF9008959091820290FF01
:101100000CC0E2ECF1E0818360834283339691E08E
:10111000E23FF907C1F70C94E80508950F931F9378
:10112000CF93DF9300D01F92CDB7DEB78C018091B3
:10113000C10181110AC09E012F5F3F4F46E96FEF49
:101140000E942A038A818093C101F8018481813041
:1011500051F028F0823061F44091C1010AC08091C1
:10116000C10140E007C06091C10140E080E003C0E0
:1011700040E080E060E00E947D08F801848190E01A
:10118000019663E070E00E94772884830F900F90AF
:101190000F90DF91CF911F910F910895CF93DF931F
:1011A00000D01F92CDB7DEB79091820290FF0AC0A7
:1011B0009E012F5F3F4F0E942A034B8169818A81E4
:1011C0000E947D080F900F900F90DF91CF910895AE
:1011D000CF93DF93EC01E2E8F2E0438162818C81FE
:1011E0000E94CE088C818F5F8C83DF91CF91089510
:1011F000CF93DF93EC01EC81F0E0E95AFD4F44918D
:10120000E2E8F2E0628181810E94CE088C818F5FEA
:101210008C83DF91CF91089580918202282F2695AB
:1012200030E02115310519F48170826005C02B3240
:10123000310524F08170846580938202809185025B
:10124000873918F086E9809385020895CF92DF925E
:10125000EF92FF926B017C010E940C09B701A6017D
:1012600088E090E0FF90EF90DF90CF900C94D22731
:101270007F928F929F92AF92BF92CF92DF92EF9226
:10128000FF920F931F93CF93DF9300D01F92CDB7A0
:10129000DEB7182FD62E042FC22E9091820290FF17
:1012A0006DC0E92FE695AE2FB0E0A35EBE4F8C91E6
:1012B000809380029E7F923061F49E012F5F3F4FAA
:1012C000812F0E942A034B8169818A810E947D08B7
:1012D00043C0823019F4009185023EC0863019F473
:1012E0001091830239C08930D9F38931A9F5E951C8
:1012F0002E2F2170722EE695F0E0EE5BFD4F85906B
:10130000949032ECA32E31E0B32EE12CF12C9924F1
:101310008E9CC0018F9C900D9E9C900D112424E00A
:10132000969587952A95E1F7711002C0810F03C049
:10133000212F281B822F9501402F6D2D0E942A03FB
:101340008FEFE81AF80A23E0A20EB11C80E1E8163C
:10135000F104F1F60E94E80510938302D092840212
:1013600000938502CC2051F060918202709183023B
:1013700080918402909185020E9426090F900F901F
:101380000F90DF91CF911F910F91FF90EF90DF9021
:10139000CF90BF90AF909F908F907F900895E2E89C
:1013A000F2E0438121E1421B08F440E021E0628148
:1013B00081810C943809E2E8F2E0438121E1420F97
:1013C00008F44FEF21E0628181810C943809E2E852
:1013D000F2E0628121E1621B08F460E021E04381D8
:1013E00081810C943809E2E8F2E0628121E1620F28
:1013F00008F46FEF21E0438181810C943809E2E821
:10140000F2E0818121E04381628188500C943809A7
:10141000E2E8F2E0818121E043816281885F0C94FF
:10142000380980918602882319F0815080938602C2
:101430006091820270918302809184029091850272
:101440000C94260980918602833018F48F5F809374
:101450008602609182027091830280918402909151
:1014600085020C9426099091820290FF3DC09170F4
:10147000811102C0926006C08B3210F0946502C0E8
:10148000880F982B90938202662351F0609182021C
:101490007091830280918402909185020E942609B6
:1014A00060918202669570E04BE050E084E091E04C
:1014B0000E94A728892B19F01092810209C081E0AF
:1014C000809381020E9426219093560280935502B8
:1014D00081E08093580220E040918502609184026F
:1014E000809183020C943809089580918202869538
:1014F000815009F48AE261E00C94330A80918202FF
:1015000086958F5F8B3208F081E061E00C94330A9E
:101510009091820290FF04C09695981740F003C006
:10152000811105C090E0961710F40C947E0A61E0DA
:101530000C94330AE2E8F2E083E0808311828FEFBB
:10154000828386E9838314826081718182819381A1
:101550000C942609F894E82FE295EF70F0E031A1A1
:10156000282F2F7081E090E001C0880F2A95EAF7BC
:10157000982F9095932391A392A1892B82A378947D
:1015800008958F929F92AF92BF92CF92DF92EF9287
:10159000FF920F931F93CF93DF9300D000D01F9241
:1015A000CDB7DEB708E411E038E4C32E32E0D32E25
:1015B0007601912CAA24A394B12CB801D8018C9166
:1015C000F894E82FE295EF70F0E021A18F70A5016B
:1015D00002C0440F551F8A95E2F7CA01922F982B3B
:1015E00091A392A18095892382A3789450EA5A9579
:1015F000F1F7EFE4F1E020E030E0812C4191842F1D
:1016000082958F7090E0DC0190968C9190E04F7005
:1016100002C0959587954A95E2F780FD07C08A2D0F
:10162000022E01C0880F0A94EAF701C080E0882AE0
:101630002F5F3F4F2430310509F70F5F1F4FFB012C
:1016400080810E94AA0AD7018C91881619F08C9289
:1016500081E001C080E0982ABFEFEB1AFB0AE1E0CD
:101660000F341E0709F0A9CF992049F081E080933B
:10167000BE010E9426219093BD018093BC01809100
:10168000BE018823A9F08091BC019091BD010E9408
:101690001721069768F0E7E8F2E0D6018D916D0119
:1016A0008193BFE4CB16B2E0DB06B9F71092BE011E
:1016B0000BE512E08BE5C82E81E0D82E93E5E92EEC
:1016C00091E0F92E2FE5A22E22E0B22EF8018081C2
:1016D0008823D1F0869521F0D6018D919C9103C08D
:1016E000F701808191819A8389831B820E94262140
:1016F0008160782F9D838C83D8011C9249815A8107
:101700006B818D810E9406040F5F1F4FB2E0CB0EEC
:10171000D11CE2E0EE0EF11CA016B106B9F6892D3F
:101720000F900F900F900F900F90DF91CF911F911E
:101730000F91FF90EF90DF90CF90BF90AF909F9070
:101740008F900895CF93DF930E94B705EC01823804
:10175000910559F1A0F48133910509F473C040F467
:101760008932910509F467C08A9709F472C084C070
:101770008533910509F458C0C997B9F07DC0833EFF
:10178000910571F138F4803E9105B1F0823E9105EA
:1017900011F172C0863E9105B9F1873E9105C9F1FC
:1017A000843E910509F068C024C080914F0280FDFD
:1017B0005DC081FD5BC060C080914F0280FD50C064
:1017C0008091500280FF49C180914F0284FD43C146
:1017D000C3EED0E042C180914F0282FF3EC1F4CF00
:1017E00080914F0282FD3FC08091500280FD3EC03B
:1017F000EBCF8091500281FF30C180914F0284FD78
:101800002AC1C7EED0E029C180914F0283FF25C1D4
:10181000F4CF80914F0283FD2CC08091500281FF54
:10182000ECCFC4EED0E019C180914F0285FF15C105
:10183000C9E2D0E012C180914F0285FF0EC1C5E31D
:10184000D0E00BC180914F0286FF07C1CAE2D0E011
:1018500004C180914F0286FF00C1C1E3D0E0FDC00A
:10186000C9E3D0E0FAC0C2EED0E0F7C0C0EED0E0ED
:10187000F4C0C6EED0E0F1C0C11581E5D80708F08C
:1018800066C0C11520E5D207E0F0CE0174E0969560
:1018900087957A95E1F783709C2F937021E030E073
:1018A00002C0220F331F9A95E2F73C68382BCF70A5
:1018B000C695C69540E2C49FE0011124C22BD32BEC
:1018C000CCC0C83ED10560F5C03ED10508F0C5C00A
:1018D000C83AD105B0F4C53AD10540F0C55AD0E0B8
:1018E000C657DE4FC881D0E0D064B7C0C130D10543
:1018F00009F4B3C008F4AFC0C430D10508F4ABC0DC
:10190000ACC0CF3BD10508F0A6C0C85AD0E0CC0F80
:10191000DD1FC357DE4F0990D881C02DD4649DC010
:10192000C11540E2D40758F4C11581E0D80708F08A
:1019300094C0C03FD10508F48EC0D0658EC0C115DB
:1019400020E4D20708F487C0DF70D06A86C0C115D2
:1019500045E5D40708F042C0C11584E5D80728F052
:10196000DC2FCC27C46FD06A78C0C11523E5D2071D
:10197000B0F0CE018370992721E030E002C0220F41
:10198000331F8A95E2F78C2F8695869540E2849FD7
:10199000C0011124E901C82BD92BDA685EC0C1153A
:1019A00042E5D40728F4DC2FCC27C16FD06A55C09C
:1019B000CE018370992721E030E002C0220F331F4F
:1019C0008A95E2F78C2F8695869540E2849FC00128
:1019D0001124E901C82BD92BDC683FC0C11589E56A
:1019E000D807B8F4C11528E5D20728F0DC2FCC279A
:1019F000C06FD06A32C0C11546E5D40760F58C2FA0
:101A00000E94C3038F71C82FD0E0DC2FCC27D06297
:101A100024C0C1158AE5D80780F48C2F8F700E94EE
:101A2000C30394E0D695C7959A95E1F7CF70D0E0BF
:101A3000DC2FCC27D069C82B10C0CE019056811561
:101A4000904248F48D2F8F710E94C303DD27D0622E
:101A50008F71D82B02C0C0E0D0E0CE01DF91CF91D2
:101A60000895CF93DF93CDB7DEB7E2970FB6F89422
:101A7000DEBF0FBECDBF84B7877F84BF0FB6F8949B
:101A8000A89580916000886180936000109260004A
:101A90000FBE90E080E80FB6F894809361009093B9
:101AA00061000FBE85B7806885BF85B7806885BF38
:101AB0000E944B1D0E946A1D8091E2008460809309
:101AC000E20078948091AA028823A1F01091E900A5
:101AD0001F709091EC00892F817090FD80E8182B89
:101AE0001092E9008091E80083FD0E94291A1F707E
:101AF0001093E90082E084BD93E095BD9AEF97BD15
:101B000080936E0008E411E0D8018D918D010E9450
:101B1000AA0AB1E00F341B07B9F781E90E94AA0AAB
:101B200080E90E94AA0A84E90E94AA0A82E30E942C
:101B3000AA0AE8E4F2E08FE492E0A7E8B2E01192AA
:101B40001D928E179F07D9F70E94C10AEFEFF6E7A3
:101B500011E0E150F0401040E1F700C000000E94A9
:101B6000C10A8091870280FF0AC080E00E94C405FC
:101B70006FEF7FEF80E090E00E94DE278FC580E06E
:101B800090E00E94BA278C3E9E4F11F00E94B02137
:101B900082E290E00E94AC27813281F483E290E0FF
:101BA0000E94AC27873051F484E290E00E94AC2779
:101BB00091E0833209F090E0892F01C080E080FF3E
:101BC00094C580E090E00E94BA278C3E9E4F11F0B1
:101BD0000E94B02182E090E00E94AC2780937802BE
:101BE0000E949F219093500280934F0283E090E0E7
:101BF0000E94AC27682F70E080E090E00E9458239C
:101C000080915102811136C080E090E00E94BA2795
:101C10008C3E9E4F21F00E94B0210E949A0A88E0DB
:101C200090E00E94B42760938202709383028093B5
:101C30008402909385026E7F71F40E949A0A88E074
:101C400090E00E94B4276093820270938302809395
:101C50008402909385020E940C0910928102809167
:101C6000820280FF04C060E086950E94330A81E012
:101C7000809351027BE6872E72E0972E23E731E0B6
:101C800047E751E0E7E66E2EE2E07E2E61E070E08D
:101C90008614970409F44EC0FA01A191AF018A2F6E
:101CA00082958F7090E0FC01F1A0AF70EA2E8B015D
:101CB00001C0000FAA95EAF7F02FF095FF22DC0192
:101CC0009196FC9291979296AC91A02BFC01A2A3C5
:101CD000D901FD909D01EF2DE295EF70F0E0B1A0EC
:101CE000BF2DBF70FB2E6B0101C0CC0CBA95EAF77B
:101CF000DC2CD094DB20D1A2D2A0CD28C2A2DC0162
:101D000090968C9190E002C095958795EA94E2F7C1
:101D10008170E0A1F0E002C0F595E795FA94E2F752
:101D2000E0FF02C092E001C090E0892BF3018193B3
:101D30003F01AECF82E191E0909353028093520233
:101D40008E010F5F1F4F1E01FAE02F0E311C809194
:101D5000AA02853009F039C08091AA02843021F1AD
:101D60001092540220E488E190E00FB6F894A89510
:101D7000809360000FBE2093600083B7817F8460F2
:101D800083BF83B7816083BF7894889583B78E7F44
:101D900083BF0FB6F894A895809160008861809306
:101DA0006000109260000FBE8091A002882309F4A9
:101DB000CECF0E94C10AE7E8F2E08191811176C49A
:101DC00022E0EE38F207C9F7C2CF0E94C10AE9E764
:101DD000F2E0A7E8B2E0E12CF12C3E2D2D9191919B
:101DE000922721F180E0DD24D394492F4D21D1F0B9
:101DF00089A33AA32D2181E009F480E08BA30E94FE
:101E000026218160782F9DA38CA349A15AA16BA1A3
:101E10008DA10E940604F701E758FD4F8081D82666
:101E2000D0821BC08F5FDD0C8430F9F63FEFE31AE0
:101E3000F30A47E0E416F10481F68FEF8EA38FA337
:101E400018A60E9426218160782F9AA789A74EA103
:101E50005FA168A58AA50E9406048091810288235B
:101E600009F4B1C080918002E0918202E695E81BFE
:101E7000E0935702823059F4F0E0E056FC4FE491D1
:101E8000EE2EF12C68EFC62E68E0D62E70C086309C
:101E900059F4F0E0E356FC4FE491EE2EF12C58EEAD
:101EA000C52E58E0D52E63C0893061F4E695F0E088
:101EB000E656FC4FE491EE2EF12C43E5C42E48E0AB
:101EC000D42E55C08F3061F4E695F0E0E956FC4F12
:101ED000E491EE2EF12C3FEEC32E37E0D32E47C017
:101EE000853159F4F0E0EC56FC4FE491EE2EF12CE4
:101EF00021EAC22E27E0D22E3AC08831F9F083328F
:101F000049F4E2E9F3E0E590F4909EE8C92E98E008
:101F1000D92E2DC08432D1F0853209F58E2F63E0A1
:101F20000E945728E92FF0E0E157FC4FE491EE2E94
:101F3000F12C84E5C82E86E0D82E19C0A8E2EA2E3E
:101F4000F12CB8E1CB2EB7E0DB2E11C0E4EFEE2E82
:101F5000FF24F394FEEDCF2EF6E0DF2E08C060EDF7
:101F6000E62E67E0F62E79E2C72E73E0D72E809139
:101F70005802882389F0109258020E942621970166
:101F800020953095820F931F9093560280935502AF
:101F900010925A0210925902809155029091560265
:101FA0000E9417218E159F0570F0E0915502F09167
:101FB0005602EE0EFF1EF0925602E092550285E5A3
:101FC00092E0F601099593E6C92E92E0D92E2FE50D
:101FD000E22E22E0F22E3BE5832E31E0932E4BE5FC
:101FE000A42E42E0B42E53E5652E51E0752E27E66F
:101FF00032E03CA72BA783E791E09AAB89ABA7E738
:10200000B1E0B8ABAFA73EA72DA7512C4424439411
:10201000ADA5BEA58D91BEA7ADA7E82FEE0FEE0F23
:10202000AFA5B8A92D91B8ABAFA7A22FA295AF705D
:10203000B0E090968C9190E02F7002C095958795B6
:102040002A95E2F79C0121703327A9A9BAA98D919D
:10205000BAABA9ABA82FA295AF70B0E090964C9107
:1020600050E08F7002C0559547958A95E2F7CA01F6
:102070008170992740FF02C082E090E0822B932B71
:102080008E2BEBA5FCA58193FCA7EBA78F70E82F07
:10209000F0E0ED59FE4F9081D6018C91890F8C9321
:1020A0008430C4F0F70180818F5F8083D3018D91EC
:1020B0009C919A8389834B820E9426218160782F8C
:1020C0009D838C83F501408249815A816B818D818A
:1020D0000E940604D6018C918D3FCCF4F7018081DB
:1020E00081508083D4018D919C919A8389834B8206
:1020F0000E9426218160782F9D838C8322E0F50148
:10210000208349815A816B818D810E940604D6010A
:102110008C91082E000C990B64E070E00E947728E7
:10212000F60181936F015394FFEFEF1AFF0A22E04B
:10213000820E911C3FEFA31AB30A42E0640E711C99
:1021400084E0581265CF86E0E1E7F2E0D801019023
:102150000D928A95E1F7C0907302D0907402E090DE
:102160007502F0907602109273021092740210922F
:10217000750210927602C11003C0DD2009F451C02F
:1021800080916F02909170020E9417219C019091A2
:102190006E02992309F4B6C22333310508F441C015
:1021A0009F3F19F09F5F90936E02CC2061F00E94D8
:1021B00058201C1414F491E001C09FEF899F802DDA
:1021C000112480937302DD2061F00E9458201D14B9
:1021D00014F491E001C09FEF899F802D112480931A
:1021E0007402309173023323E1F0209174022223B0
:1021F000C1F045EB3403C0011124992319F09093E9
:10220000730203C081E08093730235EB2303C001A6
:102210001124992319F09093740203C081E08093F4
:102220007402E11003C0FF2009F451C080916C02D8
:1022300090916D020E9417219C0190916B0299234D
:1022400009F465C22536310508F441C09F3F19F0F5
:102250009F5F90936B02EE2061F00E9436201E1467
:1022600014F491E001C09FEF899F802D1124809389
:102270007502FF2061F00E9436201F1414F491E0D3
:1022800001C09FEF899F802D1124809376023091A9
:1022900075023323E1F0209176022223C1F045EB51
:1022A0003403C0011124992319F09093750203C0DF
:1022B00081E08093750235EB2303C001112499233B
:1022C00019F09093760203C081E0809376028091AA
:1022D000730281110BC080917402811107C080913B
:1022E0007502811103C08091760281110E94322112
:1022F000CB82DC82ED82FE8286E0F801A1E7B2E0CB
:1023000001900D928A95E1F70E94CE049091770298
:10231000891721F00E94CE04809377028091AA024F
:10232000843009F014CD83E08093E9008091E800C7
:1023300082FF0DCD8091E80085FF21C00E94A41E80
:1023400081111BC080E2E82EF12C680109C0809148
:10235000F100D6018D936D01B1E0EB1AF10869F03F
:102360008091E80085FDF3CF8091E8008B77809322
:10237000E8000E94A41E882399F391E001C090E038
:102380008091E8008B778093E800992309F4DFCCF3
:10239000E9818E2F90E0FC013197E331F10508F0DF
:1023A0007FC1EA5AFF4F0C948B281A8289E0B5C08E
:1023B0008A81823009F490C1833089F0813009F03C
:1023C0006FC12FB7F89480918E0290918F02A091E7
:1023D0009002B09191022FBFBB83AC831CC0FE0161
:1023E0003396A7E8B2E08D918193E215F305D9F712
:1023F00059C18A81823009F053C16B817C818D8102
:102400009E810E94912885E290E024C04C816B81DE
:102410008A810E9491059D8366C1CD80DE80DC2487
:10242000CD24DC248C81EB809A81E8E0EE9E700163
:102430001124F8E39F9FE00CF11C1124E80EF11C1D
:10244000E80EF11C6D2DC70186960E94C0276C2DE9
:10245000C70187960E94C02725C10E945D0522C141
:102460008A818138B1F050F4803809F01BC120E036
:102470004B81609184028091830231C0823859F18E
:10248000833809F00FC120E0409185026C818B8177
:1024900026C060E08B810E94330A9B81809182027A
:1024A000911111C08E7F80938202109281022FEFD2
:1024B00030E742E0215030404040E1F700C00000EA
:1024C0000E94E805EFC081608093820260E08695FB
:1024D0000E94330AE7C08B8180938602E3C00E948A
:1024E0003809E0C08A81813899F030F4803809F0E9
:1024F000D9C08091850211C0823899F0833809F0E3
:10250000D1C0809183028B83809184028C83CAC066
:102510008091820280FF03C086958B83C3C080E0D8
:10252000FCCF80918602F9CF609182027091830284
:1025300080918402909185020E942609B3C080E1B7
:1025400051C082E08A838AEFE8CFEA80FB80FE24D4
:10255000EF24FE24AC80B12C6801C7018A5F9E4F36
:102560009601201B310B2A153B0508F09BC0AAEFF2
:10257000EA16A2E0FA0628F40E94AC27F60184834A
:1025800003C0D60114961C92BFEFEB1AFB0AEFEFC3
:10259000CE1ADE0AE2CFEA80FB80FE24EF24FE247E
:1025A000AC80B12C6801C7018A5F9E4F9601201B49
:1025B000310B2A153B0508F075C0FAEFEF16F2E073
:1025C000FF0628F4D60114966C910E94C027BFEF35
:1025D000EB1AFB0AEFEFCE1ADE0AE5CF0E944D059B
:1025E00061C084E08A835EC0EA80FB80FE24EF2421
:1025F000FE24AC80B12C6801C70186969601201B91
:10260000310B2A153B0508F04DC0F0EEEF16F10432
:1026100030F40E94AC27D60114968C9302C0F601C8
:102620001482FFEFEF1AFF0A2FEFC21AD20AE4CF8B
:10263000EA80FB80FE24EF24FE24AC80B12C6801EC
:10264000C70186969601201B310B2A153B0550F5D4
:1026500030EEE316F10428F4D60114966C910E9432
:10266000C027BFEFEB1AFB0AEFEFCE1ADE0AE8CF66
:1026700080E00E94C4056FEF7FEF80E090E00E9451
:10268000DE2710C0C8010E94031FFFEF11EE24E0F7
:10269000F15010402040E1F700C000000E94E0200F
:1026A0008FEF8983C8010E94031F51CB80E189BD50
:1026B00082E189BD09B400FEFDCF8091D8008F7DF5
:1026C0008093D8008091E00082608093E000809148
:1026D000E00081FDFCCF3BCB85E290E00E94AC277F
:1026E0001B821C821D828E83DDCF60E085E290E03C
:1026F0000E94C0270E945D050E944D0581E00E9456
:10270000C4055FCA2D32314008F04CCD8ACD2D3240
:10271000314008F09DCDDBCD5F926F927F928F921A
:102720009F92AF92BF92CF92DF92EF92FF920F9360
:102730001F93CF93DF93CDB7DEB729970FB6F894E9
:10274000DEBF0FBECDBFFC0180819181238134812A
:10275000232B31F09F3F31F491E08F3F19F403C0F8
:1027600091E001C090E090FD40C67F0185E0DE0170
:10277000119601900D928A95E1F7F70122818981E6
:102780009A81222349F00E944D22182F682F8981B7
:102790009A810E94C52203C00E949A22182F698143
:1027A0007A81812F0E94B7058C01F70192819923CC
:1027B00009F4DFC0980122513F452031310508F06E
:1027C00004C18FEF93E00E94AC278111DCC002515D
:1027D00036E0832E99249394002379F08114F4E059
:1027E0009F0609F4D0C0C4010E94AC27811101C02A
:1027F00001501FEF811A910AEFCF1E821F821886A7
:102800001986662463942AE0522E84010F5F1F4FBD
:10281000C4010E94AC278E831F82882309F4B3C0B1
:102820009FEF980F933060F48F836E8222E0820EC8
:10283000911CC8010E94AC278887811102C0A3C0E7
:1028400048018E010A5F1F4FF80120812223E9F21F
:10285000213009F04CC08181813049F46801F2E0F7
:10286000CF0ED11CF80182810E948B260AC08230D3
:1028700051F46801F2E0CF0ED11CF80182810E9470
:102880002C26860173C0833049F46801F2E0CF0E34
:10289000D11CF80182810E94ED25F3CF843019F01C
:1028A0000F5F1F4F63C0F80122810E5F1F4F80E052
:1028B00090E030E0205331092A30310568F4589E09
:1028C000A001599E500D1124C901840F951F0F5F5F
:1028D0001F4FF8012081EDCF009709F447C0EFE9C1
:1028E000FFE03197F1F700C000000197F5CFE22F2C
:1028F000F0E0EC53FC4F7490822F86958695869578
:1029000090E0FC01EC54FC4FA4902770B12C022EF7
:1029100002C0B594A7940A94E2F7F1E0AF22BB2479
:10292000FC01EC55FC4FC490D12C02C0D594C79447
:102930002A95E2F721E0C222DD24A114B10419F0A6
:1029400081EE0E942C26C114D10419F086EE0E945B
:102950002C26872D0E948B26CD2819F086EE0E940A
:10296000ED25AB2819F081EE0E94ED250F5F1F4F7A
:102970006BCF00313FE5130709F02EC581E00E94BF
:10298000F9220E940B1A80910303877009F42DC568
:10299000F7018281882309F428C582E029960FB6C1
:1029A000F894DEBF0FBECDBFDF91CF911F910F9185
:1029B000FF90EF90DF90CF90BF90AF909F908F905F
:1029C0007F906F905F900C941E230031FFE51F07EE
:1029D00011F481E005C001312FE5120721F482E0F6
:1029E0000E943723CECF043FFCE51F0749F406E2DF
:1029F00021EE40EE64EF7CE5C7010E94DA04C3CF0C
:102A0000053F2CE5120708F04AC1093D3CE51307D4
:102A100031F407E225EE45EE69ED7CE5EDCF0A3DA8
:102A20008CE5180731F408E221E045EE6AED7CE51B
:102A3000E3CF083DECE51E0731F406E221EE41EE5E
:102A400068ED7CE5D9CF992309F45EC1109292021A
:102A500002303CE5130708F441C106318CE5180744
:102A600038F098012B5F3C452930310508F036C11C
:102A70000E949F219093500280934F0200319CE569
:102A8000190709F4C3C008F041C00830FCE51F076E
:102A900009F49AC0F0F404303CE5130709F487C048
:102AA00068F402309CE5190709F477C003301C452F
:102AB00009F0E5C080914F02826076C00630FCE5E7
:102AC0001F0709F46EC008F07BC080914F02886038
:102AD0006BC00C303CE5130709F485C068F40A307C
:102AE0009CE5190709F474C008F079C00E94CD254F
:102AF00080914F02806858C00E30FCE51F0709F432
:102B000076C008F07FC080914F028BC00C3F3CE53F
:102B1000130709F44FC018F503319CE5190709F4B0
:102B20007DC078F40131FCE51F0709F473C0023160
:102B30001C4509F0A4C00E94CD2580914F028F77DB
:102B400033C005313CE5130709F472C008F486C0B0
:102B50000B3F1C4509F093C0809150023EC0011507
:102B6000EDE51E0709F45FC058F40E3F2CE512078F
:102B700009F444C008F43FC08091500282602DC027
:102B800002308DE5180709F475C008F45DC0033004
:102B90001D4509F074C060E06EC080914F028160F5
:102BA00003C080914F02806180934F0268C0809182
:102BB0004F0211C0809150028260809350025FC02A
:102BC00080914F028062F0CF80914F028064ECCF01
:102BD00080914F0288608460E7CF8160EECF809162
:102BE0004F028E7FE1CF80914F028D7FDDCF8091AC
:102BF0004F02877FD9CF8091500218C08091500238
:102C00008D7FDBCF80914F028F7ECECF80914F02A0
:102C10008F7DCACF80914F028F7BC6CF80914F02AC
:102C2000877F8B7FC1CF809150028D7F8E7FC5CFF4
:102C300080914F0282FB222720F991E0922790FB9E
:102C400082F990FB83F9B0CF80915002982F909534
:102C500091708E7F892B90FB81F9AFCF0E94CD259B
:102C600080914F0287FB222720F991E0922790FB69
:102C700087F99ACF61E08EE090E00E94C0276091D2
:102C80004F021091500284E090E00E94C027612F13
:102C900081E290E00E94C0270E94CD2574CE063FBD
:102CA000FCE51F0731F406E221EE42EE66EF7CE51B
:102CB000A3CE063F2CE5120730F407E225EE44EEE2
:102CC00065EF7CE599CE073F3CE5130709F0BBCEE5
:102CD00007E225EE46EE67EF7CE58ECE8091060397
:102CE0000631ECE51E0741F58A7A91E009F490E09F
:102CF00090939302882311F065E301C069E28FEAA3
:102D000092E00E94852115C006311C4509F0AFC034
:102D100080919302882309F466C385E3EFEAF2E029
:102D20009281891301C01282319602E0E53BF007DF
:102D3000B9F70E94202227CE8272F801E35CFC459D
:102D4000E431F10508F07CC0E759FF4F0C948B2863
:102D50008091820280FF1BC08E7F809382026091EF
:102D600082027091830280918402909185020E9478
:102D70002609109281021FEF20E732E01150204017
:102D80003040E1F700C000000E94E805FCCD816002
:102D90008093820261E0869550C045E75AE06EE775
:102DA0007AE02CC04EE75AE065E77AE027C04FEFA3
:102DB00059E068E07AE022C048E05AE06FEF79E03D
:102DC0001DC047EE59E063EF79E018C043EF59E0CA
:102DD00067EE79E013C04FEC59E06BED79E00EC07F
:102DE0004BED59E06FEC79E009C041E15AE062E255
:102DF0007AE004C042E25AE061E17AE00E94E20532
:102E0000C2CD61E081E019C065E082E011C068E0F8
:102E100086E00EC06EE089E00BC064E18FE008C080
:102E200067E185E105C061E088E107C062E289E110
:102E30000E94880AA8CD61E083E20E94330AA3CDF4
:102E400001158CE5180731F00F3D1C4581F40E94F7
:102E5000B02199CD0E94CD25FFEF04E31CE0F15095
:102E600000401040E1F700C000000E94E020F701A0
:102E700000811181992349F0C8010E944D22D82E6A
:102E8000682FC8010E94C52204C0C8010E949A226E
:102E9000D82EB8018D2D0E94A20B8C01982EF7011F
:102EA000A580A2949FE0A922D280D11010920503A0
:102EB00080910303877099F0DD2089F0812F807F56
:102EC000803421F080E2800F883048F082E00E9458
:102ED0001E23809103038770CC24C3948111C12CDD
:102EE000B12EB2948FE0B8228B2D90E08C309105FA
:102EF00008F040C2FC01E358FF4F0C948B28812F4F
:102F0000807F1F70882311F01295107FDD20B9F0AB
:102F1000112309F41AC280E2800F883010F091105A
:102F200006C080910603182B1093060305C08091FC
:102F30000503182B109305030E94202206C2802F40
:102F40000E94ED25112309F415C2005E109508308A
:102F500010F0911006C08091060318231093060309
:102F600005C0809105031823109305030E942022B9
:102F700001C2812F807F1F70803211F01295107F67
:102F8000992021F0F1E09F16E1F02AC0DD2081F0C8
:102F900080910703AA2051F001E0A01207C0182B6E
:102FA000181709F4E7C110930703E4C1812B10C07F
:102FB000AA2021F021E0A21609F4DCC10E941A2205
:102FC00027C0DD2041F035E03A1508F4D3C1812F48
:102FD0000E94E325CFC184E08A1508F4CBC118C054
:102FE000DD2049F0AA2099F3F701858180FFADC16A
:102FF0008F708583ECCFAA2059F0093309F0B7C14F
:10300000FFEF17EE23E0F15010402040E1F7ADC193
:10301000812F0E94D825AEC1812F86958695837019
:1030200019F0813059F0A6C1DD2019F0C801937064
:1030300002C080E090E00E94B804A2C1DD2019F037
:10304000C801937002C080E090E00E94A20498C181
:10305000802FDD2019F00E94782002C00E94B11F4D
:103060000E9432218DC1812F837009F069C0D11077
:1030700085C1902F929596959770990F990F802FF3
:103080008F70882E912CA12CB12C092E04C0880C95
:10309000991CAA1CBB1C0A94D2F704FF12C04FE073
:1030A00050E060E070E004C0440F551F661F771FBA
:1030B0009A95D2F7DB01CA0180959095A095B095BD
:1030C00003C080E090E0DC0116951695412F437017
:1030D000423019F1C8F400910803109109032091BE
:1030E0000A0330910B03413059F088299929AA2904
:1030F000BB29BC01CD0160237123822393230AC025
:10310000802A912AA22AB32ABC01CD0168297929F3
:103110008A299B290E94582331C188299929AA29E3
:10312000BB29009108031091090320910A033091F3
:103130000B03BC01CD016027712782279327EACFBB
:10314000DD2019F0812F817001C08695882309F454
:1031500015C1902F929596959770990F990F802F82
:103160008F70882E912CA12CB12C092E04C0880CB4
:10317000991CAA1CBB1C0A94D2F704FF12C04FE092
:1031800050E060E070E004C0440F551F661F771FD9
:103190009A95D2F7DB01CA0180959095A095B095DC
:1031A00003C080E090E0DC0116951695412F437036
:1031B0004230D9F068F50091AB021091AC02209139
:1031C000AD023091AE02413059F088299929AA29DF
:1031D000BB29BC01CD0160237123822393231EC030
:1031E000802A912AA22AB32A13C088299929AA29B8
:1031F000BB290091AB021091AC022091AD0230913D
:10320000AE02BC01CD01602771278227932706C03B
:10321000BC01CD01682979298A299B290E94EF22C6
:10322000ADC01F70DD2039F0812F0E943723802F21
:103230000E94E325A3C0802F0E94D825812F0E94E1
:10324000F9229CC0802F32EF931609F440C0391543
:1032500038F090EF991661F0E1EF9E1699F170C089
:10326000F3EF9F16D9F124EF921609F44EC068C00F
:10327000DD2019F134E03A1508F47CC01F7181E0BB
:1032800090E0A0E0B0E0AC01BD0104C0440F551FC8
:10329000661F771F1A95D2F78091AB029091AC020E
:1032A000A091AD02B091AE028A019B0108271927B7
:1032B0002A273B27C901B80125C025E02A1508F4B3
:1032C00059C0DCCFDD2029F0812F8F712CC0DD208B
:1032D000D9F3812F8F710E94F9224CC0DD2079F043
:1032E0001F7181E090E0A0E0B0E0BC01CD0104C01E
:1032F000660F771F881F991F1A95D2F703C060E0E9
:1033000070E0CB010E94EF2235C0DD2079F01F7103
:10331000812F0E94372338E0139FC001112483605E
:1033200080930303812F0E94372324C081E00E94F1
:103330001E2381E08A15F0F482E00E941E231AC049
:10334000DD2039F0AA2009F4BFCF802F0E942C265F
:1033500011C0AA2009F4BDCF893349F49FEFE7EEED
:10336000F3E09150E040F040E1F700C00000802F12
:103370000E94ED2588EF8B0D843010F40E94CE045E
:10338000CC2099F18091030380FD2FC0F7011282B8
:103390008595859585950E943723C7010E948C13DA
:1033A0008091030385958595859529960FB6F894A8
:1033B000DEBF0FBECDBFDF91CF911F910F91FF9068
:1033C000EF90DF90CF90BF90AF909F908F907F90C5
:1033D0006F905F900C94F92201318FE5180709F086
:1033E00002CB82E0CCCA89E299CC29960FB6F89438
:1033F000DEBF0FBECDBFDF91CF911F910F91FF9028
:10340000EF90DF90CF90BF90AF909F908F907F9084
:103410006F905F9008950F931F938091AB029091EE
:10342000AC02A091AD02B091AE028C019D0106707C
:10343000112722273327BC01CD01063011052105B4
:10344000310511F4686001C0677F1F910F910C94E2
:10345000EF221F93CF93DF93CDB7DEB7AA970FB6B6
:10346000F894DEBF0FBECDBFE2EAF2E08091F1003A
:10347000819342E0EA3AF407C9F78091A3028330CE
:1034800009F462C030F4813071F0823009F49CC0DC
:10349000B3C08A3009F488C08B3009F46DC089301C
:1034A00009F0AAC020C08091A202813A09F0A4C00C
:1034B0008091E800877F8093E8008091A602909138
:1034C000A702892B21F468E087E992E003C060E05D
:1034D00080E090E070E00E94F2268091E8008B7717
:1034E0008093E80089C08091A202813209F084C0F3
:1034F0008091A6029091A702009719F0029709F017
:103500007BC08091E800877F8093E8008091E8008D
:1035100082FD05C08091AA028111F8CF6DC0209173
:10352000F3008091F20090E0922B029729F48091B1
:10353000F1008B7F813021F48091F100809396021D
:103540008091E8008B7754C08091A202813A09F003
:1035500053C08091A6029091A702892B09F04CC01C
:103560008091E800877F8093E8008091E80080FFE9
:10357000FCCF80911C0137C08091A2028132E1F51D
:103580008091A6029091A702892BB1F58091E80065
:10359000877F8093E8000E949E268091A4028093FA
:1035A0001C010E94CD2528C08091A202813221F504
:1035B0008091E800877F8093E8000E949E2680919A
:1035C000A5028093950218C08091A202813AA1F4CD
:1035D0008091E800877F8093E8008091E80080FF79
:1035E000FCCF809195028093F1008091E8008E7766
:1035F0008093E8000E949E268091E80083FFE9C145
:103600008091A2029091A302492F50E04A305105C7
:1036100008F0DFC1FA01E757FF4F0C948B28803880
:1036200021F0823809F0D5C108C080919F029091A5
:10363000A002992389F082600FC08091A6028F704A
:10364000873008F0C6C18093E9008091EB0085FBCC
:10365000882780F91092E9009091E800977F909375
:10366000E8008093F1001092F1007CC1282F2D7F9B
:1036700009F0AFC1882319F0823061F0AAC18091AE
:10368000A402813009F0A5C1933009F080E0809355
:10369000A0022EC08091A40281112AC08091A602AE
:1036A0008F702FEF280F263008F093C18093E90028
:1036B0002091EB0020FF1CC0933021F48091EB009F
:1036C000806214C09091EB0090619093EB0021E038
:1036D00030E0A90102C0440F551F8A95E2F74093DC
:1036E000EA001092EA008091EB0088608093EB0082
:1036F0001092E9008091E800877F8093E8000E94A3
:103700009E2667C1811165C11091A4021F77809127
:10371000E3008078812B8093E3008091E800877F2D
:103720008093E8000E949E268091E80080FFFCCFF5
:103730008091E30080688093E300111102C082E071
:1037400001C083E08093AA0244C18058823008F00F
:1037500040C12091A4023091A5022C3D53E03507D1
:1037600079F583E08A838AE289834FB7F894DE0192
:10377000139620E03EE051E2E32FF0E05093570033
:10378000E49120FF03C0E295EF703F5FEF708E2F52
:1037900090E0EA3010F0C79601C0C0968D939D93DB
:1037A0002F5F243149F74FBF8091E800877F8093D6
:1037B000E8006AE270E0CE0101960E94F226C0C0E5
:1037C0008091A6029091A702432F552743305105BF
:1037D000B1F068F44130510509F40AC14230510595
:1037E00009F0F7C08BE590E0E7E2F5E057C0413221
:1037F000510589F14232510509F43CC0EAC0C901C2
:10380000992781309105B9F070F082309105D9F097
:10381000039709F0DEC0E4E9F5E0E4918E2F90E033
:10382000E4E9F5E038C0ECEBF5E0E4918E2F90E0B0
:10383000ECEBF5E030C0ECEAF5E0E4918E2F90E09F
:10384000ECEAF5E028C0EAE9F5E0E4918E2F90E09B
:10385000EAE9F5E020C08330910508F0BAC0880F8E
:10386000991FFC01EC57FE4F0190F081E02D89E09B
:1038700090E014C08330910508F0ABC0FC01EE0F5E
:10388000FF1FE258FE4F0190F081E02DDC01A558AA
:10389000BE4F8C9190E0009709F49BC02091E80006
:1038A000277F2093E8002091A8023091A9022817D1
:1038B000390708F4C90140E0009789F12091AA0274
:1038C000222309F43DC02530D9F12091E80023FDE1
:1038D00037C02091E80022FD2FC02091E80020FF92
:1038E000EBCF4091F3002091F20030E0342B0097B1
:1038F00059F02830310540F444914093F10031965D
:1039000001972F5F3F4FF3CF41E02830310509F099
:1039100040E02091E8002E772093E800CDCF4111C0
:10392000CDCF0AC08091AA02882351F0853041F0A2
:103930008091E80083FD04C08091E80082FFF2CF0F
:103940008091E8008B778093E80043C0803809F0CD
:1039500040C08091E800877F8093E8008091A102B9
:103960008093F1008091E8008E77C7CE811131C03D
:103970008091A4029091A5029927029754F5809115
:10398000E800877F8093E8001091A4021093A102C1
:103990000E949E26111106C08091E30087FD02C09F
:1039A00081E001C084E08093AA0242E061EC81E002
:1039B0000E94BD2642E261EC84E00E94BD2642E204
:1039C00061EC82E00E94BD2642E260EC83E00E944E
:1039D000BD268091E80083FF10C08091E800877FBA
:1039E0008093E8008091EB0080628093EB0005C03B
:1039F00082E190E0E2E8F5E051CFAA960FB6F894A4
:103A0000DEBF0FBECDBFDF91CF911F9108951F92F2
:103A10000F920FB60F9211242F933F934F935F9302
:103A20006F937F938F939F93AF93BF93CF93DF93C6
:103A3000EF93FF93C091E900CF708091EC00D82FF5
:103A4000D17080FDD0E81092E9008091F000877F6E
:103A50008093F00078940E94291A1092E9008091D6
:103A6000F00088608093F000CD2BCF70C093E90008
:103A7000FF91EF91DF91CF91BF91AF919F918F9186
:103A80007F916F915F914F913F912F910F900FBE5A
:103A90000F901F901895E8EDF0E080818E7F808375
:103AA0001092E2001092DA001092E100A0EEB0E075
:103AB0008C9181608C9380818F77808319BCA7ED76
:103AC000B0E08C918E7F8C9380818F7E808310926A
:103AD00094020895CF92DF92EF92FF920F931F937B
:103AE000CF93DF93C8EDD0E088818F7E8883E7EDA8
:103AF000F0E080818160808384E082BF81E08093F8
:103B0000940288818E7F888302EE10E0F801108293
:103B10001092DA0081EEC82ED12CF6011082888135
:103B20008F77888388818068888388818F7D888368
:103B300019BC1092AA021092A1021092A002109237
:103B40009F0290EEE92EF12CF70180818B7F80831C
:103B500088818160888342E060E080E00E94BD2629
:103B6000F60180818E7F8083F8018081816080836F
:103B7000808188608083F70180818E7F8083888147
:103B800080618883DF91CF911F910F91FF90EF901B
:103B9000DF90CF9008951F920F920FB60F921124CD
:103BA0002F933F934F935F936F937F938F939F9345
:103BB000AF93BF93EF93FF938091E10082FF09C021
:103BC0008091E20082FF05C08091E1008B7F8093AD
:103BD000E1008091DA0080FF2AC08091D80080FF48
:103BE00026C08091DA008E7F8093DA008091D90020
:103BF00080FF18C080E189BD82E189BD09B400FE63
:103C0000FDCF81E08093AA028091940281110FC0C0
:103C10000E944B1D0E946A1D8091E2008460809387
:103C2000E20005C019BC1092AA0210929402809181
:103C3000E10080FF17C08091E20080FF13C08091F7
:103C4000E2008E7F8093E2008091E20080618093A9
:103C5000E2008091D80080628093D80019BC85E092
:103C60008093AA028091E10084FF32C08091E2003B
:103C700084FF2EC080E189BD82E189BD09B400FEC8
:103C8000FDCF8091D8008F7D8093D8008091E10096
:103C90008F7E8093E1008091E2008F7E8093E2002E
:103CA0008091E20081608093E2008091A1028823EC
:103CB00011F084E007C08091E30087FD02C081E03D
:103CC00001C083E08093AA020E94CD250E94CE0409
:103CD0008091E10083FF27C08091E20083FF23C031
:103CE0008091E100877F8093E10082E08093AA02C7
:103CF0001092A1028091E1008E7F8093E10080917B
:103D0000E2008E7F8093E2008091E20080618093E8
:103D1000E20042E060E080E00E94BD268091F00079
:103D200088608093F000FF91EF91BF91AF919F91D8
:103D30008F917F916F915F914F913F912F910F9054
:103D40000FBE0F901F9018952091E4003091E50070
:103D500095E64091EC00842F817040FF23C0809154
:103D6000E80080FD1DC08091AA02882399F085306B
:103D700099F08091EB0085FD11C04091E4005091D5
:103D8000E5002417350729F3915011F09A01E1CF8E
:103D900084E0089582E0089583E0089581E0089525
:103DA00080E008954091E80042FFDDCF0895EF9252
:103DB000FF920F931F93CF93DF937C018B010E949F
:103DC000A41E811119C0E70101151105A1F0809110
:103DD000E80085FD0AC08091E8008E778093E800B6
:103DE0000E94A41E882381F307C089918093F1006B
:103DF00001501109E9CF80E0DF91CF911F910F9120
:103E0000FF90EF900895CF932091AA022430F9F407
:103E1000C091E900CF703091EC00232F217030FD6C
:103E200020E8C22B22E02093E9002091E80020FF47
:103E30000BC040E050E060E270E00E94D71E80912D
:103E4000E8008E778093E800CF70C093E900CF91AF
:103E50000895809196020895CF93DF9300D01F922A
:103E6000CDB7DEB79091AA02943011F589837B8398
:103E70006A839093E9008FEF9091E800815095FD5F
:103E800006C095ED9A95F1F700008111F5CF80916C
:103E9000E80085FF0DC040E050E063E070E0CE0137
:103EA00001960E94D71E8091E8008E778093E800EB
:103EB0000F900F900F90DF91CF910895BC0184E097
:103EC0000C942C1FBC0183E00C942C1F24E0209345
:103ED000E9002FEF3091E800215035FD06C035EDA7
:103EE0003A95F1F700002111F5CF2091E80025FF68
:103EF0000BC040E050E066E070E00E94D71E809169
:103F0000E8008E778093E8000895CF93DF9321E057
:103F10002093E9002FEF3091E800215035FD06C0D5
:103F200035ED3A95F1F700002111F5CF2091E80029
:103F300025FF14C0EC0140E050E068E070E00E9412
:103F4000D71E8091E8008E778093E80088E0FE011C
:103F5000A7E9B2E001900D928A95E1F7DF91CF9148
:103F60000895803F39F48091740287FF6AC01092EF
:103F7000740267C0813F29F4809174021816BCF363
:103F800060C090917302823F29F497FF5AC010924B
:103F9000730257C0833F19F41916CCF352C09091A5
:103FA0007502893F31F419160CF04BC0109275025E
:103FB00048C08A3F19F497FF44C0F8CF8B3F39F4CB
:103FC0008091760287FF3DC0109276023AC08C3F06
:103FD00029F4809176021816BCF333C0843F21F493
:103FE000809172028E7F17C0853F21F4809172020A
:103FF0008D7F11C0863F21F4809172028B7F0BC0B0
:10400000873F21F480917202877F05C0883F31F499
:10401000809172028F7E8093720213C08D3F21F4D3
:1040200080910C038E7F0BC08E3F21F480910C0396
:104030008D7F05C08F3F29F480910C038B7F809387
:104040000C0380917302811106C08091740281116A
:1040500002C010926E0280917502811106C080919B
:104060007602811102C010926B02089580910C03B8
:1040700080FD16C081FD16C082FD18C080916B02C4
:10408000882391F0883290F428E0829FC0011124A7
:1040900068E270E00E947728862F672B29F007C01E
:1040A00082E0089584E0089581E0089588E008950D
:1040B00080910C0380FD14C081FD14C082FD16C0E8
:1040C00080916E02882381F0843180F422E3829F04
:1040D000C001112464E170E00E947728862F0895C2
:1040E0008CE0089589E1089585E0089582E30895BC
:1040F000803F21F40E945820819504C0813F29F41B
:104100000E945820809374020895823F21F40E94F7
:104110005820819504C0833F29F40E945820809341
:1041200073020895893F19F40E94362005C08A3F22
:1041300031F40E94362081958093750208958B3F5B
:1041400021F40E943620819504C08C3F29F40E94FE
:104150003620809376020895843F21F48091720284
:10416000816017C0853F21F480917202826011C086
:10417000863F21F48091720284600BC0873F21F456
:1041800080917202886005C0883F31F4809172028C
:1041900080618093720208958D3F21F480910C0319
:1041A00081600BC08E3F21F480910C03826005C0BA
:1041B0008F3F29F480910C03846080930C03089551
:1041C00087E797E790930108809300089AE088E1D9
:1041D0000FB6F894A895809360000FBE909360008E
:1041E000FFCF78941F920F920FB60F9211248F93E6
:1041F0009F93AF93BF9380918E0290918F02A09175
:104200009002B09191020196A11DB11D80938E0282
:1042100090938F02A0939002B0939102BF91AF91BF
:104220009F918F910F900FBE0F901F9018959C013A
:104230004FB7F89480918E0290918F02A0919002D6
:10424000B09191024FBF821B930B08952FB7F89442
:1042500080918E0290918F02A0919002B091910274
:104260002FBF08950E94262120917302211104C0BE
:1042700020917402222321F09093700280936F02A8
:1042800020917502211104C020917602222321F091
:1042900090936D0280936C02E0915202F091530270
:1042A000309749F082E0809371020480F581E02D1F
:1042B00081E792E0099408951F920F920FB60F9232
:1042C00011248F939F93AF93BF93809154028111D8
:1042D00013C080918E0290918F02A0919002B091B4
:1042E00091024196A11DB11D80938E0290938F0281
:1042F000A0939002B0939102BF91AF919F918F9143
:104300000F900FBE0F901F9018959C01FC013296E4
:104310009FEF80E04191461789F09F3F19F44111CA
:1043200001C0982F8F5F8630A9F79F3F39F0F901C0
:10433000E90FF11D97FDFA95628308950895CF93D3
:1043400084E090E00E94AC27C82F81E290E00E94B8
:10435000AC272C2F30E0A901582BCA01CF9108952A
:104360006CEE7EEF80E090E00E94DE2760E082E06D
:1043700090E00E94C02760E083E090E00E94C027A8
:10438000109208031092090310920A0310920B0373
:1043900060E084E090E00E94C02760E081E290E06D
:1043A0000E94C02760E085E090E00E94C02760E0A6
:1043B00086E090E00E94C0276FEF87E090E00E94C7
:1043C000C02740E050E0BA0188E090E00E94D22788
:1043D00060E08DE090E00E94C02740E050E0BA012C
:1043E00088E190E00E94D22760E087E190E00E949F
:1043F000C02740E050E0BA018CE190E00E94D22753
:1044000060E080E290E00E94C02740E050E0BA0106
:1044100088E190E00E94D22740E050E0BA018FE0AE
:1044200090E00E94D22740E050E0BA0183E190E0A2
:104430000C94D227809107038111109207030895ED
:104440009091060380910503892B20910403982FF6
:10445000922B9093AF0280910703882389F0892BD8
:104460008093AF02E1EBF2E097E080E0915029F019
:1044700021912223D9F38F5FF9CF81110E941A2253
:10448000E0915202F0915302309731F00280F381B3
:10449000E02D8FEA92E009940895BF92CF92DF92C7
:1044A000EF92FF920F931F93CF93DF938C01C090F5
:1044B000AB02D090AC02E090AD02F090AE028091E1
:1044C000080390910903A0910A03B0910B03C82A35
:1044D000D92AEA2AFB2ACFE1D0E0D701C6010C2E67
:1044E00004C0B695A795979587950A94D2F780FD55
:1044F00004C0219790F7B12C07C0BC2EB8018C2FB7
:104500000E94A20B0197A9F38B2DDF91CF911F91F0
:104510000F91FF90EF90DF90CF90BF900895CF93D1
:10452000DF93EC010E944D22BE010E94A20BDF919D
:10453000CF910895990F990F890F682F6695669509
:104540006695982F977085E0689FB001112440E030
:1045500050E080E0FB01E40FF51FE151FD4F2081A9
:1045600030E0092E02C0369527950A94E2F72170B3
:104570003327042E01C0220F0A94EAF7822B4F5FE3
:104580005F4F4530510531F70895990F990F890F05
:10459000E82FE695E695E695877051E001C0550F46
:1045A0008A95EAF785E0E89FF0011124E151FD4F7B
:1045B00020E030E070E04081CB01022E02C09695F1
:1045C00087950A94E2F78170819584278523842753
:1045D00081932F5F3F4F2530310569F70895609330
:1045E000AB027093AC028093AD029093AE020C9438
:1045F000B0250F931F9341E050E060E070E004C0ED
:10460000440F551F661F771F8A95D2F74095509526
:10461000609570958091AB029091AC02A091AD0233
:10462000B091AE028A019B01082319232A233B2360
:10463000C901B8011F910F910C94EF22209103033F
:104640008095822380930303982F977079F430E04C
:10465000482F082E000C550B2417350739F0859587
:10466000859585950E94F9221092030308950F9372
:104670001F9341E050E060E070E004C0440F551F1C
:10468000661F771F8A95D2F78091AB029091AC029A
:10469000A091AD02B091AE028A019B01082B192BAB
:1046A0002A2B3B2BC901B8011F910F910C94EF22CB
:1046B000609308037093090380930A0390930B039C
:1046C0000C94B0258091EE029091BD02891719F0EB
:1046D0008F5F8770FBCF08950F931F93CF93DF9366
:1046E0008091BC0282958F7009F05DC08091B90203
:1046F000882309F458C08091EE021091BD026091A8
:10470000B7027091B802C091BA02D091BB0291E099
:104710006F3F09F090E0292F06E0811709F443C0AC
:10472000209721F07F3F21F030E003C031E001C04D
:10473000322F90E030FD34C0089FF001099FF00D4A
:104740001124DF01A254BD4F11963C9111973713EC
:1047500027C03C91361324C012963C911297311118
:104760001FC013964D915C9114974C1B5D0B483CF8
:104770005105B0F48091BC028F7080618093BC02BF
:10478000ED53FD4F80818F708061808387EB92E0D5
:104790000E948C13DF91CF911F910F910C94622393
:1047A00001968770BACFDF91CF911F910F91089535
:1047B0000E948F22292F2F70E92FE295EF704E2F44
:1047C00050E0FA013297EE30F105B8F4ED56FF4FA4
:1047D0000C948B28803F99F018F4883E70F40FC039
:1047E000843F59F40CC0883E50F0813F31F407C03B
:1047F000822F869586958695089580E0089581E0BC
:1048000008959F92AF92BF92CF92DF92EF92FF9264
:104810000F931F93CF93DF93CDB7DEB761970FB69A
:10482000F894DEBF0FBECDBF8C0185E0F801DE013C
:104830001D9601900D928A95E1F7F8019081818192
:10484000E2803091B7026091B8024091BA02509173
:10485000BB024115510531F06F3F31F421E03F3F7C
:1048600019F403C021E001C020E0F22FF1709F2E67
:1048700020FD23C1F801C380D48027EBA22E22E0C3
:10488000B22EF090B902F601E41BF50BFF2009F4FB
:10489000CEC02091BC02E83CF10508F099C0422F3F
:1048A000407F09F051C0681311C039130FC0FE2CAE
:1048B000E1100CC02F7020612093BC02C5010E9442
:1048C0008C138091BC02F801858337C1CD2831F06B
:1048D0008F3F31F421E09F3F19F403C021E001C074
:1048E00020E020FD03C021E02E2502C020E030E0C2
:1048F000F22FF170FF2E20FF1DC02091EE0240919B
:10490000BD0256E0241709F4F6C030E0529FF001D2
:10491000539FF00D1124E254FD4F6181861306C0B0
:104920006081961303C06281E61204C02F5F3F4F7F
:104930002770E8CFFE2CEE2009F4FFC08091BC0266
:1049400081608093BC0250C0681307C0391305C052
:10495000E11003C0F80125838DC09D878E878D856A
:104960009E850E94D823882369F1EE2059F1209179
:10497000BC02822F82958F7090E0029774F0809134
:10498000B7029091B80298878F831986DB86CA8612
:104990002C87CE0107960E948C1386E0F801A7EBC6
:1049A000B2E001900D928A95E1F70E946C230DC050
:1049B0006817E1F09D878E878D859E850E94D8239C
:1049C00081111EC0C8010E948C13FF24F394B5C04E
:1049D000422F407F69F787EB92E00E948C1386E0BC
:1049E000F50111928A95E9F7F12CA7C03913E2CFAE
:1049F000E110E0CFF8012583C8010E948C1357C055
:104A0000EE2001F32091BC02822F82958F7090E0FE
:104A100002971CF28091B7029091B8029A83898321
:104A20001B82DD82CC822E83CE010196B4CFE83C7E
:104A3000F105E8F5FE2CEE2029F2681327C03913A2
:104A400025C02091BC0220FD18C0822F82958F7056
:104A5000482F50E04115510581F0F80125834F3072
:104A6000510541F08F5F982F9295907F822F8F7024
:104A7000892B8583C8010E948C1386E0F801A7EB7F
:104A8000B2E001900D928A95E1F757C09D878E871D
:104A90008D859E850E94D82381117FCF8091BC0295
:104AA00081608093BC02C8010E948C1346C086E0DE
:104AB000F50111928A95E9F740C0EE2009F482CF02
:104AC0009D878E878D859E850E94D823F82E88230A
:104AD00009F478CF86E0F801A7EBB2E001900D92DF
:104AE0008A95E1F78091B7029091B8020E948F22D7
:104AF0000E946C2322C09D878E878D859E850E9493
:104B00008F22292F22952F70223028F49F7039F0A0
:104B1000811105C00BC0243028F49F7049F4805ED9
:104B2000883020F0C8010E948C139F2CF92C05C0FE
:104B3000F8019581907F99F7F9CF8F2D61960FB687
:104B4000F894DEBF0FBECDBFDF91CF911F910F91C3
:104B5000FF90EF90DF90CF90BF90AF909F9008951F
:104B600010920503109204030E942022E1E7F2E074
:104B700086E0DF011D928A95E9F710926E0210928D
:104B80006B0210920C030E94322180E090E00E94A0
:104B9000B80480E090E00C94A2041092060386E032
:104BA000E1EBF2E0DF011D928A95E9F70C94B02564
:104BB000882341F080959091060389238093060312
:104BC0000C9420220895882339F090910603892BB4
:104BD000809306030C94202208958823E1F19CEF32
:104BE000980F913A60F4EFEAF2E09281891301C0E4
:104BF0001282319642E0E53BF407B9F714C090E227
:104C0000980F983090F4877021E030E0A90102C03D
:104C1000440F551F8A95E2F7CA01809590910603CB
:104C20008923809306030C9420229BE5980F9330F0
:104C300020F480E090E00C94B80498E5980F973148
:104C400020F480E090E00C94A204803F20F00E94C9
:104C5000B11F0C9432210895CF93882309F459C0D1
:104C6000C82F8CEF8C0F813AF8F4E1EBF2E087EB80
:104C700092E02191C21721F08E179F07D1F70EC045
:104C8000EFEAF2E085EB92E02281C21301C01282CA
:104C900031968E179F07C1F70E9420226C2F8FEA52
:104CA00092E00E94852110C080E28C0F883078F459
:104CB000C77081E090E001C0880FCA95EAF7909133
:104CC0000603892B80930603CF910C942022EBE5F9
:104CD000EC0FE33040F4F0E0E657FE4F808190E0C7
:104CE000CF910C94B804E8E5EC0FE73150F4F0E014
:104CF000EE0FFF1FE357FE4F80819181CF910C94FF
:104D0000A204C03F30F08C2F0E947820CF910C94E9
:104D10003221CF910895CF93C82F0E942C26C933FA
:104D200049F42FEF87EE93E0215080409040E1F767
:104D300000C000008C2FCF910C94ED258091A20231
:104D400087FF11C08091E80082FD05C08091AA0212
:104D50008111F8CF11C08091E8008B770BC0809152
:104D6000AA02882349F08091E80080FFF8CF809163
:104D7000E8008E778093E8000895982F973068F5C3
:104D80009093E900981739F07091EC002091ED00B4
:104D90005091F00003C0242F762F50E021FD02C077
:104DA0009F5FECCF3091EB003E7F3093EB00309172
:104DB000ED003D7F3093ED003091EB00316030939A
:104DC000EB007093EC002093ED005093F0002091E5
:104DD000EE0027FDE5CF80E008958F708093E90015
:104DE00081E008952091A8023091A9022617370783
:104DF00048F06115710539F42091E8002E77209371
:104E0000E80001C0B901FC0120E06115710579F1EC
:104E10008091AA028823F1F18530F1F18091E800B8
:104E200083FD3CC08091E80082FD2EC08091E800A7
:104E300080FFEBCF2091F3008091F20090E0922B65
:104E40006115710551F08830910538F42191209356
:104E5000F100615071090196F3CF21E0089709F044
:104E600020E08091E8008E778093E800CECF21117A
:104E7000CFCF0AC08091AA02882361F0853061F00B
:104E80008091E80083FD0AC08091E80082FFF2CFA4
:104E900080E0089582E0089583E0089581E0089518
:104EA0008F929F92AF92BF92CF92DF92EF92FF923A
:104EB000CF93DF93EC01688179818A819B816115B1
:104EC00071058105910521F464E279ED8BE597E0A8
:104ED0002DE133EF41E050E00E94F42749015A01EF
:104EE0009B01AC01A7EAB1E40E9413286B017C018D
:104EF000ACEEB4EFA50194010E942128DC01CB01A6
:104F00008C0D9D1DAE1DBF1DB7FF03C00197A109EC
:104F1000B04888839983AA83BB839F77DF91CF9121
:104F2000FF90EF90DF90CF90BF90AF909F908F90C9
:104F300008950E945027089580E091E00E94502734
:104F40000895A0E0B0E08093000190930101A09348
:104F50000201B09303010895F999FECF92BD81BD7E
:104F6000F89A992780B50895A6E1B0E044E050E0B2
:104F70000C94E627A8E1B0E042E050E00C94E6276C
:104F8000262FF999FECF92BD81BDF89A019700B402
:104F9000021639F01FBA20BD0FB6F894FA9AF99AA2
:104FA0000FBE08950396272F0E94C1270E94C02795
:104FB000252F0E94C127242F0C94C1270196272F4B
:104FC0000E94C1270C94C027DC01CB01FC01F99998
:104FD000FECF06C0F2BDE1BDF89A319600B40D9245
:104FE00041505040B8F70895052E97FB1EF40094E9
:104FF0000E940B2857FD07D00E94262807FC03D0EB
:105000004EF40C940B2850954095309521953F4FC8
:105010004F4F5F4F089590958095709561957F4FA4
:105020008F4F9F4F08950E944828A59F900DB49FD1
:10503000900DA49F800D911D11240895B7FF0C942D
:1050400013280E941328821B930B0895A1E21A2EA5
:10505000AA1BBB1BFD010DC0AA1FBB1FEE1FFF1F1C
:10506000A217B307E407F50720F0A21BB30BE40B6C
:10507000F50B661F771F881F991F1A9469F76095B3
:105080007095809590959B01AC01BD01CF0108956D
:10509000A29FB001B39FC001A39F700D811D112479
:1050A000911DB29F700D811D1124911D0895991BB2
:1050B00079E004C0991F961708F0961B881F7A950F
:1050C000C9F780950895AA1BBB1B51E107C0AA1F11
:1050D000BB1FA617B70710F0A61BB70B881F991F99
:1050E0005A95A9F780959095BC01CD01089597FB3D
:1050F000072E16F4009407D077FD09D00E9463288C
:1051000007FC05D03EF4909581959F4F08957095CA
:1051100061957F4F0895EE0FFF1F0590F491E02DEC
:10512000099469279627692778278727782708957C
:105130000E944828332312F48A1B9B0B0C94A2284C
:105140000E944828B7FF0895821B930B0895FC0125
:105150004150504030F001900616D1F73197CF0101
:0C5160000895882799270895F894FFCF40
:10516C000100000001191A1B1C1D1E1F2021220109
:10517C000201291F851F661F621F5E1F01000102AD
:10518C000202020606060909090909090F0F0F0F89
:10519C000F0F151515181919191919191919191994
:1051AC002324252525252525FFFF6697C634359113
:1051BC009094320100030001010301000002000081
:1051CC0001020100FF0100010000FFFF00000100CF
:1051DC0001FF0092F7313393F4F5F6402281E70496
:1051EC00C5044404390552057205818283E200E945
:1051FC0000EA00B500B600B700CD008301CC008AF0
:10520C000192019401210223022402250226022785
:0C521C00022A02B300B4006F0070000012
:00000001FF
