:100000000C94AB020C94F2020C94F2020C94F202E7
:100010000C94F2020C94F2020C94F2020C94F20290
:100020000C94F2020C94F2020C9443180C947F1777
:100030000C94E31B0C94F2020C94F2020C94F20266
:100040000C94F2020C94F2020C94F2020C94F20260
:100050000C94FF100C94781B0C94F2020C94F20296
:100060000C94F2020C94F2020C94F2020C94F20240
:100070000C94F2020C94F2020C94F2020C94F20230
:100080000C94F2020C94F2020C94F2020C94F20220
:100090000C94F2020C94F2020C94F2020C94F20210
:1000A0000C94F2020C94F2020C94F202B506B5061E
:1000B000EF06EF0642075E07F008F00869074708F9
:1000C0005808580823095F0961099709B00971099F
:1000D000CB09EA0CED0C1D0D2A0D320D520D550DFC
:1000E000700D890D260E300E8E0D900D950DBA0DEA
:1000F000DC0DDF0DE20D060E8715AE156117AE158E
:100100006117FA151D1661171E172E17D41ED41E5F
:10011000E71EE71EDD1EE71EE71EE71ED41ED41EE7
:10012000E21EE71EE71EE21E0000000000000000C5
:100130000000000000000000000000007E0F00D45E
:10014000FFFFFFC700000078000000000000000073
:100150002A2B280000000000000000000000000022
:1001600000000029000000002C1E3420212224342D
:100170002627252E362D3738271E1F2021222324FF
:1001800025263333362E37381F0405060708090A9B
:100190000B0C0D0E0F101112131415161718191A37
:1001A0001B1C1D2F3130232D350405060708090AB5
:1001B0000B0C0D0E0F101112131415161718191A17
:1001C0001B1C1D2F3130354C0000000000000000CA
:1001D00000000001010203040506080A0C0F1114B7
:1001E000181C2024292E33393F464C535B626A7118
:1001F00079818A929AA2AAB2B9C1C8CFD5DCE1E7C7
:10020000EBF0F4F7FAFCFDFEFFFEFDFCFAF7F4F06C
:10021000EBE7E1DCD5CFC8C1B9B2AAA29A928A8134
:1002200079716A625B534C463F39332E2924201C76
:100230001814110F0C0A080605040302010100003E
:10024000000000000000000014001A000800150063
:1002500017001C0018000C00120013000400160008
:10026000070009000A000B000D000E000F002D43CF
:100270001D001B00060019000500110010003600CB
:1002800037003800E000E300E200E1002A422C41A0
:1002900028004C00E40029001E001F00200021005F
:1002A0002200230024002500260027002B00000048
:1002B000000035002F0030003100330034002D00E5
:1002C00000000000000000002E002D0000000100D2
:1002D0000100010001000100010001000100000017
:1002E00001000100010001003A003B003C003D001C
:1002F0003E003F0040004100420043002B0044000C
:1003000045000000000000000000000000000000A8
:100310003900460047004800000053000000AA00D2
:10032000A900A80001000100010001000100010076
:100330000000000000000000290000000000000094
:10034000000049004B0052004E004C002B00000002
:100350000000000000004A00500051004F00000063
:10036000000000000000000000004D00C05CBE5C0A
:10037000BF5C000001000100010001002A00000034
:10038000000000000000000005010902A101850233
:100390000901A10005091901290515002501950587
:1003A000750181029501750381010501093009314B
:1003B0001581257F95027508810609381581257FED
:1003C000950175088106050C0A38021581257F956F
:1003D0000175088106C0C005010980A101850319C6
:1003E000012AB700150126B700950175108100C0DC
:1003F000050C0901A101850419012AA00215012695
:10040000A002950175108100C005010906A10185B2
:1004100005050719E029E7150025019508750181F3
:10042000020507190029EF1500250195F0750181D6
:1004300002050819012905950575019102950175B7
:10044000039101C00660FF0961A101096215002640
:10045000FF009520750881020963150026FF0095AD
:100460002075089102C005010906A101050719E0E0
:1004700029E7150025019508750181029501750888
:1004800081010507190029FF150026FF0095067553
:100490000881000508190129059505750191029546
:1004A0000175039101C009025B00030100A0FA0974
:1004B0000400000103010100092111010001224093
:1004C000000705810308000A090401000203000077
:1004D00000092111010001222200070582032000EA
:1004E00001070503032000010904020001030000C5
:1004F0000009211101000122BC000705840320002E
:100500000A12011001000000086666696601000118
:1005100002030104033000000026035000340030C1
:100520000020004F007200740068006F0020004B34
:10053000006500790062006F0061007200640000D5
:10054000000E0350006100620069006C006500004D
:1005500000040309040011241FBECFEFDAE0DEBF60
:10056000CDBF04B603FE27C080914B0290914C0290
:10057000A0914D02B0914E028730904BA740B04BF6
:10058000D1F410924B0210924C0210924D02109234
:100590004E0214BE84B7877F84BF0FB6F894A89527
:1005A00080916000886180936000109260000FBEAF
:1005B000E0E0F8E3099511E0A0E0B1E0E2E6F6E45E
:1005C00002C005900D92AA35B107D9F722E0AAE53D
:1005D000B1E001C01D92AB34B207E1F70E94F5090A
:1005E0000C942F230C9400005F926F927F928F9255
:1005F0009F92AF92BF92CF92DF92EF92FF920F93B2
:100600001F93CF93DF93CDB7DEB729970FB6F8943A
:10061000DEBF0FBECDBFFC0180819181238134817B
:10062000232B31F09F3F31F491E08F3F19F403C049
:1006300091E001C090E090FDBAC67F0185E0DE0147
:10064000119601900D928A95E1F7F7012281898137
:100650009A81222349F00E94351D182F682F898125
:100660009A810E94AE1D03C00E94821D182F6981CD
:100670007A81812F0E94D4108C01F7018281882316
:1006800009F4DEC0C80182519F45409708F004C6B6
:100690008FEF93E00E946C228111DCC5025156E677
:1006A000852E99249394002379F08114F4E09F0619
:1006B00009F4D0C5C4010E946C22811101C001500F
:1006C0001FEF811A910AEFCF1E821F8218861986AA
:1006D000662463944AE0542E84010F5F1F4FC401C7
:1006E0000E946C228E831F82882309F4B3C59FEF7A
:1006F000980F933060F48F836E8222E0820E911CFB
:10070000C8010E946C228887811102C0A3C54801DC
:100710008E010A5F1F4FF80120812223E9F2213068
:1007200009F04CC08181813049F46801F2E0CF0EBC
:10073000D11CF80182810E94A7210AC0823051F4A5
:100740006801F2E0CF0ED11CF80182810E942F21B6
:10075000860173C0833049F46801F2E0CF0ED11CEA
:10076000F80182810E94F620F3CF843019F00F5FE8
:100770001F4F63C0F80122810E5F1F4F80E090E0A1
:1007800030E0205331092A30310568F4589EA00129
:10079000599E500D1124C901840F951F0F5F1F4FE3
:1007A000F8012081EDCF009709F447C0EFE9FFE0A1
:1007B0003197F1F700C000000197F5CFE22FF0E08C
:1007C000E85BFE4F7490822F86958695869590E023
:1007D000FC01E85CFE4FA4902770B12C022E02C0F1
:1007E000B594A7940A94E2F7F1E0AF22BB24FC0190
:1007F000E85DFE4FC490D12C02C0D594C7942A95D1
:10080000E2F721E0C222DD24A114B10419F081EE47
:100810000E942F21C114D10419F086EE0E942F21CD
:10082000872D0E94A721CD2819F086EE0E94F62080
:10083000AB2819F081EE0E94F6200F5F1F4F6BCF9F
:1008400000313FE5130731F001318FE51807E1F47E
:1008500082E001C081E00E94E31D0E948314FAC47B
:10086000F801EC5BFC45E730F10508F424C5C8014C
:10087000825E9C45059740F46EE1600F60936001D5
:100880008CE090E00E947A2217FF75C0F701828108
:10089000882309F470C08091440280935A01109219
:1008A000440280916001813071F048F08230A1F003
:1008B0008430C1F486EE0E94A72188E111C082EE47
:1008C0000E942F210FC088E193E00E946D1488E1FF
:1008D00093E00E94571406C082EE0E942F2187E504
:1008E0000E94A7218FE39CE90197F1F700C0000067
:1008F0004801E89497F83CE0A32EB12CC4010A2CDF
:1009000002C0969587950A94E2F78F7061F0C82E21
:10091000D12C8A3020F49DE1C90ED11C07C0E6E03D
:10092000CE1AD10803C027E2C22ED12CC6010E94E4
:100930006D14C6010E945714F4E0AF1AB1082CEFF1
:10094000A2162FEFB206D1F680916001813039F006
:1009500040F0823031F0843051F488E206C08CE2FD
:1009600004C082EE0E94F62002C00E94A72180915E
:100970005A0180934402043F3CE5130741F190F48F
:10098000093D9CE51907E9F00A3DECE51E0789F1F0
:10099000083DFCE51F07B1F506E221EE41EE68EDEA
:1009A0007CE52CC0063F2CE51207E9F0B0F0073FCC
:1009B0008CE5180739F507E225EE46EE67EF7CE592
:1009C0001DC007E225EE45EE69ED7CE517C006E2A5
:1009D00021EE40EE64EF7CE511C007E225EE44EE27
:1009E00065EF7CE50BC006E221EE42EE66EF7CE5AA
:1009F00005C008E221E045EE6AED7CE5C7010E94F2
:100A0000F70F28C4F7018281882309F43FC11092AF
:100A10005B010230FCE51F0708F422C106312CE51A
:100A2000120738F098012B5F3C452930310508F05A
:100A300017C10E946E1C90936D0180936C01003170
:100A40003CE5130709F4C3C008F041C008309CE539
:100A5000190709F49AC0F0F40430FCE51F0709F403
:100A600087C068F402303CE5130709F477C003300F
:100A70001C4509F0E5C080916C01826076C00630AB
:100A80009CE5190709F46EC008F07BC080916C01E9
:100A900088606BC00C30FCE51F0709F485C068F462
:100AA0000A303CE5130709F474C008F079C00E94CD
:100AB000E12080916C01806858C00E309CE51907D8
:100AC00009F476C008F07FC080916C018BC00C3FA8
:100AD000FCE51F0709F44FC018F503313CE5130787
:100AE00009F47DC078F401319CE5190709F473C05D
:100AF00002311C4509F0A4C00E94E12080916C01E4
:100B00008F7733C00531FCE51F0709F472C008F484
:100B100086C00B3F1C4509F093C080916D013EC01B
:100B200001158DE5180709F45FC058F40E3FECE598
:100B30001E0709F444C008F43FC080916D01826033
:100B40002DC002302DE5120709F475C008F45DC010
:100B500003301D4509F074C060E06EC080916C01E7
:100B6000816003C080916C01806180936C0168C0DA
:100B700080916C0111C080916D01826080936D0144
:100B80005FC080916C018062F0CF80916C018064C5
:100B9000ECCF80916C0188608460E7CF8160EECFFC
:100BA00080916C018E7FE1CF80916C018D7FDDCFD4
:100BB00080916C01877FD9CF80916D0118C08091A1
:100BC0006D018D7FDBCF80916C018F7ECECF8091C8
:100BD0006C018F7DCACF80916C018F7BC6CF8091D5
:100BE0006C01877F8B7FC1CF80916D018D7F8E7F60
:100BF000C5CF80916C0182FB222720F991E09227DA
:100C000090FB82F990FB83F9B0CF80916D01982F12
:100C1000909591708E7F892B90FB81F9AFCF0E94C8
:100C2000E12080916C0187FB222720F991E0922737
:100C300090FB87F99ACF61E08EE090E00E947A22E3
:100C400060916C0110916D0184E090E00E947A2225
:100C5000612F81E290E00E947A220E94E120FAC294
:100C60000631FCE51F0711F5809144028A7A91E074
:100C700009F490E090935C01882311F065E301C0D2
:100C800069E280ED91E00E94341C0DC006311C45E4
:100C900021F580915C01882309F487C365E380ED29
:100CA00091E00E940C1C0E94EF1CD4C201159CE52F
:100CB000190731F00F3D1C4581F40E947F1CCAC208
:100CC0000E94E120FFEF04E31CE0F15000401040DF
:100CD000E1F700C000000E94671BF701008111814D
:100CE000882349F0C8010E94351DD82E682FC801FD
:100CF0000E94AE1D04C0C8010E94821DD82EB801FA
:100D00008D2D0E94C8128C01982EF701A580A29407
:100D10009FE0A922D280D11010924302809141021B
:100D2000877099F0DD2089F0812F807F803421F059
:100D300080E2800F883048F082E00E94081E809197
:100D400041028770CC24C3948111C12CB12EB2947E
:100D50008FE0B8228B2D90E08C30910508F040C2D6
:100D6000FC01EA5AFF4F0C940823812F807F1F70EB
:100D7000882311F01295107FDD20B9F0112309F4BA
:100D80001AC280E2800F883010F0911006C0809166
:100D90004402182B1093440205C080914302182B83
:100DA000109343020E94EF1C06C2802F0E94F6207F
:100DB000112309F415C2005E1095083010F091104F
:100DC00006C08091440218231093440205C080910C
:100DD00043021823109343020E94EF1C01C2812F8B
:100DE000807F1F70803211F01295107F992021F0C2
:100DF000F1E09F16E1F02AC0DD2081F080914502EC
:100E0000AA2051F001E0A01207C0182B181709F40E
:100E1000E7C110934502E4C1812B10C0AA2021F044
:100E200021E0A21609F4DCC10E94E91C27C0DD20E4
:100E300041F035E03A1508F4D3C1812F0E940B1F11
:100E4000CFC184E08A1508F4CBC118C0DD2049F079
:100E5000AA2099F3F701858180FFADC18F7085834A
:100E6000ECCFAA2059F0093309F0B7C1FFEF17EE14
:100E700023E0F15010402040E1F7ADC1812F0E94E6
:100E8000001FAEC1812F86958695837019F0813041
:100E900059F0A6C1DD2019F0C801937002C080E0AE
:100EA00090E00E94D50FA2C1DD2019F0C801937017
:100EB00002C080E090E00E94BF0F98C1802FDD202B
:100EC00019F00E94FF1A02C00E94381A0E94B91B32
:100ED0008DC1812F837009F069C0D11085C1902F19
:100EE000929596959770990F990F802F8F70882EF5
:100EF000912CA12CB12C092E04C0880C991CAA1C81
:100F0000BB1C0A94D2F704FF12C04FE050E060E02F
:100F100070E004C0440F551F661F771F9A95D2F7E3
:100F2000DB01CA0180959095A095B09503C080E043
:100F300090E0DC0116951695412F4370423019F16F
:100F4000C8F4009146021091470220914802309166
:100F50004902413059F088299929AA29BB29BC01A5
:100F6000CD0160237123822393230AC0802A912A12
:100F7000A22AB32ABC01CD01682979298A299B2993
:100F80000E94421E31C188299929AA29BB290091B2
:100F90004602109147022091480230914902BC015B
:100FA000CD016027712782279327EACFDD2019F032
:100FB000812F817001C08695882309F415C1902F77
:100FC000929596959770990F990F802F8F70882E14
:100FD000912CA12CB12C092E04C0880C991CAA1CA0
:100FE000BB1C0A94D2F704FF12C04FE050E060E04F
:100FF00070E004C0440F551F661F771F9A95D2F703
:10100000DB01CA0180959095A095B09503C080E062
:1010100090E0DC0116951695412F43704230D9F0CF
:1010200068F50091CC011091CD012091CE01309155
:10103000CF01413059F088299929AA29BB29BC013F
:10104000CD0160237123822393231EC0802A912A1D
:10105000A22AB32A13C088299929AA29BB29009159
:10106000CC011091CD012091CE013091CF01BC0176
:10107000CD01602771278227932706C0BC01CD01CF
:10108000682979298A299B290E94D91DADC01F7022
:10109000DD2039F0812F0E94211E802F0E940B1F1E
:1010A000A3C0802F0E94001F812F0E94E31D9CC0BF
:1010B000802F32EF931609F440C0391538F090EFC5
:1010C000991661F0E1EF9E1699F170C0F3EF9F164B
:1010D000D9F124EF921609F44EC068C0DD2019F151
:1010E00034E03A1508F47CC01F7181E090E0A0E084
:1010F000B0E0AC01BD0104C0440F551F661F771F4F
:101100001A95D2F78091CC019091CD01A091CE019A
:10111000B091CF018A019B01082719272A273B2775
:10112000C901B80125C025E02A1508F459C0DCCF53
:10113000DD2029F0812F8F712CC0DD20D9F3812F84
:101140008F710E94E31D4CC0DD2079F01F7181E09A
:1011500090E0A0E0B0E0BC01CD0104C0660F771FB5
:10116000881F991F1A95D2F703C060E070E0CB0189
:101170000E94D91D35C0DD2079F01F71812F0E949A
:10118000211E38E0139FC001112483608093410227
:10119000812F0E94211E24C081E00E94081E81E050
:1011A0008A15F0F482E00E94081E1AC0DD2039F092
:1011B000AA2009F4BFCF802F0E942F2111C0AA209E
:1011C00009F4BDCF893349F49FEFE7EEF3E0915086
:1011D000E040F040E1F700C00000802F0E94F620C0
:1011E00088EF8B0D843010F40E94EB0FCC2009F4B3
:1011F000DEC08091410280FDDAC0F7011282859540
:10120000859585950E94211EC7010E94F402809158
:10121000410285958595859529960FB6F894DEBF90
:101220000FBECDBFDF91CF911F910F91FF90EF9037
:10123000DF90CF90BF90AF909F908F907F906F90F6
:101240005F900C94E31D83E00E94BB1180918701A5
:101250000E94691C80914102877009F4A8C0F701BF
:101260008281882309F4A3C082E029960FB6F894FE
:10127000DEBF0FBECDBFDF91CF911F910F91FF90C9
:10128000EF90DF90CF90BF90AF909F908F907F9026
:101290006F905F900C94081E0031FFE51F0711F45A
:1012A00081E006C001312FE5120709F0D9CA82E0BA
:1012B0000E94211ED2CAEE59FF4F0C94082380E0F1
:1012C000C3CF80918701982F96959695969549F171
:1012D000915E990F990F990F8770892B80938701E1
:1012E00014C090918701892F8695869586958F5F8A
:1012F0008F719770843008F04BC0880F880F880F6B
:10130000892B8093870180918701887F91E009F480
:1013100090E08091870190FB80F9809387010E9483
:10132000691C8091870186958695869523C02091BA
:101330008701822F869586958695482F50E0433009
:10134000510554F48F5F982F990F990F990F822FA1
:101350008770892B80938701809187018160DDCF21
:101360008091870180FF09C08E7F809387010E9452
:10137000691C80E00E9464116DCF816080938701B9
:10138000813019F489E08093870180918701C7CF6C
:1013900090938701B8CF8091870181FF03C00E949D
:1013A000901158CF0E94A61155CF69E278CC2996AA
:1013B0000FB6F894DEBF0FBECDBFDF91CF911F9166
:1013C0000F91FF90EF90DF90CF90BF90AF909F90E4
:1013D0008F907F906F905F900895BC0184E00C9493
:1013E000061ABC0183E00C94061ACF93DF93CDB7A5
:1013F000DEB7AA970FB6F894DEBF0FBECDBF84B795
:10140000877F84BF0FB6F894A895809160008861AB
:1014100080936000109260000FBE90E080E80FB6ED
:10142000F89480936100909361000FBE85B7806847
:1014300085BF85B7806885BF0E94C3170E94E217E9
:101440008091E20084608093E20078948091CB01E7
:101450008823A1F01091E9001F709091EC00892F72
:10146000817090FD80E8182B1092E9008091E800CF
:1014700083FD0E94A1141F701093E90082E084BDD7
:1014800093E095BD9AEF97BD80936E0081E90E942D
:10149000FA1180E90E94FA1184EF0E94FA1185EF97
:1014A0000E94FA110FE011E0F9E1EF2EF1E0FF2EBA
:1014B000F80181918F010E94FA11E016F106C1F73F
:1014C00010926501109264011092890110928801B6
:1014D000109267011092660110928B0110928A019E
:1014E000109269011092680110928D0110928C0186
:1014F00010926B0110926A0110928F0110928E016E
:101500000E941112FFEF26E731E0F15020403040F9
:10151000E1F700C000000E9411128091880180FF55
:101520000AC080E00E94E1106FEF7FEF80E090E062
:101530000E949822A1C380E090E00E9474228C3E19
:101540009E4F11F00E947F1C259A2D9882E880936F
:10155000800089E1809381008FEF9FEF9093870057
:10156000809386000E94D4118091870181FF0BC077
:1015700010925F0110925E0110925D0180916F00E8
:10158000816080936F008CE090E00E946C2290E07C
:10159000A0E0B0E08093600190936101A0936201AC
:1015A000B093630182E290E00E946C22813281F468
:1015B00083E290E00E946C22823051F484E290E059
:1015C0000E946C2291E0893009F090E0892F01C0DF
:1015D00080E080FF75C380E090E00E9474228C3E22
:1015E0009E4F11F00E947F1C82E090E00E946C22CE
:1015F00080937E010E946E1C90936D0180936C011C
:1016000083E090E00E946C22682F70E080E090E020
:101610000E94421E0E94D41180E091E090936F01DD
:1016200080936E018E010F5F1F4FFF24FA9450E1EB
:10163000752E63E0462E512C22242A94312CE9E0A9
:101640006E2EEE24E3948091CB01853009F03EC0EC
:101650008091CB01843039F11092700180E428E14F
:1016600030E00FB6F894A895209360000FBE8093E9
:10167000600080E00E94641183B7817F846083BF33
:1016800083B7816083BF7894889583B78E7F83BF4B
:101690000FB6F894A89580916000886180936000EF
:1016A000109260000FBE8091C101882309F4CBCF56
:1016B0000E941112E8E8F1E081919191892B09F0E3
:1016C000E2C231E0E039F307B9F7BDCF0E94111251
:1016D000A8E8B1E0EFE7F1E0C12CD12C6C2D2D9101
:1016E0003D918191919182279327009779F170E044
:1016F000AA24A394B12CA50148235923452B09F111
:1017000079A36AA32A213B2181E0232B09F480E0FD
:101710008BA30E94AD1B8160782F9DA38CA349A150
:101720005AA16BA18DA10E94230FF601EE0FFF1F9E
:10173000E158FE4F80819181A826B926B182A0820E
:101740001BC07F5FAA0CBB1C7A30A9F64FEFC41AEE
:10175000D40A84E0C816D10409F6FEA2FFA218A696
:101760000E94AD1B8160782F9AA789A74EA15FA127
:1017700068A58AA50E94230F86E0E7E7F1E0D8017B
:1017800001900D928A95E1F7A0907901B0907A01CD
:10179000C0907B01D0907C011092790110927A0167
:1017A00010927B0110927C01A11003C0BB2009F4B0
:1017B0004FC080917501909176010E949E1B9C0103
:1017C00090917401992309F488C22333310508F4F8
:1017D0003FC09F3F19F09F5F90937401AA2061F072
:1017E0000E94DF1A1A1414F491E001C09FEF899F40
:1017F000802D112480937901BB2061F00E94DF1AB3
:101800001B1414F491E001C09FEF899F802D1124D7
:1018100080937A01309179013323D1F020917A01BC
:101820002223B1F045EB3403C0011124992319F0B0
:101830009093790102C0E092790135EB2303C00156
:101840001124992319F090937A0102C0E0927A0151
:10185000C11003C0DD2009F44FC080917201909146
:1018600073010E949E1B9C0190917101992309F4C0
:1018700039C22536310508F43FC09F3F19F09F5FFC
:1018800090937101CC2061F00E94BD1A1C1414F4D5
:1018900091E001C09FEF899F802D112480937B01EF
:1018A000DD2061F00E94BD1A1D1414F491E001C006
:1018B0009FEF899F802D112480937C0130917B01C3
:1018C0003323D1F020917C012223B1F045EB340386
:1018D000C0011124992319F090937B0102C0E0927A
:1018E0007B0135EB2303C0011124992319F0909358
:1018F0007C0102C0E0927C018091790181110BC0D2
:1019000080917A01811107C080917B01811103C010
:1019100080917C0181110E94B91BAB82BC82CD8277
:10192000DE8286E0F801A7E7B1E001900D928A958A
:10193000E1F70E94EB0F90917D01891721F00E9441
:10194000EB0F80937D018091CB01843009F07BCE39
:1019500043E04093E9008091E80082FF74CE8091DB
:10196000E80085FF21C00E941E1981111BC080E282
:10197000A82EB12C680109C08091F100F601819375
:101980006F01F1E0AF1AB10869F08091E80085FDC0
:10199000F3CF8091E8008B778093E8000E941E19B6
:1019A000882399F391E001C090E08091E8008B7763
:1019B0008093E800992309F446CEE9818E2F90E0C8
:1019C000FC013197E331F10508F058C1E759FF4FA9
:1019D0000C9408231A826B8252C18A81823009F4E6
:1019E00067C1833089F0813009F048C12FB7F8947E
:1019F0008091900190919101A0919201B0919301F9
:101A00002FBFBB83AC832BC080918801909189014B
:101A10009B838C8380918A0190918B019D838E831F
:101A200080918C0190918D019F83888780918E0198
:101A300090918F0199878A8722C18A81823009F02B
:101A40001DC16B817C818D819E810E940E2385E268
:101A500090E025C04C816B818A810E94AE109D83ED
:101A60008E830DC1CD80DE80DC24CD24DC248C81EE
:101A7000AB809A8124E1A29E5001112430E5939F0E
:101A8000A00CB11C1124A80EB11CA80EB11C6D2D08
:101A9000C50186960E947A226C2DC50187960E9408
:101AA0007A22EDC00E947A10EAC08A81893019F04A
:101AB0008A3069F0E4C08B8143E0849FC001112427
:101AC000B1010E94BE22862F0E94BB11D8C08B811B
:101AD000811103C00E949011D2C00E94A611CFC0F4
:101AE0008A81893049F08A3009F0C9C08091870124
:101AF000869581708B83C3C080918701869586957A
:101B00008695F89EC0011124B2010E94BE226B830B
:101B1000B6C0809187010E94691CB1C07A82AFC0B3
:101B200082E08A839AE99B83AAC0CA80DB80DC2496
:101B3000CD24DC248C80912C5801C6018A599E4FFB
:101B40009501201B310B2815390508F098C0EAE9EA
:101B5000CE16E2E0DE0628F40E946C22F5018483B2
:101B600002C0F5011482FFEFCF1ADF0A2FEFA21A8D
:101B7000B20AE3CFCA80DB80DC24CD24DC248C8055
:101B8000912C5801C6018A599E4F9501201B310B9B
:101B90002815390508F073C03AE9C31632E0D306B8
:101BA00020F4F50164810E947A22FFEFCF1ADF0A48
:101BB0002FEFA21AB20AE6CF0E946A1060C034E08A
:101BC0003A835DC0CA80DB80DC24CD24DC248C8099
:101BD000912C5801C60186969501201B310B2815C2
:101BE000390508F04CC040E4C41641E0D40628F49E
:101BF0000E946C22F501848302C0F5011482FFEF7C
:101C0000CF1ADF0A2FEFA21AB20AE4CFCA80DB8014
:101C1000DC24CD24DC248C80912C5801C6018696CE
:101C20009501201B310B2815390548F530E4C31602
:101C300031E0D30620F4F50164810E947A22FFEF9F
:101C4000CF1ADF0A2FEFA21AB20AE8CF80E00E9473
:101C5000E1106FEF7FEF80E090E00E9498220FC0CC
:101C6000C8010E947D193FEF41EE84E031504040B1
:101C70008040E1F700C000000E94671BF982C801A4
:101C80000E947D19E0CC79BC82E189BD09B400FED7
:101C9000FDCF8091D8008F7D8093D8008091E000A7
:101CA00082608093E0008091E00081FDFCCFCBCC8E
:101CB00085E290E00E946C221B821C821D82D0CEA5
:101CC00060E085E290E00E947A220E947A100E94F1
:101CD0006A1081E00E94E1107ECC2D32314008F084
:101CE0007ACDB6CD2D32314008F0C9CD05CECF9298
:101CF000DF92EF92FF928C3724E1920728F469E09B
:101D000070E00E94BE2229C0A0E0B0E08A50974D4A
:101D1000AF4FBF4F6627782F892F9A2F25EF38E2D4
:101D200041E050E00E94E62269017A01CA01B9014E
:101D30000E94AE229B01AC01C701B6010E94AE22F7
:101D4000BB27A92F982F872F009721E0A207B10565
:101D500011F0BC0102C06FEF7FEFCB01FF90EF905D
:101D6000DF90CF90089590916C0192FF0DC0282FC5
:101D70002871283019F4877F846006C0282F2471C9
:101D8000243011F48B7F886093FF0DC0282F2871B9
:101D9000283119F4877E846106C0282F24712431EC
:101DA00011F48B7E886120916D0120FF0DC0382FCA
:101DB0003871383019F4877F816006C0382F31714F
:101DC000313011F48E7F886021FF0DC0282F2871DB
:101DD000283119F4877E816106C0282F21712131B5
:101DE00011F48E7E886194FD877E08959C013A955A
:101DF00021153F4138F5DC01AA27B270AC01442718
:101E000054709C012227387094FF0FC090FF02C0CD
:101E100080E101C080E0AB2B09F08062452B09F026
:101E20008064232B69F080680BC0892F8170AB2BF5
:101E300009F08260452B09F08460232B09F088604B
:101E4000FB01099408951F93CF93DF93CDB7DEB7BD
:101E500067970FB6F894DEBF0FBECDBF4B8B5C8B80
:101E60006D8B7E8B8F8B86E09E01235F3F4FD90168
:101E7000E82F1D92EA95E9F795E0FE017396D901E6
:101E800001900D929A95E1F7F901DE011796019004
:101E90000D928A95E1F7CE0107960E94151F8111D8
:101EA0003EC086E0FE013796DE01119601900D924C
:101EB0008A95E1F7FF81E8856A857B856115710563
:101EC00031F0EF3F31F481E0FF3F19F403C081E0CE
:101ED00001C080E080FD23C02091F60130E0C901FF
:101EE0000196877099274091270250E08417950743
:101EF00079F1F983EA837D836C8396E0929FD00128
:101F0000939FB00D1124A950BE4FFE013196019050
:101F10000D929A95E1F78093F6010E944C1E16E00F
:101F2000809127029091F6018917F9F0189FC0015E
:101F3000112489509E4F0E94151F8823B1F0809173
:101F4000270290E001968770992780932702E8CFB7
:101F50000E94E1201092F60110922702E0EFF1E0DA
:101F600086E0DF011D928A95E9F767960FB6F8942F
:101F7000DEBF0FBECDBFDF91CF911F91089520919D
:101F80009B0130919C012817390771F090939C01B7
:101F900080939B01E0916E01F0916F01309721F0E9
:101FA0000084F185E02D09940895209199013091E4
:101FB0009A012817390771F090939A01809399013B
:101FC000E0916E01F0916F01309721F00680F7816A
:101FD000E02D09940895E0916E01F0916F01309722
:101FE00021F00190F081E02D099480E008950F9395
:101FF0001F93CF93DF93C42FD22FFC0182818823BC
:10200000C9F040935B010E94AD1B909398018093AF
:10201000970180E28C0F883008F057C0C77081E0CC
:1020200001C0880FCA95EAF7DF91CF911F910F91F8
:102030000C940B1F80915B01481330C08091970175
:10204000909198010E949E1B883C910538F510E202
:102050001D0FCD17B9F080E28C0F883040F4C770A7
:1020600081E001C0880FCA95EAF70E94001F18306E
:1020700028F581E09D2F977001C0880F9A95EAF7A7
:102080000E940B1F802F0E94A7211830F0F4D770F8
:1020900081E001C0880FDA95EAF70AC080E28C0F70
:1020A000883098F4C77081E001C0880FCA95EAF7BC
:1020B000DF91CF911F910F910C94001F802FDF9122
:1020C000CF911F910F910C94A721DF91CF911F9178
:1020D0000F910895CF93DF93C6E6D1E060E0CE0183
:1020E0000E947A222196C11584E0D807B9F7DF91C2
:1020F000CF910895CF92DF92EF92FF920F931F93AB
:10210000CF93DF93C0E0D0E08E01005B1F4F6E01E4
:1021100084E1C80ED11CFE01E85BFD4FE590F49010
:102120006F2DCE0186960E947A226E2DCE01879663
:102130000E947A222296CC15DD0569F70C171D073F
:1021400031F7E80100341140F9F6DF91CF911F918A
:102150000F91FF90EF90DF90CF9008950F931F9312
:10216000CF93DF93C42FD0E0CC0FDD1F24E1629F1B
:10217000C00DD11D112430E5839FC00DD11D112448
:10218000CE0186960E946C22082F10E0102F0027A7
:10219000CE0187960E946C229801282BC901DF91FD
:1021A000CF911F910F910895462F843038F47430E9
:1021B00028F46A3018F4672F0C94AE1080E090E099
:1021C0000895CF93C82F811102C06FEF01C061E263
:1021D00082E290E00E947A22C11102C06FEF01C03A
:1021E00062E083E290E00E947A22C11102C06FEFA8
:1021F00001C069E084E290E0CF910C947A221F92B2
:102200000F920FB60F9211242F933F934F935F932A
:102210006F937F938F939F93AF93BF93EF93FF93AE
:1022200080915E0190915F01019668EB75E00E94DC
:10223000BE2290935F0180935E016BE070E00E948C
:10224000BE226F7780915D01823019F4603451F4C1
:1022500004C0813039F46F3729F480916F008E7F8C
:1022600080936F00E62FF0E0E853FE4FE49121E009
:1022700031E0E29FC001E39F900D112463E070E024
:102280000E94BE2280918701869586958695282F8B
:10229000269FC001279F900D11240E94770E9093D6
:1022A000890080938800FF91EF91BF91AF919F913A
:1022B0008F917F916F915F914F913F912F910F90EF
:1022C0000FBE0F901F901895843048F4811108C0FC
:1022D000909180009F77909380002D9806C083E0B6
:1022E00090918000906890938000282F30E0AFEFAD
:1022F000BFEF0E94152323E030E040E050E00E9451
:10230000E622B42FA32F922F8827892F9A2FAB2F45
:10231000BB270E94770E90938900809388000895D0
:102320008091870181FF11C08D7F809387010E947A
:10233000691C80916F008E7F80936F008091870170
:102340008695869586950C946411089580918701F1
:1023500081FD10C08260809387010E94691C1092E9
:102360005F0110925E0110925D0180916F008160AB
:1023700080936F000895843008F083E09091870186
:102380009770282F220F220F220F922B90938701F4
:10239000987F21E009F420E09091870120FB90F9DB
:1023A000909387010C94641180E090E00E94742265
:1023B0008C3E9E4F11F00E947F1C86E090E00E94B0
:1023C0006C2280938701282F26952695269530E04C
:1023D0002430310524F087708861809387018091D3
:1023E000870180FF04C086958695869501C080E0B0
:1023F0000C946411F894E82FE295EF70F0E031A1AD
:10240000282F2F7081E090E001C0880F2A95EAF70D
:10241000982F9095932391A392A1892B82A37894CE
:1024200008959F92AF92BF92CF92DF92EF92FF9268
:102430000F931F93CF93DF930BE011E0C4E6D1E03D
:102440008CE6E82E81E0F82E912CCC24C394D12C7C
:10245000B801D8018C91F894E82FE295EF70F0E084
:1024600021A18F70A60102C0440F551F8A95E2F783
:10247000CA01922F982B91A392A18095892382A3C0
:10248000789450EA5A95F1F7EFE0F1E020E030E07F
:10249000A12CB12C4191842F82958F7090E0DC01AA
:1024A00090968C9190E04F7002C0959587954A95D3
:1024B000E2F780FD08C0C601022E02C0880F991FF6
:1024C0000A94E2F702C080E090E0A82AB92A2F5FC0
:1024D0003F4F2A303105F1F60F5F1F4FFB0180811E
:1024E0000E94FA1188819981A816B90621F0B98253
:1024F000A88281E001C080E0982A2296EC16FD06B1
:1025000009F0A6CF992049F081E0809396010E94BE
:10251000AD1B90939501809394018091960188233F
:1025200051F180919401909195010E949E1B069714
:1025300010F18091640190916501909389018093DD
:102540008801809166019091670190938B0180933F
:102550008A01809168019091690190938D01809327
:102560008C0180916A0190916B0190938F0180930F
:102570008E0110929601892DDF91CF911F910F91BD
:10258000FF90EF90DF90CF90BF90AF909F90089515
:10259000CF93DF930E94D410EC018238910559F15A
:1025A000A0F48133910509F473C040F48932910598
:1025B00009F467C08A9709F472C084C08533910515
:1025C00009F458C0C997B9F07DC0833E910571F1F7
:1025D00038F4803E9105B1F0823E910511F172C050
:1025E000863E9105B9F1873E9105C9F1843E91057A
:1025F00009F068C024C080916C0180FD5DC081FD40
:102600005BC060C080916C0180FD50C080916D0105
:1026100080FF49C180916C0184FD43C1C3EED0E0CD
:1026200042C180916C0182FF3EC1F4CF80916C0168
:1026300082FD3FC080916D0180FD3EC0EBCF809157
:102640006D0181FF30C180916C0184FD2AC1C7EE0C
:10265000D0E029C180916C0183FF25C1F4CF809126
:102660006C0183FD2CC080916D0181FFECCFC4EE25
:10267000D0E019C180916C0185FF15C1C9E2D0E09D
:1026800012C180916C0185FF0EC1C5E3D0E00BC182
:1026900080916C0186FF07C1CAE2D0E004C180913D
:1026A0006C0186FF00C1C1E3D0E0FDC0C9E3D0E00A
:1026B000FAC0C2EED0E0F7C0C0EED0E0F4C0C6EE83
:1026C000D0E0F1C0C11581E5D80708F066C0C1159A
:1026D00020E5D207E0F0CE0174E0969587957A95D3
:1026E000E1F783709C2F937021E030E002C0220F4D
:1026F000331F9A95E2F73C68382BCF70C695C69584
:1027000040E2C49FE0011124C22BD32BCCC0C83EB1
:10271000D10560F5C03ED10508F0C5C0C83AD10565
:10272000B0F4C53AD10540F0C55AD0E0C85DDE4FDF
:10273000C881D0E0D064B7C0C130D10509F4B3C0BE
:1027400008F4AFC0C430D10508F4ABC0ACC0CF3B77
:10275000D10508F0A6C0C85AD0E0CC0FDD1FC55D7A
:10276000DE4F0990D881C02DD4649DC0C11540E2D0
:10277000D40758F4C11581E0D80708F094C0C03FD1
:10278000D10508F48EC0D0658EC0C11520E4D207F3
:1027900008F487C0DF70D06A86C0C11545E5D4074C
:1027A00008F042C0C11584E5D80728F0DC2FCC27FB
:1027B000C46FD06A78C0C11523E5D207B0F0CE014E
:1027C0008370992721E030E002C0220F331F8A95E1
:1027D000E2F78C2F8695869540E2849FC0011124F4
:1027E000E901C82BD92BDA685EC0C11542E5D407D0
:1027F00028F4DC2FCC27C16FD06A55C0CE0183707E
:10280000992721E030E002C0220F331F8A95E2F7BA
:102810008C2F8695869540E2849FC0011124E901A2
:10282000C82BD92BDC683FC0C11589E5D807B8F49F
:10283000C11528E5D20728F0DC2FCC27C06FD06A5D
:1028400032C0C11546E5D40760F58C2F0E94B30E47
:102850008F71C82FD0E0DC2FCC27D06224C0C115E7
:102860008AE5D80780F48C2F8F700E94B30E94E015
:10287000D695C7959A95E1F7CF70D0E0DC2FCC279D
:10288000D069C82B10C0CE0190568115904248F4F3
:102890008D2F8F710E94B30EDD27D0628F71D82BE0
:1028A00002C0C0E0D0E0CE01DF91CF910895CF9378
:1028B000DF93EC010E94F620CE01805E910908971B
:1028C00010F0209719F460E07FE102C06BEE7EE12A
:1028D000CE01DF91CF910C94F60ECF93DF93EC01F4
:1028E000805E9109089710F0209719F46BE07FE162
:1028F00002C066EF7EE1CE010E94F60E8C2FDF91C2
:10290000CF910C942F210F931F938091CC01909124
:10291000CD01A091CE01B091CF018C019D01067037
:10292000112722273327BC01CD01063011052105CF
:10293000310511F4686001C0677F1F910F910C94FD
:10294000D91D1F93CF93DF93CDB7DEB7AA970FB6EC
:10295000F894DEBF0FBECDBFE3ECF1E08091F10053
:10296000819341E0EB3CF407C9F78091C4018330C7
:1029700009F462C030F4813071F0823009F49CC0F7
:10298000B3C08A3009F488C08B3009F46DC0893037
:1029900009F0AAC020C08091C301813A09F0A4C007
:1029A0008091E800877F8093E8008091C701909133
:1029B000C801892B21F460E280EA91E003C060E065
:1029C00080E090E070E00E940E228091E8008B771A
:1029D0008093E80089C08091C301813209F084C0EE
:1029E0008091C7019091C801009719F0029709F0F2
:1029F0007BC08091E800877F8093E8008091E800A9
:102A000082FD05C08091CB018111F8CF6DC020916E
:102A1000F3008091F20090E0922B029729F48091CC
:102A2000F1008B7F813021F48091F10080939F0130
:102A30008091E8008B7754C08091C301813A09F0FE
:102A400053C08091C7019091C801892B09F04CC0F7
:102A50008091E800877F8093E8008091E80080FF04
:102A6000FCCF80910A0137C08091C3018132E1F52A
:102A70008091C7019091C801892BB1F58091E80040
:102A8000877F8093E8000E94BA218091C5018093DE
:102A90000A010E94E12028C08091C301813221F502
:102AA0008091E800877F8093E8000E94BA2180919E
:102AB000C60180939E0118C08091C301813AA1F4A0
:102AC0008091E800877F8093E8008091E80080FF94
:102AD000FCCF80919E018093F1008091E8008E7779
:102AE0008093E8000E94BA218091E80083FFE9C149
:102AF0008091C3019091C401492F50E04A305105A3
:102B000008F0DFC1FA01E458FF4F0C940823803825
:102B100021F0823809F0D5C108C08091C0019091A0
:102B2000C101992389F082600FC08091C7018F7025
:102B3000873008F0C6C18093E9008091EB0085FBE7
:102B4000882780F91092E9009091E800977F909390
:102B5000E8008093F1001092F1007CC1282F2D7FB6
:102B600009F0AFC1882319F0823061F0AAC18091C9
:102B7000C501813009F0A5C1933009F080E0809350
:102B8000C1012EC08091C50181112AC08091C70169
:102B90008F702FEF280F263008F093C18093E90043
:102BA0002091EB0020FF1CC0933021F48091EB00BA
:102BB000806214C09091EB0090619093EB0021E053
:102BC00030E0A90102C0440F551F8A95E2F74093F7
:102BD000EA001092EA008091EB0088608093EB009D
:102BE0001092E9008091E800877F8093E8000E94BE
:102BF000BA2167C1811165C11091C5011F7780910C
:102C0000E3008078812B8093E3008091E800877F48
:102C10008093E8000E94BA218091E80080FFFCCFF9
:102C20008091E30080688093E300111102C082E08C
:102C300001C083E08093CB0144C18058823008F00A
:102C400040C12091C5013091C6012C3D53E03507AC
:102C500079F583E08A838AE289834FB7F894DE01AD
:102C6000139620E03EE051E2E32FF0E0509357004E
:102C7000E49120FF03C0E295EF703F5FEF708E2F6D
:102C800090E0EA3010F0C79601C0C0968D939D93F6
:102C90002F5F243149F74FBF8091E800877F8093F1
:102CA000E8006AE270E0CE0101960E940E22C0C0E8
:102CB0008091C7019091C801432F5527433051059A
:102CC000B1F068F44130510509F40AC142305105B0
:102CD00009F0F7C08BE590E0E6EAF4E057C0413236
:102CE000510589F14232510509F43CC0EAC0C901DD
:102CF000992781309105B9F070F082309105D9F0B3
:102D0000039709F0DEC0E3E1F5E0E4918E2F90E057
:102D1000E3E1F5E038C0E1E5F5E0E4918E2F90E0E5
:102D2000E1E5F5E030C0E1E4F5E0E4918E2F90E0DC
:102D3000E1E4F5E028C0E9E1F5E0E4918E2F90E0D0
:102D4000E9E1F5E020C08330910508F0BAC0880FB2
:102D5000991FFC01EE5DFE4F0190F081E02D89E0AE
:102D600090E014C08330910508F0ABC0FC01EE0F79
:102D7000FF1FE45EFE4F0190F081E02DDC01A75EB5
:102D8000BE4F8C9190E0009709F49BC02091E80021
:102D9000277F2093E8002091C9013091CA012817AC
:102DA000390708F4C90140E0009789F12091CB016F
:102DB000222309F43DC02530D9F12091E80023FDFC
:102DC00037C02091E80022FD2FC02091E80020FFAD
:102DD000EBCF4091F3002091F20030E0342B0097CC
:102DE00059F02830310540F444914093F100319678
:102DF00001972F5F3F4FF3CF41E02830310509F0B5
:102E000040E02091E8002E772093E800CDCF4111DB
:102E1000CDCF0AC08091CB01882351F0853041F09D
:102E20008091E80083FD04C08091E80082FFF2CF2A
:102E30008091E8008B778093E80043C0803809F0E8
:102E400040C08091E800877F8093E8008091C201B4
:102E50008093F1008091E8008E77C7CE811131C058
:102E60008091C5019091C6019927029754F58091F0
:102E7000E800877F8093E8001091C5011093C2019C
:102E80000E94BA21111106C08091E30087FD02C0A3
:102E900081E001C084E08093CB0142E061EC81E0FD
:102EA0000E94D92142E261EC84E00E94D92142E2F1
:102EB00061EC82E00E94D92142E260EC83E00E9452
:102EC000D9218091E80083FF10C08091E800877FBE
:102ED0008093E8008091EB0080628093EB0005C056
:102EE00082E190E0E1E0F5E051CFAA960FB6F894C8
:102EF000DEBF0FBECDBFDF91CF911F9108951F920E
:102F00000F920FB60F9211242F933F934F935F931D
:102F10006F937F938F939F93AF93BF93CF93DF93E1
:102F2000EF93FF93C091E900CF708091EC00D82F10
:102F3000D17080FDD0E81092E9008091F000877F89
:102F40008093F00078940E94A1141092E90080917F
:102F5000F00088608093F000CD2BCF70C093E90023
:102F6000FF91EF91DF91CF91BF91AF919F918F91A1
:102F70007F916F915F914F913F912F910F900FBE75
:102F80000F901F901895E8EDF0E080818E7F808390
:102F90001092E2001092DA001092E100A0EEB0E090
:102FA0008C9181608C9380818F77808319BCA7ED91
:102FB000B0E08C918E7F8C9380818F7E8083109285
:102FC0009D010895CF92DF92EF92FF920F931F938E
:102FD000CF93DF93C8EDD0E088818F7E8883E7EDC3
:102FE000F0E080818160808384E082BF81E0809313
:102FF0009D0188818E7F888302EE10E0F8011082A7
:103000001092DA0081EEC82ED12CF6011082888150
:103010008F77888388818068888388818F7D888383
:1030200019BC1092CB011092C2011092C1011092F2
:10303000C00190EEE92EF12CF70180818B7F808317
:1030400088818160888342E060E080E00E94D9212D
:10305000F60180818E7F8083F8018081816080838A
:10306000808188608083F70180818E7F8083888162
:1030700080618883DF91CF911F910F91FF90EF9036
:10308000DF90CF9008951F920F920FB60F921124E8
:103090002F933F934F935F936F937F938F939F9360
:1030A000AF93BF93EF93FF938091E10082FF09C03C
:1030B0008091E20082FF05C08091E1008B7F8093C8
:1030C000E1008091DA0080FF2AC08091D80080FF63
:1030D00026C08091DA008E7F8093DA008091D9003B
:1030E00080FF18C080E189BD82E189BD09B400FE7E
:1030F000FDCF81E08093CB0180919D0181110FC0B4
:103100000E94C3170E94E2178091E20084608093BE
:10311000E20005C019BC1092CB0110929D01809174
:10312000E10080FF17C08091E20080FF13C0809112
:10313000E2008E7F8093E2008091E20080618093C4
:10314000E2008091D80080628093D80019BC85E0AD
:103150008093CB018091E10084FF34C08091E20034
:1031600084FF30C080E189BD82E189BD09B400FEE1
:10317000FDCF8091D8008F7D8093D8008091E100B1
:103180008F7E8093E1008091E2008F7E8093E20049
:103190008091E20081608093E2008091C2018823E7
:1031A00011F084E007C08091E30087FD02C081E058
:1031B00001C083E08093CB010E94E1200E94D411E2
:1031C0000E94EB0F8091E10083FF27C08091E20015
:1031D00083FF23C08091E100877F8093E10082E03C
:1031E0008093CB011092C2018091E1008E7F809389
:1031F000E1008091E2008E7F8093E2008091E20006
:1032000080618093E20042E060E080E00E94D9218A
:103210008091F00088608093F000FF91EF91BF9162
:10322000AF919F918F917F916F915F914F913F915E
:103230002F910F900FBE0F901F9018952091E400D2
:103240003091E50095E64091EC00842F817040FFBD
:1032500023C08091E80080FD1DC08091CB018823B0
:1032600099F0853099F08091EB0085FD11C0409177
:10327000E4005091E5002417350729F3915011F02F
:103280009A01E1CF84E0089582E0089583E00895F3
:1032900081E0089580E008954091E80042FFDDCF8D
:1032A0000895EF92FF920F931F93CF93DF937C01CA
:1032B0008B010E941E19811119C0E701011511052A
:1032C000A1F08091E80085FD0AC08091E8008E772A
:1032D0008093E8000E941E19882381F307C089911A
:1032E0008093F10001501109E9CF80E0DF91CF9187
:1032F0001F910F91FF90EF900895CF932091CB01F4
:103300002430F9F4C091E900CF703091EC00232F04
:10331000217030FD20E8C22B22E02093E9002091AB
:10332000E80020FF0BC040E050E060E270E00E9447
:1033300051198091E8008E778093E800CF70C09398
:10334000E900CF91089580919F01089524E0209392
:10335000E9002FEF3091E800215035FD06C035ED32
:103360003A95F1F700002111F5CF2091E80025FFF3
:103370000BC040E050E066E070E00E94511980917F
:10338000E8008E778093E8000895CF93DF93209133
:103390000A01222339F020916C0127FF03C060E26B
:1033A00024E002C068E021E02093E9002FEF309193
:1033B000E800215035FD06C035ED3A95F1F70000E3
:1033C0002111F5CF2091E80025FF1DC0EC0180916F
:1033D0000A01811105C040E050E068E070E003C0E0
:1033E00070E040E050E0CE010E9451198091E80069
:1033F0008E778093E80080E2FE01A0EAB1E00190C0
:103400000D928A95E1F7DF91CF910895CF93DF93E5
:1034100000D01F92CDB7DEB79091CB01943011F55B
:1034200089837B836A839093E9008FEF9091E80012
:10343000815095FD06C095ED9A95F1F70000811138
:10344000F5CF8091E80085FF0DC040E050E063E0DB
:1034500070E0CE0101960E9451198091E8008E77AC
:103460008093E8000F900F900F90DF91CF91089517
:10347000803F39F480917A0187FF6AC010927A0107
:1034800067C0813F29F480917A011816BCF360C0AF
:1034900090917901823F29F497FF5AC010927901E7
:1034A00057C0833F19F41916CCF352C090917B0199
:1034B000893F31F419160CF04BC010927B0148C0C3
:1034C0008A3F19F497FF44C0F8CF8B3F39F48091BD
:1034D0007C0187FF3DC010927C013AC08C3F29F4EB
:1034E00080917C011816BCF333C0843F21F4809195
:1034F00078018E7F17C0853F21F4809178018D7F00
:1035000011C0863F21F4809178018B7F0BC0873FEB
:1035100021F480917801877F05C0883F31F4809144
:1035200078018F7E8093780113C08D3F21F48091C4
:103530004A028E7F0BC08E3F21F480914A028D7F1C
:1035400005C08F3F29F480914A028B7F80934A0205
:1035500080917901811106C080917A01811102C0A8
:103560001092740180917B01811106C080917C01D1
:10357000811102C010927101089580914A0280FD6C
:1035800016C081FD16C082FD18C08091710188238C
:1035900091F0883290F428E0829FC001112468E203
:1035A00070E00E94D222862F672B29F007C082E0AC
:1035B000089584E0089581E0089588E00895809159
:1035C0004A0280FD14C081FD14C082FD16C08091A6
:1035D0007401882381F0843180F422E3829FC0014A
:1035E000112464E170E00E94D222862F08958CE0BD
:1035F000089589E1089585E0089582E30895803F64
:1036000021F40E94DF1A819504C0813F29F40E94B1
:10361000DF1A80937A010895823F21F40E94DF1A15
:10362000819504C0833F29F40E94DF1A80937901B9
:103630000895893F19F40E94BD1A05C08A3F31F4EC
:103640000E94BD1A819580937B0108958B3F21F4E0
:103650000E94BD1A819504C08C3F29F40E94BD1AB6
:1036600080937C010895843F21F4809178018160EA
:1036700017C0853F21F480917801826011C0863F98
:1036800021F48091780184600BC0873F21F4809100
:103690007801886005C0883F31F4809178018061AD
:1036A0008093780108958D3F21F480914A028160D2
:1036B0000BC08E3F21F480914A02826005C08F3F8B
:1036C00029F480914A02846080934A02089587E732
:1036D00097E790930108809300089AE088E10FB67D
:1036E000F894A895809360000FBE90936000FFCF80
:1036F00078941F920F920FB60F9211248F939F937D
:10370000AF93BF938091900190919101A09192010C
:10371000B09193010196A11DB11D809390019093EA
:103720009101A0939201B0939301BF91AF919F91AA
:103730008F910F900FBE0F901F9018959C014FB75F
:10374000F8948091900190919101A0919201B09193
:1037500093014FBF821B930B08952FB7F89480916C
:10376000900190919101A0919201B09193012FBF8E
:1037700008950E94AD1B20917901211104C0209170
:103780007A01222321F09093760180937501209194
:103790007B01211104C020917C01222321F0909310
:1037A000730180937201E0916E01F0916F01309787
:1037B00049F082E0809377010480F581E02D87E76E
:1037C00091E0099408951F920F920FB60F92112461
:1037D0008F939F93AF93BF9380917001811113C01A
:1037E0008091900190919101A0919201B0919301EB
:1037F0004196A11DB11D8093900190939101A093DA
:103800009201B0939301BF91AF919F918F910F90CF
:103810000FBE0F901F90189520910A012223C9F026
:1038200020916C0127FF15C0262F269526952695F9
:103830002E31C8F4FC01E20FF11D677081E090E0C9
:1038400001C0880F6A95EAF7809592818923828367
:103850000895FC0106962281621301C012823196FE
:10386000E817F907C1F7089520910A012223C1F052
:1038700020916C0127FF14C0262F269526952695AA
:103880002E3130F5FC01E20FF11D677081E090E010
:1038900001C0880F6A95EAF79281892B8283089587
:1038A000FC0132962FEF30E04191641789F02F3FF1
:1038B00019F4411101C0232F3F5F3630A9F72F3F84
:1038C00039F0FC01E20FF11D27FDFA95628308959E
:1038D0000895682F86E090E00C947A22CF9384E0DC
:1038E00090E00E946C22C82F81E290E00E946C223E
:1038F0002C2F30E0A901582BCA01CF9108956CEE0E
:103900007EEF80E090E00E94982260E082E090E00C
:103910000E947A2260E083E090E00E947A22109276
:10392000460210924702109248021092490260E04B
:1039300084E090E00E947A2260E081E290E00E94C0
:103940007A2260E085E090E00E947A2260E086E0E2
:1039500090E00E947A226FEF87E090E00E947A2246
:1039600040E050E0BA0188E090E00E948C2260E0E4
:103970008DE090E00E947A2240E050E0BA0188E1B8
:1039800090E00E948C2260E087E190E00E947A2221
:1039900040E050E0BA018CE190E00E948C2260E0AF
:1039A00080E290E00E947A2240E050E0BA0188E193
:1039B00090E00E948C2240E050E0BA018FE090E05D
:1039C0000E948C2240E050E0BA0183E190E00C9428
:1039D0008C228091450281111092450208959091A8
:1039E000440280914302892B20914202982F922B0E
:1039F0009093D001809145028823D9F0892B809340
:103A0000D00180910A01882331F080916C0187FFF9
:103A100002C08EE101C086E0E2EDF1E090E081506D
:103A200028F021912223D9F39F5FF9CF91110E94B1
:103A3000E91CE0916E01F0916F013097A9F080913F
:103A40000A01882359F080916C0187FF07C080919B
:103A5000D0018093D10185E08093D0010280F38171
:103A6000E02D80ED91E009940895BF92CF92DF920E
:103A7000EF92FF920F931F93CF93DF938C01C0902F
:103A8000CC01D090CD01E090CE01F090CF0180919B
:103A9000460290914702A0914802B0914902C82A7B
:103AA000D92AEA2AFB2ACFE1D0E0D701C6010C2EA1
:103AB00004C0B695A795979587950A94D2F780FD8F
:103AC00004C0219790F7B12C07C0BC2EB8018C2FF1
:103AD0000E94C8120197A9F38B2DDF91CF911F91FE
:103AE0000F91FF90EF90DF90CF90BF900895CF930C
:103AF000DF93EC010E94351DBE010E94C812DF91C8
:103B0000CF9108952AE0929F800D1124682F669529
:103B100066956695982F977085E0689FB00111248F
:103B200040E050E080E0FB01E40FF51FE85DFD4F51
:103B3000208130E0092E02C0369527950A94E2F7DD
:103B400021703327042E01C0220F0A94EAF7822B3A
:103B50004F5F5F4F4530510531F708952AE0929F3E
:103B6000800D1124E82FE695E695E695877051E0E3
:103B700001C0550F8A95EAF785E0E89FF00111240E
:103B8000E85DFD4F20E030E070E04081CB01022E87
:103B900002C0969587950A94E2F7817081958427F3
:103BA0008523842781932F5F3F4F2530310569F7A7
:103BB00008956093CC017093CD018093CE019093D2
:103BC000CF010C94C4200F931F9341E050E060E0BC
:103BD00070E004C0440F551F661F771F8A95D2F707
:103BE00040955095609570958091CC019091CD0154
:103BF000A091CE01B091CF018A019B010823192326
:103C00002A233B23C901B8011F910F910C94D91DA0
:103C1000209141028095822380934102982F9770D2
:103C200079F430E0482F082E000C550B2417350787
:103C300039F08595859585950E94E31D1092410286
:103C400008950F931F9341E050E060E070E004C0DE
:103C5000440F551F661F771F8A95D2F78091CC01BC
:103C60009091CD01A091CE01B091CF018A019B012D
:103C7000082B192B2A2B3B2BC901B8011F910F913F
:103C80000C94D91D609346027093470280934802BA
:103C9000909349020C94C420809127029091F601E0
:103CA000891719F08F5F8770FBCF08950F931F93CB
:103CB000CF93DF938091F50182958F7009F05DC0FD
:103CC0008091F201882309F458C080912702109155
:103CD000F6016091F0017091F101C091F301D09172
:103CE000F40191E06F3F09F090E0292F06E0811781
:103CF00009F443C0209721F07F3F21F030E003C05A
:103D000031E001C0322F90E030FD34C0089FF00157
:103D1000099FF00D1124DF01A950BE4F11963C916F
:103D20001197371327C03C91361324C012963C914B
:103D3000129731111FC013964D915C9114974C1B33
:103D40005D0B483C5105B0F48091F5018F708061A6
:103D50008093F501E450FE4F80818F7080618083F5
:103D600080EF91E00E94F402DF91CF911F910F91BB
:103D70000C944C1E01968770BACFDF91CF911F91A2
:103D80000F9108950E94771D292F2F70E92FE2953A
:103D9000EF704E2F50E0FA013297EE30F105B8F493
:103DA000EA57FF4F0C940823803F99F018F4883E9F
:103DB00070F40FC0843F59F40CC0883E50F0813F2E
:103DC00031F407C0822F869586958695089580E008
:103DD000089581E00895882341F0809590914302F1
:103DE0008923809343020C94EF1C0895882339F0B3
:103DF00090914302892B809343020C94EF1C089509
:103E0000882341F080959091440289238093440255
:103E10000C94EF1C0895882339F090914402892B6B
:103E2000809344020C94EF1C08959F92AF92BF922E
:103E3000CF92DF92EF92FF920F931F93CF93DF9376
:103E4000CDB7DEB761970FB6F894DEBF0FBECDBF1A
:103E50008C0185E0F801DE011D9601900D928A9596
:103E6000E1F7F80190818181E2803091F001609169
:103E7000F1014091F3015091F4014115510531F0E8
:103E80006F3F31F421E03F3F19F403C021E001C04E
:103E900020E0F22FF1709F2E20FD23C1F801C38096
:103EA000D48020EFA22E21E0B22EF090F201F60194
:103EB000E41BF50BFF2009F4CEC02091F501E83C8E
:103EC000F10508F099C0422F407F09F051C06813F6
:103ED00011C039130FC0FE2CE1100CC02F702061EF
:103EE0002093F501C5010E94F4028091F501F801CB
:103EF000858337C1CD2831F08F3F31F421E09F3FDA
:103F000019F403C021E001C020E020FD03C021E03E
:103F10002E2502C020E030E0F22FF170FF2E20FFAE
:103F20001DC0209127024091F60156E0241709F4A4
:103F3000F6C030E0529FF001539FF00D1124E9507C
:103F4000FE4F6181861306C06081961303C06281B3
:103F5000E61204C02F5F3F4F2770E8CFFE2CEE2003
:103F600009F4FFC08091F50181608093F50150C094
:103F7000681307C0391305C0E11003C0F801258399
:103F80008DC09D878E878D859E850E94C21E882349
:103F900069F1EE2059F12091F501822F82958F7001
:103FA00090E0029774F08091F0019091F101988770
:103FB0008F831986DB86CA862C87CE0107960E94DE
:103FC000F40286E0F801A0EFB1E001900D928A952D
:103FD000E1F70E94561E0DC06817E1F09D878E879D
:103FE0008D859E850E94C21E81111EC0C8010E943F
:103FF000F402FF24F394B5C0422F407F69F780EFAD
:1040000091E00E94F40286E0F50111928A95E9F7A9
:10401000F12CA7C03913E2CFE110E0CFF8012583DE
:10402000C8010E94F40257C0EE2001F32091F5016F
:10403000822F82958F7090E002971CF28091F001A0
:104040009091F1019A8389831B82DD82CC822E8339
:10405000CE010196B4CFE83CF105E8F5FE2CEE2048
:1040600029F2681327C0391325C02091F50120FDDE
:1040700018C0822F82958F70482F50E0411551054E
:1040800081F0F80125834F30510541F08F5F982F63
:104090009295907F822F8F70892B8583C8010E9413
:1040A000F40286E0F801A0EFB1E001900D928A954C
:1040B000E1F757C09D878E878D859E850E94C21E21
:1040C00081117FCF8091F50181608093F501C80156
:1040D0000E94F40246C086E0F50111928A95E9F744
:1040E00040C0EE2009F482CF9D878E878D859E8506
:1040F0000E94C21EF82E882309F478CF86E0F801CA
:10410000A0EFB1E001900D928A95E1F78091F00166
:104110009091F1010E94771D0E94561E22C09D873A
:104120008E878D859E850E94771D292F22952F7061
:10413000223028F49F7039F0811105C00BC0243063
:1041400028F49F7049F4805E883020F0C8010E94F6
:10415000F4029F2CF92C05C0F8019581907F99F706
:10416000F9CF8F2D61960FB6F894DEBF0FBECDBF8D
:10417000DF91CF911F910F91FF90EF90DF90CF9043
:10418000BF90AF909F900895109243021092420208
:104190000E94EF1CE7E7F1E086E0DF011D928A95BF
:1041A000E9F7109274011092710110924A020E9474
:1041B000B91B80E090E00E94D50F80E090E00C9465
:1041C000BF0F1092440280910A01882331F0809140
:1041D0006C0187FF02C08EE101C086E0E2EDF1E0F4
:1041E000DF011D928A95E9F70C94C4208823B1F170
:1041F0009CEF980F913A30F4682F80ED91E00E9487
:104200000C1C14C090E2980F983090F4877021E055
:1042100030E0A90102C0440F551F8A95E2F7CA0198
:104220008095909144028923809344020C94EF1C62
:104230009BE5980F933020F480E090E00C94D50F2C
:1042400098E5980F973120F480E090E00C94BF0F30
:10425000803F20F00E94381A0C94B91B0895CF9328
:10426000882309F472C0C82F8CEF8C0F813AC0F5F7
:1042700080910A018823E1F080916C0187FF18C0CA
:10428000EC2FE695E695E695F0E0E053FE4F82814F
:10429000282F30E04C2F477081E090E002C0880F5B
:1042A000991F4A95E2F782239323892B61F412C068
:1042B000E2EDF1E088ED91E02191C21721F08E1737
:1042C0009F07D1F707C06C2F80ED91E00E940C1C76
:1042D0000E94EF1C6C2F80ED91E00E94341C10C0F6
:1042E00080E28C0F883078F4C77081E090E001C0E4
:1042F000880FCA95EAF790914402892B8093440273
:10430000CF910C94EF1CEBE5EC0FE33040F4F0E0C0
:10431000E85DFE4F808190E0CF910C94D50FE8E5E9
:10432000EC0FE73150F4F0E0EE0FFF1FE55DFE4FBC
:1043300080819181CF910C94BF0FC03F30F08C2FC2
:104340000E94FF1ACF910C94B91BCF910895CF937F
:10435000C82F0E942F21C93349F42FEF87EE93E035
:10436000215080409040E1F700C000008C2FCF9199
:104370000C94F6208091C30187FF11C08091E80062
:1043800082FD05C08091CB018111F8CF11C08091D1
:10439000E8008B770BC08091CB01882349F0809196
:1043A000E80080FFF8CF8091E8008E778093E800E6
:1043B0000895982F973068F59093E900981739F091
:1043C0007091EC002091ED005091F00003C0242F7B
:1043D000762F50E021FD02C09F5FECCF3091EB00C3
:1043E0003E7F3093EB003091ED003D7F3093ED0048
:1043F0003091EB0031603093EB007093EC00209330
:10440000ED005093F0002091EE0027FDE5CF80E015
:1044100008958F708093E90081E008952091C9018B
:104420003091CA012617370748F06115710539F434
:104430002091E8002E772093E80001C0B901FC012B
:1044400020E06115710579F18091CB018823F1F1AC
:104450008530F1F18091E80083FD3CC08091E80057
:1044600082FD2EC08091E80080FFEBCF2091F30009
:104470008091F20090E0922B6115710551F0883027
:10448000910538F421912093F10061507109019652
:10449000F3CF21E0089709F020E08091E8008E77C3
:1044A0008093E800CECF2111CFCF0AC08091CB01FD
:1044B000882361F0853061F08091E80083FD0AC0B7
:1044C0008091E80082FFF2CF80E0089582E00895B5
:1044D00083E0089581E00895F999FECF92BD81BDF2
:1044E000F89A992780B50895A8E1B0E042E050E03D
:1044F0000C94A022262FF999FECF92BD81BDF89A87
:10450000019700B4021639F01FBA20BD0FB6F89417
:10451000FA9AF99A0FBE08950396272F0E947B22DC
:104520000E947A22252F0E947B22242F0C947B222A
:104530000196272F0E947B220C947A22DC01CB016A
:10454000FC01F999FECF06C0F2BDE1BDF89A3196A3
:1045500000B40D9241505040B8F70895DB018F939D
:104560009F930E942423BF91AF91A29F800D911D24
:10457000A39F900DB29F900D11240895AA1BBB1B01
:1045800051E107C0AA1FBB1FA617B70710F0A61B53
:10459000B70B881F991F5A95A9F780959095BC0174
:1045A000CD01089597FB072E16F4009407D077FDF0
:1045B00009D00E94BE2207FC05D03EF4909581955B
:1045C0009F4F0895709561957F4F0895A1E21A2E2F
:1045D000AA1BBB1BFD010DC0AA1FBB1FEE1FFF1FA7
:1045E000A217B307E407F50720F0A21BB30BE40BF7
:1045F000F50B661F771F881F991F1A9469F760953E
:104600007095809590959B01AC01BD01CF010895F7
:10461000EE0FFF1F0590F491E02D0994692796276E
:1046200069277827872778270895A29FB001B39F2D
:10463000C001A39F700D811D1124911DB29F700DAB
:10464000811D1124911D08950E941523A59F900D91
:10465000B49F900DA49F800D911D11240895F8948E
:02466000FFCF8A
:10466200A319C519A619F109ED09019190F4F59460
:104672006697C634323331F7F64022BC66044404EE
:104682008803B804D104F104818283E200E900EADC
:1046920000B500B600B700CD008301CC008A0192BC
:1046A2000194012102230224022502260227022A62
:0A46B20002B300B4006F00700000B6
:00000001FF
