:100000000C94CC030C9413040C9413040C9413045C
:100010000C9413040C9413040C9413040C94130404
:100020000C9413040C9413040C9445170C9481162F
:100030000C94AB1E0C9413040C9413040C94130432
:100040000C9413040C9413040C9413040C941304D4
:100050000C9413040C945E1E0C9413040C9413045F
:100060000C9413040C9413040C9413040C941304B4
:100070000C9413040C9413040C9413040C941304A4
:100080000C9413040C9413040C9413040C94130494
:100090000C9413040C9413040C9413040C94130484
:1000A0000C9413040C9413040C941304A909BF09B1
:1000B000C609FE090F0A1A0A260A350A570B3D0A15
:1000C000640A8D0AC30AC60A8714AE146316AE14F6
:1000D0006316FA141D1563161E162E1600047F3FB4
:1000E0001F643214643214783C1E1E140A05FD3756
:1000F0007A585A000004E6D6B446020021011600E0
:100100000000742FE5A3E0028E011A5D003D88898E
:10011000C65436C3174FE4E457009E9705FBD13809
:10012000962B70403443AC23A1D1792884F0AC4A9B
:10013000EC22099722EE3471671CA1B285D8B16216
:1001400089FE62237D5953EF52BABDB7860A8DA846
:1001500020BB5C84560D3F4E1F829BE4858B4AA7D3
:10016000A635E634BFCED107DB0C6A8A643D30F792
:10017000BCD2135F241073A6570282FA4C788061B8
:10018000AB9A6ED9A551EC2D4AB5A58961E3154C02
:10019000006B707A03C46D2840239E1BEEB607F3F4
:1001A000493DD6205F6110FC7D3957EC5573EE0355
:1001B0002348FD1509A6D5A33E5B02B561E1A9BBA5
:1001C00005CAAF2A360E8239BCAA499C5F6FB63E7B
:1001D0005C6E04058F9EAEEF8D4C837E298E11835D
:1001E0000A5A34B3CC59E6127F276DF788D1316BA8
:1001F000BFDC8E66A7713BE9F7ABFAF6DBF86574F6
:10020000A5002D6895A5881FAE371FDD14F5FC5994
:1002100069790259AE73F9493D732DA882B9B3D2F9
:100220005A3AC30B21888400000060FCBE3772AFCD
:10023000909B0001B6028F0500005313F7C6B1C4AE
:1002400067FB020000000004595A05010902A101E0
:1002500085020901A10005091901290515002501DB
:10026000950575018102950175038101050109302C
:1002700009311581257F9502750881060938158198
:10028000257F950175088106050C0A380215812520
:100290007F950175088106C0C005010980A101850F
:1002A0000319012AB700150126B7009501751081C1
:1002B00000C0050C0901A101850419012AA002153D
:1002C0000126A002950175108100C00660FF09613A
:1002D000A1010962150026FF009520750881020919
:1002E00063150026FF00952075089102C0050109DD
:1002F00006A101050719E029E715002501950875F4
:100300000181029501750881010507190029FF1572
:100310000026FF00950675088100050819012905CA
:10032000950575019102950175039101C009025B64
:1003300000030100A0FA0904000001030101000903
:1003400021110100012240000705810308000A096C
:100350000401000203000000092111010001222212
:10036000000705820320000107050303200001099F
:100370000402000103000000092111010001228193
:10038000000705840320000A120100020000000893
:10039000666673660100010203011C0376006900B2
:1003A00061006C003A0066003600340063003200E1
:1003B00062003300630000001A035000340039006B
:1003C00020004B006500790062006F006100720040
:1003D000640000000E0350006100620069006C00C0
:1003E000650000000403090429001E001F0020000E
:1003F000210022002300350014001A000800150017
:1004000017001C002B0004001600070009000A005A
:100410000B00E5001D001B0006001900050011007F
:10042000E000E300E2002A002C00E600760018005D
:100430000C00120013002A000D000E000F002D000A
:100440001000360037003800E40001000100FA0215
:10045000000002000200F602000003000100FB029F
:10046000000004000200E002CF1D05000100FC02B4
:10047000000006000200E202000007000200F8028D
:10048000000008000100FD02000009000200E40273
:10049000AA1D0A000200E602AA1D0B000200E802E3
:1004A000AA1D0C000200EA02AA1D0D000200EC02C7
:1004B000AA1D0E000200EE02AA1D0F000200F002AB
:1004C000AA1D10000200F202AA1D11000200F4028F
:1004D000AA1D12000200FE02000013000200000329
:1004E00000002223252628292A2C2D2F30323335AF
:1004F00036383A3B3D3E4042434547494A4C4E50D0
:1005000051535557595A5C5E6062646668696B6DF9
:100510006F71737577797B7D7F81838587898A8CFD
:100520008E90929496989A9C9E9FA1A3A5A7A8AA04
:10053000ACAEAFB1B3B4B6B8B9BBBCBEBFC1C2C339
:10054000C5C6C7C9CACBCCCDCED0D1D2D2D3D4D5D3
:10055000D6D7D7D8D9D9DADADBDBDBDCDCDCDCDCFC
:10056000DDDDDDDDDCDCDCDCDCDBDBDBDADAD9D9D4
:10057000D8D7D7D6D5D4D3D2D2D1D0CECDCCCBCA62
:10058000C9C7C6C5C3C2C1BFBEBCBBB9B8B6B4B388
:10059000B1AFAEACAAA8A7A5A3A19F9E9C9A98961E
:1005A0009492908E8C8A89878583817F7D7B7977F1
:1005B0007573716F6D6B6968666462605E5C5A59D1
:1005C00057555351504E4C4A4947454342403E3D92
:1005D0003B3A3836353332302F2D2C2A2928262520
:1005E00023220001010101010101010102020202B5
:1005F00002020202020303030303030303040404CD
:100600000404040405050505050606060606070795
:1006100007070708080808090909090A0A0A0B0B4D
:100620000B0C0C0C0D0D0D0E0E0E0F0F0F101011EC
:100630001111121213131414151516161717181872
:1006400019191A1A1B1B1C1D1D1E1E1F20202122DA
:1006500022232424252626272829292A2B2C2D2D20
:100660002E2F30313232333435363738393A3B3C3D
:100670003D3E3F404142434445464748494A4C4D30
:100680004E4F50515354555658595A5B5D5E5F61F9
:100690006264656668696B6C6D6F7072737577788C
:1006A0007A7B7D7E8082838587888A8C8E8F9193EA
:1006B0009596989A9C9EA0A2A3A5A7A9ABADAFB111
:1006C000B3B5B7BABCBEC0C2C4C6C9CBCDCFD1D4F6
:1006D000D6D8DBDDDFE2E4E7E9EBEEF0F3F5F8FA9C
:1006E000FDFFFFAA7F554000000000000000000051
:1006F00000000000000000000000000000000000FA
:1007000000000000000000000000007E0F00D4FF89
:10071000FFFFC70000007800000000000000002A72
:100720002B28000000000000000000000000000076
:10073000000029000000002C1E3420212224342631
:1007400027252E362D3738271E1F2021222324252A
:10075000263333362E37381F0405060708090A0BDF
:100760000C0D0E0F101112131415161718191A1B51
:100770001C1D2F3130232D350405060708090A0BEF
:100780000C0D0E0F101112131415161718191A1B31
:100790001C1D2F3130354C0011241FBECFEFDAE085
:1007A000DEBFCDBF04B603FE27C08091C704909181
:1007B000C804A091C904B091CA048730904BA740E7
:1007C000B04BD1F41092C7041092C8041092C9041F
:1007D0001092CA0414BE84B7877F84BF0FB6F89402
:1007E000A8958091600088618093600010926000FD
:1007F0000FBEE0E0F8E3099511E0A0E0B1E0E2EF20
:10080000F4E602C005900D92A63BB107D9F724E0AB
:10081000A6EBB1E001C01D92A73CB207E1F70E9430
:1008200015040C9477320C940000CF93DF93CDB76E
:10083000DEB7E4970FB6F894DEBF0FBECDBF84B726
:10084000877F84BF0FB6F894A89580916000886177
:1008500080936000109260000FBE90E080E80FB6B9
:10086000F89480936100909361000FBE85B7806813
:1008700085BF85B7806885BF8BE798E19093B70106
:100880008093B6010E948B280E9432280E94662223
:100890000E94C5160E94E4168091E2008460809355
:1008A000E20078948091E5018823A1F01091E9009D
:1008B0001F709091EC00892F817090FD80E8182BBB
:1008C0001092E9008091E80083FD0E949F131F7041
:1008D0001093E90082E084BD93E095BD9AEF97BD47
:1008E00080936E000E946229811102C00E945329E8
:1008F00003E311E0D8018D918D018F3F11F00E942B
:100900007D18B1E00A331B07A9F70AE311E051E4AF
:10091000E52E51E0F52EF80181918F018F3F11F006
:100920000E947D18E016F106B1F787E0E0EDF1E0F6
:10093000DF01282F1D922A95E9F7EAEBF1E0DF01AC
:100940001D928A95E9F70E94791B811102C00E94CD
:10095000841B82E090E00E945B318093C6010E947C
:10096000681B9093B9018093B8010E949418BFEF5F
:10097000E6E7F1E0B150E040F040E1F700C00000F0
:100980000E9494188091D00180FF08C06FEF7FEF24
:1009900080E090E00E948D310E944D1E83E090E047
:1009A0000E945B310E94B91C8091C101811133C04A
:1009B0000E94791B811104C00E94841B0E94282A76
:1009C00088E090E00E94633160934804709349048A
:1009D00080934A0490934B046E7F71F40E94282AFE
:1009E00088E090E00E94633160934804709349046A
:1009F00080934A0490934B040E94DA291092C40415
:100A00008091480480FF04C060E086950E94CF2B4F
:100A100081E08093C10153985B9A52985A9A89B1A8
:100A200083FB882780F94A9B02C092E001C090E0D6
:100A3000892B8093C40180E091E09093BC03809364
:100A4000BB0328E1622E712C30E4332E47EDA42E37
:100A500041E0B42E9E012F5F3F4F79018091E50167
:100A6000853009F03FC000E112E18091E501853059
:100A700009F034C08091E501843009F11092BF0380
:100A80000FB6F894A895609260000FBE3092600097
:100A900083B7817F846083BF83B7816083BF78948D
:100AA000889583B78E7F83BF0FB6F894A895809101
:100AB0006000886180936000109260000FBE80919A
:100AC000E401882391F20E949418E0EDF1E0819115
:100AD000811113C6AE16BF06D1F7C7CF0E94BD1C49
:100AE0000E941A1F0E94941881110E94931E90ED7B
:100AF000892E91E0992EE7ECF1E0D40100E010E0BE
:100B0000302F2D919191922721F180E0DD24D39413
:100B10004D2D4923D1F08BA73CA72D2181E009F46D
:100B200080E08DA70E949F1E8160782F9FA78EA7CF
:100B30004BA55CA56DA58FA50E94DA2EF801E9539F
:100B4000FE4F8081D826D08219C08F5FDD0C8730A0
:100B5000F9F60F5F1F4F0730110591F68FEF88AB45
:100B600089AB1AAA0E949F1E8160782F9CAB8BAB29
:100B700048A959A96AA98CA90E94DA2E8091C404B7
:100B8000882309F493C08091C304E0914804E6955A
:100B9000E81BE093BF04823059F4F0E0E651FF4FC8
:100BA000E4910E2F10E08EE5C82E87E2D82E59C0B2
:100BB000863059F4F0E0E951FF4FE4910E2F10E038
:100BC000BEE4CB2EB7E2DB2E4CC0893061F4E69553
:100BD000F0E0EC51FF4FE4910E2F10E0A1EECA2E91
:100BE000A6E2DA2E3EC08F3061F4E695F0E0EF51D8
:100BF000FF4FE4910E2F10E0F1E7CF2EF6E2DF2E4B
:100C000030C0853159F4F0E0E252FF4FE4910E2FED
:100C100010E0E0E2CE2EE6E2DE2E23C08831A1F025
:100C2000833249F4ECEDF0E0059114917EE0C72E9B
:100C300077E2D72E16C0843271F000ED17E061ED37
:100C4000C62E63E2D62E0DC008E210E054E9C52E90
:100C500055E2D52E06C004EF11E047E5C42E45E26B
:100C6000D42E8091C004882361F01092C0040E94A9
:100C70009F1E9093BE048093BD041092C2041092F4
:100C8000C1040E949F1EE091BD04F091BE048E1B22
:100C90009F0B8F3F9F4750F40E0F1F1F1093BE04F2
:100CA0000093BD048DEB94E0F60109958091C40199
:100CB000E82FEE0FEE0FE093C40189B183FB4424CB
:100CC00040F8512C4A9B03C082E090E002C080E0D3
:100CD00090E0842995298E2B8093C4018F70E82F92
:100CE000F0E0EF5BFE4F90818091C301890F80930C
:100CF000C30184305CF08091C2018F5F8093C20198
:100D000060E080E00E94E12821E001C020E08091C5
:100D1000C3018D3F54F48091C20181508093C20180
:100D200061E080E00E94E12821E08091C301082E6B
:100D3000000C990B64E070E00E94CD318093C301F8
:100D400021110E94931E86E0E7EBF4E0D7010190A9
:100D50000D928A95E1F7C090B904D090BA04009141
:100D6000BB041091BC041092B9041092BA04109202
:100D7000BB041092BC04C11003C0DD2009F45DC0A7
:100D80008091B5049091B6040E94841EAC019091AC
:100D9000B104992339F02091170130E02417350769
:100DA00058F04BC020911801FAE02F9F90011124B8
:100DB0002417350718F041C09F3F19F09F5F9093AB
:100DC000B104CC2061F00E940C2D1C1414F491E0AD
:100DD00001C09FEF899F802D11248093B904DD20ED
:100DE00061F00E940C2D1D1414F491E001C09FEFDE
:100DF000899F802D11248093BA043091B904332344
:100E0000E1F02091BA042223C1F045EB3403C00184
:100E10001124992319F09093B90403C081E08093C1
:100E2000B90435EB2303C0011124992319F09093E1
:100E3000BA0403C081E08093BA04011103C01123F6
:100E400009F45DC08091B3049091B4040E94841EA3
:100E5000AC019091B004992339F02091130130E056
:100E60002417350758F04BC0209114018AE0289FC1
:100E7000900111242417350718F041C09F3F19F045
:100E80009F5F9093B004002361F00E94D32C101652
:100E900014F491E001C09FEF899F802D112480936D
:100EA000BB04112361F00E94D32C111614F491E0BD
:100EB00001C09FEF899F802D11248093BC04309145
:100EC000BB043323E1F02091BC042223C1F045EBA5
:100ED0003403C0011124992319F09093BB0403C07B
:100EE00081E08093BB0435EB2303C00111249923D7
:100EF00019F09093BC0403C081E08093BC048091FE
:100F0000B90481110BC08091BA04811107C080918E
:100F1000BB04811103C08091BC0481110E94242C68
:100F2000CB82DC820D831E8386E0F701A7EBB4E061
:100F300001900D928A95E1F70E941A1F9091C501C8
:100F4000891721F00E941A1F8093C5018091E50145
:100F5000843009F083CD83E08093E9008091E8003C
:100F600082FF7CCD8091E80085FF1FC00E941C1885
:100F7000811119C000E210E0670108C08091F10002
:100F8000D6018D936D010150110969F08091E8003F
:100F900085FDF4CF8091E8008B778093E8000E9474
:100FA0001C18882399F391E001C090E08091E8003B
:100FB0008B778093E800992309F450CD00911A02B1
:100FC00010911B0289810115110561F08E3F09F016
:100FD0006EC38A81833008F4B0C18550833008F035
:100FE00066C3ABC1893009F4E4C0D0F4843009F49D
:100FF00069C050F48230A1F108F055C0813009F089
:1010000054C31A8289E037C2863009F46DC008F4EF
:1010100060C0873009F46BC0883009F4AAC045C3AA
:10102000803109F42BC180F48D3009F4CDC028F44F
:101030008C3009F03AC380E1D6C28E3009F4C8C0C2
:101040008F3009F4EEC031C3823109F41CC108F4B9
:1010500018C1833109F43FC18E3F09F46EC125C325
:101060008A81823009F45FC3833051F0813009F006
:101070001CC30E94931E9B838C837D836E8317C346
:1010800080910F0190911001892B09F410C3FE018A
:101090003396CE010A96D4012D914D012193E81784
:1010A000F907C9F704C38A81823009F0FEC26B8157
:1010B0007C818D819E810E94093286E290E00E94AF
:1010C0006F31F5C24C816B818A810E9404289D8317
:1010D00031C32D813E813227232732274C816B81FA
:1010E0008A810E94CE27E3C20E941723E0C28A8130
:1010F0008138B1F050F4803809F0D9C220E04B813A
:1011000060914A048091490431C0823859F1833892
:1011100009F0CDC220E040914B046C818B8126C048
:1011200060E08B810E94CF2B9B81809148049111BC
:1011300011C08E7F809348041092C404BFEFE0E793
:10114000F2E0B150E040F040E1F700C000000E9442
:101150009329ADC281608093480460E086950E9427
:10116000CF2BA5C28B8180934C04A1C20E94EB2A95
:101170009EC28A81813891F030F4803809F097C29C
:1011800080914B0478C1823889F0833809F08FC28E
:10119000809149048B8380914A043FC18091480427
:1011A00080FF02C0869567C180E065C180914C04D4
:1011B00062C1609148047091490480914A04909101
:1011C0004B040E94F42973C281E08A838FE753C1E4
:1011D0000A811B811027012710278C80912C2DE17B
:1011E0008216910408F063C26701C8018F579D4FB2
:1011F00096012E193F092815390508F058C20F37F6
:1012000031E0130730F40E945B31D60114968C93C1
:1012100002C0F60114820F5F1F4FFFEFCF1ADF0AE3
:10122000E4CF80910F0190911001892B09F43FC206
:101230000A811B81102701271027CC80D12C2DE19A
:10124000C216D10408F033C24701C8018F579D4F21
:1012500094012E193F092C153D0508F028C20F37BF
:1012600031E0130728F4D40114966C910E946F3179
:101270000F5F1F4FBFEF8B1A9B0AE7CF0E94EB2235
:1012800016C284E0B0C10A811B81102701271027F4
:101290008C80912CEDE18E16910408F008C2670154
:1012A000C801879696012E193F092815390508F0BF
:1012B000FEC10838F1E01F0730F40E945B31D6010F
:1012C00014968C9302C0F60114820F5F1F4FFFEF3C
:1012D000CF1ADF0AE5CF0A811B81102701271027CB
:1012E000CC80D12C2DE1C216D10408F0E0C1083821
:1012F00031E0130708F0DBC188E891E0801B910B17
:101300008C159D0508F4D3C14701C8018796940147
:101310002E193F092C153D0508F0C9C1083841E0D8
:10132000140728F4D40114966C910E946F310F5F5A
:101330001F4FBFEF8B1A9B0AE8CFEA818E2F90E0F8
:101340008E30910508F0B3C1FC01EA5AFF4F0C94AE
:10135000033288E0EBE2F1E0DE01919601900D921C
:101360008A95E1F780E2F70111928A95E9F784E026
:10137000898388E0FE01B196DE01159672C18CE585
:10138000898381E08A831B821C8291C18C8190E0D9
:10139000982F88272B81820F911D092E000CAA0BF4
:1013A000BB0B35E0880F991FAA1FBB1F3A95D1F7D9
:1013B000AC01BD01405E5F4F6F4F7F4F481759072B
:1013C0006A077B0708F473C18C35F1E09F07A1051C
:1013D000B10508F06CC14D3521E05207610571057A
:1013E00020F04CE551E060E070E0481B590BBC0177
:1013F00062517F4FC7010E94423159C11B810C814C
:1014000040E0602F812F0E94A42799838A8341E0C6
:10141000602F812F0E94A4279B838C8348C12E813B
:101420003F813227232732274D816C818B810E9497
:1014300072273DC140E250E06FEF70E0C7010E94AB
:10144000703280910F0189830A8331C181E090E07D
:1014500090931B0280931A0282E390E09093CF0155
:101460008093CE010E949F1E22C180910F0189832B
:101470000A838091CE018B831AC10B811C8140E2CB
:1014800050E06FEF70E0C7010E9470322AE434E050
:1014900080E090E0AC014E5F5F4F4132510508F0B3
:1014A00006C1F901659174910617170730F4F70129
:1014B000E80FF91F71836083CA01285F3F4F44E042
:1014C000223E340739F7F3C02B813C818AE494E053
:1014D000FC01459154912417350731F00896A4E09A
:1014E000823E9A07A9F7E1C0009709F4DEC09C018B
:1014F0002E5F3F4FF901459154914032510508F05C
:10150000D4C0F90145915491FC01349665917491D0
:10151000CE0102960E94673234C08B819C810AE41E
:1015200014E0F801259134918217930739F0085F90
:101530001F4FB4E0023E1B07A1F7B7C0011511050C
:1015400009F4B3C0C8010296FC01259134912D31F4
:10155000310508F0AAC0FC0145915491F801349678
:1015600085919491BE016B5F7F4F0E9467320E940C
:101570008D22F801369685919491009711F0FC0127
:10158000099580E093C00E94AA2291C08B8182308D
:1015900061F1E0F4882301F1813009F088C08C8189
:1015A0009AE0D92E8E010F5D1F4FF8012D2D11925B
:1015B0002A95E9F7B8010E94BC238983F801DE016E
:1015C000129601900D92DA94E1F771C0833061F1C7
:1015D000843009F44BC06BC080E2D7011D928A951C
:1015E000E9F788E089838A8362C06C818AE0FE0122
:1015F0003596DE01919601900D928A95E1F768305B
:1016000070F43AE0639FB00111246F517E4F4AE0BD
:1016100050E0CE0181960E94933180E001C08FEFAF
:1016200089830E948B2843C06C81CE0181962AE079
:10163000DC011D922A95E9F7683060F4BAE06B9FEF
:10164000B00111246F5C7D4F4AE050E00E944B31A5
:1016500080E001C08FEF89838AE0FE01B196DE0150
:10166000129601900D928A95E1F721C06C818AE073
:10167000FE013596DE01919601900D928A95E1F773
:10168000683070F4EAE06E9FB00111246F5C7D4F0A
:101690004AE050E0CE0181960E94933180E001C083
:1016A0008FEF89830E94322802C08FEF8983809157
:1016B000E501843009F0D2C91091E9001F709091C2
:1016C000EC00892F817090FD80E8182B82E08093D8
:1016D000E9008091E80080FF0CC040E050E060E24B
:1016E00070E0C7010E944F188091E8008E778093C8
:1016F000E8001F701093E900B1C909BD19BD09B414
:1017000000FEFDCF8091D8008F7D8093D80080911E
:10171000E00082608093E0008091E00081FDFCCFDA
:101720000E94BD1CA2C986E290E00E945B311B8230
:101730001C821D828E83BBCF9F92AF92BF92CF92AD
:10174000DF92EF92FF920F931F93CF93DF9300D01E
:1017500000D0CDB7DEB7FC01808191812381348137
:10176000232B31F09F3F31F491E08F3F19F403C0F8
:1017700091E001C090E090FD0CC77F0161E0CF01D6
:101780000E94A32E8C01D70112968C91811105C065
:10179000F701828181113EC0C8C080910D019091F6
:1017A0000E010196A9F369E0C62E63E0D62EA12CA6
:1017B000B12C9924939480910D0190910E018A157A
:1017C0009B0534F3D60116968C9116978823D9F091
:1017D00019968D919C911A970817190739F48091E1
:1017E0000703909108030817190769F0F601978617
:1017F00014870387C6010E94711FC60106960E94C6
:10180000261F10920603FFEFAF1ABF0A26E1C20E91
:10181000D11CD1CFC80182519F45409708F07DC0AF
:101820008FEF93E00E945B318111B3C65EEEF52E1F
:10183000F00E01E812E0FF2071F0011534E013070B
:1018400009F4A7C6C8010E945B31811101C0FA9456
:101850000F5F1F4FF0CF19821A821B821C82CC248B
:10186000CA9478018FEFE81AF80AC8010E945B3128
:1018700089831A82882309F48CC6813009F048C014
:10188000580192E0A90EB11CC7010E945B318A8306
:10189000882309F47EC69FEF980F933060F4780197
:1018A000A3E0EA0EF11CC5010E945B318B8381111C
:1018B0002FC08701D6CF843011F07501FACFC50152
:1018C0000E945B31D82E7801B4E0EB0EF11CC80108
:1018D00003960E945B31DD2009F45BC6882309F47E
:1018E00058C6282F30E021503109C29EA001C39E66
:1018F000500D11248D2D90E00197840F951F0197B5
:10190000C0F2EFE9FFE03197F1F700C00000F7CF38
:10191000CE0101960E94F02DCCCF0031FFE51F07CC
:1019200089F48091EF01826008C000319FE51907BA
:1019300009F050C38091EF018D7F0E94B51C0E9479
:10194000941327C601312FE51207A1F48091EF010E
:101950008460F3CF680137E5D31A8FEFC816D1043E
:1019600009F040F466E574E08C2D0E94BC23892BBD
:1019700009F439C3C80197558F3F910511F008F05C
:1019800052C020910D0130910E012817390724F41F
:1019900090930E0180930D01F701228136E1389F6B
:1019A0005001399FB00C1124C501875F9C4F6C0119
:1019B000DC0150962C935097928116968C91169735
:1019C000992331F11A961C930E9319978F5F1696EF
:1019D0008C930E949F1EF6019687858717829091AF
:1019E000060380910503892B80870190F081E02D0B
:1019F000309749F0D60154966D917C915597C50169
:101A0000815F9C4F099510930803009307030BC057
:101A1000882349F0F6018189882329F0C501815F77
:101A20009C4F0E94261F8091FB0280FF57C10E949D
:101A30009F1E6C01D70112968C918823D9F1809159
:101A40001B0182FF08C021E132E040E0B60180E0E6
:101A500090E00E9496210B31BCE51B0779F00C3118
:101A6000ECE51E0789F00A31FCE51F07A1F480911F
:101A70001B01982F909590FB80F909C080911B0164
:101A8000816080931B0107C080911B018E7F809332
:101A90001B010E946021C8019056811520E2920727
:101AA00020F0905E8115904180F510923F021092D7
:101AB0003E0214C1013E110521F480911B018F7E6D
:101AC00006C0053E110531F480911B018F7D809386
:101AD0001B011BC0C80190568115A0E29A0720F097
:101AE000905E8115904188F480911B0182FFF6C0C1
:101AF0008091FD0281FDF2C021E132E040E0B601BB
:101B000080E090E00E949621E9C080911B0180FF57
:101B1000E5C0F70182810832110538F40E31110554
:101B2000B8F40430110578F4B5C00933110538F460
:101B30000D32110590F40B32110579F0ABC004366B
:101B4000110559F0A7C09091FB0294FDA3C009C0F4
:101B50009091FB0293FD9EC004C09091FB0292FD08
:101B600099C0882309F48FC080910503982F9D7F29
:101B700041F110923F0210923E029091FB0291FDC2
:101B800020C0F80143E0F695E7954A95E1F7EE713C
:101B9000FF27E45EFD4F98012F70332781E090E02E
:101BA00002C0880F991F2A95E2F7809590952081B1
:101BB00031818223932391838083A70160E0C80150
:101BC0004CC097E0F701A1E1B2E001900D929A9527
:101BD000E1F7109213021092150210921402209154
:101BE0003E0230913F0202171307D1F59091FB029C
:101BF00095FF36C020911B0121FF02C096FF30C027
:101C000020913C0230913D02A601421B530B2091D2
:101C1000F8023091F9024217530710F581FF08C00E
:101C200080911B01806180931B0182E00E94EE1B6A
:101C30008091050385FF08C080911B01806280931D
:101C40001B0180E20E94EE1B60911B016695617092
:101C5000A70180913E0290913F020E94822199C487
:101C600081FB992790F980911B0190FB81F91093DA
:101C70003F0200933E02D0923D02C0923C0284603B
:101C800080931B0186C4970140E0B601C8010E9401
:101C900096217FC4882311F110923F0210923E02D8
:101CA000033FFCE51F07D1F178F4083D3CE513073D
:101CB00061F1093D8CE5180709F451C0073D9CE529
:101CC000190709F058C01BC0053FACE51A07B9F168
:101CD00080F1063FECE51E07E1F14DC0033FECE566
:101CE0001E07E1F008F5083D2CE5120771F0093DEB
:101CF0003CE51307A1F1073D8CE51807B1F506E2B5
:101D000021EE41EE67ED7CE505C007E225EE45EEEC
:101D100068ED7CE5C7010E94961F3BC406E221EEF8
:101D200040EE63EF7CE5F6CF053F9CE5190739F0FF
:101D300060F407E225EE44EE64EF7CE5EBCF06E2CB
:101D400021EE42EE65EF7CE5E5CF063FBCE51B07E3
:101D500061F407E225EE46EE66EF7CE5DBCF08E2B4
:101D600021E045EE69ED7CE5D5CFD70112962C91A7
:101D7000222309F4AEC2109204030330BDE51B0711
:101D800058F40A3FECE51E0760F4C80182509C45F8
:101D9000449708F067C105C00136FDE51F0709F04B
:101DA00061C10E94681B9093B9018093B801003112
:101DB0002CE5120709F4CAC008F041C008308CE5D0
:101DC000180709F4A4C0F0F40430ACE51A0709F4CC
:101DD0008CC068F40230ECE51E0709F482C00330C1
:101DE0001C4509F0E7C08091B8018260E1C006306F
:101DF0002CE5120709F483C008F085C08091B80172
:101E00008860D6C00C308CE5180709F490C068F4DF
:101E10000A30ACE51A0709F47EC008F084C00E94BD
:101E2000BD1C8091B8018068C3C00E30ECE51E0770
:101E300009F481C008F086C08091B80194C00C3FBD
:101E40002CE5120709F47BC038F504318CE518073E
:101E500009F49AC058F40231ACE51A0709F47AC0C3
:101E600008F07EC08091B8018F7BA2C00A3FECE5EC
:101E70001E07F1F108F03FC005311C4509F09AC07A
:101E80008091B80182FB222720F991E0922790FBF4
:101E900082F990FB83F98CC001153DE5130709F425
:101EA00067C050F48091B9010E3F9CE51907C1F15C
:101EB00008F05BC08D7F65C00230BDE51B0709F4EB
:101EC00071C008F46DC001361D4509F073C08091E2
:101ED000B80184FB222720F991E0922790FB84F936
:101EE00067C08091B801816063C08091B80116C05D
:101EF0008091B90116C08091B901826042C0809181
:101F0000B801806155C08091B801806251C0809154
:101F1000B80180644DC08091B8018860846048C079
:101F2000826081602EC08091B8018E7F41C0809117
:101F3000B8018D7F3DC08091B801877F39C0809105
:101F4000B90114C08091B8018F7E32C08091B80170
:101F50008F7D2EC00E94BD1C8091B8018F7728C054
:101F60008091B801877F8B7F23C08D7F8E7F09C0D2
:101F70008091B901982F909591708E7F892B90FB5D
:101F800081F98093B90116C00E94BD1C8091B801EF
:101F900087FB222720F991E0922790FB87F908C060
:101FA00061E001C060E08EE090E00E946F3102C00D
:101FB0008093B8016091B8011091B90184E090E07C
:101FC0000E946F31612F82E290E00E946F310E9487
:101FD000BD1CDFC20131AFE51A0709F0BBCC80910F
:101FE000EF018B7FAACC86E18C9DF0018D9DF00DD9
:101FF0001124E75FFC4F86818130E1F48091560423
:1020000090915704892B09F4B5CC80915804909194
:102010005904892B09F4AECC80915A0490915B0449
:10202000892B09F0A7CC80915C0490915D04892BE9
:1020300059F0A0CC823009F09DCC80915A04909147
:102040005B04892B09F496CC26E12C9DC0012D9DC3
:10205000900D1124875F9C4FDC0150961C920E94CA
:10206000711F88CC0631BCE51B0709F048C021E090
:1020700080910503982F9A7A3091FA0230FF04C0BC
:10208000482F447409F090E031FF04C0482F41719B
:1020900009F090E032FF04C0482F487809F090E042
:1020A00033FF02C0827261F42223A1F081E091111A
:1020B00001C080E08093D701992331F065E305C02A
:1020C000222341F01092D70169E280EF91E00E9453
:1020D000D41E12C08091D701882311F085E301C07E
:1020E00089E2E0EFF1E09281891301C0128231961A
:1020F00021E0E63FF207B9F70E94F51B4AC2809142
:10210000050382720C3C3CE5130709F4C2C008F0D9
:1021100045C0063CACE51A0709F4A7C0D8F4033C57
:10212000ECE51E0709F497C030F4023C2CE51207D9
:1021300009F46CC0D3C0043C3CE5130709F490C01B
:10214000053C9CE5190709F0C9C04DEB5BE266EC64
:102150007BE2A3C0093CACE51A0709F490C078F40F
:10216000073CECE51E0709F485C0083CFCE51F07A9
:1021700009F0B4C041EB5BE265EA7BE28EC00A3C49
:102180002CE5120709F480C00B3C3CE5130709F06D
:10219000A5C046E05AE267E17AE27FC0013D8CE5E6
:1021A000180709F486C0A0F40E3CACE51A0709F440
:1021B0007AC008F475C00F3CECE51E0709F476C040
:1021C000003DFCE51F0709F089C06EE089E079C099
:1021D000043D2CE5120709F472C068F4023D8CE559
:1021E000180709F469C0033D9CE5190709F076C09A
:1021F00061E088E16BC0053DACE51A0709F464C0F5
:102200000D35BDE51B0709F4C4C168C080914804C1
:1022100080FF1BC08E7F80934804609148047091BA
:10222000490480914A0490914B040E94F429109231
:10223000C404EFEFF0E722E0E150F0402040E1F786
:1022400000C000000E949329A4C1816080934804CB
:1022500061E086953BC041E15CE26AE17CE21DC041
:102260004AE15CE261E17CE218C046EC5BE26DEBC6
:102270007BE213C045EA5BE261EB7BE20EC04DE816
:102280005BE269E97BE209C049E95BE26DE87BE278
:1022900004C047E15AE266E07AE20E948D2979C1E2
:1022A00061E081E013C065E082E00BC068E086E099
:1022B00008C064E18FE005C067E185E102C062E229
:1022C00089E10E947B2965C161E083E20E94CF2BF6
:1022D00060C10631ECE51E0709F4CACED70112969B
:1022E0002C912223C1F00115BCE51B0731F00E3DF6
:1022F0001C4589F40E94841B4CC10E94BD1CFFEF49
:1023000024E33CE0F15020403040E1F700C0000001
:102310000E944D1E3EC1F701858196810097A9F468
:10232000D7010D911C91C801222341F00E94291C64
:10233000D82E682FC8010E94881C03C00E94581C18
:10234000D82EB8018D2D0E94FB220E94DF19C82EC5
:10235000082F292FF7018281D92ED2943FE0D32272
:10236000F4E0DF1609F44DC0FD1520F031E03D1515
:1023700068F405C198E0D91609F46CC0A9E0DA1632
:1023800009F4DAC0B5E0DB12FAC058C0907F2F70B4
:10239000122F992311F01295107F8823C9F0112371
:1023A00099F080E2800F883010F0011106C0209172
:1023B0000503122B1093050305C020910603122B71
:1023C000109306030E94F51B802F0E94261DD7C084
:1023D000802F0E94EE1C112309F4D1C080E2800FEF
:1023E000883010F0011104C0812F0E94EE1B06C03E
:1023F0001095209106031223109306030E94F51BEB
:10240000BEC096959695937019F0913061F0B7C063
:10241000882321F08C2D922F937002C080E090E0F1
:102420000E94041FB2C0882321F08C2D922F93703C
:1024300002C080E090E00E94EE1EA7C0882321F039
:102440008C2D0E945B2D03C08C2D0E944E2C0E946F
:10245000242C9BC0922F9370A9F5811194C03C2D20
:10246000329536953770330F330F8C2D8F7090E087
:10247000AC01032E01C0440F0A94EAF7C4FE08C061
:102480008FE090E001C0880F3A95EAF7809501C08F
:1024900080E0269526952370223069F088F490918B
:1024A0004D04213019F0842B892302C0942B892BF1
:1024B0000E94B91C68C0842B90914D048927F8CFE5
:1024C000842BF6CF882319F0822F817002C0892FC8
:1024D0008695882309F457C0302F3295369537708A
:1024E000330F330F802F8F7090E0AC01032E01C0AB
:1024F000440F0A94EAF704FF08C08FE090E001C09F
:10250000880F3A95EAF7809501C080E026952695D8
:102510002370223051F070F49091EF01213011F0CE
:10252000842B29C0942B892B27C0842B9091EF01F9
:10253000892722C0842B20C0122F1F70882379F096
:1025400081E090E001C0880F1A95EAF79091EF01C1
:10255000892B0E94B51C8C2D0E94E41C14C08C2D6C
:102560000E94DD1C81E090E001C0880F1A95EAF717
:1025700080959091EF0189230E94B51C04C088EFDB
:102580008D0D823010F40E941A1F60E0C7010E9476
:10259000A32E0F900F900F900F90DF91CF911F916E
:1025A0000F91FF90EF90DF90CF90BF90AF909F90F2
:1025B00008958091E70187FF11C08091E80082FDB6
:1025C00005C08091E5018111F8CF11C08091E8002C
:1025D0008B770BC08091E501882349F08091E8005A
:1025E00080FFF8CF8091E8008E778093E80008950F
:1025F000982F973068F59093E900981739F070910B
:10260000EC002091ED005091F00003C0242F762FB4
:1026100050E021FD02C09F5FECCF3091EB003E7F88
:102620003093EB003091ED003D7F3093ED00309121
:10263000EB0031603093EB007093EC002093ED00E1
:102640005093F0002091EE0027FDE5CF80E0089543
:102650008F708093E90081E008952091ED01309121
:10266000EE012617370748F06115710539F42091FE
:10267000E8002E772093E80001C0B901FC0120E0BA
:102680006115710579F18091E5018823F1F18530BB
:10269000F1F18091E80083FD3CC08091E80082FD6B
:1026A0002EC08091E80080FFEBCF2091F300809155
:1026B000F20090E0922B6115710551F08830910580
:1026C00038F421912093F100615071090196F3CF04
:1026D00021E0089709F020E08091E8008E77809350
:1026E000E800CECF2111CFCF0AC08091E501882329
:1026F00061F0853061F08091E80083FD0AC080912F
:10270000E80082FFF2CF80E0089582E0089583E040
:10271000089581E008950895BC0184E00C94231E7F
:10272000BC0183E00C94231E8091EF01982F9670DA
:10273000963011F4886001C0877F0C94B51C1F93FC
:10274000CF93DF93CDB7DEB7AA970FB6F894DEBF6D
:102750000FBECDBFE7EEF1E08FEE91E02091F100EA
:1027600021938E179F07D1F78091E801833009F4F8
:1027700063C030F4813071F0823009F49DC0B4C080
:102780008A3009F489C08B3009F46EC0893009F0B1
:10279000ABC020C08091E701813A09F0A5C08091CB
:1027A000E800877F8093E8008091EB019091EC0135
:1027B000892B21F468E08BED91E003C060E080E0BC
:1027C00090E070E00E942D138091E8008B77809359
:1027D000E8008AC08091E701813209F085C08091CC
:1027E000EB019091EC01009719F0029709F07CC081
:1027F0008091E800877F8093E8008091E80082FD67
:1028000005C08091E5018111F8CF6EC02091F300E1
:102810008091F20090E0922B029731F48091F100C8
:10282000813011F0863021F48091F1008093DA013B
:102830008091E8008B7754C08091E701813A09F0DC
:1028400053C08091EB019091EC01892B09F04CC0B1
:102850008091E800877F8093E8008091E80080FF06
:10286000FCCF80910C0137C08091E7018132E1F506
:102870008091EB019091EC01892BB1F58091E800FA
:10288000877F8093E8000E94D9128091E9018093AC
:102890000C010E94BD1C28C08091E701813221F506
:1028A0008091E800877F8093E8000E94D912809190
:1028B000EA018093D90118C08091E701813AA1F41F
:1028C0008091E800877F8093E8008091E80080FF96
:1028D000FCCF8091D9018093F1008091E8008E7740
:1028E0008093E8000E94D9128091E80083FFEBC139
:1028F0008091E7019091E801492F50E04A3051055D
:1029000008F0E1C1FA01EC59FF4F0C940332803812
:1029100021F0823809F0D7C108C08091E30190917D
:10292000E401992389F082600FC08091EB018F70E0
:10293000873008F0C8C18093E9008091EB0085FBE7
:10294000882780F91092E9009091E800977F909392
:10295000E8008093F1001092F1007CC1282F2D7FB8
:1029600009F0B1C1882319F0823061F0ACC18091C7
:10297000E901813009F0A7C1933009F080E080932C
:10298000E4012EC08091E90181112AC08091EB0100
:102990008F702FEF280F263008F095C18093E90043
:1029A0002091EB0020FF1CC0933021F48091EB00BC
:1029B000806214C09091EB0090619093EB0021E055
:1029C00030E0A90102C0440F551F8A95E2F74093F9
:1029D000EA001092EA008091EB0088608093EB009F
:1029E0001092E9008091E800877F8093E8000E94C0
:1029F000D91269C1811167C11091E9011F778091D6
:102A0000E3008078812B8093E3008091E800877F4A
:102A10008093E8000E94D9128091E80080FFFCCFEB
:102A20008091E30080688093E300111102C082E08E
:102A300001C083E08093E50146C18058823008F0F0
:102A400042C12091E9013091EA012C3D53E0350764
:102A500079F583E08A838AE289834FB7F894DE01AF
:102A6000139620E03EE051E2E32FF0E05093570050
:102A7000E49120FF03C0E295EF703F5FEF708E2F6F
:102A800090E0EA3010F0C79601C0C0968D939D93F8
:102A90002F5F243149F74FBF8091E800877F8093F3
:102AA000E8006AE270E0CE0101960E942D13C0C0DA
:102AB0008091EB019091EC01432F55274330510554
:102AC000B1F068F44130510509F40CC142305105B0
:102AD00009F0F9C08BE590E0EDE2F3E057C0413238
:102AE000510589F14232510509F43CC0ECC0C901DD
:102AF000992781309105B9F070F082309105D9F0B5
:102B0000039709F0E0C0EAE9F3E0E4918E2F90E04A
:102B1000EAE9F3E038C0E4EEF3E0E4918E2F90E0D0
:102B2000E4EEF3E030C0E4EDF3E0E4918E2F90E0CA
:102B3000E4EDF3E028C0E8EBF3E0E4918E2F90E0C1
:102B4000E8EBF3E020C08330910508F0BCC0880FAB
:102B5000991FFC01E65AFE4F0190F081E02D89E0BB
:102B600090E014C08330910508F0ADC0FC01EE0F79
:102B7000FF1FEC5AFE4F0190F081E02DDC01AF5AAF
:102B8000BE4F8C9190E0009709F49DC02091E80021
:102B9000277F2093E8002091ED013091EE01281766
:102BA000390708F4C90140E0009789F12091E50157
:102BB000222309F43DC02530D9F12091E80023FDFE
:102BC00037C02091E80022FD2FC02091E80020FFAF
:102BD000EBCF4091F3002091F20030E0342B0097CE
:102BE00059F02830310540F444914093F10031967A
:102BF00001972F5F3F4FF3CF41E02830310509F0B7
:102C000040E02091E8002E772093E800CDCF4111DD
:102C1000CDCF0AC08091E501882351F0853041F085
:102C20008091E80083FD04C08091E80082FFF2CF2C
:102C30008091E8008B778093E80045C0803809F0E8
:102C400042C08091E800877F8093E8008091E60190
:102C50008093F1008091E8008E77C7CE811133C058
:102C60008091E9019091EA019927029764F580919A
:102C7000E800877F8093E8001091E9011093E60156
:102C80000E94D912111106C08091E30087FD02C095
:102C900081E001C084E08093E50142E061EC81E0E5
:102CA0000E94F81242E261EC84E00E94F81242E2D3
:102CB00061EC82E00E94F81242E260EC83E00E9444
:102CC000F8128091E5018091E80083FF10C08091A7
:102CD000E800877F8093E8008091EB00806280931A
:102CE000EB0005C082E190E0E8E8F3E04FCFAA9660
:102CF0000FB6F894DEBF0FBECDBFDF91CF911F910D
:102D000008951F920F920FB60F9211242F933F93A5
:102D10004F935F936F937F938F939F93AF93BF93E3
:102D2000CF93DF93EF93FF93C091E900CF70809131
:102D3000EC00D82FD17080FDD0E81092E90080918E
:102D4000F000877F8093F00078940E949F13109288
:102D5000E9008091F00088608093F000CD2BCF7067
:102D6000C093E900FF91EF91DF91CF91BF91AF91B7
:102D70009F918F917F916F915F914F913F912F9193
:102D80000F900FBE0F901F901895E8EDF0E0808136
:102D90008E7F80831092E2001092DA001092E100A0
:102DA000A0EEB0E08C9181608C9380818F778083DE
:102DB00019BCA7EDB0E08C918E7F8C9380818F7EC3
:102DC00080831092D8010895CF92DF92EF92FF9204
:102DD0000F931F93CF93DF93C8EDD0E088818F7E50
:102DE0008883E7EDF0E080818160808384E082BFAA
:102DF00081E08093D80188818E7F888302EE10E085
:102E0000F80110821092DA0081EEC82ED12CF60162
:102E1000108288818F778883888180688883888101
:102E20008F7D888319BC1092E5011092E601109203
:102E3000E4011092E30190EEE92EF12CF70180817C
:102E40008B7F808388818160888342E060E080E0BE
:102E50000E94F812F60180818E7F8083F8018081C4
:102E600081608083808188608083F70180818E7F8C
:102E70008083888180618883DF91CF911F910F913A
:102E8000FF90EF90DF90CF9008951F920F920FB6B2
:102E90000F9211242F933F934F935F936F937F93E0
:102EA0008F939F93AF93BF93EF93FF938091E10034
:102EB00082FF09C08091E20082FF05C08091E1009D
:102EC0008B7F8093E1008091DA0080FF2AC080919F
:102ED000D80080FF26C08091DA008E7F8093DA00D0
:102EE0008091D90080FF18C080E189BD82E189BD51
:102EF00009B400FEFDCF81E08093E5018091D80107
:102F000081110FC00E94C5160E94E4168091E20054
:102F100084608093E20005C019BC1092E501109214
:102F2000D8018091E10080FF17C08091E20080FF0E
:102F300013C08091E2008E7F8093E2008091E200D6
:102F400080618093E2008091D80080628093D800F5
:102F500019BC85E08093E5018091E10084FF30C0D9
:102F60008091E20084FF2CC080E189BD82E189BDAF
:102F700009B400FEFDCF8091D8008F7D8093D800EA
:102F80008091E1008F7E8093E1008091E2008F7E4E
:102F90008093E2008091E20081608093E200809162
:102FA000E601882311F084E007C08091E30087FDEB
:102FB00002C081E001C083E08093E5018091E501DA
:102FC0008091E10083FF27C08091E20083FF23C04E
:102FD0008091E100877F8093E10082E08093E501AA
:102FE0001092E6018091E1008E7F8093E100809154
:102FF000E2008E7F8093E2008091E2008061809306
:10300000E20042E060E080E00E94F8128091F0006F
:1030100088608093F000FF91EF91BF91AF919F91F5
:103020008F917F916F915F914F913F912F910F9071
:103030000FBE0F901F9018952091E4003091E5008D
:1030400095E64091EC00842F817040FF23C0809171
:10305000E80080FD1DC08091E501882399F085304E
:1030600099F08091EB0085FD11C04091E4005091F2
:10307000E5002417350729F3915011F09A01E1CFAB
:1030800084E0089582E0089583E0089581E0089542
:1030900080E008954091E80042FFDDCF0895EF926F
:1030A000FF920F931F93CF93DF937C018B010E94BC
:1030B0001C18811119C0E70101151105A1F08091BB
:1030C000E80085FD0AC08091E8008E778093E800D3
:1030D0000E941C18882381F307C089918093F10016
:1030E00001501109E9CF80E0DF91CF911F910F913D
:1030F000FF90EF90089580E00895F894E82FE2950E
:10310000EF70F0E031A1282F2F7081E090E001C036
:10311000880F2A95EAF7982F9095932391A392A16F
:10312000892B82A3789408959F92AF92BF92CF92F9
:10313000DF92EF92FF920F931F93CF93DF93CDB760
:10314000DEB727970FB6F894DEBF0FBECDBFAE0136
:103150004F5F5F4F7A0187E0FA0111928A95E9F794
:1031600003E311E06A01AA24A394B12CF801808141
:103170008F3F09F441C0F894E82FE295EF70F0E03A
:1031800021A18F70A50102C0440F551F8A95E2F757
:10319000CA01922F982B91A392A18095892382A393
:1031A000789400C0EAE3F1E0912C31E021912F3FC7
:1031B00089F0A22FA295AF70B0E090968C9190E02C
:1031C0002F7002C0959587952A95E2F780FD02C081
:1031D000832F01C080E0982A330F51E0E134F507D6
:1031E00029F7F80180818F3F11F00E947D18F0EAE5
:1031F000FA95F1F7F60190820F5F1F4FFFEFCF1A9C
:10320000DF0A21E00A33120709F0B0CF47E050E0AF
:10321000B7018AEB91E00E945A3201E0009709F46D
:1032200000E0892B89F087E0F701AAEBB1E001907B
:103230000D928A95E1F781E0809310020E949F1E13
:1032400090930F0280930E02809110028823A1F0C8
:1032500080910E0290910F020E94841E059760F0EB
:10326000EAEBF1E0A0EDB1E081918D9341E0E13C2A
:10327000F407D1F71092100280910D0190910E0188
:10328000019659F110E086E1982E1EC0989EF0013B
:10329000999EF00D1124E75FFC4FC288D388C114BA
:1032A000D10421F4C090F802D090F902989E500108
:1032B000999EB00C1124C501875F9C4F7C01FC01D5
:1032C000868181110FC01F5F812F90E020910D0139
:1032D00030910E0128173907CCF680911C0181111D
:1032E00011C038C0858596850E94841EC816D906EF
:1032F00050F7C7010E94711FC501815F9C4F0E945A
:10330000261FE1CF8091DE029091DF02009711F13C
:103310000E94841E209140023091410228173907F3
:10332000C8F49091DC028091DD02981759F00E9458
:10333000B12010924102109240021092DF021092CE
:10334000DE0208C00E943B201092DF021092DE02D3
:103350000E9492208091FB0280FF1EC080911B0181
:1033600082FF1AC00E949F1E20913C0230913D02B4
:10337000AC01421B530B2091190130911A014217E5
:10338000530750F021E132E041E0BC0180913E0260
:1033900090913F020E949621802F27960FB6F894B5
:1033A000DEBF0FBECDBFDF91CF911F910F91FF9078
:1033B000EF90DF90CF90BF90AF909F9008958238AC
:1033C000910569F1B0F48133910509F46FC048F4B7
:1033D0008932910509F465C08A32910509F46BC000
:1033E0008AC08533910509F457C089339105B9F036
:1033F00082C0833E910571F138F4803E9105B1F0B1
:10340000823E910511F177C0863E9105B9F1873E64
:103410009105C9F1843E910509F06DC024C0209149
:10342000B80120FD53C021FD51C065C08091B80195
:1034300080FD46C08091B90180FF48C08091B801ED
:1034400084FD43C183EE90E008958091B80182FF2E
:103450003AC0F4CF8091B80182FD35C08091B901A6
:1034600080FD34C0EBCF8091B90181FF35C08091E0
:10347000B80184FD2AC187EE90E008958091B801DB
:1034800083FF27C0F4CF8091B80183FD22C08091D3
:10349000B90181FD21C0EBCF8091B80185FD1FC02E
:1034A00021C08091B80185FD1DC019C08091B8016F
:1034B00086FD1BC01DC08091B80186FD19C015C0D6
:1034C00089E390E0089582EE90E0089580EE90E028
:1034D000089586EE90E0089584EE90E0089589E2E4
:1034E00090E0089585E390E008958AE290E00895E1
:1034F00081E390E00895811520E5920708F045C02A
:10350000811540E4940718F09F70906A08958F3BEE
:10351000910520F5883A910558F0885AE82FF0E097
:10352000EE0FFF1FED59FE4F808191819464089545
:10353000853A910548F0855AE82FF0E0E05AFE4FB1
:10354000808190E0906408958430910508F0BFC0B8
:10355000019709F0BAC081E090E008958F3F91058E
:1035600009F068F4803F910510F0906508959C0182
:10357000205E31092830310508F0A7C00895811573
:1035800020E2920708F4A3C0A0C0811543E5940788
:1035900008F040C0811522E59207A8F0AC01437005
:1035A000552721E030E002C0220F331F4A95E2F791
:1035B000982F9695969540E2949FC0011124822BF6
:1035C000932B9C680895811541E59407F0F49C01C4
:1035D00074E0369527957A95E1F7922F9370482FEE
:1035E000437021E030E002C0220F331F4A95E2F71A
:1035F0003C68392B982F9F709695969540E2949F42
:10360000C0011124822B932B0895982F8827816F56
:10361000906A0895811529E5920718F5811548E506
:10362000940728F0982F8827806F906A0895811555
:1036300024E5920708F049C0AC014370552721E00A
:1036400030E002C0220F331F4A95E2F7982F96957B
:10365000969540E2949FC0011124822B932B9A6887
:10366000089581154AE5940780F5282F2F70309131
:10367000B80132FF0BC083FF04C0282F27702460DD
:1036800005C082FF03C0282F2B7028604091B9012C
:1036900040FF0DC0422F4871483019F4277F216048
:1036A00006C0422F4171413011F42E7F286034FD55
:1036B000277E34E0969587953A95E1F78F7090E0F4
:1036C000982F88279069822B089580E090E00895D4
:1036D000CF9384E090E00E945B31C82F82E290E0BB
:1036E0000E945B312C2F30E0A901582BCA01CF91E9
:1036F000089580E090E00E9469318A3E9E4F11F467
:103700000C94622980E008956AEE7EEF80E090E0FC
:103710000E948D3160E082E090E00E946F3160E0B5
:1037200083E090E00E946F3110924D0460E084E0ED
:1037300090E00E946F3160E082E290E00E946F3181
:1037400060E085E090E00E946F3160E086E090E00C
:103750000E946F316FEF87E090E00E946F3140E090
:1037600050E0BA0188E090E00E94813160E08DE095
:1037700090E00E946F3140E050E0BA0188E190E0B3
:103780000E94813160E087E190E00E946F3140E06B
:1037900050E0BA018CE190E00E94813160E070E07D
:1037A00080E290E00E948D3140E050E0BA0188E173
:1037B00090E00E94813180E00E9435290E945329C7
:1037C00040E050E0BA018FE090E00E94813140E09B
:1037D00050E0BA0183E190E00C94813180959091A2
:1037E0000503892380930503089590910503809133
:1037F0000603892B90910D02892B8093F001E091B3
:10380000BB03F091BC03309731F00280F381E02DCF
:1038100080EF91E00994089580E090E00E94041FF9
:1038200080E090E00E94EE1E1092060310920D02BE
:103830000E94F51BE7EBF4E086E0DF011D928A951C
:10384000E9F71092B1041092B0041092B2040C94F3
:10385000242CCF92DF92FF920F931F93CF93DF938D
:103860006C010091EF0180914D04082BC7E0D0E07E
:1038700010E0C8010C2E02C0959587950A94E2F7D6
:1038800080FD04C02197A8F7F12C09C0FC2EB601D9
:103890008C2F0E94FB220E94DF19019799F38F2D34
:1038A000DF91CF911F910F91FF90DF90CF900895FE
:1038B0009E3F61F127E0929F800D1124682F66954D
:1038C00066956695982F977083E0689FB0011124E4
:1038D00040E050E080E0FB01E40FF51FE850FE4FB0
:1038E000208130E0092E02C0369527950A94E2F730
:1038F00021703327042E01C0220F0A94EAF7822B8D
:103900004F5F5F4F4330510531F7089580E00895D0
:103910009E3F51F127E0929F800D1124E82FE695FC
:10392000E695E695877051E001C0550F8A95EAF754
:1039300083E0E89FF0011124E850FE4F20E030E0E2
:1039400070E04081CB01022E02C0969587950A94C3
:10395000E2F78170819584278523842781932F5FE7
:103960003F4F2330310569F708958093EF010C94A0
:103970000C1C80934D040C940C1C1092050386E0E3
:10398000E2EFF1E0DF011D928A95E9F70C940C1C3F
:10399000882341F080959091060389238093060344
:1039A0000C94F51B0895882339F090910603892B18
:1039B000809306030C94F51B0895882321F00E9440
:1039C000EE1B0C94F51B0895882339F090910503A4
:1039D000892B809305030C94F51B08958823A9F186
:1039E0009CEF980F913A60F4E0EFF1E09281891337
:1039F00001C01282319691E0E63FF907B9F70DC098
:103A000090E2980F983058F4877091E001C0990FB8
:103A10008A95EAF7892F0E94EE1B0C94F51B9BE513
:103A2000980F933020F480E090E00C94041F98E508
:103A3000980F973120F480E090E00C94EE1E803FC8
:103A400020F00E944E2C0C94242C0895CF938823B0
:103A500009F459C0C82F8CEF8C0F813AF8F4E2EFCB
:103A6000F1E088EF91E02191C21721F08E179F07B6
:103A7000D1F70EC0E0EFF1E086EF91E02281C213B2
:103A800001C0128231968E179F07C1F70E94F51B65
:103A90006C2F80EF91E00E94D41E10C080E28C0F4A
:103AA000883078F4C77081E090E001C0880FCA9533
:103AB000EAF790910503892B80930503CF910C942D
:103AC000F51BEBE5EC0FE33040F4F0E0E05AFE4F7D
:103AD000808190E0CF910C94041FE8E5EC0FE73172
:103AE00050F4F0E0EE0FFF1FED59FE4F8081918101
:103AF000CF910C94EE1EC03F30F08C2F0E945B2DB6
:103B0000CF910C94242CCF9108951F93CF93DF93E2
:103B1000182F893329F4C0910003D091010304C008
:103B2000C091FE02D091FF02812F0E94261D209796
:103B300041F08FE99FE00197F1F700C00000219765
:103B4000F6CF812FDF91CF911F910C94EE1C8091C5
:103B5000DA010895E0EEF2E0848195812AE030E018
:103B6000B9010E94B93160931801868180931701D1
:103B700082858093160184858093150186859785BB
:103B8000B9010E94B93160931401808980931301B7
:103B90008289809312018489809311010895809114
:103BA000E0029091E10290931A0180931901089527
:103BB00024E02093E9002FEF3091E800215035FDFB
:103BC00006C035ED3A95F1F700002111F5CF2091AF
:103BD000E80025FF0BC040E050E066E070E00E9486
:103BE0004F188091E8008E778093E8000895CF9376
:103BF000DF9321E02093E9002FEF3091E80021507E
:103C000035FD06C035ED3A95F1F700002111F5CFED
:103C10002091E80025FF14C0EC0140E050E068E08E
:103C200070E00E944F188091E8008E778093E80042
:103C300088E0FE01ABEDB1E001900D928A95E1F7CD
:103C4000DF91CF9108958093C4037093C60360936E
:103C5000C5038091E5018430F9F48093E9008FEF8A
:103C60009091E800815095FD06C095ED9A95F1F789
:103C700000008111F5CF8091E80085FF0DC040E084
:103C800050E063E070E084EC93E00E944F18809174
:103C9000E8008E778093E800089587E797E7909390
:103CA0000108809300089AE088E10FB6F894A8957F
:103CB000809360000FBE90936000FFCF78941F92B6
:103CC0000F920FB60F9211248F939F93AF93BF93D0
:103CD0008091C0039091C103A091C203B091C3032E
:103CE0000196A11DB11D8093C0039093C103A093C1
:103CF000C203B093C303BF91AF919F918F910F9077
:103D00000FBE0F901F9018959C014FB7F8948091AB
:103D1000C0039091C103A091C203B091C3034FBFF0
:103D2000821B930B08952FB7F8946091C003709194
:103D3000C1038091C2039091C3032FBF08952FB791
:103D4000F8948091C0039091C103A091C203B091F7
:103D5000C3032FBF08951F920F920FB60F92112425
:103D60008F939F93AF93BF938091BF03811113C033
:103D70008091C0039091C103A091C203B091C3038D
:103D80004196A11DB11D8093C0039093C103A093E0
:103D9000C203B093C303BF91AF919F918F910F90D6
:103DA0000FBE0F901F9018959C01FC0132969FEF5B
:103DB00080E04191461789F09F3F19F4411101C0FD
:103DC000982F8F5F8630A9F79F3F39F0F901E90FEF
:103DD000F11D97FDFA956283089508952091BD0322
:103DE0003091BE032817390771F09093BE0380937A
:103DF000BD03E091BB03F091BC03309721F0008438
:103E0000F185E02D099408952091B9033091BA030A
:103E10002817390771F09093BA038093B903E091A2
:103E2000BB03F091BC03309721F00680F781E02DB1
:103E300009940895E091BB03F091BC03309721F001
:103E40000190F081E02D099480E00895EF92FF92B7
:103E50000F931F93CF93DF93FC01228521113AC06A
:103E6000EC01E380F480F7E5FF1A26E12E9DC00106
:103E70002F9D900D1124DC01A75FBC4F1496ED918E
:103E8000FC911597815F9C4F309729F054966D9166
:103E90007C915597099586E18E9D80018F9D100D2F
:103EA0001124075F1C4FF80187810E94EE1BF80167
:103EB00080858095909106038923809306030E9454
:103EC000F51B188219861B861E821D82109208031C
:103ED00010920703DF91CF911F910F91FF90EF9008
:103EE0000895CF93DF93FC01218921111CC0EC01BF
:103EF00081E0818B909105038781892B8093050355
:103F0000909106038085892B809306030E94F51B00
:103F1000EA81FB81CE010696309729F06C897D8974
:103F2000DF91CF910994DF91CF9108950F931F9363
:103F3000CF93DF93C42FD22FFC0182818823C9F055
:103F4000409304030E949F1E9093030380930203F7
:103F500080E28C0F883008F05BC0C77081E001C040
:103F6000880FCA95EAF7DF91CF911F910F910C94BA
:103F7000E41C80910403481334C0809102039091A3
:103F800003030E94841E2091F8023091F9028217E7
:103F9000930738F510E21D0FCD17B9F080E28C0FB2
:103FA000883040F4C77081E001C0880FCA95EAF7F5
:103FB0000E94DD1C183028F581E09D2F977001C00C
:103FC000880F9A95EAF70E94E41C802F0E94851DB5
:103FD0001830F0F4D77081E001C0880FDA95EAF765
:103FE0000AC080E28C0F883098F4C77081E001C06D
:103FF000880FCA95EAF7DF91CF911F910F910C942A
:10400000DD1C802FDF91CF911F910F910C94851DA6
:10401000DF91CF911F910F910895BC014091DC0277
:104020008091DD02942F981729F1292F30E0F901B2
:10403000EE0FFF1FEC52FD4F0190F081E02DE617CF
:10404000F70799F487E0869FF001879FF00D112410
:10405000E456FD4F81E0848394130CC02F5F3F4FE3
:10406000237033272093DC0208952F5F3F4F922F58
:104070009370D9CF08950F931F93CF93DF938091BF
:104080004302882309F449C0C09142021BE0809199
:104090004302C817F0F501E00C0F00934202D0E094
:1040A0001C9FF0011D9FF00D1124EC5BFD4F9081D2
:1040B000818123813481232B31F08F3F31F481E0E2
:1040C0009F3F19F403C081E001C080E080FD1FC064
:1040D0001C9FD0011D9FB00D1124AC5BBD4F1596E8
:1040E0008D919C911697892B31F417968D919C9107
:1040F0001897019619F4CF010E949C0B1C9FF001A8
:104100001D9FF00D1124EC5BFD4F14821382C02F14
:10411000BECF1092430210924202DF91CF911F91C5
:104120000F9108951092410210924002ECE9F2E0E2
:104130008581811102C014821682379682E0E43DA7
:10414000F807B1F708951092DF021092DE02109284
:104150001C018091DD028093DC020E9492200C946D
:104160003B203F924F925F926F927F928F929F92ED
:10417000AF92BF92CF92DF92EF92FF920F931F9375
:10418000CF93DF93C091DC0297E0892E01E010E02D
:104190002BE0322E3EEF932E442443948091DD0297
:1041A000C81709F478C0D0E0FE01EE0FFF1FEC52F3
:1041B000FD4F80819181889ED001899EB00D112490
:1041C000A456BD4F14962C911497211161C05090A4
:1041D0004302E4E4F2E020E030E0712C5D012515BB
:1041E00008F054C0E184F284D501CD90DC906FEFEB
:1041F0007FEF612C462D50E0DA01AA0FBB1FAC0DFA
:10420000BD1D0D90BC91A02D109731F0EA16FB0654
:1042100009F4BA016394EECF6F3FBFEF7B0791F1D2
:10422000D80102C0AA0FBB1F6A95E2F77A2AB8012B
:1042300002C0660F771F6A94E2F7AB014150510943
:10424000672D70E046175707D9F4329EF001339E70
:10425000F00D1124EC5BFD4F889ED001899EB00DBE
:104260001124A456BD4F12962D913C91139736837D
:104270002583908291829087878315964C9206C001
:10428000148213822F5F3F4F3B96A9CF0E940D20CF
:104290002196C37083CF0E943B20DF91CF911F9165
:1042A0000F91FF90EF90DF90CF90BF90AF909F90D5
:1042B0008F907F906F905F904F903F900C949220E2
:1042C00080911B01877F80931B01909106039D7F46
:1042D0009093060384FF08C08F7E80931B0180911A
:1042E000050382608093050380911B0185FF08C050
:1042F0008F7D80931B01809105038062809305036D
:104300000C94F51B662329F020910603226020936C
:1043100006039C013056211540E2340720F0305E40
:104320002115304108F499270C942931AF92BF929E
:10433000CF92DF92EF92FF920F931F93CF93DF9371
:104340005C017B01C42E890180911B0182FF95C015
:10435000C0913E02D0913F02CA15DB0521F0A114A5
:10436000B10409F08AC080911B018B7F80931B01EF
:1043700081FD11C080913C0290913D02A701481B34
:10438000590B81E02091190130911A01421753070E
:1043900018F480E001C081E08170D82E80911B016B
:1043A000D0FA81F980931B01FE01FF2784E0F69586
:1043B000E7958A95E1F79E012F703327EE0FFF1FD7
:1043C000E45EFD4F81E090E002C0880F991F2A95BE
:1043D000E2F7DD2029F020813181822B932B06C06A
:1043E00080959095208131818223932391838083CE
:1043F0008091050381FF08C080911B01806180933B
:104400001B0182E00E94EE1B8091050385FF08C01E
:1044100080911B01806280931B0180E20E94EE1B51
:10442000A8016D2DCE010E948221CC2031F0809117
:10443000FB0285FF02C086FF3EC08091FE02909184
:10444000FF02009741F0EFE9FFE03197F1F700C07C
:1044500000000197F6CF80913E0290913F029C01AF
:1044600030562115F0E23F0720F0305E2115304133
:1044700008F499270E940F3118C095013327C50110
:1044800090568115E0E29E0720F0905E81159041E4
:1044900010F4C90101C0C5010E940F3180913E0294
:1044A00090913F02A816B90611F40E946021F09283
:1044B0003D02E0923C02DF91CF911F910F91FF905E
:1044C000EF90DF90CF90BF90AF9008950F931F9320
:1044D000CF93DF9300EE12E0CFEBD1E0CE010E944C
:1044E0005B31F80181938F012196C13EF1E0DF0736
:1044F000A9F7C0E0D0E0FE01E05BFB4F859194910D
:10450000009711F0FC0109952896C839D10599F753
:10451000DF91CF911F910F9108950F931F93CF9328
:10452000DF9300EE12E0CFEBD1E0CE010E945B31D1
:10453000F80161918F01681719F0CE010E946F3167
:104540002196C13EF1E0DF0781F7DF91CF911F9106
:104550000F910895E0EEF2E0128E138E8FEA90E054
:104560009183808385E0848F88E893E193838283BD
:104570004CE251E05583448322E330E037832683C5
:1045800085E090E0918780878AE090E0938782873A
:1045900064E170E0758764875787468744E650E09A
:1045A000518B408B48E050E0538B428B48E250E007
:1045B000558B448B378B268B28EC30E0318F208F46
:1045C000158E978F868F80E590E091A380A30E943F
:1045D0008D220C946622CF93DF93C1E8D2E060E095
:1045E000CE010E946F312196C11584E0D807B9F73A
:1045F000DF91CF910895462F20911A0230911B022E
:10460000232B91F47E3F39F46E3F71F480911802B0
:10461000909119020895843038F4773028F4673087
:1046200018F4672F0C94042880E090E008956F92AE
:104630007F928F929F92AF92BF92CF92DF92EF9232
:10464000FF920F931F93CF93DF93CDB7DEB764979D
:104650000FB6F894DEBF0FBECDBFA0900F01B09093
:10466000100181E090E09093100180930F01C12C24
:10467000D12C712C612CE12CF12C00E010E04701D1
:104680008C0C9D1CF801EE0FFF1FE80DF91DE85181
:10469000FC4F25913491402F662D872D0E94CE2707
:1046A0000F5F1F4F0730110569F78EE0E80EF11C10
:1046B0006394E7E06E12E1CF21E030E040E060E09B
:1046C000872D0E94722721E030E041E060E0872DD5
:1046D0000E9472277394F2E6CF0ED11C84E0781208
:1046E000C9CF0E94AA221A8219821C821B821E82B2
:1046F0001D8218861F8288EC90E09A87898701EED8
:1047000011E04AE050E0B801CE0101960E949331D9
:10471000065F1F4F0133E2E01E0799F77E01FBE0C1
:10472000EF0EF11C8AE0F70111928A95E9F74AE051
:1047300050E0B801C7010E949331065F1F4F013856
:10474000F2E01F07A1F7B0921001A0920F0164964A
:104750000FB6F894DEBF0FBECDBFDF91CF911F9192
:104760000F91FF90EF90DF90CF90BF90AF909F9010
:104770008F907F906F900895883080F49B01982FE0
:104780008AE0989FB00111246F517E4F4AE050E0BB
:10479000C9010E944B3180E090E008958FEF9FEFB8
:1047A00008950895CF93DF9300D000D01F92CDB726
:1047B000DEB79093190280931802811520E29207C8
:1047C00048F40F900F900F900F900F90DF91CF91C2
:1047D0000C940F318EEF89838A831B820E949F1E67
:1047E0008160782F9D838C8349815A816B818D8173
:1047F0000E94DA2E0F900F900F900F900F90DF9184
:10480000CF9108950F931F93CF93DF938C01EB010A
:1048100066E574E08C2F0E94BC23892B09F04EC002
:104820008091FE029091FF02009741F0EFE9FFE0D6
:104830003197F1F700C000000197F6CFDD27C25B8A
:10484000DB4F8881F80110821882833079F048F4B8
:10485000813041F1823091F5809158049091590452
:1048600009C0843051F08530E9F028C080915A04A5
:1048700090915B040097B1F01BC080915C04909113
:104880005D040097A9F4209156043091570480915B
:104890005804909159042115310541F0009741F4D5
:1048A000C90106C08091560490915704009731F0D9
:1048B000DF91CF911F910F910C94D223DF91CF9173
:1048C0001F910F910895CF93DF9300D000D01F92D6
:1048D000CDB7DEB79093190280931802811520E2BC
:1048E000920748F40F900F900F900F900F90DF9168
:1048F000CF910C9429318EEF89838A8381E08B8359
:104900000E949F1E8160782F9D838C8349815A81EC
:104910006B818D810E94DA2E0F900F900F900F9077
:104920000F90DF91CF910895CF93DF93EC010E9418
:1049300063248091FE029091FF02009741F0EFE91D
:10494000FFE03197F1F700C000000197F6CFCE01EC
:10495000DF91CF910C94D2230F931F93CF93DF93CA
:104960008C01862F66E574E00E94BC23892BD1F46C
:10497000C0915604D09157042097A1F0F80180818E
:10498000833039F4CE010E949424CE010E949424F5
:1049900002C0843038F0CE01DF91CF911F910F918A
:1049A0000C949424DF91CF911F910F9108950F9350
:1049B0001F93CF93DF938C01EB0166E574E08C2F9E
:1049C0000E94BC23892B09F06DC0DD27F80180818E
:1049D000813041F49185911115C09285992391F010
:1049E00082E010C0823049F4F8018185811107C04E
:1049F0008285811106C083E005C086E003C085E0A2
:104A000001C084E0C25BDB4F88838330B1F028F4BF
:104A1000813071F0823031F045C08430A9F08530AA
:104A200079F140C080915804909159040097A1F504
:104A3000809156049091570420C080915A0490911F
:104A40005B040097E9F028C080915C0490915D04BC
:104A5000009711F58091560490915704009749F002
:104A60000E9494248091580490915904009781F0F9
:104A700013C08091580490915904009799F00CC08C
:104A80008091560490915704009761F00E949424FD
:104A90008091560490915704DF91CF911F910F910F
:104AA0000C946324DF91CF911F910F910895EF92A1
:104AB000FF920F931F93CF93DF938C01CAECD3E047
:104AC000E12CF12CF8018481F5E1EF16F1041CF4DE
:104AD000882351F002C0811107C040914B0447392F
:104AE00008F046E99E0102C09E0140E060914A0440
:104AF000809149040E94382A8FEFE81AF80A239619
:104B00009AE2E916F104F1F60E949329F8018481F2
:104B100090E00196817099278483DF91CF911F9156
:104B20000F91FF90EF9008958F929F92AF92BF9256
:104B3000CF92DF92EF92FF920F931F93CF93DF9369
:104B4000EC014C81042F10E09801D8010E9418322A
:104B50009B01AC010E942E326B017C01E0E2F0E08F
:104B6000E01BF10BA5E5B0E09B01AC010E942E32E9
:104B70004B015C019F01DF010E9410329B01AC01DF
:104B80000E9439329B01AC012C0D3D1D4E1D5F1D55
:104B9000C501B4010E94E131822FF22E99E29217F1
:104BA00028F093E0299F900111240DC025E530E005
:104BB000281B3109C901880F991F280F391F37FF9A
:104BC00002C02F5F3F4F35952795122F10959AEC15
:104BD000C92E93E0D92E00E085E5E82EEF1801FDFF
:104BE00002C08E2D01C08F2D412F173908F046E9E4
:104BF000960160914A040E94382A0F5F83E0C80E34
:104C0000D11C0A3261F70E9493298C81811102C064
:104C100091E003C0803219F49FEF90931F019091AF
:104C20001F01890F8C83DF91CF911F910F91FF900E
:104C3000EF90DF90CF90BF90AF909F908F900895AE
:104C40000F931F93CF93DF93CAECD3E0FE01118241
:104C500010821282339684E0E834F807C1F700E04E
:104C600010E08091C803082E000C990B0817190753
:104C7000ACF080911E01082E000C990B8017910753
:104C80006CF040914B04473908F046E99E01609171
:104C90004A04809149040E94382A03C0198218826C
:104CA0001A820F5F1F4F23960A321105D1F60E9418
:104CB000932980911D019091C803980F9093C80388
:104CC00020911E01280F20931E01121614F4993210
:104CD0001CF0819580931D01DF91CF911F910F9161
:104CE0000895BF92CF92DF92EF92FF920F931F939E
:104CF000CF93DF93FC01828180FF03C0DD24DA942F
:104D000002C0DD24D3940AEC13E0C0E0D0E02AE234
:104D1000B22EF80111821082128294E0E92EF12C59
:104D2000C12C8091C7038C0D8B322CF06B2D0E940F
:104D3000AB31892F02C087FD865D082E000C990BD0
:104D4000C817D907A9F480914B048E9DA0018F9DAF
:104D5000500D11245595479555954795473908F0BD
:104D600046E9980160914A04809149040E94382ADA
:104D7000CD0CF1E0EF1AF108A1F621960D5F1F4F5F
:104D8000CA32D10531F60E9493298091C70391E080
:104D9000D91206C0811102C089E207C0815005C046
:104DA00090E00196BE010E94CD318093C703DF9150
:104DB000CF911F910F91FF90EF90DF90CF90BF9018
:104DC0000895EF92FF921F93CF93DF93EC018AEC4B
:104DD000E82E83E0F82E10E040914B04473908F0AC
:104DE00046E98C81970160914A04810F0E94382A1C
:104DF0001A5F83E0E80EF11C1C3F71F70E949329B3
:104E00009A818C8190FF02C08F5F01C081508C839A
:104E1000DF91CF911F91FF90EF9008950F931F9313
:104E2000CF93DF9300D01F92CDB7DEB78C01809176
:104E3000C90381110AC09E012F5F3F4F46E96FEF02
:104E40000E94382A8A818093C903F80184818130C5
:104E500051F028F0823061F44091C9030AC080917A
:104E6000C90340E007C06091C90340E080E003C08F
:104E700040E080E060E00E94C929F801848190E070
:104E8000019663E070E00E94CD3184830F900F9013
:104E90000F90DF91CF911F910F910895CF93DF93E2
:104EA000EC01E8E4F4E0438162818C810E94CE2A27
:104EB0008C818F5F8C83DF91CF910895CF93DF93A7
:104EC000EC01EC81F0E0EE51FB4F4491E8E4F4E0BA
:104ED000628181810E94CE2A8C818F5F8C83DF91D9
:104EE000CF9108950F931F93CF93DF93843038F5BC
:104EF000611125C0423018F521159CE5390731F4C0
:104F000060910F0170911001672BC9F08901C42FC6
:104F1000D0E0CC0FDD1F94E0899FC00DD11D11247E
:104F2000C155DE4F612FCE010E946F31602FCE013F
:104F30000196DF91CF911F910F910C946F31DF910A
:104F4000CF911F910F9108950F931F93CF93DF93EC
:104F50008430E8F461111BC04230C8F4C42FD0E0A3
:104F6000CC0FDD1F24E0829FC00DD11D1124C1553F
:104F7000DE4FCE010E945B3190E0182F0027CE015A
:104F800001960E945B319801282BC90102C080E084
:104F900090E0DF91CF911F910F9108950F931F9390
:104FA000CF93DF93843058F5673048F5473038F5B4
:104FB00021159CE5390731F4E0910F01F0911001C2
:104FC000EF2BE9F08901C42FD0E0CC0FDD1F9EE06C
:104FD000699FC00DD11D112492E6899FC00DD11D7E
:104FE0001124612FCE0187960E946F31602FCE0170
:104FF0008896DF91CF911F910F910C946F31DF91C3
:10500000CF911F910F9108950F931F93CF93DF932B
:10501000843008F56730F8F44730E8F4C42FD0E066
:10502000CC0FDD1F2EE0629FC00DD11D112432E692
:10503000839FC00DD11D1124CE0187960E945B3144
:1050400090E0182F0027CE0188960E945B319801CE
:10505000282BC90102C080E090E0DF91CF911F9121
:105060000F910895CF92DF92EF92FF920F931F93CB
:10507000CF93DF93CDB7DEB72A970FB6F894DEBF94
:105080000FBECDBF80E5E0E6F4E0DF011D928A951A
:10509000E9F788E3ECE9F2E0DF011D928A95E9F790
:1050A00080E6C82E84E0D82E7F0101E312E0F701EC
:1050B000D182C0824AE050E0B801CE0101960E9440
:1050C0004B3188E0FE013196D60101900D928A9510
:1050D000E1F789859A85D70113969C938E93129751
:1050E000BAE0CB0ED11CE7E0EE0EF11C065F1F4FBD
:1050F0000138F2E01F07D9F62A960FB6F894DEBF02
:105100000FBECDBFDF91CF911F910F91FF90EF9018
:10511000DF90CF9008958F929F92AF92BF92CF92DF
:10512000DF92EF92FF920F931F93CF93DF93CDB750
:10513000DEB72A970FB6F894DEBF0FBECDBF09E0E9
:1051400013E0E12CF12C8CEAC82E84E2D82E97EDE6
:10515000A92E94E2B92E22E0822E24E2922EF801AA
:10516000D182C082B382A28295828482F58AE48A47
:10517000BE016F5F7F4F8E2D0E94BC23892B29F4C7
:1051800089859A85F801938B828BFFEFEF1AFF0ACE
:105190000A5E1F4F88E0E816F10409F72A960FB659
:1051A000F894DEBF0FBECDBFDF91CF911F910F915D
:1051B000FF90EF90DF90CF90BF90AF909F908F9037
:1051C0000895AF92BF92CF92DF92EF92FF920F932A
:1051D0001F93CF93DF93B82EA62EC090EF0180913E
:1051E0004D04C82AC7E0D0E0D12CE12CF12CD70126
:1051F000C6010C2E04C0B695A795979587950A947D
:10520000D2F780FF13C04A2D6B2D8C2F0E94A4274C
:105210008C018130910551F00E9463248FE39CE959
:105220000197F1F700C00000C80111C02197F8F6FE
:105230004A2D6B2D80E00E94A427EC010E9463247C
:105240008FE39CE90197F1F700C00000CE010E94B6
:10525000D22381E0DF91CF911F910F91FF90EF90CA
:10526000DF90CF90BF90AF900895CF93C82F81115A
:1052700002C06FEF01C06EE483E290E00E946F31E4
:10528000C11102C06FEF01C06FEB84E290E00E9499
:105290006F31C11102C06FEF01C061E785E290E09C
:1052A000CF910C946F3180E00E94352960E086E256
:1052B00090E00E946F310E9417230E94EB2281E050
:1052C0000C94352983E290E00E945B318E3481F4A6
:1052D00084E290E00E945B318F3B51F485E290E0E4
:1052E0000E945B3191E0813709F090E0892F01C085
:1052F00080E0817008959091480490FF04C09695D5
:10530000981740F003C0811105C090E0961710F483
:105310000C941A2C61E00C94CF2B882311F0FA0125
:1053200001C0FB0109948091480480FF0AC0519A92
:105330008BB18D7F9BB192602FB7F894EAECF3E0CC
:105340000BC0EAECF3E0118210821282339634E053
:10535000E834F307C1F7EBCF34E0E834F30789F022
:10536000319148E09BB9000000C037FF8BB9330F83
:10537000000000C000C000C08BB900C04A9591F782
:10538000EBCF2FBF8FE594E00197F1F700C000004D
:1053900008959091480490FF0CC0EAECF3E08183FB
:1053A00060834283339694E0E834F907C1F70C94A4
:1053B0009329089580914804282F269530E02115DF
:1053C000310519F48170826005C02532310524F061
:1053D000817088648093480480914B04873918F069
:1053E00086E980934B040895CF92DF92EF92FF926B
:1053F0006B017C010E94DA29B701A60188E090E0E8
:10540000FF90EF90DF90CF900C94813180914C040D
:10541000882319F0815080934C0460914804709166
:10542000490480914A0490914B040C94F429809192
:105430004C04833018F48F5F80934C0460914804CF
:105440007091490480914A0490914B040C94F42982
:10545000E8E4F4E083E0808311828FEF828386E9C1
:105460008383148260817181828193810C94F429F9
:10547000AF92BF92CF92DF92EF92FF920F931F9362
:10548000CF93DF93E82EF62EE901E42FF0E06111CF
:1054900006C0EE51FA4FE4914E2F2E2F71C0062F09
:1054A00010E0EE51FA4F4491F42FC42ED12C26E097
:1054B000829FC00111242FEF30E0B9010E94B93161
:1054C0005BEA5603C001579F900D11248E0D911D6C
:1054D0008E0D911D582F550F580FD901A01BB10BE0
:1054E000AC9DC001AD9D900DBC9D900D1124E92F88
:1054F000F59ED0011124AB2FBB277901EA1AFB0AD4
:10550000EC9CD001ED9CB00DFC9CB00D1124590118
:10551000A51AB108A09E7001A19EF00CB09EF00CDF
:105520001124EF2CFF242E193F092C9D80012D9D65
:10553000100D3C9D100D1124212F6230710591F04A
:1055400048F461157105E1F061307105B9F4242F5B
:105550004B2F16C06430710569F040F0663071055C
:1055600079F00CC0242F492FE12F0AC0492FEF2FCB
:105570002B2F06C0292FE42F412F02C0292FEB2FFC
:1055800049832883EA83DF91CF911F910F91FF9088
:10559000EF90DF90CF90BF90AF900895CF93DF93BF
:1055A00000D01F92CDB7DEB79091480490FF0DC098
:1055B000473908F046E99E012F5F3F4F0E94382A85
:1055C0004B8169818A810E94C9290F900F900F90A9
:1055D000DF91CF9108955F926F927F928F929F9209
:1055E000AF92BF92CF92DF92EF92FF920F931F93F1
:1055F000CF93DF9300D01F92CDB7DEB7082F762E62
:10560000142F622E9091480490FF74C0E92FE69504
:10561000AE2FB0E0AF56BE4F8C918093C3049E7FF7
:10562000923081F4473908F046E99E012F5F3F4FE1
:10563000672D802F0E94382A4B8169818A810E94C0
:10564000C92946C0823019F410914B0441C08630FC
:1056500019F4009149043CC08930D9F38931C1F56E
:10566000E9518E2F8170582EE695F0E0EE51F94FFA
:10567000A590B4908AECC82E83E0D82EE12CF12CB2
:10568000BB249AE2892E912CAE9CC001AF9C900D58
:10569000BE9C900D1124B4010E94B931802F51108D
:1056A00002C0860F01C0861B412F173908F046E95A
:1056B0009601672D0E94382A8FEFE81AF80A83E0D6
:1056C000C80ED11C8AE2E816F104F1F60E94932973
:1056D0000093490470924A0410934B04662051F0E1
:1056E000609148047091490480914A0490914B0460
:1056F0000E94F4290F900F900F90DF91CF911F918E
:105700000F91FF90EF90DF90CF90BF90AF909F9060
:105710008F907F906F905F900895E8E4F4E043816C
:1057200021E1421B08F440E021E0628181810C9478
:10573000EB2AE8E4F4E0438121E1420F08F44FEF63
:1057400021E0628181810C94EB2AE8E4F4E062813B
:1057500021E1621B08F460E021E0438181810C9427
:10576000EB2AE8E4F4E0628121E1620F08F46FEFD4
:1057700021E0438181810C94EB2AE8E4F4E081810B
:1057800021E04381628188500C94EB2AE8E4F4E044
:10579000818121E043816281885F0C94EB2A9091A2
:1057A000480490FF3DC09170811102C0926006C014
:1057B000853210F0986402C0880F982B90934804AB
:1057C000662351F0609148047091490480914A0425
:1057D00090914B040E94F42960914804669570E012
:1057E0004BE050E080E291E00E944D32892B19F0AD
:1057F0001092C40409C081E08093C4040E949F1EDB
:105800009093BE048093BD0481E08093C00420E0A7
:1058100040914B0460914A04809149040C94EB2A16
:105820000895809148048695815009F484E261E0EE
:105830000C94CF2B8091480486958F5F853208F0B9
:1058400081E061E00C94CF2B0E949F1E2091B9044F
:10585000211104C02091BA04222321F09093B604B0
:105860008093B5042091BB04211104C02091BC0495
:10587000222321F09093B4048093B304E091BB03FE
:10588000F091BC03309749F082E08093B704048024
:10589000F581E02D87EB94E009940895803F39F479
:1058A0008091BA0487FF6AC01092BA0467C0813F32
:1058B00029F48091BA041816BCF360C09091B90421
:1058C000823F29F497FF5AC01092B90457C0833F12
:1058D00019F41916CCF352C09091BB04893F31F4EE
:1058E00019160CF04BC01092BB0448C08A3F19F443
:1058F00097FF44C0F8CF8B3F39F48091BC0487FFF9
:105900003DC01092BC043AC08C3F29F48091BC0485
:105910001816BCF333C0843F21F48091B8048E7F05
:1059200017C0853F21F48091B8048D7F11C0863F58
:1059300021F48091B8048B7F0BC0873F21F48091C4
:10594000B804877F05C0883F31F48091B8048F7E0A
:105950008093B80413C08D3F21F48091B2048E7FF0
:105960000BC08E3F21F48091B2048D7F05C08F3F24
:1059700029F48091B2048B7F8093B2048091B904A2
:10598000811106C08091BA04811102C01092B10445
:105990008091BB04811106C08091BC04811102C0BA
:1059A0001092B00408958091B20480FF08C0609105
:1059B000120170E0759567957595679521C081FF17
:1059C00006C06091120170E07595679519C082FF5D
:1059D00004C06091120170E010C09091B00499234E
:1059E00099F0609111019617A0F780911201899F9B
:1059F000C001112470E00E94CD316038710540F47F
:105A00006115710519F406C061E070E0862F0895F4
:105A10008FE7089581E008958091B2042091E80213
:105A20003091E90280FF0CC080911601829FB00185
:105A3000839F700D112476956795769567952FC095
:105A400081FF0AC080911601829FB001839F700D73
:105A500011247695679523C082FF08C080911601B6
:105A6000829FB001839F700D112419C04091B10431
:105A7000411102C0B90113C060911501461770F7BA
:105A800080911601849FA0011124429FC001439F71
:105A9000900D529F900D112470E00E94B931603832
:105AA000710528F46115710521F0862F08958FE79F
:105AB000089581E00895803F21F40E940C2D819586
:105AC00004C0813F29F40E940C2D8093BA040895EC
:105AD000823F21F40E940C2D819504C0833F29F45C
