:100000000C943F040C945C040C945C040C945C040D
:100010000C945C040C945C040C945C040C945C04E0
:100020000C945C040C945C040C94EA180C942C184A
:100030000C94C52C0C945C040C945C040C945C042F
:100040000C945C040C945C040C945C040C945C04B0
:100050000C945C040C94782C0C945C040C945C045C
:100060000C945C040C945C040C945C040C945C0490
:100070000C945C040C945C040C945C040C945C0480
:100080000C945C040C945C040C945C040C945C0470
:100090000C945C040C945C040C945C040C945C0460
:1000A0000C945C040C945C040C945C04550A6B0A7C
:1000B000720A880B880BAA0AB60AC50A880BCD0AF1
:1000C000880B880B880BD50AFD10FD102D112D1102
:1000D000C211DE11F212F212E9115D126E126E12ED
:1000E00038165F1614185F161418AB16CE161418AF
:1000F000CF17DF1700047F3F1F6432146432147877
:100100003C1E1E140A05FD377A585A000004E6D634
:10011000B4460200210116000000742FE5A3E0019F
:10012000A800D55D003D8889C65436C3174FE4E466
:1001300056FEECBC3EDB0BBE3484A0BEAB746D52ED
:10014000628B38C5FA1AC0AC8783F916D2D67B7D8C
:100150000D69FF2F16F634660567885726506550DF
:100160009F0B4FA15385AFAC9A9283C9BFB379CD92
:100170004968896D3E77A799A8A4B9DB5305B7DC18
:100180000D5F164A48FB4120ADEAB355CAC1CE887F
:100190007DF5211002AE23AE3E83B7A0C21DFDE463
:1001A000AC7ECAA48225EC1D2CE93181072151D4F3
:1001B000866047291BBDCADC3287DADD0D844476B0
:1001C000C08E0152D0E4354654937E00080EAEF83E
:1001D0001D22083BB55AA496C47098FF33AEE2D5F1
:1001E0003FF1210B50D804BFC71C8895F6CD33A52D
:1001F000C3A1704BB1ABAD1B0500000000008272C3
:10020000DDD5347182A10001F101A903000007DFEF
:10021000DE12B1C467FB020000000004595A050158
:100220000902A10185020901A10005091901290599
:100230001500250195057501810295017503810160
:100240000501093009311581257F95027508810660
:1002500009381581257F950175088106050C0A3836
:10026000021581257F950175088106C0C005010929
:1002700080A101850319012AB700150126B7009551
:100280000175108100C0050C0901A1018504190147
:100290002AA002150126A002950175108100C00553
:1002A000010906A1018506050719E029E7150025C2
:1002B000019508750181020507190029EF15002530
:1002C0000195F0750181020508190129059505754B
:1002D000019102950175039101C00660FF0961A1BA
:1002E000010962150026FF00952075088102096347
:1002F000150026FF00952075089102C0050109062A
:10030000A101050719E029E71500250195087501E8
:1003100081029501750881010507190029FF150063
:1003200026FF009506750881000508190129059525
:100330000575019102950175039101C009025B00E9
:10034000030100A0FA0904000001030101000921D2
:100350001101000122400007058103080001090482
:100360000100020300000009211101000122220006
:10037000070582032000010705030320000109048B
:100380000200010300000009211101000122BC004C
:100390000705840320000112010002000000086626
:1003A0006666660200010203011C037600690061B3
:1003B000006C003A006600360034006300320062D0
:1003C000003300630000002003500034003000536D
:1003D000005600320020004B006500790062006F7B
:1003E0000061007200640000000E035000610062B2
:1003F0000069006C006500000004030904000102AC
:1004000003040506070809131211100F0E0D0C0B3B
:100410000A1415161718191A1B1C1D272625242324
:100420002221201F1E2223252628292A2C2D2F3069
:1004300032333536383A3B3D3E4042434547494AE0
:100440004C4E5051535557595A5C5E606264666811
:10045000696B6D6F71737577797B7D7F818385871C
:10046000898A8C8E90929496989A9C9E9FA1A3A51F
:10047000A7A8AAACAEAFB1B3B4B6B8B9BBBCBEBF47
:10048000C1C2C3C5C6C7C9CACBCCCDCED0D1D2D2CA
:10049000D3D4D5D6D7D7D8D9D9DADADBDBDBDCDCD5
:1004A000DCDCDCDDDDDDDDDCDCDCDCDCDBDBDBDA8D
:1004B000DAD9D9D8D7D7D6D5D4D3D2D2D1D0CECDF8
:1004C000CCCBCAC9C7C6C5C3C2C1BFBEBCBBB9B805
:1004D000B6B4B3B1AFAEACAAA8A7A5A3A19F9E9C8A
:1004E0009A98969492908E8C8A89878583817F7D55
:1004F0007B79777573716F6D6B6968666462605E36
:100500005C5A5957555351504E4C4A4947454342FE
:10051000403E3D3B3A3836353332302F2D2C2A2998
:100520002826252322000101010101010101010208
:100530000202020202020202030303030303030393
:10054000040404040404040505050505060606065E
:1005500006070707070708080808090909090A0A1A
:100560000A0B0B0B0C0C0C0D0D0D0E0E0E0F0F0FBE
:100570001010111111121213131414151516161749
:1005800017181819191A1A1B1B1C1D1D1E1E1F20B7
:1005900020212222232424252626272829292A2B04
:1005A0002C2D2D2E2F303132323334353637383929
:1005B0003A3B3C3D3E3F4041424344454647484923
:1005C0004A4C4D4E4F50515354555658595A5B5DF5
:1005D0005E5F616264656668696B6C6D6F70727393
:1005E0007577787A7B7D7E8082838587888A8C8EFA
:1005F0008F91939596989A9C9EA0A2A3A5A7A9AB2C
:10060000ADAFB1B3B5B7BABCBEC0C2C4C6C9CBCD1D
:10061000CFD1D4D6D8DBDDDFE2E4E7E9EBEEF0F3CF
:10062000F5F8FAFDFFFFAA7F554014001A000800F4
:10063000150017001C001800040016000700090030
:100640000A000B000D001D001B000600190005002C
:1006500011001000E000E300E200E1002A422C411A
:1006600028440C00120013000E000F002D4336002A
:10067000370038004C00E4002900000000001E0094
:100680001F00200021002200230024002B00000076
:10069000000035002F003000310000000000000095
:1006A00000002E002D0000000100010001000100EB
:1006B000010000000100250026002700330034005F
:1006C0002D000100010001000100010001000000F7
:1006D00000003A003B003C003D003E003F0040006F
:1006E0002B0044004500000000000000000039001D
:1006F00046004700480000005300000001000100D0
:10070000010001000100010000004100420043001F
:10071000000000000000AA00A900A80000000000DE
:1007200000000000000029000000000000000000A0
:1007300049004B002B0000000000000000004A00B0
:100740005000000000000000000000004D0000000C
:1007500001000100010001002A0000000000520019
:100760004E004C0051004F0000000000000000004F
:100770000000000000000000000029000000000050
:10078000000000000000F4002B000000000000004A
:100790000000F900F200000000000000000000006E
:1007A000FA00000001000100010001002A00000021
:1007B0000000F000F5004C00F100F3000000000024
:1007C0000000000000000000000000000000000029
:1007D0000000000000000000000000000000000019
:1007E0000000000000000000000000000000000009
:1007F00000007E0F00D4FFFFFFC70000007800005C
:100800000000000000002A2B28000000000000006B
:1008100000000000000000000029000000002C1E65
:100820003420212224342627252E362D3738271E22
:100830001F202122232425263333362E37381F0448
:1008400005060708090A0B0C0D0E0F1011121314E0
:1008500015161718191A1B1C1D2F3130232D35049E
:1008600005060708090A0B0C0D0E0F1011121314C0
:1008700015161718191A1B1C1D2F3130354C112451
:100880001FBECFEFDAE0DEBFCDBF11E0A0E0B1E0E8
:10089000E0E8F9E602C005900D92A839B107D9F752
:1008A00024E0A8E9B1E001C01D92AF3BB207E1F737
:1008B0000E945E040C94BE340C940000ACE3B0E0E3
:1008C000E4E6F4E00C945B3385B7806885BF85B7B8
:1008D000806885BF84B7877F84BF0FB6F894A895DA
:1008E00080916000886180936000109260000FBE6C
:1008F00090E080E80FB6F8948093610090936100D7
:100900000FBE87ED93E290939901809398010E9426
:10091000ED1F0E948D1F0E9470180E948F188091F9
:10092000E20084608093E20078948091E001882363
:10093000A1F01091E9001F709091EC00892F817057
:1009400090FD80E8182B1092E9008091E80083FD6B
:100950000E9455151F701093E90082E084BD93E05A
:1009600095BD9AEF97BD80936E000E948E218111F4
:1009700002C00E947E2106E211E07CE2E72E71E0D7
:10098000F72ED8018D918D018F3F11F00E941C240C
:10099000E016F106B1F70CE211E063E3E62E61E048
:1009A000F62EF80181918F018F3F11F00E941C24D7
:1009B000E016F106B1F786E0E1EBF1E0DF01282F68
:1009C0001D922A95E9F7EAE9F1E0DF011D928A9587
:1009D000E9F70E949726811102C00E94A32682E0B7
:1009E00090E00E94AB338093A5010E9486269093ED
:1009F000BB048093BA040E943324BFEFE6E7F1E022
:100A0000B150E040F040E1F700C000000E94332404
:100A10008091B10180FF08C06FEF7FEF80E090E030
:100A20000E94DD330E94672C83E090E00E94AB338C
:100A30000E94FD1A8CE090E00E94AB3390E0A0E0B1
:100A4000B0E08093FC039093FD03A093FE03B0936A
:100A5000FF038091A001811133C00E94972681116C
:100A600004C00E94A3260E94AF2888E090E00E9464
:100A7000B3336093800270938102809382029093DB
:100A800083026E7F71F40E94AF2888E090E00E949C
:100A9000B3336093800270938102809382029093BB
:100AA00083020E945E28109204028091800280FFDF
:100AB00004C060E086950E94312A81E08093A00105
:100AC0008091BA0480688093BA048091BA049091AE
:100AD000BB040E94782680E091E09093B20480935A
:100AE000B10438E1432E512C40E4342E57EB652EEF
:100AF00051E0752E6E012BE2C20ED11C8091E001F7
:100B0000853009F070C0FF24F39400E112E1809178
:100B1000E001853009F052C08091E001843009F491
:100B20003DC0109204028091A201811116C0F09282
:100B3000A20180918002982F91709093A1018E7FE5
:100B4000809380023FEF40E782E031504040804098
:100B5000E1F700C000000E94D8211092B5040FB642
:100B6000F894A895409260000FBE3092600083B761
:100B7000817F846083BF83B7816083BF78948895C9
:100B800083B78E7F83BF0FB6F894A89580916000DD
:100B9000886180936000109260000FBE8091DF0139
:100BA000882309F4B4CF0E943324E1EBF1E0819172
:100BB0008111D6C56E167F06D1F7A9CF0E94021B00
:100BC0000E94422D1092A2018091A101882349F038
:100BD0008091800281608093800260E086950E940F
:100BE000312A0E94C2210E94332426EAE22E21E00B
:100BF000F22E01EB11E02CEA31E0D801F7019191DE
:100C00008D9189272E173F0719F08823C1F322C041
:100C1000811120C00E94B92C8C018091A301909178
:100C2000A4010817190709F447C08FEF8BAB8CABF1
:100C30001DAA0E94B92C8160782F9FAB8EAB4BA967
:100C40005CA96DA98FA90E94CD301093A4010093D7
:100C5000A30132C0B12CF80121908F01D7018C90F3
:100C6000822409F1A12C99249394882D8921A1F043
:100C7000A8AEB9AE91E0822D892109F490E09AAF37
:100C80000E94B92C8160782F9CAF8BAF48AD59ADD5
:100C90006AAD8CAD0E94CD30A394990CB7E0AB1235
:100CA000E4CFF7012082B394FFEFEF1AFF0A26E0AA
:100CB000B212D1CF0E94AD2C8091AD049091AE04C0
:100CC000892B31F18091AC019091AD010E949E2C55
:100CD0008C0188E0D6011D928A95E9F7B6018091D2
:100CE000AD049091AE040E94D11F8017910780F44B
:100CF0008091AD04BEE08B9FC0011124FC01E4563D
:100D0000FD4F208122FD04C089569D4F0E94692D10
:100D100080911D01882341F18091A6049091A70440
:100D2000009711F10E949E2C209100043091010443
:100D300028173907C8F49091A4048091A504981746
:100D400059F00E94B32E10920104109200041092E8
:100D5000A7041092A60408C00E94432E1092A70474
:100D60001092A6040E94932E80910402882309F415
:100D700093C080910302E0918002E695E81BE09326
:100D8000FF01823059F4F0E0EE5FFE4FE4910E2F48
:100D900010E094E2E92E9FE1F92E59C0863059F413
:100DA000F0E0E150FF4FE4910E2F10E084E1E82ED7
:100DB0008FE1F82E4CC0893061F4E695F0E0E45004
:100DC000FF4FE4910E2F10E0BAEAEB2EB3E2FB2EB8
:100DD0003EC08F3061F4E695F0E0E750FF4FE491BC
:100DE0000E2F10E0A2E4EA2EA3E2FA2E30C08531E5
:100DF00059F4F0E0EA50FF4FE4910E2F10E0F1EFCC
:100E0000EF2EF2E2FF2E23C08831A1F0833249F4A5
:100E1000E4EFF0E005911491EAEDEE2EEEE1FE2E06
:100E200016C0843271F000ED17E079EDE72E7EE117
:100E3000F72E0DC008E210E063E7E62E62E2F62E20
:100E400006C004EF11E058E3E52E52E2F52E809142
:100E50000002882361F0109200020E94B92C909346
:100E6000FE018093FD0110920202109201020E9485
:100E7000B92CE091FD01F091FE018E1B9F0B8F3F7D
:100E80009F4750F40E0F1F1F1093FE010093FD01AA
:100E90008DEF91E0F701099586E0E2EFF3E08E0136
:100EA0000F5F1F4FD80101900D928A95E1F71092C4
:100EB000F4031092F5031092F6031092F7038B815E
:100EC000811104C08C81882309F453C08091F00300
:100ED0009091F1030E949E2C9C019091EC03992328
:100EE00009F466C42531310508F443C09F3F19F069
:100EF0009F5F9093EC03FB80FF2061F00E94522BD8
:100F00001F1414F491E001C09FEF899F802D1124DC
:100F10008093F403FC80FF2061F00E94522B1F1489
:100F200014F491E001C09FEF899F802D11248093DC
:100F3000F5033091F4033323E1F02091F5032223EC
:100F4000C1F045EB3403C0011124992319F09093AB
:100F5000F40303C081E08093F40335EB2303C00165
:100F60001124992319F09093F50303C081E0809335
:100F7000F5038D81811104C08E81882309F453C04B
:100F80008091EE039091EF030E949E2C9C01909122
:100F9000EB03992309F411C42135310508F443C04A
:100FA0009F3F19F09F5F9093EB03FD80FF2061F05E
:100FB0000E94302B1F1414F491E001C09FEF899F11
:100FC000802D11248093F603FE80FF2061F00E94A3
:100FD000302B1F1414F491E001C09FEF899F802DE6
:100FE00011248093F7033091F6033323E1F020912D
:100FF000F7032223C1F045EB3403C00111249923E8
:1010000019F09093F60303C081E08093F60335EB6B
:101010002303C0011124992319F09093F70303C00F
:1010200081E08093F70346E050E0B80182EF93E05F
:101030000E94AA34892BA9F48091F40381110FC076
:101040008091F50381110BC08091F603811107C0D7
:1010500081E09091F703911103C080E001C081E02D
:1010600080FD0E94812A86E0F801A2EFB3E00190A2
:101070000D928A95E1F70E94422D9091AE01891759
:1010800021F08093AE010E94AD2C8091E00184306C
:1010900009F034CD83E08093E9008091E80082FF7D
:1010A0002DCD8091E80085FF21C00E94C1198111DA
:1010B0001BC040E2E42EF12C580109C08091F100E0
:1010C000D5018D935D01B1E0EB1AF10869F08091D3
:1010D000E80085FDF3CF8091E8008B778093E800EE
:1010E0000E94C119882399F391E001C090E080919A
:1010F000E8008B778093E800992309F4FFCCE09017
:10110000FA03F090FB038981E114F10461F08E3F52
:1011100009F0FEC28A81833008F4BBC18550833058
:1011200008F0F6C2B6C1893009F4EAC0D0F48430C0
:1011300009F46EC050F48230A1F108F05CC0813037
:1011400009F0E4C21A8289E026C2863009F472C02E
:1011500008F465C0873009F470C0883009F4AFC066
:10116000D5C2803109F432C180F48D3009F4D3C086
:1011700028F48C3009F0CAC280E146C28E3009F4EE
:10118000CDC08F3009F4F4C0C1C2823109F423C14B
:1011900008F41FC1833109F448C18E3F09F479C1B5
:1011A000B5C28A81823009F4FAC2833051F08130AD
:1011B00009F0ACC20E94AD2C9B838C837D836E832F
:1011C000A7C280911B0190911C01892B09F4A0C238
:1011D0008091B1018B838091B2018C838091B301A6
:1011E0008D838091B4018E838091B5018F8380912E
:1011F000B60188878DC28A81823009F087C26B81EF
:101200007C818D819E810E9459340E945A2180C226
:101210004C816B818A810E945F1F9D83C7C22D8193
:101220003E813227232732274C816B818A810E949D
:10123000381F6EC20E94DD2F6BC28A818138B1F0E7
:1012400050F4803809F064C220E04B816091820242
:101250008091810231C0823859F1833809F058C237
:1012600020E0409183026C818B8126C060E08B81FD
:101270000E94312A9B8180918002911111C08E7F42
:101280008093800210920402EFEFF0E722E0E15039
:10129000F0402040E1F700C000000E94D82138C291
:1012A00081608093800260E086950E94312A30C27E
:1012B0008B81809384022CC20E94672929C28A8173
:1012C000813899F030F4803809F022C2809183028D
:1012D00062C1823891F0833809F01AC2809181028C
:1012E0008B83809182028C8313C28091800280FF65
:1012F00002C0869550C180E04EC1809184024BC1EE
:1013000060918002709181028091820290918302AB
:101310000E947828FDC11A8289E93DC1EA80FB80DC
:10132000FE24EF24FE248C80912C3DE18316910451
:1013300008F0EEC15801C70189599C4F9501201B47
:10134000310B2815390508F0E3C149E9E416F10429
:1013500030F40E94AB33D50114968C9302C0F50192
:101360001482FFEFEF1AFF0A2FEFA21AB20AE3CF9F
:1013700080911B0190911C01892B09F4C9C1EA805D
:10138000FB80FE24EF24FE24AC80B12C3DE1A316AB
:10139000B10408F0BDC14801C70189599C4F9401AF
:1013A000201B310B2A153B0508F0B2C149E9E416B0
:1013B000F10428F4D40114966C910E94BF33BFEF5E
:1013C000EB1AFB0AEFEF8E1A9E0AE6CF0E94B02FAF
:1013D0009FC188E019C1EA80FB80FE24EF24FE242F
:1013E0008C80912CFDE18F16910408F091C1580179
:1013F000C70187969501201B310B2815390508F088
:1014000087C120EAE21622E0F20630F40E94AB33F4
:10141000D50114968C9302C0F5011482FFEFEF1AE8
:10142000FF0A2FEFA21AB20AE3CFEA80FB80FE2464
:10143000EF24FE24AC80B12C3DE1A316B10408F0EA
:1014400067C140EAE41642E0F40608F061C180EAB0
:1014500092E08E199F098A159B0508F459C148012D
:10146000C70187969401201B310B2A153B0508F014
:101470004FC1A0EAEA16A2E0FA0620F4F401648162
:101480000E94BF33FFEFEF1AFF0A2FEF821A920A72
:10149000E7CFEA818E2F90E08E30910508F038C1B9
:1014A000FC01EA5AFF4F0C94533488E0EEE1F1E07E
:1014B000DE01919601900D928A95E1F780E2D801C4
:1014C0001D928A95E9F785E0898388E0FE01B1964F
:1014D000DE011596F0C088E1898381E08A831B8252
:1014E0001C8216C18C8190E0982F88272B81820F57
:1014F000911D092E000CAA0BBB0B35E0880F991F1C
:10150000AA1FBB1F3A95D1F7AC01BD01405E5F4FEA
:101510006F4F7F4F481759076A077B0708F4F8C0D9
:101520008831E1E09E07A105B10508F0F1C049311D
:10153000F1E05F076105710520F048E151E060E0EE
:1015400070E0481B590BBC016A5F7E4FC8010E94C6
:101550009233DEC040E250E06FEF70E0C8010E94BD
:10156000B73480911B018983EA82D2C081E090E088
:101570009093FB038093FA0382E390E09093B00191
:101580008093AF010E94B92CC3C080911B01898355
:10159000EA828091AF018B83BBC040E250E06FEFE5
:1015A00070E0C8010E94B734B3C08B81823071F102
:1015B000E8F4882311F1813009F0AAC08C819AE007
:1015C000B92E7E01B1E2EB0EF11CF7012B2D119229
:1015D0002A95E9F7B7010E945B308983F701DE01A4
:1015E000129601900D92BA94E1F792C0833009F4FB
:1015F00045C0843009F464C08BC080E2D8011D92DC
:101600008A95E9F788E089838A8382C0FC808AE032
:10161000FE013596DE01919601900D928A95E1F7D3
:1016200089A19AA10E944A219AA389A38BA19CA176
:101630000E944A219CA38BA38DA19EA10E944A21B6
:101640009EA38DA38FA198A50E944A2198A78FA33E
:1016500037E03F1570F04AE0F49EB0011124695361
:101660007D4F4AE050E0CE0181960E94E33380E056
:1016700001C08FEF89830E94ED1F4AC06C81CE01AB
:1016800081962AE0DC011D922A95E9F7683060F422
:10169000BAE06B9FB0011124695E7C4F4AE050E0D4
:1016A0000E949B3380E001C08FEF89838AE0FE01B6
:1016B000B196DE01129601900D928A95E1F728C04D
:1016C000FC808AE0FE013596DE01919601900D9234
:1016D0008A95E1F789A59AA50E944A219AA789A728
:1016E000E7E0EF1570F0FAE0FF9EB0011124695EAB
:1016F0007C4F4AE050E0CE0181960E94E33380E0C7
:1017000001C08FEF89830E948D1F02C08FEF8983F4
:101710008091E001843009F0F1C98091E9008F7077
:101720002091EC00922F917020FD90E8F92EF82A7C
:1017300082E08093E9008091E80080FF0CC040E0E7
:1017400050E060E270E0C8010E94F4198091E80066
:101750008E778093E8008F2D8F708093E900CEC93B
:1017600009BD19BD09B400FEFDCF8091D8008F7D61
:101770008093D8008091E00082608093E0008091A7
:10178000E00081FDFCCF0E94021B9FEFA3ECB9E0BB
:101790009150A040B040E1F700C00000B8C986E217
:1017A00090E00E94AB331B821C821D828E83B0CFDF
:1017B0002B30310508F09CCBDCCB2B30310508F009
:1017C000F1CB31CCA4E0B0E0E8EEFBE00C945F3369
:1017D0007C01DC0113964D915C91149711966C91EC
:1017E00011978C910E94062E81110C942D1461E0AA
:1017F000C7010E949D308C01F70182818823E1F0AE
:101800008091AD049091AE040097B1F008171907CC
:1018100099F0FEE08F9FC0011124FC01E456FD4FBA
:1018200020812460208389569D4FDC010D931C93F9
:101830000E94692D1092AB04F7018281882309F47C
:1018400010C1C80182519F45409708F0B3C08FEF87
:1018500093E00E94AB338111F1C04EEED42ED00E36
:1018600007E613E0DD2071F00115F4E01F0709F42D
:10187000E5C0C8010E94AB33811101C0DA940F5F4B
:101880001F4FF0CF19821A821B821C82AA24AA94AD
:1018900068012FEFC21AD20AC8010E94AB338983B4
:1018A0001A82882309F4CAC0813009F07EC0480139
:1018B00082E0880E911CC6010E94AB33B82E8A8349
:1018C000882309F4BBC08FEF8B0D833060F468016F
:1018D00093E0C90ED11CC4010E94AB338B838111EC
:1018E00064C08601D5CF8BEF8B0D833078F538013E
:1018F000A3E06A0E711CC4010E94AB338B8381117B
:1019000002C06301EECF6801B4E0CB0ED11CC3016D
:101910000E94AB338C83882321F32B813C812130BF
:10192000EFEF3E0718F0922F80E001C0C901F6E00A
:10193000BF1631F027E0B21631F00E949E20D1CFC1
:101940000E947820CECF0E940520CBCF84E0B8162D
:1019500011F06401C6CFC4010E94AB33B82E6801F8
:1019600094E0C90ED11CC80103960E94AB33BB2082
:1019700009F464C0882309F461C0282F30E02150A5
:101980003109A29EA001A39E500D11248B2D90E041
:101990000197840F951F019708F4A3CFAFE9BFE02B
:1019A0001197F1F700C00000F6CFCE0101960E941A
:1019B000FA1497CF0031EFE51E0739F00131FFE54A
:1019C0001F0709F0A7C082E001C081E00E94F11A60
:1019D0000E94EE1433C0680127E5D21A8FEFC816B3
:1019E000D10409F008F44CC09FEFC916D10409F0E6
:1019F00008F497C0F70182818111E5C017FD0CC181
:101A0000033FBCE51B0709F4EFC108F0D8C1083D4E
:101A1000FCE51F0709F4E2C1093D2CE5120709F4B2
:101A2000F5C1073D8CE5180709F0F6C106E221EE85
:101A300041EE67ED7CE5C7010E94942D8091C303C0
:101A4000877009F40AC7D70112968C91882309F48C
:101A500004C78091BB0482FF00C782E00E949427E4
:101A6000FCC60031FFE51F0721F481E00E94E41A63
:101A7000AFCF01312FE5120709F0ADCF82E0F6CFED
:101A80006DE872E08C2D0E945B30892B09F0ACCFA1
:101A90008EE08C9DF0018D9DF00D1124E956FD4FD7
:101AA00082818130E1F480918D0290918E02892BA8
:101AB00009F49ACF80918F0290919002892B09F4BA
:101AC00093CF8091910290919202892B09F08CCF53
:101AD0008091930290919402892B59F085CF8230A6
:101AE00009F082CF8091910290919202892B09F4A2
:101AF0007BCF2EE02C9DC0012D9D900D1124FC016B
:101B0000E456FD4F20812E7F208389569D4F0E94F1
:101B1000692D6ACFC80197558F3F910511F008F0E4
:101B200052C05801BB24AEE00A9FF0011124CF013E
:101B300089569D4F6C01D70112969C911297E456DD
:101B4000FD4F808190FB80F9808312969C919923B0
:101B5000A1F10E94B92C9093AD018093AC01F601E4
:101B600082818F5F82839091AB048091AC04892B3A
:101B700083838091E60384830680F781E02D30978C
:101B800039F0D6011C966D917C911D97C60109957F
:101B90008EE08A9DF0018B9DF00D1124E456FD4FDF
:101BA000808181FF03C090E080E002C0902F812FF0
:101BB0009093AD048093AE041DCF81FF1BCFC6016F
:101BC0000E944F2D17CF033EFCE51F07D9F058F4B4
:101BD000013E8CE5180799F0023E9CE5190709F0D3
:101BE0000DCF81E014C0053EACE51A0779F060F036
:101BF000003BEDE51E0709F001CF85E008C010921B
:101C0000FC0307C082E003C083E001C084E080934E
:101C1000FC030E94A92FF2CED70112968C91882343
:101C200009F4EECE0E94422D869581708093B90111
:101C30000E94422D81708093B8018091FC03813015
:101C400039F48091B901882319F089E30E94141CAA
:101C50008091AC048093B7011092AC041092AB0455
:101C60008091FC03823019F148F48823E1F081303F
:101C7000C9F560E070E088E193E032C0843049F15A
:101C8000853081F560E070E08BE191E00E944133A6
:101C900060E070E085E290E00E94413360E070E037
:101CA00088E290E01DC082EE0E946F1B1BC08091F5
:101CB000B801811103C083E50E94141C82EE0E94CA
:101CC0006F1BEFE3FCE93197F1F700C0000087E5F7
:101CD00004C086EE0E94141C88E10E94141C02C0FD
:101CE0000E9441338FE39CE90197F1F700C00000A7
:101CF0005801E894B7F82CE0C22ED12C3AE0832E9C
:101D0000912CC5010C2C02C0969587950A94E2F798
:101D10008F709091FC03923069F48A3038F490E02F
:101D20000996B4010E941D34875A01C086500E9452
:101D3000141C09C096EF980F963010F0805D01C01A
:101D4000895A0E944C2F94E0C91AD108ACEFCA16E8
:101D5000AFEFDA06B1F68091FC038230F1F028F49F
:101D6000882371F0813081F025C0843009F18530FD
:101D700009F560E070E088E290E00E9441331AC00B
:101D800082EE0E943A1B16C08CE20E94141C8091C5
:101D9000B901882379F089E308C082EE0E943A1BDA
:101DA0008091B801811106C083E50E94141C02C015
:101DB00088E2FBCF8091B7018093AC0421CE053F30
:101DC0009CE51907E9F0B0F0063FBCE51B0721F5DB
:101DD00007E225EE46EE66EF7CE52DCE07E225EE26
:101DE00045EE68ED7CE527CE06E221EE40EE63EF9E
:101DF0007CE521CE07E225EE44EE64EF7CE51BCEC8
:101E000006E221EE42EE65EF7CE515CE08E221E028
:101E100045EE69ED7CE50FCEF7018281882309F458
:101E200029C41092AA040330FDE51F0758F40A3FA5
:101E30002CE51207C0F4C80182509C45449708F075
:101E40006AC111C0053A8DE5180769F030F4013612
:101E5000ADE51A0709F05FC106C0C8018D5A9D455E
:101E6000039708F058C10E9486269093BB04809384
:101E7000BA040231BCE51B0709F40CC108F04DC0DF
:101E80000930FCE51F0709F4D9C008F505308CE5D9
:101E9000180709F4C0C080F40330ACE51A0709F450
:101EA000B1C008F0B5C00230ECE51E0709F02AC148
:101EB0008091BA048160A9C00730FCE51F0709F4CE
:101EC000B5C008F0B7C08091BA0480619EC00D30E3
:101ED0008CE5180709F4C8C058F40B30ACE51A07B4
:101EE00009F4B6C008F0BCC08091BA048860ACC0E8
:101EF0000F30ECE51E0709F4C5C008F4B8C0003186
:101F00002CE5120709F4C2C001318CE5180709F06D
:101F1000F9C08091BA048F7B78C00F3F9CE5190708
:101F200009F4C3C098F50A3FBCE51B0709F477C064
:101F3000C0F40431FCE51F0709F4C6C008F4B0C0C2
:101F400005318CE5180709F0DDC08091BA0482FBE9
:101F5000222720F991E0922790FB82F990FB83F9E8
:101F600054C00C3F9CE5190709F485C008F45AC019
:101F70000D3FBCE51B0709F481C00E3FECE51E07D1
:101F800009F0C0C08091BB04826060C00136FDE5ED
:101F90001F0709F4ABC070F401308DE5180709F490
:101FA0009FC008F487C00230ADE51A0709F0AAC047
:101FB00060E097C00D3ABDE51B0701F160F4053AFA
:101FC000FDE51F0709F09EC08091BA04982F9095F7
:101FD00090FB80F91AC00E3A2DE51207E9F10F3A8D
:101FE0008DE5180709F08EC08091BB0483FB222782
:101FF00020F991E0922790FB83F982C08091BB0485
:1020000088607EC08091BA0482608093BA047AC0EE
:102010008091BA0419C08091BA048860F6CF80918B
:10202000BB0414C08091BB0482606AC08091BA0472
:102030008062EBCF8091BA048064E7CF0E94021BDC
:102040008091BA048068E1CF8460DFCF816058C09E
:102050008091BA048E7FD9CF8091BB04877F50C016
:102060008091BA048D7FD1CF8091BA041CC0809139
:10207000BA04877FCACF8091BB041AC08091BB0489
:102080008D7F3EC08091BA048F7EBFCF8091BA040D
:102090008F7DBBCF0E94021B8091BA048F77B5CF92
:1020A0008091BA04877F8B7FB0CF8091BB048D7FF6
:1020B0008E7F26C08091BB04982F909591708E7F63
:1020C000892B90FB81F91CC00E94021B8091BA04ED
:1020D00087FB222720F991E0922790FB87F995CF83
:1020E00061E08EE090E00E94BF330CC08091BA04A2
:1020F00084FB222720F991E0922790FB84F985CF79
:102100008093BB048091BA049091BB040E9478260E
:102110000E94021B93CC0A358DE5180711F481E06B
:1021200011C00B359DE5190708F481C20C35EDE5AA
:102130001E0709F098C28091BB0482FB882780F9B2
:1021400091E089270E94B12705C0073A2DE51207C3
:1021500009F486C2F701868197810097B9F4F701E7
:10216000828100811181882349F0C8010E943A1AB6
:10217000D82E682FC8010E94AA1A04C0C8010E9464
:10218000761AD82EB8018D2D0E94C02F0E94DC2413
:102190008C01D7011296DC9012971596CC90C294C0
:1021A0009FE0C9228091C3038770B9F0DD20A9F0B8
:1021B000812F807F803421F080E2800F883068F0AA
:1021C0008091BB0482FF09C082E00E949427809125
:1021D000C3038770BB24B3948111B12CA12EA294A8
:1021E0008FE0A8228A2D90E08C30910508F0FAC18A
:1021F000FC01EC59FF4F0C945334812F807F1F70EA
:10220000882311F01295107FDD20B9F0112309F415
:10221000D6C180E2800F883010F0011106C0909185
:10222000AC04192B1093AC0405C09091AB04192B8E
:102230001093AB040E942727C2C1802F0E943A1B33
:10224000112309F4CFC180E2800F883060F10023B0
:1022500051F1812F0E94192729C0812F807F1F7083
:10226000803211F01295107F002321F0013009F423
:102270006BC076C08091BB0482FD1BC0DD2069F07D
:10228000112339F09091AC04192B1093AC040E94E7
:10229000272780E00E946F1BA5C180E00E943A1BA7
:1022A000112309F49FC1812F0E9420270E94272714
:1022B00099C1DD2049F1CC2009F1B1E0CB120FC06A
:1022C0008091E603182B181709F48CC10E94B92CD1
:1022D0009093E5038093E4031093E60383C1E5E064
:1022E000CE120CC00E940E279091BA01812F892B2B
:1022F000891709F442C08093BA013FC08091E60378
:10230000812B0E94301B6EC1CC20C1F0F1E0CF12B6
:1023100011C08091AC04812309F464C10E940E278E
:102320009091BA01812F80958923891749F0809374
:10233000BA0106C025E0C21609F454C10E940E2756
:10234000812F0E94291B4EC1DD2029F085E08C15CC
:1023500008F448C112C094E09C1508F443C1F0CFC2
:10236000DD2069F0CC2049F0D70115968C911597A6
:1023700080FF25C18F7015968C93812FC2CFC1101D
:1023800023C1DECF812F86958695837019F0813029
:1023900059F028C1DD2019F0C801937002C080E017
:1023A00090E00E942C2D24C1DD2019F0C80193700B
:1023B00002C080E090E00E94162D1AC1802FDD201F
:1023C00019F00E94722B02C00E94AB2A0E94812A3F
:1023D0000FC1812F8370A9F5D11008C1402F4295FC
:1023E00046954770440F440F802F8F7090E09C01FA
:1023F000042E01C0220F0A94EAF704FF08C08FE000
:1024000090E001C0880F4A95EAF7809501C080E00E
:10241000169516951370123069F088F49091E703C1
:10242000113019F0822B892302C0922B892B0E9434
:10243000FD1ADCC0822B9091E7038927F8CF822B0D
:10244000F6CFDD2019F0812F817001C08695882399
:1024500009F4CCC0402F429546954770440F440F75
:10246000802F8F7090E09C01042E01C0220F0A94EF
:10247000EAF704FF08C08FE090E001C0880F4A959A
:10248000EAF7809501C080E016951695137012301A
:1024900059F078F49091EA01113019F0822B8923D8
:1024A00009C0922B892B06C0822B9091EA018927C3
:1024B00001C0822B0E94DF1A99C01F70DD2039F005
:1024C000812F0E94F11A802F0E94301B8FC0802F15
:1024D0000E94291B812F0E94E41A88C0023F69F1E3
:1024E00028F4003F41F0013F09F164C0033F61F16E
:1024F000043FC1F05FC0DD2081F024E02C1508F41A
:1025000071C01F7181E090E0012E01C0880F0A9414
:10251000EAF79091EA01892722C085E08C1508F43A
:1025200061C0EFCF8091BB0482FD1CC0DD2039F07B
:10253000812F8F710E94F11A55C0DD20C9F3812FC0
:102540008F710E94E41A4EC0DD2041F01F7181E0BE
:10255000012E01C0880F0A94EAF701C080E00E94B2
:10256000DF1A40C0DD20B9F08091C303877084304A
:1025700039F40E948D27812F8F710E94E41A55C073
:1025800094E09C1508F451C01F71812F0E94F11A2C
:1025900063E0812F08C0A4E0AC1540F40E948D27B1
:1025A00064E0812F8F710E94C6273FC081E00E94A6
:1025B00094273BC0DD2029F0CC2009F4B9CF802F2F
:1025C00069CECC2009F4BBCF093349F4BFEFE7EE65
:1025D000F3E0B150E040F040E1F700C00000802F90
:1025E0000E943A1B88EF8A0D843010F40E94422D1D
:1025F000BB20B1F08091C30380FD12C0D7011296B9
:102600001C928595859585950E94F11AC7010E94B7
:10261000E20B8091C3038595859585950E94E41A08
:1026200060E0C7010E949D3018C1B12CDFCF0115B9
:10263000ACE51A0771F40E94021BEFEFF4E32CE003
:10264000E150F0402040E1F700C000000E94672CFC
:10265000F5C90E3DBCE51B0709F07CCD0E94A32601
:102660000E94F732EBC90C35FDE51F0708F06DCD70
:1026700080E068CD8091AC0482720C3C9CE5190727
:1026800039F44DE958E26BE878E20E94BB21D6C9E3
:102690000D3CACE51A0708F095C0063CBCE51B07ED
:1026A00029F447E25AE26DE17AE2EFCF073CECE52C
:1026B0001E0708F054C0033CFCE51F0729F44CE654
:1026C0005AE266E77AE2E1CF043C2CE51207A0F576
:1026D000023C8CE5180709F03DCD8091800280FF17
:1026E0001BC08E7F80938002609180027091810276
:1026F00080918202909183020E94782810920402B5
:102700009FEFA0E7B2E09150A040B040E1F700C0D9
:1027100000000E94D82192C981608093800261E00C
:10272000869507C00E3C2CE5120708F060C061E0FA
:1027300081E00E94312A82C9043C9CE5190729F4F2
:1027400046E75AE26CE67AE2A0CF053CACE51A0710
:1027500009F000CD4DE15AE267E27AE296CF093CFA
:10276000BCE51B0729F449EE59E266EF79E28DCF0B
:102770000A3CECE51E0798F4073CFCE51F0729F42A
:1027800043E05AE260E17AE280CF083C2CE5120790
:1027900009F0E0CC40E15AE263E07AE276CF0A3C0D
:1027A0009CE5190729F446EF59E269EE79E26DCF0D
:1027B0000B3CACE51A0709F0CDCC4BE858E26DE9CB
:1027C00078E263CF013DBCE51B0719F464E18FE0BB
:1027D0000BC0023DECE51E07C8F40E3CFCE51F07EC
:1027E00009F0A0CF65E082E00E94A72127C90F3C35
:1027F0008CE5180719F468E086E0F6CF003D9CE50B
:10280000190709F0A7CC6EE089E0EECF043DACE5F6
:102810001A0719F462E289E1E7CF053DBCE51B0721
:1028200078F4023DECE51E0719F467E185E1DCCFA1
:10283000033DFCE51F0709F08DCC61E088E179CF0D
:10284000053D2CE5120719F461E083E272CF0D35E6
:102850008DE5180709F4F2C87DCC2496EEE00C94BF
:102860007B338091E20187FF11C08091E80082FDF7
:1028700005C08091E0018111F8CF11C08091E8007E
:102880008B770BC08091E001882349F08091E800AC
:1028900080FFF8CF8091E8008E778093E80008955C
:1028A000982F973068F59093E900981739F0709158
:1028B000EC002091ED005091F00003C0242F762F02
:1028C00050E021FD02C09F5FECCF3091EB003E7FD6
:1028D0003093EB003091ED003D7F3093ED0030916F
:1028E000EB0031603093EB007093EC002093ED002F
:1028F0005093F0002091EE0027FDE5CF80E0089591
:102900008F708093E90081E008952091E801309173
:10291000E9012617370748F06115710539F4209150
:10292000E8002E772093E80001C0B901FC0120E007
:102930006115710579F18091E0018823F1F185300D
:10294000F1F18091E80083FD3CC08091E80082FDB8
:102950002EC08091E80080FFEBCF2091F3008091A2
:10296000F20090E0922B6115710551F088309105CD
:1029700038F421912093F100615071090196F3CF51
:1029800021E0089709F020E08091E8008E7780939D
:10299000E800CECF2111CFCF0AC08091E00188237B
:1029A00061F0853061F08091E80083FD0AC080917C
:1029B000E80082FFF2CF80E0089582E0089583E08E
:1029C000089581E008950895BC0184E00E943D2CA3
:1029D0000895BC0183E00E943D2C08958091EA0196
:1029E000982F9670963011F4886001C0877F0E94FE
:1029F000DF1A0895EF92FF921F93CF93DF93EC01BC
:102A00001AE08881882309F44AC0813009F043C064
:102A10008981813041F47E0182E0E80EF11C8A81D7
:102A20000E94141C09C0823049F47E01E2E0EE0EDF
:102A3000F11C8A810E946F1BE7012FC0833041F493
:102A40007E01F2E0EF0EF11C8A810E943A1BF4CF66
:102A5000843011F0219621C02A81229680E090E0F6
:102A600030E0205331092A30310558F4189FA00175
:102A7000199F500D1124C901840F951F219628819B
:102A8000EFCF009751F0EFE9FFE03197F1F700C089
:102A900000000197F6CF0E944C2F2196B2CFDF9114
:102AA000CF911F91FF90EF900895AAE2B0E0EBE57F
:102AB000F5E10C946A33E2EEF1E08AEE91E02091C8
:102AC000F10021938E179F07D1F78091E3018330A6
:102AD00009F463C030F4813071F0823009F49DC094
:102AE000B4C08A3009F489C08B3009F46EC08930D3
:102AF00009F0ABC020C08091E201813A09F0A5C085
:102B00008091E800877F8093E8008091E6019091B2
:102B1000E701892B21F460E28EEB91E003C060E0D5
:102B200080E090E070E00E9485148091E8008B774F
:102B30008093E8008AC08091E201813209F085C06B
:102B40008091E6019091E701009719F0029709F052
:102B50007CC08091E800877F8093E8008091E80046
:102B600082FD05C08091E0018111F8CF6EC02091F7
:102B7000F3008091F20090E0922B029731F4809163
:102B8000F100813011F0863021F48091F1008093C2
:102B9000BD018091E8008B7754C08091E201813AB9
:102BA00009F053C08091E6019091E701892B09F06B
:102BB0004CC08091E800877F8093E8008091E80016
:102BC00080FFFCCF80910C0137C08091E2018132FF
:102BD000E1F58091E6019091E701892BB1F58091B3
:102BE000E800877F8093E8000E9431148091E4011F
:102BF00080930C010E94021B28C08091E201813267
:102C000021F58091E800877F8093E8000E943114CD
:102C10008091E5018093BC0118C08091E201813A66
:102C2000A1F48091E800877F8093E8008091E8001C
:102C300080FFFCCF8091BC018093F1008091E8007F
:102C40008E778093E8000E9431148091E80083FF22
:102C5000EBC18091E2019091E301492F50E04A30AD
:102C6000510508F0E1C1FA01E059FF4F0C945334CB
:102C7000803821F0823809F0D7C108C08091DE0188
:102C80009091DF01992389F082600FC08091E60165
:102C90008F70873008F0C8C18093E9008091EB0005
:102CA00085FB882780F91092E9009091E800977FD2
:102CB0009093E8008093F1001092F1007CC1282FDE
:102CC0002D7F09F0B1C1882319F0823061F0ACC1C9
:102CD0008091E401813009F0A7C1933009F080E0D0
:102CE0008093DF012EC08091E40181112AC0809180
:102CF000E6018F702FEF280F263008F095C18093E2
:102D0000E9002091EB0020FF1CC0933021F480915A
:102D1000EB00806214C09091EB0090619093EB0007
:102D200021E030E0A90102C0440F551F8A95E2F767
:102D30004093EA001092EA008091EB008860809353
:102D4000EB001092E9008091E800877F8093E80013
:102D50000E94311469C1811167C11091E4011F778C
:102D60008091E3008078812B8093E3008091E800DC
:102D7000877F8093E8000E9431148091E80080FFF3
:102D8000FCCF8091E30080688093E300111102C0C2
:102D900082E001C083E08093E00146C18058823028
:102DA00008F042C12091E4013091E5012C3D53E04F
:102DB000350779F583E08A838AE289834FB7F894EF
:102DC000DE01139620E03EE051E2E32FF0E0509365
:102DD0005700E49120FF03C0E295EF703F5FEF7072
:102DE0008E2F90E0EA3010F0C79601C0C0968D9308
:102DF0009D932F5F243149F74FBF8091E800877F73
:102E00008093E8006AE270E0CE0101960E9485148A
:102E1000C0C08091E6019091E701432F55274330D0
:102E20005105B1F068F44130510509F40CC142304C
:102E3000510509F0F9C08BE590E0ECE3F3E057C0F1
:102E40004132510589F14232510509F43CC0ECC0D0
:102E5000C901992781309105B9F070F08230910550
:102E6000D9F0039709F0E0C0E9EAF3E0E4918E2F8E
:102E700090E0E9EAF3E038C0E9EFF3E0E4918E2F67
:102E800090E0E9EFF3E030C0E9EEF3E0E4918E2F5B
:102E900090E0E9EEF3E028C0E7ECF3E0E4918E2F58
:102EA00090E0E7ECF3E020C08330910508F0BCC06F
:102EB000880F991FFC01E45CFE4F0190F081E02D2A
:102EC00089E090E014C08330910508F0ADC0FC01AA
:102ED000EE0FFF1FEA5CFE4F0190F081E02DDC0158
:102EE000AD5CBE4F8C9190E0009709F49DC020919D
:102EF000E800277F2093E8002091E8013091E90164
:102F00002817390708F4C90140E0009789F120919A
:102F1000E001222309F43DC02530D9F12091E800D9
:102F200023FD37C02091E80022FD2FC02091E8004A
:102F300020FFEBCF4091F3002091F20030E0342BE2
:102F4000009759F02830310540F444914093F10046
:102F5000319601972F5F3F4FF3CF41E02830310585
:102F600009F040E02091E8002E772093E800CDCFD3
:102F70004111CDCF0AC08091E001882351F0853006
:102F800041F08091E80083FD04C08091E80082FF59
:102F9000F2CF8091E8008B778093E80045C08038BD
:102FA00009F042C08091E800877F8093E80080911B
:102FB000E1018093F1008091E8008E77C7CE811106
:102FC00033C08091E4019091E5019927029764F55F
:102FD0008091E800877F8093E8001091E4011093CE
:102FE000E1010E943114111106C08091E30087FDB8
:102FF00002C081E001C084E08093E00142E061EC26
:1030000081E00E94501442E261EC84E00E9450147E
:1030100042E261EC82E00E94501442E260EC83E004
:103020000E9450148091E0018091E80083FF10C05D
:103030008091E800877F8093E8008091EB008062B8
:103040008093EB0005C082E190E0E7E9F3E04FCF29
:10305000AA96E3E00C9486331F920F920FB60F925C
:1030600011242F933F934F935F936F937F938F938D
:103070009F93AF93BF93CF93DF93EF93FF93C09151
:10308000E900CF708091EC00D82FD17080FDD0E89E
:103090001092E9008091F000877F8093F00078948F
:1030A0000E9455151092E9008091F000886080938D
:1030B000F000CD2BCF70C093E900FF91EF91DF912D
:1030C000CF91BF91AF919F918F917F916F915F91C0
:1030D0004F913F912F910F900FBE0F901F90189519
:1030E000E8EDF0E080818E7F80831092E200109204
:1030F000DA001092E100A0EEB0E08C9181608C9338
:1031000080818F77808319BCA7EDB0E08C918E7F92
:103110008C9380818F7E80831092BB010895A0E004
:10312000B0E0E5E9F8E10C946533C8EDD0E08881C2
:103130008F7E8883E7EDF0E080818160808384E08A
:1031400082BF81E08093BB0188818E7F888302EEFD
:1031500010E0F80110821092DA0081EEC82ED12C16
:10316000F601108288818F778883888180688883C0
:1031700088818F7D888319BC1092E0011092E10153
:103180001092DF011092DE0190EEE92EF12CF70192
:1031900080818B7F808388818160888342E060E0CA
:1031A00080E00E945014F60180818E7F8083F801B8
:1031B000808181608083808188608083F701808145
:1031C0008E7F8083888180618883CDB7DEB7E8E019
:1031D0000C9481331F920F920FB60F9211242F93EC
:1031E0003F934F935F936F937F938F939F93AF938F
:1031F000BF93EF93FF938091E10082FF09C080911C
:10320000E20082FF05C08091E1008B7F8093E100A6
:103210008091DA0080FF2AC08091D80080FF26C00C
:103220008091DA008E7F8093DA008091D90080FF50
:1032300018C080E189BD82E189BD09B400FEFDCFDF
:1032400081E08093E0018091BB0181110FC00E9459
:1032500070180E948F188091E20084608093E200D1
:1032600005C019BC1092E0011092BB018091E100F1
:1032700080FF17C08091E20080FF13C08091E200C0
:103280008E7F8093E2008091E20080618093E20073
:103290008091D80080628093D80019BC85E080932B
:1032A000E0018091E10084FF30C08091E20084FF62
:1032B0002CC080E189BD82E189BD09B400FEFDCF4B
:1032C0008091D8008F7D8093D8008091E1008F7E1F
:1032D0008093E1008091E2008F7E8093E2008091F4
:1032E000E20081608093E2008091E101882311F087
:1032F00084E007C08091E30087FD02C081E001C047
:1033000083E08093E0018091E0018091E10083FF00
:1033100027C08091E20083FF23C08091E100877F76
:103320008093E10082E08093E0011092E1018091BE
:10333000E1008E7F8093E1008091E2008E7F809398
:10334000E2008091E20080618093E20042E060E070
:1033500080E00E9450148091F00088608093F0001B
:10336000FF91EF91BF91AF919F918F917F916F915D
:103370005F914F913F912F910F900FBE0F901F9033
:1033800018952091E4003091E50095E64091EC001D
:10339000842F817040FF23C08091E80080FD1DC014
:1033A0008091E001882399F0853099F08091EB00BD
:1033B00085FD11C04091E4005091E50024173507C8
:1033C00029F3915011F09A01E1CF84E0089582E051
:1033D000089583E0089581E0089580E00895409184
:1033E000E80042FFDDCF0895EF92FF920F931F9305
:1033F000CF93DF937C018B010E94C119811119C009
:10340000E70101151105A1F08091E80085FD0AC0D2
:103410008091E8008E778093E8000E94C11988238C
:1034200081F307C089918093F10001501109E9CF20
:1034300080E0CDB7DEB7E6E00C94833380E090E027
:103440000E942C2D80E090E00E94162D1092AB047B
:103450000E942727E2EFF3E086E0DF011D928A95C4
:10346000E9F71092EC031092EB031092ED030E9427
:10347000812A0895CF92DF92FF920F931F93CF93EB
:10348000DF936C010091EA018091E703082BC7E00C
:10349000D0E010E0C8010C2E02C0959587950A94E3
:1034A000E2F780FD04C02197A8F7F12C09C0FC2E9B
:1034B000B6018C2F0E94C02F0E94DC24019799F343
:1034C0008F2DDF91CF911F910F91FF90DF90CF90C3
:1034D0000895CF93DF93EC010E943A1ABE010E9437
:1034E000C02F0E94DC24DF91CF910895292F9630C0
:1034F00078F5873068F590E037E0239F800D911DC7
:103500001124682F677023E0969587952A95E1F737
:10351000FC01EE0FFF1FE80FF91FE551FE4F40E0E1
:1035200050E080E0219130E0062E02C036952795CC
:103530000A94E2F721703327042E01C0220F0A9467
:10354000EAF7822B4F5F5F4F4330510559F70895DB
:1035500080E00895292F963088F5873078F590E03F
:1035600037E0239F800D911D1124282F277051E0F3
:1035700001C0550F2A95EAF723E0969587952A957D
:10358000E1F7FC01EE0FFF1FE80FF91FE551FE4FB9
:1035900020E030E070E04081CB01022E02C0969521
:1035A00087950A94E2F78170819584278523842783
:1035B00081932F5F3F4F2330310569F70895809342
:1035C000EA010E941E1A089521E030E001C0220F96
:1035D0008A95EAF720958091EA0182230E94DF1AFA
:1035E000089521E030E001C0220F8A95EAF780912A
:1035F000EA01822B0E94DF1A08958093E7030E945C
:103600001E1A08951092AC0480910C01882331F0A9
:103610008091BA0487FF02C08EE101C086E0E9E52F
:10362000F3E0DF011D928A95E9F70E941E1A0895C2
:10363000882321F00E9419270E94272708958823B4
:1036400039F09091AB04892B8093AB040E9427271B
:103650000895882321F00E9420270E94272708959B
:10366000882339F09091AC04892B8093AC040E949C
:1036700027270895882391F19CEF980F913A30F411
:10368000682F87E593E00E94EE2C0DC090E2980F22
:10369000983060F4877091E001C0990F8A95EAF73D
:1036A000892F0E9420270E94272708959BE5980FC5
:1036B000933028F480E090E00E942C2D089598E546
:1036C000980F973128F480E090E00E94162D08951D
:1036D000803F20F00E94AB2A0E94812A0895CF9358
:1036E000882309F49FC0C82F8CEF8C0F813A08F013
:1036F0005BC080910C018823E1F08091BA0487FFC0
:1037000018C0EC2FE695E695E695F0E0E95AFC4FF7
:103710008281282F30E04C2F477081E090E002C07A
:10372000880F991F4A95E2F782239323892B59F436
:1037300011C0E9E5F3E08191C81729F083E0EF3586
:10374000F807C9F707C06C2F87E593E00E94EE2CBD
:103750000E94272780910C018823B1F08091BA0440
:1037600087FF12C0EC2FE695E695E695F0E0E95A62
:10377000FC4FC77081E090E001C0880FCA95EAF75E
:103780009281892B828320C0A9E5B3E0EFEF80E02E
:103790009D91C917C9F0EF3F19F4911101C0E82FAD
:1037A0008F5F8630A9F735C080E28C0F883078F4BF
:1037B000C77081E090E001C0880FCA95EAF7909148
:1037C000AC04892B8093AC040E9427272BC0EBE527
:1037D000EC0FE33040F4F0E0EE5BFE4F808190E0D0
:1037E0000E942C2D1FC0E8E5EC0FE73150F4F0E00B
:1037F000EE0FFF1FEB5BFE4F808191810E94162D23
:1038000011C0C03F78F08C2F0E94722B0E94812A39
:1038100009C0EF3FC9F20E2E000CFF0BE95AFC4F16
:10382000C283D2CFCF9108951F93CF93DF93182FE8
:10383000893319F0C0E0D0E002C0C0E5D0E0812FAC
:103840000E946F1B209741F08FE99FE00197F1F7ED
:1038500000C000002197F6CF812F0E943A1BDF9114
:10386000CF911F9108950F931F93CF938C01FC016B
:1038700043815481618180810E94062EC82F81116D
:1038800025C0F80186819781009719F00E94DC24F9
:1038900005C0F801808191810E94691A92959F70FC
:1038A000963079F010F4925001C09A50923088F41A
:1038B000803F71F018F4883E60F40AC0843F49F4F8
:1038C00007C0883E28F0813F21F402C0C0E001C05B
:1038D000C1E08C2FCF911F910F910895A5E1B0E029
:1038E000E4E7FCE10C945D338C0185E0F801DE0136
:1038F000519601900D928A95E1F7F801E28047E731
:10390000A42E43E0B42E80907A0390907B03A40110
:1039100060917803809177030E94062E682E8111B2
:1039200090C1F801C380D480F0907903C601881952
:1039300099094C01FF2009F41CC14080518060E0CE
:10394000C5010E949D30B5010E94D11F70907C037B
:103950008816990608F0CAC040917A0350917B03FB
:10396000B0907703A0907803872D807F6A2D09F0AF
:103970005DC08B2D0E94062E811121C0F80181812E
:103980008A111DC080818B111AC020917D03309156
:103990007E03868197812817390789F4FE2CE11070
:1039A0000EC0872D8F70806180937C0387E793E042
:1039B0000E94E20B80917C03F80185837FC1A60100
:1039C000652D842D0E94062E811103C081E08E2575
:1039D00002C080E090E0F82FF170FF2E80FF1CC045
:1039E0008091C00320917F03821709F445C190E0C4
:1039F000FC0133E0EE0FFF1F3A95E1F7E058FC4F72
:103A00003181531206C03081431203C03281E31268
:103A100003C001968770E8CFFE2CEE2009F44EC15A
:103A200080917C03816080937C036CC08B2D0E940D
:103A3000062E811114C0F80181818A1110C0808185
:103A40008B110DC020917D0330917E03868197817B
:103A50002817390721F4E11002C07582D2C0C801CD
:103A60000E94331C8823E1F1EE20D1F120917C03E8
:103A7000822F82958F7090E00297A4F08091770357
:103A8000909178039A8789871B86DD86CC862E875E
:103A900080917D0390917E03988B8F87CE0109964C
:103AA0000E94E20B88E0F801A7E7B3E001900D92D5
:103AB0008A95E1F70E94E72716C0909077038090DF
:103AC000780340917A0350917B03682D892D0E94E1
:103AD000062E8823C9F0C8010E94331C81112BC017
:103AE000C8010E94E20BFF24F394E8C0872D807F79
:103AF00021F787E793E00E94E20B88E0F50111923D
:103B00008A95E9F7F12CDAC0F80181818811E3CFB9
:103B100080818911E0CF20917D0330917E038681E1
:103B2000978128173907B9F6E110D5CF7582C801FA
:103B30000E94E20B80C0EE2099F220917C03822F3C
:103B400082958F7090E002970CF4ACCF8091770350
:103B5000909178039A8389831B82DD82CC822E83A5
:103B600080917D0390917E0398878F83CE0101968B
:103B700097CF60E087E793E00E949D3067E773E0AE
:103B80000E94D11F8816990608F055C0FE2CEE2021
:103B900009F4A6CFE0907703D090780340917A03A0
:103BA00050917B036D2D8E2D0E94062E811135C004
:103BB000F80181818D1131C080818E112EC020913C
:103BC0007D0330917E03868197812817390729F577
:103BD00080917C0380FD18C082958F70482F50E043
:103BE0004115510589F020917C0325834F30510503
:103BF00041F08F5F982F9295907F822F8F70892B45
:103C00008583C8010E94E20B88E0F801A7E7B3E0D2
:103C100001900D928A95E1F751C0C8010E94331CB2
:103C2000811140CF80917C03816080937C03C80127
:103C30000E94E20B43C088E0F50111928A95E9F7F2
:103C40003DC0EE2009F44CCFC8010E94331CF82E71
:103C5000882309F445CF88E0F801A7E7B3E0019095
:103C60000D928A95E1F780917703909178030E94F5
:103C7000691A0E94E72722C0498A5A8A89899A8943
:103C80000E94691A292F22952F70223028F49F70E4
:103C900039F0811105C00BC0243028F49F7049F41D
:103CA000805E883020F0C8010E94E20B6F2CF62C59
:103CB00005C0F8019581907F99F7F9CF8F2D659612
:103CC000E0E10C947933A0E1B0E0E9E6FEE10C9488
:103CD000673329873A874B875C876D877E878F8715
:103CE000988BCE0109960E946E1C81114AC088E013
:103CF000FE013996DE01119601900D928A95E1F749
:103D0000E984FA840C851D85A8016F2D8E2D0E94F3
:103D1000062E811136C0A0917F03B0E0CD0101963F
:103D2000877099272091C00330E08217930781F1B3
:103D3000E982FA821D830C8393E0AA0FBB1F9A9538
:103D4000E1F7A058BC4F98E0FE01319601900D922A
:103D50009A95E1F780937F030E94DD2712C028E047
:103D6000829FC001112480589C4F0E946E1C8823A2
:103D7000E1F08091C00390E00196877099278093CD
:103D8000C0038091C00390917F038913E8CF0DC0D9
:103D90000E94021B10927F031092C003E7E7F3E03A
:103DA00088E0DF011D928A95E9F76096E6E00C94C1
:103DB00083330895A3E0B0E0E0EEFEE10C946933B4
:103DC0008C018091070281110AC09E012F5F3F4F35
:103DD00040E56FEF0E94C0288A8180930702F801B6
:103DE0008481813051F028F0823061F440910702E3
:103DF0000AC08091070240E007C06091070240E0DE
:103E000080E003C040E080E060E00E944D28F801BF
:103E1000848190E0019663E070E00E941D34848309
:103E20002396E4E00C948533CF93DF93EC01E0E834
:103E3000F2E0438162818C810E944C298C818F5FEA
:103E40008C83DF91CF910895CF93DF93EC01EC81C8
:103E5000F0E0EB5DFB4F4491E0E8F2E062818181AC
:103E60000E944C298C818F5F8C83DF91CF910895C4
:103E70001F93CF93DF93962F8830E8F46630D8F401
:103E80004730C8F4632F122FC42FD0E0CC0FDD1FB2
:103E90002EE0929FC00DD11D112494E5899FC00D85
:103EA000D11D1124CE0187960E94BF33612FCE0110
:103EB00088960E94BF33DF91CF911F9108950F9391
:103EC0001F93CF93DF93883008F56630F8F44730BE
:103ED000E8F4C42FD0E0CC0FDD1F2EE0629FC00DB0
:103EE000D11D112434E5839FC00DD11D1124CE01B5
:103EF00087960E94AB3390E0182F0027CE0188965A
:103F00000E94AB339801282BC90102C080E090E0E9
:103F1000DF91CF911F910F910895AAE0B0E0E3E9FE
:103F2000FFE10C94653380E5E7E0F3E0DF011D92EB
:103F30008A95E9F788E3E4E6F4E0DF011D928A95CB
:103F4000E9F787E0C82E83E0D82E7F0107E113E070
:103F5000F701D182C0824AE050E0B801CE0101965B
:103F60000E949B3388E0FE013196D60101900D92AC
:103F70008A95E1F789859A85D70113969C938E934C
:103F80001297BAE0CB0ED11CE7E0EE0EF11C065FF3
:103F90001F4F0736F3E01F07D9F62A96E8E00C9486
:103FA0008133AAE0B0E0E7EDFFE10C946B339C01B4
:103FB00037552F3F310509F050F4BE016F5F7F4F39
:103FC0000E945B30892B19F489859A8502C088ECA0
:103FD00090E02A96E2E00C948733E7E9F2E080E093
:103FE00090E069EA70E240ED50E22AE230E2778345
:103FF0006683518740873387228795878487019618
:104000003E968830910599F70895A5E0B0E0EBE081
:10401000F0E20C946B339093F9038093F8038115CD
:1040200020E2920718F40E940D3310C080EF8983BC
:104030008A831B820E94B92C8160782F9D838C8398
:1040400049815A816B818D810E94CD302596E2E0B5
:104050000C9487330F931F93CF93DF938C01EB0165
:104060006DE872E08C2F0E945B30892BE1F5DD2733
:10407000CB57DD4F8881F80112821882833079F0A6
:1040800048F4813041F1823071F580918F02909136
:10409000900209C0843051F08530E9F024C080914D
:1040A0009102909192020097B1F01BC0809193020F
:1040B000909194020097A9F420918D0230918E0284
:1040C00080918F02909190022115310541F0009767
:1040D00041F4C90106C080918D0290918E02009733
:1040E00011F00E940520DF91CF911F910F9108954B
:1040F000A5E0B0E0EEE7F0E20C946B339093F903A7
:104100008093F803811520E2920718F40E94273368
:1041100011C080EF89838A8381E08B830E94B92C50
:104120008160782F9D838C8349815A816B818D8139
:104130000E94CD302596E2E00C948733CF93DF9335
:10414000EC010E947820CE010E940520DF91CF91E2
:1041500008950F931F93CF93DF938C01862F6DE803
:1041600072E00E945B30892BB1F4C0918D02D09136
:104170008E02209781F0F8018281833039F4CE01DC
:104180000E949E20CE010E949E2002C0843018F022
:10419000CE010E949E20DF91CF911F910F91089533
:1041A0000F931F93CF93DF938C01EB016DE872E0C7
:1041B0008C2F0E945B30892B09F067C0DD27F80146
:1041C0008281813039F4958192FD13C090FF11C036
:1041D00082E00FC0823041F4F801858182FD06C083
:1041E00080FD06C083E005C086E003C085E001C015
:1041F00084E0CB57DD4F88838330B1F028F48130E1
:1042000071F0823031F041C08430A9F0853079F10D
:104210003CC080918F02909190020097A1F580910F
:104220008D0290918E0220C0809191029091920215
:104230000097E9F028C08091930290919402009732
:1042400011F580918D0290918E02009749F00E94A5
:104250009E2080918F0290919002009781F013C070
:1042600080918F0290919002009779F00CC080911C
:104270008D0290918E02009741F00E949E208091C5
:104280008D0290918E020E947820DF91CF911F9134
:104290000F91089581152CE5920759F480911B0127
:1042A00090911C01892B19F480E090E0089580E042
:1042B0009CE5089586E290E00E94BF330895CF9375
:1042C000C82F811102C06FEF01C06AE083E290E065
:1042D0000E94BF33C11102C06FEF01C064E484E2E9
:1042E00090E00E94BF33C11102C06FEF01C068EBC4
:1042F00085E290E00E94BF33CF91089580E00E9454
:104300005F2160E070E0CB010E945A210E94DD2F06
:104310000E94B02F81E00E945F21089583E290E027
:104320000E94AB338A3081F484E290E00E94AB3388
:10433000843451F485E290E00E94AB3391E0883BF5
:1043400009F090E0892F01C080E08170089590917C
:10435000800290FF04C09695981748F003C0811121
:1043600006C090E0961718F40E94762A089561E03E
:104370000E94312A0895882311F0FA0101C0FB013F
:104380000995089560918002669570E04BE050E0D9
:104390008DE091E00E949D34892B19F481E0809397
:1043A00004020E94B92C9093FE018093FD010895B0
:1043B000A8E7B0E0EEEDF1E20C9469338091800261
:1043C00080FF0AC00DEF13E09E012F5F3F4FAE014B
:1043D00047585F4FB9010BC0E8E0F2E0118210824C
:1043E0001282339682E0E038F807C1F7EBCFF8018C
:1043F000849190E0DC01AA0FBB1F8A0F9B1FDC0198
:10440000A85FBD4F8D919D91AC91FB0181939193DC
:10441000A193BF010F5F1F4FE417F50741F7269ADD
:1044200085B18F7B95B190646FB7F89424173507E9
:1044300099F0F90171919F01E8E095B9000000C081
:1044400077FF85B9770F000000C000C000C085B9B4
:1044500000C0EA9591F7EACF6FBF8FE594E001972E
:10446000F1F700C00000C858DF4FE4E00C9485333A
:10447000EF92FF920F931F93CF93DF938C01C8E0CD
:10448000D2E0E12CF12CF8018481F4E1EF16F10483
:104490001CF4882351F002C0811107C040918302AF
:1044A000413508F040E59E0102C09E0140E0609168
:1044B0008202809181020E94C0288FEFE81AF80AD8
:1044C000239698E2E916F104F1F60E94D821F8014A
:1044D000848190E00196817099278483CDB7DEB7FF
:1044E000E6E00C948333A0E0B0E0E9E7F2E20C945C
:1044F0006133EC014C81042F10E09801D8010E9437
:1045000068349B01AC010E947E346B017C01E0E2C7
:10451000F0E0E01BF10BA5E5B0E09B01AC010E94CF
:104520007E344B015C019F01DF010E9460349B01DE
:10453000AC010E9489349B01AC012C0D3D1D4E1D28
:104540005F1DC501B4010E943134822FF22E99E221
:10455000921728F093E0299F900111240DC025E5C2
:1045600030E0281B3109C901880F991F280F391F16
:1045700037FF02C02F5F3F4F35952795122F1095BB
:1045800098E0C92E92E0D92E00E085E5E82EEF18DC
:1045900001FD02C08E2D01C08F2D412F113508F075
:1045A00040E59601609182020E94C0280F5F83E07F
:1045B000C80ED11C083261F70E94D8218C8181116C
:1045C00002C091E003C0803219F49FEF90931A016A
:1045D00090911A01890F8C83CDB7DEB7ECE00C9473
:1045E0007D330F931F93CF93DF93C8E0D2E0FE019A
:1045F000118210821282339682E0E038F807C1F708
:1046000000E010E080910602082E000C990B0817BC
:104610001907ACF080911901082E000C990B801736
:1046200091076CF040918302413508F040E59E010E
:1046300060918202809181020E94C02803C0198289
:1046400018821A820F5F1F4F239608321105D1F688
:104650000E94D8218091180190910602980F9093A2
:10466000060220911901280F20931901121614F443
:1046700097321CF0819580931801DF91CF911F91A3
:104680000F910895A0E0B0E0E8E4F3E20C94643305
:10469000FC01828180FF03C0DD24DA9402C0DD24A6
:1046A000D39408E012E0C0E0D0E028E2B22EF80196
:1046B00011821082128294E0E92EF12CC12C80919B
:1046C00005028C0D89322CF06B2D0E94FB33892F53
:1046D00002C087FD885D082E000C990BC817D9070A
:1046E000A9F4809183028E9DA0018F9D500D11240D
:1046F0005595479555954795413508F040E5980102
:1047000060918202809181020E94C028CD0CF1E06C
:10471000EF1AF108A1F621960D5F1F4FC832D1059F
:1047200031F60E94D8218091050291E0D91206C08D
:10473000811102C087E207C0815005C090E0019658
:10474000BE010E941D3480930502CDB7DEB7E9E0BB
:104750000C948033EF92FF921F93CF93DF93EC0181
:1047600088E0E82E82E0F82E10E040918302413587
:1047700008F040E58C81970160918202810F0E94D0
:10478000C0281A5F83E0E80EF11C103F71F70E9409
:10479000D8219A818C8190FF02C08F5F01C0815027
:1047A0008C83DF91CF911F91FF90EF90089580E06F
:1047B00008959091BA0492FF0DC0282F28712830D7
:1047C00019F4877F846006C0282F2471243011F4E7
:1047D0008B7F886093FF0DC0282F2871283119F432
:1047E000877E846106C0282F2471243111F48B7ECA
:1047F00088612091BB0420FF0DC0382F38713830FC
:1048000019F4877F816006C0382F3171313011F47F
:104810008E7F886021FF0DC0282F2871283119F460
:10482000877E816106C0282F2171213111F48E7E8F
:10483000886194FD877E0895F894E82FE295EF70E3
:10484000F0E031A1282F2F7081E090E001C0880FA7
:104850002A95EAF7982F9095932391A392A1892BFB
:1048600082A378940895A6E0B0E0E9E3F4E20C9422
:104870006233AE014F5F5F4F7A0186E0FA01119219
:104880008A95E9F706E211E06A01AA24A394B12C03
:10489000F80180818F3F09F441C0F894E82FE29538
:1048A000EF70F0E021A18F70A50102C0440F551FE9
:1048B0008A95E2F7CA01922F982B91A392A1809535
:1048C000892382A3789400C0ECE2F1E0912C31E0DE
:1048D00021912F3F89F0A22FA295AF70B0E0909662
:1048E0008C9190E02F7002C0959587952A95E2F7FC
:1048F00080FD02C0832F01C080E0982A330F51E071
:10490000E333F50729F7F80180818F3F11F00E940A
:104910001C24F0EAFA95F1F7F60190820F5F1F4F21
:10492000FFEFCF1ADF0A41E00C32140709F0B0CFD5
:1049300046E050E0B7018AE991E00E94AA34892B51
:1049400089F086E0F701AAE9B1E001900D928A951D
:10495000E1F781E08093EA030E94B92C9093E90388
:104960008093E8038091EA03811102C080E020C0B7
:104970008091E8039091E9030E949E2C0597B0F383
:1049800046E050E06AE971E081EB91E00E94AA34D0
:10499000892B59F086E0EAE9F1E0A1EBB1E0019062
:1049A0000D928A95E1F781E001C080E01092EA0360
:1049B0002696EBE00C947E33CF93DF9382389105FB
:1049C00069F1B0F48133910509F477C048F4893274
:1049D000910509F469C08A32910509F473C092C047
:1049E0008533910509F45BC089339105B9F08AC01C
:1049F000833E910591F138F4803E9105D1F0823EDD
:104A0000910531F17FC0863E9105D9F1873E910530
:104A1000E9F1843E910509F075C028C02091BA04DF
:104A200020FD5BC021FD59C02091BB0423FD61C066
:104A300069C08091BA0480FD4AC08091BB0480FFA8
:104A40004CC08091BA0484FD4EC183EE90E04DC10C
:104A50008091BA0482FF3EC0F4CF8091BA0482FDF7
:104A600039C08091BB0480FD38C0EBCF8091BB047E
:104A700081FF39C08091BA0484FD35C187EE90E092
:104A800034C18091BA0483FF2BC0F4CF8091BA0463
:104A900083FD26C08091BB0481FD25C0EBCF8091B2
:104AA000BA0485FD26C022C08091BA0485FD1EC0CF
:104AB0008091BB0483FF1DC00AC08091BA0486FDAB
:104AC0001BC01DC08091BA0486FD19C015C089E3C2
:104AD00090E00BC182EE90E008C180EE90E005C14D
:104AE00086EE90E002C184EE90E0FFC085E390E0A6
:104AF000FCC089E290E0F9C08AE290E0F6C081E370
:104B000090E0F3C0811531E5930708F061C081158D
:104B100020E59207B0F0482F4F704695469520E269
:104B2000429FA0011124982F937021E030E002C031
:104B3000220F331F9A95E2F7C9019D68842B952BAC
:104B4000D4C0883E910568F5803E910508F0CDC03F
:104B5000883A9105B8F4853A910548F0855AE82FCE
:104B6000F0E0EE5BFE4F808190E09064BEC081304B
:104B7000910509F4B5C008F4B6C08430910508F475
:104B8000B2C0B3C08F3B910508F0ADC0885AE82F82
:104B9000F0E0EE0FFF1FEB5BFE4F8081918194648C
:104BA000A4C0811530E2930758F4811521E09207E3
:104BB00008F09BC0803F910508F495C0906595C0B2
:104BC000811530E4930708F48EC09F70906A8DC001
:104BD000811525E5920708F042C0811534E5930759
:104BE00028F0982F8827846F906A7FC0811523E56D
:104BF0009207B0F09C012370332741E050E002C0DF
:104C0000440F551F2A95E2F7282F2695269580E216
:104C1000289F90011124CA01822B932B9A6865C0AA
:104C2000811532E5930728F4982F8827816F906AC1
:104C30005CC09C012370332741E050E002C0440F68
:104C4000551F2A95E2F7282F2695269580E2289F62
:104C500090011124CA01822B932B9C6846C0EC0161
:104C6000C11589E5D807B0F4C11528E5D20728F0A9
:104C70009C2F8827806F906A38C0C11536E5D3070E
:104C800090F58C2F0E94D9238F7190E0982F882760
:104C900090622BC0C1158AE5D80790F48C2F8F70D5
:104CA0000E94D92394E0D695C7959A95E1F7CF70E5
:104CB000D0E0DC2FCC27D0699E01282BC90115C07C
:104CC000CE0190568115904270F48D2F8F710E9405
:104CD000D923282F2F71CE0199279062922B05C0DE
:104CE00081E090E002C080E090E0DF91CF910895F4
:104CF000CF93C92F682F84E090E00E94BF336C2FC0
:104D000082E290E00E94BF33CF910895CF9384E078
:104D100090E00E94AB33C82F82E290E00E94AB3358
:104D20002C2F30E0A901582BCA01CF91089580E0C3
:104D300090E00E94B933883E9E4F19F40E948E2164
:104D4000089580E0089568EE7EEF80E090E00E9494
:104D5000DD3360E082E090E00E94BF3360E083E0FA
:104D600090E00E94BF331092E70360E084E090E09F
:104D70000E94BF3364E082E290E00E94BF3360E0B3
:104D800085E090E00E94BF3360E086E090E00E9402
:104D9000BF336FEF87E090E00E94BF3340E050E008
:104DA000BA0188E090E00E94D13360E08DE090E0AD
:104DB0000E94BF3340E050E0BA0188E190E00E94D9
:104DC000D13360E087E190E00E94BF3340E050E0E3
:104DD000BA018CE190E00E94D13360E070E080E2A3
:104DE00090E00E94DD3340E050E0BA0188E190E0BD
:104DF0000E94D13380E00E945F210E947E2140E02A
:104E000050E0BA018FE090E00E94D13340E050E0E2
:104E1000BA0183E190E00E94D13308958091E603C6
:104E2000882331F01092E6031092E5031092E40318
:104E3000089580959091AB0489238093AB040895E5
:104E400080959091AC0489238093AC04089590914F
:104E5000AC048091AB04892B809357038091E603C7
:104E6000882361F10E94B92C2091E4033091E5037D
:104E7000821B930B8838934110F00E940E2790916B
:104E800057038091E603892B8093570380910C018F
:104E9000882331F08091BA0487FF02C08EE101C0FF
:104EA00086E0E9E5F3E090E0815028F021912223AB
:104EB000D9F39F5FF9CF91110E940E2740E250E095
:104EC00064EC73E087E593E00E94AA34892B21F11A
:104ED00080E2E7E5F3E0A4ECB3E001900D928A955F
:104EE000E1F7E091B104F091B2043097A9F080911C
:104EF0000C01882359F08091BA0487FF07C0809184
:104F000057038093580386E0809357030280F38110
:104F1000E02D87E593E0099508951092C303109260
:104F2000C2031092C10308952091C3038095822388
:104F30008093C303982F977099F430E0482F082E80
:104F4000000C550B2417350759F09091BB0492FFC4
:104F500007C08595859585950E94E41A0E948D2746
:104F600008959091BB0492FB222720F9281769F03D
:104F700080FB92F99093BB048091BA049091BB049A
:104F80000E94782682E00E94942708959091BB04A5
:104F900092FF10C098E0899F90011124262B209346
:104FA000C3030E94F11A0E94B92C9093C20380930C
:104FB000C10308950E94F11A08958091C003909151
:104FC0007F03891719F08F5F8770FBCF0895A0E0EA
:104FD000B0E0EDEEF7E20C94653380917C038295AE
:104FE0008F7009F055C080917903882309F450C06F
:104FF000C091C00380917F03C81709F449C0F090A5
:105000007703E0907803C0907A03D0907B03A601E9
:105010006E2D8F2D0E94062ED0E0811136C08E019C
:1050200083E0000F111F8A95E1F7F801E058FC4F6B
:1050300081818E112AC080818F1127C082818111C8
:1050400024C0E380F480EC18FD0860E087E793E07B
:105050000E949D3067E773E00E94D11FE816F906B1
:10506000A0F480917C038F70806180937C03F801B1
:10507000EB57FC4F80818F708061808387E793E0DE
:105080000E94E20B0E94DD2703C02196C770B2CFB9
:10509000CDB7DEB7E8E00C9481339091800290FFA9
:1050A0000CC0E8E0F2E0818360834283339692E0B3
:1050B000E038F907C1F70E94D82108958091800255
:1050C000282F269530E02115310519F48170826072
:1050D00005C02532310524F08170886480938002F8
:1050E00080918302813518F080E5809383020895D2
:1050F000CF92DF92EF92FF926B017C010E945E28BB
:10510000B701A60188E090E00E94D133FF90EF90B4
:10511000DF90CF90089580918402882319F0815008
:10512000809384026091800270918102809182025A
:10513000909183020E9478280895809184028330A0
:1051400018F48F5F809384026091800270918102D5
:1051500080918202909183020E9478280895E0E86D
:10516000F2E083E0808311828FEF828380E5838386
:10517000148260817181828193810E9478280895D0
:10518000A0E0B0E0E6ECF8E20C946333E82EF62EF3
:10519000E901E42FF0E0611106C0EB5DFA4FE49104
:1051A0004E2F2E2F71C0062F10E0EB5DFA4F449169
:1051B000F42FC42ED12C26E0829FC00111242FEFA2
:1051C00030E0B9010E9409345BEA5603C001579FE1
:1051D000900D11248E0D911D8E0D911D582F550F80
:1051E000580FD901A01BB10BAC9DC001AD9D900D16
:1051F000BC9D900D1124E92FF59ED0011124AB2FF9
:10520000BB277901EA1AFB0AEC9CD001ED9CB00D9A
:10521000FC9CB00D11245901A51AB108A09E700183
:10522000A19EF00CB09EF00C1124EF2CFF242E193F
:105230003F092C9D80012D9D100D3C9D100D1124CA
:10524000212F6230710591F048F461157105E1F08C
:1052500061307105B9F4242F4B2F16C064307105ED
:1052600069F040F06630710579F00CC0242F492FA9
:10527000E12F0AC0492FEF2F2B2F06C0292FE42F33
:10528000412F02C0292FEB2F49832883EA83CDB712
:10529000DEB7EAE00C947F33A3E0B0E0E2E5F9E2A8
:1052A0000C946B339091800290FF0DC0413508F053
:1052B00040E59E012F5F3F4F0E94C0284B816981CE
:1052C0008A810E944D282396E2E00C948733A3E064
:1052D000B0E0EDE6F9E20C945E33E82E762EF42E83
:1052E000622E9091800290FF70C0E92FE695AE2F5C
:1052F000B0E0AD58BE4F8C91809303029E7F9230F8
:1053000089F480E5841708F440E59E012F5F3F4F44
:10531000672D8E2D0E94C0284B8169818A810E9451
:105320004D2841C0823019F4F09083023CC0863091
:1053300019F4E090810237C08930D9F3893199F5A9
:10534000E9519E2F9170592EE695F0E0EB5DF94FF3
:10535000E4910E2F10E088E0C82E82E0D82EA12C18
:10536000B12C98E2892E912CC501B4010E94093418
:105370008E2D511002C0860F01C0861B4F2D90E567
:105380009F1508F440E59601672D0E94C028A00EE5
:10539000B11E83E0C80ED11C90E8C91692E0D90670
:1053A00019F70E94D821E092810270928202F09255
:1053B0008302662051F06091800270918102809199
:1053C0008202909183020E9478282396EFE00C9449
:1053D0007A33E0E8F2E0438128E0421B08F440E041
:1053E00021E0628181810E9467290895E0E8F2E06E
:1053F000438128E0420F08F44FEF21E06281818170
:105400000E9467290895E0E8F2E0628128E0621BCB
:1054100008F460E021E0438181810E9467290895BA
:10542000E0E8F2E0628128E0620F08F46FEF21E02B
:10543000438181810E9467290895E0E8F2E081813B
:1054400021E04381628188500E9467290895E0E845
:10545000F2E0818121E043816281885F0E946729B7
:1054600008959091800290FF36C09170811102C022
:10547000926006C0853210F0986402C0880F982BA5
:1054800090938002662351F06091800270918102B6
:1054900080918202909183020E947828609180021C
:1054A000669570E04BE050E08DE091E00E949D3405
:1054B000892B19F01092040202C00E94C22181E0DF
:1054C0008093000220E040918302609182028091EB
:1054D00081020E94672908958091800286958150FB
:1054E00009F484E261E00E94312A089580918002EB
:1054F00086958F5F853208F081E061E00E94312A55
:1055000008950E94B92C2091F403211104C0209128
:10551000F503222321F09093F1038093F00320916F
:10552000F603211104C02091F703222321F0909368
:10553000EF038093EE03E091B104F091B204309751
:1055400049F082E08093F2030480F581E02D82EF40
:1055500093E009950895803F39F48091F50387FF22
:105560006AC01092F50367C0813F29F48091F5036A
:105570001816BCF360C09091F403823F29F497FFA2
:105580005AC01092F40357C0833F19F41916CCF394
:1055900052C09091F603893F31F419160CF04BC0BC
:1055A0001092F60348C08A3F19F497FF44C0F8CF21
:1055B0008B3F39F48091F70387FF3DC01092F703CA
:1055C0003AC08C3F29F48091F7031816BCF333C01E
:1055D000843F21F48091F3038E7F17C0853F21F42F
:1055E0008091F3038D7F11C0863F21F48091F303F6
:1055F0008B7F0BC0873F21F48091F303877F05C029
:10560000883F31F48091F3038F7E8093F30313C0BE
:105610008D3F21F48091ED038E7F0BC08E3F21F4EE
:105620008091ED038D7F05C08F3F29F48091ED03BC
:105630008B7F8093ED038091F403811106C08091EC
:10564000F503811102C01092EC038091F6038111E1
:1056500006C08091F703811102C01092EB030895F8
:105660008091ED0380FD16C081FD16C082FD18C03B
:105670008091EB03882391F0883290F428E0829F98
:10568000C001112468E270E00E941D34862F672B50
:1056900029F007C082E0089584E0089581E008952C
:1056A00088E008958091ED0380FD14C081FD14C051
:1056B00082FD16C08091EC03882381F08E3180F446
:1056C00020E5829FC00111246EE170E00E941D342C
:1056D000862F089584E1089588E2089588E008956A
:1056E00080E50895803F21F40E94522B819504C0EB
:1056F000813F29F40E94522B8093F5030895823F45
:1057000021F40E94522B819504C0833F29F40E940A
:10571000522B8093F4030895893F19F40E94302B93
:1057200005C08A3F31F40E94302B81958093F603A7
:1057300008958B3F21F40E94302B819504C08C3F4B
:1057400029F40E94302B8093F7030895843F21F4BD
:105750008091F303816017C0853F21F48091F303AA
:10576000826011C0863F21F48091F30384600BC0F6
:10577000873F21F48091F303886005C0883F31F4AE
:105780008091F30380618093F30308958D3F21F4AA
:105790008091ED0381600BC08E3F21F48091ED0379
:1057A000826005C08F3F29F48091ED03846080936F
:1057B000ED0308958091BD01089524E02093E90050
:1057C0002FEF3091E800215035FD06C035ED3A95B8
:1057D000F1F700002111F5CF2091E80025FF0BC063
:1057E00040E050E066E070E00E94F4198091E8002B
:1057F0008E778093E8000895CF93DF9320910C017A
:10580000222339F02091BA0427FF03C060E224E08C
:1058100002C068E021E02093E9002FEF3091E8001A
:10582000215035FD06C035ED3A95F1F70000211104
:10583000F5CF2091E80025FF1DC0EC0180910C01FF
:10584000811105C040E050E068E070E003C070E006
:1058500040E050E0CE010E94F4198091E8008E777C
:105860008093E80080E2FE01AEEBB1E001900D9282
:105870008A95E1F7DF91CF9108958093BC047093EE
:10588000BE046093BD048091E0018430F9F48093FC
:10589000E9008FEF9091E800815095FD06C095EDED
:1058A0009A95F1F700008111F5CF8091E80085FF0E
:1058B0000DC040E050E063E070E08CEB94E00E94AB
:1058C000F4198091E8008E778093E800089587E7C7
:1058D00097E790930108809300089AE088E10FB65B
:1058E000F894A895809360000FBE90936000FFCF5E
:1058F00078941F920F920FB60F9211248F939F935B
:10590000AF93BF938091B6049091B704A091B8046F
:10591000B091B9040196A11DB11D8093B604909376
:10592000B704A093B804B093B904BF91AF919F910D
:105930008F910F900FBE0F901F9018959C014FB73D
:10594000F8948091B6049091B704A091B804B091F6
:10595000B9044FBF821B930B08952FB7F894609141
:10596000B6047091B7048091B8049091B9042FBF28
:1059700008952FB7F8948091B6049091B704A09140
:10598000B804B091B9042FBF08951F920F920FB6BB
:105990000F9211248F939F93AF93BF938091B5047F
:1059A000811113C08091B6049091B704A091B804FE
:1059B000B091B9044196A11DB11D8093B604909396
:1059C000B704A093B804B093B904BF91AF919F916D
:1059D0008F910F900FBE0F901F90189520910C0182
:1059E0002223C9F02091BA0427FF15C0262F26953F
:1059F000269526952E31C8F4FC01E20FF11D677043
:105A000081E090E001C0880F6A95EAF78095928165
:105A1000892382830895FC0106962281621301C0C6
:105A200012823196E817F907C1F708952091B3045F
:105A30003091B4042817390771F09093B40480931F
:105A4000B304E091B104F091B204309721F00084E6
:105A5000F185E02D099508952091AF043091B004AF
:105A60002817390771F09093B0048093AF04E09148
:105A7000B104F091B204309721F00680F781E02D57
:105A800009950895E091B104F091B204309729F09E
:105A90000190F081E02D0995089580E00895CF935D
:105AA000DF93EC01EA85FB85309719F06C857D85E5
:105AB00009958B810E9419278C810E9420270E94C2
:105AC000272786E0FE0111928A95E9F7DF91CF91B1
:105AD0000895CF93DF93EC018D8181FD18C0826022
