:100000000C946F020C94B6020C94B6020C94B602D7
:100010000C94B6020C94B6020C94B6020C94B60280
:100020000C94B6020C94B6020C9419210C94EB219A
:100030000C943A1C0C94B6020C94B6020C94B602C2
:100040000C94B6020C94B6020C94B6020C94B60250
:100050000C94B6020C94931C0C94B6020C94B60249
:100060000C94B6020C94B6020C94B6020C94B60230
:100070000C94B6020C94B6020C94B6020C94B60220
:100080000C94B6020C94B6020C94B6020C94B60210
:100090000C94B6020C94B6020C94B6020C94B60200
:1000A0000C94B6020C94B6020C94B602CF05CF05A0
:1000B000FB05FB0576069406D607D6079F06340790
:1000C00045074507C607D607D607CF078A088A0817
:1000D0009C089C0893089C089C089C088A088A082D
:1000E00098089C089C08980858227F2277237F2232
:1000F0007723CB22EE2277234523542314001A00C2
:100100000800150017001C0018000C001200130056
:10011000000004001600070009000A000B000D0093
:100120000E000F002D4300001D001B0006001900EB
:10013000050011001000360037003800E500E0002F
:10014000E300E200E1002A422C4128444C00E60092
:10015000E40029001E001F002000210022002300CF
:10016000240025002600270000002B0000000000CE
:1001700035002F0030003100330034002D00000026
:1001800000000000000000002E002D000000010013
:100190000100010001000100010001000100010057
:1001A0000000010001000100010001003A003B00D5
:1001B0003C003D003E003F00400041004200430043
:1001C00000002B004400450000000000000000007B
:1001D0000000000000000000390046004700480011
:1001E000000053000000AA00A900A80001000100BF
:1001F00001000100010001000100000000000000FA
:10020000000001002900000000000000000049007B
:100210004B0052004E004C0000002B00000000007C
:10022000000000004A00500051004F000000000094
:10023000000000000000000000004D000000000071
:1002400000000000010001000100010001002A007F
:100250000000000000000000000001002900000074
:100260000000000000000000F100ED00F2004C0072
:1002700000002B000000000000000000F900EF006B
:10028000EE00F00000000000000000000000000090
:100290000000FA0000000000000000000100010062
:1002A0000100010001002A00000000000000000021
:1002B0000000010000000000000000002A2B2800C0
:1002C0000000000000000000000000000000002905
:1002D000000000002C1E3420212224342627252E45
:1002E000362D3738271E1F2021222324252633337D
:1002F000362E37381F0405060708090A0B0C0D0EA9
:100300000F101112131415161718191A1B1C1D2F74
:100310003130232D350405060708090A0B0C0D0E94
:100320000F101112131415161718191A1B1C1D2F54
:100330003130354C000000000000000000000000DB
:1003400000000000000000000000000000000000AD
:1003500000000000000000007E0F00D4FFFFFFC778
:10036000000000781A0350003400320020004B00D7
:100370006500790062006F00610072006400000097
:100380000E0350006100620069006C00650000000F
:100390000403090409023B00020100A0FA09040059
:1003A00000010301010009211101000122400007A1
:1003B00005810308000A0904010001030000000987
:1003C000211101000122BC000705820320000A124E
:1003D000010002000000086666706601000102006C
:1003E0000105010902A10185020901A10005091900
:1003F00001290515002501950575018102950175F5
:100400000381010501093009311581257F950275A8
:1004100008810609381581257F9501750881060533
:100420000C0A38021581257F950175088106C0C028
:1004300005010980A101850319012AB700150126CC
:10044000B700950175108100C0050C0901A1018557
:100450000419012AA002150126A002950175108138
:1004600000C005010906A1018506050719E029E775
:10047000150025019508750181020507190029EF6E
:100480001500250195F0750181020508190129055E
:10049000950575019102950175039101C00501094A
:1004A00006A101050719E029E71500250195087542
:1004B0000181029501750881010507190029FF15C1
:1004C0000026FF0095067508810005081901290519
:1004D000950575019102950175039101C0001124E4
:1004E0001FBECFEFDAE0DEBFCDBF04B603FE27C0EC
:1004F0008091920290919302A0919402B091950202
:100500008730904BA740B04BD1F4109292021092DA
:100510009302109294021092950214BE84B7877FC2
:1005200084BF0FB6F894A89580916000886180938D
:100530006000109260000FBEE0E0F8E3099511E062
:10054000A0E0B1E0E4E5F8E402C005900D92AA381D
:10055000B107D9F722E0AAE8B1E001C01D92A239A3
:10056000B207E1F70E94E0140C9428240C940000D8
:100570009C013A9521153F4130F5BC016627727008
:10058000AC01442754709C012227387094FF0FC09F
:1005900090FF02C080E101C080E0672B09F080621B
:1005A000452B09F08064232B79F080680895892F0A
:1005B0008170672B09F08260452B09F08460232B42
:1005C00019F08860089580E00895CF93DF93EC01DF
:1005D000805E9109089710F0209731F4CE010E94B7
:1005E000B8020E948A0505C0CE010E94B8020E948E
:1005F00050088C2FDF91CF910C94E004CF93DF93C0
:10060000EC010E943605CE01805E9109089710F03A
:10061000209739F4CE010E94B802DF91CF910C945B
:100620009105CE010E94B802DF91CF910C9457083A
:10063000CF93DF93EC010E94E502CE01DF91CF91D1
:100640000C94FE0281E0089581E008950C94240347
:1006500008950C9428031F93CF93DF9300D000D00C
:100660001F92CDB7DEB749835A836B8330918C01DB
:1006700089819A81311114C0662359F0222349F0EF
:100680000E942E0A182F682F89819A810E94D7090B
:1006900003C00E94020A182F69817A81812F04C049
:1006A0000E942E0A69817A810F900F900F900F900F
:1006B0000F90DF91CF911F910C943E11FC01262FDA
:1006C000408151816281738184810C942B0381E08C
:1006D0000895CF93DF93EC0160E00E945E03BE01BA
:1006E000DF91CF910C9429030E9454130E9472044D
:1006F0000E94C3170C9491130C948D1380E00C94FA
:10070000730408950C9481030E9478080E94820368
:100710002FEF84E39CE0215080409040E1F700C03F
:1007200000000C94B91C0F931F93CF93DF93EC013F
:100730008B010E942603882309F444C0B801CE012E
:100740000E9467188823F1F1B801CE010E945B1A5C
:100750008823C1F1B801CE010E948518882391F148
:10076000B801CE010E94B719882361F1F801828196
:10077000882309F1CB358DE5D807C1F050F4C115B8
:10078000FCE5DF0781F0CF3DDC45A9F40E943E1077
:1007900019C0CC35EDE5DE0761F0CD35DD4559F406
:1007A0000E94870F08C00E9484030CC00E94900F13
:1007B00002C00E94930FC801DF91CF911F910F914A
:1007C0000C94220380E0DF91CF911F910F91089547
:1007D000CF93DF93EC0161E00E945E03BE01DF91E5
:1007E000CF910C9493030C9481030E94B71A0E943A
:1007F00073040C94F303DF92EF92FF920F931F9315
:10080000CF93DF93E82FF0E0EC54FD4FD490282FE6
:1008100026952695269530E0F901EC5AFC4F049177
:10082000877010E0082E02C0159507950A94E2F72C
:1008300001701127F901EC5BFC4FE490F12C082EBC
:1008400002C0F594E7940A94E2F791E0E922FF24CC
:10085000F901EC5CFC4FC491D0E002C0D595C7957E
:100860008A95E2F7C170DD270115110519F081EEB7
:100870000E94E004E114F10419F086EE0E94E00405
:100880008D2D0E948105EF2819F086EE0E94360515
:10089000012B19F081EE0E943605CD2B51F08CE230
:1008A000DF91CF911F910F91FF90EF90DF900C940B
:1008B0008105DF91CF911F910F91FF90EF90DF9015
:1008C0000895982F9F709A50963010F0805D01C067
:1008D000895A0C94FB0308950C946B0481E00895ED
:1008E0000C946E040895CF93C82F0E946C048C2F33
:1008F0000E947004CF9108950F931F93CF93DF93BD
:10090000CDB7DEB72B970FB6F894DEBF0FBECDBFC5
:100910004F83588769877A878B8761110E949C0E65
:100920008E010F5F1F4F86E0F80111928A95E9F75B
:1009300085E0FE013796D80101900D928A95E1F786
:100940008091690282FD0CC00E945C0E882319F020
:1009500082E00E94550F0E94430E81110E94CF0E2B
:1009600099818A812C813D81232B31F08F3F31F495
:1009700081E09F3F19F403C081E001C080E080FF67
:1009800009C049815A816B817C818D819E810E9441
:10099000920D05C0C8010E9467038111F2CF2B960A
:1009A0000FB6F894DEBF0FBECDBFDF91CF911F9180
:1009B0000F910895FC01808191810E94700A089531
:1009C000CF93882309F450C0C82F8CEF8C0F813A45
:1009D000D0F46C2F80910201909103010E94301B92
:1009E000882349F06C2F80910201909103010E94AD
:1009F000BB1B0E94DD0E6C2F8091020190910301C0
:100A00000E94B01B0CC080E28C0F883058F4C77075
:100A100081E001C0880FCA95EAF70E947C0ECF9151
:100A20000C94DD0EEBE5EC0FE33040F4F0E0E95B15
:100A3000FE4F808190E0CF910C94EE1AE8E5EC0F28
:100A4000E73150F4F0E0EE0FFF1FE75EFE4F8081CC
:100A50009181CF910C94041BCD3E30F08C2F0E94DD
:100A60006F15CF910C945C16CF910895882389F16E
:100A70009CEF980F913A40F4682F80910201909179
:100A800003010E94BB1B0DC090E2980F983058F4F0
:100A9000877091E001C0990F8A95EAF7892F0E942B
:100AA000820E0C94DD0E9BE5980F933020F480E0CD
:100AB00090E00C94EE1A98E5980F973120F480E0BE
:100AC00090E00C94041B8D3E20F00E94D7150C94EE
:100AD0005C1608951F93CF93DF93182FEB010E94AC
:100AE000E004209741F08FE99FE00197F1F700C003
:100AF00000002197F6CF812FDF91CF911F910C94A9
:100B00003605893319F060E070E002C060E570E0FE
:100B10000C946A05882321F00E947C0E0C94DD0E53
:100B20000895882321F00E94820E0C94DD0E089512
:100B3000CF92DF92EF92FF920F931F93CF93DF93A9
:100B40007C01D62FC72FFC011281058102950F7001
:100B50000E94720E8823B9F01123A9F08C2F807F98
:100B6000803421F080E28D0F883068F08091690236
:100B700082FD09C082E00E94550F0E94720E91E032
:100B8000D82ED92601C0D12CCC2EC2948FE0C822F9
:100B90008C2D90E0FC01EA5AFF4F0C94BF238C2F60
:100BA000807FCF70882311F0C295C07F112399F008
:100BB000CC2309F4D5C180E28D0F883010F0D1111B
:100BC00004C08C2F0E947C0E03C08C2F0E948F0EBD
:100BD0000E94DD0EC5C18D2F0E943605CC2309F47D
:100BE000E5C180E28D0F883040F1DD2331F18C2F9B
:100BF0000E94950E25C08C2F807FCF70803211F01F
:100C0000C295C07FDD2321F0D13009F446C04FC02A
:100C10008091690282FF17C0112349F0CC2329F08B
:100C20008C2F0E947C0E0E94DD0E80E09AC180E035
:100C30000E943605CC2309F4B9C18C2F0E94820E84
:100C40000E94DD0EB3C11123B1F0002381F0013009
:100C500031F40E94AF0E8C2B0E94B70EA7C1053055
:100C600031F40E94CF0E8C2F0E941B0F2AC00E94CD
:100C7000AF0E8C2B27C0002369F0013041F40E9495
:100C8000790E8C2309F492C10E94240F03C0053011
:100C900009F48CC10E94CF0E25C0112321F006302B
:100CA00008F084C10EC0053008F080C11BC01123BC
:100CB00061F0002331F0F701858180FF51C18F7011
:100CC00085838C2F0E948A0571C1002359F0D93386
:100CD00009F058C1FFEF27EE83E0F150204080403B
:100CE000E1F74EC18C2F0E94910560C18C2F869533
:100CF0008695837019F0813061F058C1112321F07D
:100D00008D2F9C2F937002C080E090E00E94EE1A1D
:100D100055C1112321F08D2F9C2F937002C080E0CC
:100D200090E00E94041B4AC18D2F112319F00E94EC
:100D30006F1502C00E94D7150E945C163FC18C2F10
:100D4000837009F045C0111135C14D2F429546956C
:100D50004770440F440F6D2F6F70862F90E0A0E016
:100D6000B0E0042E04C0880F991FAA1FBB1F0A946D
:100D7000D2F7D4FF10C00FE010E020E030E004C054
:100D8000000F111F221F331F4A95D2F700951095AF
:100D90002095309503C000E010E09801C695C695F7
:100DA000C370BC01CD01602B712B822B932BC23001
:100DB00049F058F4C13019F00E94ED08FBC00E94C0
:100DC000DB08F8C00E94FF08F5C00E94D908F2C0F5
:100DD000112319F08C2F817001C08695882309F4A6
:100DE000E9C04D2F429546954770440F440F6D2F33
:100DF0006F70862F90E0A0E0B0E0042E04C0880F52
:100E0000991FAA1FBB1F0A94D2F7D4FF10C00FE08E
:100E100010E020E030E004C0000F111F221F331F3C
:100E20004A95D2F7009510952095309503C000E0C3
:100E300010E09801C695C695C370BC01CD01602B2A
:100E4000712B822B932BC23049F058F4C13019F02A
:100E50000E94B209AFC00E94A009ACC00E94C409A0
:100E6000A9C00E941309A6C0CF70112339F08C2F9E
:100E70000E9439098D2F0E948A059CC08D2F0E94E7
:100E800091058C2F0E945A0995C0D23F21F128F478
:100E9000D03F41F0D13FC1F05EC0D33F19F1D43F04
:100EA00079F059C0112341F0053008F07FC08C2F34
:100EB0008F710E947F097AC0063008F077C0F7CFA3
:100EC0008091690282FF18C0112339F08C2F8F7135
:100ED0000E9439096BC01123C9F38C2F8F710E94B6
:100EE0005A0964C0112329F08C2F8F710E942409A4
:100EF0005DC00E941F095AC01123C9F00E94400E14
:100F00000E94820E0E94580E843039F40E944C0FC9
:100F10008C2F8F710E945A096CC0053008F069C08F
:100F2000CF718C2F0E94390963E08C2F0DC00E9475
:100F3000400E0E947C0E053050F00E944C0F0E9423
:100F4000240F64E08C2F8F710E94300F52C081E01B
:100F50000E94550F4EC0112339F0002309F4B6CF7B
:100F60008D2F0E94E00422C0002309F4B6CFD933AC
:100F700049F49FEFE7EEF3E09150E040F040E1F7F5
:100F800000C000008D2F0E94360510C04C2F4F70FE
:100F90006D2FC7010E943A110E949E0A0FC04C2F6C
:100FA0004F706D2FC7010E943D1108C088EF8C0D56
:100FB000843020F40E94B71A0E947304DD20D9F017
:100FC0000E94580E80FD17C0F70112820E94520E37
:100FD0000E943909C7010E941C080E94520EDF912D
:100FE000CF911F910F91FF90EF90DF90CF900C94D5
:100FF0005A09D12CDFCFDF91CF911F910F91FF9034
:10100000EF90DF90CF9008950F931F93CF93DF93CE
:10101000EC01688179818A810E947B0A8C010E949F
:10102000D6090E94C708B801CE010E949805DF9139
:10103000CF911F910F910895CF93DF93EC01988189
:1010400089812B813C81232B31F08F3F31F481E06A
:101050009F3F19F403C081E001C080E080FD1DC006
:10106000CE010E94E803811110C00E94720E8823F5
:10107000A1F08A81882389F08091690282FD0DC0E8
:1010800082E0DF91CF910C94550FCE010E940408AD
:10109000CE01DF91CF910C946903DF91CF91089538
:1010A000882321F00E948F0E0C94DD0E0895882372
:1010B00021F00E94950E0C94DD0E089580E090E0E2
:1010C0000E94EE1A80E090E00E94041B0E949C0E99
:1010D0000E94AC0E0E94DD0E0E948D170C945C16CF
:1010E00080910201909103010E94C61B0C945E083E
:1010F0000E948C0E0C947008E92FE295EF704E2F31
:1011000050E0FA013297EE30F105B0F4EA59FF4FA2
:101110000C94BF23803F91F018F4883E68F40EC011
:10112000843F51F40BC0883E48F0813F29F406C04B
:1011300093FB882780F9089580E0089581E0089561
:10114000FC01808191810E94700A0E947C080895B0
:10115000CF93DF9300D000D01F92CDB7DEB70F90B2
:101160000F900F900F900F90DF91CF910895CF9334
:10117000DF9300D000D000D0CDB7DEB726960FB6F3
:10118000F894DEBF0FBECDBFDF91CF9108950895D3
:1011900008950C94C8080C94C9080E94CB08609369
:1011A000AF017093B0018093B1019093B2010C94A0
:1011B0005E080C94CD080F931F930091AF0110911E
:1011C000B0012091B1013091B201602B712B822BC3
:1011D000932B1F910F910C94CD080F931F930091A7
:1011E000AF011091B0012091B1013091B2016023A3
:1011F0007123822393231F910F910C94CD080F9399
:101200001F930091AF011091B0012091B101309175
:10121000B20160277127822793271F910F910C94A9
:10122000CD080C94C8080E9411096093AB0170931B
:10123000AC018093AD019093AE010C945E0860E028
:1012400070E0CB010C9413090F931F9341E050E021
:1012500060E070E08A019B0104C0000F111F221F93
:10126000331F8A95D2F7C901B8011F910F910C94D1
:1012700013090F931F9341E050E060E070E004C059
:10128000440F551F661F771F8A95D2F78091AB01D7
:101290009091AC01A091AD01B091AE018A019B018A
:1012A000082B192B2A2B3B2BC901B8011F910F9139
:1012B0000C9413090F931F9341E050E060E070E03D
:1012C00004C0440F551F661F771F8A95D2F74095BB
:1012D0005095609570958091AB019091AC01A09173
:1012E000AD01B091AE018A019B01082319232A2385
:1012F0003B23C901B8011F910F910C9413090F935F
:101300001F9341E050E060E070E004C0440F551FBF
:10131000661F771F8A95D2F78091AB019091AC013F
:10132000A091AD01B091AE018A019B010827192758
:101330002A273B27C901B8011F910F910C9413096B
:101340000F931F930091AB011091AC012091AD015F
:101350003091AE01602B712B822B932B1F910F913B
:101360000C9413090F931F930091AB011091AC01E2
:101370002091AD013091AE0160237123822393232C
:101380001F910F910C9413090F931F930091AB01C0
:101390001091AC012091AD013091AE016027712711
:1013A000822793271F910F910C94130908952BE026
:1013B000929F800D1124E82FE695E695E6958770BB
:1013C00051E001C0550F8A95EAF785E0E89FF001EA
:1013D0001124E357FE4F20E030E070E04081CB0164
:1013E000022E02C0969587950A94E2F78170819546
:1013F00084278523842781932F5F3F4F2530310534
:1014000069F708952BE0929F800D1124682F66954F
:1014100066956695982F977085E0689FB0011124B6
:1014200040E050E080E0FB01E40FF51FE357FE4F82
:10143000208130E0092E02C0369527950A94E2F704
:1014400021703327042E01C0220F0A94EAF7822B61
:101450004F5F5F4F4530510531F70895BF92CF92EE
:10146000DF92EF92FF920F931F93CF93DF938C0144
:10147000C090AB01D090AC01E090AD01F090AE0116
:101480008091AF019091B001A091B101B091B201F2
:10149000C82AD92AEA2AFB2ACFE1D0E0D701C6011F
:1014A0000C2E04C0B695A795979587950A94D2F708
:1014B00080FD04C0219790F7B12C07C0BC2EB80165
:1014C0008C2F0E9475120197A9F38B2DDF91CF917C
:1014D0001F910F91FF90EF90DF90CF90BF900895F4
:1014E000CF93DF93EC010E942E0ABE010E94751279
:1014F000DF91CF9108951F93CF93DF93EB019091EC
:101500008C01992321F0CB010E94700A13C088231B
:1015100049F0CB010E942E0A182F682FCE010E949D
:10152000D70904C0CB010E94020A182FBE01812FE7
:101530000E947512DF91CF911F910895EF92FF9253
:101540000F931F93CF93DF938C01892B09F46CC009
:10155000F12CEE24E394E8012196F801849184377C
:1015600040F4843008F051C0813081F0823019F1AC
:101570005BC0853709F444C0A8F19CE7980F903709
:1015800008F052C08F770E94360541C00E5F1F4F92
:10159000FE01849190E2980F983050F48770FE2DF0
:1015A00001C0FF0F8A95EAF78F2F0E949F0E14C08B
:1015B0000E94E0042DC00E5F1F4FFE01849190E257
:1015C000980F983060F48770FE2D01C0FF0F8A9548
:1015D000EAF78F2F0E94A50E0E94DD0E19C00E940F
:1015E000360516C00E5F1F4FFE01C491CC2381F05B
:1015F0008FE99FE00197F1F700C00000C150F6CFDE
:101600000E5F1F4FFE01F49003C00E94E0048E01A4
:101610008F2D882309F49FCFEFE9FFE03197F1F791
:1016200000C000008150F5CFDF91CF911F910F9145
:10163000FF90EF9008951F93CF93DF93C091B30174
:1016400016E08091B401C81799F0D0E01C9FF0011A
:101650001D9FF00D1124EB54FE4F4081518162819A
:101660007381848195810E94B7082196C770E9CF64
:10167000DF91CF911F9108954091E5015091E601CE
:101680006091E7017091E8018091E9019091EA0190
:101690000C94B708EF92FF920F931F93CF93DF93B1
:1016A0008091EA0182958F7009F065C08091E70111
:1016B000882309F460C08091B301F090B4011091C7
:1016C000E5010091E6016091E8017091E90191E086
:1016D0001F3F09F090E0C0910001D0910101292F36
:1016E00096E0E92E8F1509F446C06115710521F0C9
:1016F0000F3F21F030E003C031E001C0322F90E015
:1017000030FD36C0E89EF001E99EF00D1124DF01A6
:10171000AB54BE4F11963C911197301329C03C91A8
:10172000311326C012963C911297311121C01396A5
:101730004D915C911497461B570B4C175D07C0F4F5
:101740008091EA018F7080618093EA01E654FE4F38
:1017500080818F708061808385EE91E00E941C08FB
:10176000DF91CF911F910F91FF90EF900C941B0B85
:1017700001968770B7CFDF91CF911F910F91FF90A6
:10178000EF9008959F92AF92BF92CF92DF92EF9227
:10179000FF920F931F93CF93DF93CDB7DEB761977F
:1017A0000FB6F894DEBF0FBECDBF8C0185E0F80107
:1017B000DE011D9601900D928A95E1F7D8011296EF
:1017C000EC909091E501E091E6012091E8013091E3
:1017D000E9012115310531F0EF3F31F481E09F3F00
:1017E00019F403C081E001C080E0B82FB1709B2ED6
:1017F00080FD47C1D8014C9111965C9111971396C9
:10180000AD90BC90149785EEC82E81E0D82EF09054
:10181000E701B501621B730B2091000130910101BA
:10182000FF2009F4D9C08091EA016217730708F01C
:1018300095C0282F207F09F052C05E1313C04913B2
:1018400011C0FE2CE1100EC08F7080618093EA0100
:101850000E943C0BC6010E941C088091EA01F8011D
:1018600085834DC1AB2831F05F3F31F481E04F3FBC
:1018700019F403C081E001C080E080FD03C081E075
:101880008E2502C080E090E0F82FF170FF2E80FFDF
:101890001CC08091B3012091B40136E0821709F495
:1018A0000BC190E0389FF001399FF00D1124EB54EB
:1018B000FE4F6181561306C06081461303C06281EA
:1018C000E61203C001968770E9CFFE2CEE2009F4E2
:1018D00016C18091EA0181608093EA0154C05E13D1
:1018E00006C0491304C0E11002C0F80199C0C80144
:1018F0000E94A008882361F1EE2051F12091EA01B5
:10190000822F82958F7090E0029774F08091E501AC
:101910009091E60198878F831986BB86AA862C87CB
:10192000CE0107960E941C0886E0F801A5EEB1E002
:1019300001900D928A95E1F70E944A0B0E943C0BA0
:101940000AC05E1711F1C8010E94A00881112CC0C5
:10195000C8010E941C08FF24F394D1C0282F207FC7
:1019600081F77A2DB98AA88A6E2D89890E94A808E4
:1019700085EE91E00E941C0886E0D6011D928A95B2
:10198000E9F70E943C0BF12CBAC04913DCCFE110FF
:10199000DACFF8018583C8010E941C0886E0D601D1
:1019A0001D928A95E9F7ABC0EE2091F22091EA01F1
:1019B000822F82958F7090E002970CF4B5CF8091C2
:1019C000E5019091E6019A8389831B82BD82AC82F6
:1019D0002E83CE010196A6CF6217730708F044C08C
:1019E000FE2CEE2009F4B4CF5E1330C049132EC094
:1019F0002091EA0120FD21C0822F82958F70482F0F
:101A000050E041155105C9F0F80125834F305105CB
:101A100041F08F5F982F9295907F822F8F70892B46
:101A20008583C8010E941C0886E0F801A5EEB1E09C
:101A300001900D928A95E1F73CC086E0F801A5EE91
:101A4000B1E001900D928A95E1F759C0C8010E945A
:101A5000A008811169CF8091EA0181608093EA0139
:101A6000C8010E941C084BC07A2DB98AA88A6E2D25
:101A700089890E94A80886E0D6011D928A95E9F717
:101A800018C0EE2009F464CFC8010E94A008F82E07
:101A9000882309F45DCF86E0F801A5EEB1E001905E
:101AA0000D928A95E1F785EE91E00E94DA040E949A
:101AB0004A0B0E943C0B23C04D875E878D859E8517
:101AC0000E94700A292F22952F70223028F49F70CF
:101AD00039F0811105C00BC0243028F49F7049F4FF
:101AE000805E883020F0C8010E941C089F2CF92CD1
:101AF00006C0D80115969C91907F91F7F8CF8F2D55
:101B000061960FB6F894DEBF0FBECDBFDF91CF91C7
:101B10001F910F91FF90EF90DF90CF90BF90AF900B
:101B20009F9008951F93CF93DF93CDB7DEB72C9787
:101B30000FB6F894DEBF0FBECDBF4F8358876987BD
:101B40007A878B879C87CE0107960E94C20B8823D9
:101B5000D1F09F8188852A853B85232B31F08F3FEB
:101B600031F481E09F3F19F403C081E001C080E0BF
:101B700080FD47C04F81588569857A858B859C8516
:101B80000E94B7083EC086E0FE013796DE0111963E
:101B900001900D928A95E1F7FF81E8856A857B8542
:101BA0006115710531F0EF3F31F481E0FF3F19F429
:101BB00003C081E001C080E080FD23C02091B4011A
:101BC00030E0C9010196877099274091B30150E038
:101BD00084179507F1F1F983EA837D836C8396E09E
:101BE000929FD001939FB00D1124AB54BE4FFE01C4
:101BF000319601900D929A95E1F78093B4010E947D
:101C00001B0B16E08091B3019091B401891771F11B
:101C1000189FC00111248B549E4F0E94C20B882331
:101C200029F1E091B3011E9FF0011124EB54FE4F06
:101C30004081518162817381848195810E94B708BE
:101C40008091B30190E00196877099278093B3014A
:101C5000D9CF0E9478081092B4011092B301E5EE3A
:101C6000F1E086E0DF011D928A95E9F72C960FB628
:101C7000F894DEBF0FBECDBFDF91CF911F910895C5
:101C80008091F00108950E946C1C2091EE0130912A
:101C9000EF01821B930B9C0181E02838334108F44B
:101CA00080E008958091ED0185958595859508954D
:101CB0008091ED01877008950E946C1C2091EB01CA
:101CC0003091EC01821B930B8838934140F0809156
:101CD000ED0182FB882780F991E0892701C080E02F
:101CE000817008959091ED01977081E009F480E092
:101CF000089580911402089590911402892B809385
:101D000014020895809590911402892380931402FF
:101D100008958093140208951092140208959091EA
:101D20001302892B809313020895809590911302DA
:101D300089238093130208951092130208959091BD
:101D40001202892B809312020895809590911202BD
:101D500089238093120208951092120208958091AF
:101D6000F101089508950C94B20E0C94B30ECF9324
:101D70009091690292FD11C09091F101981769F05C
:101D8000C82F0E946C1C9093EF018093EE01C093CA
:101D9000F1018C2FCF910C94B50ECF9108958091C5
:101DA000F101882349F01092F1011092EF01109295
:101DB000EE0180E00C94B50E0895E0910201F091DF
:101DC0000301809114028083E0910201F0910301EC
:101DD000908180911302892B8083E0910201F09120
:101DE0000301908180911202892B80838091F101FF
:101DF0008823B9F00E94430E81110E94CF0EE0911A
:101E00000201F091030190818091F101892B80837F
:101E100080910201909103010E941A1B81110E947E
:101E2000CF0E80910201909103010C94C61A0C947C
:101E3000B20E0C94170F9091F001981721F0809337
:101E4000F0010C94190F08958091F001882329F076
:101E50001092F00180E00C94190F08950C94B20ECA
:101E60009091690292FD16C098E0899F900111241B
:101E7000262B2093ED010E9439090E946C1C90933F
:101E8000EC018093EB018091ED0185958595859519
:101E90000C942E0F0C9439091092ED011092EC0164
:101EA0001092EB0180E00C942E0F2091ED018095B3
:101EB00082238093ED01982F977099F430E0482F9A
:101EC000082E000C550B2417350759F09091690224
:101ED00092FD07C08595859585950E945A090C94B9
:101EE0004C0F08959091690292FB222720F9281740
:101EF00069F080FB92F99093690280916802909159
:101F000069020E94BA0F82E00C94550F08958091E7
:101F1000690282FB882780F991E089270C94720F6F
:101F200081E00C94720F80E00C94720F80E090E0DE
:101F30000E94EE2321E08A3E9E4F09F020E0822F8E
:101F4000089582E090E00C94E62383E090E00C9406
:101F5000E623CF9384E090E00E94E623C82F82E23C
:101F600090E00E94E6232C2F30E0A901582BCA01F3
:101F7000CF910895CF93C92F682F84E090E00E94FD
:101F8000F4236C2F82E290E0CF910C94F423AB0108
:101F9000BC018FE090E00C940624AB01BC0183E10E
:101FA00090E00C94062460E070E0CB010C94CD0F1F
:101FB00060E070E0CB010E94C70F0C94D30F6AEE73
:101FC0007EEF80E090E00E94122460E082E090E0EA
:101FD0000E94F42360E083E090E00E94F4231092DA
:101FE000AF011092B0011092B1011092B20160E005
:101FF00084E090E00E94F42360E082E290E00E949E
:10200000F42360E085E090E00E94F42360E086E045
:1020100090E00E94F4236FEF87E090E00E94F423A9
:1020200040E050E0BA0188E090E00E94062460E0C1
:102030008DE090E00E94F42340E050E0BA0188E196
:1020400090E00E94062460E087E190E00E94F42383
:1020500040E050E0BA018CE190E00E94062460E08C
:1020600070E080E290E00E94122440E050E0BA016B
:1020700088E190E00E9406240C94D80F0C94DF0FA6
:10208000682F8EE090E00C94F4230E94781C6093FB
:10209000220270932302809324029093250260937E
:1020A0001E0270931F0280932002909321020895D4
:1020B00085B7806885BF85B7806885BF089581E052
:1020C00008950C945F1008950C9463100C946310A1
:1020D0000C9466100C9463100C946A100C946310AA
:1020E0000E94581081E593E10E94AD1A0E946E1083
:1020F0000C946C100E9464100C9463100E94631C7A
:102100000E9439140C9468106F927F928F929F9264
:10211000AF92BF92CF92DF92EF92FF920F931F93F5
:10212000CF93DF93CDB7DEB72A970FB6F894DEBF13
:102130000FBECDBF0E944E1481110E94451036E1A2
:10214000832E32E0932E00E010E0C02E802F0E94FC
:1021500078135C01F401619071904F016826792633
:1021600061147104B1F40F5F1F4F0430110569F75A
:102170008FEF89838A831B820E946C1C8160782F79
:102180009D838C8349815A816B818D810E947C045F
:102190003AC08091260281FD0E948113D12CEE2449
:1021A000E394F12CC3018E219F21892B29F10E94F8
:1021B00061108823A9F0DE82CF82AE20BF2081E0AB
:1021C000AB2809F480E088870E946C1C8160782F1E
:1021D0009A8789874E815F8168858A850E947C0401
:1021E000000F111FF801EA5EFD4F80819181E82602
:1021F000F926F182E08207C0D394EE0CFF1CFBE0CD
:10220000DF12D0CFB0CF0E947A160E94B71A9091F9
:1022100015028917D1F00E94B71A809315022A96E9
:102220000FB6F894DEBF0FBECDBFDF91CF911F91E7
:102230000F91FF90EF90DF90CF90BF90AF909F9065
:102240008F907F906F900C9473042A960FB6F89439
:10225000DEBF0FBECDBFDF91CF911F910F91FF90D9
:10226000EF90DF90CF90BF90AF909F908F907F9036
:102270006F90089580E090E0089508952CE2829F89
:10228000C0011124FC012BE0729FE00DF11D11240F
:10229000E60FF11DEE0FFF1FE450FF4F8591949163
:1022A0000895880F991FFC01EC59FC4F859194917A
:1022B0000895CF93DF930E947A12EC01811520E5F7
:1022C000920708F03FC0811540E4940708F0D2C09F
:1022D000883E910500F5803E910508F002C1883ADC
:1022E000910570F4853A910508F0A6C081309105FA
:1022F00009F49FC008F4F2C0049708F0F2C0EEC0E1
:102300008F3B910508F4A1C0803C910508F4E6C01C
:10231000805C9109A5C0811550E2950760F4C11554
:1023200081E0D80708F0DDC0CD3ED10508F4D6C065
:10233000CE019065D7C0811520E3920708F093C0C5
:102340009F708EC0811545E5940708F046C0811541
:1023500054E5950708F0A6C0C11582E5D80718F521
:10236000C11521E5D20708F088C0CE01F4E09695AA
:102370008795FA95E1F7282F23703C2F337081E081
:1023800090E002C0880F991F3A95E2F79C68922B63
:102390002C2F2F702695269540E2249F9001112422
:1023A000822B932B9FC09E01237033279C2F9695E1
:1023B0009695C115D34508F065C041E050E002C0D4
:1023C000440F551F2A95E2F780E2989F900111244F
:1023D000CA01822B932B9C6885C0811559E595070E
:1023E00098F4C11588E5D80708F061C0C11526E545
:1023F000D20708F073C08C2F0E940E138F7190E0EB
:10240000982F882790626EC081154AE5940708F4DA
:1024100053C090568115904208F060C08D2F8F7187
:102420000E940E139E01332730628F71A901582B31
:1024300053C081E090E056C0855AC82FD0E0C858FC
:10244000DE4F888190E090644DC0885AC82FD0E05C
:10245000CC0FDD1FC65BDE4F88819981946442C03A
:102460000E9451113FC09927D3FF02C0986C3AC017
:10247000906C38C09F70906A35C09C2F8827816F00
:10248000906A30C041E050E002C0440F551F2A95C9
:10249000E2F780E2989F90011124CA01822B932BCE
:1024A0009A6820C0982F8827846F906A1BC09C2F41
:1024B0008827806F906A16C08F700E940E139E014D
:1024C00094E0369527959A95E1F72F7030E0322FFA
:1024D00022273069A901482BCA0104C080E090E09E
:1024E00001C0CE01DF91CF9108950E943E110E945C
:1024F000591108958238910569F1B0F4813391053D
:1025000009F46DC048F48932910509F463C08A3238
:10251000910509F469C008958533910509F455C002
:1025200089339105B9F00895833E910569F138F436
:10253000803E9105B1F0823E910509F10895863EF5
:102540009105A9F1873E9105B9F1843E910509F005
:1025500064C023C02091680220FD4FC021FD4DC002
:1025600008958091680280FD44C08091690280FFD7
:1025700044C08091680284FD42C083EE4DC08091CA
:10258000680282FF38C0F5CF8091680282FD33C0B7
:102590008091690280FD31C0ECCF8091690281FF9A
:1025A00032C08091680284FD2AC087EE35C08091D8
:1025B000680283FF26C0F5CF8091680283FD21C0A9
:1025C0008091690281FD1FC0ECCF8091680285FD7A
:1025D0001CC01DC08091680285FD19C016C0809185
:1025E000680286FD16C017C08091680286FD13C080
:1025F00010C089E311C082EE0FC080EE0DC080E0F4
:102600000BC086EE09C084EE07C089E205C085E3F1
:1026100003C08AE201C081E390E0089590916802CE
:1026200092FF0DC0282F2871283019F4877F84600D
:1026300006C0282F2471243011F48B7F886093FF0B
:102640000DC0282F2871283119F4877E846106C0B7
:10265000282F2471243111F48B7E88612091690226
:1026600020FF0DC0382F3871383019F4877F816012
:1026700006C0382F3171313011F48E7F886021FF10
:102680000DC0282F2871283119F4877E816106C07A
:10269000282F2171213111F48E7E886194FD877E6F
:1026A000089580E0089508950E94960F811102C058
:1026B0000E943E100E94A10F809326020E94A90F43
:1026C00090936902809368020E9453130E94A50FA1
:1026D000682F70E080E090E00E94D9086091AB0123
:1026E0007091AC018091AD019091AE010C941109F3
:1026F000E82FF0E0EE0FFF1FEE58FD4F8081918133
:102700000895089580EA8A95F1F7089500C0089524
:102710000C94821308950C948A130C948B130C94CC
:102720008A130C948F13F894E82FE295EF70F0E081
:1027300031A1282F2F7081E090E001C0880F2A95E9
:10274000EAF7982F9095932391A392A1892B82A3C6
:10275000789408950F931F93CF93DF93C6E8D1E049
:1027600089918F3F11F00E94931381E0CA38D807F6
:10277000B9F7CBE7D1E006E811E089918F3F11F07E
:102780000E9493130C171D07C1F7DF91CF911F9182
:102790000F910895BF92CF92DF92EF92FF920F9325
:1027A0001F93CF93DF938C01C62FD0E0CE018A57C1
:1027B0009E4F6C01FC0190819F3F09F450C0B62EE2
:1027C000F894E92FE295EF70F0E081A19F7021E08D
:1027D00030E001C0220F9A95EAF7822B81A382A1F3
:1027E0002095282322A378940E948613EBE7F1E03A
:1027F00046E851E021E030E0E12CF12C61916F3F9F
:1028000089F0A62FA295AF70B0E090968C9190E0E1
:102810006F7002C0959587956A95E2F780FD02C0BA
:10282000C90102C080E090E0E82AF92A220F331F94
:102830004E175F0719F7F60180818F3F11F00E9454
:10284000931361E0E114F10409F460E08B2D0E9420
:102850008813CC0FDD1FC00FD11FF982E882DF91F2
:10286000CF911F910F91FF90EF90DF90CF90BF908D
:1028700008950E94AA1388E0E2E7F2E0DF01982FB2
:102880001D929A95E9F7EAE6F2E0DF011D928A953A
:10289000E9F784E00E9499140C947403FF920F935B
:1028A0001F93CF93DF93CDB7DEB728970FB6F89479
:1028B000DEBF0FBECDBF8E010F5F1F4F88E0F80156
:1028C00011928A95E9F7F12C6F2DC8010E94CA1365
:1028D000F394F4E0FF12F8CF48E050E0B8018AE644
:1028E00092E00E94D923FF24F394009709F4F12C7D
:1028F000892B41F088E0F801AAE6B2E001900D9240
:102900008A95E1F72F2D44E062E772E08AE692E0D3
:102910000E949A140E947C038F2D28960FB6F8947B
:10292000DEBF0FBECDBFDF91CF911F910F91FF9002
:1029300008950895FF920F931F93CF93DF93F82E7E
:10294000092F162FD72FC42F222349F081E080931F
:1029500029020E946C1C9093280280932702809188
:1029600029028823D9F080912702909128020E94A1
:10297000841C059798F0EF2DF02FA12FBD2F80E03C
:1029800090E04C2F50E08417950734F42191319159
:102990002D933D930196F7CF10922902DF91CF91AD
:1029A0001F910F91FF9008950E94711E0E947E104A
:1029B0000C947D1E0E94811E0E9484100C949B1E0C
:1029C0000E94F21B0E94581E0E9470100E94D41494
:1029D0000E94DA140E947A10FBCF8091300280FFAF
:1029E0000BC06091090185E0689FB00111247595C5
:1029F0006795759567952BC081FF09C060910901A6
:102A000085E0689FB00111247595679520C082FF0D
:102A100007C06091090185E0689FB001112417C0CB
:102A200090912F029923D1F060910801961788F7B1
:102A30002091090185E0289F90011124929FA00117
:102A4000939F500D112470E0CA010E94AB2360389F
:102A5000710540F46115710519F406C065E070E078
:102A6000862F08958FE7089581E0089580913002C0
:102A700080FF08C06091050170E0759567957595B8
:102A8000679521C081FF06C06091050170E07595D2
:102A9000679519C082FF04C06091050170E010C005
:102AA00090912E02992399F0609104019617A0F756
:102AB00080910501899FC001112470E00E94AB2321
:102AC0006038710540F46115710519F406C061E0C4
:102AD00070E0862F08958FE7089581E008958D3E78
:102AE00021F40E94ED14819504C08E3E29F40E94C9
:102AF000ED148093340208958F3E21F40E94ED146A
:102B0000819504C0803F29F40E94ED148093330224
:102B10000895893F19F40E94361505C08A3F31F4A3
:102B20000E94361581958093350208958B3F21F4DC
:102B30000E943615819504C08C3F29F40E943615F9
:102B4000809336020895813F21F4809132028160A2
:102B500017C0823F21F480913202826011C0833F0E
:102B600021F48091320284600BC0843F21F4809173
:102B70003202886005C0853F31F480913202806165
:102B80008093320208958D3F21F48091300281605C
:102B90000BC08E3F21F480913002826005C08F3FD0
:102BA00029F48091300284608093300208958D3E34
:102BB00039F48091340287FF6AC01092340267C0F2
:102BC0008E3E29F4809134021816BCF360C09091B7
:102BD00033028F3E29F497FF5AC01092330257C038
:102BE000803F19F41916CCF352C090913502893FF9
:102BF00031F419160CF04BC01092350248C08A3FD0
:102C000019F497FF44C0F8CF8B3F39F48091360216
:102C100087FF3DC0109236023AC08C3F29F4809164
:102C200036021816BCF333C0813F21F48091320282
:102C30008E7F17C0823F21F4809132028D7F11C0B8
:102C4000833F21F4809132028B7F0BC0843F21F4BB
:102C500080913202877F05C0853F31F48091320236
:102C60008F7E8093320213C08D3F21F48091300219
:102C70008E7F0BC08E3F21F4809130028D7F05C086
:102C80008F3F29F4809130028B7F809330028091B6
:102C90003302811106C080913402811102C010926A
:102CA0002F0280913502811106C080913602811178
:102CB00002C010922E0208950E946C1C20913302D3
:102CC000211104C020913402222321F090932D027F
:102CD00080932C0220913502211104C020913602EC
:102CE000222321F090932B0280932A0281E392E029
:102CF0000C94E01AEF92FF920F931F93CF93DF9300
:102D000000D000D000D0CDB7DEB786E0E1E3F2E03E
:102D1000DE01119601900D928A95E1F7E090330261
:102D2000F090340200913502109136021092330275
:102D3000109234021092350210923602E11003C054
:102D4000FF2009F45DC080912C0290912D020E9419
:102D5000841CAC0190912F02992339F020910A0133
:102D600030E02417350758F04BC020910B018AE062
:102D7000289F900111242417350718F041C09F3F68
:102D800019F09F5F90932F02EE2061F00E94ED14E6
:102D90001E1414F09FEF01C091E0989F902D112414
:102DA00090933302FF2061F00E94ED141F1414F081
:102DB0009FEF01C091E0989F902D112490933402D1
:102DC000309133023323E1F0209134022223C1F009
:102DD00045EB3403C0011124992319F09093330279
:102DE00003C081E08093330235EB2303C00111243B
:102DF000992319F09093340203C081E08093340248
:102E0000011103C0112309F45DC080912A02909141
:102E10002B020E94841CAC0190912E02992339F060
:102E20002091060130E02417350758F04BC020915F
:102E300007018AE0289F900111242417350718F014
:102E400041C09F3F19F09F5F90932E02002361F0D5
:102E50000E943615101614F09FEF01C091E0989F64
:102E6000902D112490933502112361F00E943615A4
:102E7000111614F09FEF01C091E0989F902D11243E
:102E800090933602309135023323E1F020913602DF
:102E90002223C1F045EB3403C0011124992319F01A
:102EA0009093350203C081E08093350235EB230314
:102EB000C0011124992319F09093360203C081E0D8
:102EC000809336028091330281110BC080913402CD
:102ED000811107C080913502811103C080913602B3
:102EE00081110E945C16EB82FC820D831E8386E0BA
:102EF000FE013196A1E3B2E001900D928A95E1F7CF
:102F000026960FB6F894DEBF0FBECDBFDF91CF91EE
:102F10001F910F91FF90EF900895E1E3F2E086E0BA
:102F2000DF011D928A95E9F710922F0210922E026E
:102F3000109230020895CF93DF9397FF0DC0FB01ED
:102F40002281222349F0EC010E94D917CE019F77FC
:102F50000E944C180E94261881E0DF91CF910895BD
:102F600090917B02923069F48A3040F490E00996A7
:102F70006AE070E00E94AB23875A01C086500C942F
:102F800081050C9461048CE090E00E94E62390E0BF
:102F9000A0E0B0E080937B0290937C02A0937D023E
:102FA000B0937E02089560917B028CE090E00C94D7
:102FB000F4230E94C31A86958170809380020E9438
:102FC000C31A817080937A0280917B02813039F438
:102FD00080918002882319F089E30E9481050E9474
:102FE000790E80937F020E948C0E80917B0281304B
:102FF00071F048F0823081F0843009F586EE0E944D
:10300000810588E11AC082EE0E94E00418C088E1C0
:1030100093E00E94180313C080917A02811103C0CB
:1030200083E50E94810582EE0E94E0048FE39CE923
:103030000197F1F700C0000087E50E9481058FE34A
:103040009CE90197F1F700C00000089580917B0290
:10305000813059F030F0823089F08430C9F488E250
:1030600015C082EE0E94360513C08CE20E948105D5
:1030700080918002882361F089E308C082EE0E947B
:10308000360580917A02811103C083E50E94810593
:1030900080917F020C94890E0F931F93CF93DF933F
:1030A0008C01CCE0D0E0C8010C2E02C0969587952B
:1030B0000A94E2F78F700E94B0172497CC3F8FEFED
:1030C000D80789F7DF91CF911F910F9108950F9342
:1030D0001F93CF93DF93EC018B01FB018281882347
:1030E00061F00E94790ECE01825E9C45853091058B
:1030F00020F480937B020E94D317B801CE01DF91A8
:10310000CF911F910F910C949B17CF93DF93EC01FC
:10311000FB018281882309F426C1C430FDE5DF0765
:1031200060F4CB3F9CE5D90768F49E0122503C45F2
:103130002431310508F018C105C0C236EDE5DE07BF
:1031400009F012C10E94A90F90936902809368024E
:10315000C031FCE5DF0709F4CAC008F041C0C8303F
:103160009CE5D90709F4A4C0F0F4C430FCE5DF07FE
:1031700009F48CC068F4C2309CE5D90709F482C018
:10318000C330DC4509F0E5C0809168028260DFC091
:10319000C630FCE5DF0709F483C008F085C08091E4
:1031A00068028860D4C0CC309CE5D90709F490C08F
:1031B00068F4CA30FCE5DF0709F47EC008F084C07B
:1031C0000E947808809168028068C1C0CE309CE57A
:1031D000D90709F481C008F086C08091680294C0C4
:1031E000CD3FFCE5DF0709F47BC038F5C4319CE531
:1031F000D90709F49AC058F4C231FCE5DF0709F495
:103200007AC008F07EC0809168028F7BA0C0CB3F5F
:103210009CE5D907F1F108F03FC0C531DC4509F064
:1032200098C08091680282FB222720F991E09227C2
:1032300090FB82F990FB83F98AC0C1308DE5D807F5
:1032400009F467C050F480916902CF3FECE5DE07D6
:10325000C1F108F05BC08D7F65C0C3308DE5D80734
:1032600009F471C008F46DC0C236DD4509F071C0C3
:103270008091680284FB222720F991E0922790FB3D
:1032800084F965C080916802816061C080916802A4
:1032900016C08091690216C080916902826042C0A6
:1032A00080916802806153C08091680280624FC043
:1032B0008091680280644BC080916802886084605D
:1032C00046C0826081602EC0809168028E7F3FC0C0
:1032D000809168028D7F3BC080916802877F37C0F4
:1032E0008091690214C0809168028F7E30C0809105
:1032F00068028F7D2CC00E947808809168028F77C9
:1033000026C080916802877F8B7F21C08D7F8E7F52
:1033100009C080916902982F909591708E7F892BBA
:1033200090FB81F98093690214C00E947808809113
:10333000680287FB222720F991E0922790FB87F90A
:1033400006C081E001C080E00E94401002C080936E
:10335000680280916802909169020E94BA0F0E94EF
:10336000780880E001C081E0DF91CF910895CF938C
:10337000DF9386319C4541F5EB010E94790E982F31
:103380008A812091020130910301882379F09A7A91
:1033900081E009F480E080933702911102C069E274
:1033A00001C065E3C9010E94B01B0AC080913702C9
:1033B000811102C069E201C065E3C9010E94BB1B23
:1033C0000E94DD0E80E001C081E0DF91CF91089581
:1033D0000F931F93CF93DF93C42FD22FFC018281D1
:1033E0008823C9F040933A020E946C1C90933902E2
:1033F0008093380280E28C0F883008F057C0C77085
:1034000081E001C0880FCA95EAF7DF91CF911F9143
:103410000F910C948A0580913A02481330C0809134
:103420003802909139020E94841C883C910538F53D
:1034300010E21D0FCD17B9F080E28C0F883040F4F8
:10344000C77081E001C0880FCA95EAF70E94910514
:10345000183028F581E09D2F977001C0880F9A954C
:10346000EAF70E948A05802F0E9481051830F0F447
:10347000D77081E001C0880FDA95EAF70AC080E2D0
:103480008C0F883098F4C77081E001C0880FCA950E
:10349000EAF7DF91CF911F910F910C949105802F46
:1034A000DF91CF911F910F910C948105DF91CF9106
:1034B0001F910F9108950F939C01CB01243F4CE580
:1034C000340731F188F4293DFCE53F07D9F02A3D66
:1034D0004CE5340779F1283D3C45A9F506E221EE9B
:1034E00041EE68ED7CE52BC0263FFCE53F07E1F0AF
:1034F000A8F0273F3C4539F507E225EE46EE67EF99
:103500007CE51DC007E225EE45EE69ED7CE517C0C0
:1035100006E221EE40EE64EF7CE511C007E225EE05
:1035200044EE65EF7CE50BC006E221EE42EE66EF6D
:103530007CE505C008E221E045EE6AED7CE50E94ED
:10354000E81980E008C0FC018281882319F01092FC
:103550003A0201C081E00F91089590938B0180930E
:103560008A0108959093400280933F020895E0916C
:103570003F02F0914002309721F00190F081E02D60
:10358000099480E008950E94B71A0895E0913F02DF
:10359000F0914002309799F020911801222359F0C0
:1035A0002091680227FF07C0DC012C9111962C9313
:1035B000119726E02C930280F381E02D0994089561
:1035C000E0913F02F0914002309739F022E0DC01B7
:1035D0002C930480F581E02D0994089520913D02FB
:1035E00030913E022817390771F090933E02809384
:1035F0003D02E0913F02F0914002309721F00680B9
:10360000F781E02D0994089520913B0230913C020E
:103610002817390771F090933C0280933B02E091A8
:103620003F02F0914002309721F00084F185E02DB7
:1036300009940895FC01329680911801882331F095
:103640008091680287FF02C09EE101C096E080E0A1
:10365000915028F021912223D9F38F5FF9CF08955B
:10366000662351F1209118012223E9F0209168028C
:1036700027FF19C0462F4695469546954E31E0F4F2
:10368000677021E030E002C0220F331F6A95E2F735
:10369000FC01E40FF11D828190E02823392381E0B1
:1036A000232B69F409C0FC01329608962191621718
:1036B00029F0E817F907D1F780E0089581E008952F
:1036C0009C01FC0132969FEF80E04191461789F002
:1036D0009F3F19F4411101C0982F8F5F8630A9F7E1
:1036E0009F3F39F0F901E90FF11D97FDFA956283CB
:1036F000089508959C012A5F3F4FFC0142814613C3
:1037000001C01282019682179307B9F70895262FF8
:103710002695269526952E3168F4FC01E20FF11DC1
:10372000677021E030E001C0220F6A95EAF78281DC
:10373000282B22830895262F2695269526952E310F
:1037400070F4FC01E20FF11D677021E030E001C070
:10375000220F6A95EAF72095828128232283089513
:1037600020911801222329F02091680227FD0C9452
:10377000871B0C94601B20911801222329F02091B3
:10378000680227FD0C949B1B0C947A1B2091180156
:10379000FC013296222331F08091680287FF02C03B
:1037A0008EE101C086E0DF011D928A95E9F7089558
:1037B00008950C94D81B83E0809341020C94D91B8C
:1037C000811102C081E001C082E0809341020C942B
:1037D000D91B0C94E01B81E0809341020C94D91B0F
:1037E0000C94EB1B089580918902843031F10E9482
:1037F0007E031092420220E488E190E00FB6F89434
:10380000A895809360000FBE2093600083B7817FEE
:10381000846083BF83B7816083BF7894889583B7C2
:103820008E7F83BF0FB6F894A89580916000886161
:1038300080936000109260000FBE089508950C946C
:103840001E1CCF930E941F1C0E944E140E941E1C1F
:10385000C0E08C2F0E947813892B29F4CF5FC430ED
:10386000C1F780E001C081E0CF9108950E947808FF
:103870000C94F5031F920F920FB60F9211248F93A1
:103880009F93AF93BF9380914202811113C08091A7
:10389000810290918202A0918302B09184024196AC
:1038A000A11DB11D8093810290938202A093830297
:1038B000B0938402BF91AF919F918F910F900FBEF3
:1038C0000F901F90189582E084BD93E095BD9AEF0C
:1038D00097BD80936E0008952FB7F8948091810270
:1038E00090918202A0918302B09184022FBF08952B
:1038F0002FB7F894609181027091820280918302C7
:10390000909184022FBF08959C014FB7F894809145
:10391000810290918202A0918302B09184024FBFF4
:10392000821B930B089578941F920F920FB60F92FB
:1039300011248F939F93AF93BF93809181029091B5
:103940008202A0918302B09184020196A11DB11D53
:103950008093810290938202A0938302B0938402A9
:10396000BF91AF919F918F910F900FBE0F901F90BD
:10397000189587E797E790930108809300089AE0ED
:1039800088E10FB6F894A895809360000FBE9093DD
:103990006000FFCF809166020895089522E0209391
:1039A000E9002FEF3091E800215035FD06C035EDDC
:1039B0003A95F1F700002111F5CF2091E80025FF9D
:1039C0000BC040E050E066E070E00E940D1F809167
:1039D000E8008E778093E8000895CF93DF932091DD
:1039E0001801222339F02091680227FF03C060E20A
:1039F00022E002C068E021E02093E9002FEF30913F
:103A0000E800215035FD06C035ED3A95F1F700008C
:103A10002111F5CF2091E80025FF1DC0EC01809118
:103A20001801811105C040E050E068E070E003C07B
:103A300070E040E050E0CE010E940D1F8091E80050
:103A40008E778093E80080E2FE01A6E4B2E0019068
:103A50000D928A95E1F7DF91CF910895809343020B
:103A6000709345026093440280918902843001F58D
:103A700082E08093E9008FEF9091E800815095FDFE
:103A800006C095ED9A95F1F700008111F5CF809170
:103A9000E80085FF0DC040E050E063E070E083E4A3
:103AA00092E00E940D1F8091E8008E778093E800DD
:103AB0000895BC0184E00C942E1DBC0183E00C949D
:103AC0002E1D80918802811109C00E949E200E94B3
:103AD000FB208091E20084608093E20008951092C0
:103AE000880208950C94F01B6091850281E06111B9
:103AF00001C080E00C94DB1B9091890281E094303E
:103B000009F080E0609185020C94E01B42E061ECDA
:103B100081E00E94172042E261EC82E00E941720BF
:103B20009091890281E0943009F080E060918502F3
:103B30000C94E91B80918B02833009F461C030F44E
:103B4000813071F0823009F49AC008958A3009F406
:103B500086C08B3009F46CC0893009F0A8C020C041
:103B600080918A02813A09F0A2C08091E800877FA3
:103B70008093E80080918E0290918F02892B21F42E
:103B800060E286E492E003C060E080E090E070E0F4
:103B90000E94581F8091E8008B778093E800089579
:103BA00080918A02813209F082C080918E029091C8
:103BB0008F02029708F07BC08091E800877F809396
:103BC000E8008091E80082FD05C0809189028111A2
:103BD000F8CF6DC02091F3008091F20090E0922B1D
:103BE000029731F48091F100813011F0863021F498
:103BF0008091F100809366028091E8008B7753C03A
:103C000080918A02813A09F052C080918E0290918F
:103C10008F02892B09F04BC08091E800877F809349
:103C2000E8008091E80080FFFCCF8091180136C049
:103C300080918A028132D9F580918E0290918F0213
:103C4000892BA9F58091E800877F8093E8000E9486
:103C50004C2080918C02809318010C9478088091FC
:103C60008A02813221F58091E800877F8093E80005
:103C70000E944C2080918D0280936702089580916C
:103C80008A02813AA1F48091E800877F8093E8005E
:103C90008091E80080FFFCCF809167028093F10063
:103CA0008091E8008E778093E8000C944C20089572
:103CB00084B7877F84BF0FB6F894A8958091600081
:103CC000886180936000109260000FBE90E080E8F1
:103CD0000FB6F89480936100909361000FBE0C942E
:103CE000EB1B0E949E200E94FB20E2EEF0E0808110
:103CF0008460808378940C9490238CE091E00C9401
:103D0000B21A809189028530A9F4809189028530A8
:103D100079F40E94F31B809187028823B1F30E94FB
:103D2000211C882391F30E94F71E0E947808EDCF92
:103D30000C94361C089508950C949E1E292F332749
:103D400023303105C9F060F42130310581F0223093
:103D5000310509F044C08BE390E024E933E043C02F
:103D600021323105E1F02232310549F138C082E1DA
:103D700090E02FEC33E037C099278130910549F06E
:103D800028F0029761F5E4E6F3E005C0E0E9F3E02E
:103D900002C0E0E8F3E0849190E09F0124C0611547
:103DA000710541F061307105D1F489E090E02FEBAD
:103DB00033E019C089E090E026EA33E014C06115D1
:103DC000710541F06130710551F48CEB90E021EE0A
:103DD00033E009C080E490E02DE934E004C080E0E5
:103DE00090E020E030E0FA0131832083089580E103
:103DF00089BD82E189BD09B400FEFDCF8091D80064
:103E00008F7D8093D8008091E00082608093E000F5
:103E10008091E00081FDFCCF0895CF92DF92EF9278
:103E2000FF920F931F93CF93DF93EC018B017A01E5
:103E30000E946B20811133C0E114F10439F0F701C5
:103E400080819181081B190BC80FD91FC12CD12C5F
:103E50000115110519F18091E80085FD16C08091CA
:103E6000E8008E778093E800E114F10449F0F7014F
:103E700080819181C80ED91ED182C08285E00FC099
:103E80000E946B20882321F30AC089918093F1005E
:103E900001501109FFEFCF1ADF0ADACF80E0DF917E
:103EA000CF911F910F91FF90EF90DF90CF900895E9
:103EB00020919002309191022617370748F0611542
:103EC000710539F42091E8002E772093E80001C0B5
:103ED000B901FC0120E06115710579F18091890239
:103EE0008823F1F18530F1F18091E80083FD3CC039
:103EF0008091E80082FD2EC08091E80080FFEBCF2A
:103F00002091F3008091F20090E0922B61157105F1
:103F100051F08830910538F421912093F1006150DF
:103F200071090196F3CF21E0089709F020E0809114
:103F3000E8008E778093E800CECF2111CFCF0AC062
:103F400080918902882361F0853061F08091E800DA
:103F500083FD0AC08091E80082FFF2CF80E00895DF
:103F600082E0089583E0089581E008952091900211
:103F7000309191022617370748F06115710539F421
:103F80002091E8002E772093E80001C0B901FC01E0
:103F900020E06115710591F180918902882309F46F
:103FA00040C0853009F43FC08091E80083FD3DC0EA
:103FB0008091E80082FD2FC08091E80080FFE9CF6A
:103FC0002091F3008091F20090E0922B6115710531
:103FD00059F08830910540F424912093F1003196F6
:103FE000615071090196F2CF21E0089709F020E0B5
:103FF0008091E8008E778093E800CBCF2111CCCF61
:104000000AC080918902882361F0853061F0809137
:10401000E80083FD0AC08091E80082FFF2CF80E0D3
:10402000089582E0089583E0089581E00895982F2F
:10403000973068F59093E900981739F07091EC008B
:104040002091ED005091F00003C0242F762F50E016
:1040500021FD02C09F5FECCF3091EB003E7F30939B
:10406000EB003091ED003D7F3093ED003091EB009F
:1040700031603093EB007093EC002093ED0050938F
:10408000F0002091EE0027FDE5CF80E008958F70CD
:104090008093E90081E0089580918A0287FF11C032
:1040A0008091E80082FD05C0809189028111F8CFDE
:1040B00011C08091E8008B770BC080918902882322
:1040C00049F08091E80080FFF8CF8091E8008E777A
:1040D0008093E80008952091E4003091E50095E692
:1040E0004091EC00842F817040FF23C08091E80054
:1040F00080FD1DC080918902882399F0853099F058
:104100008091EB0085FD11C04091E4005091E500E5
:104110002417350729F3915011F09A01E1CF84E07B
:10412000089582E0089583E0089581E0089580E095
:1041300008954091E80042FFDDCF08950E940C21D0
:104140000E941421E0EEF0E0808181608083E8ED40
:10415000F0E080818F77808319BCA7EDB0E08C916F
:104160008E7F8C9380818F7E808310928802089549
:104170000F931F93CF93DF930E940C210E94142171
:10418000C8EDD0E088818F778883888180688883B4
:1041900088818F7D888319BC1092890210928502D4
:1041A000109287021092860200EE10E0F8018081E2
:1041B0008B7F808388818160888342E060E080E03B
:1041C0000E941720E1EEF0E080818E7F8083E2EE96
:1041D000F0E0808181608083808188608083F80145
:1041E00080818E7F8083888180618883DF91CF91F9
:1041F0001F910F910895E8EDF0E080818F7E80831C
:10420000E7EDF0E080818160808384E082BF81E01F
:10421000809388020C94B820E8EDF0E080818E7FD6
:1042200080831092E20008951092DA001092E1006B
:1042300008951F920F920FB60F9211242F933F9360
:104240004F935F936F937F938F939F93AF93BF939E
:10425000EF93FF938091E10082FF0BC08091E20019
:1042600082FF07C08091E1008B7F8093E1000E9474
:104270008F238091DA0080FF1FC08091D80080FFDB
:104280001BC08091DA008E7F8093DA008091D90084
:1042900080FF0DC080E189BD82E189BD09B400FEC7
:1042A000FDCF81E0809389020E94611D05C019BC89
:1042B000109289020E946F1D8091E10080FF19C059
:1042C0008091E20080FF15C08091E2008E7F809394
:1042D000E2008091E20080618093E2008091D8004A
:1042E00080628093D80019BC85E0809389020E9487
:1042F000741D8091E10084FF30C08091E20084FF52
:104300002CC080E189BD82E189BD09B400FEFDCFEA
:104310008091D8008F7D8093D8008091E1008F7EBE
:104320008093E1008091E2008F7E8093E200809193
:10433000E20081608093E20080918502882311F081
:1043400084E007C08091E30087FD02C081E001C0E6
:1043500083E0809389020E947C1D8091E10083FFAD
:1043600029C08091E20083FF25C08091E100877F12
:104370008093E10082E0809389021092850280910F
:10438000E1008E7F8093E1008091E2008E7F809338
:10439000E2008091E20080618093E20042E060E010
:1043A00080E00E9417208091F00088608093F000E8
:1043B0000E94721DFF91EF91BF91AF919F918F91DC
:1043C0007F916F915F914F913F912F910F900FBE11
:1043D0000F901F9018951F920F920FB60F921124F5
:1043E0002F933F934F935F936F937F938F939F93FD
:1043F000AF93BF93CF93DF93EF93FF93C091E90007
:10440000CF708091EC00D82FD17080FDD0E8109251
:10441000E9008091F000877F8093F00078940E94FB
:104420002F221092E9008091F00088608093F000C4
:10443000CD2BCF70C093E900FF91EF91DF91CF9129
:10444000BF91AF919F918F917F916F915F914F91AC
:104450003F912F910F900FBE0F901F9018951F93B3
:10446000CF93DF93CDB7DEB7AA970FB6F894DEBF30
:104470000FBECDBFEAE8F2E08091F100819322E027
:10448000E239F207C9F70E949A1D8091E80083FF84
:104490002EC180918A0290918B02492F50E04A30C0
:1044A000510508F024C1FA01EC58FF4F0C94BF23CA
:1044B000803821F0823809F01AC108C08091860244
:1044C00090918702992389F082600FC080918E02BB
:1044D0008F70873008F00BC18093E9008091EB006A
:1044E00085FB882780F91092E9009091E800977F7A
:1044F0009093E8008093F1001092F100D1C0282F32
:104500002D7F09F0F4C0882319F0823061F0EFC0EC
:1045100080918C02813009F0EAC0933009F080E08C
:10452000809387022EC080918C0281112AC08091D5
:104530008E028F702FEF280F263008F0D8C080939E
:10454000E9002091EB0020FF1CC0933021F4809102
:10455000EB00806214C09091EB0090619093EB00AF
:1045600021E030E0A90102C0440F551F8A95E2F70F
:104570004093EA001092EA008091EB0088608093FB
:10458000EB001092E9008091E800877F8093E800BB
:104590000E944C20ACC08111AAC010918C021F77E0
:1045A0008091E3008078812B8093E3008091E80084
:1045B000877F8093E8000E944C208091E80080FF74
:1045C000FCCF8091E30080688093E300111102C06A
:1045D00082E001C083E08093890289C080588230E4
:1045E00008F085C080918C0290918D028C3D53E043
:1045F000950779F583E08A838AE289834FB7F89437
:10460000DE01139620E03EE051E2E32FF0E050930C
:104610005700E49120FF03C0E295EF703F5FEF7019
:104620008E2F90E0EA3010F0C79601C0C0968D93AF
:104630009D932F5F243149F74FBF8091E800877F1A
:104640008093E8006AE270E0CE0101960E94581F54
:1046500016C060918E0270918F02AE014F5F5F4F66
:104660000E949C1EBC01892B09F441C09091E80076
:10467000977F9093E80089819A810E94B61F80916C
:10468000E8008B778093E80032C0803881F5809114
:10469000E800877F8093E800809185028093F10095
:1046A0008091E8008E7772CF811121C080918C02B9
:1046B00090918D0299270297D4F48091E800877F2A
:1046C0008093E80080918C02809385020E944C20A8
:1046D00080918502811106C08091E30087FD02C0B0
:1046E00081E001C084E0809389020E94861D809150
:1046F000E80083FF0AC08091E800877F8093E8008C
:104700008091EB0080628093EB00AA960FB6F8943C
:10471000DEBF0FBECDBFDF91CF911F9108950895E9
:10472000CF93809189028823A1F0C091E900CF70D6
:104730009091EC00892F817090FD80E8C82B109239
:10474000E9008091E80083FD0E942F22CF70C09382
:10475000E900CF91089597FB072E16F4009407D037
:1047600077FD09D00E94C52307FC05D03EF4909543
:1047700081959F4F0895709561957F4F0895EE0F35
:10478000FF1F0590F491E02D0994AA1BBB1B51E17A
:1047900007C0AA1FBB1FA617B70710F0A61BB70BB1
:1047A000881F991F5A95A9F780959095BC01CD0156
:1047B0000895FB01DC0104C08D910190801921F462
:1047C00041505040C8F7881B990B0895F999FECFC6
:1047D00092BD81BDF89A992780B50895A8E1B0E00F
:1047E00042E050E00C941A24262FF999FECF92BD96
:1047F00081BDF89A019700B4021639F01FBA20BDA6
:104800000FB6F894FA9AF99A0FBE08950396272FD7
:104810000E94F5230E94F423252F0E94F523242FC4
:104820000C94F5230196272F0E94F5230C94F42372
:10483000DC01CB01FC01F999FECF06C0F2BDE1BD60
:10484000F89A319600B40D9241505040B8F708954F
:04485000F894FFCF0A
:10485400C800F2012808641E140A321ECA1CED1C8A
:10486400CE1C5D1D591DCD1C01E200E900EA00B516
:1048740000B600B700CD008301CC008A01920194F8
:10488400012102230224022502260227022A02B35E
:1048940000B4006F007000818283E200E900EA0046
:1048A400B500B600B700CD008301CC008A019201A7
:1048B40094012102230224022502260227022A024D
:1048C400B300B4006F00700081828397C6343592C0
:0A48D40093F7313332369190946669
:00000001FF
