:100000000C949A030C94E1030C94E1030C94E10327
:100010000C94E1030C94E1030C94E1030C94E103D0
:100020000C94E1030C94E1030C94E61C0C94221C48
:100030000C94AD210C94E1030C94E1030C94E103C6
:100040000C94E1030C94E1030C94E1030C94E103A0
:100050000C94E1030C94C1200C94E1030C94E10393
:100060000C94E1030C94E1030C94E1030C94E10380
:100070000C94E1030C94E1030C94E1030C94E10370
:100080000C94E1030C94E1030C94E1030C94E10360
:100090000C94E1030C94E1030C94E1030C94E10350
:1000A0000C94E1030C94E1030C94E1037D097D09B8
:1000B000B009B009410A5F0A850B850B6A0ADE0A9E
:1000C000EF0AEF0A74118E119511CD11DE11E911AD
:1000D000F51104121F120C121F121F121F121412FC
:1000E000281A4F1A041C4F1A041C9B1ABE1A041C0F
:1000F000BF1BCF1B6C296C297F297F2975297F297C
:100100007F297F296C296C297A297F297F297A29DF
:1001100000000000000000000000000000000000DF
:1001200000000000000000000000000000000000CF
:10013000000000007E0F00D4FFFFFFC70000007822
:1001400000000000000000002A2B28000000000032
:100150000000000000000000000000290000000076
:100160002C1E3420212224342627252E362D3738E4
:10017000271E1F202122232425263333362E3738ED
:100180001F0405060708090A0B0C0D0E0F101112AB
:10019000131415161718191A1B1C1D2F3130232D77
:1001A000350405060708090A0B0C0D0E0F10111275
:1001B000131415161718191A1B1C1D2F3130354C26
:1001C00000047F3F1F643214643214783C1E1E14F6
:1001D0000A05FD377A585A000004E6D6B4460200F4
:1001E000210116000000742FE5A3E0028E011A5DC4
:1001F000003D8889C65436C3174FE4E457009E97E4
:1002000005FBD138962B70403443AC23A1D179281B
:1002100084F0AC4AEC22099722EE3471671CA1B23B
:1002200085D8B16289FE62237D5953EF52BABDB7BA
:10023000860A8DA820BB5C84560D3F4E1F829BE42E
:10024000858B4AA7A635E634BFCED107DB0C6A8A78
:10025000643D30F7BCD2135F241073A6570282FAB4
:100260004C788061AB9A6ED9A551EC2D4AB5A58921
:1002700061E3154C006B707A03C46D2840239E1B0C
:10028000EEB607F3493DD6205F6110FC7D3957EC8F
:100290005573EE032348FD1509A6D5A33E5B02B5B1
:1002A00061E1A9BB05CAAF2A360E8239BCAA499CB6
:1002B0005F6FB63E5C6E04058F9EAEEF8D4C837E05
:1002C000298E11830A5A34B3CC59E6127F276DF771
:1002D00088D1316BBFDC8E66A7713BE9F7ABFAF6CC
:1002E000DBF86574A5002D6895A5881FAE371FDD66
:1002F00014F5FC5969790259AE73F9493D732DA87B
:1003000082B9B3D25A3AC30B21888400000060FC42
:10031000BE3772AF909B0001B6028F0500005313E9
:10032000F7C6B1C467FB020000000004595A05017A
:100330000902A10185020901A10005091901290588
:10034000150025019505750181029501750381014F
:100350000501093009311581257F9502750881064F
:1003600009381581257F950175088106050C0A3825
:10037000021581257F950175088106C0C005010918
:1003800080A101850319012AB700150126B7009540
:100390000175108100C0050C0901A1018504190136
:1003A0002AA002150126A002950175108100C00641
:1003B00060FF0961A1010962150026FF0095207503
:1003C0000881020963150026FF0095207508910237
:1003D000C005010906A101050719E029E715002557
:1003E00001950875018102950175088101050719BC
:1003F0000029FF150026FF009506750881000508F5
:100400001901290595057501910295017503910161
:10041000C009025B00030100A0FA09040000010307
:10042000010100092111010001224000070581039B
:1004300008000A090401000203000000092111015B
:1004400000012222000705820320000107050303A3
:10045000200001090402000103000000092111012C
:1004600000012281000705840320000A1201000216
:1004700000000008666673660100010203011C03A8
:100480007600690061006C003A00660036003400B6
:100490006300320062003300630000001A03500062
:1004A0003400390020004B006500790062006F00C5
:1004B00061007200640000000E03500061006200E1
:1004C00069006C006500000004030904222325264E
:1004D00028292A2C2D2F3032333536383A3B3D3EF1
:1004E0004042434547494A4C4E5051535557595A3B
:1004F0005C5E6062646668696B6D6F717375777955
:100500007B7D7F81838587898A8C8E909294969853
:100510009A9C9E9FA1A3A5A7A8AAACAEAFB1B3B465
:10052000B6B8B9BBBCBEBFC1C2C3C5C6C7C9CACBBA
:10053000CCCDCED0D1D2D2D3D4D5D6D7D7D8D9D985
:10054000DADADBDBDBDCDCDCDCDCDDDDDDDDDCDCEE
:10055000DCDCDCDBDBDBDADAD9D9D8D7D7D6D5D40B
:10056000D3D2D2D1D0CECDCCCBCAC9C7C6C5C3C2D7
:10057000C1BFBEBCBBB9B8B6B4B3B1AFAEACAAA82C
:10058000A7A5A3A19F9E9C9A98969492908E8C8AE0
:1005900089878583817F7D7B79777573716F6D6BBB
:1005A0006968666462605E5C5A5957555351504E93
:1005B0004C4A4947454342403E3D3B3A3836353345
:1005C00032302F2D2C2A29282625232229001E00EF
:1005D0001F002000210022002300350014001A0013
:1005E0000800150017001C002B000400160007006F
:1005F00009000A000B00E5001D001B0006001900A1
:1006000005001100E000E300E2002A002C00E600F3
:10061000760018000C00120013002A000D000E00D6
:100620000F002D001000360037003800E4000001F4
:1006300001010101010101010202020202020202A2
:100640000203030303030303030404040404040474
:100650000505050505060606060607070707070838
:10066000080808090909090A0A0A0B0B0B0C0C0CEB
:100670000D0D0D0E0E0E0F0F0F1010111111121285
:1006800013131414151516161717181819191A1A02
:100690001B1B1C1D1D1E1E1F202021222223242463
:1006A000252626272829292A2B2C2D2D2E2F30319F
:1006B0003232333435363738393A3B3C3D3E3F40B1
:1006C0004142434445464748494A4C4D4E4F50519C
:1006D0005354555658595A5B5D5E5F616264656656
:1006E00068696B6C6D6F7072737577787A7B7D7EDD
:1006F0008082838587888A8C8E8F91939596989A2D
:100700009C9EA0A2A3A5A7A9ABADAFB1B3B5B7BA44
:10071000BCBEC0C2C4C6C9CBCDCFD1D4D6D8DBDD18
:10072000DFE2E4E7E9EBEEF0F3F5F8FAFDFFFFAA0C
:100730007F55400011241FBECFEFDAE0DEBFCDBFF2
:1007400004B603FE27C08091F5029091F602A091B5
:10075000F702B091F8028730904BA740B04BD1F42C
:100760001092F5021092F6021092F7021092F8021F
:1007700014BE84B7877F84BF0FB6F894A895809184
:100780006000886180936000109260000FBEE0E01E
:10079000F8E3099511E0A0E0B1E0EEEFF6E502C064
:1007A00005900D92A83AB107D9F722E0A8EAB1E086
:1007B00001C01D92A53FB207E1F70E94EE0B0C9419
:1007C0007D2B0C940000AF92BF92CF92DF92EF92FC
:1007D000FF920F931F93CF93DF93EC018AE0A82E33
:1007E0002881222309F497C0213009F041C0898172
:1007F000813039F48E010E5F1F4F8A810E944B2A8F
:1008000008C0823041F48E010E5F1F4F8A810E9422
:10081000EC29E8017EC0833039F48E010E5F1F4F52
:100820008A810E94B429F5CF843011F0219671C0DD
:100830002A81229680E090E030E0205331092A306E
:10084000310558F4A89EA001A99E500D1124C9019C
:10085000840F951F21962881EFCF009709F459C086
:10086000EFE9FFE03197F1F700C000000197F5CF05
:10087000E22FF0E0E05CFE4FB490822F86958695E3
:10088000869590E0FC01E05DFE4FE4902770F12C2E
:10089000022E02C0F594E7940A94E2F7F1E0EF2209
:1008A000FF24FC01E05EFE4FC490D12C022E02C05A
:1008B000D594C7940A94E2F731E0C322DD24FC0109
:1008C000E05FFE4F049110E002C0159507952A9550
:1008D000E2F701701127E114F10419F081EE0E9492
:1008E000EC29C114D10419F086EE0E94EC298B2D5D
:1008F0000E944B2ACD2819F086EE0E94B429EF28D9
:1009000019F081EE0E94B429012B19F08CE20E94AB
:100910004B2A219665CFDF91CF911F910F91FF90C8
:10092000EF90DF90CF90BF90AF900895DF92EF925D
:10093000FF920F931F93CF93DF93CDB7DEB76797E7
:100940000FB6F894DEBF0FBECDBF4B8B5C8B162F5E
:100950006D8B7E8B8F8B611110920F02DE011D96C5
:1009600086E0FD0111928A95E9F785E0FE01739614
:1009700001900D928A95E1F7DB880C89EE88FF885B
:100980008091AC0182FD26C00E94022120910B02C1
:1009900030910C02821B930B8838934140F0809178
:1009A0000D0282FB992790F981E0892701C080E040
:1009B00080FF03C082E00E940D160E940221209158
:1009C000110230911202821B930B8838934110F070
:1009D0000E94B715DD860E871F87F98AE88A86E0B0
:1009E000FE013D96DE01179601900D928A95E1F782
:1009F000CE0107960E94D91681113EC086E0FE0105
:100A00003796DE01119601900D928A95E1F7FF81EC
:100A1000E8856A857B856115710531F0EF3F31F41A
:100A200081E0FF3F19F403C081E001C080E080FD58
:100A300023C02091D80130E0C90101968770992721
:100A40004091090250E08417950779F1F983EA8310
:100A50007D836C8396E0929FD001939FB00D11240B
:100A6000A752BE4FFE01319601900D929A95E1F783
:100A70008093D8010E94631616E08091090290913C
:100A8000D8018917F9F0189FC001112487529E4F91
:100A90000E94D9168823B1F08091090290E0019656
:100AA0008770992780930902E8CF0E9483291092CA
:100AB000D80110920902E2EDF1E086E0DF011D921B
:100AC0008A95E9F767960FB6F894DEBF0FBECDBFE3
:100AD000DF91CF911F910F91FF90EF90DF900895DC
:100AE0008F929F92AF92BF92CF92DF92EF92FF923E
:100AF0000F931F93CF93DF93CDB7DEB729970FB630
:100B0000F894DEBF0FBECDBFFC01808191812381AF
:100B10003481232B31F09F3F31F491E08F3F19F462
:100B200003C091E001C090E090FD18C66F0185E020
:100B3000DE01119601900D928A95E1F7F60122816E
:100B400089819A81222349F00E949F28182F682FBB
:100B500089819A810E940B2903C00E94DB28182FEB
:100B600069817A81812F0E94CA238C01F6018281DA
:100B7000882309F482C0980122513F452031310574
:100B800008F097C08FEF93E00E94722A81117FC016
:100B90002EEEF22EF00E0FEB11E0FF2071F001159A
:100BA000F4E01F0709F473C0C8010E94722A811182
:100BB00001C0FA940F5F1F4FF0CF1E821F8218866C
:100BC0001986AA24AA9478012FEFE21AF20AC80122
:100BD0000E94722A8E831F82882309F458C08130B4
:100BE00009F046C0480182E0880E911CC7010E94AE
:100BF000722A8F83882309F44AC09FEF980F93309D
:100C000060F4780193E0E90EF11CC4010E94722A9D
:100C1000888781112DC08701D6CF843011F07401EF
:100C2000FACFC4010E94722AB82E7801E4E0EE0ED9
:100C3000F11CC80103960E94722ABB2041F188234F
:100C400031F1282F30E021503109A29EA001A39E4E
:100C5000500D11248B2D90E00197840F951F019763
:100C6000D0F2EFE9FFE03197F1F700C00000F7CFD5
:100C7000CE0106960E94E303CECF00319FE519070F
:100C800009F063C581E00E943C290E9435198091DA
:100C90000D02877009F462C5F6018281882309F488
:100CA0005DC58091AC0182FD59C582E00E940D16A0
:100CB00055C50031FFE51F0711F481E005C0013182
:100CC0002FE5120721F482E00E944829DECF033F7E
:100CD000FCE51F0749F406E221EE40EE63EF7CE5F8
:100CE000C6010E942822D3CF043F2CE5120708F04A
:100CF00050C1083D9CE5190731F407E225EE45EEA9
:100D000068ED7CE5EDCF093DECE51E0731F408E226
:100D100021E045EE69ED7CE5E3CF073DFCE51F07EB
:100D200031F406E221EE41EE67ED7CE5D9CF882370
:100D300009F464C11092BC0203302DE5120758F487
:100D40000A3F8CE5180760F4C80182509C4544971F
:100D500008F03EC105C001369DE5190709F038C10C
:100D60000E9431159093AC018093AB010031ECE50A
:100D70001E0709F4CAC008F041C008302CE512076C
:100D800009F4A4C0F0F404309CE5190709F48CC000
:100D900068F40230FCE51F0709F482C003301C45EB
:100DA00009F0E7C08091AB018260E1C006308CE5BC
:100DB000180709F483C008F085C08091AB018860F2
:100DC000D6C00C30ECE51E0709F490C068F40A3078
:100DD0002CE5120709F47EC008F084C00E94832924
:100DE0008091AB018068C3C00E309CE5190709F4FF
:100DF00081C008F086C08091AB0194C00C3FFCE537
:100E00001F0709F47BC038F504318CE5180709F495
:100E10009AC058F40231ECE51E0709F47AC008F0D4
:100E20007EC08091AB018F7BA2C00A3F2CE51207E8
:100E3000F1F108F03FC005311C4509F09AC08091DE
:100E4000AB0182FB222720F991E0922790FB82F9E7
:100E500090FB83F98CC00115EDE51E0709F467C00E
:100E600050F48091AC010E3F2CE51207C1F108F05F
:100E70005BC08D7F65C00230EDE51E0709F471C0CF
:100E800008F46DC001361D4509F073C08091AB01B7
:100E900084FB222720F991E0922790FB84F967C018
:100EA0008091AB01816063C08091AB0116C08091DD
:100EB000AC0116C08091AC01826042C08091AB0150
:100EC000806155C08091AB01806251C08091AB01BF
:100ED00080644DC08091AB018860846048C08260AE
:100EE00081602EC08091AB018E7F41C08091AB01AB
:100EF0008D7F3DC08091AB01877F39C08091AC016F
:100F000014C08091AB018F7E32C08091AB018F7D88
:100F10002EC00E9483298091AB018F7728C08091D9
:100F2000AB01877F8B7F23C08D7F8E7F09C080912F
:100F3000AC01982F909591708E7F892B90FB81F951
:100F40008093AC0116C00E9483298091AB0187FB7E
:100F5000222720F991E0922790FB87F908C061E0F1
:100F600001C060E08EE090E00E94862A02C080937B
:100F7000AB016091AB011091AC0184E090E00E9464
:100F8000862A612F82E290E00E94862A0E948329AD
:100F90007ECE053F2CE5120731F406E221EE42EE4B
:100FA00065EF7CE59DCE053F9CE5190730F407E22F
:100FB00025EE44EE64EF7CE593CE063FECE51E079C
:100FC00009F0B5CE07E225EE46EE66EF7CE588CE69
:100FD000809110020631FCE51F0749F58A7A91E0FD
:100FE00009F490E09093AA01882311F065E301C011
:100FF00069E28AEC91E00E94D62116C006311C45B8
:1010000009F02EC18091AA01882309F4A5C385E3C4
:10101000EAECF1E020ED31E09281891301C0128207
:1010200031962E173F07C1F70E94C91530CE827244
:101030000C3C9CE5190709F4C2C008F045C0063C09
:10104000FCE51F0709F4A7C0D8F4033C9CE5190789
:1010500009F497C030F4023CFCE51F0709F46CC0AA
:10106000CEC0043C2CE5120709F490C0053C9CE579
:10107000190709F0C4C042EC56E26BEC76E2A3C05B
:10108000093CECE51E0709F490C078F4073C2CE518
:10109000120709F485C0083C9CE5190709F0AFC0A8
:1010A00046EB56E26AEA76E28EC00A3CECE51E07A1
:1010B00009F480C00B3CFCE51F0709F0A0C04BE021
:1010C00055E26CE175E27FC0013D2CE5120709F4A1
:1010D00086C0A0F40E3C9CE5190709F47AC008F418
:1010E00075C00F3CFCE51F0709F476C0003D2CE5F8
:1010F000120709F084C06EE089E079C0043D8CE5F8
:10110000180709F472C068F4023DECE51E0709F403
:1011100069C0033DFCE51F0709F071C061E088E18B
:101120006BC0053D2CE5120709F464C00D358DE553
:10113000180709F4ACCD63C08091B00280FF1BC0DA
:101140008E7F8093B0026091B0027091B102809165
:10115000B2029091B3020E94F9241092DF029FEF35
:10116000E0E7F2E09150E040F040E1F700C000001D
:101170000E9498248CCD81608093B00261E08695B6
:101180003BC046E157E26FE177E21DC04FE157E215
:1011900066E177E218C04BEC56E262EC76E213C0EF
:1011A0004AEA56E266EB76E20EC042E956E26EE9A2
:1011B00076E209C04EE956E262E976E204C04CE10B
:1011C00055E26BE075E20E94922461CD61E081E01E
:1011D00013C065E082E00BC068E086E008C064E10F
:1011E0008FE005C067E185E102C062E289E10E940B
:1011F00080244DCD61E083E20E94D42648CD0A359B
:101200002DE5120741F150F401159CE51907A9F0ED
:101210000E3D1C4529F50E944D1539CD0B35FDE5D8
:101220001F07D9F00C351D45D9F48091AC0182FB24
:10123000882780F991E0892711C00E9483298FEFC8
:1012400094E3ECE081509040E040E1F700C0000002
:101250000E94B0201CCD81E001C080E00E942A16CF
:10126000F601828100811181882349F0C8010E9422
:101270009F28F82E682FC8010E940B2904C0C801BE
:101280000E94DB28F82EB8018F2D0E94CA230E94ED
:101290009713E82E192FA82EF6010281F580F294FB
:1012A0009FE0F92280910D028770B9F00023A9F028
:1012B000812F807F803421F080E28E0D883068F0AD
:1012C0008091AC0182FD09C082E00E940D168091E0
:1012D0000D028770BB24B3948111B12C912E92948E
:1012E0008FE09822892D90E08C30910508F00DC296
:1012F000FC01EA5AFF4F0C94122B812F807F1F7044
:10130000882311F01295107F0023B9F0112309F4FE
:10131000E9C180E28E0D883010F0A11006C08091E6
:101320001002182B1093100205C080910F02182B89
:1013300010930F020E94C915D5C18E2D0E94B429A9
:10134000112309F4E2C180E28E0D883088F1AA20D1
:1013500079F1109580910F02182310930F022BC082
:10136000812F807F1F70803211F01295107F8E2D9B
:10137000AA2029F0F1E0AF1609F45EC069C080919F
:10138000AC0182FF1BC0002369F0112339F080916A
:101390001002812B809310020E94C91580E00E94E8
:1013A000EC29B3C180E00E94B429112309F4ADC136
:1013B000812F0E94C2150E94C915A7C1002331F1D7
:1013C000FF20F1F021E0F2120FC080911302182BE0
:1013D000181709F49AC10E94022190931202809377
:1013E00011021093130291C185E0F81209C00E9406
:1013F000B71580910A021817A9F110930A0232C09A
:1014000080911302812B0E94AA297FC1FF2051F0F5
:1014100091E0F9120DC080911002812309F475C189
:101420000E945D160E94B715812F0E94A3296DC1ED
:10143000E5E0FE12F7CF69C1002329F0F5E0FF15C2
:1014400008F463C10FC024E02F1508F45EC1ECCF8F
:10145000002351F0FF2031F0F601858180FF42C169
:101460008F708583812FCFCFFF20F1F2893309F070
:1014700049C1FFEF27EE83E0F15020408040E1F7C3
:101480003FC1812F86958695837019F0813061F078
:101490003CC1002321F08E2D912F937002C080E07B
:1014A00090E00E94062237C1002321F08E2D912F5B
:1014B000937002C080E090E00E94F0212CC18E2D3C
:1014C000002319F00E941A2802C00E9453270E948C
:1014D000292721C1812F8370A9F501111AC14E2D31
:1014E000429546954770440F440F8E2D8F7090E0C3
:1014F0009C01042E01C0220F0A94EAF7E4FE08C002
:101500008FE090E001C0880F4A95EAF7809501C00E
:1015100080E0169516951370123069F088F490915A
:10152000B502113019F0822B892302C0922B892B2E
:101530000E945329EEC0822B9091B5028927F8CFE3
:10154000822BF6CF002319F0812F817001C0869580
:10155000882309F4DEC04E2D429546954770440F0E
:10156000440F8E2D8F7090E09C01042E01C0220F3D
:101570000A94EAF7E4FE08C08FE090E001C0880F0B
:101580004A95EAF7809501C080E01695169513708C
:10159000123059F078F490912E02113019F0822B0C
:1015A000892309C0922B892B06C0822B90912E0291
:1015B000892701C0822B0E943829ABC01F700023ED
:1015C00039F0812F0E9448298E2D0E94AA29A1C09E
:1015D0008E2D0E94A329812F0E943C299AC08E2D16
:1015E00092EFA91689F19A1538F0E0EFAE1659F08E
:1015F000F1EFAF1611F171C023EFA21661F194EF74
:10160000A916B9F06AC0002379F0E4E0EF1508F4F8
:101610007CC01F7181E090E001C0880F1A95EAF745
:1016200090912E02892721C0F5E0FF1508F46DC0C6
:10163000F0CF8091AC0182FF1BC0002339F0812FD5
:101640008F710E94482961C00023C9F3812F8F71D7
:101650000E943C295AC0002339F01F7181E001C06B
:10166000880F1A95EAF701C080E00E9438294DC022
:101670000023D9F080910A020E94C21580910D02C8
:101680008770843039F40E940616812F8F710E9472
:101690003C2959C024E02F1508F455C01F71812F33
:1016A0000E94482963E0812F11C09091100280911F
:1016B0000A02892B8093100284E08F1550F40E9457
:1016C00006160E945D1664E0812F8F710E944716F6
:1016D0003AC081E00E940D1636C0002329F0FF2099
:1016E00009F4ADCF8E2D5BCEFF2009F4AFCF893347
:1016F00049F49FEFE7EEF3E09150E040F040E1F76E
:1017000000C000008E2D0E94B42988EF890D84301E
:1017100010F40E941C22BB2009F180910D0280FD73
:101720001DC0F60112828595859585950E944829F0
:10173000C6010E94700580910D028595859585955D
:101740000E943C290BC0B12CE4CF0131EFE51E070C
:1017500009F0BDCA82E097CA89E25ACC29960FB631
:10176000F894DEBF0FBECDBFDF91CF911F910F91D7
:10177000FF90EF90DF90CF90BF90AF909F908F90B1
:1017800008959C013A9521153F4130F5BC0166272B
:101790007270AC01442754709C012227387094FF6A
:1017A0000FC090FF02C080E101C080E0672B09F00C
:1017B0008062452B09F08064232B79F080680895BE
:1017C000892F8170672B09F08260452B09F08460B6
:1017D000232B19F08860089580E00895CF93DF935C
:1017E000CDB7DEB7E2970FB6F894DEBF0FBECDBF20
:1017F00084B7877F84BF0FB6F894A8958091600066
:10180000886180936000109260000FBE90E080E8D5
:101810000FB6F89480936100909361000FBE85B776
:10182000806885BF85B7806885BF89E792E190931E
:10183000A9018093A8010E94661C0E94851C8091CA
:10184000E20084608093E2007894809124028823EF
:10185000A1F01091E9001F709091EC00892F817028
:1018600090FD80E8182B1092E9008091E80083FD3C
:101870000E9440191F701093E90082E084BD93E03C
:1018800095BD9AEF97BD80936E000E9467248111E9
:1018900002C00E94582405E211E0D8018D918D010B
:1018A0008F3F11F00E94BE12B1E00C321B07A9F766
:1018B0000CE211E0F80181918F018F3F11F00E943D
:1018C000BE12F1E003331F07A9F787E0E3ECF1E074
:1018D000DF01282F1D922A95E9F7EDEAF1E0DF01FB
:1018E0001D928A95E9F70E944215811102C00E945B
:1018F0004D1582E090E00E94722A8093B9010E9407
:1019000031159093AC018093AB010E94D512BFEFCB
:10191000E6E7F1E0B150E040F040E1F700C0000040
:101920000E94D5128091C30180FF08C06FEF7FEF46
:1019300080E090E00E94A42A0E94B02083E090E022
:101940000E94722A0E9453298091B401811133C0F0
:101950000E944215811104C00E944D150E942D2540
:1019600088E090E00E947A2A6093B0027093B102FE
:101970008093B2029093B3026E7F71F40E942D2582
:1019800088E090E00E947A2A6093B0027093B102DE
:101990008093B2029093B3020E94DF241092DF0280
:1019A0008091B00280FF04C060E086950E94D4263A
:1019B00081E08093B40153985B9A52985A9A89B106
:1019C00083FB882780F94A9B02C092E001C090E027
:1019D000892B8093B70180E091E09093C0028093BF
:1019E000BF02E8E16E2E712CF0E43F2EAAECCA2E65
:1019F000A1E0DA2E8E010F5F1F4F80912402853007
:101A000009F041C060E1E62E72E1F72E80912402D8
:101A1000853009F034C080912402843009F110929D
:101A2000C3020FB6F894A895609260000FBE309282
:101A3000600083B7817F846083BF83B7816083BF89
:101A40007894889583B78E7F83BF0FB6F894A89556
:101A500080916000886180936000109260000FBEEA
:101A600080912302882391F20E94D512E3ECF1E0E9
:101A7000819181110CC5CE16DF06D1F7C7CF0E9428
:101A800083290E941C220E94D51281110E94F620F7
:101A900053EC852E51E0952EAAEBB1E0F401E12C38
:101AA000F12C3E2D21919D91922721F180E0BB24C4
:101AB000B394492F4B21D1F089A73AA72B2181E07C
:101AC00009F480E08BA70E9402218160782F9DA7F6
:101AD0008CA749A55AA56BA58DA50E949604F70170
:101AE000E654FE4F8081B826B0821BC08F5FBB0CCE
:101AF0008730F9F68FEFE81AF80A97E0E916F10453
:101B000081F68FEF8EA78FA718AA0E94022181600D
:101B1000782F9AAB89AB4EA55FA568A98AA90E94C8
:101B200096048091DF02882309F498C08091DE0238
:101B3000E091B002E695E81BE093DA02823059F4B6
:101B4000F0E0E253FE4FE491EE2EF12C42E7A42E9A
:101B500040E2B42E5EC0863059F4F0E0E553FE4F0B
:101B6000E491EE2EF12C32E6A32E30E2B32E51C0DA
:101B7000893061F4E695F0E0E853FE4FE491EE2EF3
:101B8000F12C25EFA22E2FE1B22E43C08F3061F44D
:101B9000E695F0E0EB53FE4FE491EE2EF12C95E844
:101BA000A92E9FE1B92E35C0853159F4F0E0EE53EE
:101BB000FE4FE491EE2EF12C84E3A82E8FE1B82E97
:101BC00028C08831B1F0833249F4E0ECF1E0E590CF
:101BD000F490B2E2AB2EB0E2BB2E1BC0843289F08F
:101BE000F0EDEF2EF7E0FF2EAFE1AA2EAEE1BA2E18
:101BF00010C078E2E72EF12CE8EAAE2EEEE1BE2E20
:101C000008C054EFE52EFF24F3946BE6A62E6EE198
:101C1000B62E8091DB02882361F01092DB020E94D5
:101C200002219093D9028093D8021092DD02109283
:101C3000DC020E940221E091D802F091D9028E1BB1
:101C40009F0B8F3F9F4750F4EE0EFF1EF092D9027C
:101C5000E092D80288ED92E0F50109958091B701F4
:101C6000E82FEE0FEE0FE093B70189B183FB442418
:101C700040F8512C4A9B03C082E090E002C080E013
:101C800090E0842995298E2B8093B7018F70E82FDF
:101C9000F0E0ED5CFE4F90818091B601890F80935A
:101CA000B60184305CF08091B5018F5F8093B501FF
:101CB00060E080E00E94E62321E001C020E0809106
:101CC000B6018D3F54F48091B50181508093B501E8
:101CD00061E080E00E94E62321E08091B601082EB9
:101CE000000C990B64E070E00E94DC2A8093B6013E
:101CF00021110E94F62086E0E2EDF2E0D801019089
:101D00000D928A95E1F7A090D402B090D502E090B0
:101D1000D602F090D7021092D4021092D5021092FF
:101D2000D6021092D702A11003C0BB2009F451C003
:101D30008091D0029091D1020E94E7209C01909165
:101D4000CC02992309F4CBC32333310508F441C0F5
:101D50009F3F19F09F5F9093CC02AA2061F00E94F0
:101D6000FA271A1414F491E001C09FEF899F802D87
:101D700011248093D402BB2061F00E94FA271B1427
:101D800014F491E001C09FEF899F802D112480936E
:101D9000D5023091D4023323E1F02091D5022223E1
:101DA000C1F045EB3403C0011124992319F090933D
:101DB000D40203C081E08093D40235EB2303C00139
:101DC0001124992319F09093D50203C081E08093E8
:101DD000D502E11003C0FF2009F451C08091CE026A
:101DE0009091CF020E94E7209C019091CB02992311
:101DF00009F47AC32536310508F441C09F3F19F034
:101E00009F5F9093CB02EE2061F00E94D8271E14B2
:101E100014F491E001C09FEF899F802D11248093DD
:101E2000D602FF2061F00E94D8271F1414F491E01D
:101E300001C09FEF899F802D11248093D70230919C
:101E4000D6023323E1F02091D7022223C1F045EBE3
:101E50003403C0011124992319F09093D60203C0D2
:101E600081E08093D60235EB2303C001112499232E
:101E700019F09093D70203C081E08093D70280913C
:101E8000D40281110BC08091D502811107C08091CD
:101E9000D602811103C08091D70281110E942927A7
:101EA000AB82BC82ED82FE8286E0F801A2EDB2E058
:101EB00001900D928A95E1F70E941C229091B80141
:101EC000891721F00E941C228093B801809124027E
:101ED000843009F092CD83E08093E9008091E8009E
:101EE00082FF8BCD8091E80085FF21C00E94BD1D3F
:101EF00081111BC040E2E42EF12C580109C08091F1
:101F0000F100D5018D935D01B1E0EB1AF10869F0A4
:101F10008091E80085FDF3CF8091E8008B77809376
:101F2000E8000E94BD1D882399F391E001C090E074
:101F30008091E8008B778093E800992309F45DCDC8
:101F4000E090B802F090B9028981E114F10461F0E7
:101F50008E3F09F074C28A81833008F4B9C185507C
:101F6000833008F06CC2B4C1893009F4E4C0D0F405
:101F7000843009F469C050F48230A1F108F055C0F2
:101F8000813009F05AC21A8289E044C2863009F4CD
:101F90006DC008F460C0873009F46BC0883009F464
:101FA000AAC04BC2803109F42FC180F48D3009F4EE
:101FB000CDC028F48C3009F040C280E129C18E30B8
:101FC00009F4C8C08F3009F4F0C037C2823109F477
:101FD00021C108F41CC1833109F446C18E3F09F4C4
:101FE00077C12BC28A81823009F470C2833051F0EC
:101FF000813009F022C20E94F6209B838C837D836E
:102000006E831DC28091100190911101892B09F4FA
:1020100016C2FE013396CE010A96D4012D914D01D0
:1020200021938E179F07C9F70AC28A81823009F06F
:1020300004C26B817C818D819E810E94182B86E277
:1020400090E00E94862AFBC14C816B818A810E94AC
:102050009C239D8342C22D813E8132272327322734
:102060004C816B818A810E940723E9C10E943D2334
:10207000E6C18A818138B1F050F4803809F0DFC1BF
:1020800020E04B816091B2028091B10231C0823870
:1020900059F1833809F0D3C120E04091B3026C813B
:1020A0008B8126C060E08B810E94D4269B81809129
:1020B000B002911111C08E7F8093B0021092DF02A6
:1020C000BFEFE0E7F2E0B150E040F040E1F700C0E0
:1020D00000000E949824B3C181608093B00260E048
:1020E00086950E94D426ABC18B818093B402A7C190
:1020F0000E94F025A4C18A81813891F030F48038A3
:1021000009F09DC18091B30285C1823889F083387E
:1021100009F095C18091B1028B838091B2024CC1CC
:102120008091B00280FF02C0869574C180E072C1C8
:102130008091B4026FC16091B0027091B102809140
:10214000B2029091B3020E94F92479C182E08A839D
:1021500081E460C1EA80FB80FE24EF24FE248C80B1
:10216000912C2DE18216910408F069C15801C70134
:1021700081549E4F9501201B310B2815390508F01D
:102180005EC131E4E31632E0F30630F40E94722AB5
:10219000D50114968C9302C0F5011482FFEFEF1A5B
:1021A000FF0A2FEFA21AB20AE2CF8091100190919C
:1021B0001101892B09F443C1EA80FB80FE24EF243E
:1021C000FE24AC80B12C3DE1A316B10408F037C168
:1021D0004801C70181549E4F9401201B310B2A15E1
:1021E0003B0508F02CC141E4E41642E0F40628F473
:1021F000D40114966C910E94862ABFEFEB1AFB0A59
:10220000EFEF8E1A9E0AE5CF0E949B2218C184E050
:102210008A8315C1EA80FB80FE24EF24FE248C8093
:10222000912CFDE18F16910408F009C15801C701F6
:1022300087969501201B310B2815390508F0FFC042
:1022400028E8E21621E0F20630F40E94722AD50155
:1022500014968C9302C0F5011482FFEFEF1AFF0A67
:102260002FEFA21AB20AE3CFEA80FB80FE24EF240C
:10227000FE24AC80B12C3DE1A316B10408F0DFC010
:1022800048E8E41641E0F40608F0D9C088E891E097
:102290008E199F098A159B0508F4D1C04801C70112
:1022A00087969401201B310B2A153B0508F0C7C007
:1022B000A8E8EA16A1E0FA0620F4F40164810E947D
:1022C000862AFFEFEF1AFF0A2FEF821A920AE7CF52
:1022D000EA818E2F90E08E30910508F0B0C0FC01AD
:1022E000EE59FF4F0C94122B88E0EDE1F1E0DE0196
:1022F000919601900D928A95E1F780E2D8011D92A6
:102300008A95E9F784E0898388E0FE01B196DE01D1
:10231000159601900D928A95E1F791C08CE589831D
:1023200081E08A831B821C828AC08C8190E0982F76
:1023300088272B81820F911D092E000CAA0BBB0B45
:1023400035E0880F991FAA1FBB1F3A95D1F7AC0142
:10235000BD01405E5F4F6F4F7F4F481759076A07B7
:102360007B0708F46CC08C35E1E09E07A105B10540
:1023700008F065C04D35F1E05F076105710520F09B
:102380004CE551E060E070E0481B590BBC016E5217
:102390007E4FC8010E94692A52C0FB80EC8040E059
:1023A0006E2D8F2D0E94DD2299838A8341E06E2D50
:1023B0008F2D0E94DD229B838C8341C02E813F8123
:1023C0003227232732274D816C818B810E94AB22DB
:1023D00036C040E250E06FEF70E0C8010E94762BFB
:1023E000809110018983EA822AC081E090E0909375
:1023F000B9028093B80282E390E09093C201809387
:10240000C1010E9402211BC0809110018983EA82D0
:102410008091C1018B8313C040E250E06FEF70E008
:10242000C8010E94762B0BC08B81811108C080E20D
:10243000D8011D928A95E9F702C08FEF89838091B8
:102440002402843009F0D9CA8091E9008F7020916C
:10245000EC00922F917020FD90E8F92EF82A82E08E
:102460008093E9008091E80080FF0CC040E050E0DC
:1024700060E270E0C8010E94F01D8091E8008E7754
:102480008093E8008F2D8F708093E900B6CAE9BC75
:10249000F9BC09B400FEFDCF8091D8008F7D8093F8
:1024A000D8008091E00082608093E0008091E0009D
:1024B00081FDFCCF0E9483292FEF33EC49E02150AE
:1024C00030404040E1F700C00000A0CA86E290E042
:1024D0000E94722A1B821C821D828E83B0CF2D32F5
:1024E000314008F037CC75CC2D32314008F088CC23
:1024F000C6CC80E008959091AB0192FF0DC0282FCB
:102500002871283019F4877F846006C0282F247131
:10251000243011F48B7F886093FF0DC0282F287121
:10252000283119F4877E846106C0282F2471243154
:1025300011F48B7E88612091AC0120FF0DC0382FF3
:102540003871383019F4877F816006C0382F3171B7
:10255000313011F48E7F886021FF0DC0282F287143
:10256000283119F4877E816106C0282F217121311D
:1025700011F48E7E886194FD877E0895F894E82F8B
:10258000E295EF70F0E031A1282F2F7081E090E00C
:1025900001C0880F2A95EAF7982F9095932391A36D
:1025A00092A1892B82A3789408957F928F929F9213
:1025B000AF92BF92CF92DF92EF92FF920F931F9351
:1025C000CF93DF93CDB7DEB727970FB6F894DEBF72
:1025D0000FBECDBFAE014F5F5F4F7A0187E0FA01BA
:1025E00011928A95E9F705E211E06A018CE2A82EC2
:1025F00081E0B82E88248394912CF80180818F3F4C
:1026000009F441C0F894E82FE295EF70F0E021A1C1
:102610008F70A40102C0440F551F8A95E2F7CA01CA
:10262000922F982B91A392A18095892382A37894CD
:1026300000C0ECE2F1E0712C31E021912F3F89F0F4
:10264000A22FA295AF70B0E090968C9190E02F7081
:1026500002C0959587952A95E2F780FD02C0832FE9
:1026600001C080E0782A330F51E0E333F50729F702
:10267000F80180818F3F11F00E94BE12F0EAFA95B6
:10268000F1F7F60170820F5F1F4FFFEFCF1ADF0ADD
:10269000A016B10609F0B1CF47E050E0B7018DEACE
:1026A00091E00E94692B11E0009709F410E0892B5A
:1026B00089F087E0F701ADEAB1E001900D928A95CB
:1026C000E1F781E0809316020E94022190931502A7
:1026D00080931402809116028823A1F08091140245
:1026E000909115020E94E720059760F0EDEAF1E075
:1026F000A3ECB1E081918D9341E0E43BF407D1F785
:1027000010921602812F27960FB6F894DEBF0FBEE7
:10271000CDBFDF91CF911F910F91FF90EF90DF9090
:10272000CF90BF90AF909F908F907F900895CF9360
:10273000DF938238910569F1B0F48133910509F492
:102740006FC048F48932910509F465C08A32910559
:1027500009F46BC08AC08533910509F457C08933E9
:102760009105B9F082C0833E910571F138F4803E45
:102770009105B1F0823E910511F177C0863E910539
:10278000B9F1873E9105C9F1843E910509F06DC00C
:1027900024C02091AB0120FD53C021FD51C065C074
:1027A0008091AB0180FD46C08091AC0180FF48C0A4
:1027B0008091AB0184FD50C183EE90E04FC18091C8
:1027C000AB0182FF3AC0F4CF8091AB0182FD35C0EE
:1027D0008091AC0180FD34C0EBCF8091AC0181FFD2
:1027E00035C08091AB0184FD37C187EE90E036C1E2
:1027F0008091AB0183FF27C0F4CF8091AB0183FDB3
:1028000022C08091AC0181FD21C0EBCF8091AB0152
:1028100085FD1FC021C08091AB0185FD1DC019C081
:102820008091AB0186FD1BC01DC08091AB0186FD70
:1028300019C015C089E390E011C182EE90E00EC18D
:1028400080EE90E00BC186EE90E008C184EE90E04F
:1028500005C189E290E002C185E390E0FFC08AE211
:1028600090E0FCC081E390E0F9C0811531E5930769
:1028700008F069C0811540E59407F0F09C0174E010
:10288000369527957A95E1F7922F9370482F4370EC
:1028900021E030E002C0220F331F4A95E2F73C6886
:1028A000392B982F9F709695969540E2949FC00182
:1028B0001124822B932BD2C0883E910568F5803E6F
:1028C000910508F0CBC0883A9105B8F4853A910596
:1028D00048F0855AE82FF0E0ED5BFE4F808190E0F4
:1028E0009064BCC08130910509F4B3C008F4B4C051
:1028F0008430910508F4B0C0B1C08F3B910508F059
:10290000ABC0885AE82FF0E0EE0FFF1FEA5BFE4FE6
:10291000808191819464A2C0811520E2920758F4CD
:10292000811531E0930708F099C0803F910508F4C4
:1029300093C0906593C0811540E4940708F48CC05F
:102940009F70906A8BC0811525E5920708F042C000
:10295000811534E5930728F0982F8827846F906AB3
:102960007DC0811543E59407B0F09C0123703327A7
:1029700041E050E002C0440F551F2A95E2F7282F8E
:102980002695269580E2289F90011124CA01822B6A
:10299000932B9A6863C0811522E5920728F4982F3B
:1029A0008827816F906A5AC09C012370332741E0C9
:1029B00050E002C0440F551F2A95E2F7282F2695B4
:1029C000269580E2289F90011124CA01822B932B27
:1029D0009C6844C0EC01811539E59307A8F4811582
:1029E000984528F09C2F8827806F906A37C0C115C2
:1029F00086E5D80788F58C2F0E947B128F7190E0B6
:102A0000982F882790622AC081152AE5920790F4B2
:102A10008C2F8F700E947B1294E0D695C7959A9563
:102A2000E1F7CF70D0E0DC2FCC27D0699E01282BB6
:102A3000C90114C090568115904270F48D2F8F718A
:102A40000E947B12282F2F71CE0199279062922B22
:102A500005C081E090E002C080E090E0DF91CF917E
:102A60000895CF9384E090E00E94722AC82F82E2FA
:102A700090E00E94722A2C2F30E0A901582BCA0145
:102A8000CF91089580E090E00E94802A8A3E9E4F78
:102A900011F40C94672480E008956AEE7EEF80E0E4
:102AA00090E00E94A42A60E082E090E00E94862AE2
:102AB00060E083E090E00E94862A1092B50260E018
:102AC00084E090E00E94862A60E082E290E00E942A
:102AD000862A60E085E090E00E94862A60E086E039
:102AE00090E00E94862A6FEF87E090E00E94862A9D
:102AF00040E050E0BA0188E090E00E94982A60E04F
:102B00008DE090E00E94862A40E050E0BA0188E122
:102B100090E00E94982A60E087E190E00E94862A77
:102B200040E050E0BA018CE190E00E94982A60E019
:102B300070E080E290E00E94A42A40E050E0BA01F8
:102B400088E190E00E94982A80E00E943A240E9446
:102B5000582440E050E0BA018FE090E00E94982AAB
:102B600040E050E0BA0183E190E00C94982A809113
:102B70001302882331F01092130210921202109265
:102B8000110208958095909110028923809310027C
:102B900008959091100280910F02892B90910E025E
:102BA000892B8093CA0180911302882311F10E941E
:102BB00002212091110230911202821B930B88385E
:102BC000934110F00E94B7159091CA0180911302B1
:102BD000892B8093CA01ECECF1E097E080E0915002
:102BE00029F021912223D9F38F5FF9CF81110E941F
:102BF000B715E091BF02F091C002309731F002802A
:102C0000F381E02D8AEC91E00994089510920D0271
:102C100010920C0210920B02089520910D028095E3
:102C2000822380930D02982F977099F430E0482FFB
:102C3000082E000C550B2417350759F09091AC0164
:102C400092FD07C08595859585950E943C290C9439
:102C500006160895CF93C091AC01C2FB992790F955
:102C6000981799F080FBC2F9C093AC016091AB0159
:102C700084E090E00E94862A6C2F82E290E00E941D
:102C8000862A82E0CF910C940D16CF9108959091F1
:102C9000AC0192FD10C098E0899F90011124262B71
:102CA00020930D020E9448290E94022190930C0259
:102CB00080930B0208950C94482980910A02811197
:102CC00010920A020895809109029091D801891703
:102CD00019F08F5F8770FBCF08950F931F93CF93E9
:102CE000DF938091D70182958F7009F05DC080914C
:102CF000D401882309F458C0809109021091D801A9
:102D00006091D2017091D301C091D501D091D601CB
:102D100091E06F3F09F090E0292F06E0811709F458
:102D200043C0209721F07F3F21F030E003C031E025
:102D300001C0322F90E030FD34C0089FF001099FA0
:102D4000F00D1124DF01A752BE4F11963C9111974F
:102D5000371327C03C91361324C012963C9112972A
:102D600031111FC013964D915C9114974C1B5D0B54
:102D7000483C5105B0F48091D7018F7080618093F9
:102D8000D701E252FE4F80818F708061808382ED97
:102D900091E00E947005DF91CF911F910F910C94EB
:102DA000631601968770BACFDF91CF911F910F9173
:102DB00008959F92AF92BF92CF92DF92EF92FF92CF
:102DC0000F931F93CF93DF93CDB7DEB761970FB605
:102DD000F894DEBF0FBECDBF8C0185E0F801DE01A7
:102DE0001D9601900D928A95E1F7F801E28090918D
:102DF000D2016091D3014091D5015091D601411586
:102E0000510531F06F3F31F481E09F3F19F403C069
:102E100081E001C080E0F82FF1709F2E80FD1AC183
:102E2000F80130812181C380D48082EDA82E81E019
:102E3000B82EF090D401F601E41BF50BFF2009F445
:102E4000C6C08091D701E83CF10508F091C0482F39
:102E5000407F09F050C0621311C093130FC0FE2CC5
:102E6000E1100CC08F7080618093D701C5010E9472
:102E700070058091D701F801858329C1CD2831F0F3
:102E80002F3F31F481E03F3F19F403C081E001C0DE
:102E900080E080FD03C081E08E2502C080E090E0EC
:102EA000F82FF170FF2E80FF1CC080910902409125
:102EB000D80156E0841709F4E8C090E0589FF0016B
:102EC000599FF00D1124E752FE4F6181261306C071
:102ED0006081631303C06281E61203C001968770AC
:102EE000E9CFFE2CEE2009F4F2C08091D701816079
:102EF0008093D70149C0621306C0931304C0E11048
:102F000002C0F80186C0C8010E945729882351F1E8
:102F1000EE2041F12091D701822F82958F7090E0B1
:102F2000029774F08091D2019091D30198878F839A
:102F30001986DB86CA862C87CE0107960E9470050B
:102F400086E0F801A2EDB1E001900D928A95E1F7DB
:102F50000E946D160AC06217C9F0C8010E94572965
:102F600081111EC0C8010E947005FF24F394AFC0F8
:102F7000482F407F81F782ED91E00E94700586E046
:102F8000F50111928A95E9F7F12CA1C09313E5CFD1
:102F9000E110E3CFF8018583C8010E94700554C099
:102FA000EE2001F32091D701822F82958F7090E05F
:102FB000029734F28091D2019091D3019A83898350
:102FC0001B82DD82CC822E83CE010196B7CFE83CF6
:102FD000F105D0F5FE2CEE2029F2621327C09313E1
:102FE00025C02091D70120FD18C0822F82958F70B7
:102FF000482F50E04115510581F0F80125834F30ED
:10300000510541F08F5F982F9295907F822F8F709E
:10301000892B8583C8010E94700586E0F801A2ED26
:10302000B1E001900D928A95E1F751C0C8010E946C
:103030005729811185CF8091D70181608093D70175
:10304000C8010E94700543C086E0F50111928A957F
:10305000E9F73DC0EE2009F485CFC8010E94572949
:10306000F82E882309F47ECF86E0F801A2EDB1E0C6
:1030700001900D928A95E1F78091D2019091D30150
:103080000E94CE280E946D1622C03D872E878D8516
:103090009E850E94CE28292F22952F70223028F459
:1030A0009F7039F0811105C00BC0243028F49F7047
:1030B00049F4805E883020F0C8010E9470059F2C82
:1030C000F92C05C0F8019581907F99F7F9CF8F2DE4
:1030D00061960FB6F894DEBF0FBECDBFDF91CF91E2
:1030E0001F910F91FF90EF90DF90CF90BF90AF9026
:1030F0009F9008958091260287FF11C08091E8007B
:1031000082FD05C0809124028111F8CF11C0809109
:10311000E8008B770BC080912402882349F08091CE
:10312000E80080FFF8CF8091E8008E778093E80078
:103130000895982F973068F59093E900981739F023
:103140007091EC002091ED005091F00003C0242F0D
:10315000762F50E021FD02C09F5FECCF3091EB0055
:103160003E7F3093EB003091ED003D7F3093ED00DA
:103170003091EB0031603093EB007093EC002093C2
:10318000ED005093F0002091EE0027FDE5CF80E0A8
:1031900008958F708093E90081E0089520912C02BA
:1031A00030912D022617370748F06115710539F463
:1031B0002091E8002E772093E80001C0B901FC01BE
:1031C00020E06115710579F1809124028823F1F1E5
:1031D0008530F1F18091E80083FD3CC08091E800EA
:1031E00082FD2EC08091E80080FFEBCF2091F3009C
:1031F0008091F20090E0922B6115710551F08830BA
:10320000910538F421912093F100615071090196E4
:10321000F3CF21E0089709F020E08091E8008E7755
:103220008093E800CECF2111CFCF0AC08091240235
:10323000882361F0853061F08091E80083FD0AC049
:103240008091E80082FFF2CF80E0089582E0089547
:1032500083E0089581E008950895BC0184E00C9412
:103260008620BC0183E00C94862080912E02982F4A
:103270009670963011F4886001C0877F0C943829CD
:103280001F93CF93DF93CDB7DEB7AA970FB6F8940D
:10329000DEBF0FBECDBFE6E2F2E08EE292E020910B
:1032A000F10021938E179F07D1F780912702833079
:1032B00009F463C030F4813071F0823009F49DC0AC
:1032C000B4C08A3009F489C08B3009F46EC08930EB
:1032D00009F0ABC020C080912602813A09F0A5C058
:1032E0008091E800877F8093E80080912A02909186
:1032F0002B02892B21F468E08AE192E003C060E0B0
:1033000080E090E070E00E94CE188091E8008B771A
:103310008093E8008AC080912602813209F085C03E
:1033200080912A0290912B02009719F0029709F0E0
:103330007CC08091E800877F8093E8008091E8005E
:1033400082FD05C0809124028111F8CF6EC02091CA
:10335000F3008091F20090E0922B029731F480917B
:10336000F100813011F0863021F48091F1008093DA
:1033700019028091E8008B7754C080912602813A2F
:1033800009F053C080912A0290912B02892B09F0F9
:103390004CC08091E800877F8093E8008091E8002E
:1033A00080FFFCCF80910C0137C0809126028132D2
:1033B000E1F580912A0290912B02892BB1F5809141
:1033C000E800877F8093E8000E947A1880912802A5
:1033D00080930C010E94832928C0809126028132AB
:1033E00021F58091E800877F8093E8000E947A1899
:1033F000809129028093180218C080912602813A98
:10340000A1F48091E800877F8093E8008091E80034
:1034100080FFFCCF809118028093F1008091E8003A
:103420008E778093E8000E947A188091E80083FFED
:10343000EBC18091260290912702492F50E04A303B
:10344000510508F0E1C1FA01E059FF4F0C94122B2D
:10345000803821F0823809F0D7C108C0809122025B
:1034600090912302992389F082600FC080912A02F3
:103470008F70873008F0C8C18093E9008091EB001D
:1034800085FB882780F91092E9009091E800977FEA
:103490009093E8008093F1001092F1007CC1282FF6
:1034A0002D7F09F0B1C1882319F0823061F0ACC1E1
:1034B00080912802813009F0A7C1933009F080E0A3
:1034C000809323022EC08091280281112AC080910E
:1034D0002A028F702FEF280F263008F095C18093B5
:1034E000E9002091EB0020FF1CC0933021F4809173
:1034F000EB00806214C09091EB0090619093EB0020
:1035000021E030E0A90102C0440F551F8A95E2F77F
:103510004093EA001092EA008091EB00886080936B
:10352000EB001092E9008091E800877F8093E8002B
:103530000E947A1869C1811167C1109128021F7712
:103540008091E3008078812B8093E3008091E800F4
:10355000877F8093E8000E947A188091E80080FFBE
:10356000FCCF8091E30080688093E300111102C0DA
:1035700082E001C083E08093240246C180588230FB
:1035800008F042C120912802309129022C3D53E0DD
:10359000350779F583E08A838AE289834FB7F89407
:1035A000DE01139620E03EE051E2E32FF0E050937D
:1035B0005700E49120FF03C0E295EF703F5FEF708A
:1035C0008E2F90E0EA3010F0C79601C0C0968D9320
:1035D0009D932F5F243149F74FBF8091E800877F8B
:1035E0008093E8006AE270E0CE0101960E94CE1856
:1035F000C0C080912A0290912B02432F552743305F
:103600005105B1F068F44130510509F40CC1423064
:10361000510509F0F9C08BE590E0E1E1F4E057C015
:103620004132510589F14232510509F43CC0ECC0E8
:10363000C901992781309105B9F070F08230910568
:10364000D9F0039709F0E0C0EEE7F4E0E4918E2FA3
:1036500090E0EEE7F4E038C0E8ECF4E0E4918E2F7F
:1036600090E0E8ECF4E030C0E8EBF4E0E4918E2F79
:1036700090E0E8EBF4E028C0ECE9F4E0E4918E2F70
:1036800090E0ECE9F4E020C08330910508F0BCC084
:10369000880F991FFC01E358FE4F0190F081E02D47
:1036A00089E090E014C08330910508F0ADC0FC01C2
:1036B000EE0FFF1FE958FE4F0190F081E02DDC0175
:1036C000AC58BE4F8C9190E0009709F49DC02091BA
:1036D000E800277F2093E80020912C0230912D02F2
:1036E0002817390708F4C90140E0009789F12091B3
:1036F0002402222309F43DC02530D9F12091E800AD
:1037000023FD37C02091E80022FD2FC02091E80062
:1037100020FFEBCF4091F3002091F20030E0342BFA
:10372000009759F02830310540F444914093F1005E
:10373000319601972F5F3F4FF3CF41E0283031059D
:1037400009F040E02091E8002E772093E800CDCFEB
:103750004111CDCF0AC080912402882351F08530D9
:1037600041F08091E80083FD04C08091E80082FF71
:10377000F2CF8091E8008B778093E80045C08038D5
:1037800009F042C08091E800877F8093E800809133
:1037900025028093F1008091E8008E77C7CE8111D9
:1037A00033C080912802909129029927029764F5ED
:1037B0008091E800877F8093E800109128021093A1
:1037C00025020E947A18111106C08091E30087FD3E
:1037D00002C081E001C084E08093240242E061ECF9
:1037E00081E00E94991842E261EC84E00E949918FD
:1037F00042E261EC82E00E94991842E260EC83E0D0
:103800000E949918809124028091E80083FF10C0E3
:103810008091E800877F8093E8008091EB008062D0
:103820008093EB0005C082E190E0ECE6F4E04FCF3E
:10383000AA960FB6F894DEBF0FBECDBFDF91CF9131
:103840001F9108951F920F920FB60F9211242F937C
:103850003F934F935F936F937F938F939F93AF9318
:10386000BF93CF93DF93EF93FF93C091E900CF70A5
:103870008091EC00D82FD17080FDD0E81092E90043
:103880008091F000877F8093F00078940E94401927
:103890001092E9008091F00088608093F000CD2BB9
:1038A000CF70C093E900FF91EF91DF91CF91BF916D
:1038B000AF919F918F917F916F915F914F913F91C8
:1038C0002F910F900FBE0F901F901895E8EDF0E02C
:1038D00080818E7F80831092E2001092DA00109235
:1038E000E100A0EEB0E08C9181608C9380818F77B5
:1038F000808319BCA7EDB0E08C918E7F8C93808182
:103900008F7E8083109217020895CF92DF92EF92FC
:10391000FF920F931F93CF93DF93C8EDD0E0888180
:103920008F7E8883E7EDF0E080818160808384E092
:1039300082BF81E08093170288818E7F888302EEA8
:1039400010E0F80110821092DA0081EEC82ED12C1E
:10395000F601108288818F778883888180688883C8
:1039600088818F7D888319BC1092240210922502D1
:10397000109223021092220290EEE92EF12CF70110
:1039800080818B7F808388818160888342E060E0D2
:1039900080E00E949918F60180818E7F8083F80173
:1039A000808181608083808188608083F70180814D
:1039B0008E7F8083888180618883DF91CF911F9182
:1039C0000F91FF90EF90DF90CF9008951F920F928C
:1039D0000FB60F9211242F933F934F935F936F93E2
:1039E0007F938F939F93AF93BF93EF93FF938091B8
:1039F000E10082FF09C08091E20082FF05C0809152
:103A0000E1008B7F8093E1008091DA0080FF2AC083
:103A10008091D80080FF26C08091DA008E7F80934D
:103A2000DA008091D90080FF18C080E189BD82E171
:103A300089BD09B400FEFDCF81E08093240280910E
:103A4000170281110FC00E94661C0E94851C809184
:103A5000E20084608093E20005C019BC1092240249
:103A6000109217028091E10080FF17C08091E20060
:103A700080FF13C08091E2008E7F8093E2008091EE
:103A8000E20080618093E2008091D80080628093A0
:103A9000D80019BC85E0809324028091E10084FF66
:103AA00030C08091E20084FF2CC080E189BD82E1BA
:103AB00089BD09B400FEFDCF8091D8008F7D809331
:103AC000D8008091E1008F7E8093E1008091E20038
:103AD0008F7E8093E2008091E20081608093E2001B
:103AE00080912502882311F084E007C08091E300D3
:103AF00087FD02C081E001C083E0809324028091B1
:103B000024028091E10083FF27C08091E20083FFBF
:103B100023C08091E100877F8093E10082E0809361
:103B20002402109225028091E1008E7F8093E100B3
:103B30008091E2008E7F8093E2008091E2008061BC
:103B40008093E20042E060E080E00E94991880915A
:103B5000F00088608093F000FF91EF91BF91AF91EA
:103B60009F918F917F916F915F914F913F912F9195
:103B70000F900FBE0F901F9018952091E400309188
:103B8000E50095E64091EC00842F817040FF23C052
:103B90008091E80080FD1DC080912402882399F067
:103BA000853099F08091EB0085FD11C04091E400D3
:103BB0005091E5002417350729F3915011F09A012F
:103BC000E1CF84E0089582E0089583E0089581E0E4
:103BD000089580E008954091E80042FFDDCF089508
:103BE000EF92FF920F931F93CF93DF937C018B0192
:103BF0000E94BD1D811119C0E70101151105A1F039
:103C00008091E80085FD0AC08091E8008E7780935E
:103C1000E8000E94BD1D882381F307C0899180932D
:103C2000F10001501109E9CF80E0DF91CF911F91A0
:103C30000F91FF90EF9008958091190208950895D3
:103C400024E02093E9002FEF3091E800215035FD6A
:103C500006C035ED3A95F1F700002111F5CF20911E
:103C6000E80025FF0BC040E050E066E070E00E94F5
:103C7000F01D8091E8008E778093E8000895CF933F
:103C8000DF9321E02093E9002FEF3091E8002150ED
:103C900035FD06C035ED3A95F1F700002111F5CF5D
:103CA0002091E80025FF14C0EC0140E050E068E0FE
:103CB00070E00E94F01D8091E8008E778093E8000C
:103CC00088E0FE01AAE1B2E001900D928A95E1F749
:103CD000DF91CF910895EF92FF920F931F93CF93AF
:103CE000DF938C01C2E3D2E0E12CF12CF801848156
:103CF000F5E1EF16F1041CF4882351F002C08111A4
:103D000007C04091B302473908F046E99E0102C05E
:103D10009E0140E06091B2028091B1020E943D2577
:103D20008FEFE81AF80A23969AE2E916F104F1F601
:103D30000E949824F801848190E00196817099276F
:103D40008483DF91CF911F910F91FF90EF900895A1
:103D50008F929F92AF92BF92CF92DF92EF92FF929B
:103D60000F931F93CF93DF93EC014C81042F10E04E
:103D70009801D8010E94272B9B01AC010E943D2B8A
:103D80006B017C01E0E2F0E0E01BF10BA5E5B0E0A7
:103D90009B01AC010E943D2B4B015C019F01DF01A7
:103DA0000E941F2B9B01AC010E94482B9B01AC0180
:103DB0002C0D3D1D4E1D5F1DC501B4010E94F02A52
:103DC000822FF22E99E2921728F093E0299F90011A
:103DD00011240DC025E530E0281B3109C901880FE9
:103DE000991F280F391F37FF02C02F5F3F4F3595AE
:103DF0002795122F109592E3C92E92E0D92E00E05C
:103E000085E5E82EEF1801FD02C08E2D01C08F2D33
:103E1000412F173908F046E996016091B2020E94DD
:103E20003D250F5F83E0C80ED11C0A3261F70E9466
:103E300098248C81811102C091E003C0803219F472
:103E40009FEF90930F0190910F01890F8C83DF9169
:103E5000CF911F910F91FF90EF90DF90CF90BF9087
:103E6000AF909F908F9008950F931F93CF93DF9300
:103E7000C2E3D2E0FE01118210821282339682E008
:103E8000E03BF807C1F700E010E080913002082E17
:103E9000000C990B08171907ACF080910E01082E41
:103EA000000C990B801791076CF04091B3024739D1
:103EB00008F046E99E016091B2028091B1020E9431
:103EC0003D2503C0198218821A820F5F1F4F239667
:103ED0000A321105D1F60E94982480910D0190912B
:103EE0003002980F9093300220910E01280F2093FA
:103EF0000E01121614F499321CF0819580930D0175
:103F0000DF91CF911F910F910895BF92CF92DF92D1
:103F1000EF92FF920F931F93CF93DF93FC01828167
:103F200080FF03C0DD24DA9402C0DD24D39402E3D1
:103F300012E0C0E0D0E02AE2B22EF8011182108235
:103F4000128294E0E92EF12CC12C80912F028C0D6D
:103F50008B322CF06B2D0E94BA2A892F02C087FD6C
:103F6000865D082E000C990BC817D907A9F480911B
:103F7000B3028E9DA0018F9D500D1124559547953C
:103F800055954795473908F046E998016091B20286
:103F90008091B1020E943D25CD0CF1E0EF1AF108AD
:103FA000A1F621960D5F1F4FCA32D10531F60E944E
:103FB000982480912F0291E0D91206C0811102C08D
:103FC00089E207C0815005C090E00196BE010E94C1
:103FD000DC2A80932F02DF91CF911F910F91FF90E8
:103FE000EF90DF90CF90BF900895EF92FF921F93D4
:103FF000CF93DF93EC0182E3E82E82E0F82E10E00D
:104000004091B302473908F046E98C8197016091ED
:10401000B202810F0E943D251A5F83E0E80EF11C79
:104020001C3F71F70E9498249A818C8190FF02C0F6
:104030008F5F01C081508C83DF91CF911F91FF90E2
:10404000EF9008950F931F93CF93DF9300D01F92AB
:10405000CDB7DEB78C018091310281110AC09E017B
:104060002F5F3F4F46E96FEF0E943D258A81809385
:104070003102F8018481813051F028F0823061F4FE
:10408000409131020AC08091310240E007C0609146
:10409000310240E080E003C040E080E060E00E9448
:1040A000CE24F801848190E0019663E070E00E94E4
:1040B000DC2A84830F900F900F90DF91CF911F9196
:1040C0000F910895CF93DF93EC01E0EBF2E0438191
:1040D00062818C810E94D3258C818F5F8C83DF91DC
:1040E000CF910895CF93DF93EC01EC81F0E0E4539E
:1040F000FB4F4491E0EBF2E0628181810E94D32585
:104100008C818F5F8C83DF91CF9108958093C8025B
:104110007093CA026093C902809124028430F9F43A
:104120008093E9008FEF9091E800815095FD06C0E3
:1041300095ED9A95F1F700008111F5CF8091E80097
:1041400085FF0DC040E050E063E070E088EC92E055
:104150000E94F01D8091E8008E778093E80008951A
:1041600087E797E790930108809300089AE088E139
:104170000FB6F894A895809360000FBE90936000EE
:10418000FFCF78941F920F920FB60F9211248F9346
:104190009F93AF93BF938091C4029091C502A09169
:1041A000C602B091C7020196A11DB11D8093C40241
:1041B0009093C502A093C602B093C702BF91AF917E
:1041C0009F918F910F900FBE0F901F9018959C019B
:1041D0004FB7F8948091C4029091C502A091C60295
:1041E000B091C7024FBF821B930B08952FB7F8946D
:1041F0006091C4027091C5028091C6029091C7027D
:104200002FBF08952FB7F8948091C4029091C502F2
:10421000A091C602B091C7022FBF08950F931F93BC
:10422000CF93DF9300D000D01F92CDB7DEB78C01C3
:104230009093B7028093B602011580E2180738F513
:10424000802F0E94B429C801805E9109089718F058
:104250000115110571F4C8010E94C10B0F900F9058
:104260000F900F900F90DF91CF911F910F910C94B1
:10427000A329C8010E94C10B0F900F900F900F90BF
:104280000F90DF91CF911F910F910C948E298EEF9B
:1042900089838A831B820E9402218160782F9D83FB
:1042A0008C8349815A816B818D810E9496040F9085
:1042B0000F900F900F900F90DF91CF911F910F9162
:1042C00008950F931F93CF93DF9300D000D01F92D8
:1042D000CDB7DEB78C019093B7028093B60201157B
:1042E00080E21807F8F4C801805E9109089718F079
:1042F0000115110531F4C8010E94C10B0E94AA29C1
:1043000005C0C8010E94C10B0E949929802F0F90FF
:104310000F900F900F900F90DF91CF911F910F9101
:104320000C94EC298EEF89838A8381E08B830E9431
:1043300002218160782F9D838C8349815A816B8112
:104340008D810E9496040F900F900F900F900F9008
:10435000DF91CF911F910F9108951F920F920FB689
:104360000F9211248F939F93AF93BF938091C302B9
:10437000811113C08091C4029091C502A091C60220
:10438000B091C7024196A11DB11D8093C4029093C4
:10439000C502A093C602B093C702BF91AF919F918F
:1043A0008F910F900FBE0F901F9018959C01FC01EC
:1043B00032969FEF80E04191461789F09F3F19F4B4
:1043C000411101C0982F8F5F8630A9F79F3F39F0C8
:1043D000F901E90FF11D97FDFA956283089508959B
:1043E0002091C1023091C2022817390771F09093D1
:1043F000C2028093C102E091BF02F091C0023097E7
:1044000021F00084F185E02D099408952091BD02EA
:104410003091BE022817390771F09093BE02809345
:10442000BD02E091BF02F091C002309721F00680FA
:10443000F781E02D09940895E091BF02F091C00248
:10444000309721F00190F081E02D099480E00895EB
:104450000F931F93CF93DF93C42FD22FFC01828140
:104460008823C9F04093BC020E9402219093BB02B2
:104470008093BA0280E28C0F883008F057C0C77072
:1044800081E001C0880FCA95EAF7DF91CF911F91B3
:104490000F910C94AA298091BC02481330C08091DE
:1044A000BA029091BB020E94E720883C910538F542
:1044B00010E21D0FCD17B9F080E28C0F883040F468
:1044C000C77081E001C0880FCA95EAF70E94A3294E
:1044D000183028F581E09D2F977001C0880F9A95BC
:1044E000EAF70E94AA29802F0E944B2A1830F0F484
:1044F000D77081E001C0880FDA95EAF70AC080E240
:104500008C0F883098F4C77081E001C0880FCA957D
:10451000EAF7DF91CF911F910F910C94A329802F7F
:10452000DF91CF911F910F910C944B2ADF91CF9186
:104530001F910F910895CF93DF93CFEBD1E060E00F
:10454000CE010E94862A2196C11584E0D807B9F7CA
:10455000DF91CF9108950F931F93CF93DF93843012
:1045600038F5611125C0423018F521159CE5390751
:1045700031F46091100170911101672BC9F089012C
:10458000C42FD0E0CC0FDD1F94E0899FC00DD11D5A
:104590001124C155DE4F612FCE010E94862A602F63
:1045A000CE010196DF91CF911F910F910C94862A35
:1045B000DF91CF911F910F9108950F931F93CF9388
:1045C000DF938430E8F461111BC04230C8F4C42F7B
:1045D000D0E0CC0FDD1F24E0829FC00DD11D11243F
:1045E000C155DE4FCE010E94722A90E0182F00279D
:1045F000CE0101960E94722A9801282BC90102C09F
:1046000080E090E0DF91CF911F910F9108950F937B
:104610001F93CF93DF93843058F5673048F54730C8
:1046200038F521159CE5390731F4E0911001F0913E
:104630001101EF2BE9F08901C42FD0E0CC0FDD1F71
:104640009EE0699FC00DD11D112492E6899FC00D87
:10465000D11D1124612FCE0187960E94862A602FDA
:10466000CE018896DF91CF911F910F910C94862AED
:10467000DF91CF911F910F9108958F929F92AF92EA
:10468000BF92CF92DF92EF92FF920F931F93CF933F
:10469000DF93C0901001D090110181E090E09093E1
:1046A000110180931001E12CF12C912C812C00E060
:1046B00010E0C0E0D0E05801AE0CBF1CFE01EE0FD0
:1046C000FF1FEA0DFB1DE453FA4F259134914C2F47
:1046D000682D892D0E9407232196C730D10571F7D7
:1046E000025F1F4F839487E08812E3CF21E030E020
:1046F00040E060E0892D0E94AB2221E030E041E003
:1047000060E0892D0E94AB22939482E6E80EF11CB2
:1047100084E09812CBCFD0921101C0921001DF91AA
:10472000CF911F910F91FF90EF90DF90CF90BF90AE
:10473000AF909F908F9008950F931F93CF93DF9327
:10474000843008F56730F8F44730E8F4C42FD0E03F
:10475000CC0FDD1F2EE0629FC00DD11D112432E66B
:10476000839FC00DD11D1124CE0187960E94722A0D
:1047700090E0182F0027CE0188960E94722A980197
:10478000282BC90102C080E090E0DF91CF911F91FA
:104790000F910895462F2091B8023091B902232B32
:1047A00091F47E3F39F46E3F71F48091B60290919E
:1047B000B7020895843038F4773028F4673018F45D
:1047C000672F0C949C2380E090E00895AF92BF92F5
:1047D000CF92DF92EF92FF920F931F93CF93DF93CD
:1047E000B82EA62EC0902E028091B502C82AC7E02E
:1047F000D0E0D12CE12CF12CD701C6010C2E04C045
:10480000B695A795979587950A94D2F780FF13C020
:104810004A2D6B2D8C2F0E94DD228C018130910559
:1048200051F00E9461218FE39CE90197F1F700C0EC
:104830000000C80111C02197F8F64A2D6B2D80E0C9
:104840000E94DD22EC010E9461218FE39CE9019727
:10485000F1F700C00000CE010E940E2181E0DF913F
:10486000CF911F910F91FF90EF90DF90CF90BF906D
:10487000AF900895CF93C82F811102C06FEF01C090
:104880006AEF83E290E00E94862AC11102C06FEFB6
:1048900001C069E884E290E00E94862AC11102C04A
:1048A0006FEF01C06AEC85E290E0CF910C94862A0C
:1048B00080E00E943A2460E086E290E00E94862A2E
:1048C0000E943D230E949B2281E00C943A2483E2C3
:1048D00090E00E94722A8A3F81F484E290E00E9474
:1048E000722A893851F485E290E00E94722A91E0A0
:1048F0008A3C09F090E0892F01C080E08170089522
:104900009091B00290FF04C09695981740F003C0B4
:10491000811105C090E0961710F40C941F2761E0F8
:104920000C94D426882311F0FA0101C0FB010994EC
:104930008091B00280FF0AC0519A8BB18D7F9BB1EC
:1049400092602FB7F894E2E3F2E00BC0E2E3F2E00A
:10495000118210821282339632E0E03BF307C1F7F6
:10496000EBCF32E0E03BF30789F0319148E09BB9AF
:10497000000000C037FF8BB9330F000000C000C03B
:1049800000C08BB900C04A9591F7EBCF2FBF8FE5E0
:1049900094E00197F1F700C0000008959091B002F3
:1049A00090FF0CC0E2E3F2E08183608342833396A0
:1049B00092E0E03BF907C1F70C94982408958091A8
:1049C000B002282F269530E02115310519F48170A9
:1049D000826005C02532310524F08170886480939F
:1049E000B0028091B302873918F086E98093B30250
:1049F0000895CF92DF92EF92FF926B017C010E94AB
:104A0000DF24B701A60188E090E0FF90EF90DF90EF
:104A1000CF900C94982A8091B402882319F0815089
:104A20008093B4026091B0027091B1028091B202A1
:104A30009091B3020C94F9248091B402833018F45D
:104A40008F5F8093B4026091B0027091B102809147
:104A5000B2029091B3020C94F924E0EBF2E083E00F
:104A6000808311828FEF828386E983831482608141
:104A70007181828193810C94F924AF92BF92CF927D
:104A8000DF92EF92FF920F931F93CF93DF93E82E65
:104A9000F62EE901E42FF0E0611106C0E25DF94F66
:104AA000E4914E2F2E2F71C0062F10E0E25DF94FDA
:104AB0004491F42FC42ED12C26E0829FC0011124F2
:104AC0002FEF30E0B9010E94C82A5BEA5603C0010B
:104AD000579F900D11248E0D911D8E0D911D582FF5
:104AE000550F580FD901A01BB10BAC9DC001AD9D56
:104AF000900DBC9D900D1124E92FF59ED00111243D
:104B0000AB2FBB277901EA1AFB0AEC9CD001ED9C84
:104B1000B00DFC9CB00D11245901A51AB108A09E3E
:104B20007001A19EF00CB09EF00C1124EF2CFF241C
:104B30002E193F092C9D80012D9D100D3C9D100DBF
:104B40001124212F6230710591F048F4611571052F
:104B5000E1F061307105B9F4242F4B2F16C0643099
:104B6000710569F040F06630710579F00CC0242FB2
:104B7000492FE12F0AC0492FEF2F2B2F06C0292FD5
:104B8000E42F412F02C0292FEB2F49832883EA838A
:104B9000DF91CF911F910F91FF90EF90DF90CF9019
:104BA000BF90AF900895CF93DF9300D01F92CDB701
:104BB000DEB79091B00290FF0DC0473908F046E98A
:104BC0009E012F5F3F4F0E943D254B8169818A8165
:104BD0000E94CE240F900F900F90DF91CF910895F7
:104BE0005F926F927F928F929F92AF92BF92CF927D
:104BF000DF92EF92FF920F931F93CF93DF9300D03A
:104C00001F92CDB7DEB7082F762E142F622E90910B
:104C1000B00290FF74C0E92FE695AE2FB0E0AD571B
:104C2000BE4F8C918093DE029E7F923081F4473993
:104C300008F046E99E012F5F3F4F672D802F0E94AD
:104C40003D254B8169818A810E94CE2446C08230F5
:104C500019F41091B30241C0863019F40091B102E9
:104C60003CC08930D9F38931C1F5E9518E2F81706B
:104C7000582EE695F0E0E25DF84FA590B49082E3FF
:104C8000C82E82E0D82EE12CF12CBB249AE2892E8A
:104C9000912CAE9CC001AF9C900DBE9C900D112438
:104CA000B4010E94C82A802F511002C0860F01C093
:104CB000861B412F173908F046E99601672D0E949F
:104CC0003D258FEFE81AF80A83E0C80ED11C8AE26E
:104CD000E816F104F1F60E9498240093B102709254
:104CE000B2021093B302662051F06091B00270914D
:104CF000B1028091B2029091B3020E94F9240F9008
:104D00000F900F90DF91CF911F910F91FF90EF9037
:104D1000DF90CF90BF90AF909F908F907F906F90DB
:104D20005F900895E0EBF2E0438121E1421B08F43B
:104D300040E021E0628181810C94F025E0EBF2E01B
:104D4000438121E1420F08F44FEF21E0628181812C
:104D50000C94F025E0EBF2E0628121E1621B08F4A3
:104D600060E021E0438181810C94F025E0EBF2E0EA
:104D7000628121E1620F08F46FEF21E043818181BC
:104D80000C94F025E0EBF2E0818121E04381628127
:104D900088500C94F025E0EBF2E0818121E0438122
:104DA0006281885F0C94F0259091B00290FF3DC025
:104DB0009170811102C0926006C0853210F0986433
:104DC00002C0880F982B9093B002662351F0609137
:104DD000B0027091B1028091B2029091B3020E9430
:104DE000F9246091B002669570E04BE050E082E1FA
:104DF00091E00E945C2B892B19F01092DF0209C010
:104E000081E08093DF020E9402219093D902809377
:104E1000D80281E08093DB0220E04091B3026091F0
:104E2000B2028091B1020C94F02508958091B002F5
:104E30008695815009F484E261E00C94D426809137
:104E4000B00286958F5F853208F081E061E00C94B6
:104E5000D4260E9402212091D402211104C0209165
:104E6000D502222321F09093D1028093D002209189
:104E7000D602211104C02091D702222321F0909361
:104E8000CF028093CE02E091BF02F091C002309732
:104E900049F082E08093D2020480F581E02D82ED1A
:104EA00092E009940895803F39F48091D50287FFFC
:104EB0006AC01092D50267C0813F29F48091D50263
:104EC0001816BCF360C09091D402823F29F497FF7A
:104ED0005AC01092D40257C0833F19F41916CCF36C
:104EE00052C09091D602893F31F419160CF04BC094
:104EF0001092D60248C08A3F19F497FF44C0F8CFF9
:104F00008B3F39F48091D70287FF3DC01092D702C2
:104F10003AC08C3F29F48091D7021816BCF333C0F5
:104F2000843F21F48091D3028E7F17C0853F21F406
:104F30008091D3028D7F11C0863F21F48091D302EE
:104F40008B7F0BC0873F21F48091D302877F05C000
:104F5000883F31F48091D3028F7E8093D30213C0B7
:104F60008D3F21F48091CD028E7F0BC08E3F21F4C6
:104F70008091CD028D7F05C08F3F29F48091CD02B5
:104F80008B7F8093CD028091D402811106C08091E5
:104F9000D502811102C01092CC028091D6028111FB
:104FA00006C08091D702811102C01092CB020895F1
:104FB0008091CD0280FD16C081FD16C082FD18C013
:104FC0008091CB02882391F0883290F428E0829F70
:104FD000C001112468E270E00E94DC2A862F672B52
:104FE00029F007C082E0089584E0089581E00895E3
:104FF00088E008958091CD0280FD14C081FD14C029
:1050000082FD16C08091CC02882381F0843180F427
:1050100022E3829FC001112464E170E00E94DC2A37
:10502000862F08958CE0089589E1089585E008951C
:1050300082E30895803F21F40E94FA27819504C0FD
:10504000813F29F40E94FA278093D5020895823F78
:1050500021F40E94FA27819504C0833F29F40E941D
:10506000FA278093D4020895893F19F40E94D82723
:1050700005C08A3F31F40E94D82781958093D602DB
:1050800008958B3F21F40E94D827819504C08C3F5E
:1050900029F40E94D8278093D7020895843F21F4F1
:1050A0008091D302816017C0853F21F48091D302A3
:1050B000826011C0863F21F48091D30284600BC0CE
:1050C000873F21F48091D302886005C0883F31F486
:1050D0008091D30280618093D30208958D3F21F4A3
:1050E0008091CD0281600BC08E3F21F48091CD0272
:1050F000826005C08F3F29F48091CD028460809347
:10510000CD02089580E090E00E94062280E090E0C9
:105110000E94F02110920F0210920E020E94C915F7
:10512000E2EDF2E086E0DF011D928A95E9F7109248
:10513000CC021092CB021092CD020C942927CF9270
:10514000DF92FF920F931F93CF93DF936C01009137
:105150002E028091B502082BC7E0D0E010E0C80114
:105160000C2E02C0959587950A94E2F780FD04C045
:105170002197A8F7F12C09C0FC2EB6018C2F0E94B4
:10518000CA230E949713019799F38F2DDF91CF9136
:105190001F910F91FF90DF90CF900895CF93DF93F1
:1051A000EC010E949F28BE010E94CA230E9497130F
:1051B000DF91CF9108959E3F61F127E0929F800D8E
:1051C0001124682F669566956695982F977083E0F1
:1051D000689FB001112440E050E080E0FB01E40F43
:1051E000F51FE052FD4F208130E0092E02C03695B8
:1051F00027950A94E2F721703327042E01C0220F6D
:105200000A94EAF7822B4F5F5F4F4330510531F725
:10521000089580E008959E3F51F127E0929F800D10
:105220001124E82FE695E695E695877051E001C0D8
:10523000550F8A95EAF783E0E89FF0011124E052C8
:10524000FD4F20E030E070E04081CB01022E02C033
:10525000969587950A94E2F7817081958427852336
:10526000842781932F5F3F4F2330310569F70895DD
:1052700080932E020C94822821E030E001C0220F9E
:105280008A95EAF7209580912E0282230C94382982
:1052900021E030E001C0220F8A95EAF780912E02CA
:1052A000822B0C9438298093B5020C948228FC013F
:1052B000808191810E94CE28292F2F70E92FE295BD
:1052C000EF704E2F50E0FA013297EE30F105B8F44E
:1052D000E658FF4F0C94122B803F99F018F4883E4B
:1052E00070F40FC0843F59F40CC0883E50F0813FE9
:1052F00031F407C0822F869586958695089580E0C3
:10530000089581E008951092100286E0ECECF1E03F
:10531000DF011D928A95E9F70C948228882341F0D9
:10532000809590910F02892380930F020C94C915E8
:105330000895882339F090910F02892B80930F02F2
:105340000C94C9150895882321F00E94C2150C946D
:10535000C9150895882339F090911002892B809304
:1053600010020C94C91508958823A9F19CEF980F99
:10537000913A60F4EAECF1E09281891301C0128263
:10538000319691E0E03DF907B9F70DC090E2980F32
:10539000983058F4877091E001C0990F8A95EAF728
:1053A000892F0E94C2150C94C9159BE5980F933064
:1053B00020F480E090E00C94062298E5980F973155
:1053C00020F480E090E00C94F021803F20F00E94D7
:1053D00053270C9429270895CF93882309F459C0A3
:1053E000C82F8CEF8C0F813AF8F4ECECF1E082EDF1
:1053F00091E02191C21721F08E179F07D1F70EC0BF
:10540000EAECF1E080ED91E02281C21301C012824A
:1054100031968E179F07C1F70E94C9156C2F8AEC31
:1054200091E00E94D62110C080E28C0F883078F481
:10543000C77081E090E001C0880FCA95EAF79091AB
:105440001002892B80931002CF910C94C915EBE5C3
:10545000EC0FE33040F4F0E0ED5BFE4F808190E034
:10546000CF910C940622E8E5EC0FE73150F4F0E020
:10547000EE0FFF1FEA5BFE4F80819181CF910C946C
:10548000F021C03F30F08C2F0E941A28CF910C944D
:105490002927CF9108951F93CF93DF93182F893336
:1054A00019F0C0E0D0E002C0C0E5D0E0812F0E943A
:1054B000EC29209741F08FE99FE00197F1F700C0B8
:1054C00000002197F6CF812FDF91CF911F910C948F
:1054D000B429FB01DC0102C005900D9241505040FF
:1054E000D8F70895F999FECF92BD81BDF89A992712
:1054F00080B50895A6E1B0E044E050E00C94AC2AF9
:10550000A8E1B0E042E050E00C94AC2A262FF999D3
:10551000FECF92BD81BDF89A019700B4021639F012
:105520001FBA20BD0FB6F894FA9AF99A0FBE0895E3
:105530000396272F0E94872A0E94862A252F0E94E1
:10554000872A242F0C94872A0196272F0E94872AC6
:105550000C94862ADC01CB01FC01F999FECF06C030
:10556000F2BDE1BDF89A319600B40D924150504021
:10557000B8F7089587FB082E062687FD819567FDFD
:1055800061950E94502B0EF4919507FC819508952A
:10559000AA1BBB1B51E107C0AA1FBB1FA617B70759
:1055A00010F0A61BB70B881F991F5A95A9F7809575
:1055B0009095BC01CD01089597FB072E16F4009439
:1055C00007D077FD09D00E94C82A07FC05D03EF419
:1055D000909581959F4F0895709561957F4F08959F
:1055E000A1E21A2EAA1BBB1BFD010DC0AA1FBB1FE7
:1055F000EE1FFF1FA217B307E407F50720F0A21B59
:10560000B30BE40BF50B661F771F881F991F1A94C5
:1056100069F760957095809590959B01AC01BD01EF
:10562000CF010895EE0FFF1F0590F491E02D09942E
:1056300069279627692778278727782708950E9462
:10564000272B332312F48A1B9B0B0C94382BA29F1D
:10565000B001B39FC001A39F700D811D1124911D46
:10566000B29F700D811D1124911D08950E94272B5A
:10567000B7FF0895821B930B08950E94272BA59FC7
:10568000900DB49F900DA49F800D911D112408953D
:10569000B7FF0C943D2B0E943D2B821B930B08956A
:1056A000991B79E004C0991F961708F0961B881F74
:1056B0007A95C9F780950895FC014150504030F02B
:1056C00001900616D1F73197CF01089588279927C1
:1056D0000895FB01DC0104C08D910190801921F433
:1056E00041505040C8F7881B990B0895DC0101C058
:0E56F0006D9341505040E0F70895F894FFCFBD
:1056FE001C1E3F1E201E31192D192C1901010201ED
:10570E00010001191A1B1C1D1E1F202122C439283D
:10571E00DACB68401D353631F7F6F5F434C69766A8
:10572E0094333200FF0100010000FFFF0000010072
:10573E0001FF00818283E200E900EA00B500B600B5
:10574E00B700CD008301CC008A01920194012102A1
:10575E00230224022502260227022A02B300B400E5
:10576E006F007000402281D103AF032E0323043C4F
:10577E00045C040001020202020606060909090978
:10578E0009090F0F0F0F0F0F1515151819191919E4
:08579E00191919191919232426
:00000001FF
