:100000000C9499030C94E0030C94E0030C94E0032B
:100010000C94E0030C94E0030C94E0030C94E003D4
:100020000C94E0030C94E0030C940C1E0C94C11C83
:100030000C94BA200C94E0030C94E0030C94E003BD
:100040000C94E0030C94E0030C94E0030C94E003A4
:100050000C94E0030C946D200C94E0030C94E003EA
:100060000C94E0030C94E0030C94E0030C94E00384
:100070000C94E0030C94E0030C94E0030C94E00374
:100080000C94E0030C94E0030C94E0030C94E00364
:100090000C94E0030C94E0030C94E0030C94E00354
:1000A0000C94E0030C94E0030C94E003380B380B41
:1000B0006B0B6B0BFC0B1A0C400D400D250C990CB7
:1000C000AA0CAA0C3B1555155C159415A515B01571
:1000D000BC15CB15E615D315E615E615E615DB15AB
:1000E000D428FB28BB2AFB28BB2A47296A29BB2A1C
:1000F0006C2A7C2AB02FB02FC32FC32FB92FC32F48
:10010000C32FC32FB02FB02FBE2FC32FC32FBE2F8F
:1001100000047F3F1F643214643214783C1E1E14A6
:100120000A05FD377A585A000004E6D6B4460200A4
:10013000210116000000742FE5A3E0022400E55D14
:10014000003D8889C65436C3174FE4E4565FA49B2C
:10015000F0DDF4262AF26D272E9EF04B8D8797272F
:100160002244B70D07D41A3F36D833E38CB699A68C
:1001700023E9367E954B9C6BEB0FF431BBAB16B885
:10018000D8134919E7CBEFE0052ECA117D5757BFA9
:10019000E44C197D57F08CF52DB152B42F69FC7ADF
:1001A000B03608D58DA263D952A1E4C0A2AE59924F
:1001B00066EA1D179AECA8DB10D61DB08BB97EFF3E
:1001C0005F19DAE8C3542BDD6457ADBBFA1FA73CB7
:1001D0003D060D52E44F8547509C4DA91D4754AA3A
:1001E000725229106B244117966E5AE5A74E845F10
:1001F000AAE7F1F698ACCDDF8C8A9DC81ED4C87DE5
:100200002D1D687A7F72111331056487D8577C14CD
:1002100099D8146C0262842A0831279F65A7F5AC2F
:1002200005118ADF10710000000060C39DFAF25BC7
:10023000F25500018102A50400002B01C511B1C4D3
:1002400067FB020000000004595A53005400550097
:1002500056005F00600061002B005C005D005E00E6
:10026000570059005A005B004C00620062006300B6
:100270005800000101010101010101010202020215
:100280000202020202030303030303030304040440
:100290000404040405050505050606060606070709
:1002A00007070708080808090909090A0A0A0B0BC1
:1002B0000B0C0C0C0D0D0D0E0E0E0F0F0F10101160
:1002C00011111212131314141515161617171818E6
:1002D00019191A1A1B1B1C1D1D1E1E1F202021224E
:1002E00022232424252626272829292A2B2C2D2D94
:1002F0002E2F30313232333435363738393A3B3CB1
:100300003D3E3F404142434445464748494A4C4DA3
:100310004E4F50515354555658595A5B5D5E5F616C
:100320006264656668696B6C6D6F707273757778FF
:100330007A7B7D7E8082838587888A8C8E8F91935D
:100340009596989A9C9EA0A2A3A5A7A9ABADAFB184
:10035000B3B5B7BABCBEC0C2C4C6C9CBCDCFD1D469
:10036000D6D8DBDDDFE2E4E7E9EBEEF0F3F5F8FA0F
:10037000FDFFFFAA7F5540000102030405060708A0
:10038000090A0B0C0D0E0F05010902A101850209D6
:1003900001A100050919012905150025019505751B
:1003A00001810295017503810105010930093115AB
:1003B00081257F95027508810609381581257F956D
:1003C0000175088106050C0A38021581257F950103
:1003D00075088106C0C005010980A10185031901C6
:1003E0002AB700150126B700950175108100C005D8
:1003F0000C0901A101850419012AA002150126A0FA
:1004000002950175108100C00660FF0961A1010914
:1004100062150026FF00952075088102096315000A
:1004200026FF00952075089102C005010906A1016B
:10043000050719E029E715002501950875018102D6
:100440009501750881010507190029FF150026FF90
:10045000009506750881000508190129059505759F
:10046000019102950175039101C00902BF000501C8
:1004700000A0FA0904000001030101000921110193
:1004800000012240000705810308000A0904010059
:1004900002030000000921110100012222000705CA
:1004A0008203200001070503032000010904020064
:1004B000010300000009211101000122810007054C
:1004C000840320000A080B03020101000009040351
:1004D00000000101000009240100010900010409D4
:1004E000040400020103000007240100014100068A
:1004F0002402010100062402020200092403010370
:10050000010201000924030204010101000905069A
:100510000240000500000525010101090585024092
:100520000005000005250101031201000200000082
:1005300008666667660200010203011C0376006913
:100540000061006C003A006600360034006300323F
:1005500000620033006300000012035000320030DC
:10056000002000760065007200320000000E03508B
:10057000006100620069006C00650000000403096E
:10058000042223252628292A2C2D2F3032333536D4
:10059000383A3B3D3E4042434547494A4C4E505114
:1005A000535557595A5C5E6062646668696B6D6F3B
:1005B00071737577797B7D7F81838587898A8C8E3E
:1005C00090929496989A9C9E9FA1A3A5A7A8AAAC46
:1005D000AEAFB1B3B4B6B8B9BBBCBEBFC1C2C3C580
:1005E000C6C7C9CACBCCCDCED0D1D2D2D3D4D5D622
:1005F000D7D7D8D9D9DADADBDBDBDCDCDCDCDCDD55
:10060000DDDDDDDCDCDCDCDCDBDBDBDADAD9D9D838
:10061000D7D7D6D5D4D3D2D2D1D0CECDCCCBCAC9D0
:10062000C7C6C5C3C2C1BFBEBCBBB9B8B6B4B3B1FF
:10063000AFAEACAAA8A7A5A3A19F9E9C9A9896949A
:1006400092908E8C8A89878583817F7D7B7977756F
:1006500073716F6D6B6968666462605E5C5A59574E
:10066000555351504E4C4A4947454342403E3D3B0D
:100670003A3836353332302F2D2C2A292826252397
:100680002200000000000000000000000000000048
:10069000000000000000000000000000000000005A
:1006A00000000000007E0F00D4FFFFFFC700000025
:1006B0007800000000000000002A2B280000000045
:1006C0000000000000000000000000002900000001
:1006D000002C1E3420212224342627252E362D37A7
:1006E00038271E1F202122232425263333362E3778
:1006F000381F0405060708090A0B0C0D0E0F101110
:1007000012131415161718191A1B1C1D2F3130231C
:100710002D350405060708090A0B0C0D0E0F1011E4
:1007200012131415161718191A1B1C1D2F313035EA
:100730004C0011241FBECFEFDAE0DEBFCDBF04B600
:1007400003FE27C08091480490914904A0914A0477
:10075000B0914B048730904BA740B04BD1F410922E
:1007600048041092490410924A0410924B0414BE9B
:1007700084B7877F84BF0FB6F894A89580916000F6
:10078000886180936000109260000FBEE0E0F8E3A3
:10079000099511E0A0E0B1E0E8E4F7E602C00590B9
:1007A0000D92A63CB107D9F724E0A6ECB1E001C058
:1007B0001D92A834B207E1F70E947E0D0C94A2337B
:1007C0000C9400008F929F92AF92BF92CF92DF92D3
:1007D000EF92FF920F931F93CF93DF93CDB7DEB7C6
:1007E00029970FB6F894DEBF0FBECDBFFC01808104
:1007F000918123813481232B31F09F3F31F491E0AB
:100800008F3F19F403C091E001C090E090FF02C057
:100810000C946B0D7F0185E0DE01119601900D9225
:100820008A95E1F7F701228189819A81222349F093
:100830000E94E52E182F682F89819A810E94502FDF
:1008400003C00E94212F182F69817A81812F0E9475
:10085000B8218C01F7019281992309F482C0980193
:1008600022513F452031310508F09DC08FEF93E0C4
:100870000E94B132811180C06EEED62ED00E07E0FC
:1008800011E0DD2071F00115F4E01F0709F474C0D8
:10089000C8010E94B132811101C0DA940F5F1F4F6D
:1008A000F0CF1E821F8218861986AA24AA94680196
:1008B0002FEFC21AD20AC8010E94B1328E831F8262
:1008C000882309F459C0813009F046C0480132E05C
:1008D000830E911CC6010E94B1328F83882309F4D4
:1008E0004BC09FEF980F933060F4680183E0C80E0F
:1008F000D11CC4010E94B132888781112DC08601AC
:10090000D6CF843011F06401FACFC4010E94B13215
:10091000B82E680194E0C90ED11CC80103960E944C
:10092000B132BB2049F1882339F1282F30E0215022
:100930003109A29EA001A39E500D11248B2D90E0A1
:100940000197840F951F0197D0F2EFE9FFE03197EF
:10095000F1F700C00000F7CFCE0106960E941A32D0
:10096000CECF00313FE5130711F00C94600D81E00C
:100970000E94802F0E9453268091CD02877011F42F
:100980000C946B0DF7018281882311F40C946B0D8C
:1009900080915D0282FF02C00C946B0D82E00E9488
:1009A000D1190C946B0D0031FFE51F0711F481E0A4
:1009B00005C001312FE5120721F482E00E948C2F3F
:1009C000D9CF0E3AFCE51F0708F067C10E392CE5B8
:1009D000120790F0992381F20E598091770200FB63
:1009E00087F9809377020695077080917802887F57
:1009F000082B00937802C0CF00393CE5130708F0BC
:100A0000ADC003388CE5180770F0992309F4B4CF12
:100A10000958802F8295807F009176020F70082BF5
:100A200000937602A9CF0138ECE51E0708F06CC0F0
:100A30000737FCE51F0750F0992309F49DCF0757AE
:100A4000802F8F7000917602007FE9CF0F322CE566
:100A5000120708F43EC220917702822F881F882750
:100A6000881F409178024770440F482B822F8F7760
:100A700051EDC52EC00ED12C992351F190917602E3
:100A8000192F15951595159515951F529F702CE0EA
:100A9000929F100D1124100F212F2F774069E091A4
:100AA0001803F0911903082F63E070E088E193E0E8
:100AB0000995F601E453FE4FDF01A85BBF4F8C910F
:100AC0008F5F8C9380818F3F09F056CF108354CF76
:100AD000F601E453FE4F6F012081E85BFF4F9081E8
:100AE00091509083911148CF2F774068E09118037F
:100AF000F0911903082F63E070E088E193E0099515
:100B00008FEFF601808338CF01383CE5130759F4A5
:100B1000992309F431CF20917602822F8F7009F446
:100B20002BCF815F13C002388CE5180709F0D1C1C3
:100B3000992309F421CF20917602822F8F70482FBC
:100B400050E0493051050CF017CF8F5F982F9F7000
:100B5000822F807F892B809376020ECF0C39ECE5B3
:100B60001E0708F058C00239FCE51F0788F09923DA
:100B700009F402CF02598EE0089F002D1124802F26
:100B80008F77009177020078082B00937702F4CEDC
:100B900000392CE51207A1F4992309F4EDCE209138
:100BA0007602822F85958595859585958B3F0CF4EA
:100BB000E3CE815F982F9295907F822F8F70CACF5E
:100BC00001393CE5130709F084C1992309F4D4CE17
:100BD00020917602822F859585958595859586301D
:100BE0000CF0CACE91E0980F9295907F95959595CF
:100BF00095959595392F3295307F2F70232B209323
:100C0000760218160CF0B8CE97FFB6CE8295807F8C
:100C1000922F9F709FCF0C398CE51807F9F4992318
:100C200009F4AACE90917702892F8F77282F30E090
:100C30002115310509F4A0CE90788F3719F4892F4A
:100C4000856706C02D30310534F08D508F77892BA4
:100C50008093770291CE909377028ECE0D39ECE59A
:100C60001E0709F036C1992309F486CE2091770238
:100C7000822F8F77482F50E04F37510509F47CCEF3
:100C80004337510534F4835F982F9F77822F807804
:100C9000DECF2F67209377026FCE043BFCE51F0762
:100CA00099F4992311F04FE701C040E09091770249
:100CB000991F9927991F809178028770880F63E4A4
:100CC000892B0E94862658CE053B2CE5120708F09A
:100CD0004CC0003B3CE5130779F4992309F44CCE52
:100CE00090917702991F9927991F809178028770B8
:100CF000880F40E06BE7E4CF013B8CE5180708F074
:100D00005AC00E3AECE51E0789F4992309F434CE53
:100D100030917702932F991F9927991F209178027C
:100D2000822F8770880F892B815F15C00F3AFCE5F1
:100D30001F0709F0CEC0992309F41ECE3091770227
:100D4000932F991F9927991F20917802822F8770DE
:100D5000880F892B8F5F982F9F7080FB37F9309316
:100D600077029695822F887F22C0073BFCE51F07FC
:100D700009F451C008F46DC0093BECE51E0709F405
:100D800079C008F091C0992309F4F6CD209178023A
:100D9000822F8695869586958F7009F4EDCD815FBB
:100DA0008F70982F990F990F990F822F8778892B21
:100DB00080937802E1CD8091770220917802023B06
:100DC0003CE5130769F4992311F04FE701C040E0B7
:100DD000881F8827881F2770220F61E4822B71CF1C
:100DE000033B1C4560F4992311F04FE701C040E03C
:100DF000881F8827881F2770220F60E4EFCF992370
:100E000011F04FE701C040E0881F8827881F277036
:100E1000220F62E4E3CF992309F4AECD80917802EA
:100E2000282F2695269526952F7091E0920F9F707A
:100E3000990F990F990F8778892B80937802982FB3
:100E4000987709F099CD220F220F220F8778822BF5
:100E5000AFCF053B3CE5130709F423CF063B8CE5F8
:100E60001807B9F5992311F081E001C08FEF809345
:100E7000750282CD992361F090917702991F99278D
:100E8000991F809178028770880F60E070EE1DC016
:100E900090917702991F9927991F80917802877006
:100EA000880F60E070E011C00A3B2CE5120789F45E
:100EB000992371F390917702991F9927991F809137
:100EC00078028770880F6FEF7FE1892B0E945E2682
:100ED00053CD992369F0C801815E9C45059740F484
:100EE0006FE1600F60935E028CE090E00E94C5327B
:100EF00017FFAEC0F7018281882309F4A9C00E94C0
:100F00002921869581708093CA010E9429218170D0
:100F10008093C90180915E02813039F48091CA01C9
:100F2000882319F089E30E948F308091D00280934A
:100F3000C8011092D00280915E02813071F048F0B9
:100F40008230A1F0843029F586EE0E948F3088E14E
:100F50001EC082EE0E9430301CC088E193E00E94E7
:100F60008F3288E193E00E94753213C08091C901ED
:100F7000811103C083E50E948F3082EE0E943030E1
:100F80008FE39CE90197F1F700C0000087E50E941C
:100F90008F30EFE3FCE93197F1F700C00000580112
:100FA000E894B7F82CE0C22ED12C3AE0832E912C95
:100FB000C5010C2C02C0969587950A94E2F78F70B4
:100FC00090915E02923069F48A3038F490E009968C
:100FD000B4010E940D33875A01C086500E948F30A1
:100FE00009C096EF980F963010F0805D01C0895AC5
:100FF0000E94B431F4E0CF1AD1082CEFC2162FEFC3
:10100000D206B1F680915E02813059F030F0823024
:1010100089F08430C9F488E215C082EE0E94F82F6E
:1010200013C08CE20E948F308091CA01882361F046
:1010300089E308C082EE0E94F82F8091C9018111D6
:1010400003C083E50E948F308091C8018093D00255
:10105000033F3CE5130741F190F4083D9CE5190777
:10106000E9F0093DECE51E0789F1073DFCE51F07A6
:10107000B1F506E221EE41EE67ED7CE52CC0053FBF
:101080002CE51207E9F0B0F0063F8CE5180739F5BA
:1010900007E225EE46EE66EF7CE51DC007E225EE91
:1010A00045EE68ED7CE517C006E221EE40EE63EF09
:1010B0007CE511C007E225EE44EE64EF7CE50BC051
:1010C00006E221EE42EE65EF7CE505C008E221E094
:1010D00045EE69ED7CE5C7010E9435214DCCF70155
:1010E0008281882309F445C11092DD020330FDE5B9
:1010F0001F0758F40A3F2CE5120760F4C80182501C
:101100009C45449708F01FC105C001363DE5130713
:1011100009F019C10E94F51890935D0280935C025A
:1011200000318CE5180709F4CAC008F041C0083046
:10113000ECE51E0709F4A4C0F0F404302CE5120716
:1011400009F48CC068F402308CE5180709F482C0F9
:1011500003301C4509F0E7C080915C028260E1C069
:101160000630ECE51E0709F483C008F085C08091C5
:101170005C028860D6C00C302CE5120709F490C0E0
:1011800068F40A308CE5180709F47EC008F084C0C2
:101190000E94C72F80915C028068C3C00E30ECE5CE
:1011A0001E0709F481C008F086C080915C0294C0DB
:1011B0000C3F2CE5120709F47BC038F504318CE5AF
:1011C000180709F49AC058F40231ECE51E0709F437
:1011D0007AC008F07EC080915C028F7BA2C00A3F7B
:1011E0002CE51207F1F108F03FC005311C4509F06C
:1011F0009AC080915C0282FB222720F991E092271D
:1012000090FB82F990FB83F98CC001159DE51907CD
:1012100009F467C050F480915D020E3FFCE51F07A2
:10122000C1F108F05BC08D7F65C002303DE513075A
:1012300009F471C008F46DC001361D4509F073C092
:1012400080915C0284FB222720F991E0922790FB99
:1012500084F967C080915C02816063C080915C0208
:1012600016C080915D0216C080915D02826042C00E
:1012700080915C02806155C080915C02806251C0A7
:1012800080915C0280644DC080915C0288608460C3
:1012900048C0826081602EC080915C028E7F41C018
:1012A00080915C028D7F3DC080915C02877F39C058
:1012B00080915D0214C080915C028F7E32C080916B
:1012C0005C028F7D2EC00E94C72F80915C028F77B9
:1012D00028C080915C02877F8B7F23C08D7F8E7FAB
:1012E00009C080915D02982F909591708E7F892B17
:1012F00090FB81F980935D0216C00E94C72F8091F8
:101300005C0287FB222720F991E0922790FB87F966
:1013100008C061E001C060E08EE090E00E94C5324C
:1013200002C080935C0260915C0210915D0284E0D7
:1013300090E00E94C532612F82E290E00E94C532A7
:101340000E94C72F19CB8091D00206313CE51307CC
:1013500049F58A7A91E009F490E09093CB018823D3
:1013600011F065E301C069E28AE892E00E94E3209F
:1013700016C006311C4509F02EC18091CB0188238F
:1013800009F4A7C385E3EAE8F2E020E932E09281BC
:10139000891301C0128231962E173F07C1F70E94B0
:1013A0008D19EACA82720C3CECE51E0709F4C2C032
:1013B00008F045C0063C2CE5120709F4A7C0D8F494
:1013C000033C9CE5190709F497C030F4023CFCE5A6
:1013D0001F0709F46CC0CEC0043C2CE5120709F4C9
:1013E00090C0053C3CE5130709F0C4C043E954E252
:1013F0006CE974E2A3C0093C9CE5190709F490C0AC
:1014000078F4073CFCE51F0709F485C0083C2CE58F
:10141000120709F0AFC047E854E26BE774E28EC0F0
:101420000A3C3CE5130709F480C00B3C9CE5190716
:1014300009F0A0C040EE52E261EF72E27FC0013DD0
:10144000ECE51E0709F486C0A0F40E3C2CE512075B
:1014500009F47AC008F475C00F3C8CE5180709F44C
:1014600076C0003D9CE5190709F084C06EE089E074
:1014700079C0043DECE51E0709F472C068F4023D32
:101480002CE5120709F469C0033D3CE5130709F098
:1014900071C061E088E16BC0053D8CE5180709F477
:1014A00064C00D359DE5190709F466CA63C08091D3
:1014B000390480FF1BC08E7F80933904609139040A
:1014C00070913A0480913B0490913C040E94CE229A
:1014D00010920103EFEFF0E722E0E150F0402040EE
:1014E000E1F700C000000E94372246CA8160809365
:1014F000390461E086953BC047EE54E260EF74E248
:101500001DC040EF54E267EE74E218C04CE954E2AB
:1015100063E974E213C04BE754E267E874E20EC07B
:1015200043E654E26FE674E209C04FE654E263E634
:1015300074E204C041EF52E260EE72E20E94C22EF9
:101540001BCA61E081E013C065E082E00BC068E087
:1015500086E008C064E18FE005C067E185E102C074
:1015600062E289E10E94B02E07CA61E083E20E9434
:10157000A52402CA0A353DE5130741F150F40115CF
:101580009CE51907A9F00E3D1C4529F50E9411198B
:10159000F3C90B35FDE51F07D9F00C351D45D9F40E
:1015A00080915D0282FB882780F991E0892711C034
:1015B0000E94C72F3FEF84E39CE031508040904071
:1015C000E1F700C000000E945C20D6C981E001C0A4
:1015D00080E00E94EE19F701828100811181882349
:1015E00049F0C8010E94E52ED82E682FC8010E943C
:1015F000502F04C0C8010E94212FD82EB8018D2D74
:101600000E94B8210E945B17C82E192FA82EF7013F
:101610000281D580D2949FE0D9228091CD0287703B
:10162000B9F00023A9F0812F807F803421F080E27F
:101630008C0D883068F080915D0282FD09C082E0E7
:101640000E94D1198091CD028770BB24B39481117F
:10165000B12C912E92948FE09822892D90E08C30BD
:10166000910508F00DC2FC01EA5AFF4F0C94433378
:10167000812F807F1F70882311F01295107F002327
:10168000B9F0112309F4E9C180E28C0D883010F023
:10169000A11006C08091D002182B1093D00205C073
:1016A0008091CF02182B1093CF020E948D19D5C1C3
:1016B0008C2D0E94F82F112309F4E2C180E28C0DD9
:1016C000883088F1AA2079F110958091CF021823F3
:1016D0001093CF022BC0812F807F1F70803211F0BA
:1016E0001295107F8C2DAA2029F0F1E0AF1609F495
:1016F0005EC069C080915D0282FF1BC0002369F05B
:10170000112339F08091D002182B1093D0020E943F
:101710008D1980E00E943030B3C180E00E94F82F24
:10172000112309F4ADC1812F0E9486190E948D19E1
:10173000A7C1002331F1DD20F1F021E0D2120FC06A
:101740008091D302182B181709F49AC10E94AE2079
:101750009093D2028093D1021093D30291C135E0CD
:10176000D31209C00E947B198091CA021817A9F1EF
:101770001093CA0232C08091D302812B0E94EE2FB7
:101780007FC1DD2051F081E0D8120DC08091D002E0
:10179000812309F475C10E94211A0E947B19812FAF
:1017A0000E94E72F6DC195E0D912F7CF69C10023E0
:1017B00029F0E5E0ED1508F463C10FC0F4E0FD1574
:1017C00008F45EC1ECCF002351F0DD2031F0F701C9
:1017D000858180FF42C18F708583812FCFCFDD202F
:1017E000F1F2893309F049C1FFEF27EE33E0F15000
:1017F00020403040E1F73FC1812F86958695837068
:1018000019F0813061F03CC1002321F08C2D912F23
:10181000937002C080E090E00E94132137C1002342
:1018200021F08C2D912F937002C080E090E00E94F7
:10183000FD202CC18C2D002319F00E94EB2502C045
:101840000E9424250E94FA2421C1812F8370A9F5CA
:1018500001111AC14C2D429546954770440F440F13
:101860008C2D8F7090E09C01042E01C0220F0A94F1
:10187000EAF7C4FE08C08FE090E001C0880F4A95E7
:10188000EAF7809501C080E0169516951370123026
:1018900069F088F490913E04113019F0822B89236D
:1018A00002C0922B892B0E94972FEEC0822B909121
:1018B0003E048927F8CF822BF6CF002319F0812F21
:1018C000817001C08695882309F4DEC04C2D4295B5
:1018D00046954770440F440F8C2D8F7090E09C010B
:1018E000042E01C0220F0A94EAF7C4FE08C08FE05C
:1018F00090E001C0880F4A95EAF7809501C080E02A
:10190000169516951370123059F078F490910504DD
:10191000113019F0822B892309C0922B892B06C024
:10192000822B90910504892701C0822B0E947C2F75
:10193000ABC01F70002339F0812F0E948C2F8C2D9B
:101940000E94EE2FA1C08C2D0E94E72F812F0E94B4
:10195000802F9AC08C2D92EFA91689F19A1538F034
:10196000E0EFAE1659F0F1EFAF1611F171C023EFB1
:10197000A21661F134EFA316B9F06AC0002379F022
:1019800084E08D1508F47CC01F7181E090E001C0F7
:10199000880F1A95EAF790910504892721C095E0F0
:1019A0009D1508F46DC0F0CF80915D0282FF1BC0D1
:1019B000002339F0812F8F710E948C2F61C000238A
:1019C000C9F3812F8F710E94802F5AC0002339F0F4
:1019D0001F7181E001C0880F1A95EAF701C080E00D
:1019E0000E947C2F4DC00023D9F08091CA020E9432
:1019F00086198091CD028770843039F40E94CA190B
:101A0000812F8F710E94802F59C0E4E0ED1508F4FA
:101A100055C01F71812F0E948C2F63E0812F11C050
:101A20009091D0028091CA02892B8093D002F4E079
:101A3000FD1550F40E94CA190E94211A64E0812FFA
:101A40008F710E940B1A3AC081E00E94D11936C0F2
:101A5000002329F0DD2009F4ADCF8C2D5BCEDD20F5
:101A600009F4AFCF893349F42FEF37EE83E02150EB
:101A700030408040E1F700C000008C2D0E94F82F1C
:101A800088EF890D843010F40E942921BB2019F1C0
:101A90008091CD0280FD1FC0F7011282859585954A
:101AA00085950E948C2FC7010E94E2038091CD0290
:101AB0008595859585950E94802F0DC0B12CE4CF2A
:101AC00001318FE5180711F00C94E10482E00C94C9
:101AD000B80489E258CC29960FB6F894DEBF0FBE41
:101AE000CDBFDF91CF911F910F91FF90EF90DF90CD
:101AF000CF90BF90AF909F908F900895CF93DF933A
:101B0000CDB7DEB7E2970FB6F894DEBF0FBECDBFFC
:101B100084E0809376028FE7809377028091780249
:101B20008078806480937802ECECF1E084E192E0CC
:101B30002FEF2193DF01A95BBF4F1C928E179F07E8
:101B4000C1F7109274021092750210927B021092EB
:101B50007A0210923D0310923F0310923E0380ECF4
:101B60008093020480E493E0909304048093030440
:101B7000109201041092000410921D0310921C0395
:101B800010921F0310921E03109221031092200343
:101B90001092230310922203109225031092240323
:101BA0001092270310922603109229031092280303
:101BB00010922B0310922A0310922D0310922C03E3
:101BC00010922F0310922E031092310310923003C3
:101BD000109233031092320310923703109236039F
:101BE0008FEF9FE1909319038093180387E69FE19D
:101BF000909339038093380383E49CE190933503F9
:101C00008093340382E49CE190931B0380931A0336
:101C100084B7877F84BF0FB6F894A8958091600041
:101C2000886180936000109260000FBE90E080E8B1
:101C30000FB6F89480936100909361000FBE85B752
:101C4000806885BF85B7806885BF87E396E19093FC
:101C5000C7018093C6010E94051D0E94AB1D8091A3
:101C6000E20084608093E200789480910E038823E0
:101C7000A1F01091E9001F709091EC00892F817004
:101C800090FD80E8182B1092E9008091E80083FD18
:101C90000E94ED271F701093E90082E084BD93E05D
:101CA00095BD9AEF97BD80936E000E94982E81118A
:101CB00002C00E94892E01E311E0B6E3EB2EB1E0F1
:101CC000FB2ED8018D918D018F3F11F00E947C1663
:101CD000E016F106B1F706E311E0F80181918F01FA
:101CE0008F3F11F00E947C16F1E00A331F07A9F71D
:101CF00085E0E5E8F2E0DF01182F1D921A95E9F77B
:101D0000E2E6F2E0DF011D928A95E9F70E940619EA
:101D1000811102C00E94111982E090E00E94B1324C
:101D200080937D020E94F51890935D0280935C027F
:101D30000E949316BFEFE6E7F1E0B150E040F040BB
:101D4000E1F700C000000E9493168091850280FF99
:101D500008C06FEF7FEF80E090E00E94E3320E94C6
:101D60005C2083E090E00E94B1320E94972F8CE0CB
:101D700090E00E94B13290E0A0E0B0E080935E027B
:101D800090935F02A0936002B0936102809167021A
:101D9000811133C00E940619811104C00E941119DB
:101DA0000E94022388E090E00E94B93260933904D7
:101DB00070933A0480933B0490933C046E7F71F4DB
:101DC0000E94022388E090E00E94B93260933904B7
:101DD00070933A0480933B0490933C040E94B42295
:101DE000109201038091390480FF04C060E0869561
:101DF0000E94A52481E080936702F4E78F2EF2E031
:101E00009F2E4AE451E02EE431E0A0E76A2EA2E0E2
:101E10007A2E61E070E08614970409F44EC0F9014F
:101E2000A1919F018A2F82958F7090E0FC01F1A013
:101E3000AF70EA2E8B0101C0000FAA95EAF7F02FD0
:101E4000F095FF22DC019196FC9291979296AC91CD
:101E5000A02BFC01A2A3DA01FD90AD01EF2DE295CC
:101E6000EF70F0E0B1A0BF2DBF70FB2E6B0101C081
:101E7000CC0CBA95EAF7DC2CD094DB20D1A2D2A00E
:101E8000CD28C2A2DC0190968C9190E002C095957D
:101E90008795EA94E2F78170E0A1F0E002C0F59541
:101EA000E795FA94E2F7E0FF02C092E001C090E00B
:101EB000892BF30181933F01AECF80E091E09093B5
:101EC000E1028093E00280910E03853009F045C065
:101ED00000E112E180910E03853009F03AC0809153
:101EE0000E03843021F11092E40228E130E040E456
:101EF0000FB6F894A895209360000FBE4093600041
:101F000083B7817F846083BF83B7816083BF789408
:101F1000889583B78E7F83BF0FB6F894A89580917C
:101F20006000886180936000109260000FBE809115
:101F30000D03882309F4CECF0E949316E5E8F2E062
:101F4000819181116BC66AE872E06E177F07C1F755
:101F5000C1CF0E94C72F0E9429210E949316811190
:101F60000E94A220A5E8B2E0EEE7F2E000E010E077
:101F7000302F2D919191922721F180E0FF24F3944D
:101F8000492F4F21D1F089A73AA72F2181E009F4E9
:101F900080E08BA70E94AE208160782F9DA78CA740
:101FA00049A55AA56BA58DA50E94DA30F801E25823
:101FB000FD4F8081F826F08219C08F5FFF0C8430BE
:101FC000F9F60F5F1F4F0530110591F68FEF8EA7C1
:101FD0008FA718AA0E94AE208160782F9AAB89AB98
:101FE0004EA55FA568A98AA90E94DA3080910103F5
:101FF000882309F493C080910003E0913904E695A9
:10200000E81BE093FC02823059F4F0E0E25EFE4F00
:10201000E4910E2F10E0E9E3EE2EEDE2FE2E59C022
:10202000863059F4F0E0E55EFE4FE4910E2F10E0AB
:1020300079E2E72E7DE2F72E4CC0893061F4E69517
:10204000F0E0E85EFE4FE4910E2F10E06CEBE62E20
:102050006CE2F62E3EC08F3061F4E695F0E0EB5E68
:10206000FE4FE4910E2F10E055E5E52E5CE2F52ED3
:1020700030C0853159F4F0E0EE5EFE4FE4910E2F52
:1020800010E044E0E42E4CE2F42E23C08831A1F0AD
:10209000833249F4E0E1F1E00591149139EEE32E49
:1020A0003CE2F32E16C0843271F000ED17E029ED0A
:1020B000E22E2AE2F22E0DC008E210E098E7E92EA7
:1020C0009BE2F92E06C004EF11E08BE3E82E8BE2D1
:1020D000F82E8091FD02882361F01092FD020E948B
:1020E000AE209093FB028093FA021092FF021092AE
:1020F000FE020E94AE20E091FA02F091FB028E1BDC
:102100009F0B8F3F9F4750F40E0F1F1F1093FB0232
:102110000093FA028AEF92E0F70109957CE6E72E38
:1021200072E0F72E08E612E0E0E78E2EE2E09E2E47
:10213000FAE46F2EF1E07F2EAEE4AA2EA1E0BA2ED3
:102140006401212C312CB4E04B2E512CD6018D9101
:102150006D01E82FEE0FEE0FD5012D915D01A22F3D
:10216000A295AF70B0E090968C9190E02F7002C075
:10217000959587952A95E2F79C0121703327D30125
:102180008D913D01A82FA295AF70B0E090964C9133
:1021900050E08F7002C0559547958A95E2F7CA01C5
:1021A0008170992740FF02C082E090E0822B932B40
:1021B0008E2BF40181934F018F70E82FF0E0E65CE5
:1021C000FE4F9081D7018C91890F8C93843054F00D
:1021D000F80180818F5F808360E0832D0E94192E3B
:1021E00021E001C020E0D7018C918D3F4CF4F80133
:1021F00080818150808361E0832D0E94192E21E02F
:10220000D7018C91082E000C990BB2010E940D335E
:10221000F70181937F01222A33940F5F1F4FF4E06F
:102220003F1294CF21100E94A22086E0E4EFF2E05A
:102230008E010F5F1F4FD80101900D928A95E1F733
:10224000C090F602D090F702E090F802F090F90208
:102250001092F6021092F7021092F8021092F90210
:10226000C11003C0DD2009F451C08091F2029091A9
:10227000F3020E9493209C019091EE02992309F4AD
:10228000ECC42333310508F441C09F3F19F09F5F30
:102290009093EE02CC2061F00E94CB251C1414F424
:1022A00091E001C09FEF899F802D11248093F60259
:1022B000DD2061F00E94CB251D1414F491E001C0D3
:1022C0009FEF899F802D11248093F7023091F602B1
:1022D0003323E1F02091F7022223C1F045EB3403D0
:1022E000C0011124992319F09093F60203C081E0F4
:1022F0008093F60265EB2603C0011124992319F09F
:102300009093F70203C081E08093F702E11003C0CD
:10231000FF2009F451C08091F0029091F1020E94D7
:1023200093209C019091ED02992309F49BC42536DA
:10233000310508F441C09F3F19F09F5F9093ED0273
:10234000EE2061F00E94A9251E1414F491E001C052
:102350009FEF899F802D11248093F802FF2061F068
:102360000E94A9251F1414F491E001C09FEF899FDA
:10237000802D11248093F9023091F8023323E1F08B
:102380002091F9022223C1F075EB3703C00111241B
:10239000992319F09093F80203C081E08093F8022A
:1023A00035EB2303C0011124992319F09093F9020E
:1023B00003C081E08093F9028091F60281110BC085
:1023C0008091F702811107C08091F802811103C04A
:1023D0008091F90281110E94FA24CB82DC82ED8285
:1023E000FE8286E0F801A4EFB2E001900D928A959A
:1023F000E1F7E0913803F0913903309719F088E163
:1024000093E009952FB7F894E090010490910004AF
:10241000E91618F480910204E80EE91A2FBFC12CC6
:10242000D12CF12C43E0842E912CAA24A394B12C1E
:1024300064E0462E55245394CE14DF0408F0B4C053
:102440008091000490E06091020470E00E940D33DE
:10245000E0910304F0910404E80FF91F708060908C
:102460003D0347EF471560F450923D0320E040E004
:10247000672D81E090E00E94992660923D0382C022
:1024800077FE4FC064E0661631F070923A03B09266
:102490003F03A0923E03872D0E94411F813031F0FF
:1024A00080F0823059F0833049F034C080933D038E
:1024B00020E040E0672D81E090E027C080933D035D
:1024C00061C070EF7716E1F087EF781223C020919A
:1024D0003E0330913F03C901B4010E94F932FC016F
:1024E000E85EFC4F72A2C901019690933F0380936E
:1024F0003E0320913C0340913B0360913A0305C0A9
:1025000040923D0370923A0333C00E949926109284
:102510003D0338C010923D0310923F0310923E03DA
:1025200031C0662079F120913E0330913F03C9010B
:10253000B4010E94F932AC01FC01E85EFC4F72A2CA
:10254000C901019690933F0380933E0341305105AA
:10255000A1F042305105B1F420913C0340913B037E
:1025600060913A030E94992680913D03843051F096
:10257000B0923F03A0923E0305C0A2E06A1202C0DF
:1025800020E0ECCF2FB7F8948091000490E0019602
:102590006091020470E00E940D33809300042FBF0D
:1025A000BFEFCB1ADB0A48CF80917A0290917B0271
:1025B0000E949320209178022695269526952F70CB
:1025C00030E08217930798F10E94AE2090937B022F
:1025D00080937A0280917502882349F19091770265
:1025E000991F9927991F809178028770880F4091D1
:1025F000740261E0892B0E94862690917502809179
:10260000740297FF0FC0282F30E0E92FFF27E195D4
:102610000CF4F0952E173F072CF4109274021092D0
:10262000750205C0890F87FD8FE7809374020E94B1
:10263000292190917C02891721F00E942921809301
:102640007C0280910E038430F1F480910F018F7031
:102650008093E9009091E80090FF15C090910E03DF
:10266000943089F48093E9002091F3008091F20086
:1026700090E0922B892B39F08091E8008E7780933F
:10268000E8000E94241D80910E03843009F01BCCC9
:1026900083E08093E9008091E80082FF14CC809170
:1026A000E80085FF09C040E050E060E270E0C8014A
:1026B0000E94C12791E001C090E08091E8008B77F3
:1026C0008093E800992309F4FECBE090D902F090C2
:1026D000DA028981E114F10461F08E3F09F076C2DB
:1026E0008A81833008F4BBC18550833008F06EC204
:1026F000B6C1893009F4E8C0D0F4843009F46DC063
:1027000050F48230A1F108F059C0813009F05CC268
:102710001A8289E046C2863009F471C008F464C0A8
:10272000873009F46FC0883009F4AEC04DC28031E3
:1027300009F433C180F48D3009F4D1C028F48C3011
:1027400009F042C280E12DC18E3009F4CCC08F3037
:1027500009F4F4C039C2823109F425C108F420C15A
:10276000833109F449C18E3F09F479C12DC28A81B0
:10277000823009F469C2833051F0813009F024C2FB
:102780000E94A2209B838C837D836E831FC28091D5
:102790000C0190910D01892B09F418C280918502DA
:1027A0008B83809186028C83809187028D838091B8
:1027B00088028E83809189028F8308C28A81823049
:1027C00009F002C26B817C818D819E810E94493318
:1027D00086E290E00E94C532F9C14C816B818A810A
:1027E0000E94EB2D9D8337C22D813E813227232706
:1027F00032274C816B818A810E94B52DE7C10E94EE
:10280000D421E4C18A818138B1F050F4803809F0D4
:10281000DDC120E04B8160913B0480913A0431C0DE
:10282000823859F1833809F0D1C120E040913C044D
:102830006C818B8126C060E08B810E94A5249B81E6
:1028400080913904911111C08E7F809339041092C8
:102850000103FFEF20E732E0F15020403040E1F784
:1028600000C000000E943722B1C18160809339040A
:1028700060E086950E94A524A9C18B8180933D04C8
:10288000A5C10E94C523A2C18A81813891F030F48C
:10289000803809F09BC180913C0483C1823889F063
:1028A000833809F093C180913A048B8380913B0473
:1028B0004AC18091390480FF02C0869572C180E0D0
:1028C00070C180913D046DC16091390470913A04EA
:1028D00080913B0490913C040E94CE2277C182E01B
:1028E0008A8389EF5EC1EA80FB80FE24EF24FE2408
:1028F000AC80B12C4DE1A416B10408F067C16801A9
:10290000C701895F9E4F9601201B310B2A153B059D
:1029100008F05CC169EFE61662E0F60630F40E944A
:10292000B132D60114968C9302C0F6011482FFEFE7
:10293000EF1AFF0A2FEFC21AD20AE2CF80910C01E0
:1029400090910D01892B09F441C1EA80FB80FE249E
:10295000EF24FE24CC80D12C3DE1C316D10408F035
:1029600035C15801C701895F9E4F9501201B310B6E
:102970002C153D0508F02AC149EFE41642E0F406A3
:1029800028F4D50114966C910E94C532BFEFEB1A62
:10299000FB0AEFEFAE1ABE0AE5CF0E94A82116C1CE
:1029A00084E08A8313C1EA80FB80FE24EF24FE24A6
:1029B000AC80B12CFDE1AF16B10408F007C168018D
:1029C000C70187969601201B310B2A153B0508F09D
:1029D000FDC020EAE216F10430F40E94B132D601C3
:1029E00014968C9302C0F6011482FFEFEF1AFF0ACF
:1029F0002FEFC21AD20AE4CFEA80FB80FE24EF2434
:102A0000FE24CC80D12C3DE1C316D10408F0DEC0F9
:102A100040EAE416F10408F0D9C080EA90E08E198B
:102A20009F098C159D0508F4D1C05801C7018796F0
:102A30009501201B310B2C153D0508F0C7C060EA3D
:102A4000E616F10428F4D50114966C910E94C53263
:102A5000BFEFEB1AFB0AEFEFAE1ABE0AE7CFEA812F
:102A60008E2F90E08E30910508F0B0C0FC01EE5939
:102A7000FF4F0C94433388E0E9E2F1E0DE019196E8
:102A800001900D928A95E1F780E2D8011D928A9516
:102A9000E9F784E0898388E0FE01B196DE011596AE
:102AA00001900D928A95E1F791C088E2898381E0D7
:102AB0008A831B821C828AC08C8190E0982F882791
:102AC0002B81820F911D092E000CAA0BBB0B35E048
:102AD000880F991FAA1FBB1F3A95D1F7AC01BD0102
:102AE000405E5F4F6F4F7F4F481759076A077B075C
:102AF00008F46CC08832E1E09E07A105B10508F03A
:102B000065C04932F1E05F076105710520F048E2D8
:102B100051E060E070E0481B590BBC016E5D7E4FD8
:102B2000C8010E94A83252C0FB80EC8040E06E2DAC
:102B30008F2D0E94852D99838A8341E06E2D8F2DE4
:102B40000E94852D9B838C8341C02E813F8132273B
:102B5000232732274D816C818B810E944D2D36C0F9
:102B600040E250E06FEF70E0C8010E949B3380911B
:102B70000C018983EA822AC081E090E09093DA0216
:102B80008093D90282E390E0909384028093830241
:102B90000E94AE201BC080910C018983EA82809143
:102BA00083028B8313C040E250E06FEF70E0C801F6
:102BB0000E949B330BC08B81811108C080E2D80139
:102BC0001D928A95E9F702C08FEF898380910E03E9
:102BD000843009F078C98091E9008F702091EC0071
:102BE000922F917020FD90E8F92EF82A82E08093D0
:102BF000E9008091E80080FF0CC040E050E060E216
:102C000070E0C8010E9495278091E8008E7780933C
:102C1000E8008F2D8F708093E90055C909BD19BD5B
:102C200009B400FEFDCF8091D8008F7D8093D8003D
:102C30008091E00082608093E0008091E00081FD5F
:102C4000FCCF0E94C72F46C986E290E00E94B132B5
:102C50001B821C821D828E83B9CF2D32314008F039
:102C600016CB54CB2D32314008F067CBA5CB80E09A
:102C7000089590915C0292FF0DC0282F2871283092
:102C800019F4877F846006C0282F2471243011F442
:102C90008B7F886093FF0DC0282F2871283119F48D
:102CA000877E846106C0282F2471243111F48B7E25
:102CB000886120915D0220FF0DC0382F38713830B7
:102CC00019F4877F816006C0382F3171313011F4DB
:102CD0008E7F886021FF0DC0282F2871283119F4BC
:102CE000877E816106C0282F2171213111F48E7EEB
:102CF000886194FD877E0895F894E82FE295EF703F
:102D0000F0E031A1282F2F7081E090E001C0880F02
:102D10002A95EAF7982F9095932391A392A1892B56
:102D200082A3789408957F928F929F92AF92BF92E0
:102D3000CF92DF92EF92FF920F931F93CF93DF9387
:102D400000D000D01F92CDB7DEB7AE014F5F5F4F0E
:102D50007A0185E0FA0111928A95E9F701E311E021
:102D60006A0186E3A82E81E0B82E88248394912CF2
:102D7000F80180818F3F09F441C0F894E82FE29573
:102D8000EF70F0E021A18F70A40102C0440F551F25
:102D90008A95E2F7CA01922F982B91A392A1809570
:102DA000892382A3789400C0E6E3F1E0712C31E03E
:102DB00021912F3F89F0A22FA295AF70B0E090969D
:102DC0008C9190E02F7002C0959587952A95E2F737
:102DD00080FD02C0832F01C080E0782A330F51E0CC
:102DE000EA33F50729F7F80180818F3F11F00E943F
:102DF0007C16F0EAFA95F1F7F60170820F5F1F4F2B
:102E0000FFEFCF1ADF0AA016B10609F0B1CF45E0F7
:102E100050E0B70182E692E00E948E3311E0009705
:102E200009F410E0892B89F085E0F701A2E6B2E011
:102E300001900D928A95E1F781E08093D6020E947D
:102E4000AE209093D5028093D4028091D60288233D
:102E5000F1F08091D4029091D5020E9493200597C1
:102E6000B0F080916202809385028091630280932A
:102E7000860280916402809387028091650280932C
:102E8000880280916602809389021092D602812F77
:102E90000F900F900F900F900F90DF91CF911F9197
:102EA0000F91FF90EF90DF90CF90BF90AF909F90E9
:102EB0008F907F900895CF93DF938238910569F1C9
:102EC000B0F48133910509F46FC048F4893291055B
:102ED00009F465C08A32910509F46BC08AC0853354
:102EE000910509F457C089339105B9F082C0833E3A
:102EF000910571F138F4803E9105B1F0823E910563
:102F000011F177C0863E9105B9F1873E9105C9F16F
:102F1000843E910509F06DC024C020915C0220FD23
:102F200053C021FD51C065C080915C0280FD46C048
:102F300080915D0280FF48C080915C0284FD50C199
:102F400083EE90E04FC180915C0282FF3AC0F4CFE3
:102F500080915C0282FD35C080915D0280FD34C0AD
:102F6000EBCF80915D0281FF35C080915C0284FDD2
:102F700037C187EE90E036C180915C0283FF27C0A5
:102F8000F4CF80915C0283FD22C080915D0281FDBF
:102F900021C0EBCF80915C0285FD1FC021C08091D4
:102FA0005C0285FD1DC019C080915C0286FD1BC0BE
:102FB0001DC080915C0286FD19C015C089E390E0B8
:102FC00011C182EE90E00EC180EE90E00BC186EE62
:102FD00090E008C184EE90E005C189E290E002C172
:102FE00085E390E0FFC08AE290E0FCC081E390E0DE
:102FF000F9C0811531E5930708F069C0811540E5F6
:103000009407F0F09C0174E0369527957A95E1F7E6
:10301000922F9370482F437021E030E002C0220FBE
:10302000331F4A95E2F73C68392B982F9F7096958D
:10303000969540E2949FC0011124822B932BD2C01D
:10304000883E910568F5803E910508F0CBC0883A2E
:103050009105B8F4853A910548F0855AE82FF0E0DB
:10306000EE5AFE4F808190E09064BCC081309105A3
:1030700009F4B3C008F4B4C08430910508F4B0C0BA
:10308000B1C08F3B910508F0ABC0885AE82FF0E043
:10309000EE0FFF1FEB5AFE4F808191819464A2C016
:1030A000811520E2920758F4811531E0930708F06A
:1030B00099C0803F910508F493C0906593C0811535
:1030C00040E4940708F48CC09F70906A8BC081150F
:1030D00025E5920708F042C0811534E5930728F0F2
:1030E000982F8827846F906A7DC0811543E59407E7
:1030F000B0F09C012370332741E050E002C0440F40
:10310000551F2A95E2F7282F2695269580E2289FBD
:1031100090011124CA01822B932B9A6863C08115F8
:1031200022E5920728F4982F8827816F906A5AC069
:103130009C012370332741E050E002C0440F551F2B
:103140002A95E2F7282F2695269580E2289F900160
:103150001124CA01822B932B9C6844C0EC01811579
:1031600039E59307A8F48115984528F09C2F882706
:10317000806F906A37C0C11586E5D80788F58C2F17
:103180000E9439168F7190E0982F882790622AC08C
:1031900081152AE5920790F48C2F8F700E943916C2
:1031A00094E0D695C7959A95E1F7CF70D0E0DC2FE3
:1031B000CC27D0699E01282BC90114C090568115D7
:1031C000904270F48D2F8F710E943916282F2F7125
:1031D000CE0199279062922B05C081E090E002C059
:1031E00080E090E0DF91CF910895CF9384E090E06C
:1031F0000E94B132C82F82E290E00E94B1322C2F9F
:1032000030E0A901582BCA01CF91089580E090E0E9
:103210000E94BF328A3E9E4F11F40C94982E80E09B
:1032200008956AEE7EEF80E090E00E94E33260E075
:1032300082E090E00E94C53260E083E090E00E946E
:10324000C53210923E0460E084E090E00E94C532F6
:1032500060E082E290E00E94C53260E085E090E0AC
:103260000E94C53260E086E090E00E94C5326FEFB8
:1032700087E090E00E94C53240E050E0BA0188E06B
:1032800090E00E94D73260E08DE090E00E94C5326D
:1032900040E050E0BA0188E190E00E94D73260E05F
:1032A00087E190E00E94C53240E050E0BA018CE135
:1032B00090E00E94D73260E070E080E290E00E94EF
:1032C000E33240E050E0BA0188E190E00E94D7325A
:1032D00080E00E946D2E0E94892E40E050E0BA01ED
:1032E0008FE090E00E94D73240E050E0BA0183E1E5
:1032F00090E00C94D7328091D302882331F0109261
:10330000D3021092D2021092D1020895809590912A
:10331000D00289238093D00208959091D0028091A9
:10332000CF02892B9091CE02892B80938A028091C3
:10333000D302882311F10E94AE202091D102309156
:10334000D202821B930B8838934110F00E947B19A4
:1033500090918A028091D302892B80938A02ECE8B3
:10336000F2E097E080E0915029F021912223D9F3F7
:103370008F5FF9CF81110E947B19E091E002F091FB
:10338000E102309731F00280F381E02D8AE892E08B
:10339000099408951092CD021092CC021092CB02A3
:1033A00008952091CD02809582238093CD02982F9D
:1033B000977099F430E0482F082E000C550B241715
:1033C000350759F090915D0292FD07C0859585956E
:1033D00085950E94802F0C94CA190895CF93C091AF
:1033E0005D02C2FB992790F9981799F080FBC2F90A
:1033F000C0935D0260915C0284E090E00E94C5325F
:103400006C2F82E290E00E94C53282E0CF910C9452
:10341000D119CF91089590915D0292FD10C098E06E
:10342000899F90011124262B2093CD020E948C2F7E
:103430000E94AE209093CC028093CB0208950C940E
:103440008C2F8091CA0281111092CA020895809136
:10345000C90290919802891719F08F5F8770FBCF8E
:1034600008950F931F93CF93DF93809197028295D6
:103470008F7009F05DC080919402882309F458C0D0
:103480008091C9021091980260919202709193020A
:10349000C0919502D091960291E06F3F09F090E0C3
:1034A000292F06E0811709F443C0209721F07F3FC0
:1034B00021F030E003C031E001C0322F90E030FD58
:1034C00034C0089FF001099FF00D1124DF01A756B9
:1034D000BD4F11963C911197371327C03C9136137D
:1034E00024C012963C91129731111FC013964D9132
:1034F0005C9114974C1B5D0B483C5105B0F48091D6
:1035000097028F70806180939702E256FD4F808111
:103510008F708061808382E992E00E94E203DF91F4
:10352000CF911F910F910C94271A01968770BACFF3
:10353000DF91CF911F910F9108959F92AF92BF920B
:10354000CF92DF92EF92FF920F931F93CF93DF936F
:10355000CDB7DEB761970FB6F894DEBF0FBECDBF13
:103560008C0185E0F801DE011D9601900D928A958F
:10357000E1F7F801E280909192026091930240910C
:103580009502509196024115510531F06F3F31F48B
:1035900081E09F3F19F403C081E001C080E0F82F73
:1035A000F1709F2E80FD1AC1F80130812181C38006
:1035B000D48082E9A82E82E0B82EF0909402F60121
:1035C000E41BF50BFF2009F4C6C080919702E83C8C
:1035D000F10508F091C0482F407F09F050C06213F8
:1035E00011C093130FC0FE2CE1100CC08F708061CE
:1035F00080939702C5010E94E20380919702F8012F
:10360000858329C1CD2831F02F3F31F481E03F3F40
:1036100019F403C081E001C080E080FD03C081E0B7
:103620008E2502C080E090E0F82FF170FF2E80FF21
:103630001CC08091C9024091980256E0841709F499
:10364000E8C090E0589FF001599FF00D1124E75613
:10365000FD4F6181261306C06081631303C0628140
:10366000E61203C001968770E9CFFE2CEE2009F424
:10367000F2C08091970281608093970249C06213E3
:1036800006C0931304C0E11002C0F80186C0C8014F
:103690000E949B2F882351F1EE2041F12091970247
:1036A000822F82958F7090E0029774F08091920241
:1036B0009091930298878F831986DB86CA862C8720
:1036C000CE0107960E94E20386E0F801A2E9B2E08B
:1036D00001900D928A95E1F70E94311A0AC0621793
:1036E000C9F0C8010E949B2F81111EC0C8010E9411
:1036F000E203FF24F394AFC0482F407F81F782E9B3
:1037000092E00E94E20386E0F50111928A95E9F7C2
:10371000F12CA1C09313E5CFE110E3CFF80185832D
:10372000C8010E94E20354C0EE2001F320919702E9
:10373000822F82958F7090E0029734F280919202EE
:10374000909193029A8389831B82DD82CC822E839F
:10375000CE010196B7CFE83CF105D0F5FE2CEE2066
:1037600029F2621327C0931325C02091970220FDF0
:1037700018C0822F82958F70482F50E04115510557
:1037800081F0F80125834F30510541F08F5F982F6C
:103790009295907F822F8F70892B8583C8010E941C
:1037A000E20386E0F801A2E9B2E001900D928A9569
:1037B000E1F751C0C8010E949B2F811185CF8091F4
:1037C0009702816080939702C8010E94E20343C080
:1037D00086E0F50111928A95E9F73DC0EE2009F4E3
:1037E00085CFC8010E949B2FF82E882309F47ECF35
:1037F00086E0F801A2E9B2E001900D928A95E1F726
:1038000080919202909193020E94142F0E94311A8B
:1038100022C03D872E878D859E850E94142F292FDB
:1038200022952F70223028F49F7039F0811105C045
:103830000BC0243028F49F7049F4805E883020F05B
:10384000C8010E94E2039F2CF92C05C0F801958164
:10385000907F99F7F9CF8F2D61960FB6F894DEBF60
:103860000FBECDBFDF91CF911F910F91FF90EF90D1
:10387000DF90CF90BF90AF909F9008950895809172
:1038800003030895089508958093E9027093EB026D
:103890006093EA0280910E038430F9F48093E9008A
:1038A0008FEF9091E800815095FD06C095ED9A95B7
:1038B000F1F700008111F5CF8091E80085FF0DC080
:1038C00040E050E063E070E089EE92E00E949527CE
:1038D0008091E8008E778093E8000895BC0184E031
:1038E0000C94441CBC0183E00C94441C24E0209301
:1038F000E9002FEF3091E800215035FD06C035ED8D
:103900003A95F1F700002111F5CF2091E80025FF4D
:103910000BC040E050E066E070E00E949527809187
:10392000E8008E778093E8000895CF93DF9321E03D
:103930002093E9002FEF3091E800215035FD06C0BB
:1039400035ED3A95F1F700002111F5CF2091E8000F
:1039500025FF14C0EC0140E050E068E070E00E94F8
:1039600095278091E8008E778093E80088E0FE013B
:10397000A4E0B3E001900D928A95E1F7DF91CF9139
:1039800008951F920F920FB60F9211242F933F9319
:103990004F935F936F937F938F939F93AF93BF9357
:1039A000CF93DF93EF93FF93C091E900CF708091A5
:1039B000EC00D82FD17080FDD0E81092E900809102
:1039C000F000877F8093F00078940E94ED2710929A
:1039D000E9008091F00088608093F000CD2BCF70DB
:1039E000C093E900FF91EF91DF91CF91BF91AF912B
:1039F0009F918F917F916F915F914F913F912F9107
:103A00000F900FBE0F901F901895E8EDF0E08081A9
:103A10008E7F80831092E2001092DA001092E10013
:103A2000A0EEB0E08C9181608C9380818F77808351
:103A300019BCA7EDB0E08C918E7F8C9380818F7E36
:103A400080831092EC0208952091E4003091E5000B
:103A500095E64091EC00842F817040FF23C0809157
:103A6000E80080FD1DC080910E03882399F0853009
:103A700099F08091EB0085FD11C04091E4005091D8
:103A8000E5002417350729F3915011F09A01E1CF91
:103A900084E0089582E0089583E0089581E0089528
:103AA00080E008954091E80042FFDDCF08958091C5
:103AB000100387FF11C08091E80082FD05C080914E
:103AC0000E038111F8CF11C08091E8008B770BC0F5
:103AD00080910E03882349F08091E80080FFF8CFA1
:103AE0008091E8008E778093E8000895982F9730B2
:103AF00068F59093E900981739F07091EC002091E7
:103B0000ED005091F00003C0242F762F50E021FDEE
:103B100002C09F5FECCF3091EB003E7F3093EB0013
:103B20003091ED003D7F3093ED003091EB0031603E
:103B30003093EB007093EC002093ED005093F00075
:103B40002091EE0027FDE5CF80E008958F708093EF
:103B5000E90081E00895CF92DF92EF92FF920F93F8
:103B60001F93CF93DF93C8EDD0E088818F7E888349
:103B7000E7EDF0E080818160808384E082BF81E0B6
:103B80008093EC0288818E7F888302EE10E0F8013A
:103B900010821092DA0081EEC82ED12CF60110822C
:103BA00088818F77888388818068888388818F7DEA
:103BB000888319BC10920E0310920F0310920D030C
:103BC00010920C0390EEE92EF12CF70180818B7F8F
:103BD000808388818160888342E060E080E00E9489
:103BE000761DF60180818E7F8083F801808181605F
:103BF0008083808188608083F70180818E7F8083CD
:103C0000888180618883DF91CF911F910F91FF9010
:103C1000EF90DF90CF9008951F920F920FB60F9202
:103C200011242F933F934F935F936F937F938F93C1
:103C30009F93AF93BF93EF93FF938091E10082FF37
:103C400009C08091E20082FF05C08091E1008B7F76
:103C50008093E1008091DA0080FF2AC08091D80033
:103C600080FF26C08091DA008E7F8093DA008091F9
:103C7000D90080FF18C080E189BD82E189BD09B407
:103C800000FEFDCF81E080930E038091EC02811154
:103C90000FC00E94051D0E94AB1D8091E200846050
:103CA0008093E20005C019BC10920E031092EC0242
:103CB0008091E10080FF17C08091E20080FF13C077
:103CC0008091E2008E7F8093E2008091E20080612B
:103CD0008093E2008091D80080628093D80019BC64
:103CE00085E080930E038091E10084FF30C08091D5
:103CF000E20084FF2CC080E189BD82E189BD09B466
:103D000000FEFDCF8091D8008F7D8093D8008091F8
:103D1000E1008F7E8093E1008091E2008F7E8093AE
:103D2000E2008091E20081608093E20080910F03C5
:103D3000882311F084E007C08091E30087FD02C072
:103D400081E001C083E080930E0380910E03809197
:103D5000E10083FF27C08091E20083FF23C08091B0
:103D6000E100877F8093E10082E080930E03109250
:103D70000F038091E1008E7F8093E1008091E2004B
:103D80008E7F8093E2008091E20080618093E20068
:103D900042E060E080E00E94761D8091F000886043
:103DA0008093F000FF91EF91BF91AF919F918F9120
:103DB0007F916F915F914F913F912F910F900FBE27
:103DC0000F901F9018952091160330911703261716
:103DD000370748F06115710539F42091E8002E7716
:103DE0002093E80001C0B901FC0120E061157105D4
:103DF00079F180910E038823F1F18530F1F1809102
:103E0000E80083FD3CC08091E80082FD2EC08091D7
:103E1000E80080FFEBCF2091F3008091F20090E06A
:103E2000922B6115710551F08830910538F421917C
:103E30002093F100615071090196F3CF21E00897BA
:103E400009F020E08091E8008E778093E800CECFE3
:103E50002111CFCF0AC080910E03882361F08530F5
:103E600061F08091E80083FD0AC08091E80082FF44
:103E7000F2CF80E0089582E0089583E0089581E024
:103E80000895982F907F903BF1F038F49039D9F055
:103E9000903AC9F09038C9F416C0903D49F018F432
:103EA000903C31F012C0903E71F0903F19F00DC07F
:103EB00082E00895815F8F3040F4E82FF0E0ED5705
:103EC000FE4F8081089583E0089580E00895BF92B9
:103ED000CF92DF92EF92FF920F931F93CF93DF93D6
:103EE000CDB7DEB727970FB6F894DEBF0FBECDBFB4
:103EF0007E0125E0E20EF11C8C0108511F4F8091DC
:103F00000E03843009F06BC0809114018F70809390
:103F1000E9008091E80082FF62C08091E80085FF9F
:103F20005EC040E050E064E070E0CE0101960E9487
:103F3000C1278091E80085FD05C08091E8008B775E
:103F40008093E800DA808D2D0E94411F282FDD82AA
:103F50008B818E838C818F8321110EC08981843067
:103F600041F0873031F0863031F0853041F621E084
:103F700003C023E001C022E067018C2D8E19821757
:103F800008F0BDCFD601BD906D013FB7F894D801C0
:103F90001196EC911197F0E0CF01019612966C9179
:103FA00070E00E940D33D8014C9150E084179507C2
:103FB000A1F0D80113968D919C911497E80FF91FE9
:103FC000B08211968C91119790E0019612966C91A7
:103FD00070E00E940D33F80181833FBFCECF27965A
:103FE0000FB6F894DEBF0FBECDBFDF91CF911F910A
:103FF0000F91FF90EF90DF90CF90BF900895DF92E8
:10400000EF92FF920F931F93CF93DF9300D000D0D6
:10401000CDB7DEB77B01142FD22E4A832B830C83BE
:10402000842F0E94411F81111CC082E0E816F10418
:1040300071F083E0E816F10421F0EA94EF2881F5AD
:104040000BC0073F11F487E00AC084E008C087EF87
:10405000D812FBCF86E003C0173FB9F785E089830C
:1040600003C012951F70198380910E038430C1F430
:1040700080910F018F708093E90040E050E064E090
:1040800070E0CE0101960E949527811109C08091B0
:10409000E80085FD05C08091E8008E778093E800F8
:1040A0000F900F900F900F90DF91CF911F910F9174
:1040B000FF90EF90DF90089587E797E790930108CE
:1040C000809300089AE088E10FB6F894A895809351
:1040D00060000FBE90936000FFCF78941F920F9204
:1040E0000FB60F9211248F939F93AF93BF9380913C
:1040F000E5029091E602A091E702B091E8020196F4
:10410000A11DB11D8093E5029093E602A093E70202
:10411000B093E802BF91AF919F918F910F900FBE26
:104120000F901F9018959C014FB7F8948091E5026D
:104130009091E602A091E702B091E8024FBF821B86
:10414000930B08952FB7F8946091E5027091E60201
:104150008091E7029091E8022FBF08952FB7F8945D
:104160008091E5029091E602A091E702B091E80209
:104170002FBF08951F920F920FB60F9211248F93A5
:104180009F93AF93BF938091E402811113C08091FC
:10419000E5029091E602A091E702B091E802419613
:1041A000A11DB11D8093E5029093E602A093E70262
:1041B000B093E802BF91AF919F918F910F900FBE86
:1041C0000F901F9018959C01FC0132969FEF80E0A4
:1041D0004191461789F09F3F19F4411101C0982F72
:1041E0008F5F8630A9F79F3F39F0F901E90FF11D84
:1041F00097FDFA956283089508952091E202309127
:10420000E3022817390771F09093E3028093E202EA
:10421000E091E002F091E102309721F00084F18515
:10422000E02D099408952091DE023091DF022817D5
:10423000390771F09093DF028093DE02E091E00293
:10424000F091E102309721F00680F781E02D09948A
:104250000895E091E002F091E102309721F00190A1
:10426000F081E02D099480E008950F931F93CF9380
:10427000DF93C42FD22FFC0182818823C9F04093A1
:10428000DD020E94AE209093DC028093DB0280E28C
:104290008C0F883008F057C0C77081E001C0880FCC
:1042A000CA95EAF7DF91CF911F910F910C94EE2FF1
:1042B0008091DD02481330C08091DB029091DC02D6
:1042C0000E949320883C910538F510E21D0FCD1710
:1042D000B9F080E28C0F883040F4C77081E001C0F3
:1042E000880FCA95EAF70E94E72F183028F581E079
:1042F0009D2F977001C0880F9A95EAF70E94EE2FC4
:10430000802F0E948F301830F0F4D77081E001C008
:10431000880FDA95EAF70AC080E28C0F883098F4AB
:10432000C77081E001C0880FCA95EAF7DF91CF918D
:104330001F910F910C94E72F802FDF91CF911F9148
:104340000F910C948F30DF91CF911F910F910895B1
:10435000CF93DF93C7E0D1E060E0CE010E94C53289
:104360002196C11584E0D807B9F7DF91CF91089560
:10437000462F2091D9023091DA02232B91F47E3F0F
:1043800039F46E3F71F48091D7029091D80208956C
:10439000843038F4753028F4643018F4672F0C94A6
:1043A000EB2D80E090E008958F929F92AF92BF92A4
:1043B000CF92DF92EF92FF920F931F93CF93DF93F1
:1043C000C0900C01D0900D0181E090E090930D0120
:1043D00080930C01E12CF12C912C812C00E010E059
:1043E000C0E0D0E05801AE0CBF1CF501EC0FFD1F82
:1043F000EE0FFF1FE65BFD4F259134914C2F682D8A
:10440000892D0E94B52D2196C430D10571F70C5F1E
:104410001F4F839485E08812E3CFC0E021E030E0B5
:1044200040E06C2F892D0E944D2D21E030E041E0CD
:104430006C2F892D0E944D2DCF5FC43079F7939456
:1044400084E1E80EF11C84E09812C7CFD0920D01F0
:10445000C0920C01DF91CF911F910F91FF90EF90CF
:10446000DF90CF90BF90AF909F908F9008950F9363
:104470001F93CF93DF93CDB7DEB7E0970FB6F894D5
:10448000DEBF0FBECDBF8091390480FF0AC007E7B1
:1044900013E09E012F5F3F4FAE014F5C5F4FB901AC
:1044A0000BC0E9E0F4E0118210821282339684E0BE
:1044B000E933F807C1F7EBCFF801849190E0DC0114
:1044C000AA0FBB1F8A0F9B1FDC01A75FBB4F8D91FB
:1044D0009D91AC91FB0181939193A193BF010F5FDB
:1044E0001F4FE417F50741F7269A85B18F7B95B1E9
:1044F00090646FB7F8942417350799F0F90171911A
:104500009F01E8E095B9000000C077FF85B9770FFB
:10451000000000C000C000C085B900C0EA9591F756
:10452000EACF6FBF8FE594E00197F1F700C000007C
:10453000E0960FB6F894DEBF0FBECDBFDF91CF91EE
:104540001F910F9108959091390490FF0CC0E9E0FC
:10455000F4E0818360834283339694E0E933F90782
:10456000C1F70C943722089580913904282F26959D
:1045700030E02115310519F48170826005C02532C3
:10458000310524F0817088648093390480913C0463
:10459000813518F080E580933C040895CF92DF9236
:1045A000EF92FF926B017C010E94B422B701A60139
:1045B00088E090E0FF90EF90DF90CF900C94D7329E
:1045C00080913D04882319F0815080933D046091CF
:1045D000390470913A0480913B0490913C040C940E
:1045E000CE2280913D04833018F48F5F80933D0488
:1045F0006091390470913A0480913B0490913C049D
:104600000C94CE22E9E3F4E083E0808311828FEF03
:10461000828380E5838314826081718182819381AA
:104620000C94CE22AF92BF92CF92DF92EF92FF9284
:104630000F931F93CF93DF93E82EF62EE901E42F1B
:10464000F0E0611106C0EE58FD4FE4914E2F2E2F81
:1046500071C0062F10E0EE58FD4F4491F42FC42E88
:10466000D12C26E0829FC00111242FEF30E0B90148
:104670000E94F9325BEA5603C001579F900D112446
:104680008E0D911D8E0D911D582F550F580FD9016C
:10469000A01BB10BAC9DC001AD9D900DBC9D900DBC
:1046A0001124E92FF59ED0011124AB2FBB277901EE
:1046B000EA1AFB0AEC9CD001ED9CB00DFC9CB00DFD
:1046C00011245901A51AB108A09E7001A19EF00CF9
:1046D000B09EF00C1124EF2CFF242E193F092C9DC5
:1046E00080012D9D100D3C9D100D1124212F623055
:1046F000710591F048F461157105E1F061307105C3
:10470000B9F4242F4B2F16C06430710569F040F0C6
:104710006630710579F00CC0242F492FE12F0AC0B3
:10472000492FEF2F2B2F06C0292FE42F412F02C036
:10473000292FEB2F49832883EA83DF91CF911F91A3
:104740000F91FF90EF90DF90CF90BF90AF900895C2
:10475000CF93DF9300D01F92CDB7DEB7909139048D
:1047600090FF0DC0413508F040E59E012F5F3F4F9F
:104770000E9412234B8169818A810E94A3220F909B
:104780000F900F90DF91CF9108957F928F929F921B
:10479000AF92BF92CF92DF92EF92FF920F931F934F
:1047A000CF93DF9300D01F92CDB7DEB7082FD62E60
:1047B000142FC22E9091390490FF74C0E92FE69512
:1047C000AE2FB0E0AE56BE4F8C91809300039E7F1B
:1047D000923081F4413508F040E59E012F5F3F4F54
:1047E0006D2D802F0E9412234B8169818A810E9446
:1047F000A32246C0823019F410913C0441C0863097
:1048000019F400913A043CC08930D9F38931C1F5DB
:10481000E9512E2F2170722EE695F0E0EE58FC4FF4
:104820008590949039E0A32E34E0B32EE12CF12C46
:1048300099248E9CC0018F9C900D9E9C900D1124FC
:1048400024E0969587952A95E1F7711002C0800FB4
:1048500003C0202F281B822F412F113508F040E57F
:1048600095016D2D0E9412238FEFE81AF80A23E0BC
:10487000A20EB11C80E1E816F104D9F60E9437229D
:1048800000933A04D0923B0410933C04CC2051F0A6
:104890006091390470913A0480913B0490913C04FA
:1048A0000E94CE220F900F900F90DF91CF911F9119
:1048B0000F91FF90EF90DF90CF90BF90AF909F90BF
:1048C0008F907F900895E9E3F4E0438121E1421B5A
:1048D00008F440E021E0628181810C94C523E9E382
:1048E000F4E0438121E1420F08F44FEF21E06281BF
:1048F00081810C94C523E9E3F4E0628121E1621B2C
:1049000008F460E021E0438181810C94C523E9E350
:10491000F4E0628121E1620F08F46FEF21E043814E
:1049200081810C94C523E9E3F4E0818121E0438196
:10493000628188500C94C523E9E3F4E0818121E091
:1049400043816281885F0C94C5239091390490FF64
:104950003DC09170811102C0926006C0853210F096
:10496000986402C0880F982B90933904662351F005
:104970006091390470913A0480913B0490913C0419
:104980000E94CE2260913904669570E04BE050E0C1
:104990008AE191E00E948133892B19F01092010382
:1049A00009C081E0809301030E94AE209093FB0236
:1049B0008093FA0281E08093FD0220E040913C0464
:1049C00060913B0480913A040C94C5230895809132
:1049D00039048695815009F484E261E00C94A524A1
:1049E0008091390486958F5F853208F081E061E01F
:1049F0000C94A5240E94AE202091F602211104C03F
:104A00002091F702222321F09093F3028093F20287
:104A10002091F802211104C02091F902222321F0F3
:104A20009093F1028093F002E091E002F091E102B4
:104A3000309749F082E08093F4020480F581E02D04
:104A400084EF92E009940895803F39F48091F70251
:104A500087FF6AC01092F70267C0813F29F48091F6
:104A6000F7021816BCF360C09091F602823F29F459
:104A700097FF5AC01092F60257C0833F19F41916D7
:104A8000CCF352C09091F802893F31F419160CF022
:104A90004BC01092F80248C08A3F19F497FF44C0F7
:104AA000F8CF8B3F39F48091F90287FF3DC0109217
:104AB000F9023AC08C3F29F48091F9021816BCF330
:104AC00033C0843F21F48091F5028E7F17C0853F6B
:104AD00021F48091F5028D7F11C0863F21F48091F1
:104AE000F5028B7F0BC0873F21F48091F502877F11
:104AF00005C0883F31F48091F5028F7E8093F502E6
:104B000013C08D3F21F48091EF028E7F0BC08E3F4A
:104B100021F48091EF028D7F05C08F3F29F48091B1
:104B2000EF028B7F8093EF028091F602811106C025
:104B30008091F702811102C01092EE028091F8027A
:104B4000811106C08091F902811102C01092ED021C
:104B500008958091EF0280FD16C081FD16C082FD90
:104B600018C08091ED02882391F0883290F428E0FB
:104B7000829FC001112468E270E00E940D33862FED
:104B8000672B29F007C082E0089584E0089581E052
:104B9000089588E008958091EF0280FD14C081FDA2
:104BA00014C082FD16C08091EE02882381F084310A
:104BB00080F422E3829FC001112464E170E00E942E
:104BC0000D33862F08958CE0089589E1089585E0DE
:104BD000089582E30895803F21F40E94CB258195BA
:104BE00004C0813F29F40E94CB258093F7020895E9
:104BF000823F21F40E94CB25819504C0833F29F494
:104C00000E94CB258093F6020895893F19F40E94F3
:104C1000A92505C08A3F31F40E94A925819580937A
:104C2000F80208958B3F21F40E94A925819504C0C4
:104C30008C3F29F40E94A9258093F9020895843FAE
:104C400021F48091F502816017C0853F21F48091A5
:104C5000F502826011C0863F21F48091F5028460E4
:104C60000BC0873F21F48091F502886005C0883F22
:104C700031F48091F50280618093F50208958D3FB3
:104C800021F48091EF0281600BC08E3F21F480916E
:104C9000EF02826005C08F3F29F48091EF028460AB
:104CA0008093EF02089580910504982F96709630B6
:104CB00011F4886001C0877F0C947C2F0F931F93A1
:104CC000611590E279073CF4611590EE790734F0B4
:104CD0009B01305E05C02FEF3FE302C020E030E0D3
:104CE0008901000F012F001F110B11952F77482FFD
:104CF0004F70406EE0911803F091190363E070E08B
:104D000088E193E009951F910F9108950F93042F67
:104D10000F77262F2F778F70482F406BE091180365
:104D2000F091190363E070E088E193E009950F9139
:104D30000895CF92DF92EF92FF920F931F93CF933C
:104D4000DF9300D01F92CDB7DEB77C01162FD42E93
:104D5000C22E80913D038430F9F4E0913203F0914A
:104D60003303309709F4B7C0C701019763E070E0DF
:104D70000E94F932CB01880F991F860F971F198364
:104D80004A83CB824E2D481B9E012F5F3F4FBC01B3
:104D900088E193E00995ACC082E0E816F10409F4DB
:104DA0004FC083E0E816F10431F081E0E816F10429
:104DB00009F08DC078C0862F807F803AE1F050F4F2
:104DC0008038A1F0803909F086C0E0911C03F09191
:104DD0001D0325C0803EA1F0803FB9F0803B09F063
:104DE0007AC0E0911A03F0911B0319C0E0911E03F1
:104DF000F0911F0314C0E0912003F09121030FC034
:104E0000E0912203F09123030AC0623F09F063C0DE
:104E1000E0912403F0912503309731F45CC0309782
:104E200009F459C0123F21F42C2D4D2D62EF04C01E
:104E30002C2D4D2D612F6F7088E193E0099558C09E
:104E4000862F807F803D51F0803F69F0803C09F0E3
:104E500042C0E0912603F091270315C0E09128039A
:104E6000F091290310C0633F29F4E0912A03F091E7
:104E70002B0306C0613F79F5E0912C03F0912D03DF
:104E8000309739F428C0309731F1812F8D7F813FE1
:104E900019F44D2D612F03C04D2D612F6F7088E1E6
:104EA00093E0099525C0683F28F0E0912E03F0912A
:104EB0002F0306C0663F79F4E0913003F09131038F
:104EC000309749F0612F88E193E0099511C084E0A3
:104ED000E816F104D8F4E0913403F09135033097EB
:104EE00039F00C2D2D2D412FB70188E193E0099564
:104EF000E0913603F0913703309759F00C2D2D2DAA
:104F0000412FB70188E193E0099503C0E12CF12C12
:104F1000E2CF0F900F900F90DF91CF911F910F91E3
:104F2000FF90EF90DF90CF900895EF92FF920F9354
:104F30001F93CF93DF937C018B010E94241D81116D
:104F400019C0E70101151105A1F08091E80085FD68
:104F50000AC08091E8008E778093E8000E94241DAB
:104F6000882381F307C089918093F10001501109D2
:104F7000E9CF80E0DF91CF911F910F91FF90EF90EB
:104F80000895EF92FF920F931F93CF93DF937C01CD
:104F90008B010E94241D811119C0E7010115110523
:104FA000A1F08091E80085FD0AC08091E8008B7730
:104FB0008093E8000E94241D882381F307C080911C
:104FC000F100899301501109E9CF80E0DF91CF9181
:104FD0001F910F91FF90EF9008951F93CF93DF9350
:104FE000CDB7DEB7AA970FB6F894DEBF0FBECDBF20
:104FF000E0E1F3E08091F100819343E0E831F407D0
:10500000C9F780911103833009F463C030F4813013
:1050100071F0823009F49DC0B4C08A3009F489C0AF
:105020008B3009F46EC0893009F0ABC020C080918C
:105030001003813A09F0A5C08091E800877F809332
:10504000E8008091140390911503892B21F468E006
:1050500084E093E003C060E080E090E070E00E94B4
:10506000E31E8091E8008B778093E8008AC08091EE
:105070001003813209F085C08091140390911503CB
:10508000009719F0029709F07CC08091E800877FB3
:105090008093E8008091E80082FD05C080910E03B6
:1050A0008111F8CF6EC02091F3008091F20090E062
:1050B000922B029731F48091F100813011F086300B
:1050C00021F48091F100809303038091E8008B77B5
:1050D00054C080911003813A09F053C080911403A9
:1050E00090911503892B09F04CC08091E800877FCF
:1050F0008093E8008091E80080FFFCCF809125013B
:1051000037C0809110038132E1F5809114039091B2
:105110001503892BB1F58091E800877F8093E80023
:105120000E94571D80911203809325010E94C72F72
:1051300028C080911003813221F58091E800877F9B
:105140008093E8000E94571D80911303809302030F
:1051500018C080911003813AA1F48091E800877F04
:105160008093E8008091E80080FFFCCF80910203EB
:105170008093F1008091E8008E778093E8000E9490
:10518000571D8091E80083FFF6C180911003909134
:105190001103492F50E04A30510508F0ECC1FA01E3
:1051A000E059FF4F0C944333803821F0823809F0E6
:1051B000E2C108C080910C0390910D03992389F0FE
:1051C00082600FC0809114038F70873008F0D3C1C4
:1051D0008093E9008091EB0085FB882780F910928D
:1051E000E9009091E800977F9093E8008093F100A8
:1051F0001092F1007DC1282F2D7F09F0BCC18823BA
:1052000019F0823061F0B7C180911203813009F04A
:10521000B2C1933009F080E080930D032EC08091DD
:10522000120381112AC0809114038F702FEF280F71
:10523000263008F0A0C18093E9002091EB0020FF08
:105240001CC0933021F48091EB00806214C09091D7
:10525000EB0090619093EB0021E030E0A90102C0E7
:10526000440F551F8A95E2F74093EA001092EA0036
:105270008091EB0088608093EB001092E9008091B0
:10528000E800877F8093E8000E94571D74C1811158
:1052900072C1109112031F778091E3008078812BF7
:1052A0008093E3008091E800877F8093E8000E946C
:1052B000571D8091E80080FFFCCF8091E30080685B
:1052C0008093E300111102C082E001C083E080936B
:1052D0000E0351C18058823008F04DC12091120355
:1052E000309113032C3D53E0350779F583E08A8331
:1052F0008AE289834FB7F894DE01139620E03EE0FE
:1053000051E2E32FF0E050935700E49120FF03C0F7
:10531000E295EF703F5FEF708E2F90E0EA3010F073
:10532000C79601C0C0968D939D932F5F243149F796
:105330004FBF8091E800877F8093E8006AE270E0C9
:10534000CE0101960E94E31EC1C08091140390918A
:105350001503432F552743305105B1F068F4413010
:10536000510509F417C14230510509F004C18FEB12
:1053700090E0EAE6F4E057C04132510589F142324B
:10538000510509F43CC0F7C0C90199278130910546
:10539000B9F070F082309105D9F0039709F0EBC0B5
:1053A000EBE3F5E0E4918E2F90E0EBE3F5E038C01D
:1053B000EDE7F5E0E4918E2F90E0EDE7F5E030C009
:1053C000EDE6F5E0E4918E2F90E0EDE6F5E028C003
:1053D000E9E5F5E0E4918E2F90E0E9E5F5E020C005
:1053E0008330910508F0C7C0880F991FFC01E05475
:1053F000FE4F0190F081E02D89E090E014C08330F1
:10540000910508F0B8C0FC01EE0FFF1FE654FE4FF7
:105410000190F081E02DDC01A954BE4F8C9190E009
:10542000009709F4A8C02091E800277F2093E800A6
:1054300020911603309117038217930708F49C01FB
:1054400040E02115310589F180910E03882309F48C
:105450003DC08530D9F18091E80083FD37C080914F
:10546000E80082FD2FC08091E80080FFEACF4091E4
:10547000F3008091F20090E0942B2115310559F052
:105480008830910540F444914093F10031962150C9
:1054900031090196F2CF41E0089709F040E0809190
:1054A000E8008E778093E800CCCF4111CDCF0AC0C1
:1054B00080910E03882351F0853041F08091E800FF
:1054C00083FD04C08091E80082FFF2CF8091E80064
:1054D0008B778093E8004FC0803809F04CC08091F2
:1054E000E800877F8093E80080910F038093F100AC
:1054F0008091E8008E77C6CE81113DC08091120365
:105500009091130399270297B4F58091E800877F63
:105510008093E8001091120310930F030E94571D0F
:10552000111106C08091E30087FD02C081E001C037
:1055300084E080930E0342E061EC81E00E94761DDE
:1055400042E261EC84E00E94761D42E261EC82E07E
:105550000E94761D42E260EC83E00E94761D42E3E9
:1055600061E885E00E94761D42E361E886E00E94E2
:10557000761D80910E038091E80083FF10C080911A
:10558000E800877F8093E8008091EB008062809341
:10559000EB0005C082E190E0E9E2F5E044CFAA9695
:1055A0000FB6F894DEBF0FBECDBFDF91CF911F9134
:1055B00008950895CF93DF9300D000D01F92CDB708
:1055C000DEB79093D8028093D702811520E292072C
:1055D00048F40F900F900F900F900F90DF91CF91A4
:1055E0000C9475328EEF89838A831B820E94AE20D1
:1055F0008160782F9D838C8349815A816B818D8155
:105600000E94DA300F900F900F900F900F90DF9163
:10561000CF910895CF93DF9300D000D01F92CDB7E4
:10562000DEB79093D8028093D702811520E29207CB
:1056300048F40F900F900F900F900F90DF91CF9143
:105640000C948F328EEF89838A8381E08B830E9452
:10565000AE208160782F9D838C8349815A816B8134
:105660008D810E94DA300F900F900F900F900F9065
:10567000DF91CF910895EF92FF920F931F93CF93F5
:10568000DF938C01C9E0D4E0E12CF12CF801848196
:10569000F8E0EF16F1041CF4882351F002C08111E8
:1056A00007C040913C04413508F040E59E0102C02E
:1056B0009E0140E060913B0480913A040E941223D5
:1056C0008FEFE81AF80A239690E1E916F104F1F653
:1056D0000E943722F801848190E001968170992719
:1056E0008483DF91CF911F910F91FF90EF900895E8
:1056F0008F929F92AF92BF92CF92DF92EF92FF92E2
:105700000F931F93CF93DF93EC014C81042F10E094
:105710009801D8010E9458339B01AC010E946E335E
:105720006B017C01E0E2F0E0E01BF10BA5E5B0E0ED
:105730009B01AC010E946E334B015C019F01DF01B4
:105740000E9450339B01AC010E9479339B01AC0154
:105750002C0D3D1D4E1D5F1DC501B4010E9421335E
:10576000822FF22E99E2921728F093E0299F900160
:1057700011240DC025E530E0281B3109C901880F2F
:10578000991F280F391F37FF02C02F5F3F4F3595F4
:105790002795122F109599E0C92E94E0D92E00E09C
:1057A00085E5E82EEF1801FD02C08E2D01C08F2D7A
:1057B000412F113508F040E5960160913B040E94AD
:1057C00012230F5F83E0C80ED11C003161F70E94E5
:1057D00037228C81811102C091E003C0803219F41C
:1057E0009FEF9093280190912801890F8C83DF917E
:1057F000CF911F910F91FF90EF90DF90CF90BF90CE
:10580000AF909F908F9008950F931F93CF93DF9346
:10581000C9E0D4E0FE01118210821282339684E046
:10582000E933F807C1F700E010E080910704082E83
:10583000000C990B08171907ACF080912701082E6E
:10584000000C990B801791076CF040913C04413596
:1058500008F040E59E0160913B0480913A040E946B
:10586000122303C0198218821A820F5F1F4F2396DA
:1058700000311105D1F60E943722809126019091C6
:105880000704980F9093070420912701280F209375
:105890002701121614F49F301CF081958093260185
:1058A000DF91CF911F910F910895CF92DF92EF92E8
:1058B000FF920F931F93CF93DF93FC01828180FFB0
:1058C00003C0DD24DA9402C0DD24D394C9E0D4E01F
:1058D00000E010E0198218821A8294E0E92EF12C7F
:1058E000C12C809106048C0D813114F08F7002C0A0
:1058F00087FD805F082E000C990B08171907A9F483
:1059000080913C048E9DA0018F9D500D11245595D2
:10591000479555954795413508F040E59E016091C2
:105920003B0480913A040E941223CD0CF1E0EF1A5F
:10593000F108B9F60F5F1F4F23960031110551F69C
:105940000E9437228091060491E0D91206C081118D
:1059500002C08FE006C0815004C090E001968F70B5
:10596000992780930604DF91CF911F910F91FF90AB
:10597000EF90DF90CF900895EF92FF921F93CF9317
:10598000DF93EC0189E0E82E84E0F82E10E04091EE
:105990003C04413508F040E58C81970160913B045F
:1059A000810F0E941223115F83E0E80EF11C103F6B
:1059B00071F70E9437229A818C8190FF02C08F5F1D
:1059C00001C081508C83DF91CF911F91FF90EF90A8
:1059D00008950F931F93CF93DF9300D01F92CDB7FD
:1059E000DEB78C018091080481110AC09E012F5FEF
:1059F0003F4F40E56FEF0E9412238A818093080495
:105A0000F8018481813051F028F0823061F44091B6
:105A100008040AC08091080440E007C060910804AF
:105A200040E080E003C040E080E060E00E94A3220C
:105A3000F801848190E0019663E070E00E940D33EC
:105A400084830F900F900F90DF91CF911F910F9152
:105A50000895CF93DF93EC01E9E3F4E043816281A1
:105A60008C810E94A8238C818F5F8C83DF91CF91E2
:105A70000895CF93DF93EC01EC81F0E0EF57FA4FFC
:105A80004491E9E3F4E0628181810E94A8238C8142
:105A90008F5F8C83DF91CF9108950F931F93CF93E6
:105AA000DF93843068F5643058F5423048F52115AD
:105AB0009CE5390731F4E0910C01F0910D01EF2BD9
:105AC000F9F08901282F34E0639FC001112430E1EF
:105AD000239F800D911D1124840F911D840F911D12
