:100000000C948E040C94D5040C94D5040C94D50453
:100010000C94D5040C94D5040C94D5040C94D504FC
:100020000C94D5040C94D5040C943F190C94F4173B
:100030000C94ED1B0C94D5040C94D5040C94D504AD
:100040000C94D5040C94D5040C94D5040C94D504CC
:100050000C94D5040C94A01B0C94D5040C94D504DA
:100060000C94D5040C94D5040C94D5040C94D504AC
:100070000C94D5040C94D5040C94D5040C94D5049C
:100080000C94D5040C94D5040C94D5040C94D5048C
:100090000C94D5040C94D5040C94D5040C94D5047C
:1000A0000C94D5040C94D5040C94D504CC0CE60C1B
:1000B000ED0C250D360D410D4D0D5C0D770D640DCC
:1000C000770D770D770D6C0D161516154915491519
:1000D000DA15F8151E171E170316771688168816D8
:1000E00038205F201F225F201F22AB20CE201F223E
:1000F000D021E02121272127342734272A2734271C
:1001000034273427212721272F27342734272F2747
:1001100000047F3F1F643214643214783C1E1E14A6
:100120000A05FD377A585A000004E6D6B4460200A4
:10013000210116000000742FE5A3E0023F00F65DE8
:10014000003D8889C65436C3174FE4E456FF51E892
:1001500023E9DF331BC13761D60590BB87D96E8792
:10016000BA42357D5CF584F0A33F8A67EA43801488
:10017000DDB9A0BA74F3DFEB22E383CD4C5E3CCE55
:100180003CF4165B5D0B91669682D7767542FF7ED6
:10019000A3DEB050E8FC6CB47D24D55B2A7B0365FC
:1001A000D31DBC304B83C05F662FB52791B5680364
:1001B000F9FDEE0E7794A97150F42B853DBC585F84
:1001C000748B0BBDDA5D655125EC70E642569CAF31
:1001D000A345C5FBB2AB3E453AAE1F83B11070D903
:1001E000FE1FE92B8E9371B8E5DAF9C3656419B87F
:1001F0001E8B13EC3FBE7BAB14AD27B4F4F9DCF1DE
:10020000CFE2CE871477A77B8A2B3079E218885A01
:100210009705007710340C18E094C3B13893DFC011
:100220009D6162AE5BCB03A20508E4337638BE3134
:100230002FF2F9001D00790000006B2EA9A64AFEDE
:10024000D15600019202C00400002F767F98B1C4FD
:1002500067FB020000000004595A14001A0008004D
:10026000150017001C001800040016000700090004
:100270000A000B000D001D001B0006001900050000
:1002800011001000E000E300E200E1002A422C41EE
:1002900028440C00120013000E000F002D43A8008C
:1002A0003600370038004C00E4002900AE001E0084
:1002B0001F00200021002200230024002B0000004A
:1002C000000035002F003000310000000000000069
:1002D00000002E002D0000000100010001000100BF
:1002E0000100000001002500260027003300340033
:1002F0002D00CD5C010001000100010001000100A2
:10030000CE5C3A003B003C003D003E003F00400018
:100310002B004400450000000000000000003900F0
:1003200046004700480000005300000001000100A3
:1003300001000100010001000000410042004300F3
:100340000000000000000100AA00A900A8000000B1
:100350000000000001002900000000000000000073
:1003600049004B002B0000000000000000004A0084
:100370005000000000000000000000004D000000E0
:1003800001000100010001002A00000000005200ED
:100390004E004C0051004F00000001000000000022
:1003A0000000000000000000010029000000000023
:1003B000000000000000F4002B000000000000001E
:1003C0000000F900F2000000000000000000000042
:1003D000FA00000001000100010001002A000000F5
:1003E0000000F000F5004C00F100F30000000100F7
:1003F00000000000000000000000000001000501F6
:100400000902A10185020901A100050919012905B7
:10041000150025019505750181029501750381017E
:100420000501093009311581257F9502750881067E
:1004300009381581257F950175088106050C0A3854
:10044000021581257F950175088106C0C005010947
:1004500080A101850319012AB700150126B700956F
:100460000175108100C0050C0901A1018504190165
:100470002AA002150126A002950175108100C00571
:10048000010906A1018506050719E029E7150025E0
:10049000019508750181020507190029EF1500254E
:1004A0000195F07501810205081901290595057569
:1004B000019102950175039101C00660FF0961A1D8
:1004C000010962150026FF00952075088102096365
:1004D000150026FF00952075089102C00501090648
:1004E000A101050719E029E7150025019508750107
:1004F00081029501750881010507190029FF150082
:1005000026FF009506750881000508190129059543
:100510000575019102950175039101C00902BF00A3
:10052000050100A0FA0904000001030101000921EE
:10053000110100012240000705810308000A090497
:100540000100020300000009211101000122220024
:1005500007058203200001070503032000010904A9
:100560000200010300000009211101000122BC006A
:100570000705840320000A080B030201010000099B
:100580000403000001010000092401000109000129
:1005900004090404000201030000072401000141D2
:1005A00000062402010100062402020200092403BD
:1005B00001030102010009240302040101010009F1
:1005C0000506024000050000052501010109058519
:1005D0000240000500000525010103120100020090
:1005E000000008666670660200010203011C0376C3
:1005F00000690061006C003A006600360034006358
:1006000000320062003300630000001E035000341B
:100610000032007600320020004B00650079006255
:10062000006F0061007200640000000E0350006162
:1006300000620069006C006500000004030904000A
:10064000010203040506070809131211100F0E0D0D
:100650000C0B0A1415161718191A1B1C1D27262512
:1006600024232221201F1E2223252628292A2C2D3F
:100670002F3032333536383A3B3D3E4042434547D2
:10068000494A4C4E5051535557595A5C5E6062640A
:100690006668696B6D6F71737577797B7D7F818318
:1006A0008587898A8C8E90929496989A9C9E9FA119
:1006B000A3A5A7A8AAACAEAFB1B3B4B6B8B9BBBC3A
:1006C000BEBFC1C2C3C5C6C7C9CACBCCCDCED0D1AF
:1006D000D2D2D3D4D5D6D7D7D8D9D9DADADBDBDBA7
:1006E000DCDCDCDCDCDDDDDDDDDCDCDCDCDCDBDB48
:1006F000DBDADAD9D9D8D7D7D6D5D4D3D2D2D1D09C
:10070000CECDCCCBCAC9C7C6C5C3C2C1BFBEBCBB98
:10071000B9B8B6B4B3B1AFAEACAAA8A7A5A3A19F10
:100720009E9C9A98969492908E8C8A8987858381D4
:100730007F7D7B79777573716F6D6B6968666462B5
:10074000605E5C5A5957555351504E4C4A49474583
:100750004342403E3D3B3A3836353332302F2D2C24
:100760002A29282625232200010101010101010176
:100770000102020202020202020203030303030354
:100780000303040404040404040505050505060622
:1007900006060607070707070808080809090909E0
:1007A0000A0A0A0B0B0B0C0C0C0D0D0D0E0E0E0F86
:1007B0000F0F101011111112121313141415151616
:1007C000161717181819191A1A1B1B1C1D1D1E1E87
:1007D0001F202021222223242425262627282929D8
:1007E0002A2B2C2D2D2E2F30313232333435363703
:1007F00038393A3B3C3D3E3F404142434445464701
:1008000048494A4C4D4E4F50515354555658595AD9
:100810005B5D5E5F616264656668696B6C6D6F707D
:1008200072737577787A7B7D7E8082838587888AEC
:100830008C8E8F91939596989A9C9EA0A2A3A5A723
:10084000A9ABADAFB1B3B5B7BABCBEC0C2C4C6C91F
:10085000CBCDCFD1D4D6D8DBDDDFE2E4E7E9EBEED8
:10086000F0F3F5F8FAFDFFFFAA7F55400000000005
:100870000000000000000000000000000000000078
:100880000000000000000000000000000000000068
:100890007E0F00D4FFFFFFC70000007800000000BB
:1008A000000000002A2B28000000000000000000CB
:1008B0000000000000000029000000002C1E342071
:1008C000212224342627252E362D3738271E1F2097
:1008D0002122232425263333362E37381F040506DC
:1008E0000708090A0B0C0D0E0F1011121314151620
:1008F0001718191A1B1C1D2F3130232D350405061E
:100900000708090A0B0C0D0E0F10111213141516FF
:100910001718191A1B1C1D2F3130354C11241FBEFE
:10092000CFEFDAE0DEBFCDBF04B603FE27C0809173
:10093000C8049091C904A091CA04B091CB04873037
:10094000904BA740B04BD1F41092C8041092C90448
:100950001092CA041092CB0414BE84B7877F84BF60
:100960000FB6F894A895809160008861809360002C
:10097000109260000FBEE0E0F8E3099511E0A0E0FE
:10098000B1E0EAE2FBE602C005900D92A63CB10799
:10099000D9F724E0A6ECB1E001C01D92A83CB20753
:1009A000E1F70E94D7040C9493350C940000CF9388
:1009B000DF93CDB7DEB7E2970FB6F894DEBF0FBE78
:1009C000CDBF84E080936D028FE780936E028091AB
:1009D0006F028078806480936F02E8ECF1E080E140
:1009E00092E02FEF2193DF01A95BBF4F1C928E177E
:1009F0009F07C1F710926B0210926C021092720264
:100A0000109271021092F2021092F4021092F3020C
:100A100080EC8093B70385EF92E09093B9038093C5
:100A2000B8031092B6031092B5031092D20210923E
:100A3000D1021092D4021092D3021092D6021092D8
:100A4000D5021092D8021092D7021092DA021092B8
:100A5000D9021092DC021092DB021092DE02109298
:100A6000DD021092E0021092DF021092E202109278
:100A7000E1021092E4021092E3021092E602109258
:100A8000E5021092E8021092E7021092EC02109236
:100A9000EB0282E39BE19093CE028093CD028AE940
:100AA0009AE19093EE028093ED0281E697E19093B4
:100AB000EA028093E90280E697E19093D002809366
:100AC000CF0284B7877F84BF0FB6F894A895809132
:100AD0006000886180936000109260000FBE90E01B
:100AE00080E80FB6F89480936100909361000FBE88
:100AF00085B7806885BF85B7806885BF8DE392E242
:100B00009093C7018093C6010E9438180E94DE1896
:100B10008091E20084608093E20078948091C30227
:100B20008823A1F01091E9001F709091EC00892FAB
:100B3000817090FD80E8182B1092E9008091E80008
:100B400083FD0E94511F1F701093E90082E084BD55
:100B500093E095BD9AEF97BD80936E000E946B2C39
:100B6000811102C00E945C2C01E311E087E3E82EB2
:100B700081E0F82ED8018D918D018F3F11F00E94F8
:100B80008222E016F106B1F707E311E0BEE3EB2E97
:100B9000B1E0FB2EF80181918F018F3F11F00E948F
:100BA0008222E016F106B1F786E0EDE7F2E0DF0120
:100BB000182F1D921A95E9F7ECE5F2E0DF011D927E
:100BC0008A95E9F70E940325811102C00E940E2533
:100BD00082E090E00E948834809374020E94F224A4
:100BE00090939A02809399020E949922BFEFE6E7C0
:100BF000F1E0B150E040F040E1F700C000000E9499
:100C0000992280917D0280FF08C06FEF7FEF80E026
:100C100090E00E94BA340E948F1B83E090E00E9413
:100C200088340E9451298CE090E00E94883490E042
:100C3000A0E0B0E08093580290935902A0935A022A
:100C4000B0935B0280916202811133C00E94032540
:100C5000811104C00E940E250E94362F88E090E08A
:100C60000E9490346093B5047093B6048093B704E7
:100C70009093B8046E7F71F40E94362F88E090E064
:100C80000E9490346093B5047093B6048093B704C7
:100C90009093B8040E94E82E109239048091B50414
:100CA00080FF04C060E086950E94DD3081E0809383
:100CB0006202FBE68F2EF2E09F2E2EE431E040E54B
:100CC00051E0A9E66A2EA2E07A2E61E070E0861477
:100CD000970409F44EC0FA01A191AF018A2F8295C1
:100CE0008F7090E0FC01F1A0AF70EA2E8B0101C083
:100CF000000FAA95EAF7F02FF095FF22DC019196FC
:100D0000FC9291979296AC91A02BFC01A2A3D901E1
:100D1000FD909D01EF2DE295EF70F0E0B1A0BF2DA9
:100D2000BF70FB2E6B0101C0CC0CBA95EAF7DC2C2E
:100D3000D094DB20D1A2D2A0CD28C2A2DC01909613
:100D40008C9190E002C095958795EA94E2F78170C6
:100D5000E0A1F0E002C0F595E795FA94E2F7E0FF34
:100D600002C092E001C090E0892BF30181933F0122
:100D7000AECF80E091E090939102809390028091B9
:100D8000C302853009F075C0FF24F39400E112E13D
:100D90008091C302853009F057C08091C30284302E
:100DA00009F440C01092390480916402811116C088
:100DB000F09264028091B504982F91709093630231
:100DC0008E7F8093B504FFEF20E732E0F1502040A2
:100DD0003040E1F700C000000E94B22C1092940253
:100DE00068E170E080E40FB6F894A8956093600025
:100DF0000FBE8093600083B7817F846083BF83B719
:100E0000816083BF7894889583B78E7F83BF0FB648
:100E1000F894A8958091600088618093600010929A
:100E200060000FBE8091C202882309F4B1CF0E94F6
:100E30009922EDE7F2E08191811181C6A3E8B2E049
:100E4000AE17BF07C1F7A4CF0E9455290E949F1C6F
:100E50001092640280916302882349F08091B50466
:100E600081608093B50460E086950E94DD300E9429
:100E70009C2C0E94992281110E94D51BADE7B2E003
:100E8000E5E7F2E000E010E0302F2D9191919227FC
:100E900021F180E0FF24F394492F4F21D1F089A75D
:100EA0003AA72F2181E009F480E08BA70E94E11B83
:100EB0008160782F9DA78CA749A55AA56BA58DA504
:100EC0000E94B132F801EB58FD4F8081F826F08284
:100ED00019C08F5FFF0C8730F9F60F5F1F4F063088
:100EE000110591F68FEF8EA78FA718AA0E94E11B1C
:100EF0008160782F9AAB89AB4EA55FA568A98AA9B6
:100F00000E94B13280913904882309F493C0809102
:100F10003804E091B504E695E81BE0933404823090
:100F200059F4F0E0E25EFE4FE4910E2F10E0EAE0AB
:100F3000EE2EEBE2FE2E59C0863059F4F0E0E55E6D
:100F4000FE4FE4910E2F10E07AEFE72E7AE2F72EB3
:100F50004CC0893061F4E695F0E0E85EFE4FE49124
:100F60000E2F10E06AEAE62E6EE2F62E3EC08F30BB
:100F700061F4E695F0E0EB5EFE4FE4910E2F10E099
:100F80005AE3E52E5EE2F52E30C0853159F4F0E0EB
:100F9000EE5EFE4FE4910E2F10E049EEE42E4DE29E
:100FA000F42E23C08831A1F0833249F4E0E1F1E06E
:100FB000059114913AEBE32E3AE2F32E16C08432F7
:100FC00071F000ED17E028E5E22E2AE2F22E0DC0C6
:100FD00008E210E09DE5E92E9DE2F92E06C004EF3F
:100FE00011E080E2E82E8DE2F82E8091350488230E
:100FF00061F0109235040E94E11B909333048093BA
:10100000320410923704109236040E94E11BE091E2
:101010003204F09133048E1B9F0B8F3F9F4750F497
:101020000E0F1F1F109333040093320482E394E0E9
:10103000F701099577E6E72E72E0F72E05E612E054
:10104000E9E66E2EE2E07E2EFEE4CF2EF1E0DF2E0A
:10105000A0E58A2EA1E09A2E5301212C312CB4E078
:101060004B2E512CD5018D915D01E82FEE0FEE0F27
:10107000D4012D914D01A22FA295AF70B0E09096B2
:101080008C9190E02F7002C0959587952A95E2F794
:101090009C0121703327D6018D916D01A82FA29557
:1010A000AF70B0E090964C9150E08F7002C05595B3
:1010B00047958A95E2F7CA018170992740FF02C0DF
:1010C00082E090E0822B932B8E2BF30181933F01E2
:1010D0008F70E82FF0E0E25CFE4F9081D7018C9199
:1010E000890F8C93843054F0F80180818F5F808366
:1010F00060E0832D0E94EA2B21E001C020E0D701AF
:101100008C918D3F4CF4F80180818150808361E0A7
:10111000832D0E94EA2B21E0D7018C91082E000C30
:10112000990BB2010E94F234F70181937F01222AC8
:1011300033940F5F1F4FF2E03F1294CF21100E94B3
:10114000D51B86E0E2ECF4E08E010F5F1F4FD80163
:1011500001900D928A95E1F7C090C404D090C50427
:10116000E090C604F090C7041092C4041092C50425
:101170001092C6041092C704C11003C0DD2009F408
:1011800051C08091C0049091C1040E94C61B9C0173
:101190009091BC04992309F4F1C42333310508F478
:1011A00041C09F3F19F09F5F9093BC04CC2061F039
:1011B0000E94FC311C1414F491E001C09FEF899F40
:1011C000802D11248093C404DD2061F00E94FC3145
:1011D0001D1414F491E001C09FEF899F802D11240C
:1011E0008093C5043091C4043323E1F02091C504F9
:1011F0002223C1F045EB3403C0011124992319F0D7
:101200009093C40403C081E08093C40465EB26037B
:10121000C0011124992319F09093C50403C081E003
:101220008093C504E11003C0FF2009F451C08091F0
:10123000BE049091BF040E94C61B9C019091BB0408
:10124000992309F4A0C42536310508F441C09F3F15
:1012500019F09F5F9093BB04EE2061F00E94DA3199
:101260001E1414F491E001C09FEF899F802D11247A
:101270008093C604FF2061F00E94DA311F1414F439
:1012800091E001C09FEF899F802D11248093C704B6
:101290003091C6043323E1F02091C7042223C1F02A
:1012A00075EB3703C0011124992319F09093C604FC
:1012B00003C081E08093C60435EB2303C0011124F1
:1012C000992319F09093C70403C081E08093C70469
:1012D0008091C40481110BC08091C504811107C0A5
:1012E0008091C604811103C08091C70481110E94BE
:1012F0002B31CB82DC82ED82FE8286E0F801A2EC0B
:10130000B4E001900D928A95E1F7E091ED02F09141
:10131000EE02309719F08DEC92E009952FB7F89412
:10132000E090B6039091B503E91618F48091B703E5
:10133000E80EE91A2FBFC12CD12CF12C43E0842EEA
:10134000912CAA24A394B12C64E0462E55245394E6
:10135000CE14DF0408F0B4C08091B50390E0609132
:10136000B70370E00E94F234E091B803F091B90342
:10137000E80FF91F70806090F20247EF471560F4A4
:101380005092F20220E040E0672D81E090E00E9460
:10139000FD1D6092F20282C077FE4FC064E06616C7
:1013A00031F07092EF02B092F402A092F302872D16
:1013B0000E94741A813031F080F0823059F083300D
:1013C00049F034C08093F20220E040E0672D81E0D4
:1013D00090E027C08093F20261C070EF7716E1F0D1
:1013E00087EF781223C02091F3023091F402C901F3
:1013F000B4010E94DE34FC01E353FD4F72A2C90127
:1014000001969093F4028093F3022091F1024091AF
:10141000F0026091EF0205C04092F2027092EF027A
:1014200033C00E94FD1D1092F20238C01092F202E9
:101430001092F4021092F30231C0662079F12091EB
:10144000F3023091F402C901B4010E94DE34AC0110
:10145000FC01E353FD4F72A2C90101969093F4027F
:101460008093F30241305105A1F042305105B1F4AF
:101470002091F1024091F0026091EF020E94FD1D67
:101480008091F202843051F0B092F402A092F30203
:1014900005C0A2E06A1202C020E0ECCF2FB7F8949A
:1014A0008091B50390E001966091B70370E00E94CF
:1014B000F2348093B5032FBFBFEFCB1ADB0A48CFBE
:1014C00080917102909172020E94C61B20916F025E
:1014D0002695269526952F7030E08217930798F170
:1014E0000E94E11B909372028093710280916C02C2
:1014F000882349F190916E02991F9927991F809135
:101500006F028770880F40916B0261E0892B0E9407
:10151000EA1D90916C0280916B0297FF0FC0282FFB
:1015200030E0E92FFF27E1950CF4F0952E173F07E7
:101530002CF410926B0210926C0205C0890F87FD8B
:101540008FE780936B020E949F1C90917302891712
:1015500021F00E949F1C809373028091C30284300B
:10156000F1F480910F018F708093E9009091E80071
:1015700090FF15C09091C302943089F48093E900E4
:101580002091F3008091F20090E0922B892B39F0AA
:101590008091E8008E778093E8000E945718809130
:1015A000C302843009F0EBCB83E08093E9008091A3
:1015B000E80082FFE4CB8091E80085FF09C040E0AD
:1015C00050E060E270E0C8010E94251F91E001C078
:1015D00090E08091E8008B778093E800992309F4EC
:1015E000CECBE0908902F0908A028981E114F10467
:1015F00061F08E3F09F07BC28A81833008F4C0C15C
:101600008550833008F073C2BBC1893009F4EBC048
:10161000D0F4843009F470C050F48230A1F108F0A5
:101620005CC0813009F061C21A8289E04BC2863009
:1016300009F474C008F467C0873009F472C08830B8
:1016400009F4B1C052C2803109F435C180F48D3043
:1016500009F4D4C028F48C3009F047C280E12FC1CE
:101660008E3009F4CEC08F3009F4F6C03EC282310C
:1016700009F427C108F422C1833109F44CC18E3F1B
:1016800009F47EC132C28A81823009F46EC283308D
:1016900051F0813009F029C20E94D51B9B838C83B5
:1016A0007D836E8324C280910C0190910D01892B62
:1016B00009F41DC280917D028B8380917E028C8310
:1016C00080917F028D83809180028E838091810240
:1016D0008F838091820288870AC28A81823009F0D2
:1016E00004C26B817C818D819E810E942E3586E2B1
:1016F00090E00E949C34FBC14C816B818A810E94E6
:10170000BC2B9D8339C22D813E813227232732276E
:101710004C816B818A810E94862BE9C10E944A1DFF
:10172000E6C18A818138B1F050F4803809F0DFC118
:1017300020E04B816091B7048091B60431C08238BB
:1017400059F1833809F0D3C120E04091B8046C818D
:101750008B8126C060E08B810E94DD309B8180916F
:10176000B504911111C08E7F8093B5041092390495
:10177000FFEF20E732E0F15020403040E1F700C0B9
:1017800000000E94B22CB3C181608093B50460E078
:1017900086950E94DD30ABC18B818093B904A7C1CF
:1017A0000E94F92FA4C18A81813891F030F48038E9
:1017B00009F09DC18091B80485C1823889F08338D1
:1017C00009F095C18091B6048B838091B7044CC118
:1017D0008091B50480FF02C0869574C180E072C11B
:1017E0008091B9046FC16091B5047091B604809185
:1017F000B7049091B8040E94022F79C192E09A83B5
:1018000061C1EA80FB80FE24EF24FE24AC80B12C71
:101810004DE1A416B10408F06AC16801C7018D50FA
:101820009E4F9601201B310B2A153B0508F05FC126
:101830006DE0E61662E0F60630F40E948834D601C8
:1018400014968C9302C0F6011482FFEFEF1AFF0A80
:101850002FEFC21AD20AE2CF80910C0190910D01B4
:10186000892B09F444C1EA80FB80FE24EF24FE2486
:10187000CC80D12C3DE1C316D10408F038C1580109
:10188000C7018D509E4F9501201B310B2C153D0536
:1018900008F02DC14DE0E41642E0F40628F4D5012D
:1018A00014966C910E949C34BFEFEB1AFB0AEFEF89
:1018B000AE1ABE0AE5CF0E941E1D19C185E08A83BB
:1018C00016C1EA80FB80FE24EF24FE24AC80B12CFC
:1018D000FDE1AF16B10408F00AC16801C70187969F
:1018E0009601201B310B2A153B0508F000C124EAA4
:1018F000E21621E0F20630F40E948834D6011496F4
:101900008C9302C0F6011482FFEFEF1AFF0A2FEF4B
:10191000C21AD20AE3CFEA80FB80FE24EF24FE2421
:10192000CC80D12C3DE1C316D10408F0E0C044EADC
:10193000E41641E0F40608F0DAC084EA91E08E197A
:101940009F098C159D0508F4D2C05801C7018796E0
:101950009501201B310B2C153D0508F0C8C064EA29
:10196000E61661E0F60628F4D50114966C910E9403
:101970009C34BFEFEB1AFB0AEFEFAE1ABE0AE6CFBC
:10198000EA818E2F90E08E30910508F0B0C0FC0106
:10199000EA5AFF4F0C94283588E0E9E2F1E0DE01D5
:1019A000919601900D928A95E1F780E2D8011D92FF
:1019B0008A95E9F784E0898388E0FE01B196DE012B
:1019C000159601900D928A95E1F791C088E389837D
:1019D00081E08A831B821C828AC08C8190E0982FD0
:1019E00088272B81820F911D092E000CAA0BBB0B9F
:1019F00035E0880F991FAA1FBB1F3A95D1F7AC019C
:101A0000BD01405E5F4F6F4F7F4F481759076A0710
:101A10007B0708F46CC08833E1E09E07A105B1059F
:101A200008F065C04933F1E05F076105710520F0FA
:101A300048E351E060E070E0481B590BBC016E5D6B
:101A40007E4FC8010E947F3452C0FB80EC8040E092
:101A50006E2D8F2D0E94562B99838A8341E06E2D27
:101A60008F2D0E94562B9B838C8341C02E813F81FA
:101A70003227232732274D816C818B810E941E2BB8
:101A800036C040E250E06FEF70E0C8010E948C3534
:101A900080910C018983EA822AC081E090E09093D2
:101AA0008A028093890282E390E090937C02809383
:101AB0007B020E94E11B1BC080910C018983EA829A
:101AC00080917B028B8313C040E250E06FEF70E0A7
:101AD000C8010E948C350BC08B81811108C080E247
:101AE000D8011D928A95E9F702C08FEF8983809112
:101AF000C302843009F043C98091E9008F702091BE
:101B0000EC00922F917020FD90E8F92EF82A82E0E7
:101B10008093E9008091E80080FF0CC040E050E035
:101B200060E270E0C8010E94F91E8091E8008E77A3
:101B30008093E8008F2D8F708093E90020C909BD44
:101B400019BD09B400FEFDCF8091D8008F7D809330
:101B5000D8008091E00082608093E0008091E000F6
:101B600081FDFCCF0E94552913C986E290E00E94B6
:101B700088341B821C821D828E83B9CF2D32314066
:101B800008F011CB4FCB2D32314008F062CBA0CB07
:101B90008F929F92AF92BF92CF92DF92EF92FF927D
:101BA0000F931F93CF93DF93CDB7DEB729970FB66F
:101BB000F894DEBF0FBECDBFFC01808191812381EF
:101BC0003481232B31F09F3F31F491E08F3F19F4A2
:101BD00003C091E001C090E090FF02C00C9449174F
:101BE0007F0185E0DE01119601900D928A95E1F763
:101BF000F701228189819A81222349F00E94D0260F
:101C0000182F682F89819A810E94092903C00E9498
:101C1000D928182F69817A81812F0E942E1D8C016D
:101C2000F7019281992309F482C0980122513F451E
:101C30002031310508F09DC08FEF93E00E94883479
:101C4000811180C06EEED62ED00E03EF11E0DD20A4
:101C500071F00115F4E01F0709F474C0C8010E9477
:101C60008834811101C0DA940F5F1F4FF0CF1E82BC
:101C70001F8218861986AA24AA9468012FEFC21A17
:101C8000D20AC8010E9488348E831F82882309F4F7
:101C900059C0813009F046C0480132E0830E911CE2
:101CA000C6010E9488348F83882309F44BC09FEFBC
:101CB000980F933060F4680183E0C80ED11CC40112
:101CC0000E948834888781112DC08601D6CF843048
:101CD00011F06401FACFC4010E948834B82E680163
:101CE00094E0C90ED11CC80103960E948834BB2021
:101CF00049F1882339F1282F30E021503109A29E83
:101D0000A001A39E500D11248B2D90E00197840F0C
:101D1000951F0197D0F2EFE9FFE03197F1F700C08E
:101D20000000F7CFCE0106960E94F133CECF0031EE
:101D30003FE5130711F00C943E1781E00E943A2909
:101D40000E94B71D80911604877011F40C944917F6
:101D5000F7018281882311F40C94491780919A022B
:101D600082FF02C00C94491782E00E94E7250C9480
:101D700049170031FFE51F0711F481E005C001316B
:101D80002FE5120721F482E00E944629D9CF0E3AAE
:101D9000FCE51F0708F067C10E392CE5120790F02B
:101DA000992381F20E5980916E0200FB87F980938E
:101DB0006E020695077080916F02887F082B009352
:101DC0006F02C0CF00393CE5130708F0ADC00338FF
:101DD0008CE5180770F0992309F4B4CF0958802FC7
:101DE0008295807F00916D020F70082B00936D0229
:101DF000A9CF0138ECE51E0708F06CC00737FCE5F9
:101E00001F0750F0992309F49DCF0757802F8F703B
:101E100000916D02007FE9CF0F322CE5120708F424
:101E20003EC220916E02822F881F8827881F409112
:101E30006F024770440F482B822F8F7751EDC52ECC
:101E4000C00ED12C992351F190916D02192F159547
:101E50001595159515951F529F702CE0929F100DAA
:101E60001124100F212F2F774069E091CD02F091BE
:101E7000CE02082F63E070E08DEC92E00995F60148
:101E8000E853FE4FDF01A85BBF4F8C918F5F8C93AF
:101E900080818F3F09F056CF108354CFF601E8536D
:101EA000FE4F6F012081E85BFF4F9081915090833E
:101EB000911148CF2F774068E091CD02F091CE028A
:101EC000082F63E070E08DEC92E009958FEFF6014A
:101ED000808338CF01383CE5130759F4992309F47E
:101EE00031CF20916D02822F8F7009F42BCF815F4B
:101EF00013C002388CE5180709F0D1C1992309F401
:101F000021CF20916D02822F8F70482F50E04930F1
:101F100051050CF017CF8F5F982F9F70822F807F15
:101F2000892B80936D020ECF0C39ECE51E0708F06B
:101F300058C00239FCE51F0788F0992309F402CF45
:101F400002598EE0089F002D1124802F8F77009179
:101F50006E020078082B00936E02F4CE00392CE557
:101F60001207A1F4992309F4EDCE20916D02822F7E
:101F700085958595859585958B3F0CF4E3CE815F9E
:101F8000982F9295907F822F8F70CACF01393CE5B0
:101F9000130709F084C1992309F4D4CE20916D026E
:101FA000822F859585958595859586300CF0CACECE
:101FB00091E0980F9295907F95959595959595952B
:101FC000392F3295307F2F70232B20936D021816F6
:101FD0000CF0B8CE97FFB6CE8295807F922F9F707F
:101FE0009FCF0C398CE51807F9F4992309F4AACE90
:101FF00090916E02892F8F77282F30E021153105BF
:1020000009F4A0CE90788F3719F4892F856706C020
:102010002D30310534F08D508F77892B80936E02EF
:1020200091CE90936E028ECE0D39ECE51E0709F02D
:1020300036C1992309F486CE20916E02822F8F77C4
:10204000482F50E04F37510509F47CCE43375105F6
:1020500034F4835F982F9F77822F8078DECF2F67AD
:1020600020936E026FCE043BFCE51F0799F4992381
:1020700011F04FE701C040E090916E02991F99273F
:10208000991F80916F028770880F63E4892B0E94EB
:10209000EA1D58CE053B2CE5120708F04CC0003B6A
:1020A0003CE5130779F4992309F44CCE90916E0224
:1020B000991F9927991F80916F028770880F40E0C0
:1020C0006BE7E4CF013B8CE5180708F05AC00E3AE5
:1020D000ECE51E0789F4992309F434CE30916E02A1
:1020E000932F991F9927991F20916F02822F877034
:1020F000880F892B815F15C00F3AFCE51F0709F097
:10210000CEC0992309F41ECE30916E02932F991FF1
:102110009927991F20916F02822F8770880F892B32
:102120008F5F982F9F7080FB37F930936E029695E2
:10213000822F887F22C0073BFCE51F0709F451C0AE
:1021400008F46DC0093BECE51E0709F479C008F0FE
:1021500091C0992309F4F6CD20916F02822F8695C4
:10216000869586958F7009F4EDCD815F8F70982FDD
:10217000990F990F990F822F8778892B80936F027F
:10218000E1CD80916E0220916F02023B3CE5130786
:1021900069F4992311F04FE701C040E0881F8827B8
:1021A000881F2770220F61E4822B71CF033B1C45EF
:1021B00060F4992311F04FE701C040E0881F8827A1
:1021C000881F2770220F60E4EFCF992311F04FE7AB
:1021D00001C040E0881F8827881F2770220F62E413
:1021E000E3CF992309F4AECD80916F02282F269575
:1021F000269526952F7091E0920F9F70990F990F59
:10220000990F8778892B80936F02982F987709F020
:1022100099CD220F220F220F8778822BAFCF053B5B
:102220003CE5130709F423CF063B8CE51807B9F505
:10223000992311F081E001C08FEF80936C0282CD71
:10224000992361F090916E02991F9927991F8091AF
:102250006F028770880F60E070EE1DC090916E0273
:10226000991F9927991F80916F028770880F60E0EE
:1022700070E011C00A3B2CE5120789F4992371F331
:1022800090916E02991F9927991F80916F02877014
:10229000880F6FEF7FE1892B0E94C21D53CD9923D8
:1022A00069F0C801815E9C45059740F46FE1600FBD
:1022B000609358028CE090E00E949C3417FFAEC0FF
:1022C000F7018281882309F4A9C00E949F1C86958A
:1022D0008170809385020E949F1C8170809384028C
:1022E00080915802813039F480918502882319F059
:1022F00089E30E943A2A8091190480938302109204
:10230000190480915802813071F048F08230A1F0B8
:10231000843029F586EE0E943A2A88E11EC082EEBA
:102320000E94C2291CC088E193E00E94663488E1C3
:1023300093E00E944C3413C080918402811103C049
:1023400083E50E943A2A82EE0E94C2298FE39CE92B
:102350000197F1F700C0000087E50E943A2AEFE3F9
:10236000FCE93197F1F700C000005801E894B7F894
:102370002CE0C22ED12C3AE0832E912CC5010C2CDE
:1023800002C0969587950A94E2F78F709091580253
:10239000923069F48A3038F490E00996B4010E94D2
:1023A000F234875A01C086500E943A2A09C096EF3B
:1023B000980F963010F0805D01C0895A0E948B33CF
:1023C000F4E0CF1AD1082CEFC2162FEFD206B1F6E7
:1023D00080915802813059F030F0823089F0843099
:1023E000C9F488E215C082EE0E94902913C08CE2E5
:1023F0000E943A2A80918502882361F089E308C00F
:1024000082EE0E94902980918402811103C083E5AD
:102410000E943A2A8091830280931904033F3CE58D
:10242000130741F190F4083D9CE51907E9F0093DD7
:10243000ECE51E0789F1073DFCE51F07B1F506E253
:1024400021EE41EE67ED7CE52CC0053F2CE512073F
:10245000E9F0B0F0063F8CE5180739F507E225EE04
:1024600046EE66EF7CE51DC007E225EE45EE68ED21
:102470007CE517C006E221EE40EE63EF7CE511C07B
:1024800007E225EE44EE64EF7CE50BC006E221EEA8
:1024900042EE65EF7CE505C008E221E045EE69ED1E
:1024A0007CE5C7010E94AB1C4DCCF70182818823DB
:1024B00009F445C110928D020330FDE51F0758F461
:1024C0000A3F2CE5120760F4C80182509C454497EE
:1024D00008F01FC105C001363DE5130709F019C119
:1024E0000E94F22490939A028093990200318CE525
:1024F000180709F4CAC008F041C00830ECE51E070F
:1025000009F4A4C0F0F404302CE5120709F48CC0DF
:1025100068F402308CE5180709F482C003301C45CA
:1025200009F0E7C0809199028260E1C00630ECE5D5
:102530001E0709F483C008F085C080919902886065
:10254000D6C00C302CE5120709F490C068F40A30AC
:102550008CE5180709F47EC008F084C00E94552954
:10256000809199028068C3C00E30ECE51E0709F423
:1025700081C008F086C08091990294C00C3F2CE580
:10258000120709F47BC038F504318CE5180709F40B
:102590009AC058F40231ECE51E0709F47AC008F03D
:1025A0007EC0809199028F7BA2C00A3F2CE5120762
:1025B000F1F108F03FC005311C4509F09AC0809147
:1025C000990282FB222720F991E0922790FB82F961
:1025D00090FB83F98CC001159DE5190709F467C0CC
:1025E00050F480919A020E3FFCE51F07C1F108F0FC
:1025F0005BC08D7F65C002303DE5130709F471C0F3
:1026000008F46DC001361D4509F073C08091990230
:1026100084FB222720F991E0922790FB84F967C080
:1026200080919902816063C08091990216C0809167
:102630009A0216C080919A02826042C080919902EB
:10264000806155C080919902806251C08091990249
:1026500080644DC0809199028860846048C0826027
:1026600081602EC0809199028E7F41C08091990235
:102670008D7F3DC080919902877F39C080919A02F9
:1026800014C0809199028F7E32C0809199028F7D13
:102690002EC00E945529809199028F7728C0809181
:1026A0009902877F8B7F23C08D7F8E7F09C08091A9
:1026B0009A02982F909591708E7F892B90FB81F9CB
:1026C00080939A0216C00E9455298091990287FB37
:1026D000222720F991E0922790FB87F908C061E05A
:1026E00001C060E08EE090E00E949C3402C08093C4
:1026F00099026091990210919A0284E090E00E9400
:102700009C34612F82E290E00E949C340E94552903
:1027100019CB8091190406313CE5130709F58A7A33
:1027200091E009F490E090938602882311F065E32C
:1027300001C069E28BEB93E00E943E1C0EC00631A3
:102740001C4509F026C180918602882309F49FC3A5
:1027500065E38BEB93E00E94161C0E948A25F2CA67
:1027600082720C3CECE51E0709F4C2C008F045C0BB
:10277000063C2CE5120709F4A7C0D8F4033C9CE5FD
:10278000190709F497C030F4023CFCE51F0709F46F
:102790006CC0CEC0043C2CE5120709F490C0053C87
:1027A0003CE5130709F0C4C04BEC50E364ED70E363
:1027B000A3C0093C9CE5190709F490C078F4073CD4
:1027C000FCE51F0709F485C0083C2CE5120709F059
:1027D000AFC04FEB50E363EB70E38EC00A3C3CE5C7
:1027E000130709F480C00B3C9CE5190709F0A0C051
:1027F00044E15FE265E27FE27FC0013DECE51E0758
:1028000009F486C0A0F40E3C2CE5120709F47AC046
:1028100008F475C00F3C8CE5180709F476C0003D3C
:102820009CE5190709F084C06EE089E079C0043D99
:10283000ECE51E0709F472C068F4023D2CE51207AE
:1028400009F469C0033D3CE5130709F071C061E07C
:1028500088E16BC0053D8CE5180709F464C00D35AF
:102860009DE5190709F46ECA63C08091B50480FF25
:102870001BC08E7F8093B5046091B5047091B6043F
:102880008091B7049091B8040E94022F10923904ED
:10289000EFEFF0E722E0E150F0402040E1F700C028
:1028A00000000E94B22C4ECA81608093B50461E0A2
:1028B00086953BC048E151E361E271E31DC041E20E
:1028C00051E368E171E318C044ED50E36BEC70E351
:1028D00013C043EB50E36FEB70E30EC04BE950E3E2
:1028E00067EA70E309C047EA50E36BE970E304C0AC
:1028F00045E25FE264E17FE20E94962C23CA61E038
:1029000081E013C065E082E00BC068E086E008C0AB
:1029100064E18FE005C067E185E102C062E289E120
:102920000E94842C0FCA61E083E20E94DD300ACA53
:102930000A353DE5130741F150F401159CE51907EF
:10294000A9F00E3D1C4529F50E940E25FBC90B354B
:10295000FDE51F07D9F00C351D45D9F480919A0289
:1029600082FB882780F991E0892711C00E945529B0
:102970003FEF84E39CE0315080409040E1F700C09D
:1029800000000E948F1BDEC981E001C080E00E9430
:102990000426F701828100811181882349F0C80152
:1029A0000E94D026D82E682FC8010E94092904C091
:1029B000C8010E94D928D82EB8018D2D0E942E1D45
:1029C0000E945823C82E192FA82EF7010281D58006
:1029D000D2949FE0D922809116048770B9F0002329
:1029E000A9F0812F807F803421F080E28C0D883027
:1029F00068F080919A0282FD09C082E00E94E7257A
:102A0000809116048770BB24B3948111B12C912E50
:102A100092948FE09822892D90E08C30910508F0F7
:102A20000DC2FC01EC59FF4F0C942835812F807F9B
:102A30001F70882311F01295107F0023B9F0112325
:102A400009F4E9C180E28C0D883010F0A11006C0B5
:102A500080911904182B1093190405C08091180453
:102A6000182B109318040E948A25D5C18C2D0E9422
:102A70009029112309F4E2C180E28C0D883088F19D
:102A8000AA2079F110958091180418231093180446
:102A90002BC0812F807F1F70803211F01295107F24
:102AA0008C2DAA2029F0F1E0AF1609F45EC069C0B0
:102AB00080919A0282FF1BC0002369F0112339F034
:102AC00080911904182B109319040E948A2580E024
:102AD0000E94C229B3C180E00E949029112309F409
:102AE000ADC1812F0E9483250E948A25A7C10023A2
:102AF00031F1DD20F1F021E0D2120FC080911C04F1
:102B0000182B181709F49AC10E94E11B90931B041B
:102B100080931A0410931C0491C135E0D31209C0AC
:102B20000E947825809113041817A9F110931304BB
:102B300032C080911C04812B0E9486297FC1DD2038
:102B400051F081E0D8120DC080911904812309F45D
:102B500075C10E9437260E947825812F0E947F2907
:102B60006DC195E0D912F7CF69C1002329F0E5E0E6
:102B7000ED1508F463C10FC0F4E0FD1508F45EC163
:102B8000ECCF002351F0DD2031F0F701858180FF8B
:102B900042C18F708583812FCFCFDD20F1F2893341
:102BA00009F049C1FFEF27EE33E0F15020403040FB
:102BB000E1F73FC1812F86958695837019F08130AA
:102BC00061F03CC1002321F08C2D912F937002C045
:102BD00080E090E00E94891C37C1002321F08C2DF9
:102BE000912F937002C080E090E00E94731C2CC172
:102BF0008C2D002319F00E941C3202C00E94553116
:102C00000E942B3121C1812F8370A9F501111AC1B6
:102C10004C2D429546954770440F440F8C2D8F7074
:102C200090E09C01042E01C0220F0A94EAF7C4FE32
:102C300008C08FE090E001C0880F4A95EAF78095C0
:102C400001C080E0169516951370123069F088F473
:102C50009091BA04113019F0822B892302C0922B73
:102C6000892B0E945129EEC0822B9091BA048927AA
:102C7000F8CF822BF6CF002319F0812F817001C08D
:102C80008695882309F4DEC04C2D42954695477001
:102C9000440F440F8C2D8F7090E09C01042E01C0D6
:102CA000220F0A94EAF7C4FE08C08FE090E001C04A
:102CB000880F4A95EAF7809501C080E01695169531
:102CC0001370123059F078F49091BA03113019F062
:102CD000822B892309C0922B892B06C0822B9091CD
:102CE000BA03892701C0822B0E943629ABC01F700E
:102CF000002339F0812F0E9446298C2D0E948629BD
:102D0000A1C08C2D0E947F29812F0E943A299AC050
:102D10008C2D92EFA91689F19A1538F0E0EFAE16D6
:102D200059F0F1EFAF1611F171C023EFA21661F166
:102D300034EFA316B9F06AC0002379F084E08D1552
:102D400008F47CC01F7181E090E001C0880F1A95E3
:102D5000EAF79091BA03892721C095E09D1508F400
:102D60006DC0F0CF80919A0282FF1BC0002339F022
:102D7000812F8F710E94462961C00023C9F3812FE2
:102D80008F710E943A295AC0002339F01F7181E0E7
:102D900001C0880F1A95EAF701C080E00E94362929
:102DA0004DC00023D9F0809113040E9483258091A7
:102DB00016048770843039F40E94E025812F8F71CA
:102DC0000E943A2959C0E4E0ED1508F455C01F717E
:102DD000812F0E94462963E0812F11C09091190430
:102DE00080911304892B80931904F4E0FD1550F4AD
:102DF0000E94E0250E94372664E0812F8F710E9497
:102E000021263AC081E00E94E72536C0002329F040
:102E1000DD2009F4ADCF8C2D5BCEDD2009F4AFCFE2
:102E2000893349F42FEF37EE83E021503040804062
:102E3000E1F700C000008C2D0E94902988EF890DD9
:102E4000843010F40E949F1CBB2019F1809116045D
:102E500080FD1FC0F70112828595859585950E949A
:102E60004629C7010E94C80D809116048595859555
:102E700085950E943A290DC0B12CE4CF01318FE530
:102E8000180711F00C94C70E82E00C949E0E69E2B4
:102E900060CC29960FB6F894DEBF0FBECDBFDF9190
:102EA000CF911F910F91FF90EF90DF90CF90BF9047
:102EB000AF909F908F90089508958091A0020895FB
:102EC0000895089580939B0270939D0260939C02E5
:102ED0008091C3028430F9F48093E9008FEF9091E0
:102EE000E800815095FD06C095ED9A95F1F7000038
:102EF0008111F5CF8091E80085FF0DC040E050E0E2
:102F000063E070E08BE992E00E94F91E8091E80096
:102F10008E778093E8000895BC0184E00C946217DA
:102F2000BC0183E00C94621724E02093E9002FEFAA
:102F30003091E800215035FD06C035ED3A95F1F7A6
:102F400000002111F5CF2091E80025FF0BC040E0E3
:102F500050E066E070E00E94F91E8091E8008E77F4
:102F60008093E8000895CF93DF9320911A012223E4
:102F700039F02091990227FF03C060E224E002C0EB
:102F800068E021E02093E9002FEF3091E800215024
:102F900035FD06C035ED3A95F1F700002111F5CF6A
:102FA0002091E80025FF1DC0EC0180911A018111DC
:102FB00005C040E050E068E070E003C070E040E031
:102FC00050E0CE010E94F91E8091E8008E77809338
:102FD000E80080E2FE01A1EAB2E001900D928A953C
:102FE000E1F7DF91CF9108951F920F920FB60F92E4
:102FF00011242F933F934F935F936F937F938F93FE
:103000009F93AF93BF93CF93DF93EF93FF93C091C1
:10301000E900CF708091EC00D82FD17080FDD0E80E
:103020001092E9008091F000877F8093F0007894FF
:103030000E94511F1092E9008091F00088608093F7
:10304000F000CD2BCF70C093E900FF91EF91DF919D
:10305000CF91BF91AF919F918F917F916F915F9130
:103060004F913F912F910F900FBE0F901F90189589
:10307000E8EDF0E080818E7F80831092E200109274
:10308000DA001092E100A0EEB0E08C9181608C93A8
:1030900080818F77808319BCA7EDB0E08C918E7F03
:1030A0008C9380818F7E808310929E020895209160
:1030B000E4003091E50095E64091EC00842F8170AA
:1030C00040FF23C08091E80080FD1DC08091C302B5
:1030D000882399F0853099F08091EB0085FD11C02F
:1030E0004091E4005091E5002417350729F39150F1
:1030F00011F09A01E1CF84E0089582E0089583E021
:10310000089581E0089580E008954091E80042FF2D
:10311000DDCF08958091C50287FF11C08091E8003E
:1031200082FD05C08091C3028111F8CF11C080914A
:10313000E8008B770BC08091C302882349F080910F
:10314000E80080FFF8CF8091E8008E778093E80058
:103150000895982F973068F59093E900981739F003
:103160007091EC002091ED005091F00003C0242FED
:10317000762F50E021FD02C09F5FECCF3091EB0035
:103180003E7F3093EB003091ED003D7F3093ED00BA
:103190003091EB0031603093EB007093EC002093A2
:1031A000ED005093F0002091EE0027FDE5CF80E088
:1031B00008958F708093E90081E00895CF92DF92A7
:1031C000EF92FF920F931F93CF93DF93C8EDD0E060
:1031D00088818F7E8883E7EDF0E080818160808345
:1031E00084E082BF81E080939E0288818E7F888305
:1031F00002EE10E0F80110821092DA0081EEC82E83
:10320000D12CF601108288818F778883888180682D
:10321000888388818F7D888319BC1092C3021092A5
:10322000C4021092C2021092C10290EEE92EF12C5B
:10323000F70180818B7F808388818160888342E071
:1032400060E080E00E94A918F60180818E7F808373
:10325000F801808181608083808188608083F701AC
:1032600080818E7F8083888180618883DF91CF9188
:103270001F910F91FF90EF90DF90CF9008951F92D4
:103280000F920FB60F9211242F933F934F935F939A
:103290006F937F938F939F93AF93BF93EF93FF931E
:1032A0008091E10082FF09C08091E20082FF05C0A9
:1032B0008091E1008B7F8093E1008091DA0080FFB4
:1032C0002AC08091D80080FF26C08091DA008E7FCE
:1032D0008093DA008091D90080FF18C080E189BD19
:1032E00082E189BD09B400FEFDCF81E08093C30275
:1032F00080919E0281110FC00E9438180E94DE1832
:103300008091E20084608093E20005C019BC1092B5
:10331000C30210929E028091E10080FF17C080914D
:10332000E20080FF13C08091E2008E7F8093E20074
:103330008091E20080618093E2008091D8008062F9
:103340008093D80019BC85E08093C3028091E1008E
:1033500084FF30C08091E20084FF2CC080E189BDF1
:1033600082E189BD09B400FEFDCF8091D8008F7D38
:103370008093D8008091E1008F7E8093E10080915E
:10338000E2008F7E8093E2008091E2008160809372
:10339000E2008091C402882311F084E007C080918C
:1033A000E30087FD02C081E001C083E08093C30297
:1033B0008091C3028091E10083FF27C08091E200E9
:1033C00083FF23C08091E100877F8093E10082E04A
:1033D0008093C3021092C4028091E1008E7F80939B
:1033E000E1008091E2008E7F8093E2008091E20014
:1033F00080618093E20042E060E080E00E94A918D2
:103400008091F00088608093F000FF91EF91BF9170
:10341000AF919F918F917F916F915F914F913F916C
:103420002F910F900FBE0F901F9018952091CB02F7
:103430003091CC022617370748F06115710539F431
:103440002091E8002E772093E80001C0B901FC012B
:1034500020E06115710579F18091C3028823F1F1B3
:103460008530F1F18091E80083FD3CC08091E80057
:1034700082FD2EC08091E80080FFEBCF2091F30009
:103480008091F20090E0922B6115710551F0883027
:10349000910538F421912093F10061507109019652
:1034A000F3CF21E0089709F020E08091E8008E77C3
:1034B0008093E800CECF2111CFCF0AC08091C30204
:1034C000882361F0853061F08091E80083FD0AC0B7
:1034D0008091E80082FFF2CF80E0089582E00895B5
:1034E00083E0089581E00895982F907F903BF1F05C
:1034F00038F49039D9F0903AC9F09038C9F416C030
:10350000903D49F018F4903C31F012C0903E71F0BB
:10351000903F19F00DC082E00895815F8F3040F434
:10352000E82FF0E0EE5AFE4F8081089583E0089581
:1035300080E00895BF92CF92DF92EF92FF920F93B7
:103540001F93CF93DF93CDB7DEB727970FB6F894CD
:10355000DEBF0FBECDBF7E0125E0E20EF11C8C0167
:1035600008511F4F8091C302843009F06BC08091D5
:1035700014018F708093E9008091E80082FF62C09F
:103580008091E80085FF5EC040E050E064E070E0BC
:10359000CE0101960E94251F8091E80085FD05C09F
:1035A0008091E8008B778093E800DA808D2D0E946F
:1035B000741A282FDD828B818E838C818F83211159
:1035C0000EC08981843041F0873031F0863031F08F
:1035D000853041F621E003C023E001C022E067010D
:1035E0008C2D8E19821708F0BDCFD601BD906D01CC
:1035F0003FB7F894D8011196EC911197F0E0CF0104
:10360000019612966C9170E00E94F234D8014C91B0
:1036100050E084179507A1F0D80113968D919C91E5
:103620001497E80FF91FB08211968C91119790E0D2
:10363000019612966C9170E00E94F234F801818339
:103640003FBFCECF27960FB6F894DEBF0FBECDBFDB
:10365000DF91CF911F910F91FF90EF90DF90CF906E
:10366000BF900895DF92EF92FF920F931F93CF9335
:10367000DF9300D000D0CDB7DEB77B01142FD22E60
:103680004A832B830C83842F0E94741A81111CC0DF
:1036900082E0E816F10471F083E0E816F10421F00D
:1036A000EA94EF2881F50BC0073F11F487E00AC0C8
:1036B00084E008C087EFD812FBCF86E003C0173F35
:1036C000B9F785E0898303C012951F701983809133
:1036D000C3028430C1F480910F018F708093E900A0
:1036E00040E050E064E070E0CE0101960E94F91ED7
:1036F000811109C08091E80085FD05C08091E80036
:103700008E778093E8000F900F900F900F90DF91CD
:10371000CF911F910F91FF90EF90DF90089587E771
:1037200097E790930108809300089AE088E10FB62C
:10373000F894A895809360000FBE90936000FFCF2F
:1037400078941F920F920FB60F9211248F939F932C
:10375000AF93BF938091950290919602A0919702AA
:10376000B09198020196A11DB11D8093950290938E
:103770009602A0939702B0939802BF91AF919F9148
:103780008F910F900FBE0F901F9018959C014FB70F
:10379000F8948091950290919602A0919702B09131
:1037A00098024FBF821B930B08952FB7F894609136
:1037B00095027091960280919702909198022FBF86
:1037C00008952FB7F8948091950290919602A09158
:1037D0009702B09198022FBF08951F920F920FB6D3
:1037E0000F9211248F939F93AF93BF938091940274
:1037F000811113C08091950290919602A091970239
:10380000B09198024196A11DB11D809395029093AD
:103810009602A0939702B0939802BF91AF919F91A7
:103820008F910F900FBE0F901F90189520911A0145
:103830002223C9F02091990227FF15C0262F269533
:10384000269526952E31C8F4FC01E20FF11D677014
:1038500081E090E001C0880F6A95EAF78095928137
:10386000892382830895FC0106962281621301C098
:1038700012823196E817F907C1F7089520911A01CD
:103880002223C1F02091990227FF14C0262F2695EC
:10389000269526952E3130F5FC01E20FF11D67705B
:1038A00081E090E001C0880F6A95EAF79281892B48
:1038B00082830895FC0132962FEF30E04191641726
:1038C00089F02F3F19F4411101C0232F3F5F36309B
:1038D000A9F72F3F39F0FC01E20FF11D27FDFA9502
:1038E00062830895089520919202309193022817DF
:1038F000390771F09093930280939202E0919002C5
:10390000F0919102309721F00084F185E02D099427
:10391000089520918E0230918F022817390771F097
:1039200090938F0280938E02E0919002F091910229
:10393000309721F00680F781E02D09940895E091F9
:103940009002F0919102309721F00190F081E02DEA
:10395000099480E008950F931F93CF93DF93C42FB2
:10396000D22FFC0182818823C9F040938D020E94EE
:10397000E11B90938C0280938B0280E28C0F883045
:1039800008F057C0C77081E001C0880FCA95EAF7F8
:10399000DF91CF911F910F910C94862980918D0218
:1039A000481330C080918B0290918C020E94C61BFC
:1039B000883C910538F510E21D0FCD17B9F080E273
:1039C0008C0F883040F4C77081E001C0880FCA9521
:1039D000EAF70E947F29183028F581E09D2F977023
:1039E00001C0880F9A95EAF70E948629802F0E94CD
:1039F0003A2A1830F0F4D77081E001C0880FDA95C8
:103A0000EAF70AC080E28C0F883098F4C77081E032
:103A100001C0880FCA95EAF7DF91CF911F910F91EE
:103A20000C947F29802FDF91CF911F910F910C94DF
:103A30003A2ADF91CF911F910F910895CF93DF9391
:103A4000C3EFD1E060E0CE010E949C342196C11505
:103A500084E0D807B9F7DF91CF910895462F2091E0
:103A6000890230918A02232B91F47E3F39F46E3F14
:103A700071F480918702909188020895853038F41E
:103A8000763028F4673018F4672F0C94BC2B80E054
:103A900090E008958F929F92AF92BF92CF92DF9263
:103AA000EF92FF920F931F93CF93DF93C0900C017F
:103AB000D0900D0181E090E090930D0180930C0176
:103AC000E12CF12C912C812C00E010E0C0E0D0E042
:103AD0005701A00EB11EFE01EE0FFF1FEA0DFB1DE8
:103AE000E65AFD4F259134914C2F682D892D0E9467
:103AF000862B2196C730D10571F7025F1F4F839443
:103B000086E08812E3CF21E030E040E060E0892DDC
:103B10000E941E2B21E030E041E060E0892D0E94F0
:103B20001E2B21E030E040E061E0892D0E941E2B39
:103B300021E030E041E061E0892D0E941E2B93944A
:103B400084E5E80EF11C85E09812BDCFD0920D01FE
:103B5000C0920C01DF91CF911F910F91FF90EF90D8
:103B6000DF90CF90BF90AF909F908F9008958091FD
:103B7000BA03982F9670963011F4886001C0877F41
:103B80000C9436290F931F93611590E279073CF44A
:103B9000611590EE790734F09B01305E05C02FEF80
:103BA0003FE302C020E030E08901000F012F001F39
:103BB000110B11952F77482F4F70406EE091CD0279
:103BC000F091CE0263E070E08DEC92E009951F91D8
:103BD0000F9108950F93042F0F77262F2F778F7053
:103BE000482F406BE091CD02F091CE0263E070E08F
:103BF0008DEC92E009950F910895CF92DF92EF92AC
:103C0000FF920F931F93CF93DF9300D01F92CDB7F6
:103C1000DEB77C01162FD42EC22E8091F2028430A2
:103C2000F9F4E091E702F091E802309709F4B7C0A7
:103C3000C701019763E070E00E94DE34CB01880F7A
:103C4000991F860F971F19834A83CB824E2D481BDD
:103C50009E012F5F3F4FBC018DEC92E00995ACC0F7
:103C600082E0E816F10409F44FC083E0E816F1049D
:103C700031F081E0E816F10409F08DC078C0862F9C
:103C8000807F803AE1F050F48038A1F0803909F06B
:103C900086C0E091D102F091D20225C0803EA1F011
:103CA000803FB9F0803B09F07AC0E091CF02F091FB
:103CB000D00219C0E091D302F091D40214C0E09177
:103CC000D502F091D6020FC0E091D702F091D80250
:103CD0000AC0623F09F063C0E091D902F091DA02B4
:103CE000309731F45CC0309709F459C0123F21F489
:103CF0002C2D4D2D62EF04C02C2D4D2D612F6F709A
:103D00008DEC92E0099558C0862F807F803D51F060
:103D1000803F69F0803C09F042C0E091DB02F09105
:103D2000DC0215C0E091DD02F091DE0210C0633FBD
:103D300029F4E091DF02F091E00206C0613F79F5DD
:103D4000E091E102F091E202309739F428C0309717
:103D500031F1812F8D7F813F19F44D2D612F03C0EB
:103D60004D2D612F6F708DEC92E0099525C0683F55
:103D700028F0E091E302F091E40206C0663F79F496
:103D8000E091E502F091E602309749F0612F8DEC69
:103D900092E0099511C084E0E816F104D8F4E091AE
:103DA000E902F091EA02309739F00C2D2D2D412FC8
:103DB000B7018DEC92E00995E091EB02F091EC02F5
:103DC000309759F00C2D2D2D412FB7018DEC92E03D
:103DD000099503C0E12CF12CE2CF0F900F900F90CA
:103DE000DF91CF911F910F91FF90EF90DF90CF90D7
:103DF0000895EF92FF920F931F93CF93DF937C016F
:103E00008B010E945718811119C0E7010115110596
:103E1000A1F08091E80085FD0AC08091E8008E77CE
:103E20008093E8000E945718882381F307C0899186
:103E30008093F10001501109E9CF80E0DF91CF912B
:103E40001F910F91FF90EF900895EF92FF920F93C3
:103E50001F93CF93DF937C018B010E945718811130
:103E600019C0E70101151105A1F08091E80085FD59
:103E70000AC08091E8008B778093E8000E94571871
:103E8000882381F307C08091F100899301501109C3
:103E9000E9CF80E0DF91CF911F910F91FF90EF90DC
:103EA00008951F93CF93DF93CDB7DEB7AA970FB6D0
:103EB000F894DEBF0FBECDBFE5ECF2E08091F100DB
:103EC000819342E0ED3CF407C9F78091C60283304C
:103ED00009F463C030F4813071F0823009F49DC080
:103EE000B4C08A3009F489C08B3009F46EC08930BF
:103EF00009F0ABC020C08091C502813A09F0A5C08D
:103F00008091E800877F8093E8008091C9029091BA
:103F1000CA02892B21F460E281EA92E003C060E0EA
:103F200080E090E070E00E94161A8091E8008B77A4
:103F30008093E8008AC08091C502813209F085C073
:103F40008091C9029091CA02009719F0029709F076
:103F50007CC08091E800877F8093E8008091E80032
:103F600082FD05C08091C3028111F8CF6EC02091FF
:103F7000F3008091F20090E0922B029731F480914F
:103F8000F100813011F0863021F48091F1008093AE
:103F9000A0028091E8008B7754C08091C502813ADD
:103FA00009F053C08091C9029091CA02892B09F08F
:103FB0004CC08091E800877F8093E8008091E80002
:103FC00080FFFCCF80911A0137C08091C5028132F9
:103FD000E1F58091C9029091CA02892BB1F58091D7
:103FE000E800877F8093E8000E948A188091C702CA
:103FF00080931A010E94552928C08091C502813200
:1040000021F58091E800877F8093E8000E948A185C
:104010008091C80280939F0218C08091C502813AA6
:10402000A1F48091E800877F8093E8008091E80008
:1040300080FFFCCF80919F028093F1008091E80087
:104040008E778093E8000E948A188091E80083FFB1
:10405000F6C18091C5029091C602492F50E04A30C6
:10406000510508F0ECC1FA01E059FF4F0C942835D6
:10407000803821F0823809F0E2C108C08091C10285
:104080009091C202992389F082600FC08091C90289
:104090008F70873008F0D3C18093E9008091EB00E6
:1040A00085FB882780F91092E9009091E800977FBE
:1040B0009093E8008093F1001092F1007DC1282FC9
:1040C0002D7F09F0BCC1882319F0823061F0B7C19F
:1040D0008091C702813009F0B2C1933009F080E0CD
:1040E0008093C2022EC08091C70281112AC08091A4
:1040F000C9028F702FEF280F263008F0A0C18093DF
:10410000E9002091EB0020FF1CC0933021F4809146
:10411000EB00806214C09091EB0090619093EB00F3
:1041200021E030E0A90102C0440F551F8A95E2F753
:104130004093EA001092EA008091EB00886080933F
:10414000EB001092E9008091E800877F8093E800FF
:104150000E948A1874C1811172C11091C7021F7721
:104160008091E3008078812B8093E3008091E800C8
:10417000877F8093E8000E948A188091E80080FF82
:10418000FCCF8091E30080688093E300111102C0AE
:1041900082E001C083E08093C30251C18058823025
:1041A00008F04DC12091C7023091C8022C3D53E068
:1041B000350779F583E08A838AE289834FB7F894DB
:1041C000DE01139620E03EE051E2E32FF0E0509351
:1041D0005700E49120FF03C0E295EF703F5FEF705E
:1041E0008E2F90E0EA3010F0C79601C0C0968D93F4
:1041F0009D932F5F243149F74FBF8091E800877F5F
:104200008093E8006AE270E0CE0101960E94161ADF
:10421000C1C08091C9029091CA02432F55274330F3
:104220005105B1F068F44130510509F417C142302D
:10423000510509F004C18FEB90E0ECE1F5E057C0C7
:104240004132510589F14232510509F43CC0F7C0B1
:10425000C901992781309105B9F070F0823091053C
:10426000D9F0039709F0EBC0EDEEF5E0E4918E2F65
:1042700090E0EDEEF5E038C0EBE3F6E0E4918E2F50
:1042800090E0EBE3F6E030C0EBE2F6E0E4918E2F55
:1042900090E0EBE2F6E028C0EBE0F6E0E4918E2F50
:1042A00090E0EBE0F6E020C08330910508F0C7C055
:1042B000880F991FFC01E659FE4F0190F081E02D17
:1042C00089E090E014C08330910508F0B8C0FC018B
:1042D000EE0FFF1FEC59FE4F0190F081E02DDC0145
:1042E000AF59BE4F8C9190E0009709F4A8C020917F
:1042F000E800277F2093E8002091CB023091CC0288
:104300008217930708F49C0140E02115310589F1DB
:104310008091C302882309F43DC08530D9F1809192
:10432000E80083FD37C08091E80082FD2FC08091B6
:10433000E80080FFEACF4091F3008091F20090E026
:10434000942B2115310559F08830910540F44491A2
:104350004093F1003196215031090196F2CF41E0AE
:10436000089709F040E08091E8008E778093E8009C
:10437000CCCF4111CDCF0AC08091C302882351F028
:10438000853041F08091E80083FD04C08091E80011
:1043900082FFF2CF8091E8008B778093E8004FC0D6
:1043A000803809F04CC08091E800877F8093E80056
:1043B0008091C4028093F1008091E8008E77C6CE90
:1043C00081113DC08091C7029091C8029927029740
:1043D000B4F58091E800877F8093E8001091C702D0
:1043E0001093C4020E948A18111106C08091E30044
:1043F00087FD02C081E001C084E08093C30242E0F7
:1044000061EC81E00E94A91842E261EC84E00E9424
:10441000A91842E261EC82E00E94A91842E260EC35
:1044200083E00E94A91842E361E885E00E94A91890
:1044300042E361E886E00E94A9188091C30280915E
:10444000E80083FF10C08091E800877F8093E80038
:104450008091EB0080628093EB0005C082E190E0E8
:10446000EBEDF5E044CFAA960FB6F894DEBF0FBE91
:10447000CDBFDF91CF911F91089580E00895909175
:10448000990292FF0DC0282F2871283019F4877FD8
:10449000846006C0282F2471243011F48B7F88603B
:1044A00093FF0DC0282F2871283119F4877E84616D
:1044B00006C0282F2471243111F48B7E886120914D
:1044C0009A0220FF0DC0382F3871383019F4877FD9
:1044D000816006C0382F3171313011F48E7F8860D1
:1044E00021FF0DC0282F2871283119F4877E8161A2
:1044F00006C0282F2171213111F48E7E886194FD30
:10450000877E0895F894E82FE295EF70F0E031A1EE
:10451000282F2F7081E090E001C0880F2A95EAF7DC
:10452000982F9095932391A392A1892B82A378949D
:1045300008957F928F929F92AF92BF92CF92DF9217
:10454000EF92FF920F931F93CF93DF9300D000D091
:1045500000D0CDB7DEB7AE014F5F5F4F7A0186E086
:10456000FA0111928A95E9F701E311E06A0187E304
:10457000A82E81E0B82E88248394912CF8018081A4
:104580008F3F09F441C0F894E82FE295EF70F0E016
:1045900021A18F70A40102C0440F551F8A95E2F734
:1045A000CA01922F982B91A392A18095892382A36F
:1045B000789400C0E7E3F1E0712C31E021912F3FC6
:1045C00089F0A22FA295AF70B0E090968C9190E008
:1045D0002F7002C0959587952A95E2F780FD02C05D
:1045E000832F01C080E0782A330F51E0EE33F507C6
:1045F00029F7F80180818F3F11F00E948222F0EAB2
:10460000FA95F1F7F60170820F5F1F4FFFEFCF1A97
:10461000DF0AA016B10609F0B1CF46E050E0B701BD
:104620008CE592E00E947F3511E0009709F410E0DC
:10463000892B89F086E0F701ACE5B2E001900D929C
:104640008A95E1F781E080931F040E94E11B90931B
:104650001E0480931D0480911F048823A1F0809183
:104660001D0490911E040E94C61B059760F0ECE5A6
:10467000F2E0ADE7B2E081918D9342E0E236F407DB
:10468000D1F710921F04812F26960FB6F894DEBF43
:104690000FBECDBFDF91CF911F910F91FF90EF9093
:1046A000DF90CF90BF90AF909F908F907F900895B4
:1046B000CF93DF938238910569F1B0F4813391058E
:1046C00009F46FC048F48932910509F465C08A3253
:1046D000910509F46BC08AC08533910509F457C070
:1046E00089339105B9F082C0833E910571F138F4A8
:1046F000803E9105B1F0823E910511F177C0863E72
:104700009105B9F1873E9105C9F1843E910509F003
:104710006DC024C02091990220FD53C021FD51C0DD
:1047200065C08091990280FD46C080919A0280FF09
:1047300048C08091990284FD50C183EE90E04FC142
:104740008091990282FF3AC0F4CF8091990282FD54
:1047500035C080919A0280FD34C0EBCF80919A02DF
:1047600081FF35C08091990284FD37C187EE90E0CA
:1047700036C18091990283FF27C0F4CF80919902BE
:1047800083FD22C080919A0281FD21C0EBCF8091F0
:10479000990285FD1FC021C08091990285FD1DC031
:1047A00019C08091990286FD1BC01DC0809199029D
:1047B00086FD19C015C089E390E011C182EE90E03A
:1047C0000EC180EE90E00BC186EE90E008C184EE51
:1047D00090E005C189E290E002C185E390E0FFC06E
:1047E0008AE290E0FCC081E390E0F9C0811531E5F8
:1047F000930708F069C0811540E59407F0F09C012B
:1048000074E0369527957A95E1F7922F9370482FAB
:10481000437021E030E002C0220F331F4A95E2F7D7
:104820003C68392B982F9F709695969540E2949FFF
:10483000C0011124822B932BD2C0883E910568F5CC
:10484000803E910508F0CBC0883A9105B8F4853ACE
:10485000910548F0855AE82FF0E0E059FE4F80813D
:1048600090E09064BCC08130910509F4B3C008F4B5
:10487000B4C08430910508F4B0C0B1C08F3B91053D
:1048800008F0ABC0885AE82FF0E0EE0FFF1FED589C
:10489000FE4F808191819464A2C0811520E292072D
:1048A00058F4811531E0930708F099C0803F9105D5
:1048B00008F493C0906593C0811540E4940708F410
:1048C0008CC09F70906A8BC0811525E5920708F017
:1048D00042C0811534E5930728F0982F8827846F0C
:1048E000906A7DC0811543E59407B0F09C01237068
:1048F000332741E050E002C0440F551F2A95E2F7EC
:10490000282F2695269580E2289F90011124CA0120
:10491000822B932B9A6863C0811522E5920728F4B5
:10492000982F8827816F906A5AC09C012370332783
:1049300041E050E002C0440F551F2A95E2F7282FAE
:104940002695269580E2289F90011124CA01822B8A
:10495000932B9C6844C0EC01811539E59307A8F4BA
:104960008115984528F09C2F8827806F906A37C062
:10497000C11586E5D80788F58C2F0E943F228F71DC
:1049800090E0982F882790622AC081152AE5920727
:1049900090F48C2F8F700E943F2294E0D695C7959B
:1049A0009A95E1F7CF70D0E0DC2FCC27D0699E013B
:1049B000282BC90114C090568115904270F48D2F98
:1049C0008F710E943F22282F2F71CE01992790626C
:1049D000922B05C081E090E002C080E090E0DF9182
:1049E000CF910895CF9384E090E00E948834C82F3F
:1049F00082E290E00E9488342C2F30E0A901582BED
:104A0000CA01CF91089580E090E00E9496348A3EDA
:104A10009E4F11F40C946B2C80E008956AEE7EEFAB
:104A200080E090E00E94BA3460E082E090E00E9472
:104A30009C3460E083E090E00E949C341092BA04C1
:104A400060E084E090E00E949C3460E082E290E0CC
:104A50000E949C3460E085E090E00E949C3460E01D
:104A600086E090E00E949C346FEF87E090E00E9427
:104A70009C3440E050E0BA0188E090E00E94AE34FF
:104A800060E08DE090E00E949C3440E050E0BA018C
:104A900088E190E00E94AE3460E087E190E00E94FF
:104AA0009C3440E050E0BA018CE190E00E94AE34CA
:104AB00060E070E080E290E00E94BA3440E050E0B4
:104AC000BA0188E190E00E94AE3480E00E943E2C62
:104AD0000E945C2C40E050E0BA018FE090E00E9420
:104AE000AE3440E050E0BA0183E190E00C94AE3483
:104AF00080911C04882331F010921C0410921B0436
:104B000010921A0408958095909119048923809336
:104B1000190408959091190480911804892B90919B
:104B20001704892B8093BB0380911C04882361F1B7
:104B30000E94E11B20911A0430911B04821B930BED
:104B40008838934110F00E9478259091BB038091A2
:104B50001C04892B8093BB0380911A01882331F0B8
:104B60008091990287FF02C08EE101C086E0EDEBE3
:104B7000F3E090E0815028F021912223D9F39F5F48
:104B8000F9CF91110E947825E0919002F091910265
:104B90003097A9F080911A01882359F080919902E9
:104BA00087FF07C08091BB038093BC0386E080939E
:104BB000BB030280F381E02D8BEB93E00994089511
:104BC0001092160410921504109214040895209166
:104BD00016048095822380931604982F977099F479
:104BE00030E0482F082E000C550B2417350759F0DC
:104BF00090919A0292FD07C08595859585950E94B2
:104C00003A290C94E0250895CF93C0919A02C2FBF3
:104C1000992790F9981799F080FBC2F9C0939A02EE
:104C20006091990284E090E00E949C346C2F82E2B3
:104C300090E00E949C3482E0CF910C94E725CF91C4
:104C4000089590919A0292FD10C098E0899F90017A
:104C50001124262B209316040E9446290E94E11B52
:104C6000909315048093140408950C944629809120
:104C700013048111109213040895809112049091ED
:104C8000E103891719F08F5F8770FBCF08950F93A9
:104C90001F93CF93DF938091E00382958F7009F08B
:104CA0005DC08091DD03882309F458C0809112040F
:104CB0001091E1036091DB037091DC03C091DE038E
:104CC000D091DF0391E06F3F09F090E0292F06E0DB
:104CD000811709F443C0209721F07F3F21F030E095
:104CE00003C031E001C0322F90E030FD34C0089F96
:104CF000F001099FF00D1124DF01AE51BC4F119658
:104D00003C911197371327C03C91361324C012965B
:104D10003C91129731111FC013964D915C911497DD
:104D20004C1B5D0B483C5105B0F48091E0038F7043
:104D300080618093E003E951FC4F80818F70806136
:104D400080838BED93E00E94C80DDF91CF911F917E
:104D50000F910C943D2601968770BACFDF91CF91C9
:104D60001F910F91089580E090E00E94891C80E0DF
:104D700090E00E94731C10921804109217040E9475
:104D80008A25E2ECF4E086E0DF011D928A95E9F7DE
:104D90001092BC041092BB041092BD040C942B31F1
:104DA000CF92DF92FF920F931F93CF93DF936C010B
:104DB0000091BA038091BA04082BC7E0D0E010E05C
:104DC000C8010C2E02C0959587950A94E2F780FDE4
:104DD00004C02197A8F7F12C09C0FC2EB6018C2F36
:104DE0000E942E1D0E945823019799F38F2DDF9169
:104DF000CF911F910F91FF90DF90CF900895CF93A7
:104E0000DF93EC010E94D026BE010E942E1D0E945D
:104E10005823DF91CF910895FC01808191810E94F8
:104E2000FF26292F2F70E92FE295EF704E2F50E0CB
:104E3000FA013297EE30F105B8F4E658FF4F0C94C2
:104E40002835803F99F018F4883E70F40FC0843FF5
:104E500059F40CC0883E50F0813F31F407C0822FD6
:104E6000869586958695089580E0089581E0089559
:104E70009F92AF92BF92CF92DF92EF92FF920F93E9
:104E80001F93CF93DF93CDB7DEB761970FB6F8943A
:104E9000DEBF0FBECDBF8C0185E0F801DE011D969F
:104EA00001900D928A95E1F7F801E2809091DB0381
:104EB0006091DC034091DE035091DF034115510501
:104EC00031F06F3F31F481E09F3F19F403C081E07E
:104ED00001C080E0F82FF1709F2E80FD1AC1F8010B
:104EE00030812181C380D4808BEDA82E83E0B82E41
:104EF000F090DD03F601E41BF50BFF2009F4C6C0BA
:104F00008091E003E83CF10508F091C0482F407F14
:104F100009F050C0621311C093130FC0FE2CE110B2
:104F20000CC08F7080618093E003C5010E94C80DA2
:104F30008091E003F801858329C1CD2831F02F3F0E
:104F400031F481E03F3F19F403C081E001C080E00B
:104F500080FD03C081E08E2502C080E090E0F82F44
:104F6000F170FF2E80FF1CC0809112044091E1037C
:104F700056E0841709F4E8C090E0589FF001599F6B
:104F8000F00D1124EE51FC4F6181261306C06081A3
:104F9000631303C06281E61203C001968770E9CFF4
:104FA000FE2CEE2009F4F2C08091E0038160809332
:104FB000E00349C0621306C0931304C0E11002C0AD
:104FC000F80186C0C8010E940C27882351F1EE2009
:104FD00041F12091E003822F82958F7090E002973B
:104FE00074F08091DB039091DC0398878F8319869E
:104FF000DB86CA862C87CE0107960E94C80D86E004
:10500000F801ABEDB3E001900D928A95E1F70E94B3
:1050100047260AC06217C9F0C8010E940C278111F7
:105020001EC0C8010E94C80DFF24F394AFC0482FD2
:10503000407F81F78BED93E00E94C80D86E0F5017B
:1050400011928A95E9F7F12CA1C09313E5CFE110F5
:10505000E3CFF8018583C8010E94C80D54C0EE203B
:1050600001F32091E003822F82958F7090E00297E8
:1050700034F28091DB039091DC039A8389831B8255
:10508000DD82CC822E83CE010196B7CFE83CF105BC
:10509000D0F5FE2CEE2029F2621327C0931325C011
:1050A0002091E00320FD18C0822F82958F70482F39
:1050B00050E04115510581F0F80125834F3051052D
:1050C00041F08F5F982F9295907F822F8F70892B60
:1050D0008583C8010E94C80D86E0F801ABEDB3E0FE
:1050E00001900D928A95E1F751C0C8010E940C27EA
:1050F000811185CF8091E00381608093E003C80136
:105100000E94C80D43C086E0F50111928A95E9F727
:105110003DC0EE2009F485CFC8010E940C27F82E6F
:10512000882309F47ECF86E0F801ABEDB3E001906F
:105130000D928A95E1F78091DB039091DC030E9448
:10514000FF260E94472622C03D872E878D859E859B
:105150000E94FF26292F22952F70223028F49F705D
:1051600039F0811105C00BC0243028F49F7049F438
:10517000805E883020F0C8010E94C80D9F2CF92C59
:1051800005C0F8019581907F99F7F9CF8F2D619631
:105190000FB6F894DEBF0FBECDBFDF91CF911F9148
:1051A0000F91FF90EF90DF90CF90BF90AF909F90C6
:1051B00008959E3F61F127E0929F800D1124682F92
:1051C000669566956695982F977083E0689FB00105
:1051D000112440E050E080E0FB01E40FF51FE05EA9
:1051E000FB4F208130E0092E02C0369527950A94A6
:1051F000E2F721703327042E01C0220F0A94EAF748
:10520000822B4F5F5F4F4330510531F7089580E0A7
:1052100008959E3F51F127E0929F800D1124E82FC1
:10522000E695E695E695877051E001C0550F8A95A1
:10523000EAF783E0E89FF0011124E05EFB4F20E0F5
:1052400030E070E04081CB01022E02C09695879538
:105250000A94E2F7817081958427852384278193BE
:105260002F5F3F4F2330310569F708958093BA03CC
:105270000C94B32621E030E001C0220F8A95EAF7B2
:1052800020958091BA0382230C94362921E030E0E6
:1052900001C0220F8A95EAF78091BA03822B0C9401
:1052A00036298093BA040C94B32610921904809185
:1052B0001A01882331F08091990287FF02C08EE1A4
:1052C00001C086E0EDEBF3E0DF011D928A95E9F77E
:1052D0000C94B326882341F080959091180489237B
:1052E000809318040C948A250895882339F09091AE
:1052F0001804892B809318040C948A250895882318
:1053000021F00E9483250C948A250895882339F082
:1053100090911904892B809319040C948A2508957F
:10532000882379F19CEF980F913A30F4682F8BEB3A
:1053300093E00E94161C0DC090E2980F983058F42C
:10534000877091E001C0990F8A95EAF7892F0E9432
:1053500083250C948A259BE5980F933020F480E0F8
:1053600090E00C94891C98E5980F973120F480E028
:1053700090E00C94731C803F20F00E9455310C94F7
:105380002B310895CF93882309F472C0C82F8CEF76
:105390008C0F813AC0F580911A018823E1F0809149
:1053A000990287FF18C0EC2FE695E695E695F0E0A8
:1053B000E554FC4F8281282F30E04C2F477081E06C
:1053C00090E002C0880F991F4A95E2F78223932349
:1053D000892B61F412C0EDEBF3E083EC93E02191B3
:1053E000C21721F08E179F07D1F707C06C2F8BEBE8
:1053F00093E00E94161C0E948A256C2F8BEB93E091
:105400000E943E1C10C080E28C0F883078F4C77078
:1054100081E090E001C0880FCA95EAF790911904E5
:10542000892B80931904CF910C948A25EBE5EC0F1E
:10543000E33040F4F0E0E059FE4F808190E0CF91FE
:105440000C94891CE8E5EC0FE73150F4F0E0EE0F26
:10545000FF1FED58FE4F80819181CF910C94731CFA
:10546000C03F30F08C2F0E941C32CF910C942B3116
:10547000CF9108951F93CF93DF93182F893319F09D
:10548000C0E0D0E002C0C0E5D0E0812F0E94C22978
:10549000209741F08FE99FE00197F1F700C00000ED
:1054A0002197F6CF812FDF91CF911F910C949029F6
:1054B0000895CF93DF9300D000D01F92CDB7DEB711
:1054C0009093880280938702811520E2920748F426
:1054D0000F900F900F900F900F90DF91CF910C9441
:1054E0004C348EEF89838A831B820E94E11B81608A
:1054F000782F9D838C8349815A816B818D810E9495
:10550000B1320F900F900F900F900F90DF91CF91CD
:105510000895CF93DF9300D000D01F92CDB7DEB7B0
:105520009093880280938702811520E2920748F4C5
:105530000F900F900F900F900F90DF91CF910C94E0
:1055400066348EEF89838A8381E08B830E94E11B1E
:105550008160782F9D838C8349815A816B818D81F5
:105560000E94B1320F900F900F900F900F90DF912B
:10557000CF9108950F931F93CF93DF9300D01F9285
:10558000CDB7DEB78C0180913C0481110AC09E0129
:105590002F5F3F4F48EC6FEF0E94462F8A81809328
:1055A0003C04F8018481813051F028F0823061F4AC
:1055B00040913C040AC080913C0440E007C06091E7
:1055C0003C0440E080E003C040E080E060E00E94F6
:1055D000D72EF801848190E0019663E070E00E948C
:1055E000F23484830F900F900F90DF91CF911F9131
:1055F0000F910895CF93DF93EC01E5EBF4E0438145
:1056000062818C810E94DC2F8C818F5F8C83DF9183
:10561000CF910895CF93DF93EC01EC81F0E0E9594D
:10562000F94F4491E5EBF4E0628181810E94DC2F27
:105630008C818F5F8C83DF91CF9108950F931F939F
:10564000CF93DF93853068F5623058F5423048F5E6
:1056500021159CE5390731F4E0910C01F0910D0121
:10566000EF2BF9F08901282F34E0639FC00111244A
:1056700038E0239F800D911D1124840F911D840F0C
:10568000911DEC01C553DE4F612FCE010E949C3469
:10569000602FCE010196DF91CF911F910F910C9455
:1056A0009C34DF91CF911F910F9108950F931F9319
:1056B000CF93DF93853018F5623008F54230F8F467
:1056C000282F34E0639FC001112438E0239F800D10
:1056D000911D1124840F911D840F911DEC01C55360
:1056E000DE4FCE010E94883490E0182F0027CE01B3
:1056F00001960E9488349801282BC90102C080E0DD
:1057000090E0DF91CF911F910F9108950F931F9318
:10571000CF93DF93853058F5663048F5473038F53C
:1057200021159CE5390731F4E0910C01F0910D0150
:10573000EF2BE9F08901C42FD0E0CC0FDD1F9EE0F4
:10574000699FC00DD11D112494E5899FC00DD11D05
:105750001124612FCE0187960E949C34602FCE01C8
:105760008896DF91CF911F910F910C949C34DF911B
:10577000CF911F910F9108950F931F93CF93DF93B4
:10578000853008F56630F8F44730E8F4C42FD0E0EF
:10579000CC0FDD1F2EE0629FC00DD11D112434E51A
:1057A000839FC00DD11D1124CE0187960E9488349D
:1057B00090E0182F0027CE0188960E948834980127
:1057C000282BC90102C080E090E0DF91CF911F91AA
:1057D0000F910895AF92BF92CF92DF92EF92FF9216
:1057E0000F931F93CF93DF93B82EA62EC090BA03CA
:1057F0008091BA04C82AC7E0D0E0D12CE12CF12C6A
:10580000D701C6010C2E04C0B695A795979587952C
:105810000A94D2F780FF13C04A2D6B2D8C2F0E9463
:10582000562B8C018130910551F00E94892A8FE31B
:105830009CE90197F1F700C00000C80111C0219751
:10584000F8F64A2D6B2D80E00E94562BEC010E9449
:10585000892A8FE39CE90197F1F700C00000CE018F
:105860000E94592A81E0DF91CF911F910F91FF9003
:10587000EF90DF90CF90BF90AF900895CF93C82F57
:10588000811102C06FEF01C06EE083E290E00E94E0
:105890009C34C11102C06FEF01C062E084E290E06D
:1058A0000E949C34C11102C06FEF01C064EC85E21C
:1058B00090E0CF910C949C3480E00E943E2C60E0FC
:1058C00086E290E00E949C340E944A1D0E941E1DA8
:1058D00081E00C943E2C83E290E00E9488348E306C
:1058E00081F484E290E00E948834823051F485E2B1
:1058F00090E00E94883491E0843C09F090E0892F88
:1059000001C080E0817008959091B50490FF04C0BB
:105910009695981740F003C0811105C090E0961746
:1059200010F40C94213161E00C94DD30882311F0E7
:10593000FA0101C0FB0109946091B504669570E01D
:105940004BE050E08BE191E00E947235892B19F415
:1059500081E0809339040E94E11B9093330480938B
:10596000320408950F931F93CF93DF93CDB7DEB723
:10597000C857D1090FB6F894DEBF0FBECDBF8091D6
:10598000B50480FF0AC00FE316E09E012F5F3F4F72
:10599000AE0147585F4FB9010BC0EDE3F4E011824F
:1059A00010821282339684E0E53BF807C1F7EBCF13
:1059B000F801849190E0DC01AA0FBB1F8A0F9B1FA6
:1059C000DC01A35CBB4F8D919D91AC91FB01819358
:1059D0009193A193BF010F5F1F4FE417F50741F7A4
:1059E000259A85B18F7D95B190626FB7F894241791
:1059F000350799F0F90171919F01E8E095B9000030
:105A000000C077FF85B9770F000000C000C000C05C
:105A100085B900C0EA9591F7EACF6FBF8FE594E0B2
:105A20000197F1F700C00000C858DF4F0FB6F89497
:105A3000DEBF0FBECDBFDF91CF911F910F910895B3
:105A4000EF92FF920F931F93CF93DF938C01CDE3DF
:105A5000D4E0E12CF12CF8018481F4E1EF16F1049B
:105A60001CF4882351F002C0811107C04091B80492
:105A7000493C08F048EC9E0102C09E0140E0609164
:105A8000B7048091B6040E94462F8FEFE81AF80AF7
:105A9000239698E2E916F104F1F60E94B22CF8017F
:105AA000848190E00196817099278483DF91CF9162
:105AB0001F910F91FF90EF9008958F929F92AF9258
:105AC000BF92CF92DF92EF92FF920F931F93CF93EB
:105AD000DF93EC014C81042F10E09801D8010E9463
