:100000000C9452040C9499040C9499040C94990443
:100010000C9499040C9499040C9499040C949904EC
:100020000C9499040C9499040C94AB180C94E71755
:100030000C94F62D0C9499040C9499040C94990446
:100040000C9499040C9499040C9499040C949904BC
:100050000C9499040C94A92D0C9499040C94990473
:100060000C9499040C9499040C9499040C9499049C
:100070000C9499040C9499040C9499040C9499048C
:100080000C9499040C9499040C9499040C9499047C
:100090000C9499040C9499040C9499040C9499046C
:1000A0000C9499040C9499040C949904F30A090B88
:1000B000100B480B590B640B700B7F0B210C870B3B
:1000C000210C210C210C8F0BAB11AB11DB11DB11BF
:1000D00063127F129E139E138A12FE120F130F13C8
:1000E000ED151416C9171416C91760168316C9170B
:1000F000841794178C208C209F209F2095209F2070
:100100009F209F208C208C209A209F209F209A2027
:1001100000047F3F1F643214643214783C1E1E14A6
:100120000A05FD377A585A000004E6D6B4460200A4
:10013000210116000000742FE5A3E0022400E25D17
:10014000003D8889C65436C3174FE4E456FF51E892
:1001500023E9DF331BC13761D60590BB87D96E8792
:10016000BA42357D5CF584F0A33F8A67EA43801488
:10017000DDB9A0BA74F3DFEB22E383CD4C5E3CCE55
:100180003CF4165B5D0B91669682D7767542FF7ED6
:10019000A3DEB050E8FC6CB47D24D55B2A7B0365FC
:1001A000D31DBC304B83C05F662FB52791B5680364
:1001B000F9FDEE0E7794A97150F42B853DBC585F84
:1001C000748B0BBDDA5D655125EC70E642569CAF31
:1001D000A345C5FBB2AB3E453AAE1F83B11070D903
:1001E000FE1FE92B8E9371B8E5DAF9C3656419B87F
:1001F0001E8B13EC3FBE7BAB14AD27B4F4F9DCF1DE
:10020000CFE2CE871477A77B8A2B3079E218885A01
:100210009705007710340C18E094C3B1388E727FC4
:10022000BFC768000000CD4327B19FC0541500012F
:10023000FE01A5040000EFC411ACB1C467FB0200CD
:1002400000000004595A05010902A10185020901B3
:10025000A10005091901290515002501950575015C
:10026000810295017503810105010930093115816C
:10027000257F95027508810609381581257F95012E
:1002800075088106050C0A38021581257F950175D0
:10029000088106C0C005010980A101850319012A52
:1002A000B700150126B700950175108100C0050C37
:1002B0000901A101850419012AA002150126A00245
:1002C000950175108100C005010906A1018506058B
:1002D0000719E029E7150025019508750181020538
:1002E00007190029EF1500250195F0750181020518
:1002F000081901290595057501910295017503916C
:1003000001C00660FF0961A1010962150026FF0016
:100310009520750881020963150026FF0095207558
:10032000089102C005010906A101050719E029E7A6
:100330001500250195087501810295017508810157
:100340000507190029FF150026FF0095067508818D
:10035000000508190129059505750191029501759A
:10036000039101C009025B00030100A032090400EF
:1003700000010301010009211101000122400007D1
:1003800005810308000A09040100020300000009B6
:10039000211101000122220007058203200001072C
:1003A0000503032000010904020001030000000905
:1003B000211101000122BC000705840320000A125C
:1003C0000100020000000866667066020001020378
:1003D000011C037600690061006C003A006600367B
:1003E0000034006300320062003300630000001E2E
:1003F000035000340032007600320020004B0065CC
:1004000000790062006F0061007200640000000E5D
:100410000350006100620069006C00650000000488
:100420000309040001020304050607080913121159
:10043000100F0E0D0C0B0A1415161718191A1B1C89
:100440001D27262524232221201F1E22232526287E
:10045000292A2C2D2F3032333536383A3B3D3E4059
:1004600042434547494A4C4E5051535557595A5C9F
:100470005E6062646668696B6D6F71737577797BB6
:100480007D7F81838587898A8C8E90929496989AB5
:100490009C9E9FA1A3A5A7A8AAACAEAFB1B3B4B6CA
:1004A000B8B9BBBCBEBFC1C2C3C5C6C7C9CACBCC25
:1004B000CDCED0D1D2D2D3D4D5D6D7D7D8D9D9DAF8
:1004C000DADBDBDBDCDCDCDCDCDDDDDDDDDCDCDC6D
:1004D000DCDCDBDBDBDADAD9D9D8D7D7D6D5D4D395
:1004E000D2D2D1D0CECDCCCBCAC9C7C6C5C3C2C16A
:1004F000BFBEBCBBB9B8B6B4B3B1AFAEACAAA8A7C7
:10050000A5A3A19F9E9C9A98969492908E8C8A897E
:10051000878583817F7D7B79777573716F6D6B695B
:1005200068666462605E5C5A5957555351504E4C30
:100530004A4947454342403E3D3B3A3836353332DF
:10054000302F2D2C2A2928262523220001010101E4
:10055000010101010102020202020202020203037E
:10056000030303030303040404040404040505054E
:100570000505060606060607070707070808080810
:10058000090909090A0A0A0B0B0B0C0C0C0D0D0DBD
:100590000E0E0E0F0F0F1010111111121213131453
:1005A00014151516161717181819191A1A1B1B1CCB
:1005B0001D1D1E1E1F202021222223242425262625
:1005C000272829292A2B2C2D2D2E2F30313232335A
:1005D0003435363738393A3B3C3D3E3F4041424363
:1005E0004445464748494A4C4D4E4F505153545547
:1005F0005658595A5B5D5E5F616264656668696BF7
:100600006C6D6F7072737577787A7B7D7E80828374
:100610008587888A8C8E8F91939596989A9C9EA0B8
:10062000A2A3A5A7A9ABADAFB1B3B5B7BABCBEC0C5
:10063000C2C4C6C9CBCDCFD1D4D6D8DBDDDFE2E48E
:10064000E7E9EBEEF0F3F5F8FAFDFFFFAA7F55407E
:1006500014001A000800150017001C001800040000
:100660001600070009000A000B000D001D001B000A
:1006700006001900050011001000E000E300E20090
:10068000E1002A422C4128440C00120013000E0005
:100690000F002D43A8003600370038004C00E4005E
:1006A0002900AE001E001F002000210022002300B0
:1006B00024002B000000000035002F003000310026
:1006C00000000000000000002E002D0000000100CE
:1006D00001000100010001000000010025002600CA
:1006E0002700330034002D00CD5C01000100010023
:1006F000010001000100CE5C3A003B003C003D00DF
:100700003E003F0040002B00440045000000000078
:100710000000000039004600470048000000530078
:1007200000000100010001000100010001000000C3
:100730004100420043000000000000000100AA0048
:10074000A900A8000000000000000100290000002E
:1007500000000000000049004B002B0000000000DA
:10076000000000004A0050000000000000000000EF
:1007700000004D00000001000100010001002A00FE
:100780000000000052004E004C0051004F000000DD
:100790000100000000000000000000000000010057
:1007A000290000000000000000000000F4002B0001
:1007B0000000000000000000F900F200000000004E
:1007C000000000000000FA0000000100010001002C
:1007D00001002A0000000000F000F5004C00F100CC
:1007E000F300000001000000000000000000000015
:1007F00000000100000000000000000000000000F8
:1008000000000000000000000000000000000000E8
:1008100000000000000000007E0F00D4FFFFFFC7B3
:100820000000007800000000000000002A2B2800D3
:10083000000000000000000000000000000000298F
:10084000000000002C1E3420212224342627252ECF
:10085000362D3738271E1F20212223242526333307
:10086000362E37381F0405060708090A0B0C0D0E33
:100870000F101112131415161718191A1B1C1D2FFF
:100880003130232D350405060708090A0B0C0D0E1F
:100890000F101112131415161718191A1B1C1D2FDF
:1008A0003130354C11241FBECFEFDAE0DEBFCDBFB3
:1008B00004B603FE27C08091F9049091FA04A09138
:1008C000FB04B091FC048730904BA740B04BD1F4AF
:1008D0001092F9041092FA041092FB041092FC0496
:1008E00014BE84B7877F84BF0FB6F894A895809113
:1008F0006000886180936000109260000FBEE0E0AD
:10090000F8E3099511E0A0E0B1E0E0E8FDE602C0FF
:1009100005900D92AE3AB107D9F724E0AEEAB1E006
:1009200001C01D92A93FB207E1F70E949B040C94FD
:10093000BE360C940000CF93DF93CDB7DEB7E497BB
:100940000FB6F894DEBF0FBECDBF84B7877F84BFDC
:100950000FB6F894A895809160008861809360003C
:10096000109260000FBE90E080E80FB6F89480937C
:100970006100909361000FBE85B7806885BF85B721
:10098000806885BF89E794E29093AF018093AE01C0
:100990000E94D41C0E947B1C0E942B180E944A18A3
:1009A0008091E20084608093E20078948091FC0161
:1009B0008823A1F01091E9001F709091EC00892F1D
:1009C000817090FD80E8182B1092E9008091E8007A
:1009D00083FD0E9405151F701093E90082E084BD1D
:1009E00093E095BD9AEF97BD80936E000E94AB1D7A
:1009F000811102C00E949C1D08E211E0FEE2EF2E70
:100A0000F1E0FF2ED8018D918D018F3F11F00E94F2
:100A1000BE24E016F106B1F70EE211E0F801819173
:100A20008F018F3F11F00E94BE24F1E005331F07B4
:100A3000A9F786E0EDECF1E0DF01182F1D921A9581
:100A4000E9F7E4EBF1E0DF011D928A95E9F70E94F6
:100A5000B227811102C00E94BD2782E090E00E946F
:100A6000AB358093C4010E94A1279093F504809335
:100A7000F4040E94D524BFEFE6E7F1E0B150E04076
:100A8000F040E1F700C000000E94D5248091CD0124
:100A900080FF08C06FEF7FEF80E090E00E94DD35BF
:100AA0000E94982D83E090E00E94AB350E94F022D6
:100AB0008CE090E00E94AB3590E0A0E0B0E0809345
:100AC000B0019093B101A093B201B093B3018091B2
:100AD000BA01811133C00E94B227811104C00E9463
:100AE000BD270E94BD2988E090E00E94B335609345
:100AF0008A0270938B0280938C0290938D026E7F9A
:100B000071F40E94BD2988E090E00E94B3356093A3
:100B10008A0270938B0280938C0290938D020E94C4
:100B20006F2910920E0280918A0280FF04C060E05B
:100B300086950E94642B81E08093BA0173EC872E26
:100B400071E0972E45E451E027E431E0E1EC6E2EB0
:100B5000E1E07E2E61E070E08614970409F44EC057
:100B6000F901A1919F018A2F82958F7090E0FC017D
:100B7000F1A0AF70EA2E8B0101C0000FAA95EAF731
:100B8000F02FF095FF22DC019196FC9291979296BE
:100B9000AC91A02BFC01A2A3DA01FD90AD01EF2DD9
:100BA000E295EF70F0E0B1A0BF2DBF70FB2E6B019E
:100BB00001C0CC0CBA95EAF7DC2CD094DB20D1A292
:100BC000D2A0CD28C2A2DC0190968C9190E002C008
:100BD00095958795EA94E2F78170E0A1F0E002C074
:100BE000F595E795FA94E2F7E0FF02C092E001C0C4
:100BF00090E0892BF30181933F01AECF8091F40403
:100C000080688093F4048091F4049091F5040E942C
:100C1000942780E091E09093EC048093EB04809122
:100C2000FC01853009F075C0FF24F39400E112E166
:100C30008091FC01853009F057C08091FC0184301F
:100C400009F440C010920E028091BC01811116C0BF
:100C5000F092BC0180918A02982F91709093BB0111
:100C60008E7F80938A02FFEF20E732E0F150204030
:100C70003040E1F700C000000E94F21D1092EF0426
:100C800088E190E0A0E40FB6F894A8958093600006
:100C90000FBEA093600083B7817F846083BF83B75A
:100CA000816083BF7894889583B78E7F83BF0FB6AA
:100CB000F894A895809160008861809360001092FC
:100CC00060000FBE8091FB01882309F4B1CF0E9420
:100CD000D524EDECF1E081918111DBC523ED31E00C
:100CE0002E173F07C1F7A4CF0E94F4220E94A82E1E
:100CF0001092BC018091BB01882349F080918A0247
:100D0000816080938A0260E086950E94642B0E9435
:100D1000DC1D0E94D52481110E94DE2DADECB1E0D6
:100D2000E5ECF1E000E010E0302F2D919191922759
:100D300021F180E0FF24F394492F4F21D1F08BA7BC
:100D40003CA72F2181E009F480E08DA70E94EA2DC5
:100D50008160782F9FA78EA74BA55CA56DA58FA559
:100D60000E940533F801EB53FE4F8081F826F08294
:100D700019C08F5FFF0C8730F9F60F5F1F4F0630E9
:100D8000110591F68FEF88AB89AB1AAA0E94EA2D64
:100D90008160782F9CAB8BAB48A959A96AA98CA913
:100DA0000E94053380910E02882309F493C080913C
:100DB0000D02E0918A02E695E81BE0930902823079
:100DC00059F4F0E0E25EFE4FE4910E2F10E06BE983
:100DD000E62E6BE1F62E59C0863059F4F0E0E55E60
:100DE000FE4FE4910E2F10E05BE8E52E5BE1F52E5F
:100DF0004CC0893061F4E695F0E0E85EFE4FE49186
:100E00000E2F10E04AEEE42E4FE1F42E3EC08F305C
:100E100061F4E695F0E0EB5EFE4FE4910E2F10E0FA
:100E20003AE7E32E3FE1F32E30C0853159F4F0E08C
:100E3000EE5EFE4FE4910E2F10E029E2E22E2FE14C
:100E4000F22E23C08831A1F0833249F4E0E1F1E0D1
:100E5000059114919BE4E92E9BE1F92E16C0843292
:100E600071F000ED17E081EEE82E89E1F82E0DC05B
:100E700008E210E0BDE9EB2EBEE1FB2E06C004EF58
:100E800011E0A0E6EA2EAEE1FA2E80910A02882354
:100E900061F010920A020E94EA2D9093080280935A
:100EA000070210920C0210920B020E94EA2DE091B0
:100EB0000702F09108028E1B9F0B8F3F9F4750F453
:100EC0000E0F1F1F109308020093070287E092E0A5
:100ED000F70109955FEBE52E51E0F52E0DEB11E0E2
:100EE00061EC662E61E0762E75E4872E71E0972E18
:100EF000E7E4AE2EE1E0BE2E6301212C312CF4E0BC
:100F00004F2E512CD6018D916D01E82FEE0FEE0F73
:100F1000D5012D915D01A22FA295AF70B0E0909602
:100F20008C9190E02F7002C0959587952A95E2F7F5
:100F30009C0121703327D4018D914D01A82FA295DA
:100F4000AF70B0E090964C9150E08F7002C0559514
:100F500047958A95E2F7CA018170992740FF02C040
:100F600082E090E0822B932B8E2BF30181933F0143
:100F70008F70E82FF0E0EB5CFE4F9081D7018C91F1
:100F8000890F8C93843054F0F80180818F5F8083C7
:100F900060E0832D0E942A1D21E001C020E0D701DE
:100FA0008C918D3F4CF4F80180818150808361E009
:100FB000832D0E942A1D21E0D7018C91082E000C60
:100FC000990BB2010E941D36F70181937F01222AFD
:100FD00033940F5F1F4FF2E03F1294CF21100E9415
:100FE000DE2D86E0E0E8F3E08E010F5F1F4FD801B1
:100FF00001900D928A95E1F7C0908203D09083030F
:10100000E0908403F0908503109282031092830392
:101010001092840310928503C11003C0DD2009F4EF
:1010200051C080917E0390917F030E94CF2D9C013F
:1010300090917A03992309F454C42333310508F4B9
:1010400041C09F3F19F09F5F90937A03CC2061F0DD
:101050000E94832C1C1414F491E001C09FEF899F1F
:10106000802D112480938203DD2061F00E94832C67
:101070001D1414F491E001C09FEF899F802D11246D
:1010800080938303309182033323E1F02091830323
:101090002223C1F045EB3403C0011124992319F038
:1010A0009093820303C081E08093820335EB230396
:1010B000C0011124992319F09093830303C081E0A8
:1010C00080938303E11003C0FF2009F451C0809195
:1010D0007C0390917D030E94CF2D9C019091790318
:1010E000992309F403C42536310508F441C09F3F14
:1010F00019F09F5F90937903EE2061F00E94612CBC
:101100001E1414F491E001C09FEF899F802D1124DB
:1011100080938403FF2061F00E94612C1F1414F45B
:1011200091E001C09FEF899F802D1124809385035A
:10113000309184033323E1F0209185032223C1F011
:1011400045EB3403C0011124992319F090938403D3
:1011500003C081E08093840335EB2303C001112495
:10116000992319F09093850303C081E08093850350
:101170008091820381110BC080918303811107C08C
:1011800080918403811103C08091850381110E94A5
:10119000B22BCB82DC82ED82FE8286E0F801A0E8F1
:1011A000B3E001900D928A95E1F70E94A82E9091EC
:1011B000C301891721F00E94A82E8093C30180915A
:1011C000FC01843009F02BCD83E08093E90080910D
:1011D000E80082FF24CD8091E80085FF21C00E94B5
:1011E000821981111BC040E2C42ED12C780109C0A4
:1011F0008091F100D7018D937D01B1E0CB1AD10828
:1012000069F08091E80085FDF3CF8091E8008B774D
:101210008093E8000E948219882399F391E001C02D
:1012200090E08091E8008B778093E800992309F49F
:10123000F6CCE0908803F09089038981E114F104F1
:1012400061F08E3F09F0FDC28A81833008F4BFC18E
:101250008550833008F0F5C2BAC1893009F4EBC07B
:10126000D0F4843009F470C050F48230A1F108F059
:101270005CC0813009F0E3C21A8289E046C2863040
:1012800009F474C008F467C0873009F472C088306C
:1012900009F4B1C0D4C2803109F436C180F48D3074
:1012A00009F4D4C028F48C3009F0C9C280E165C2C9
:1012B0008E3009F4CFC08F3009F4F7C0C0C282313C
:1012C00009F427C108F423C1833109F44CC18E3FCE
:1012D00009F47DC1B4C28A81823009F4F9C2833035
:1012E00051F0813009F0ABC20E94DE2D9B838C83CC
:1012F0007D836E83A6C280911D0190911E01892B72
:1013000009F49FC28091CD018B838091CE018C83A3
:101310008091CF018D838091D0018E838091D10106
:101320008F838091D20188878CC28A81823009F0B4
:1013300086C26B817C818D819E810E94593686E2B6
:1013400090E00E94BF357DC24C816B818A810E94F2
:101350004D1C9D83C4C22D813E8132272327322715
:101360004C816B818A810E94171C6BC20E941A31CA
:1013700068C28A818138B1F050F4803809F061C2C6
:1013800020E04B8160918C0280918B0231C08238C9
:1013900059F1833809F055C220E040918D026C81EB
:1013A0008B8126C060E08B810E94642B9B818091A1
:1013B0008A02911111C08E7F80938A0210920E02D0
:1013C000EFEFF0E722E0E150F0402040E1F700C00D
:1013D00000000E94F21D35C2816080938A0260E0A5
:1013E00086950E94642B2DC28B8180938E0229C228
:1013F0000E94802A26C28A81813891F030F4803898
:1014000009F01FC280918D0280C1823889F0833833
:1014100009F017C280918B028B8380918C0247C1A7
:1014200080918A0280FF02C086956FC180E06DC105
:1014300080918E026AC160918A0270918B028091C4
:101440008C0290918D020E948929FBC181E08A83E0
:1014500089EC5BC1EA80FB80FE24EF24FE24AC8093
:10146000B12C3DE1A316B10408F0EBC16801C7013E
:10147000895C9D4F9601201B310B2A153B0508F016
:10148000E0C149ECE41641E0F40630F40E94AB35CB
:10149000D60114968C9302C0F6011482FFEFEF1A66
:1014A000FF0A2FEFC21AD20AE2CF80911D0190915C
:1014B0001E01892B09F4C5C1EA80FB80FE24EF24BC
:1014C000FE24CC80D12C3DE1C316D10408F0B9C173
:1014D0005801C701895C9D4F9501201B310B2C15CC
:1014E0003D0508F0AEC149ECE41641E0F40628F4ED
:1014F000D50114966C910E94BF35BFEFEB1AFB0A21
:10150000EFEFAE1ABE0AE5CF0E94EE309AC184E03A
:1015100034C1EA80FB80FE24EF24FE24AC80B12C91
:10152000FDE1AF16B10408F08CC16801C7018796D0
:101530009601201B310B2A153B0508F082C120E5DE
:10154000E21621E0F20630F40E94AB35D601149683
:101550008C9302C0F6011482FFEFEF1AFF0A2FEFFF
:10156000C21AD20AE3CFEA80FB80FE24EF24FE24D5
:10157000CC80D12C3DE1C316D10408F062C140E516
:10158000E41641E0F40608F05CC180E591E08E19B4
:101590009F098C159D0508F454C15801C701879611
:1015A0009501201B310B2C153D0508F04AC1A0E523
:1015B000EA16A1E0FA0620F4F50164810E94BF3525
:1015C000FFEFEF1AFF0A2FEFA21AB20AE7CFEA8164
:1015D0008E2F90E08E30910508F033C1FC01EA5A5D
:1015E000FF4F0C94533688E0E0E2F1E0DE01919683
:1015F00001900D928A95E1F780E2D8011D928A95BB
:10160000E9F784E0898388E0FE01B196DE01159652
:10161000F2C084E2898381E08A831B821C8211C12B
:101620008C8190E0982F88272B81820F911D092EA5
:10163000000CAA0BBB0B35E0880F991FAA1FBB1F1C
:101640003A95D1F7AC01BD01405E5F4F6F4F7F4FC0
:10165000481759076A077B0708F4F3C08432E1E0B2
:101660009E07A105B10508F0ECC04532F1E05F0727
:101670006105710520F044E251E060E070E0481B34
:10168000590BBC016E5D7E4FC8010E949235D9C0D6
:10169000FB80EC8040E06E2D8F2D0E94E71B99832C
:1016A0008A8341E06E2D8F2D0E94E71B9B838C83E4
:1016B000C8C02E813F813227232732274D816C817C
:1016C0008B810E94AF1BBDC040E250E06FEF70E025
:1016D000C8010E94B73680911D018983EA82B1C09A
:1016E00081E090E0909389038093880382E390E007
:1016F0009093CC018093CB010E94EA2DA2C08091EF
:101700001D018983EA828091CB018B839AC040E2DC
:1017100050E06FEF70E0C8010E94B73692C08B8135
:10172000823069F1E8F4882309F1813009F089C039
:101730008C819AE0F92E6E01B1E2CB0ED11CF6013C
:101740002F2D11922A95E9F7B6010E94CB3189839A
:10175000F601DE01129601900D92FA94E1F771C044
:10176000833061F1843009F44BC06BC080E2D80152
:101770001D928A95E9F788E089838A8362C06C812B
:101780008AE0FE013596DE01919601900D928A95D0
:10179000E1F7683070F43AE0639FB00111246956B4
:1017A0007E4F4AE050E0CE0181960E94E33580E012
:1017B00001C08FEF89830E94D41C43C06C81CE018D
:1017C00081962AE0DC011D922A95E9F7683060F4E1
:1017D000BAE06B9FB001112469517E4F4AE050E09E
:1017E0000E949B3580E001C08FEF89838AE0FE0173
:1017F000B196DE01129601900D928A95E1F721C013
:101800006C818AE0FE013596DE01919601900D9281
:101810008A95E1F7683070F4EAE06E9FB001112418
:1018200069517E4F4AE050E0CE0181960E94E33537
:1018300080E001C08FEF89830E947B1C02C08FEF84
:1018400089838091FC01843009F0E9C98091E90025
:101850008F702091EC00922F917020FD90E8F92E6E
:10186000F82A82E08093E9008091E80080FF0CC0B4
:1018700040E050E060E270E0C8010E94B51980913C
:10188000E8008E778093E8008F2D8F708093E900B9
:10189000C6C909BD19BD09B400FEFDCF8091D800AD
:1018A0008F7D8093D8008091E00082608093E0007B
:1018B0008091E00081FDFCCF0E94F4223FEF43ECD9
:1018C00089E0315040408040E1F700C00000B0C9DD
:1018D00086E290E00E94AB351B821C821D828E83C3
:1018E000B0CF2D32314008F0AECBECCB2D323140B1
:1018F00008F0FFCB3DCC8F929F92AF92BF92CF92D8
:10190000DF92EF92FF920F931F93CF93DF9300D05C
:1019100000D0CDB7DEB7FC01808191812381348175
:10192000232B31F09F3F31F491E08F3F19F403C036
:1019300091E001C090E090FD91C77F0161E0CF018F
:101940000E94CE328C01D70112968C91811105C074
:10195000F701828181113EC029C780911B019091BE
:101960001C010196A9F359E3C52E54E0D52EA12CF4
:10197000B12C9924939480911B0190911C018A159C
:101980009B0534F3D60116968C9116978823D9F0CF
:1019900019968D919C911A970817190739F480911F
:1019A0003704909138040817190769F0F6019786F3
:1019B00014870387C6010E94FB2EC60106960E946B
:1019C000B42E10923604FFEFAF1ABF0A26E1C20E02
:1019D000D11CD1CFC80182519F45409708F07DC0EE
:1019E0008FEF93E00E94AB358111CBC64EEED42E23
:1019F000D00E07E312E0DD2071F0011584E0180736
:101A000009F4BFC6C8010E94AB35811101C0DA9448
:101A10000F5F1F4FF0CF19821A821B821C82AA24EB
:101A2000AA9468019FEFC91AD90AC8010E94AB3570
:101A300089831A82882309F4A4C6813009F048C03A
:101A40004801A2E08A0E911CC6010E94AB358A8330
:101A5000882309F496C69FEF980F933060F46801CD
:101A6000B3E0CB0ED11CC4010E94AB358B83811136
:101A70002FC08601D6CF843011F06401FACFC401A3
:101A80000E94AB35B82E6801E4E0CE0ED11CC8012F
:101A900003960E94AB35BB2009F473C6882309F472
:101AA00070C6282F30E021503109A29EA001A39ECC
:101AB000500D11248B2D90E00197840F951F0197F5
:101AC000C0F2AFE9BFE01197F1F700C00000F7CF17
:101AD000CE0101960E947332CCCF0031EFE51E0794
:101AE00031F00131FFE51F0789F482E001C081E098
:101AF0000E94E5220E94FA1444C6680127E5D21A22
:101B00008FEFC816D10409F008F45FC6C8019755D5
:101B10008F3F910511F008F054C020911B013091C6
:101B20001C012817390724F490931C0180931B0192
:101B3000F701228136E1389F5001399FB00C112402
:101B4000C501875C9B4F6C01DC0150962C9350972C
:101B5000928116968C911697992341F11A961C93AF
:101B60000E9319978F5F16968C930E94EA2DF601BB
:101B7000968785878091750387839091360480913D
:101B80003504892B80870190F081E02D309749F052
:101B9000D60154966D917C915597C501815C9B4F00
:101BA000099510933804009337040BC0882349F03B
:101BB000F6018189882329F0C501815C9B4F0E9431
:101BC000B42ED70112968C91882369F0C801815EEA
:101BD0009C45059740F46FE1600F6093B0018CE085
:101BE00090E00E94BF3517FFAEC0F70182818823C5
:101BF00009F4A9C00E94A82E869581708093D50112
:101C00000E94A82E81708093D4018091B001813010
:101C100039F48091D501882319F089E30E945B246F
:101C2000809135048093D301109235048091B001E6
:101C3000813071F048F08230A1F0843029F586EED1
:101C40000E945B2488E11EC082EE0E94E3231CC038
:101C500088E193E00E94793588E193E00E945F3546
:101C600013C08091D401811103C083E50E945B24DD
:101C700082EE0E94E3238FE39CE90197F1F700C015
:101C8000000087E50E945B24AFE3BCE91197F1F700
:101C900000C000005801E894B7F82CE0C22ED12C07
:101CA0003AE0832E912CC5010C2C02C096958795A5
:101CB0000A94E2F78F709091B001923069F48A3003
:101CC00038F490E00996B4010E941D36875A01C08D
:101CD00086500E945B2409C096EF980F963010F052
:101CE000805D01C0895A0E940D32B4E0CB1AD10840
:101CF000ECEFCE16EFEFDE06B1F68091B001813049
:101D000059F030F0823089F08430C9F488E215C08F
:101D100082EE0E94B12313C08CE20E945B2480916A
:101D2000D501882361F089E308C082EE0E94B123C7
:101D30008091D401811103C083E50E945B248091CE
:101D4000D30180933504033FFCE51F0759F190F45C
:101D5000083D8CE51807E9F0093D9CE51907A1F15C
:101D6000073DACE51A07B1F506E221EE41EE67ED5D
:101D70007CE514C0053FBCE51B0701F1C8F0063F38
:101D8000FCE51F0739F507E225EE46EE66EF7CE538
:101D900005C007E225EE45EE68ED7CE5C7010E942F
:101DA000202FEFC406E221EE40EE63EF7CE5F6CF94
:101DB00007E225EE44EE64EF7CE5F0CF06E221EE8B
:101DC00042EE65EF7CE5EACF08E221E045EE69ED01
:101DD0007CE5E4CFD70112968C91882309F43EC1AB
:101DE000109234040330BDE51B0758F40A3FECE5BC
:101DF0001E0760F4C80182509C45449708F018C142
:101E000005C00136FDE51F0709F012C10E94A12798
:101E10009093F5048093F40400312CE5120709F443
:101E2000CAC008F041C008309CE5190709F4A4C0F5
:101E3000F0F40430BCE51B0709F48CC068F40230F0
:101E4000FCE51F0709F482C003301C4509F0E7C018
:101E50008091F4048260E1C006308CE5180709F433
:101E600083C008F085C08091F4048860D6C00C302F
:101E7000ACE51A0709F490C068F40A30ECE51E07D7
:101E800009F47EC008F084C00E94F4228091F4041A
:101E90008068C3C00E302CE5120709F481C008F039
:101EA00086C08091F40494C00C3F9CE5190709F4A6
:101EB0007BC038F50431BCE51B0709F49AC058F41F
:101EC0000231FCE51F0709F47AC008F07EC080915A
:101ED000F4048F7BA2C00A3F8CE51807F1F108F0EB
:101EE0003FC005311C4509F09AC08091F40482FB83
:101EF000222720F991E0922790FB82F990FB83F949
:101F00008CC00115BDE51B0709F467C050F4809132
:101F1000F5040E3FFCE51F07C1F108F05BC08D7FA3
:101F200065C002308DE5180709F471C008F46DC072
:101F300001361D4509F073C08091F40484FB22270B
:101F400020F991E0922790FB84F967C08091F40416
:101F5000816063C08091F40416C08091F50416C0BE
:101F60008091F504826042C08091F404806155C084
:101F70008091F404806251C08091F40480644DC06B
:101F80008091F4048860846048C0826081602EC0C3
:101F90008091F4048E7F41C08091F4048D7F3DC018
:101FA0008091F404877F39C08091F50414C080913A
:101FB000F4048F7E32C08091F4048F7D2EC00E9485
:101FC000F4228091F4048F7728C08091F404877FF5
:101FD0008B7F23C08D7F8E7F09C08091F504982F61
:101FE000909591708E7F892B90FB81F98093F504F9
:101FF00016C00E94F4228091F40487FB222720F966
:1020000091E0922790FB87F908C061E001C060E091
:102010008EE090E00E94BF3502C08093F40480916E
:10202000F4049091F5040E9494270E94F422A9C31D
:10203000809135040631BCE51B0709F58A7A91E0E9
:1020400009F490E09093D601882311F065E301C074
:1020500069E284E093E00E94472E0EC006311C45E1
:1020600009F026C18091D601882309F4F5C365E300
:1020700084E093E00E941F2E0E94402882C3827257
:102080000C3CBCE51B0709F4C2C008F045C0063C87
:10209000FCE51F0709F4A7C0D8F4033C9CE5190729
:1020A00009F497C030F4023CBCE51B0709F46CC08E
:1020B000CEC0043CECE51E0709F490C0053CFCE5ED
:1020C0001F0709F0C4C042E55BE26BE57BE2A3C0F9
:1020D000093C2CE5120709F490C078F4073CACE504
:1020E0001A0709F485C0083CBCE51B0709F0AFC01E
:1020F00046E45BE26AE37BE28EC00A3CECE51E0745
:1021000009F480C00B3CFCE51F0709F0A0C04BE9B7
:1021100059E26CEA79E27FC0013D2CE5120709F42F
:1021200086C0A0F40E3C9CE5190709F47AC008F4B7
:1021300075C00F3CBCE51B0709F476C0003DECE51B
:102140001E0709F084C06EE089E079C0043DFCE51B
:102150001F0709F472C068F4023D8CE5180709F402
:1021600069C0033D9CE5190709F071C061E088E191
:102170006BC0053DACE51A0709F464C00D35BDE53B
:102180001B0709F4FEC263C080918A0280FF1BC056
:102190008E7F80938A0260918A0270918B02809177
:1021A0008C0290918D020E94892910920E02EFEF0D
:1021B000F0E722E0E150F0402040E1F700C00000ED
:1021C0000E94F21DDEC2816080938A0261E08695E2
:1021D0003BC04FE95BE268EA7BE21DC048EA5BE294
:1021E0006FE97BE218C04BE55BE262E57BE213C07E
:1021F0004AE35BE266E47BE20EC042E25BE26EE24F
:102200007BE209C04EE25BE262E27BE204C04CEAA0
:1022100059E26BE979E20E94D61DB3C261E081E028
:1022200013C065E082E00BC068E086E008C064E1AE
:102230008FE005C067E185E102C062E289E10E94AA
:10224000C41D9FC261E083E20E94642B9AC20A35DA
:102250008DE5180741F150F40115ACE51A07A9F016
:102260000E3D1C4529F50E94BD278BC20B35EDE5BF
:102270001E07D9F00C351D45D9F48091F50482FB79
:10228000882780F991E0892711C00E94F4222FEF5E
:1022900084E39CE0215080409040E1F700C00000C2
:1022A0000E94982D6EC281E001C080E00E94BA2891
:1022B000F701868197810097B9F4F7018281008147
:1022C0001181882349F0C8010E943420D82E682F3C
:1022D000C8010E94A82204C0C8010E947822D82EFA
:1022E000B8018D2D0E94FE300E94FA258C01D70185
:1022F0001296DC9012971596CC90C2949FE0C9225A
:10230000809171038770B9F0DD20A9F0812F807F63
:10231000803421F080E2800F883068F08091F504ED
:1023200082FD09C082E00E949D2880917103877020
:10233000BB24B3948111B12CA12EA2948FE0A822CA
:102340008A2D90E08C30910508F0F8C1FC01EC5921
:10235000FF4F0C945336812F807F1F70882311F01C
:102360001295107FDD20B9F0112309F4D4C180E269
:10237000800F883010F0011106C090913504192BA0
:102380001093350405C090913604192B1093360430
:102390000E944028C0C1802F0E94B123112309F45C
:1023A000CDC180E2800F883060F1002351F1812F90
:1023B0000E94322829C0812F807F1F70803211F047
:1023C0001295107F002321F0013009F45EC069C02E
:1023D0008091F50482FF1BC0DD2069F0112339F0E4
:1023E00090913504192B109335040E94402880E009
:1023F0000E94E323A3C180E00E94B123112309F4CA
:102400009DC1812F0E9439280E94402897C1DD205C
:1024100031F1CC20F1F0B1E0CB120FC08091750307
:10242000182B181709F48AC10E94EA2D909374039F
:10243000809373031093750381C1E5E0CE1209C048
:102440000E94272880916E031817C1F110936E0324
:1024500035C080917503812B0E94A7236FC1CC20CA
:1024600051F0F1E0CF120DC080913504812309F4C1
:1024700065C10E94E5280E942728812F0E94A02381
:102480005DC125E0C212F7CF59C1DD2029F085E0FA
:102490008C1508F453C112C094E09C1508F44EC189
:1024A000ECCFDD2069F0CC2049F0D70115968C9156
:1024B000159780FF30C18F7015968C93812FCCCFEC
:1024C000C1102EC1DACF812F86958695837019F0C1
:1024D000813059F033C1DD2019F0C801937002C07A
:1024E00080E090E00E94922E2FC1DD2019F0C801FB
:1024F000937002C080E090E00E947C2E25C1802F66
:10250000DD2019F00E94A32C02C00E94DC2B0E9447
:10251000B22B1AC1812F8370A9F5D11013C1402F9E
:10252000429546954770440F440F802F8F7090E07E
:102530009C01042E01C0220F0A94EAF704FF08C090
:102540008FE090E001C0880F4A95EAF7809501C0BE
:1025500080E0169516951370123069F088F490910A
:102560008F02113019F0822B892302C0922B892B04
:102570000E94F022E7C0822B90918F028927F8CF2A
:10258000822BF6CFDD2019F0812F817001C0869556
:10259000882309F4D7C0402F429546954770440FD1
:1025A000440F802F8F7090E09C01042E01C0220FF9
:1025B0000A94EAF704FF08C08FE090E001C0880F9A
:1025C0004A95EAF7809501C080E01695169513703C
:1025D000123059F078F490910602113019F0822BE4
:1025E000892309C0922B892B06C0822B9091060269
:1025F000892701C0822B0E94D522A4C01F70DD2034
:1026000039F0812F0E94E522802F0E94A7239AC0D3
:10261000802F0E94A023812F0E94D92293C0023FC5
:1026200061F128F4003F41F0013F01F16FC0033F29
:1026300059F1043FB9F06AC0DD2079F024E02C158F
:1026400008F47CC01F7181E090E001C0880F1A95EA
:10265000EAF790910602892721C085E08C1508F4DD
:102660006DC0F0CF8091F50482FF1BC0DD2039F0F2
:10267000812F8F710E94E52261C0DD20C9F3812F77
:102680008F710E94D9225AC0DD2039F01F7181E07C
:1026900001C0880F1A95EAF701C080E00E94D52298
:1026A0004DC0DD20D9F080916E030E9439288091C1
:1026B00071038770843039F40E949628812F8F71BE
:1026C0000E94D92271C094E09C1508F46DC01F715E
:1026D000812F0E94E52263E0812F11C09091350483
:1026E00080916E03892B80933504A4E0AC1550F4DF
:1026F0000E9496280E94E52864E0812F8F710E9435
:10270000CF2852C081E00E949D284EC0DD2029F0D4
:10271000CC2009F4ADCF802F6BCECC2009F4AFCF05
:10272000093349F4BFEFE7EEF3E0B150E040F04089
:10273000E1F700C00000802F0E94B12388EF8A0DCE
:10274000843010F40E94A82EBB20B1F08091710358
:1027500080FD12C0D70112961C92859585958595AE
:102760000E94E522C7010E947B0C80917103859530
:10277000859585950E94D92260E0C7010E94CE32DE
:102780006DC080917103877009F468C0D7011296FB
:102790008C91882309F462C08091F50482FD5EC0AB
:1027A00082E00E949D285AC0B12CCCCF0031FFE5B9
:1027B0001F0721F481E00E94D9229CC901312FE535
:1027C000120709F09AC982E0F6CF68E972E08C2D11
:1027D0000E94CB31892B09F099C986E18C9DF001CB
:1027E0008D9DF00D1124E75CFB4F86818130E1F473
:1027F0008091980290919902892B09F487C9809160
:102800009A0290919B02892B09F480C980919C02C5
:1028100090919D02892B09F079C980919E02909137
:102820009F02892B59F072C9823009F06FC98091DB
:102830009C0290919D02892B09F468C926E12C9D88
:10284000C0012D9D900D1124875C9B4FDC0150969B
:102850001C920E94FB2E5AC969E20ACC0F900F907D
:102860000F900F90DF91CF911F910F91FF90EF90FC
:10287000DF90CF90BF90AF909F908F900895809100
:10288000FE0187FF11C08091E80082FD05C08091A4
:10289000FC018111F8CF11C08091E8008B770BC04B
:1028A0008091FC01882349F08091E80080FFF8CFF7
:1028B0008091E8008E778093E8000895982F9730F4
:1028C00068F59093E900981739F07091EC00209129
:1028D000ED005091F00003C0242F762F50E021FD31
:1028E00002C09F5FECCF3091EB003E7F3093EB0056
:1028F0003091ED003D7F3093ED003091EB00316081
:102900003093EB007093EC002093ED005093F000B7
:102910002091EE0027FDE5CF80E008958F70809331
:10292000E90081E008952091040230910502261704
:10293000370748F06115710539F42091E8002E77CA
:102940002093E80001C0B901FC0120E06115710588
:1029500079F18091FC018823F1F18530F1F18091CA
:10296000E80083FD3CC08091E80082FD2EC080918C
:10297000E80080FFEBCF2091F3008091F20090E01F
:10298000922B6115710551F08830910538F4219131
:102990002093F100615071090196F3CF21E008976F
:1029A00009F020E08091E8008E778093E800CECF98
:1029B0002111CFCF0AC08091FC01882361F08530BE
:1029C00061F08091E80083FD0AC08091E80082FFF9
:1029D000F2CF80E0089582E0089583E0089581E0D9
:1029E00008950895BC0184E00C946E2DBC0183E031
:1029F0000C946E2D80910602982F9670963011F4EB
:102A0000886001C0877F0C94D5221F93CF93DF93FA
:102A1000CDB7DEB7AA970FB6F894DEBF0FBECDBF15
:102A2000EEEFF1E086E092E02091F10021938E1725
:102A30009F07D1F78091FF01833009F463C030F420
:102A4000813071F0823009F49DC0B4C08A3009F43D
:102A500089C08B3009F46EC0893009F0ABC020C04A
:102A60008091FE01813A09F0A5C08091E800877F3E
:102A70008093E8008091020290910302892B21F457
:102A800060E28AED91E003C060E080E090E070E0F9
:102A90000E9493148091E8008B778093E8008AC0AD
:102AA0008091FE01813209F085C0809102029091EF
:102AB0000302009719F0029709F07CC08091E800AA
:102AC000877F8093E8008091E80082FD05C08091B7
:102AD000FC018111F8CF6EC02091F3008091F200CB
:102AE00090E0922B029731F48091F100813011F047
:102AF000863021F48091F1008093D9018091E80023
:102B00008B7754C08091FE01813A09F053C08091C7
:102B1000020290910302892B09F04CC08091E800D9
:102B2000877F8093E8008091E80080FFFCCF809150
:102B30000C0137C08091FE018132E1F580910202E3
:102B400090910302892BB1F58091E800877F8093F3
:102B5000E8000E943F148091000280930C010E94C3
:102B6000F42228C08091FE01813221F58091E80095
:102B7000877F8093E8000E943F1480910102809338
:102B8000D80118C08091FE01813AA1F48091E8003B
:102B9000877F8093E8008091E80080FFFCCF8091E0
:102BA000D8018093F1008091E8008E778093E8004F
:102BB0000E943F148091E80083FFEBC18091FE01E9
:102BC0009091FF01492F50E04A30510508F0E1C1D2
:102BD000FA01E059FF4F0C945336803821F08238C7
:102BE00009F0D7C108C08091FA019091FB019923A7
:102BF00089F082600FC0809102028F70873008F0E8
:102C0000C8C18093E9008091EB0085FB882780F99B
:102C10001092E9009091E800977F9093E8008093EC
:102C2000F1001092F1007CC1282F2D7F09F0B1C175
:102C3000882319F0823061F0ACC1809100028130AC
:102C400009F0A7C1933009F080E08093FB012EC00A
:102C50008091000281112AC0809102028F702FEFB3
:102C6000280F263008F095C18093E9002091EB00F1
:102C700020FF1CC0933021F48091EB00806214C0CF
:102C80009091EB0090619093EB0021E030E0A9017E
:102C900002C0440F551F8A95E2F74093EA00109254
:102CA000EA008091EB0088608093EB001092E900CD
:102CB0008091E800877F8093E8000E943F1469C1FB
:102CC000811167C1109100021F778091E300807825
:102CD000812B8093E3008091E800877F8093E80058
:102CE0000E943F148091E80080FFFCCF8091E300B8
:102CF00080688093E300111102C082E001C083E08C
:102D00008093FC0146C18058823008F042C1209176
:102D10000002309101022C3D53E0350779F583E044
:102D20008A838AE289834FB7F894DE01139620E004
:102D30003EE051E2E32FF0E050935700E49120FF92
:102D400003C0E295EF703F5FEF708E2F90E0EA30A6
:102D500010F0C79601C0C0968D939D932F5F2431CC
:102D600049F74FBF8091E800877F8093E8006AE2CF
:102D700070E0CE0101960E949314C0C080910202BF
:102D800090910302432F552743305105B1F068F469
:102D90004130510509F40CC14230510509F0F9C028
:102DA0008BE590E0E4E6F3E057C04132510589F14C
:102DB0004232510509F43CC0ECC0C9019927813069
:102DC0009105B9F070F082309105D9F0039709F0C0
:102DD000E0C0E1EDF3E0E4918E2F90E0E1EDF3E06F
:102DE00038C0EFE1F4E0E4918E2F90E0EFE1F4E001
:102DF00030C0EFE0F4E0E4918E2F90E0EFE0F4E0FB
:102E000028C0EFEEF3E0E4918E2F90E0EFEEF3E0D8
:102E100020C08330910508F0BCC0880F991FFC01C9
:102E2000EE5AFE4F0190F081E02D89E090E014C051
:102E30008330910508F0ADC0FC01EE0FFF1FE45B8D
:102E4000FE4F0190F081E02DDC01A75BBE4F8C911D
:102E500090E0009709F49DC02091E800277F20931F
:102E6000E80020910402309105022817390708F480
:102E7000C90140E0009789F12091FC01222309F467
:102E80003DC02530D9F12091E80023FD37C02091C5
:102E9000E80022FD2FC02091E80020FFEBCF4091F9
:102EA000F3002091F20030E0342B009759F02830E5
:102EB000310540F444914093F100319601972F5F22
:102EC0003F4FF3CF41E02830310509F040E0209139
:102ED000E8002E772093E800CDCF4111CDCF0AC076
:102EE0008091FC01882351F0853041F08091E80009
:102EF00083FD04C08091E80082FFF2CF8091E8005A
:102F00008B778093E80045C0803809F042C08091FB
:102F1000E800877F8093E8008091FD018093F100B5
:102F20008091E8008E77C7CE811133C08091000276
:102F3000909101029927029764F58091E800877FBC
:102F40008093E800109100021093FD010E943F144D
:102F5000111106C08091E30087FD02C081E001C02D
:102F600084E08093FC0142E061EC81E00E945E1409
:102F700042E261EC84E00E945E1442E261EC82E095
:102F80000E945E1442E260EC83E00E945E14809135
:102F9000FC018091E80083FF10C08091E800877FEA
:102FA0008093E8008091EB0080628093EB0005C085
:102FB00082E190E0EFEBF3E04FCFAA960FB6F894E2
:102FC000DEBF0FBECDBFDF91CF911F9108951F923D
:102FD0000F920FB60F9211242F933F934F935F934D
:102FE0006F937F938F939F93AF93BF93CF93DF9311
:102FF000EF93FF93C091E900CF708091EC00D82F40
:10300000D17080FDD0E81092E9008091F000877FB8
:103010008093F00078940E9405151092E900809149
:10302000F00088608093F000CD2BCF70C093E90052
:10303000FF91EF91DF91CF91BF91AF919F918F91D0
:103040007F916F915F914F913F912F910F900FBEA4
:103050000F901F901895E8EDF0E080818E7F8083BF
:103060001092E2001092DA001092E100A0EEB0E0BF
:103070008C9181608C9380818F77808319BCA7EDC0
:10308000B0E08C918E7F8C9380818F7E80831092B4
:10309000D7010895CF92DF92EF92FF920F931F9383
:1030A000CF93DF93C8EDD0E088818F7E8883E7EDF2
:1030B000F0E080818160808384E082BF81E0809342
:1030C000D70188818E7F888302EE10E0F80110829C
:1030D0001092DA0081EEC82ED12CF6011082888180
:1030E0008F77888388818068888388818F7D8883B3
:1030F00019BC1092FC011092FD011092FB0110927C
:10310000FA0190EEE92EF12CF70180818B7F80830C
:1031100088818160888342E060E080E00E945E14E4
:10312000F60180818E7F8083F801808181608083B9
:10313000808188608083F70180818E7F8083888191
:1031400080618883DF91CF911F910F91FF90EF9065
:10315000DF90CF9008951F920F920FB60F92112417
:103160002F933F934F935F936F937F938F939F938F
:10317000AF93BF93EF93FF938091E10082FF09C06B
:103180008091E20082FF05C08091E1008B7F8093F7
:10319000E1008091DA0080FF2AC08091D80080FF92
:1031A00026C08091DA008E7F8093DA008091D9006A
:1031B00080FF18C080E189BD82E189BD09B400FEAD
:1031C000FDCF81E08093FC018091D70181110FC078
:1031D0000E942B180E944A188091E200846080931C
:1031E000E20005C019BC1092FC011092D701809139
:1031F000E10080FF17C08091E20080FF13C0809142
:10320000E2008E7F8093E2008091E20080618093F3
:10321000E2008091D80080628093D80019BC85E0DC
:103220008093FC018091E10084FF30C08091E20036
:1032300084FF2CC080E189BD82E189BD09B400FE14
:10324000FDCF8091D8008F7D8093D8008091E100E0
:103250008F7E8093E1008091E2008F7E8093E20078
:103260008091E20081608093E2008091FD018823DB
:1032700011F084E007C08091E30087FD02C081E087
:1032800001C083E08093FC018091FC018091E1000A
:1032900083FF27C08091E20083FF23C08091E1007B
:1032A000877F8093E10082E08093FC011092FD0112
:1032B0008091E1008E7F8093E1008091E2008E7F1B
:1032C0008093E2008091E20080618093E20042E01E
:1032D00060E080E00E945E148091F000886080933E
:1032E000F000FF91EF91BF91AF919F918F917F91EE
:1032F0006F915F914F913F912F910F900FBE0F9063
:103300001F9018952091E4003091E50095E64091DA
:10331000EC00842F817040FF23C08091E80080FD85
:103320001DC08091FC01882399F0853099F080912F
:10333000EB0085FD11C04091E4005091E500241799
:10334000350729F3915011F09A01E1CF84E00895F7
:1033500082E0089583E0089581E0089580E0089573
:103360004091E80042FFDDCF0895EF92FF920F9366
:103370001F93CF93DF937C018B010E9482198111EF
:1033800019C0E70101151105A1F08091E80085FD44
:103390000AC08091E8008E778093E8000E9482192D
:1033A000882381F307C089918093F10001501109AE
:1033B000E9CF80E0DF91CF911F910F91FF90EF90C7
:1033C00008950895CF93DF9300D000D01F92CDB71A
:1033D000DEB79093870380938603811520E29207DE
:1033E00048F40F900F900F900F900F90DF91CF91B6
:1033F0000C945F358EEF89838A831B820E94EA2DAD
:103400008160782F9D838C8349815A816B818D8166
:103410000E9405330F900F900F900F900F90DF9147
:10342000CF9108950F931F93CF93DF938C01EB01FE
:1034300068E972E08C2F0E94CB31892B09F040C0E3
:10344000DD27C057DD4F8881F80110821882833054
:1034500079F048F4813041F1823091F580919A02FF
:1034600090919B0209C0843051F08530E9F028C06A
:1034700080919C0290919D020097B1F01BC08091B9
:103480009E0290919F020097A9F42091980230919A
:10349000990280919A0290919B022115310541F089
:1034A000009741F4C90106C0809198029091990259
:1034B000009731F0DF91CF911F910F910C94E21999
:1034C000DF91CF911F910F910895CF93DF9300D09B
:1034D00000D01F92CDB7DEB7909387038093860309
:1034E000811520E2920748F40F900F900F900F90F3
:1034F0000F90DF91CF910C9479358EEF89838A8379
:1035000081E08B830E94EA2D8160782F9D838C83DC
:1035100049815A816B818D810E9405330F900F90F4
:103520000F900F900F90DF91CF910895CF93DF937D
:10353000EC010E94651ACE01DF91CF910C94E21943
:103540000F931F93CF93DF938C01862F68E972E06E
:103550000E94CB31892BD1F4C0919802D09199026D
:103560002097A1F0F8018081833039F4CE010E94C8
:10357000961ACE010E94961A02C0843038F0CE010D
:10358000DF91CF911F910F910C94961ADF91CF91FB
:103590001F910F9108950F931F93CF93DF938C0189
:1035A000EB0168E972E08C2F0E94CB31892B09F086
:1035B0006DC0DD27F8018081813041F49185911142
:1035C00015C09285992391F082E010C0823049F4B1
:1035D000F8018185811107C08285811106C083E0D1
:1035E00005C086E003C085E001C084E0C057DD4F20
:1035F00088838330B1F028F4813071F0823031F06B
:1036000045C08430A9F0853079F140C080919A029C
:1036100090919B020097A1F5809198029091990258
:1036200020C080919C0290919D020097E9F028C0F3
:1036300080919E0290919F02009711F580919802CF
:1036400090919902009749F00E94961A80919A02EF
:1036500090919B02009781F013C080919A02909103
:103660009B02009799F00CC080919802909199026A
:10367000009761F00E94961A8091980290919902A9
:10368000DF91CF911F910F910C94651ADF91CF912B
:103690001F910F9108950F931F93CF93DF9300D045
:1036A0001F92CDB7DEB78C018091110281110AC043
:1036B0009E012F5F3F4F48EC6FEF0E94CD298A811A
:1036C00080931102F8018481813051F028F082301A
:1036D00061F4409111020AC08091110240E007C0DC
:1036E0006091110240E080E003C040E080E060E0D3
:1036F0000E945E29F801848190E0019663E070E009
:103700000E941D3684830F900F900F90DF91CF9110
:103710001F910F910895CF93DF93EC01EAE8F2E057
:10372000438162818C810E94632A8C818F5F8C83AC
:10373000DF91CF910895CF93DF93EC01EC81F0E01E
:10374000E55BFB4F4491EAE8F2E0628181810E94EF
:10375000632A8C818F5F8C83DF91CF9108950F93C3
:103760001F93CF93DF93843068F5623058F5423071
:1037700048F521159CE5390731F4E0911D01F091E0
:103780001E01EF2BF9F08901282F34E0639FC0015F
:10379000112438E0239F800D911D1124840F911D69
:1037A000840F911DEC01C958DE4F612FCE010E949C
:1037B000BF35602FCE010196DF91CF911F910F9100
:1037C0000C94BF35DF91CF911F910F9108950F9306
:1037D0001F93CF93DF93843018F5623008F54230A1
:1037E000F8F4282F34E0639FC001112438E0239FB0
:1037F000800D911D1124840F911D840F911DEC01EA
:10380000C958DE4FCE010E94AB3590E0182F00273B
:10381000CE0101960E94AB359801282BC90102C048
:1038200080E090E0DF91CF911F910F9108950F9369
:103830001F93CF93DF93843058F5663048F54730B7
:1038400038F521159CE5390731F4E0911D01F0911F
:103850001E01EF2BE9F08901C42FD0E0CC0FDD1F52
:103860009EE0699FC00DD11D112494E5899FC00D74
:10387000D11D1124612FCE0187960E94BF35602F84
:10388000CE018896DF91CF911F910F910C94BF3597
:10389000DF91CF911F910F9108950F931F93CF93B5
:1038A000DF93843008F56630F8F44730E8F4C42F2D
:1038B000D0E0CC0FDD1F2EE0629FC00DD11D112482
:1038C00034E5839FC00DD11D1124CE0187960E943F
:1038D000AB3590E0182F0027CE0188960E94AB35BB
:1038E0009801282BC90102C080E090E0DF91CF91C0
:1038F0001F910F910895CF92DF92EF92FF920F9355
:103900001F93CF93DF93CDB7DEB72A970FB6F89406
:10391000DEBF0FBECDBF80E5E2EAF2E0DF011D921F
:103920008A95E9F788E3EEEEF3E0DF011D928A95D0
:10393000E9F782EAC82E82E0D82E7F0107EE11E077
:10394000F701D182C0824AE050E0B801CE01019671
:103950000E949B3588E0FE013196D60101900D92C0
:103960008A95E1F789859A85D70113969C938E9362
:103970001297BAE0CB0ED11CE7E0EE0EF11C065F09
:103980001F4F0733F2E01F07D9F62A960FB6F894B7
:10399000DEBF0FBECDBFDF91CF911F910F91FF9082
:1039A000EF90DF90CF9008958F929F92AF92BF9249
:1039B000CF92DF92EF92FF920F931F93CF93DF93FB
:1039C000CDB7DEB72A970FB6F894DEBF0FBECDBFD6
:1039D00009E314E0E12CF12C80EAC82E8AE1D82E0C
:1039E0009BECA92E9AE1B92E22E1822E2AE1922E99
:1039F000F801D182C082B382A28295828482F58A44
:103A0000E48ABE016F5F7F4F8E2D0E94CB31892BE0
:103A100029F489859A85F801938B828BFFEFEF1A41
:103A2000FF0A0A5E1F4F88E0E816F10409F72A969C
:103A30000FB6F894DEBF0FBECDBFDF91CF911F91BF
:103A40000F91FF90EF90DF90CF90BF90AF909F903D
:103A50008F900895AF92BF92CF92DF92EF92FF9234
:103A60000F931F93CF93DF93B82EA62EC09006021C
:103A700080918F02C82AC7E0D0E0D12CE12CF12C34
:103A8000D701C6010C2E04C0B695A79597958795CA
:103A90000A94D2F780FF13C04A2D6B2D8C2F0E9401
:103AA000E71B8C018130910551F00E94651A8FE36C
:103AB0009CE90197F1F700C00000C80111C02197EF
:103AC000F8F64A2D6B2D80E00E94E71BEC010E9466
:103AD000651A8FE39CE90197F1F700C00000CE0161
:103AE0000E94E21981E0DF91CF911F910F91FF9029
:103AF000EF90DF90CF90BF90AF900895CF93C82FF5
:103B0000811102C06FEF01C06BE183E290E00E947F
:103B1000BF35C11102C06FEF01C066E984E290E0D9
:103B20000E94BF35C11102C06FEF01C060EA85E29B
:103B300090E0CF910C94BF3580E00E947E1D60E044
:103B400086E290E00E94BF350E941A310E94EE305A
:103B500081E00C947E1D83E290E00E94AB358B31B6
:103B600081F484E290E00E94AB35863951F485E21D
:103B700090E00E94AB3591E0803A09F090E0892F07
:103B800001C080E08170089590918A0290FF04C086
:103B90009695981740F003C0811105C090E09617E4
:103BA00010F40C94A82B61E00C94642B882311F082
:103BB000FA0101C0FB01099460918A02669570E0E8
:103BC0004BE050E08DE091E00E949D36892B19F486
:103BD00081E080930E020E94EA2D90930802809368
:103BE000070208950F931F93CF93DF93CDB7DEB7EE
:103BF000C857D1090FB6F894DEBF0FBECDBF809174
:103C00008A0280FF0AC003E214E09E012F5F3F4F4B
:103C1000AE0147585F4FB9010BC0E2E1F2E01182FB
:103C200010821282339682E0EA38F807C1F7EBCFB0
:103C3000F801849190E0DC01AA0FBB1F8A0F9B1F43
:103C4000DC01AE5EBD4F8D919D91AC91FB018193E6
:103C50009193A193BF010F5F1F4FE417F50741F741
:103C6000259A85B18F7D95B190626FB7F89424172E
:103C7000350799F0F90171919F01E8E095B90000CD
:103C800000C077FF85B9770F000000C000C000C0FA
:103C900085B900C0EA9591F7EACF6FBF8FE594E050
:103CA0000197F1F700C00000C858DF4F0FB6F89435
:103CB000DEBF0FBECDBFDF91CF911F910F91089551
:103CC000EF92FF920F931F93CF93DF938C01C2E18A
:103CD000D2E0E12CF12CF8018481F4E1EF16F1043B
:103CE0001CF4882351F002C0811107C040918D025D
:103CF000493C08F048EC9E0102C09E0140E0609102
:103D00008C0280918B020E94CD298FEFE81AF80A6D
:103D1000239698E2E916F104F1F60E94F21DF801EB
:103D2000848190E00196817099278483DF91CF91FF
:103D30001F910F91FF90EF9008958F929F92AF92F5
:103D4000BF92CF92DF92EF92FF920F931F93CF9388
:103D5000DF93EC014C81042F10E09801D8010E9400
:103D600068369B01AC010E947E366B017C01E0E26B
:103D7000F0E0E01BF10BA5E5B0E09B01AC010E9477
:103D80007E364B015C019F01DF010E9460369B0182
:103D9000AC010E9489369B01AC012C0D3D1D4E1DCE
:103DA0005F1DC501B4010E943136822FF22E99E2C7
:103DB000921728F093E0299F900111240DC025E56A
:103DC00030E0281B3109C901880F991F280F391FBE
:103DD00037FF02C02F5F3F4F35952795122F109563
:103DE00092E1C92E92E0D92E00E085E5E82EEF1889
:103DF00001FD02C08E2D01C08F2D412F193C08F00E
:103E000048EC960160918C020E94CD290F5F83E0FF
:103E1000C80ED11C083261F70E94F21D8C818111FD
:103E200002C091E003C0803219F49FEF90931A0111
:103E300090911A01890F8C83DF91CF911F910F917F
:103E4000FF90EF90DF90CF90BF90AF909F908F90BA
:103E500008950F931F93CF93DF93C2E1D2E0FE0149
:103E6000118210821282339682E0EA38F807C1F795
:103E700000E010E080911002082E000C990B08174A
:103E80001907ACF080911901082E000C990B8017CE
:103E900091076CF040918D02493C08F048EC9E017E
:103EA00060918C0280918B020E94CD2903C01982FF
:103EB00018821A820F5F1F4F239608321105D1F620
:103EC0000E94F21D8091180190911002980F90931A
:103ED000100220911901280F20931901121614F4D1
:103EE00097321CF0819580931801DF91CF911F913B
:103EF0000F910895BF92CF92DF92EF92FF920F93AE
:103F00001F93CF93DF93FC01828180FF03C0DD24E8
:103F1000DA9402C0DD24D39402E112E0C0E0D0E0E4
:103F200028E2B22EF80111821082128294E0E92E6A
:103F3000F12CC12C80910F028C0D89322CF06B2D4D
:103F40000E94FB35892F02C087FD885D082E000C7A
:103F5000990BC817D907A9F480918D028E9DA001F5
:103F60008F9D500D11245595479555954795493C82
:103F700008F048EC980160918C0280918B020E94BD
:103F8000CD29CD0CF1E0EF1AF108A1F621960D5FD5
:103F90001F4FC832D10531F60E94F21D80910F02E9
:103FA00091E0D91206C0811102C087E207C081509A
:103FB00005C090E00196BE010E941D3680930F025D
:103FC000DF91CF911F910F91FF90EF90DF90CF90F5
:103FD000BF900895EF92FF921F93CF93DF93EC0170
:103FE00082E1E82E82E0F82E10E040918D02493CFB
:103FF00008F048EC8C81970160918C02810F0E943F
:10400000CD291A5F83E0E80EF11C103F71F70E9482
:10401000F21D9A818C8190FF02C08F5F01C0815098
:104020008C83DF91CF911F91FF90EF90089580E0F6
:1040300090E00E94922E80E090E00E947C2E1092F0
:104040003604109272030E944028E0E8F3E086E014
:10405000DF011D928A95E9F710927A031092790395
:1040600010927B030C94B22BCF92DF92FF920F93AE
:104070001F93CF93DF936C010091060280918F0212
:10408000082BC7E0D0E010E0C8010C2E02C09595C7
:1040900087950A94E2F780FD04C02197A8F7F12CD8
:1040A00009C0FC2EB6018C2F0E94FE300E94FA251A
:1040B000019799F38F2DDF91CF911F910F91FF9071
:1040C000DF90CF900895CF93DF93EC010E943420CE
:1040D000BE010E94FE300E94FA25DF91CF91089523
:1040E000FC0186819781009719F00E94FA2504C08F
:1040F000808191810E946320292F2F70E92FE29502
:10410000EF704E2F50E0FA013297EE30F105B8F41F
:10411000E658FF4F0C945336803F99F018F4883ED0
:1041200070F40FC0843F59F40CC0883E50F0813FBA
:1041300031F407C0822F869586958695089580E094
:10414000089581E008959F92AF92BF92CF92DF923F
:10415000EF92FF920F931F93CF93DF93CDB7DEB70C
:1041600065970FB6F894DEBF0FBECDBF8C0185E01A
:10417000F801DE01519601900D928A95E1F7F80160
:10418000E280909124036091250340912703509190
:1041900028034115510531F06F3F31F481E09F3F15
:1041A00019F403C081E001C080E0F82FF1709F2E68
:1041B00080FD4EC1F80130812181C380D48074E23A
:1041C000A72E73E0B72EF0902603F601E41BF50B43
:1041D000FF2009F4EFC080912903E83CF10508F0C5
:1041E000AAC0482F407F09F05AC062131BC0931326
:1041F00019C060912A0370912B03F8014681578101
:104200006417750779F4FE2CE1100CC08F70806183
:1042100080932903C5010E947B0C80912903F8013A
:10422000858353C1CD2831F02F3F31F481E03F3FEA
:1042300019F403C081E001C080E080FD03C081E08B
:104240008E2502C080E090E0F82FF170FF2E80FFF5
:104250001CC080916D0340912C03841709F413C195
:1042600090E0FC0153E0EE0FFF1F5A95E1F7E35D8C
:10427000FC4F5181251306C05081531303C0528156
:10428000E51203C001968770E8CFFE2CEE2009F4FA
:104290001CC18091290381608093290358C0621357
:1042A0000FC093130DC040912A0350912B03F801C6
:1042B000268137814217530719F4EE2009F4A7C06D
:1042C000C8010E947020882381F1EE2071F12091B5
:1042D0002903822F82958F7090E00297A4F080913D
:1042E0002403909125039A8789871B86DD86CC86D7
:1042F0002E8780912A0390912B03988B8F87CE0174
:1043000009960E947B0C88E0F801A4E2B3E00190DA
:104310000D928A95E1F70E94F5280AC06217C9F04C
:10432000C8010E947020811127C0C8010E947B0C27
:10433000FF24F394CAC0482F407F81F784E293E0C2
:104340000E947B0C88E0F50111928A95E9F7F12C27
:10435000BCC09313E5CF40912A0350912B03F80181
:104360002681378142175307D9F6E110D9CF8583CB
:10437000C8010E947B0C66C0EE20B9F2209129038F
:10438000822F82958F7090E002970CF4BCCF8091C1
:104390002403909125039A8389831B82DD82CC823A
:1043A0002E8380912A0390912B0398878F83CE01CF
:1043B0000196A7CFE83CF10508F044C0FE2CEE20A2
:1043C00009F4B3CF621330C093132EC020912A0397
:1043D00030912B03F801868197812817390721F541
:1043E0009091290390FD17C0892F82958F70282FF7
:1043F00030E02115310579F095832F30310541F0FA
:104400008F5F982F9295907F85818F70892B858300
:10441000C8010E947B0C88E0F801A4E2B3E001909F
:104420000D928A95E1F751C0C8010E947020811158
:104430006ACF80912903816080932903C8010E947B
:104440007B0C43C088E0F50111928A95E9F73DC0E5
:10445000EE2009F46ACFC8010E947020F82E88234C
:1044600009F463CF88E0F801A4E2B3E001900D9273
:104470008A95E1F780912403909125030E9463209F
:104480000E94F52822C0398B2A8B89899A890E943B
:104490006320292F22952F70223028F49F7039F045
:1044A000811105C00BC0243028F49F7049F4805E50
:1044B000883020F0C8010E947B0C9F2CF92C05C08D
:1044C000F8019581907F99F7F9CF8F2D65960FB6FA
:1044D000F894DEBF0FBECDBFDF91CF911F910F913A
:1044E000FF90EF90DF90CF90BF90AF909F90089596
:1044F0009E3F61F127E0929F800D1124682F669501
:1045000066956695982F977083E0689FB001112497
:1045100040E050E080E0FB01E40FF51FEE50FD4F5E
:10452000208130E0092E02C0369527950A94E2F7E3
:1045300021703327042E01C0220F0A94EAF7822B40
:104540004F5F5F4F4330510531F7089580E0089584
:104550009E3F51F127E0929F800D1124E82FE695B0
:10456000E695E695877051E001C0550F8A95EAF708
:1045700083E0E89FF0011124EE50FD4F20E030E091
:1045800070E04081CB01022E02C0969587950A9477
:10459000E2F78170819584278523842781932F5F9B
:1045A0003F4F2330310569F70895809306020C943C
:1045B000172021E030E001C0220F8A95EAF720950C
:1045C0008091060282230C94D52221E030E001C0C4
:1045D000220F8A95EAF780910602822B0C94D5224D
:1045E00080938F020C9417201092350480910C0157
:1045F000882331F08091F40487FF02C08EE101C06E
:1046000086E0E6E0F3E0DF011D928A95E9F70C947D
:104610001720CF93DF93CDB7DEB760970FB6F8942E
:10462000DEBF0FBECDBF29873A874B875C876D877A
:104630007E878F87988BCE0109960E94A3208111D7
:1046400051C088E0FE013996DE01119601900D926D
:104650008A95E1F779856A854C855D854115510517
:1046600031F06F3F31F481E07F3F19F403C081E006
:1046700001C080E080FD36C0A0912C03B0E0CD01E8
:1046800001968770992720916D0330E08217930778
:1046900081F179836A835D834C8393E0AA0FBB1F0A
:1046A0009A95E1F7A35DBC4F98E0FE013196019029
:1046B0000D929A95E1F780932C030E94EB2812C08B
:1046C00028E0829FC0011124835D9C4F0E94A3209B
:1046D0008823E1F080916D0390E00196877099271F
:1046E00080936D0380916D0390912C038913E8CF23
:1046F0000DC00E94F42210922C0310926D03E4E28C
:10470000F3E088E0DF011D928A95E9F760960FB625
:10471000F894DEBF0FBECDBFDF91CF9108958823FF
:1047200021F00E9432280C9440280895882339F003
:1047300090913604892B809336040C944028089578
:10474000882321F00E9439280C944028089588235A
:1047500039F090913504892B809335040C944028CE
:104760000895882379F19CEF980F913A30F4682FDF
:1047700084E093E00E941F2E0DC090E2980F9830C5
:1047800058F4877091E001C0990F8A95EAF7892F54
:104790000E9439280C9440289BE5980F933020F410
:1047A00080E090E00C94922E98E5980F973120F4D9
:1047B00080E090E00C947C2E803F20F00E94DC2B67
:1047C0000C94B22B0895CF93882309F472C0C82F9C
:1047D0008CEF8C0F813AC0F580910C018823E1F0B9
:1047E0008091F40487FF18C0EC2FE695E695E695D6
:1047F000F0E0EC5FFC4F8281282F30E04C2F4770B7
:1048000081E090E002C0880F991F4A95E2F7822369
:104810009323892B61F412C0E6E0F3E08CE093E08F
:104820002191C21721F08E179F07D1F707C06C2F77
:1048300084E093E00E941F2E0E9440286C2F84E0A9
:1048400093E00E94472E10C080E28C0F883078F4ED
:10485000C77081E090E001C0880FCA95EAF7909197
:104860003504892B80933504CF910C944028EBE5D7
:10487000EC0FE33040F4F0E0E85AFE4F808190E026
:10488000CF910C94922EE8E5EC0FE73150F4F0E074
:10489000EE0FFF1FE55AFE4F80819181CF910C945E
:1048A0007C2EC03F30F08C2F0E94A32CCF910C9413
:1048B000B22BCF9108951F93CF93DF93182F893395
:1048C00019F0C0E0D0E002C0C0E5D0E0812F0E9426
:1048D000E323209741F08FE99FE00197F1F700C0B3
:1048E00000002197F6CF812FDF91CF911F910C947B
:1048F000B12380E008959091F40492FF0DC0282F19
:104900002871283019F4877F846006C0282F24710D
:10491000243011F48B7F886093FF0DC0282F2871FD
:10492000283119F4877E846106C0282F2471243130
:1049300011F48B7E88612091F50420FF0DC0382F83
:104940003871383019F4877F816006C0382F317193
:10495000313011F48E7F886021FF0DC0282F28711F
:10496000283119F4877E816106C0282F21712131F9
:1049700011F48E7E886194FD877E0895F894E82F67
:10498000E295EF70F0E031A1282F2F7081E090E0E8
:1049900001C0880F2A95EAF7982F9095932391A349
:1049A00092A1892B82A3789408959F92AF92BF928F
:1049B000CF92DF92EF92FF920F931F93CF93DF93EB
:1049C00000D000D000D0CDB7DEB7AE014F5F5F4F53
:1049D0007A0186E0FA0111928A95E9F708E211E07E
:1049E0006A01AA24A394B12CF80180818F3F09F4B5
:1049F00041C0F894E82FE295EF70F0E021A18F70AC
:104A0000A50102C0440F551F8A95E2F7CA01922FF3
:104A1000982B91A392A18095892382A3789400C0BA
:104A2000EEE2F1E0912C31E021912F3F89F0A22FAD
:104A3000A295AF70B0E090968C9190E02F7002C07C
:104A4000959587952A95E2F780FD02C0832F01C0D6
:104A500080E0982A330F51E0E533F50729F7F80194
:104A600080818F3F11F00E94BE24F0EAFA95F1F7A1
:104A7000F60190820F5F1F4FFFEFCF1ADF0A21E090
:104A80000E32120709F0B0CF46E050E0B70184EBD8
:104A900091E00E94AA3601E0009709F400E0892B1A
:104AA00089F086E0F701A4EBB1E001900D928A95C0
:104AB000E1F781E0809378030E94EA2D90937703D9
:104AC00080937603809178038823A1F08091760308
:104AD000909177030E94CF2D059760F0E4EBF1E011
:104AE000ADECB1E081918D9341E0EA3BF407D1F761
:104AF0001092780380911B0190911C01019651F155
:104B000010E036E1932E1DC0989EF001999EF00DA5
:104B10001124E75CFB4FC288D388C114D10419F477
:104B200028ECC22ED12C989E5001999EB00C1124D5
:104B3000C501875C9B4F7C01FC01868181110FC000
:104B40001F5F812F90E020911B0130911C012817DD
:104B50003907D4F680911F01811111C038C08585B5
:104B600096850E94CF2DC816D90650F7C7010E941E
:104B7000FB2EC501815C9B4F0E94B42EE1CF80913A
:104B8000300490913104009711F10E94CF2D2091B3
:104B90008A0330918B0328173907C8F490912E04AB
:104BA00080912F04981759F00E943F3010928B0388
:104BB00010928A03109231041092300408C00E94AF
:104BC000C12F10923104109230040E942030802FA7
:104BD00026960FB6F894DEBF0FBECDBFDF91CF9102
:104BE0001F910F91FF90EF90DF90CF90BF90AF900B
:104BF0009F900895CF93DF938238910569F1B0F4C7
:104C00008133910509F46FC048F48932910509F4A4
:104C100065C08A32910509F46BC08AC0853391055D
:104C200009F457C089339105B9F082C0833E9105DC
:104C300071F138F4803E9105B1F0823E910511F199
:104C400077C0863E9105B9F1873E9105C9F1843E52
:104C5000910509F06DC024C02091F40420FD53C0DB
:104C600021FD51C065C08091F40480FD46C0809153
:104C7000F50480FF48C08091F40484FD50C183EEA8
:104C800090E04FC18091F40482FF3AC0F4CF80914C
:104C9000F40482FD35C08091F50480FD34C0EBCF73
:104CA0008091F50481FF35C08091F40484FD37C103
:104CB00087EE90E036C18091F40483FF27C0F4CFE3
:104CC0008091F40483FD22C08091F50481FD21C010
:104CD000EBCF8091F40485FD1FC021C08091F404C6
:104CE00085FD1DC019C08091F40486FD1BC01DC048
:104CF0008091F40486FD19C015C089E390E011C1CC
:104D000082EE90E00EC180EE90E00BC186EE90E066
:104D100008C184EE90E005C189E290E002C185E31C
:104D200090E0FFC08AE290E0FCC081E390E0F9C02F
:104D3000811531E5930708F069C0811540E59407B6
:104D4000F0F09C0174E0369527957A95E1F7922F63
:104D50009370482F437021E030E002C0220F331FD0
:104D60004A95E2F73C68392B982F9F709695969557
:104D700040E2949FC0011124822B932BD2C0883E25
:104D8000910568F5803E910508F0CBC0883A910501
:104D9000B8F4853A910548F0855AE82FF0E0E85AD2
:104DA000FE4F808190E09064BCC08130910509F491
:104DB000B3C008F4B4C08430910508F4B0C0B1C0E9
:104DC0008F3B910508F0ABC0885AE82FF0E0EE0F5A
:104DD000FF1FE55AFE4F808191819464A2C0811526
:104DE00020E2920758F4811531E0930708F099C04A
:104DF000803F910508F493C0906593C0811540E40D
:104E0000940708F48CC09F70906A8BC0811525E5CB
:104E1000920708F042C0811534E5930728F0982FD7
:104E20008827846F906A7DC0811543E59407B0F0B0
:104E30009C012370332741E050E002C0440F551F0E
:104E40002A95E2F7282F2695269580E2289F900143
:104E50001124CA01822B932B9A6863C0811522E525
:104E6000920728F4982F8827816F906A5AC09C0176
:104E70002370332741E050E002C0440F551F2A95AC
:104E8000E2F7282F2695269580E2289F900111248D
:104E9000CA01822B932B9C6844C0EC01811539E533
:104EA0009307A8F48115984528F09C2F8827806FD8
:104EB000906A37C0C11586E5D80788F58C2F0E9407
:104EC0007B248F7190E0982F882790622AC08115EB
:104ED0002AE5920790F48C2F8F700E947B2494E037
:104EE000D695C7959A95E1F7CF70D0E0DC2FCC2707
:104EF000D0699E01282BC90114C09056811590429B
:104F000070F48D2F8F710E947B24282F2F71CE017A
:104F100099279062922B05C081E090E002C080E06A
:104F200090E0DF91CF910895CF93C92F682F84E04F
:104F300090E00E94BF356C2F82E290E0CF910C94FC
:104F4000BF35CF9384E090E00E94AB35C82F82E25A
:104F500090E00E94AB352C2F30E0A901582BCA01FC
:104F6000CF91089580E090E00E94B9358A3E9E4F2F
:104F700011F40C94AB1D80E008956AEE7EEF80E0A2
:104F800090E00E94DD3560E082E090E00E94BF3555
:104F900060E083E090E00E94BF3510928F0260E0F5
:104FA00084E090E00E94BF3560E082E290E00E94E1
:104FB000BF3560E085E090E00E94BF3560E086E0AC
:104FC00090E00E94BF356FEF87E090E00E94BF3510
:104FD00040E050E0BA0188E090E00E94D13560E006
:104FE0008DE090E00E94BF3540E050E0BA0188E1DA
:104FF00090E00E94D13560E087E190E00E94BF35EB
:1050000040E050E0BA018CE190E00E94D13560E0D0
:1050100070E080E290E00E94DD3540E050E0BA01AF
:1050200088E190E00E94D13580E00E947E1D0E94C0
:105030009C1D40E050E0BA018FE090E00E94D13525
:1050400040E050E0BA0183E190E00C94D1358091CA
:105050007503882331F01092750310927403109237
:1050600073030895809590913604892380933604C4
:10507000089580959091350489238093350408958F
:105080009091350480913604892B90917203892B7D
:105090008093040380917503882361F10E94EA2DB7
:1050A0002091730330917403821B930B88389341D2
:1050B00010F00E9427289091040380917503892B9A
:1050C0008093040380910C01882331F08091F404D3
:1050D00087FF02C08EE101C086E0E6E0F3E090E0E9
:1050E000815028F021912223D9F39F5FF9CF9111AC
:1050F0000E942728E091EB04F091EC043097A9F08E
:1051000080910C01882359F08091F40487FF07C037
:10511000809104038093050386E08093040302805A
:10512000F381E02D84E093E00994089510927103D7
:105130001092700310926F0308952091710380956F
:10514000822380937103982F977099F430E0482F51
:10515000082E000C550B2417350759F09091F504D3
:1051600092FD07C08595859585950E94D9220C945E
:10517000962808959091F50492FB222720F928178C
:1051800069F080FB92F99093F5048091F40490917A
:10519000F5040E94942782E00C949D280895909134
:1051A000F50492FD10C098E0899F90011124262BF0
:1051B000209371030E94E5220E94EA2D90937003D0
:1051C00080936F0308950C94E52280916E03811102
:1051D00010926E03089580916D0390912C038917AE
:1051E00019F08F5F8770FBCF08951F93CF93DF93E4
:1051F0008091290382958F7009F05CC0809126030D
:10520000882309F457C080916D0310912C0360919D
:10521000240370912503C0912703D091280391E0C6
:105220006F3F09F090E0292F811709F443C02097C0
:1052300021F07F3F21F030E003C031E001C0322F88
:1052400090E030FD34C0FC0133E0EE0FFF1F3A95D3
:10525000E1F7DF01A35DBC4F11963C911197371325
:1052600026C03C91361323C012963C9112973111FF
:105270001EC013964D915C9114974C1B5D0B483CDE
:105280005105A8F4809129038F70806180932903D0
:10529000EE5CFC4F80818F708061808384E293E0BC
:1052A0000E947B0CDF91CF911F910C94EB2801960B
:1052B0008770BACFDF91CF911F91089590918A02A4
:1052C00090FF0CC0E2E1F2E0818360834283339679
:1052D00092E0EA38F907C1F70C94F21D0895809125
:1052E0008A02282F269530E02115310519F48170A6
:1052F000826005C02532310524F081708864809376
:105300008A0280918D02893C18F088EC80938D028E
:105310000895CF92DF92EF92FF926B017C010E9481
:105320006F29B701A60188E090E0FF90EF90DF9031
:10533000CF900C94D13580918E02882319F0815042
:1053400080938E0260918A0270918B0280918C0210
:1053500090918D020C94892980918E02833018F4EB
:105360008F5F80938E0260918A0270918B02809190
:105370008C0290918D020C948929EAE8F2E083E096
:10538000808311828FEF828388EC83831482608113
:105390007181828193810C948929AF92BF92CF92BF
:1053A000DF92EF92FF920F931F93CF93DF93E82E3C
:1053B000F62EE901E42FF0E0611106C0E55BFA4F3B
:1053C000E4914E2F2E2F71C0062F10E0E55BFA4FAF
:1053D0004491F42FC42ED12C26E0829FC0011124C9
:1053E0002FEF30E0B9010E9409365BEA5603C00195
:1053F000579F900D11248E0D911D8E0D911D582FCC
:10540000550F580FD901A01BB10BAC9DC001AD9D2C
:10541000900DBC9D900D1124E92FF59ED001112413
:10542000AB2FBB277901EA1AFB0AEC9CD001ED9C5B
:10543000B00DFC9CB00D11245901A51AB108A09E15
:105440007001A19EF00CB09EF00C1124EF2CFF24F3
:105450002E193F092C9D80012D9D100D3C9D100D96
:105460001124212F6230710591F048F46115710506
:10547000E1F061307105B9F4242F4B2F16C0643070
:10548000710569F040F06630710579F00CC0242F89
:10549000492FE12F0AC0492FEF2F2B2F06C0292FAC
:1054A000E42F412F02C0292FEB2F49832883EA8361
:1054B000DF91CF911F910F91FF90EF90DF90CF90F0
:1054C000BF90AF900895CF93DF9300D01F92CDB7D8
:1054D000DEB790918A0290FF0DC0493C08F048EC7D
:1054E0009E012F5F3F4F0E94CD294B8169818A81A8
:1054F0000E945E290F900F900F90DF91CF91089539
:105500005F926F927F928F929F92AF92BF92CF9253
:10551000DF92EF92FF920F931F93CF93DF9300D010
:105520001F92CDB7DEB7082F762E142F622E9091E2
:105530008A0290FF74C0E92FE695AE2FB0E0A7571E
:10554000BE4F8C9180930D029E7F923081F4493C36
:1055500008F048EC9E012F5F3F4F672D802F0E947F
:10556000CD294B8169818A810E945E2946C08230A3
:1055700019F410918D0241C0863019F400918B020C
:105580003CC08930D9F38931C1F5E9518E2F817042
:10559000582EE695F0E0E55BF94FA590B49082E1D6
:1055A000C82E82E0D82EE12CF12CBB2498E2892E63
:1055B000912CAE9CC001AF9C900DBE9C900D11240F
:1055C000B4010E940936802F511002C0860F01C01D
:1055D000861B412F193C08F048EC9601672D0E946C
:1055E000CD298FEFE81AF80A83E0C80ED11C88E2B3
:1055F000E816F104F1F60E94F21D00938B027092FE
:105600008C0210938D02662051F060918A02709195
:105610008B0280918C0290918D020E9489290F90BB
:105620000F900F90DF91CF911F910F91FF90EF900E
:10563000DF90CF90BF90AF909F908F907F906F90B2
:105640005F900895EAE8F2E0438128E0421B08F405
:1056500040E021E0628181810C94802AEAE8F2E056
:10566000438128E0420F08F44FEF21E062818181FD
:105670000C94802AEAE8F2E0628128E0621B08F4D8
:1056800060E021E0438181810C94802AEAE8F2E025
:10569000628128E0620F08F46FEF21E0438181818D
:1056A0000C94802AEAE8F2E0818121E04381628162
:1056B00088500C94802AEAE8F2E0818121E043815D
:1056C0006281885F0C94802A90918A0290FF36C094
:1056D0009170811102C0926006C0853210F098640A
:1056E00002C0880F982B90938A02662351F0609134
:1056F0008A0270918B0280918C0290918D020E949F
:10570000892960918A02669570E04BE050E08DE057
:1057100091E00E949D36892B19F010920E0202C072
:105720000E94DC1D81E080930A0220E040918D02FE
:1057300060918C0280918B020C94802A0895809154
:105740008A028695815009F484E261E00C94642B0E
:1057500080918A0286958F5F853208F081E061E052
:105760000C94642B0E94EA2D20918203211104C025
:1057700020918303222321F090937F0380937E0363
:1057800020918403211104C020918503222321F05C
:1057900090937D0380937C03E091EB04F091EC0403
:1057A000309749F082E0809380030480F581E02DFA
:1057B00080E893E009940895803F39F48091830351
:1057C00087FF6AC01092830367C0813F29F48091EC
:1057D00083031816BCF360C090918203823F29F4C2
:1057E00097FF5AC01092820357C0833F19F41916CD
:1057F000CCF352C090918403893F31F419160CF018
:105800004BC01092840348C08A3F19F497FF44C0EC
:10581000F8CF8B3F39F48091850387FF3DC010920C
:1058200085033AC08C3F29F4809185031816BCF398
:1058300033C0843F21F4809181038E7F17C0853F60
:1058400021F4809181038D7F11C0863F21F48091E6
:1058500081038B7F0BC0873F21F480918103877F79
:1058600005C0883F31F4809181038F7E809381034E
:1058700013C08D3F21F480917B038E7F0BC08E3F40
:1058800021F480917B038D7F05C08F3F29F48091A7
:105890007B038B7F80937B0380918203811106C001
:1058A00080918303811102C010927A038091840356
:1058B000811106C080918503811102C01092790385
:1058C000089580917B0380FD16C081FD16C082FD86
:1058D00018C080917903882391F0883290F428E0F1
:1058E000829FC001112468E270E00E941D36862F5D
:1058F000672B29F007C082E0089584E0089581E0D5
:10590000089588E0089580917B0380FD14C081FD97
:1059100014C082FD16C080917A03882381F08431FF
:1059200080F422E3829FC001112464E170E00E94B0
:105930001D36862F08958CE0089589E1089585E04D
:10594000089582E30895803F21F40E94832C81957D
:1059500004C0813F29F40E94832C8093830308951F
:10596000823F21F40E94832C819504C0833F29F457
:105970000E94832C809382030895893F19F40E942A
:10598000612C05C08A3F31F40E94612C819580937F
:10599000840308958B3F21F40E94612C819504C0FB
:1059A0008C3F29F40E94612C809385030895843FE5
:1059B00021F480918103816017C0853F21F480919B
:1059C0008103826011C0863F21F48091810384604D
:1059D0000BC0873F21F480918103886005C0883F18
:1059E00031F48091810380618093810308958D3F1C
:1059F00021F480917B0381600BC08E3F21F4809164
:105A00007B03826005C08F3F29F480917B03846013
:105A100080937B0308958091D901089524E0209319
:105A2000E9002FEF3091E800215035FD06C035ED3B
:105A30003A95F1F700002111F5CF2091E80025FFFC
:105A40000BC040E050E066E070E00E94B519809124
:105A5000E8008E778093E8000895CF93DF9320913C
:105A60000C01222339F02091F40427FF03C060E2E7
:105A700024E002C068E021E02093E9002FEF30919C
:105A8000E800215035FD06C035ED3A95F1F70000EC
:105A90002111F5CF2091E80025FF1DC0EC01809178
:105AA0000C01811105C040E050E068E070E003C0E7
:105AB00070E040E050E0CE010E94B5198091E8000E
:105AC0008E778093E80080E2FE01AAEDB1E00190BC
:105AD0000D928A95E1F7DF91CF9108958093F604B6
