:100000000C9495030C94DC030C94DC030C94DC033B
:100010000C94DC030C94DC030C94DC030C94DC03E4
:100020000C94DC030C94DC030C94FE160C943A162E
:100030000C9487280C94DC030C94DC030C94DC03F4
:100040000C94DC030C94DC030C94DC030C94DC03B4
:100050000C94DC030C9446280C94DC030C94DC0315
:100060000C94DC030C94DC030C94DC030C94DC0394
:100070000C94DC030C94DC030C94DC030C94DC0384
:100080000C94DC030C94DC030C94DC030C94DC0374
:100090000C94DC030C94DC030C94DC030C94DC0364
:1000A0000C94DC030C94DC030C94DC03120912099D
:1000B00042094209CA09E609050B050BF109650A5F
:1000C000760A760A27113D114311381238127B1136
:1000D0008711961138129E11381238123812A61153
:1000E000401467141C1667141C16B314D6141C167F
:1000F000D715E715D61ED61EE91EE91EDF1EE91E1E
:10010000E91EE91ED61ED61EE41EE91EE91EE41EE7
:1001100000047F3F1F643214643214783C1E1E14A6
:100120000A05FD377A585A000004E6D6B4460200A4
:10013000210116000000742FE5A3E0016200C75DF5
:10014000003D8889C65436C3174FE4E456AF424E8B
:100150005F70354F87F2C6D8CB1D3A79EDC595CD86
:10016000832D03F51C7F02C0104550DDEEBD7D419F
:10017000D123E49AD9C4C89E5D9F6C97A4C71DD2B1
:10018000B3306107ECF923F219085164F09764B4B5
:10019000A14E6DCF5DE8B366963CB6DB013A2DC843
:1001A0002DBD0CDF05C2BC951A2729D35A0EEF20AE
:1001B000D03B7F6E01B142750C28707CD91256A2DB
:1001C00019BB7CFA61F06D53A6534A047DC8CDBFBC
:1001D000C90100C4C014501E692F4EDE02BB8CFF43
:1001E0003890959F91E08C786326AD3C3CA4BA236F
:1001F00086FFB2F25543697AC83DBAB4CE26121CC6
:1002000046A4C1E688C4F94200007B426496B86CFB
:10021000FA680001E301E3020000F9AEABA9B1C442
:1002200067FB020000000004595A05010902A10100
:1002300085020901A10005091901290515002501FB
:10024000950575018102950175038101050109304C
:1002500009311581257F95027508810609381581B8
:10026000257F950175088106050C0A380215812540
:100270007F950175088106C0C005010980A101852F
:100280000319012AB700150126B7009501751081E1
:1002900000C0050C0901A101850419012AA002155D
:1002A0000126A002950175108100C005010906A173
:1002B000018506050719E029E71500250195087550
:1002C0000181020507190029EF1500250195F07538
:1002D000018102050819012905950575019102950D
:1002E0000175039101C00660FF0961A10109621552
:1002F0000026FF009520750881020963150026FF7E
:1003000000952075089102C005010906A1010507A5
:1003100019E029E71500250195087501810295016D
:10032000750881010507190029FF150026FF0095B2
:1003300006750881000508190129059505750191C3
:1003400002950175039101C009025B00030100A041
:10035000320904000001030101000921110100011B
:100360002240000705810308000A09040100020376
:10037000000000092111010001222200070582036B
:100380002000010705030320000109040200010306
:1003900000000009211101000122BC0007058403AF
:1003A00020000A12010002000000086666306600A4
:1003B00000010203011C037600690061006C003A31
:1003C00000660036003400630032006200330063D0
:1003D0000000001A0350003300300020004B00657D
:1003E00000790062006F0061007200640000000E7E
:1003F0000350006100620069006C006500000004A9
:10040000030904FFAA7F5540000102030405060703
:100410000809131211100F0E0D0C0B0A14151617E4
:1004200018191A1B1C1D2223252628292A2C2D2F9A
:100430003032333536383A3B3D3E404243454749FA
:100440004A4C4E5051535557595A5C5E606264662F
:1004500068696B6D6F71737577797B7D7F8183853B
:1004600087898A8C8E90929496989A9C9E9FA1A33D
:10047000A5A7A8AAACAEAFB1B3B4B6B8B9BBBCBE61
:10048000BFC1C2C3C5C6C7C9CACBCCCDCED0D1D2DD
:10049000D2D3D4D5D6D7D7D8D9D9DADADBDBDBDCDF
:1004A000DCDCDCDCDDDDDDDDDCDCDCDCDCDBDBDB8B
:1004B000DADAD9D9D8D7D7D6D5D4D3D2D2D1D0CEEB
:1004C000CDCCCBCAC9C7C6C5C3C2C1BFBEBCBBB9F0
:1004D000B8B6B4B3B1AFAEACAAA8A7A5A3A19F9E6E
:1004E0009C9A98969492908E8C8A89878583817F36
:1004F0007D7B79777573716F6D6B69686664626017
:100500005E5C5A5957555351504E4C4A49474543E2
:1005100042403E3D3B3A3836353332302F2D2C2A7F
:1005200029282625232214001A0008001500170088
:100530001C00180004001600070009000A000B0048
:100540000D001D001B000600190005001100100021
:100550000C00120013000E000F002D433600370070
:10056000000000000000000000000000000000008B
:100570000000000000000000000000010101010176
:10058000010101010202020202020202020303034C
:10059000030303030304040404040404050505051C
:1005A00005060606060607070707070808080809DC
:1005B0000909090A0A0A0B0B0B0C0C0C0D0D0D0E88
:1005C0000E0E0F0F0F10101111111212131314141D
:1005D000151516161717181819191A1A1B1B1C1D92
:1005E0001D1E1E1F202021222223242425262627EB
:1005F0002829292A2B2C2D2D2E2F3031323233341D
:1006000035363738393A3B3C3D3E3F404142434422
:1006100045464748494A4C4D4E4F50515354555604
:1006200058595A5B5D5E5F616264656668696B6CB0
:100630006D6F7072737577787A7B7D7E808283852B
:1006400087888A8C8E8F91939596989A9C9EA0A26B
:10065000A3A5A7A9ABADAFB1B3B5B7BABCBEC0C275
:10066000C4C6C9CBCDCFD1D4D6D8DBDDDFE2E4E739
:10067000E9EBEEF0F3F5F8FAFDFF000000000000F2
:10068000000000000000000000000000000000006A
:1006900000000000000000000000000000007E0FCD
:1006A00000D4FFFFFFC7000000780000000000003A
:1006B00000002A2B280000000000000000000000BD
:1006C000000000000029000000002C1E3420212220
:1006D00024342627252E362D3738271E1F20212289
:1006E000232425263333362E37381F040506070802
:1006F000090A0B0C0D0E0F101112131415161718F2
:10070000191A1B1C1D2F3130232D3504050607082F
:10071000090A0B0C0D0E0F101112131415161718D1
:10072000191A1B1C1D2F3130354C11241FBECFEF61
:10073000DAE0DEBFCDBF04B603FE27C08091C1045E
:100740009091C204A091C304B091C4048730904B2F
:10075000A740B04BD1F41092C1041092C204109281
:10076000C3041092C40414BE84B7877F84BF0FB63D
:10077000F894A89580916000886180936000109241
:1007800060000FBEE0E0F8E3099511E0A0E0B1E001
:10079000EEE5F8E602C005900D92AA39B107D9F747
:1007A00024E0AAE9B1E001C01D92A13CB207E1F743
:1007B0000E94A60B0C942D340C9400008F929F92F3
:1007C000AF92BF92CF92DF92EF92FF920F931F935F
:1007D000CF93DF9300D000D0CDB7DEB7FC0180818E
:1007E000918123813481232B31F09F3F31F491E0BB
:1007F0008F3F19F403C091E001C090E090FD95C7D0
:100800007F0161E0CF010E943D308C01D70112963B
:100810008C91811105C0F701828181113EC02DC7E5
:1008200080911B0190911C010196A9F354EFC52EF4
:1008300053E0D52EA12CB12C9924939480911B01C7
:1008400090911C018A159B0534F3D60116968C9164
:1008500016978823D9F019968D919C911A970817AD
:10086000190739F48091F2039091F30308171907DF
:1008700069F0F601978614870387C6010E948C29C8
:10088000C60106960E9445291092F103FFEFAF1AA8
:10089000BF0A26E1C20ED11CD1CFC80182519F45AB
:1008A000409708F081C04EEED42ED00E87E08D1513
:1008B00008F4CEC68FEF93E00E941A338111C8C6A8
:1008C00007E613E0DD2071F0011594E0190709F443
:1008D000BFC6C8010E941A33811101C0DA940F5FAC
:1008E0001F4FF0CF19821A821B821C82AA24AA945D
:1008F0006801AFEFCA1ADA0AC8010E941A33898365
:100900001A82882309F4A4C6813009F048C048013E
:10091000B2E08B0E911CC6010E941A338A83882391
:1009200009F496C69FEF980F933060F46801E3E0F6
:10093000CE0ED11CC4010E941A338B8381112FC0AB
:100940008601D6CF843011F06401FACFC4010E9431
:100950001A33B82E6801F4E0CF0ED11CC8010396FB
:100960000E941A33BB2009F473C6882309F470C6A9
:10097000282F30E021503109A29EA001A39E500DE6
:1009800011248B2D90E00197840F951F0197C0F2E1
:10099000AFE9BFE01197F1F700C00000F7CFCE013B
:1009A00001960E94E22FCCCF0031EFE51E0731F017
:1009B0000131FFE51F0789F482E001C081E00E9458
:1009C0002F210E944D1344C6680127E5D21A8FEFEC
:1009D000C816D10409F008F45FC6C80197558F3FC7
:1009E000910511F008F054C020911B0130911C01B9
:1009F0002817390724F490931C0180931B01F701F9
:100A0000228136E1389F5001399FB00C1124C50175
:100A10008C509C4F6C01DC0150962C935097928126
:100A200016968C911697992341F11A961C930E9362
:100A300019978F5F16968C930E947B28F6019687F4
:100A4000858780913C0387839091F1038091F00327
:100A5000892B80870190F081E02D309749F0D601F5
:100A600054966D917C915597C50186509C4F099580
:100A70001093F3030093F2030BC0882349F0F601AF
:100A80008189882329F0C50186509C4F0E94452901
:100A9000D70112968C91882369F0C801815E9C452C
:100AA000059740F46FE1600F6093A0018CE090E047
:100AB0000E942E3317FFAEC0F7018281882309F40C
:100AC000A9C00E9439298695817080939E010E9459
:100AD0003929817080939D018091A001813039F482
:100AE00080919E01882319F089E30E94A5228091BC
:100AF000F00380939C011092F0038091A00181305B
:100B000071F048F08230A1F0843029F586EE0E9421
:100B1000A52288E11EC082EE0E942D221CC088E121
:100B200093E00E94E83288E193E00E94CE3213C045
:100B300080919D01811103C083E50E94A52282EE70
:100B40000E942D228FE39CE90197F1F700C000007D
:100B500087E50E94A522AFE3BCE91197F1F700C039
:100B600000005801E894B7F82CE0C22ED12C3AE0EE
:100B7000832E912CC5010C2C02C0969587950A9462
:100B8000E2F78F709091A001923069F48A3038F4C6
:100B900090E00996B4010E948C33875A01C08650B8
:100BA0000E94A52209C096EF980F963010F0805D44
:100BB00001C0895A0E947C2FB4E0CB1AD108ECEF17
:100BC000CE16EFEFDE06B1F68091A001813059F02C
:100BD00030F0823089F08430C9F488E215C082EEAA
:100BE0000E94FB2113C08CE20E94A52280919E01ED
:100BF000882361F089E308C082EE0E94FB21809186
:100C00009D01811103C083E50E94A52280919C0172
:100C10008093F003033FFCE51F0759F190F4083D72
:100C20008CE51807E9F0093D9CE51907A1F1073D9E
:100C3000ACE51A07B1F506E221EE41EE67ED7CE581
:100C400014C0053FBCE51B0701F1C8F0063FFCE5F9
:100C50001F0739F507E225EE46EE66EF7CE505C095
:100C600007E225EE45EE68ED7CE5C7010E94B1295B
:100C7000EFC406E221EE40EE63EF7CE5F6CF07E23B
:100C800025EE44EE64EF7CE5F0CF06E221EE42EE85
:100C900065EF7CE5EACF08E221E045EE69ED7CE511
:100CA000E4CFD70112968C91882309F43EC11092AB
:100CB000EF030330BDE51B0758F40A3FECE51E07C0
:100CC00060F4C80182509C45449708F018C105C0E3
:100CD0000136FDE51F0709F012C10E94EB25909334
:100CE000B0048093AF0400312CE5120709F4CAC0A8
:100CF00008F041C008309CE5190709F4A4C0F0F4DD
:100D00000430BCE51B0709F48CC068F40230FCE534
:100D10001F0709F482C003301C4509F0E7C0809129
:100D2000AF048260E1C006308CE5180709F483C087
:100D300008F085C08091AF048860D6C00C30ACE567
:100D40001A0709F490C068F40A30ECE51E0709F4AC
:100D50007EC008F084C00E943E218091AF0480686C
:100D6000C3C00E302CE5120709F481C008F086C01C
:100D70008091AF0494C00C3F9CE5190709F47BC037
:100D800038F50431BCE51B0709F49AC058F4023168
:100D9000FCE51F0709F47AC008F07EC08091AF041B
:100DA0008F7BA2C00A3F8CE51807F1F108F03FC025
:100DB00005311C4509F09AC08091AF0482FB2227BF
:100DC00020F991E0922790FB82F990FB83F98CC087
:100DD0000115BDE51B0709F467C050F48091B0040C
:100DE0000E3FFCE51F07C1F108F05BC08D7F65C0B9
:100DF00002308DE5180709F471C008F46DC00136A2
:100E00001D4509F073C08091AF0484FB222720F9AF
:100E100091E0922790FB84F967C08091AF048160D4
:100E200063C08091AF0416C08091B00416C0809159
:100E3000B004826042C08091AF04806155C080914F
:100E4000AF04806251C08091AF0480644DC0809136
:100E5000AF048860846048C0826081602EC0809149
:100E6000AF048E7F41C08091AF048D7F3DC08091E3
:100E7000AF04877F39C08091B00414C08091AF0463
:100E80008F7E32C08091AF048F7D2EC00E943E21A4
:100E90008091AF048F7728C08091AF04877F8B7FCC
:100EA00023C08D7F8E7F09C08091B004982F9095CC
:100EB00091708E7F892B90FB81F98093B00416C0CE
:100EC0000E943E218091AF0487FB222720F991E008
:100ED000922790FB87F908C061E001C060E08EE0D6
:100EE00090E00E942E3302C08093AF048091AF0443
:100EF0009091B0040E94DE250E943E21A9C38091FA
:100F0000F0030631BCE51B0709F58A7A91E009F484
:100F100090E090939F01882311F065E301C069E29E
:100F20008BEC92E00E94D8280EC006311C4509F0D7
:100F300026C180919F01882309F4F5C365E38BECFA
:100F400092E00E94B0280E948A2682C382720C3CE2
:100F5000BCE51B0709F4C2C008F045C0063CFCE52F
:100F60001F0709F4A7C0D8F4033C9CE5190709F44E
:100F700097C030F4023CBCE51B0709F46CC0CEC03E
:100F8000043CECE51E0709F490C0053CFCE51F0796
:100F900009F0C4C045E85CE26EE87CE2A3C0093C0D
:100FA0002CE5120709F490C078F4073CACE51A0769
:100FB00009F485C0083CBCE51B0709F0AFC049E750
:100FC0005CE26DE67CE28EC00A3CECE51E0709F4AB
:100FD00080C00B3CFCE51F0709F0A0C043EC5CE2BD
:100FE00064ED7CE27FC0013D2CE5120709F486C068
:100FF000A0F40E3C9CE5190709F47AC008F475C00A
:101000000F3CBCE51B0709F476C0003DECE51E076C
:1010100009F084C06EE089E079C0043DFCE51F075B
:1010200009F472C068F4023D8CE5180709F469C040
:10103000033D9CE5190709F071C061E088E16BC0D0
:10104000053DACE51A0709F464C00D35BDE51B0785
:1010500009F4FEC263C08091520280FF1BC08E7FE4
:101060008093520260915202709153028091540217
:10107000909155020E94B12C1092F401EFEFF0E72D
:1010800022E0E150F0402040E1F700C000000E9463
:10109000491BDEC281608093520261E086953BC0AD
:1010A00040E25DE269E27DE21DC049E25DE260E2AC
:1010B0007DE218C04EE85CE265E87CE213C04DE6D4
:1010C0005CE269E77CE20EC045E55CE261E67CE259
:1010D00009C041E65CE265E57CE204C044ED5CE207
:1010E00063EC7CE20E942D1BB3C261E081E013C07F
:1010F00065E082E00BC068E086E008C064E18FE054
:1011000005C067E185E102C062E289E10E941B1B24
:101110009FC261E083E20E94E52C9AC20A358DE508
:10112000180741F150F40115ACE51A07A9F00E3D7E
:101130001C4529F50E9407268BC20B35EDE51E07DD
:10114000D9F00C351D45D9F48091B00482FB882775
:1011500080F991E0892711C00E943E212FEF84E39E
:101160009CE0215080409040E1F700C000000E94C8
:1011700035286EC281E001C080E00E940427F7019B
:10118000868197810097B9F4F701828100811181EE
:10119000882349F0C8010E947E1ED82E682FC801FE
:1011A0000E94F22004C0C8010E94C220D82EB801BB
:1011B0008D2D0E948F2B0E9444248C01D701129602
:1011C000DC9012971596CC90C2949FE0C922809132
:1011D00038038770B9F0DD20A9F0812F807F80343B
:1011E00021F080E2800F883068F08091B00482FDA9
:1011F00009C082E00E94E726809138038770BB24F3
:10120000B3948111B12CA12EA2948FE0A8228A2D33
:1012100090E08C30910508F0F8C1FC01EA5AFF4FCC
:101220000C94C233812F807F1F70882311F0129598
:10123000107FDD20B9F0112309F4D4C180E2800FC2
:10124000883010F0011106C09091F003192B109313
:10125000F00305C09091F103192B1093F1030E9444
:101260008A26C0C1802F0E94FB21112309F4CDC121
:1012700080E2800F883060F1002351F1812F0E94BD
:101280007C2629C0812F807F1F70803211F012953B
:10129000107F002321F0013009F45EC069C0809105
:1012A000B00482FF1BC0DD2069F0112339F090915A
:1012B000F003192B1093F0030E948A2680E00E940D
:1012C0002D22A3C180E00E94FB21112309F49DC1BE
:1012D000812F0E9483260E948A2697C1DD2031F14A
:1012E000CC20F1F0B1E0CB120FC080913C03182B61
:1012F000181709F48AC10E947B2890933B038093BE
:101300003A0310933C0381C1E5E0CE1209C00E946C
:101310007126809135031817C1F11093350335C03C
:1013200080913C03812B0E94F1216FC1CC2051F0B0
:10133000F1E0CF120DC08091F003812309F465C163
:101340000E942F270E947126812F0E94EA215DC1F1
:1013500025E0C212F7CF59C1DD2029F085E08C15B8
:1013600008F453C112C094E09C1508F44EC1ECCFB0
:10137000DD2069F0CC2049F0D70115968C911597A6
:1013800080FF30C18F7015968C93812FCCCFC11008
:101390002EC1DACF812F86958695837019F0813022
:1013A00059F033C1DD2019F0C801937002C080E00C
:1013B00090E00E9423292FC1DD2019F0C80193700D
:1013C00002C080E090E00E940D2925C1802FDD2021
:1013D00019F00E94E72E02C00E94202E0E94F62DD6
:1013E0001AC1812F8370A9F5D11013C1402F4295E6
:1013F00046954770440F440F802F8F7090E09C01FA
:10140000042E01C0220F0A94EAF704FF08C08FE0FF
:1014100090E001C0880F4A95EAF7809501C080E00E
:10142000169516951370123069F088F490913D036B
:10143000113019F0822B892302C0922B892B0E9434
:101440003A21E7C0822B90913D038927F8CF822B68
:10145000F6CFDD2019F0812F817001C08695882399
:1014600009F4D7C0402F429546954770440F440F6A
:10147000802F8F7090E09C01042E01C0220F0A94EF
:10148000EAF704FF08C08FE090E001C0880F4A959A
:10149000EAF7809501C080E016951695137012301A
:1014A00059F078F49091EC01113019F0822B8923D6
:1014B00009C0922B892B06C0822B9091EC018927C1
:1014C00001C0822B0E941F21A4C01F70DD2039F0B3
:1014D000812F0E942F21802F0E94F1219AC0802FFE
:1014E0000E94EA21812F0E94232193C0023F61F1D3
:1014F00028F4003F41F0013F01F16FC0033F59F173
:10150000043FB9F06AC0DD2079F024E02C1508F41E
:101510007CC01F7181E090E001C0880F1A95EAF746
:101520009091EC01892721C085E08C1508F46DC0ED
:10153000F0CF8091B00482FF1BC0DD2039F0812FF5
:101540008F710E942F2161C0DD20C9F3812F8F711F
:101550000E9423215AC0DD2039F01F7181E001C0B3
:10156000880F1A95EAF701C080E00E941F214DC044
:10157000DD20D9F0809135030E94832680913803C5
:101580008770843039F40E94E026812F8F710E9489
:10159000232171C094E09C1508F46DC01F71812F48
:1015A0000E942F2163E0812F11C09091F003809160
:1015B0003503892B8093F003A4E0AC1550F40E940E
:1015C000E0260E942F2764E0812F8F710E94192747
:1015D00052C081E00E94E7264EC0DD2029F0CC20D9
:1015E00009F4ADCF802F6BCECC2009F4AFCF0933F7
:1015F00049F4BFEFE7EEF3E0B150E040F040E1F72F
:1016000000C00000802F0E94FB2188EF8A0D8430EB
:1016100010F40E943929BB20B1F08091380380FD7D
:1016200012C0D70112961C928595859585950E94CA
:101630002F21C7010E94DE0380913803859585958F
:1016400085950E94232160E0C7010E943D306DC056
:1016500080913803877009F468C0D70112968C9185
:10166000882309F462C08091B00482FD5EC082E0EC
:101670000E94E7265AC0B12CCCCF0031FFE51F07EE
:1016800021F481E00E9423219CC901312FE512073A
:1016900009F09AC982E0F6CF6FE572E08C2D0E94C6
:1016A000402C892B09F099C986E18C9DF0018D9D14
:1016B000F00D1124EC50FC4F86818130E1F48091D3
:1016C0005F0290916002892B09F487C980916102C1
:1016D00090916202892B09F480C9809163029091F4
:1016E0006402892B09F079C98091650290916602A4
:1016F000892B59F072C9823009F06FC98091630259
:1017000090916402892B09F468C926E12C9DC001DF
:101710002D9D900D11248C509C4FDC0150961C92F5
:101720000E948C295AC969E20ACC0F900F900F9041
:101730000F90DF91CF911F910F91FF90EF90DF906D
:10174000CF90BF90AF909F908F900895CF93DF93ED
:10175000CDB7DEB7E4970FB6F894DEBF0FBECDBFAE
:1017600084B7877F84BF0FB6F894A89580916000F6
:10177000886180936000109260000FBE90E080E866
:101780000FB6F89480936100909361000FBE85B707
:10179000806885BF85B7806885BF83EC92E29093AF
:1017A0009B0180939A010E947F1A0E94261A0E9430
:1017B0007E160E949D168091E20084608093E20074
:1017C00078948091E2018823A1F01091E9001F70C4
:1017D0009091EC00892F817090FD80E8182B109279
:1017E000E9008091E80083FD0E9458131F70109358
:1017F000E90082E084BD93E095BD9AEF97BD8093A8
:101800006E000E94021B811102C00E94F31A08E2BE
:1018100011E05EE2E52E51E0F52ED8018D918D01AB
:101820008F3F11F00E940823E016F106B1F70EE297
:1018300011E045E3E42E41E0F42EF80181918F019F
:101840008F3F11F00E940823E016F106B1F786E001
:10185000E7EBF1E0DF01282F1D922A95E9F7E4EA92
:10186000F1E0DF011D928A95E9F70E94FC258111C4
:1018700002C00E94072682E090E00E941A33809303
:10188000AE010E94EB259093B0048093AF040E94B8
:101890001F23BFEFE6E7F1E0B150E040F040E1F791
:1018A00000C000000E941F238091B70180FF08C084
:1018B0006FEF7FEF80E090E00E944C330E9435286C
:1018C00083E090E00E941A330E943A218CE090E07D
:1018D0000E941A3390E0A0E0B0E08093A0019093C2
:1018E000A101A093A201B093A3018091AA0181114B
:1018F00033C00E94FC25811104C00E9407260E946B
:10190000332D88E090E00E9422336093520270935E
:10191000530280935402909355026E7F71F40E949B
:10192000332D88E090E00E9422336093520270933E
:10193000530280935402909355020E94972C109268
:10194000F4018091520280FF04C060E086950E94FD
:10195000E52C81E08093AA018091AF048068809398
:10196000AF048091AF049091B0040E94DE2580E026
:1019700091E09093A7048093A60428E1C22ED12C75
:1019800030E4532EBB24B394AA24A3948091E201A3
:10199000853009F06FC000E112E18091E2018530ED
:1019A00009F053C08091E201843009F43DC01092E7
:1019B000F4018091AC01811116C0A092AC0180911C
:1019C0005202982F91709093AB018E7F80935202B8
:1019D0002FEF30E742E0215030404040E1F700C0B7
:1019E00000000E94491B1092AA040FB6F894A89513
:1019F000C09260000FBE5092600083B7817F846008
:101A000083BF83B7816083BF7894889583B78E7FC7
:101A100083BF0FB6F894A895809160008861809389
:101A20006000109260000FBE8091E101882309F4EC
:101A3000B4CF0E941F23E7EBF1E08191811140C5F3
:101A400081E0ED3BF807C9F7A8CF0E943E210E9434
:101A500039291092AC018091AB01882349F0809123
:101A6000520281608093520260E086950E94E52CCC
:101A70000E94331B0E941F23882359F08FB7F894CC
:101A80004091AB045091AC046091AD047091AE04F0
:101A90008FBFE7EBF1E0AFEAB1E000E010E0302FFC
:101AA00021919D91922721F180E0FF24F394492F09
:101AB0004F21D1F08BA73CA72F2181E009F480E0D2
:101AC0008DA70E947B288160782F9FA78EA74BA5AA
:101AD0005CA56DA58FA50E947430F801E155FE4FFD
:101AE0008081F826F08219C08F5FFF0C8730F9F6ED
:101AF0000F5F1F4F0630110591F68FEF88AB89AB52
:101B00001AAA0E947B288160782F9CAB8BAB48A9D6
:101B100059A96AA98CA90E9474308091F401882384
:101B200009F493C08091F301E0915202E695E81B1D
:101B3000E093EF01823059F4F0E0E25EFE4FE49171
:101B40000E2F10E09EEAE92E99E1F92E59C0863059
:101B500059F4F0E0E55EFE4FE4910E2F10E08EE9BF
:101B6000E82E89E1F82E4CC0893061F4E695F0E06A
:101B7000E85EFE4FE4910E2F10E0B1E4EB2EBDE1E4
:101B8000FB2E3EC08F3061F4E695F0E0EB5EFE4F39
:101B9000E4910E2F10E0A1EDEA2EACE1FA2E30C058
:101BA000853159F4F0E0EE5EFE4FE4910E2F10E027
:101BB000F0E8EF2EFCE1FF2E23C08831A1F0833244
:101BC00049F4E0E1F1E005911491EFE7EE2EEDE14B
:101BD000FE2E16C0843271F000ED17E074E3E72E9C
:101BE00078E1F72E0DC008E210E064EFE62E6BE11D
:101BF000F62E06C004EF11E057EBE52E5BE1F52E63
:101C00008091F001882361F01092F0010E947B28FE
:101C10009093EE018093ED011092F2011092F10188
:101C20000E947B28E091ED01F091EE018E1B9F0B4D
:101C30008F3F9F4750F40E0F1F1F1093EE0100932C
:101C4000ED018DEE91E0F701099586E0EBEBF4E014
:101C50008E010F5F1F4FD80101900D928A95E1F719
:101C60008090BD049090BE04E090BF04F090C0044A
:101C70001092BD041092BE041092BF041092C004D2
:101C8000811003C0992009F44FC08091B90490914C
:101C9000BA040E946C289C019091B504992309F420
:101CA00037C42333310508F43FC09F3F19F09F5FCD
:101CB0009093B504882061F00E94C72E181414F484
:101CC00091E001C09FEF899F802D11248093BD0476
:101CD000992061F00E94C72E191414F491E001C0FC
:101CE0009FEF899F802D11248093BE043091BD0405
:101CF0003323D1F02091BE042223B1F045EB34030D
:101D0000C0011124992319F09093BD0402C0B09230
:101D1000BD0435EB2303C0011124992319F09093DE
:101D2000BE0402C0B092BE04E11003C0FF2009F45B
:101D30004FC08091B7049091B8040E946C289C0118
:101D40009091B404992309F4E8C32536310508F4C9
:101D50003FC09F3F19F09F5F9093B404EE2061F065
:101D60000E94A52E1E1414F491E001C09FEF899FDC
:101D7000802D11248093BF04FF2061F00E94A52EC6
:101D80001F1414F491E001C09FEF899F802D11244E
:101D90008093C0043091BF043323D1F02091C0045C
:101DA0002223B1F045EB3403C0011124992319F02B
:101DB0009093BF0402C0B092BF0435EB2303C0016F
:101DC0001124992319F09093C00402C0B092C0046A
:101DD0008091BD0481110BC08091BE04811107C0A8
:101DE0008091BF04811103C08091C00481110E94C1
:101DF000F62D8B829C82ED82FE8286E0F801ABEBB1
:101E0000B4E001900D928A95E1F70E9439299091F2
:101E1000AD01891721F00E9439298093AD0180918D
:101E2000E201843009F0B2CD83E08093E900809133
:101E3000E80082FFABCD8091E80085FF21C00E94C1
:101E4000D51781111BC040E2E42EF12C480109C0D6
:101E50008091F100D4018D934D01B1E0EB1AF108AE
:101E600069F08091E80085FDF3CF8091E8008B77E1
:101E70008093E8000E94D517882399F391E001C070
:101E800090E08091E8008B778093E800992309F433
:101E90007DCDE0904303F09044038981E114F10487
:101EA00061F08E3F09F0E4C28A81833008F4C3C137
:101EB0008550833008F0DCC2BEC1893009F4F2C01D
:101EC000D0F4843009F476C050F4823099F108F0EF
:101ED00062C0813009F0CAC21A8289E02DC2863000
:101EE00009F47AC008F46DC0873009F478C08830EE
:101EF00009F4B7C0BBC2803109F43AC178F48D301F
:101F000009F4DBC020F48C3009F435C1AFC28E3047
:101F100009F4D6C08F3009F4FDC0A8C2823109F49B
:101F20002CC108F428C1833109F451C18E3F09F452
:101F300082C19CC28A81823009F4E1C2833089F077
:101F4000813009F093C22FB7F8948091AB0490913F
:101F5000AC04A091AD04B091AE042FBFBB83AC83A1
:101F60002EC080911D0190911E01892B09F480C221
:101F70008091B7018B838091B8018C838091B901E6
:101F80008D838091BA018E838091BB018F83809174
:101F9000BC0188876DC28A81823009F067C26B817B
:101FA0007C818D819E810E94C83386E290E00E94F0
:101FB0002E335EC24C816B818A810E94F8199D8309
:101FC000A5C22D813E813227232732274C816B8188
:101FD0008A810E94C2194CC20E94AB2B49C28A81DD
:101FE0008138B1F050F4803809F042C220E04B81D2
:101FF000609154028091530231C0823859F1833884
:1020000009F036C220E0409155026C818B8126C0D8
:1020100060E08B810E94E52C9B818091520291119E
:1020200011C08E7F809352021092F401EFEFF0E71F
:1020300022E0E150F0402040E1F700C000000E94A3
:10204000491B16C281608093520260E086950E940F
:10205000E52C0EC28B81809356020AC20E94BF1DDE
:1020600007C28A81813899F030F4803809F000C2C3
:102070008091550261C1823891F0833809F0F8C12E
:10208000809153028B83809154028C83F1C18091A3
:10209000520280FF02C086954FC180E04DC1809101
:1020A00056024AC1609152027091530280915402CB
:1020B000909155020E94B12CDBC11A8289E93CC182
:1020C000EA80FB80FE24EF24FE246C80712C3DE12D
:1020D0006316710408F0CCC14801C70189599C4FAF
:1020E0009401201B310B2615370508F0C1C149E9C1
:1020F000E416F10430F40E941A33D40114968C9340
:1021000002C0F4011482FFEFEF1AFF0A2FEF821AC8
:10211000920AE3CF80911D0190911E01892B09F451
:10212000A7C1EA80FB80FE24EF24FE248C80912C42
:102130003DE18316910408F09BC13801C70189591C
:102140009C4F9301201B310B2815390508F090C1D5
:1021500049E9E416F10428F4D30114966C910E9425
:102160002E33BFEFEB1AFB0AEFEF6E1A7E0AE6CFB3
:102170000E947F2B7DC188E017C1EA80FB80FE248E
:10218000EF24FE246C80712CFDE16F16710408F0C1
:102190006FC14801C70187969401201B310B26159A
:1021A000370508F065C120EAE21622E0F20630F4B5
:1021B0000E941A33D40114968C9302C0F401148245
:1021C000FFEFEF1AFF0A2FEF821A920AE3CFEA809D
:1021D000FB80FE24EF24FE248C80912C3DE18316AD
:1021E000910408F045C140EAE41642E0F40608F024
:1021F0003FC180EA92E08E199F098815990508F47D
:1022000037C13801C70187969301201B310B281570
:10221000390508F02DC1A0EAEA16A2E0FA0620F47A
:10222000F30164810E942E33FFEFEF1AFF0A2FEFB4
:10223000621A720AE7CFEA818E2F90E08E30910504
:1022400008F016C1FC01EE59FF4F0C94C23388E030
:10225000E0E2F1E0DE01919601900D928A95E1F7BE
:1022600080E2D8011D928A95E9F784E0898388E0AD
:10227000FE01B196DE011596D5C088E08983BA8249
:102280001B821C82F5C08C8190E0982F88272B81BF
:10229000820F911D092E000CAA0BBB0B35E0880F95
:1022A000991FAA1FBB1F3A95D1F7AC01BD01405E33
:1022B0005F4F6F4F7F4F481759076A077B0708F436
:1022C000D7C08830E1E09E07A105B10508F0D0C075
:1022D0004930F1E05F076105710520F048E051E009
:1022E00060E070E0481B590BBC016E5D7E4FC80179
:1022F0000E940133BDC040E250E06FEF70E0C801C2
:102300000E94263480911D018983EA82B1C081E058
:1023100090E0909344038093430382E390E0909392
:10232000B6018093B5010E947B28A2C080911D0157
:102330008983EA828091B5018B839AC040E250E0A4
:102340006FEF70E0C8010E94263492C08B8182300A
:1023500069F1E8F4882309F1813009F089C08C81A2
:102360009AE0F92E4E01B1E28B0E911CF4012F2D53
:1023700011922A95E9F7B4010E94402C8983F40157
:10238000DE01129601900D92FA94E1F771C083304C
:1023900061F1843009F44BC06BC080E2D8011D921A
:1023A0008A95E9F788E089838A8362C06C818AE034
:1023B000FE013596DE01919601900D928A95E1F726
:1023C000683070F43AE0639FB001112469537D4F87
:1023D0004AE050E0CE0181960E94523380E001C075
:1023E0008FEF89830E947F1A43C06C81CE01819652
:1023F0002AE0DC011D922A95E9F7683060F4BAE022
:102400006B9FB0011124695E7C4F4AE050E00E944E
:102410000A3380E001C08FEF89838AE0FE01B19624
:10242000DE01129601900D928A95E1F721C06C8130
:102430008AE0FE013596DE01919601900D928A9513
:10244000E1F7683070F4EAE06E9FB0011124695E34
:102450007C4F4AE050E0CE0181960E94523380E0EA
:1024600001C08FEF89830E94261A02C08FEF8983F3
:102470008091E201843009F089CA8091E9008F706F
:102480002091EC00922F917020FD90E8F92EF82A0F
:1024900082E08093E9008091E80080FF0CC040E07A
:1024A00050E060E270E0C8010E9408188091E800E6
:1024B0008E778093E8008F2D8F708093E90066CA35
:1024C00009BD19BD09B400FEFDCF8091D8008F7DF4
:1024D0008093D8008091E00082608093E00080913A
:1024E000E00081FDFCCF0E943E219FEFA3ECB9E00C
:1024F0009150A040B040E1F700C000004ECA86E213
:1025000090E00E941A331B821C821D828E83B0CF02
:102510002D32314008F0CBCB07CC2D32314008F0C2
:102520001ACC56CC8091E40187FF11C08091E8005D
:1025300082FD05C08091E2018111F8CF11C0809128
:10254000E8008B770BC08091E201882349F08091ED
:10255000E80080FFF8CF8091E8008E778093E80054
:102560000895982F973068F59093E900981739F0FF
:102570007091EC002091ED005091F00003C0242FE9
:10258000762F50E021FD02C09F5FECCF3091EB0031
:102590003E7F3093EB003091ED003D7F3093ED00B6
:1025A0003091EB0031603093EB007093EC0020939E
:1025B000ED005093F0002091EE0027FDE5CF80E084
:1025C00008958F708093E90081E008952091EA01D9
:1025D0003091EB012617370748F06115710539F482
:1025E0002091E8002E772093E80001C0B901FC019A
:1025F00020E06115710579F18091E2018823F1F104
:102600008530F1F18091E80083FD3CC08091E800C5
:1026100082FD2EC08091E80080FFEBCF2091F30077
:102620008091F20090E0922B6115710551F0883095
:10263000910538F421912093F100615071090196C0
:10264000F3CF21E0089709F020E08091E8008E7731
:102650008093E800CECF2111CFCF0AC08091E20154
:10266000882361F0853061F08091E80083FD0AC025
:102670008091E80082FFF2CF80E0089582E0089523
:1026800083E0089581E008950895BC0184E00C94EE
:102690000B28BC0183E00C940B288091EC01982F4F
:1026A0009670963011F4886001C0877F0C941F21CA
:1026B0001F93CF93DF93CDB7DEB7AA970FB6F894E9
:1026C000DEBF0FBECDBFE4EEF1E08CEE91E02091D5
:1026D000F10021938E179F07D1F78091E501833098
:1026E00009F463C030F4813071F0823009F49DC088
:1026F000B4C08A3009F489C08B3009F46EC08930C7
:1027000009F0ABC020C08091E401813A09F0A5C076
:102710008091E800877F8093E8008091E8019091A4
:10272000E901892B21F460E280EC91E003C060E0D4
:1027300080E090E070E00E94E6128091E8008B77E4
:102740008093E8008AC08091E401813209F085C05D
:102750008091E8019091E901009719F0029709F042
:102760007CC08091E800877F8093E8008091E8003A
:1027700082FD05C08091E2018111F8CF6EC02091E9
:10278000F3008091F20090E0922B029731F4809157
:10279000F100813011F0863021F48091F1008093B6
:1027A000BF018091E8008B7754C08091E401813AA9
:1027B00009F053C08091E8019091E901892B09F05B
:1027C0004CC08091E800877F8093E8008091E8000A
:1027D00080FFFCCF80910C0137C08091E4018132F1
:1027E000E1F58091E8019091E901892BB1F58091A3
:1027F000E800877F8093E8000E9492128091E601B2
:1028000080930C010E943E2128C08091E401813216
:1028100021F58091E800877F8093E8000E94921262
:102820008091E7018093BE0118C08091E401813A54
:10283000A1F48091E800877F8093E8008091E80010
:1028400080FFFCCF8091BE018093F1008091E80071
:102850008E778093E8000E9492128091E80083FFB7
:10286000EBC18091E4019091E501492F50E04A309D
:10287000510508F0E1C1FA01E059FF4F0C94C23351
:10288000803821F0823809F0D7C108C08091E0017A
:102890009091E101992389F082600FC08091E80155
:1028A0008F70873008F0C8C18093E9008091EB00F9
:1028B00085FB882780F91092E9009091E800977FC6
:1028C0009093E8008093F1001092F1007CC1282FD2
:1028D0002D7F09F0B1C1882319F0823061F0ACC1BD
:1028E0008091E601813009F0A7C1933009F080E0C2
:1028F0008093E1012EC08091E60181112AC0809170
:10290000E8018F702FEF280F263008F095C18093D3
:10291000E9002091EB0020FF1CC0933021F480914E
:10292000EB00806214C09091EB0090619093EB00FB
:1029300021E030E0A90102C0440F551F8A95E2F75B
:102940004093EA001092EA008091EB008860809347
:10295000EB001092E9008091E800877F8093E80007
:102960000E94921269C1811167C11091E6011F771F
:102970008091E3008078812B8093E3008091E800D0
:10298000877F8093E8000E9492128091E80080FF88
:10299000FCCF8091E30080688093E300111102C0B6
:1029A00082E001C083E08093E20146C1805882301A
:1029B00008F042C12091E6013091E7012C3D53E03F
:1029C000350779F583E08A838AE289834FB7F894E3
:1029D000DE01139620E03EE051E2E32FF0E0509359
:1029E0005700E49120FF03C0E295EF703F5FEF7066
:1029F0008E2F90E0EA3010F0C79601C0C0968D93FC
:102A00009D932F5F243149F74FBF8091E800877F66
:102A10008093E8006AE270E0CE0101960E94E6121F
:102A2000C0C08091E8019091E901432F55274330C0
:102A30005105B1F068F44130510509F40CC1423040
:102A4000510509F0F9C08BE590E0E8E4F3E057C0E8
:102A50004132510589F14232510509F43CC0ECC0C4
:102A6000C901992781309105B9F070F08230910544
:102A7000D9F0039709F0E0C0E5EBF3E0E4918E2F85
:102A800090E0E5EBF3E038C0EFEFF3E0E4918E2F58
:102A900090E0EFEFF3E030C0EFEEF3E0E4918E2F43
:102AA00090E0EFEEF3E028C0E3EDF3E0E4918E2F49
:102AB00090E0E3EDF3E020C08330910508F0BCC066
:102AC000880F991FFC01E25CFE4F0190F081E02D20
:102AD00089E090E014C08330910508F0ADC0FC019E
:102AE000EE0FFF1FE85CFE4F0190F081E02DDC014E
:102AF000AB5CBE4F8C9190E0009709F49DC0209193
:102B0000E800277F2093E8002091EA013091EB0153
:102B10002817390708F4C90140E0009789F120918E
:102B2000E201222309F43DC02530D9F12091E800CB
:102B300023FD37C02091E80022FD2FC02091E8003E
:102B400020FFEBCF4091F3002091F20030E0342BD6
:102B5000009759F02830310540F444914093F1003A
:102B6000319601972F5F3F4FF3CF41E02830310579
:102B700009F040E02091E8002E772093E800CDCFC7
:102B80004111CDCF0AC08091E201882351F08530F8
:102B900041F08091E80083FD04C08091E80082FF4D
:102BA000F2CF8091E8008B778093E80045C08038B1
:102BB00009F042C08091E800877F8093E80080910F
:102BC000E3018093F1008091E8008E77C7CE8111F8
:102BD00033C08091E6019091E7019927029764F54F
:102BE0008091E800877F8093E8001091E6011093C0
:102BF000E3010E949212111106C08091E30087FD4B
:102C000002C081E001C084E08093E20142E061EC17
:102C100081E00E94B11242E261EC84E00E94B112B4
:102C200042E261EC82E00E94B11242E260EC83E099
:102C30000E94B1128091E2018091E80083FF10C0F0
:102C40008091E800877F8093E8008091EB008062AC
:102C50008093EB0005C082E190E0E3EAF3E04FCF20
:102C6000AA960FB6F894DEBF0FBECDBFDF91CF910D
:102C70001F9108951F920F920FB60F9211242F9358
:102C80003F934F935F936F937F938F939F93AF93F4
:102C9000BF93CF93DF93EF93FF93C091E900CF7081
:102CA0008091EC00D82FD17080FDD0E81092E9001F
:102CB0008091F000877F8093F00078940E945813F1
:102CC0001092E9008091F00088608093F000CD2B95
:102CD000CF70C093E900FF91EF91DF91CF91BF9149
:102CE000AF919F918F917F916F915F914F913F91A4
:102CF0002F910F900FBE0F901F901895E8EDF0E008
:102D000080818E7F80831092E2001092DA00109210
:102D1000E100A0EEB0E08C9181608C9380818F7790
:102D2000808319BCA7EDB0E08C918E7F8C9380815D
:102D30008F7E80831092BD010895CF92DF92EF9233
:102D4000FF920F931F93CF93DF93C8EDD0E088815C
:102D50008F7E8883E7EDF0E080818160808384E06E
:102D600082BF81E08093BD0188818E7F888302EEDF
:102D700010E0F80110821092DA0081EEC82ED12CFA
:102D8000F601108288818F778883888180688883A4
:102D900088818F7D888319BC1092E2011092E30133
:102DA0001092E1011092E00190EEE92EF12CF70172
:102DB00080818B7F808388818160888342E060E0AE
:102DC00080E00E94B112F60180818E7F8083F8013D
:102DD000808181608083808188608083F701808129
:102DE0008E7F8083888180618883DF91CF911F915E
:102DF0000F91FF90EF90DF90CF9008951F920F9268
:102E00000FB60F9211242F933F934F935F936F93BD
:102E10007F938F939F93AF93BF93EF93FF93809193
:102E2000E10082FF09C08091E20082FF05C080912D
:102E3000E1008B7F8093E1008091DA0080FF2AC05F
:102E40008091D80080FF26C08091DA008E7F809329
:102E5000DA008091D90080FF18C080E189BD82E14D
:102E600089BD09B400FEFDCF81E08093E20180912D
:102E7000BD0181110FC00E947E160E949D16809197
:102E8000E20084608093E20005C019BC1092E20168
:102E90001092BD018091E10080FF17C08091E20097
:102EA00080FF13C08091E2008E7F8093E2008091CA
:102EB000E20080618093E2008091D800806280937C
:102EC000D80019BC85E08093E2018091E10084FF85
:102ED00030C08091E20084FF2CC080E189BD82E196
:102EE00089BD09B400FEFDCF8091D8008F7D80930D
:102EF000D8008091E1008F7E8093E1008091E20014
:102F00008F7E8093E2008091E20081608093E200F6
:102F10008091E301882311F084E007C08091E300F1
:102F200087FD02C081E001C083E08093E2018091CF
:102F3000E2018091E10083FF27C08091E20083FFDE
:102F400023C08091E100877F8093E10082E080933D
:102F5000E2011092E3018091E1008E7F8093E10015
:102F60008091E2008E7F8093E2008091E200806198
:102F70008093E20042E060E080E00E94B112809124
:102F8000F00088608093F000FF91EF91BF91AF91C6
:102F90009F918F917F916F915F914F913F912F9171
:102FA0000F900FBE0F901F9018952091E400309164
:102FB000E50095E64091EC00842F817040FF23C02E
:102FC0008091E80080FD1DC08091E201882399F086
:102FD000853099F08091EB0085FD11C04091E400AF
:102FE0005091E5002417350729F3915011F09A010B
:102FF000E1CF84E0089582E0089583E0089581E0C0
:10300000089580E008954091E80042FFDDCF0895E3
:10301000EF92FF920F931F93CF93DF937C018B016D
:103020000E94D517811119C0E70101151105A1F002
:103030008091E80085FD0AC08091E8008E7780933A
:10304000E8000E94D517882381F307C089918093F7
:10305000F10001501109E9CF80E0DF91CF911F917C
:103060000F91FF90EF9008950895CF93DF9300D0D4
:1030700000D01F92CDB7DEB79093420380934103F7
:10308000811520E2920748F40F900F900F900F9057
:103090000F90DF91CF910C94CE328EEF89838A838B
:1030A0001B820E947B288160782F9D838C834981BD
:1030B0005A816B818D810E9474300F900F900F9018
:1030C0000F900F90DF91CF9108950F931F93CF939F
:1030D000DF938C01EB016FE572E08C2F0E94402C96
:1030E000892B09F040C0DD27C95ADD4F8881F801DE
:1030F00010821882833079F048F4813041F18230B7
:1031000091F5809161029091620209C0843051F082
:103110008530E9F028C080916302909164020097A5
:10312000B1F01BC080916502909166020097A9F4EE
:1031300020915F0230916002809161029091620261
:103140002115310541F0009741F4C90106C0809175
:103150005F0290916002009731F0DF91CF911F9153
:103160000F910C943518DF91CF911F910F91089515
:10317000CF93DF9300D000D01F92CDB7DEB79093EE
:10318000420380934103811520E2920748F40F9097
:103190000F900F900F900F90DF91CF910C94E83229
:1031A0008EEF89838A8381E08B830E947B288160F4
:1031B000782F9D838C8349815A816B818D810E94F8
:1031C00074300F900F900F900F900F90DF91CF9170
:1031D0000895CF93DF93EC010E94B818CE01DF91E0
:1031E000CF910C9435180F931F93CF93DF938C01DD
:1031F000862F6FE572E00E94402C892BD1F4C0919C
:103200005F02D09160022097A1F0F80180818330A5
:1032100039F4CE010E94E918CE010E94E91802C0DB
:10322000843038F0CE01DF91CF911F910F910C9433
:10323000E918DF91CF911F910F9108950F931F937C
:10324000CF93DF938C01EB016FE572E08C2F0E942E
:10325000402C892B09F06DC0DD27F8018081813079
:1032600041F49185911115C09285992391F082E0E6
:1032700010C0823049F4F8018185811107C0828530
:10328000811106C083E005C086E003C085E001C06F
:1032900084E0C95ADD4F88838330B1F028F481304F
:1032A00071F0823031F045C08430A9F0853079F179
:1032B00040C080916102909162020097A1F58091D7
:1032C0005F029091600220C080916302909164023D
:1032D0000097E9F028C080916502909166020097FE
:1032E00011F580915F0290916002009749F00E9471
:1032F000E9188091610290916202009781F013C0F9
:103300008091610290916202009799F00CC08091C7
:103310005F0290916002009761F00E94E91880912D
:103320005F0290916002DF91CF911F910F910C94F9
:10333000B818DF91CF911F910F910895CF93DF932C
:10334000EC01E2E5F2E0438162818C810E94D92D9B
:103350008C818F5F8C83DF91CF910895CF93DF9322
:10336000EC01EC81F0E0EA5DFB4F4491E2E5F2E034
:10337000628181810E94D92D8C818F5F8C83DF9146
:10338000CF9108950F931F93CF93DF93883058F513
:10339000663048F5473038F521159CE5390731F49A
:1033A000E0911D01F0911E01EF2BE9F08901C42F7E
:1033B000D0E0CC0FDD1F9EE0699FC00DD11D112410
:1033C00094E5899FC00DD11D1124612FCE018796F0
:1033D0000E942E33602FCE018896DF91CF911F91EE
:1033E0000F910C942E33DF91CF911F910F9108957F
:1033F0000F931F93CF93DF93883008F56630F8F46E
:103400004730E8F4C42FD0E0CC0FDD1F2EE0629FE0
:10341000C00DD11D112434E5839FC00DD11D112491
:10342000CE0187960E941A3390E0182F0027CE0114
:1034300088960E941A339801282BC90102C080E0A7
:1034400090E0DF91CF911F910F910895CF92DF927D
:10345000EF92FF920F931F93CF93DF93CDB7DEB719
:103460002A970FB6F894DEBF0FBECDBF80E5E9E620
:10347000F2E0DF011D928A95E9F788E3E9EAF3E0DB
:10348000DF011D928A95E9F789E6C82E82E0D82EE1
:103490007F0107E113E0F701D182C0824AE050E0EA
:1034A000B801CE0101960E940A3388E0FE013196F0
:1034B000D60101900D928A95E1F789859A85D70109
:1034C00013969C938E931297BAE0CB0ED11CE7E033
:1034D000EE0EF11C065F1F4F0736F3E01F07D9F60B
:1034E0002A960FB6F894DEBF0FBECDBFDF91CF9105
:1034F0001F910F91FF90EF90DF90CF9008958F92E2
:103500009F92AF92BF92CF92DF92EF92FF920F9372
:103510001F93CF93DF93CDB7DEB72A970FB6F894FA
:10352000DEBF0FBECDBF04EF13E0E12CF12C83EF23
:10353000C82E88E1D82E9EE1A92E99E1B92E25E664
:10354000822E28E1922EF801D182C082B382A2821B
:1035500095828482F58AE48ABE016F5F7F4F8E2D4B
:103560000E94402C892B29F489859A85F801938B38
:10357000828BFFEFEF1AFF0A0A5E1F4F88E0E81602
:10358000F10409F72A960FB6F894DEBF0FBECDBF3F
:10359000DF91CF911F910F91FF90EF90DF90CF902F
:1035A000BF90AF909F908F900895CF93C82F8111B7
:1035B00002C06FEF01C067E983E290E00E942E3302
:1035C000C11102C06FEF01C06AEB84E290E00E947B
:1035D0002E33C11102C06FEF01C060E385E290E0BD
:1035E000CF910C942E3380E00E94D51A60E086E2E1
:1035F00090E00E942E330E94AB2B0E947F2B81E033
:103600000C94D51A83E290E00E941A33873981F432
:1036100084E290E00E941A338A3B51F485E290E004
:103620000E941A3391E0803309F090E0892F01C0A5
:1036300080E0817008959091520290FF04C09695A9
:10364000981740F003C0811105C090E0961710F460
:103650000C94292D61E00C94E52C882311F0FA01DB
:1036600001C0FB01099460915202669570E04BE045
:1036700050E08DE091E00E940C34892B19F481E038
:103680008093F4010E947B289093EE018093ED01DA
:1036900008950F931F93CF93DF93CDB7DEB7CA552D
:1036A000D1090FB6F894DEBF0FBECDBF8091520294
:1036B00080FF0AC008E014E09E012F5F3F4FAE017B
:1036C000455A5F4FB9010BC0E8EFF1E0118210825B
:1036D0001282339682E0E235F807C1F7EBCFF801AA
:1036E000849190E0DC01AA0FBB1F8A0F9B1FDC01B5
:1036F000A850BE4F8D919D91AC91FB018193919308
:10370000A193BF010F5F1F4FE417F50741F7269AFA
:1037100085B18F7B95B190646FB7F8942417350706
:1037200099F0F90171919F01E8E095B9000000C09E
:1037300077FF85B9770F000000C000C000C085B9D1
:1037400000C0EA9591F7EACF6FBF8FE594E001974B
:10375000F1F700C00000C65ADF4F0FB6F894DEBF85
:103760000FBECDBFDF91CF911F910F910895EF92C2
:10377000FF920F931F93CF93DF938C01C8EFD1E09B
:10378000E12CF12CF8018481FFE0EF16F1041CF428
:10379000882351F002C0811107C040915502413584
:1037A00008F040E59E0102C09E0140E06091540295
:1037B000809153020E94432D8FEFE81AF80A239656
:1037C0009EE1E916F104F1F60E94491BF80184819B
:1037D00090E00196817099278483DF91CF911F91AA
:1037E0000F91FF90EF9008958F929F92AF92BF92AA
:1037F000CF92DF92EF92FF920F931F93CF93DF93BD
:10380000EC014C81042F10E09801D8010E94D733BD
:103810009B01AC010E94ED336B017C01E0E2F0E022
:10382000E01BF10BA5E5B0E09B01AC010E94ED337C
:103830004B015C019F01DF010E94CF339B01AC0172
:103840000E94F8339B01AC012C0D3D1D4E1D5F1DE8
:10385000C501B4010E94A033822FF22E99E2921783
:1038600028F093E0299F900111240DC025E530E058
:10387000281B3109C901880F991F280F391F37FFED
:1038800002C02F5F3F4F35952795122F109598EF67
:10389000C92E91E0D92E00E085E5E82EEF1801FD54
:1038A00002C08E2D01C08F2D412F113508F040E54B
:1038B0009601609154020E94432D0F5F83E0C80E71
:1038C000D11C0E3161F70E94491B8C81811102C00D
:1038D00091E003C0803219F49FEF90931A01909108
:1038E0001A01890F8C83DF91CF911F910F91FF9067
:1038F000EF90DF90CF90BF90AF909F908F90089502
:103900000F931F93CF93DF93C8EFD1E0FE01118295
:1039100010821282339682E0E235F807C1F700E0A8
:1039200010E08091F601082E000C990B081719077A
:10393000ACF080911901082E000C990B80179107AB
:103940006CF040915502413508F040E59E016091D0
:103950005402809153020E94432D03C019821882A1
:103960001A820F5F1F4F23960E311105D1F60E9468
:10397000491B809118019091F601980F9093F601E0
:1039800020911901280F20931901121614F49D316A
:103990001CF0819580931801DF91CF911F910F91B9
:1039A0000895BF92CF92DF92EF92FF920F931F93F1
:1039B000CF93DF93FC01828180FF03C0DD24DA9482
:1039C00002C0DD24D39408EF11E0C0E0D0E02EE186
:1039D000B22EF80111821082128294E0E92EF12CAD
:1039E000C12C8091F5018C0D8F312CF06B2D0E9434
:1039F0006A33892F02C087FD825E082E000C990B66
:103A0000C817D907A9F4809155028E9DA0018F9DFA
:103A1000500D11245595479555954795413508F01A
:103A200040E5980160915402809153020E94432D19
:103A3000CD0CF1E0EF1AF108A1F621960D5F1F4FB2
:103A4000CE31D10531F60E94491B8091F50191E0FC
:103A5000D91206C0811102C08DE107C0815005C096
:103A600090E00196BE010E948C338093F501DF91B6
:103A7000CF911F910F91FF90EF90DF90CF90BF906B
:103A80000895EF92FF921F93CF93DF93EC0188EF9D
:103A9000E82E81E0F82E10E040915502413508F003
:103AA00040E58C81970160915402810F0E94432D63
:103AB000185F83E0E80EF11C103F71F70E94491B6C
:103AC0009A818C8190FF02C08F5F01C081508C83EE
:103AD000DF91CF911F91FF90EF9008959091520246
:103AE00090FF0CC0E8EFF1E081836083428333965E
:103AF00092E0E235F907C1F70C94491B08950F9342
:103B00001F93CF93DF9300D01F92CDB7DEB78C0108
:103B10008091F70181110AC09E012F5F3F4F40E560
:103B20006FEF0E94432D8A818093F701F801848111
:103B3000813051F028F0823061F44091F7010AC0E1
:103B40008091F70140E007C06091F70140E080E01C
:103B500003C040E080E060E00E946E1DF8018481B7
:103B600090E0019663E070E00E948C3384830F90B4
:103B70000F900F90DF91CF911F910F9108955F9259
:103B80006F927F928F929F92AF92BF92CF92DF926D
:103B9000EF92FF920F931F93CF93DF9300D01F926A
:103BA000CDB7DEB7082F762E142F622E90915202D9
:103BB00090FF74C0E92FE695AE2FB0E0AC5BBE4F2E
:103BC0008C918093F3019E7F923081F4413508F00F
:103BD00040E59E012F5F3F4F672D802F0E94432DB0
:103BE0004B8169818A810E946E1D46C0823019F422
:103BF0001091550241C0863019F4009153023CC027
:103C00008930D9F38931C1F5E9518E2F8170582E51
:103C1000E695F0E0ED5FFB4FA590B49088EFC82EDD
:103C200081E0D82EE12CF12CBB249EE1892E912C31
:103C3000AE9CC001AF9C900DBE9C900D1124B401B0
:103C40000E947833802F511002C0860F01C0861B5E
:103C5000412F113508F040E59601672D0E94432D54
:103C60008FEFE81AF80A83E0C80ED11C8EE1E8163F
:103C7000F104F1F60E94491B009353027092540222
:103C800010935502662051F06091520270915302D8
:103C900080915402909155020E94B12C0F900F9088
:103CA0000F90DF91CF911F910F91FF90EF90DF90D8
:103CB000CF90BF90AF909F908F907F906F905F90CC
:103CC000089580E090E00E94232980E090E00E9427
:103CD0000D291092F103109239030E948A26EBEB12
:103CE000F4E086E0DF011D928A95E9F71092B504B1
:103CF0001092B4041092B6040C94F62DCF92DF9279
:103D0000FF920F931F93CF93DF936C010091EC010F
:103D100080913D03082BC7E0D0E010E0C8010C2ED5
:103D200002C0959587950A94E2F780FD04C021971B
:103D3000A8F7F12C09C0FC2EB6018C2F0E948F2B06
:103D40000E944424019799F38F2DDF91CF911F9109
:103D50000F91FF90DF90CF900895CF93DF93EC0108
:103D60000E947E1EBE010E948F2B0E944424DF9180
:103D7000CF910895FC0186819781009719F00E94E8
:103D8000442404C0808191810E94AD1E292F2F7090
:103D9000E92FE295EF704E2F50E0FA013297EE30A6
:103DA000F105B8F4E658FF4F0C94C233803F99F008
:103DB00018F4883E70F40FC0843F59F40CC0883E5C
:103DC00050F0813F31F407C0822F86958695869505
:103DD000089580E0089581E008959F92AF92BF9288
:103DE000CF92DF92EF92FF920F931F93CF93DF93C7
:103DF000CDB7DEB765970FB6F894DEBF0FBECDBF67
:103E00008C0185E0F801DE01519601900D928A95B2
:103E1000E1F7F801E2809091EB026091EC024091B1
:103E2000EE025091EF024115510531F06F3F31F430
:103E300081E09F3F19F403C081E001C080E0F82FCA
:103E4000F1709F2E80FD4EC1F80130812181C38029
:103E5000D4807BEEA72E72E0B72EF090ED02F60133
:103E6000E41BF50BFF2009F4EFC08091F002E83C61
:103E7000F10508F0AAC0482F407F09F05AC062132C
:103E80001BC0931319C06091F1027091F202F80106
:103E9000468157816417750779F4FE2CE1100CC038
:103EA0008F7080618093F002C5010E94DE038091D3
:103EB000F002F801858353C1CD2831F02F3F31F452
:103EC00081E03F3F19F403C081E001C080E080FD44
:103ED00003C081E08E2502C080E090E0F82FF170F1
:103EE000FF2E80FF1CC0809134034091F3028417A1
:103EF00009F413C190E0FC0153E0EE0FFF1F5A9547
:103F0000E1F7EC50FD4F5181251306C0508153134A
:103F100003C05281E51203C001968770E8CFFE2CE2
:103F2000EE2009F41CC18091F00281608093F002C0
:103F300058C062130FC093130DC04091F10250910D
:103F4000F202F801268137814217530719F4EE2057
:103F500009F4A7C0C8010E94BA1E882381F1EE208F
:103F600071F12091F002822F82958F7090E002977C
:103F7000A4F08091EB029091EC029A8789871B86CE
:103F8000DD86CC862E878091F1029091F202988B8B
:103F90008F87CE0109960E94DE0388E0F801ABEE20
:103FA000B2E001900D928A95E1F70E943F270AC086
:103FB0006217C9F0C8010E94BA1E811127C0C8014A
:103FC0000E94DE03FF24F394CAC0482F407F81F78C
:103FD0008BEE92E00E94DE0388E0F50111928A9553
:103FE000E9F7F12CBCC09313E5CF4091F102509159
:103FF000F202F8012681378142175307D9F6E11002
:10400000D9CF8583C8010E94DE0366C0EE20B9F2D5
:104010002091F002822F82958F7090E002970CF42D
:10402000BCCF8091EB029091EC029A8389831B8232
:10403000DD82CC822E838091F1029091F2029887EA
:104040008F83CE010196A7CFE83CF10508F044C06C
:10405000FE2CEE2009F4B3CF621330C093132EC0B0
:104060002091F1023091F202F801868197812817A0
:10407000390721F59091F00290FD17C0892F8295A4
:104080008F70282F30E02115310579F095832F307E
:10409000310541F08F5F982F9295907F85818F70C9
:1040A000892B8583C8010E94DE0388E0F801ABEE0E
:1040B000B2E001900D928A95E1F751C0C8010E94CB
:1040C000BA1E81116ACF8091F00281608093F00264
:1040D000C8010E94DE0343C088E0F50111928A9571
:1040E000E9F73DC0EE2009F46ACFC8010E94BA1E6C
:1040F000F82E882309F463CF88E0F801ABEEB2E034
:1041000001900D928A95E1F78091EB029091EC027B
:104110000E94AD1E0E943F2722C0398B2A8B8989BD
:104120009A890E94AD1E292F22952F70223028F4E3
:104130009F7039F0811105C00BC0243028F49F70A6
:1041400049F4805E883020F0C8010E94DE039F2C75
:10415000F92C05C0F8019581907F99F7F9CF8F2D43
:1041600065960FB6F894DEBF0FBECDBFDF91CF913D
:104170001F910F91FF90EF90DF90CF90BF90AF9085
:104180009F9008959E3F61F127E0929F800D11243A
:10419000682F669566956695982F977083E0689F5F
:1041A000B001112440E050E080E0FB01E40FF51F76
:1041B000E754FD4F208130E0092E02C03695279547
:1041C0000A94E2F721703327042E01C0220F0A94CB
:1041D000EAF7822B4F5F5F4F4330510531F7089567
:1041E00080E008959E3F51F127E0929F800D1124B9
:1041F000E82FE695E695E695877051E001C0550FEA
:104200008A95EAF783E0E89FF0011124E754FD4F17
:1042100020E030E070E04081CB01022E02C0969594
:1042200087950A94E2F781708195842785238427F6
:1042300081932F5F3F4F2330310569F708958093B5
:10424000EC010C94611E21E030E001C0220F8A9540
:10425000EAF720958091EC0182230C941F2121E044
:1042600030E001C0220F8A95EAF78091EC01822BA1
:104270000C941F2180933D030C94611E1092F00357
:1042800080910C01882331F08091AF0487FF02C038
:104290008EE101C086E0EDECF2E0DF011D928A952F
:1042A000E9F70C94611ECF93DF93CDB7DEB760972B
:1042B0000FB6F894DEBF0FBECDBF29873A874B8774
:1042C0005C876D877E878F87988BCE0109960E94C9
:1042D000ED1E811151C088E0FE013996DE01119674
:1042E00001900D928A95E1F779856A854C855D8507
:1042F0004115510531F06F3F31F481E07F3F19F4F2
:1043000003C081E001C080E080FD36C0A091F302CF
:10431000B0E0CD010196877099272091340330E0F9
:104320008217930781F179836A835D834C8393E0DD
:10433000AA0FBB1F9A95E1F7AC50BD4F98E0FE0164
:10434000319601900D929A95E1F78093F3020E94C5
:10435000352712C028E0829FC00111248C509D4F48
:104360000E94ED1E8823E1F08091340390E00196D5
:104370008770992780933403809134039091F302DE
:104380008913E8CF0DC00E943E211092F3021092D3
:104390003403EBEEF2E088E0DF011D928A95E9F745
:1043A00060960FB6F894DEBF0FBECDBFDF91CF9100
:1043B0000895882321F00E947C260C948A26089573
:1043C000882339F09091F103892B8093F1030C94A9
:1043D0008A260895882321F00E9483260C948A2639
:1043E0000895882339F09091F003892B8093F0038E
:1043F0000C948A260895882379F19CEF980F913ABE
:1044000030F4682F8BEC92E00E94B0280DC090E24F
:10441000980F983058F4877091E001C0990F8A95F1
:10442000EAF7892F0E9483260C948A269BE5980F31
:10443000933020F480E090E00C94232998E5980FC5
:10444000973120F480E090E00C940D29803F20F01B
:104450000E94202E0C94F62D0895CF93882309F402
:1044600072C0C82F8CEF8C0F813AC0F580910C017F
:104470008823E1F08091AF0487FF18C0EC2FE69508
:10448000E695E695F0E0E553FD4F8281282F30E078
:104490004C2F477081E090E002C0880F991F4A9529
:1044A000E2F782239323892B61F412C0EDECF2E052
:1044B00083ED92E02191C21721F08E179F07D1F76B
:1044C00007C06C2F8BEC92E00E94B0280E948A26D5
:1044D0006C2F8BEC92E00E94D82810C080E28C0FE9
:1044E000883078F4C77081E090E001C0880FCA95E9
:1044F000EAF79091F003892B8093F003CF910C940D
:104500008A26EBE5EC0FE33040F4F0E0E759FE4F8C
:10451000808190E0CF910C942329E8E5EC0FE731FE
:1045200050F4F0E0EE0FFF1FE459FE4F80819181BF
:10453000CF910C940D29C03F30F08C2F0E94E72EB4
:10454000CF910C94F62DCF9108951F93CF93DF93C5
:10455000182F893319F0C0E0D0E002C0C0E5D0E0E8
:10456000812F0E942D22209741F08FE99FE0019733
:10457000F1F700C000002197F6CF812FDF91CF9196
:104580001F910C94FB2180E008959091AF0492FF5D
:104590000DC0282F2871283019F4877F846006C049
:1045A000282F2471243011F48B7F886093FF0DC075
:1045B000282F2871283119F4877E846106C0282F9E
:1045C0002471243111F48B7E88612091B00420FF86
:1045D0000DC0382F3871383019F4877F816006C0DC
:1045E000382F3171313011F48E7F886021FF0DC07A
:1045F000282F2871283119F4877E816106C0282F61
:104600002171213111F48E7E886194FD877E089599
:10461000F894E82FE295EF70F0E031A1282F2F7089
:1046200081E090E001C0880F2A95EAF7982F9095D5
:10463000932391A392A1892B82A3789408959F92AA
:10464000AF92BF92CF92DF92EF92FF920F931F93A0
:10465000CF93DF9300D000D000D0CDB7DEB7AE014E
:104660004F5F5F4F7A0186E0FA0111928A95E9F770
:1046700008E211E06A01AA24A394B12CF801808118
:104680008F3F09F441C0F894E82FE295EF70F0E015
:1046900021A18F70A50102C0440F551F8A95E2F732
:1046A000CA01922F982B91A392A18095892382A36E
:1046B000789400C0EEE2F1E0912C31E021912F3F9F
:1046C00089F0A22FA295AF70B0E090968C9190E007
:1046D0002F7002C0959587952A95E2F780FD02C05C
:1046E000832F01C080E0982A330F51E0E533F507AE
:1046F00029F7F80180818F3F11F00E940823F0EA2A
:10470000FA95F1F7F60190820F5F1F4FFFEFCF1A76
:10471000DF0A21E00E32120709F0B0CF46E050E088
:10472000B70184EA91E00E94193401E0009709F48E
:1047300000E0892B89F086E0F701A4EAB1E001905E
:104740000D928A95E1F781E0809340030E947B28D7
:1047500090933F0380933E03809140038823A1F010
:1047600080913E0390913F030E946C28059760F072
:10477000E4EAF1E0A7EBB1E081918D9341E0EA3A00
:10478000F407D1F71092400380911B0190911C0116
:10479000019651F110E036E1932E1DC0989EF00174
:1047A000999EF00D1124EC50FC4FC288D388C1149F
:1047B000D10419F428ECC22ED12C989E5001999E58
:1047C000B00C1124C5018C509C4F7C01FC018681EA
:1047D00081110FC01F5F812F90E020911B0130914C
:1047E0001C0128173907D4F680911F01811111C0CF
:1047F00038C0858596850E946C28C816D90650F762
:10480000C7010E948C29C50186509C4F0E944529F2
:10481000E1CF8091EB039091EC03009711F10E949E
:104820006C28209145033091460328173907C8F4B6
:104830009091E9038091EA03981759F00E94D02AD9
:1048400010924603109245031092EC031092EB0372
:1048500008C00E94522A1092EC031092EB030E94AF
:10486000B12A802F26960FB6F894DEBF0FBECDBFBB
:10487000DF91CF911F910F91FF90EF90DF90CF903C
:10488000BF90AF909F900895CF93DF9382389105AA
:1048900069F1B0F48133910509F46FC048F48932AD
:1048A000910509F465C08A32910509F46BC08AC08C
:1048B0008533910509F457C089339105B9F082C059
:1048C000833E910571F138F4803E9105B1F0823E4E
:1048D000910511F177C0863E9105B9F1873E9105AA
:1048E000C9F1843E910509F06DC024C02091AF0448
:1048F00020FD53C021FD51C065C08091AF0480FDF3
:1049000046C08091B00480FF48C08091AF0484FD10
:1049100050C183EE90E04FC18091AF0482FF3AC056
:10492000F4CF8091AF0482FD35C08091B00480FD4A
:1049300034C0EBCF8091B00481FF35C08091AF04CB
:1049400084FD37C187EE90E036C18091AF0483FFCC
:1049500027C0F4CF8091AF0483FD22C08091B004C2
:1049600081FD21C0EBCF8091AF0485FD1FC021C028
:104970008091AF0485FD1DC019C08091AF0486FDF4
:104980001BC01DC08091AF0486FD19C015C089E30E
:1049900090E011C182EE90E00EC180EE90E00BC17C
:1049A00086EE90E008C184EE90E005C189E290E0D7
:1049B00002C185E390E0FFC08AE290E0FCC081E3A1
:1049C00090E0F9C0811531E5930708F069C08115C1
:1049D00040E59407F0F09C0174E0369527957A95B0
:1049E000E1F7922F9370482F437021E030E002C02E
:1049F000220F331F4A95E2F73C68392B982F9F709E
:104A00009695969540E2949FC0011124822B932B9A
:104A1000D2C0883E910568F5803E910508F0CBC074
:104A2000883A9105B8F4853A910548F0855AE82FFF
:104A3000F0E0E759FE4F808190E09064BCC0813087
:104A4000910509F4B3C008F4B4C08430910508F4AA
:104A5000B0C0B1C08F3B910508F0ABC0885AE82FB9
:104A6000F0E0EE0FFF1FE459FE4F808191819464C6
:104A7000A2C0811520E2920758F4811531E0930716
:104A800008F099C0803F910508F493C0906593C0E9
:104A9000811540E4940708F48CC09F70906A8BC025
:104AA000811525E5920708F042C0811534E593078A
:104AB00028F0982F8827846F906A7DC0811543E580
:104AC0009407B0F09C012370332741E050E002C00E
:104AD000440F551F2A95E2F7282F2695269580E248
:104AE000289F90011124CA01822B932B9A6863C0DE
:104AF000811522E5920728F4982F8827816F906A04
:104B00005AC09C012370332741E050E002C0440F9B
:104B1000551F2A95E2F7282F2695269580E2289F93
:104B200090011124CA01822B932B9C6844C0EC0194
:104B3000811539E59307A8F48115984528F09C2F35
:104B40008827806F906A37C0C11586E5D80788F539
:104B50008C2F0E94C5228F7190E0982F8827906239
:104B60002AC081152AE5920790F48C2F8F700E943D
:104B7000C52294E0D695C7959A95E1F7CF70D0E01D
:104B8000DC2FCC27D0699E01282BC90114C0905678
:104B90008115904270F48D2F8F710E94C522282FAD
:104BA0002F71CE0199279062922B05C081E090E091
:104BB00002C080E090E0DF91CF910895CF93C92F9C
:104BC000682F84E090E00E942E336C2F82E290E008
:104BD000CF910C942E33CF9384E090E00E941A334F
:104BE000C82F82E290E00E941A332C2F30E0A901F6
:104BF000582BCA01CF91089580E090E00E9428339D
:104C00008A3E9E4F11F40C94021B80E008956AEED8
:104C10007EEF80E090E00E944C3360E082E090E024
:104C20000E942E3360E083E090E00E942E331092C9
:104C30003D0360E084E090E00E942E3360E082E279
:104C400090E00E942E3360E085E090E00E942E33D9
:104C500060E086E090E00E942E336FEF87E090E006
:104C60000E942E3340E050E0BA0188E090E00E94BC
:104C7000403360E08DE090E00E942E3340E050E051
:104C8000BA0188E190E00E94403360E087E190E063
:104C90000E942E3340E050E0BA018CE190E00E9487
:104CA000403360E070E080E290E00E944C3340E0EE
:104CB00050E0BA0188E190E00E94403380E00E9419
:104CC000D51A0E94F31A40E050E0BA018FE090E05C
:104CD0000E94403340E050E0BA0183E190E00C9440
:104CE000403380913C03882331F010923C031092B2
:104CF0003B0310923A03089580959091F103892324
:104D00008093F103089580959091F0038923809317
:104D1000F00308959091F0038091F103892B909115
:104D20003903892B8093CB0280913C03882361F166
:104D30000E947B2820913A0330913B03821B930B06
:104D40008838934110F00E9471269091CB02809197
:104D50003C03892B8093CB0280910C01882331F096
:104D60008091AF0487FF02C08EE101C086E0EDECC8
:104D7000F2E090E0815028F021912223D9F39F5F47
:104D8000F9CF91110E947126E091A604F091A70439
:104D90003097A9F080910C01882359F08091AF04DD
:104DA00087FF07C08091CB028093CC0286E080937E
:104DB000CB020280F381E02D8BEC92E00994089500
:104DC0001092380310923703109236030895209101
:104DD00038038095822380933803982F977099F435
:104DE00030E0482F082E000C550B2417350759F0DA
:104DF0009091B00492FD07C08595859585950E9498
:104E000023210C94E02608959091B00492FB222770
:104E100020F9281769F080FB92F99093B0048091F3
:104E2000AF049091B0040E94DE2582E00C94E72646
:104E300008959091B00492FD10C098E0899F900170
:104E40001124262B209338030E942F210E947B28B7
:104E5000909337038093360308950C942F2180910B
:104E60003503811110923503089580913403909198
:104E7000F302891719F08F5F8770FBCF08951F9396
:104E8000CF93DF938091F00282958F7009F05CC020
:104E90008091ED02882309F457C08091340310916A
:104EA000F3026091EB027091EC02C091EE02D0919E
:104EB000EF0291E06F3F09F090E0292F811709F48C
:104EC00043C0209721F07F3F21F030E003C031E064
:104ED00001C0322F90E030FD34C0FC0133E0EE0F12
:104EE000FF1F3A95E1F7DF01AC50BD4F11963C91A1
:104EF0001197371326C03C91361323C012963C916C
:104F0000129731111EC013964D915C9114974C1B52
:104F10005D0B483C5105A8F48091F0028F708061D0
:104F20008093F002E750FD4F80818F708061808315
:104F30008BEE92E00E94DE03DF91CF911F910C94E3
:104F4000352701968770BACFDF91CF911F910895D1
:104F50008091BF01089524E02093E9002FEF309164
:104F6000E800215035FD06C035ED3A95F1F7000017
:104F70002111F5CF2091E80025FF0BC040E050E063
:104F800066E070E00E9408188091E8008E778093B8
:104F9000E8000895CF93DF9320910C01222339F08C
:104FA0002091AF0427FF03C060E224E002C068E064
:104FB00021E02093E9002FEF3091E800215035FDEA
:104FC00006C035ED3A95F1F700002111F5CF20919B
:104FD000E80025FF1DC0EC0180910C01811105C086
:104FE00040E050E068E070E003C070E040E050E076
:104FF000CE010E9408188091E8008E778093E80027
:1050000080E2FE01A0ECB1E001900D928A95E1F7FB
:10501000DF91CF9108958093B1047093B3046093AE
:10502000B2048091E2018430F9F48093E9008FEFBB
:105030009091E800815095FD06C095ED9A95F1F7A5
:1050400000008111F5CF8091E80085FF0DC040E0A0
:1050500050E063E070E081EB94E00E9408188091DA
:10506000E8008E778093E800089587E797E79093AC
:105070000108809300089AE088E10FB6F894A8959B
:10508000809360000FBE90936000FFCF78941F92D2
:105090000F920FB60F9211248F939F93AF93BF93EC
:1050A0008091AB049091AC04A091AD04B091AE049A
:1050B0000196A11DB11D8093AB049093AC04A09305
:1050C000AD04B093AE04BF91AF919F918F910F90BB
:1050D0000FBE0F901F9018959C014FB7F8948091C8
:1050E000AB049091AC04A091AD04B091AE044FBF5D
:1050F000821B930B08952FB7F8948091AB04909185
:10510000AC04A091AD04B091AE042FBF08951F92DE
:105110000F920FB60F9211248F939F93AF93BF936B
:105120008091AA04811113C08091AB049091AC04CA
:10513000A091AD04B091AE044196A11DB11D809324
:10514000AB049093AC04A093AD04B093AE04BF91B4
:10515000AF919F918F910F900FBE0F901F90189558
:1051600020910C012223C9F02091AF0427FF15C024
:10517000262F2695269526952E31C8F4FC01E20FA0
:10518000F11D677081E090E001C0880F6A95EAF731
:1051900080959281892382830895FC01069622815D
:1051A000621301C012823196E817F907C1F708951A
:1051B00020910C012223C1F02091AF0427FF14C0DD
:1051C000262F2695269526952E3130F5FC01E20FE7
:1051D000F11D677081E090E001C0880F6A95EAF7E1
:1051E0009281892B82830895FC0132962FEF30E063
:1051F0004191641789F02F3F19F4411101C0232F09
:105200003F5F3630A9F72F3F39F0FC01E20FF11D67
:1052100027FDFA956283089508952091A80430919E
:10522000A9042817390771F09093A9048093A80462
:10523000E091A604F091A704309721F00084F18555
:10524000E02D099408952091A4043091A504281715
:10525000390771F09093A5048093A404E091A6040B
:10526000F091A704309721F00680F781E02D099492
:105270000895E091A604F091A704309721F00190E1
:10528000F081E02D099480E00895EF92FF920F9352
:105290001F93CF93DF93FC012285211136C0EC01CF
:1052A000E380F480F7E5FF1A26E12E9DC0012F9DD3
:1052B000900D1124DC01AC50BC4F1496ED91FC9183
:1052C000159786509C4F309729F054966D917C919C
:1052D0005597099586E18E9D80018F9D100D1124B3
:1052E0000C501C4FF80187810E948326F8018085AD
:1052F0000E947C260E948A26188219861B861E829E
:105300001D821092F3031092F203DF91CF911F914F
:105310000F91FF90EF900895CF93DF93FC012189C7
:1053200021111CC0EC0181E0818B9091F0038781F9
:10533000892B8093F0039091F1038085892B8093D2
:10534000F1030E948A26EA81FB81CE0106963097FE
:1053500029F06C897D89DF91CF910994DF91CF91FC
:1053600008950F931F93CF93DF93C42FD22FFC0187
:1053700082818823C9F04093EF030E947B28909399
:10538000EE038093ED0380E28C0F883008F057C065
:10539000C77081E001C0880FCA95EAF7DF91CF910D
:1053A0001F910F910C94F1218091EF03481330C0AD
:1053B0008091ED039091EE030E946C28883C91054A
:1053C00038F510E21D0FCD17B9F080E28C0F883050
:1053D00040F4C77081E001C0880FCA95EAF70E94C7
:1053E000EA21183028F581E09D2F977001C0880FC1
:1053F0009A95EAF70E94F121802F0E94A522183089
:10540000F0F4D77081E001C0880FDA95EAF70AC09E
:1054100080E28C0F883098F4C77081E001C0880F5B
:10542000CA95EAF7DF91CF911F910F910C94EA2171
:10543000802FDF91CF911F910F910C94A522DF91C6
:10544000CF911F910F910895BC014091E903809184
:10545000EA03942F981729F1292F30E0F901EE0F74
:10546000FF1FEF51FC4F0190F081E02DE617F70789
:1054700099F487E0869FF001879FF00D1124E7558E
:10548000FC4F81E0848394130CC02F5F3F4F237047
:1054900033272093E90308952F5F3F4F922F937096
:1054A000D9CF08950F931F93CF93DF938091480333
:1054B000882309F451C0C09147031CE08091480340
:1054C000C81708F045C001E00C0F00934703D0E077
:1054D0001C9FF0011D9FF00D1124E75BFC4F908194
:1054E000818123813481232B31F08F3F31F481E09E
:1054F0009F3F19F403C081E001C080E080FD26C019
:105500001C9FD0011D9FB00D1124A75BBC4F1696A8
:105510008D919C911797892B31F418968D919C91C0
:105520001997019651F42081318142815381648120
:105530007581868197810E9453211C9FF0011D9FD8
:10554000F00D1124E75BFC4F14821382C02FB6CFFD
:105550001092480310924703DF91CF911F910F9152
:1055600008951092460310924503E9EAF3E085811D
:10557000811102C014821682379683E0E13EF8075B
:10558000B1F708951092EC031092EB0310921F01F3
:105590008091EA038093E9030E94B12A0C94522A75
:1055A0003F924F925F926F927F928F929F92AF92B3
:1055B000BF92CF92DF92EF92FF920F931F93CF9300
:1055C000DF93C091E90397E0892E01E010E02CE021
:1055D000322E3EEF932E442443948091EA03C81761
:1055E00009F478C0D0E0FE01EE0FFF1FEF51FC4F31
:1055F00080819181889ED001899EB00D1124A7558C
:10560000BC4F14962C911497211161C050904803FF
:10561000E9E4F3E020E030E0712C5D01251508F0AD
:1056200054C0E284F384D501CD90DC906FEF7FEF1E
:10563000612C462D50E0DA01AA0FBB1FAC0DBD1D39
:105640000D90BC91A02D109731F0EA16FB0609F4DD
:10565000BA016394EECF6F3FBFEF7B0791F1D801A2
:1056600002C0AA0FBB1F6A95E2F77A2AB80102C0EE
:10567000660F771F6A94E2F7AB0141505109672D1D
:1056800070E046175707D9F4329EF001339EF00DB3
:105690001124E75BFC4F889ED001899EB00D112438
:1056A000A755BC4F12962D913C91139737832683B3
:1056B000908291829187808715964C9206C01482C1
:1056C00013822F5F3F4F3C96A9CF0E94242A219638
:1056D000C37083CF0E94522ADF91CF911F910F9107
:1056E000FF90EF90DF90CF90BF90AF909F908F9002
:1056F0007F906F905F904F903F900C94B12ACF9322
:10570000DF93C7E6D3E060E0CE010E942E332196FE
:10571000C11584E0D807B9F7DF91CF910895462FDE
:105720002091430330914403232B91F47E3F39F4BD
:105730006E3F71F480914103909142030895883047
:1057400038F4763028F4673018F4672F0C94F81981
:1057500080E090E008956F927F928F929F92AF9237
:10576000BF92CF92DF92EF92FF920F931F93CF934E
:10577000DF93CDB7DEB764970FB6F894DEBF0FBEE8
:10578000CDBFA0901D01B0901E0181E090E09093EC
:105790001E0180931D01612CC12CD12C712CE12C98
:1057A000F12C00E010E046018E0C9F1CF801EE0F7A
:1057B000FF1FE80DF91DEA5DFA4F25913491402F46
:1057C000672D862D0E94C2190F5F1F4F07301105EC
:1057D00069F78EE0E80EF11C7394E6E07E12E1CFEB
:1057E000F4E5CF0ED11C639488E06812D7CF1A82FB
:1057F00019821C821B821E821D8218861F8288ECE1
:1058000090E09A87898707EC12E04AE050E0B801FF
:10581000CE0101960E945233065F1F4F0731E3E02D
:105820001E0799F77E01FBE0EF0EF11C8AE0F701FD
:1058300011928A95E9F74AE050E0B801C7010E9449
:105840005233065F1F4F0736F3E01F07A1F7B092F0
:105850001E01A0921D0164960FB6F894DEBF0FBE24
:10586000CDBFDF91CF911F910F91FF90EF90DF900F
:10587000CF90BF90AF909F908F907F906F90089542
:10588000883080F49B01982F8AE0989FB001112402
:1058900069537D4F4AE050E0C9010E940A3380E01D
:1058A00090E008958FEF9FEF0895E2E5F2E04381E5
:1058B00028E0421B08F440E021E0628181810C94E1
:1058C000BF1DE2E5F2E0438128E0420F08F44FEF0C
:1058D00021E0628181810C94BF1DE2E5F2E06281EA
:1058E00028E0621B08F460E021E0438181810C9490
:1058F000BF1DE2E5F2E0628128E0620F08F46FEF7D
:1059000021E0438181810C94BF1DE2E5F2E08181B9
:1059100021E04381628188500C94BF1DE2E5F2E0F2
:10592000818121E043816281885F0C94BF1D809159
:105930005202282F269530E02115310519F4817087
:10594000826005C02532310524F08170886480931F
:10595000520280915502813518F080E580935502FE
:105960000895CF92DF92EF92FF926B017C010E942B
:10597000972CB701A60188E090E0FF90EF90DF90B0
:10598000CF900C94403380915602882319F08150B7
:10599000809356026091520270915302809154029A
:1059A000909155020C94B12C80915602833018F4DA
:1059B0008F5F8093560260915202709153028091E2
:1059C0005402909155020C94B12C9091520290FF88
:1059D00036C09170811102C0926006C0853210F00D
:1059E000986402C0880F982B90935202662351F05E
:1059F000609152027091530280915402909155022D
:105A00000E94B12C60915202669570E04BE050E02C
:105A10008DE091E00E940C34892B19F01092F40172
:105A200002C00E94331B81E08093F00120E040918E
:105A3000550260915402809153020C94BF1D089549
:105A4000809152028695815009F484E261E00C94C1
:105A5000E52C8091520286958F5F853208F081E0B7
:105A600061E00C94E52CE2E5F2E083E080831182B2
:105A70008FEF828380E583831482608171818281CC
:105A800093810C94B12CAF92BF92CF92DF92EF92A0
:105A9000FF920F931F93CF93DF93E82EF62EE90129
:105AA000E42FF0E0611106C0E658FA4FE4914E2F62
:105AB0002E2F71C0062F10E0E658FA4F4491F42FB4
:105AC000C42ED12C26E0829FC00111242FEF30E09C
:105AD000B9010E9478335BEA5603C001579F900DCD
